:100000000C9410040C9457040C9457040C9457044B
:100010000C9457040C9457040C9457040C945704F4
:100020000C9457040C9457040C94B3300C948731FF
:100030000C9443260C9457040C9457040C945704C6
:100040000C9457040C9457040C9457040C945704C4
:100050000C9457040C949A260C9457040C9457044F
:100060000C9457040C9457040C9457040C945704A4
:100070000C9457040C9457040C9457040C94570494
:100080000C9457040C9457040C9457040C94570484
:100090000C9457040C94570429003A003B003C0090
:1000A0003D003E003F00400041004200430044004C
:1000B000450046004700480035001E001F00200094
:1000C00021002200230024002500260027002D0007
:1000D0002E0049004A004B002B0014001A000800B3
:1000E000150017001C0018000C00120013002F0050
:1000F00030004C004D004E0039000400160007008F
:1001000009000A000B000D000E000F003300340040
:1001100028002A0000000000E10001001D001B0073
:1001200006001900050011001000360037003800E5
:10013000E50031005200E400E000E300E2000000CE
:10014000000001002C00000000000100E600E700B4
:100150000151500051004F00010001000100010059
:100160000100010001000100010001000100010087
:1001700001000100010001000100C25CC35CC55C1C
:10018000C65CC75CC85CC95CCA5C010001000100B8
:100190000100010001000100010001000100010057
:1001A0000100010001000100010001000100010047
:1001B0000100010001000100010001000100010037
:1001C0000100010001000100010001000100010027
:1001D0000100010000000000010001000100010019
:1001E0000100010001000100010001000100010007
:1001F00001000100BE5C01000100010001000000DF
:1002000000000100010000000000010001000100E9
:100210000100BF5CBD5CC05C010001000100010089
:1002200001000100010001000100010001000100C6
:1002300001000100010001000100010001000100B6
:1002400001000100010001000100010001000100A6
:100250000100010001000100010001000100010096
:100260000100010001000100010001000100010086
:100270000100010001000100010001000100010076
:100280000100010001000100010001000100010066
:100290000100010000000000010001000100010058
:1002A0000100010001000100010001000100010046
:1002B0000100010001000100010001000100000037
:1002C0000000010001000000000001000100010029
:1002D0000100010001000100010001000100010016
:1002E0000100010001000100010001000100010006
:1002F00001000100010001000100010001000100F6
:1003000001000100010001000100010001000100E5
:1003100001000100010001000100010001000100D5
:1003200001000100010001000100010001000100C5
:1003300001000100010001000100010001000100B5
:1003400001000100010001000100010001000100A5
:100350000100010000000000010001000100010097
:100360000100010001000100010001000100010085
:100370000100010001000100010001000100000076
:100380000000010001000000000001000100010068
:100390000100010001000100000000000000000059
:1003A0002A2B2800000000000000000000000000D0
:1003B00000000029000000002C1E342021222434DB
:1003C0002627252E362D3738271E1F2021222324AD
:1003D00025263333362E37381F0405060708090A49
:1003E0000B0C0D0E0F101112131415161718191AE5
:1003F0001B1C1D2F3130232D350405060708090A63
:100400000B0C0D0E0F101112131415161718191AC4
:100410001B1C1D2F3130354C000000000000000077
:100420000000000000000000000000007E0F00D46B
:10043000FFFFFFC70000007832190A00047F3F1F4A
:10044000643214643214783C1E1E140A05222325DB
:100450002628292A2C2D2F3032333536383A3B3D89
:100460003E4042434547494A4C4E505153555759D7
:100470005A5C5E6062646668696B6D6F71737577F4
:10048000797B7D7F81838587898A8C8E90929496F3
:10049000989A9C9E9FA1A3A5A7A8AAACAEAFB1B302
:1004A000B4B6B8B9BBBCBEBFC1C2C3C5C6C7C9CA52
:1004B000CBCCCDCED0D1D2D2D3D4D5D6D7D7D8D914
:1004C000D9DADADBDBDBDCDCDCDCDCDDDDDDDDDC72
:1004D000DCDCDCDCDBDBDBDADAD9D9D8D7D7D6D584
:1004E000D4D3D2D2D1D0CECDCCCBCAC9C7C6C5C346
:1004F000C2C1BFBEBCBBB9B8B6B4B3B1AFAEACAA93
:10050000A8A7A5A3A19F9E9C9A98969492908E8C42
:100510008A89878583817F7D7B79777573716F6D1C
:100520006B6968666462605E5C5A595755535150F6
:100530004E4C4A4947454342403E3D3B3A383635AA
:100540003332302F2D2C2A292826252322FFAA7F5B
:1005500055400001010101010101010102020202F5
:10056000020202020203030303030303030404045D
:100570000404040405050505050606060606070726
:1005800007070708080808090909090A0A0A0B0BDE
:100590000B0C0C0C0D0D0D0E0E0E0F0F0F1010117D
:1005A0001111121213131414151516161717181803
:1005B00019191A1A1B1B1C1D1D1E1E1F202021226B
:1005C00022232424252626272829292A2B2C2D2DB1
:1005D0002E2F30313232333435363738393A3B3CCE
:1005E0003D3E3F404142434445464748494A4C4DC1
:1005F0004E4F50515354555658595A5B5D5E5F618A
:100600006264656668696B6C6D6F7072737577781C
:100610007A7B7D7E8082838587888A8C8E8F91937A
:100620009596989A9C9EA0A2A3A5A7A9ABADAFB1A1
:10063000B3B5B7BABCBEC0C2C4C6C9CBCDCFD1D486
:10064000D6D8DBDDDFE2E4E7E9EBEEF0F3F5F8FA2C
:10065000FDFF0403300000001C0358004F00380069
:100660003700200053006F006C00640065007200CA
:1006700065006400000018034D006F006E007300F9
:100680007400610072006700650061007200000084
:100690000403090409025B00030100A0FA09040035
:1006A000000103010100092111010001224000079E
:1006B00005810308000A0904010002030000000983
:1006C00021110100012222000705820340000107D9
:1006D00005030340000109040200010300000009B2
:1006E000211101000122BC000705840320000A1229
:1006F00001100100000008474D44530100010203AE
:10070000010660FF0961A1010962150026FF00953D
:1007100040750881020963150026FF0095407508A1
:100720009102C005010902A10185020901A100058C
:100730000919012905150025019505750181029505
:1007400001750381010501093009311581257F9566
:10075000027508810609381581257F950175088184
:1007600006050C0A38021581257F9501750881065A
:10077000C0C005010980A101850319012AB7001530
:100780000126B700950175108100C0050C0901A173
:1007900001850419012AA002150126A00295017500
:1007A000108100C005010906A1018505050719E0B2
:1007B00029E7150025019508750181020507190033
:1007C00029EF1500250195F0750181020508190131
:1007D0002905950575019102950175039101C005E3
:1007E000010906A101050719E029E7150025019572
:1007F0000875018102950175088101050719002915
:10080000FF150026FF0095067508810005081901EF
:100810002905950575019102950175039101C000A7
:1008200011241FBECFEFD0E1DEBFCDBF04B603FE63
:1008300027C08091D7049091D804A091D904B09199
:10084000DA048730904BA740B04BD1F41092D70414
:100850001092D8041092D9041092DA0414BE84B70E
:10086000877F84BF0FB6F894A89580916000886157
:1008700080936000109260000FBEE0E0F8E70995F9
:1008800011E0A0E0B1E0E0E9FAE602C005900D92C7
:10089000AE3FB107D9F724E0AEEFB1E001C01D9241
:1008A000A73DB207E1F70E94672D0C94B8340C9471
:1008B00000006D9A249A259A809A3E9A559A3C9AFD
:1008C0003A9A389A689A549A6C9A269A229A849AF2
:1008D000089A829A0C9A819A0F9A539A0B9A0895C1
:1008E000882321F081E08093150408951092150467
:1008F0000895882321F081E08093190408951092CF
:1009000019040895882321F081E080931A04089542
:1009100010921A0408958091810486958695869593
:100920000895EF92FF920F931F93CF930E94B00B05
:10093000813019F081E00E94A61004E613E07801EE
:10094000C0E02C2FF7014281618180810E949E0DC1
:10095000CF5FF3E0EF0EF11CCA3099F72C2FF801AE
:1009600040A1678D868D0E949E0D0D5F1F4FCF5F4A
:10097000C531A1F7CF911F910F91FF90EF900C948B
:10098000FB0BCF93DF9380912F03816080932F0324
:100990001092BD03ABE3B1E041E050E08D91E82F50
:1009A000E295EF70F0E021A18F70BA0102C0660FEE
:1009B000771F8A95E2F7CB01922F982B91A392A1F2
:1009C0008095892382A371E0A134B70739F7ABE2A0
:1009D000B1E04BE351E061E070E08D91E82FE295EA
:1009E000EF70F0E021A18F70EB0102C0CC0FDD1F92
:1009F0008A95E2F7CE01922F982B91A392A1809530
:100A0000892382A34A175B0741F7E2ECF3E082E215
:100A100094E021E021938E179F07E1F76E98769876
:100A2000DF91CF910C949F098091A40386958170EA
:100A30000E9482048091A40381700E9479048091B5
:100A4000A40382FB882780F90C947004CF938091D3
:100A50008104C82FC695C695C6950E941405C1117C
:100A6000C1E09091BE039C1771F0EFEBF3E090E0D2
:100A700029EA290F223018F0933509F0C3839F5FCC
:100A800031969036A9F7C093BE03CF910895809315
:100A9000A40381E00895CF93DF93F894CBE2D1E0F3
:100AA00020E041E050E08991A82FA295AF70B0E01E
:100AB0008F70BA0102C0660F771F8A95E2F7CB01EB
:100AC000E091BF03E295E07FE20FF0E0E154FC4FDC
:100AD00063813091C00392969C919297361708F0EB
:100AE00042C0892B92968C932F5F2031E1F62AE049
:100AF00030E061E070E0E091BF03F0E0E55CFE4FC4
:100B00008081E82FE295EF70F0E092A18F70AB0149
:100B100001C0440F8A95EAF7892F842B82A32150C4
:100B2000310949F70E942605E091BF0381E08E0F4D
:100B30008630E0F48093BF03F0E0E55CFE4F208157
:100B4000E22FE295EF70F0E032A12F7081E090E0AB
:100B500001C0880F2A95EAF78095832382A37894B1
:100B6000DF91CF91089580958923BCCF1092BF0368
:100B70001092C003E1CF08950C94C105089581E05F
:100B8000089581E0089508950C94C3051F93CF93B1
:100B9000DF9300D000D00F92CDB7DEB749835A83E0
:100BA0006B8330918D0289819A8131111DC066233A
:100BB000B9F02223A9F00E943623182F682F8981CB
:100BC0009A810E94E32269817A81812F0F900F9090
:100BD0000F900F900F90DF91CF911F910C9476168C
:100BE0000E940F23182FEFCF0E94362369817A814C
:100BF000EDCFFC01262F4081518162817381848178
:100C00000C94C605CF93DF93EC0160E00E94F905D8
:100C1000BE01DF91CF910C94C405FF920F931F93F7
:100C2000CF93DF93E82FF0E0E856FC4FF490C82F05
:100C3000C695C695C695D0E0FE01E85DFB4F0491D0
:100C4000877010E0082E02C0159507950A94E2F708
:100C500001701127C85EDB4FFE01C491D0E002C0D5
:100C6000D595C7958A95E2F7C170DD270115110565
:100C700019F081EE0E94AA1A209719F086EE0E94C0
:100C8000AA1A8F2D0E94971BCD2B19F086EE0E9479
:100C9000411B012B41F081EEDF91CF911F910F910C
:100CA000FF900C94411BDF91CF911F910F91FF900A
:100CB0000895EF92FF920F931F93CF93DF93EC0170
:100CC000162F0AE08881882309F456C0813009F084
:100CD00050C08981813061F47E0122E0E20EF11C76
:100CE000CA818C2F0E94AA1A8C2F0E94411B09C016
:100CF000823099F47E0182E0E80EF11C8A810E9424
:100D0000AA1AE7012196812F8150E0F2EFE9FFE076
:100D10003197F1F700C00000F7CF833031F47E0146
:100D2000E2E0EE0EF11C8A81E0CF843011F02196D2
:100D3000E9CF2A81229690E080E0AE014F5F5F4FBD
:100D40002053330B2A30310548F00197D8F2EFE9F0
:100D5000FFE03197F1F700C00000F7CF089FB00126
:100D6000099F700D1124C901860F971F2981EA017F
:100D7000E4CF0E940D06C6CFDF91CF911F910F9156
:100D8000FF90EF90089560E00C9459068F929F9227
:100D9000AF92BF92CF92DF92EF92FF920F931F9389
:100DA0006B017C0181E090E0A0E0B0E04C015D01CE
:100DB00004C0880C991CAA1CBB1C4A95D2F7B5012B
:100DC000A4014C015D0104C0880C991CAA1CBB1C29
:100DD0002A95D2F7482959296A297B2904C0880F06
:100DE000991FAA1FBB1F0A95D2F78A019B010C21EC
:100DF0001D212E213F21041715072607370789F4E7
:100E00008C299D29AE29BF29BC01CD011F910F91CD
:100E1000FF90EF90DF90CF90BF90AF909F908F901A
:100E2000089580959095A095B0958C219D21AE2137
:100E3000BF21EACF0F93382F262F609102037091C4
:100E400003038091040390910503042F432F0E9414
:100E5000C6060F910C9421220E9402270E94802432
:100E6000811102C00E9426250E9459040C94C104DD
:100E70000C94BB050C94BE050C944705CF93C82F6A
:100E80000E943A078C2FCF910C943C0708950E9442
:100E90004D1E0E9446072FEF84E39CE021508040C6
:100EA0009040E1F700C000000C94DC260F931F93E4
:100EB000CF93DF93EC0161E00E94F9058C01BE0144
:100EC0000E9415148823B9F1BE01C8010E94BC0517
:100ED000882389F1BE01C8010E940213882359F1B9
:100EE000BE01C8010E94AC17882329F1BE01C801C8
:100EF0000E94ED178823F9F0BE01C8010E94101965
:100F00008823C9F0BE01C8010E94B911882399F055
:100F10008A81882339F001158CE5180751F00E3DC0
:100F20001C4579F0CE01DF91CF911F910F910C9468
:100F3000BF050E94470780E0DF91CF911F910F917D
:100F400008950E942625F7CF90E080E00895089547
:100F5000FC01EE0FFF1FE85CFB4F85919491089513
:100F6000CF93DF930E9476160E94C508EC0181158D
:100F700020E5920708F042C0811530E4930708F09D
:100F8000BDC0883E910528F5803E910508F09DC0C2
:100F9000883A910588F4853A910508F08FC0813030
:100FA000910509F492C0009709F48FC0049708F0E6
:100FB0008CC0D0E0C0E089C08F3B910508F489C0A7
:100FC000805C9109C03CD105A0F30E94A807EC0108
:100FD0007CC08115904250F4C11581E0D80708F01B
:100FE00074C0C03FD10528F3D0656FC0C11590E330
:100FF000D90708F079C0CE019F70E7CF811525E5AC
:10100000920758F5811534E5930708F0A6C08115BD
:1010100042E5940750F4C11581E5D80708F471C082
:10102000DC2FCC27C16FD06A50C0982F969596952B
:101030009E0123703327C115D34508F07FC0C1E05E
:10104000D0E002C0CC0FDD1F2A95E2F720E2929F8C
:10105000C0011124C82BD92B6FC0C11589E5D80751
:10106000A8F4C11598E5D90708F07CC0C11526E59C
:10107000D20708F09ECF8C2F0E945C09C82FD0E0C9
:10108000DC2FCC27CC27DF71D0621FC0C1153AE519
:10109000D30708F46CC0CE0190568115904208F039
:1010A00088CF8D2F8F710E945C0990E0982F882740
:1010B00088279F719C012C2BE901E6CFC55AD0E00F
:1010C000C159DE4FC881D0E0D064CE01DF91CF910D
:1010D0000895C85AD0E0CC0FDD1FCF5BDE4F0990DA
:1010E000D881C02DD464F1CFCE019927D3FF03C09E
:1010F000EC01D86CEACFEC01D06CE7CFDF70D06A9E
:10110000E4CFCE01E4E096958795EA95E1F7837008
:101110002C2F26952695237090E2299F900111246B
:10112000382B8C2F8370C1E0D0E002C0CC0FDD1FC4
:101130008A95E2F7C22BD32BDC68C7CFC1E0D0E0A1
:1011400002C0CC0FDD1F2A95E2F730E2939FC00169
:101150001124C82BD92BDA68B8CFD82FCC27C46F6D
:10116000D06AB3CFDC2FCC27C06FD06AAECF8C2F24
:101170008F700E945C0934E0D695C7953A95E1F7E7
:10118000CF709C2FEC01D069A0CF82389105B1F1CE
:10119000B0F48133910509F475C048F489329105A2
:1011A00009F469C08A32910509F473C00895853342
:1011B000910509F459C08933910501F10895833EE1
:1011C0009105A9F138F4803E9105F9F0823E910530
:1011D00049F10895863E9105A9F1873E9105C9F12F
:1011E000843E910519F52091C90421FF1FC080910B
:1011F000C80484FD14C087EE90E008952091C804CF
:101200002370A1F080EE90E008952091C80420FDA5
:1012100047C03091C90430FF09C024FF44C090E0AA
:1012200080E004C02091C80422FDF7CF08952091EA
:10123000C80422FD3BC03091C90430FDE3CF24FF38
:10124000F5CFEDCF2091C80423FFF0CF24FDE7CFE9
:10125000D2CF2091C80423FD2CC03091C90431FFA6
:10126000EECF84EE90E008952091C80425FFDECFF4
:1012700089E290E008952091C80425FFD7CF85E347
:1012800090E008952091C80426FFD0CF8AE290E034
:1012900008952091C80426FFC9CF81E390E0089506
:1012A00089E390E0089583EE90E0089582EE90E067
:1012B000089586EE90E008959091C80492FF06C0CC
:1012C000282F28712830F9F4877F846093FF06C0A7
:1012D000282F28712831F1F4877E84612091C90478
:1012E00020FF06C0382F38713830D9F4877F8160ED
:1012F00021FF06C0282F28712831D1F4877E816113
:1013000094FD877E0895282F24712430F9F68B7F71
:101310008860DCCF282F2471243101F78B7E88610F
:10132000DDCF382F3171313019F78E7F8860E0CFF3
:10133000282F2171213121F78E7E8861E1CF089518
:10134000E82FF0E0EE0FFF1FEF5CFB4F80819181F3
:101350000895089580EA8A95F1F70895A2E7B1E02B
:1013600061E070E08D91E82FE295EF70F0E041A12F
:101370008F709B0101C0220F8A95EAF7922F9095FA
:10138000942391A382A1822B82A381E0A238B80783
:1013900049F7A2E8B1E061E070E08D91E82FE295B5
:1013A000EF70F0E041A18F709B0101C0220F8A9580
:1013B000EAF7922F9095942391A382A1822B82A386
:1013C00081E0A838B80749F7E5E2F4E0A1E3B4E02A
:1013D00081E394E0119211921D921D928E179F0746
:1013E000C9F786E00E94970A0C942C072F923F922F
:1013F0004F925F926F927F928F929F92AF92BF9225
:10140000CF92DF92EF92FF920F931F93CF93DF93D0
:1014100092E7C92E91E0D92EF12CE12C10E0AA24FC
:10142000A394B12C31E3632E34E0732ED6018D9159
:101430006D01C82FC295CF70D0E099A18F70450182
:1014400001C0880C8A95EAF7892F882989A38AA187
:10145000082D009580238AA30E94AA09A5010E2CBD
:1014600002C0440F551F0A94E2F7BA0160957095C7
:10147000E5E2F4E082E8282E81E0382E512C21911B
:101480003191D1014D901D01842D82958F7090E096
:10149000DC0190968C9190E0B42DBF7002C09595C0
:1014A0008795BA95E2F780FD3EC0C901842B952B44
:1014B0002817390741F09F0122503109D9018D9336
:1014C0009C93552453946E167F06C9F689A1082370
:1014D00009A38AA1882A8AA21529BFEFEB1AFB0A61
:1014E000E0E1EE16F10409F0A1CF212F46E061E31F
:1014F00074E085E294E00E94980A0E943807812FE8
:10150000DF91CF911F910F91FF90EF90DF90CF90DF
:10151000BF90AF909F908F907F906F905F904F9013
:101520003F902F900895C90186239723C1CF089536
:10153000FF920F931F93CF93DF93F82E092F162F4F
:10154000D72FC42F222349F081E0809300020E940C
:1015500073269093FF018093FE01809100028823FF
:10156000A1F08091FE019091FF010E948B260697C9
:1015700060F0EF2DF02FA12FBD2F90E080E0D0E0A4
:101580008C179D0744F010920002DF91CF911F91BC
:101590000F91FF900895219131912D933D930196E4
:1015A000EFCFAF92BF92CF92DF92FF920F931F9334
:1015B000CF93DF93362F472FE82FF0E0EE5AFA4F04
:1015C00071110DC06491762F862FDF91CF911F91FD
:1015D0000F91FF90DF90CF90BF90AF900895C72FED
:1015E000D0E02491F22E022F10E056E0659FC0015A
:1015F0001124EFEFF0E0BF010E945333832F90E0FE
:10160000880F991F35E5369FD001379FB00D112403
:101610008A1B9B0B982F990F980F6F01CC1ADD0A2C
:10162000C09ED001C19EB00DD09EB00D11248B2F55
:10163000949FA0011124452F55276F01C41AD50A84
:10164000C09EA001C19E500DD09E500D11245F017F
:10165000A91AB108AC9E6001AD9ED00CBC9ED00C06
:101660001124CD2CDD24EC19FD09E09FE001E19F60
:10167000D00DF09FD00D1124ED2F62307105A1F037
:1016800048F46115710569F06130710589F0EB2F3F
:10169000852F07C06430710571F088F066307105E0
:1016A000B1F76E2F722F91CFE22F2B2F8D2FF9CF05
:1016B000E22F252FF6CFEB2F822F2D2FF2CF2B2FBE
:1016C0008F2DE52FEECF0895CF93DF93762FE9018D
:1016D000682F842F0E94D10A798368838A83DF91DF
:1016E000CF91089580913D04982F9E7F29F48170B9
:1016F000826080933D0408958635E8F381708465A7
:10170000F8CF88E090E00C941534CF92DF92EF92FE
:10171000FF926B017C010E94720BB701A60188E069
:1017200090E0FF90EF90DF90CF900C943334609175
:101730003D0470913E0480913F04909140040C94CC
:10174000850BEDE3F4E083E0808311828FEF8283E9
:101750008383148260817181828193810C94850BD3
:1017600080913D0480FF02C08695089580E0089531
:1017700080914104833018F48F5F8093410460911D
:101780003D0470913E0480913F04909140040C947C
:10179000850B80914104882319F081508093410486
:1017A00060913D0470913E0480913F04909140040B
:1017B0000C94850B80914104089580934104662325
:1017C00051F060913D0470913E0480913F049091EE
:1017D00040040C94850B089560E00C94DD0B80911F
:1017E0003E04089580913F04089580914004089537
:1017F00070E00C9479136091070180913D0480FFA3
:101800000AC08091060123E0829FC00111248E5BF3
:101810009B4F0C94F80B809108019091090123E0F3
:10182000829FF0011124EE5BFB4F891750F7118264
:10183000108212828F5F3396F8CF90913D0490FF13
:1018400014C0909108012091090133E0939FF001A9
:101850001124EE5BFB4F921710F00C94FB0B81836D
:10186000608342839F5F3396F6CF0895CF93DF93D3
:1018700000D00F92CDB7DEB790913D0490FF0AC023
:101880009E012F5F3F4F0E94640B4B8169818A81CB
:101890000E941D0C0F900F900F90DF91CF91089533
:1018A000CF93DF93EC01EC81F0E0E35BFB4F4491DD
:1018B000EDE3F4E0628181810E94360C8C818F5FC0
:1018C0008C83DF91CF910895CF93DF93EC01EDE30B
:1018D000F4E0438162818C810E94360C8C818F5FA1
:1018E0008C83DF91CF9108950F931F93CF93DF9354
:1018F00000D00F92CDB7DEB78C018091010281112B
:101900000AC09E012F5F3F4F4FEF6FEF0E94640BA5
:101910008A8180930102F8016481613069F08091CD
:10192000010240E0662361F040E0623011F4409132
:10193000010280E060E004C06091010240E080E0CC
:101940000E941D0CF801848190E0019663E070E034
:101950000E94673384830F900F900F90DF91CF9197
:101960001F910F910895AF92BF92CF92DF92EF92A5
:10197000FF920F931F93CF93DF9300D00F92CDB7B9
:10198000DEB7182FF62E042FE22E90913D0490FF23
:1019900029C0E92FE695AE2FB0E0A857BE4F8C9135
:1019A000809374029E7F923059F59E012F5F3F4FC6
:1019B000812F0E94640B4B8169818A810E941D0CDA
:1019C00010933E04F0923F0400934004EE2051F047
:1019D00060913D0470913E0480913F0490914004D9
:1019E0000E94850B0F900F900F90DF91CF911F9168
:1019F0000F91FF90EF90DF90CF90BF90AF90089540
:101A0000823019F400914004DBCF863019F4109134
:101A10003E04D6CF8930D9F3893191F6E9518E2F22
:101A20008170D82EE695F0E0E35BFA4FA590B49074
:101A3000C12CBB2460910A01C61618F00E94FB0B52
:101A4000BFCF2C2D30E0A29EC001A39E900DB29E70
:101A5000900D112470E00E945333812FD11013C0D8
:101A6000860F40910801420F532F511D9A01220FFA
:101A7000331F240F351F2E5B3B4F402F6F2D0E94CD
:101A8000640BC394D7CF861BECCFEDE3F4E09181D8
:101A9000282F4381628188E0890F0C94B30C81E088
:101AA0000C94450DEDE3F4E09181282F4381628190
:101AB00088EF890F0C94B30C81E00C94520DEDE388
:101AC000F4E0628121E1620F08F46FEF282F438177
:101AD00081810C94B30C81E00C945F0DEDE3F4E094
:101AE000628121E1621B08F460E0282F438181813B
:101AF0000C94B30C81E00C946E0DEDE3F4E04381A3
:101B000021E1420F08F44FEF282F628181810C946C
:101B1000B30C81E00C947D0DEDE3F4E0438121E111
:101B2000421B08F440E0282F628181810C94B30CA1
:101B300081E00C948C0D20E00C94B30C90913D044A
:101B400090FF0FC0253168F430E0F901EE0FFF1F60
:101B5000E20FF31FEE5BFB4F8183608342830C94A3
:101B6000FB0B0895EF92FF921F93CF93DF93EC014D
:101B700010E0EE24EA94F12C60910A01161770F03F
:101B80000E94FB0B9A818C8190FF27C08F5F8C8312
:101B9000DF91CF911F91FF90EF9008952091080160
:101BA000422F410F5527551FCA019A01220F331F9B
:101BB000280F391F2E5B3B4F70E0C7010E9467332F
:101BC000962F8C814091400460913F04199F800DB5
:101BD00011240E94640B1F5FCFCF8150D8CFAF92EA
:101BE000BF92CF92DF92EF92FF920F931F93CF930A
:101BF000DF93FC0182810FEF80FF01E010E045E1FF
:101C0000A42E80910A011817C8F00E94FB0B809146
:101C10000302013009F055C0811102C080910A0110
:101C2000815080930302DF91CF911F910F91FF901C
:101C3000EF90DF90CF90BF90AF900895C0910801D2
:101C4000C12ED12CCC0DDD2DD11DCE01880F991FB9
:101C5000C80FD91FCE5BDB4F198218821A8234E07D
:101C6000E32EF12CB12C809103028B0D86311CF1F7
:101C70006A2D0E944533892F082E000C990BC81637
:101C8000D90691F4809140048E9DA0018F9D500D46
:101C9000112455954795559547959E0160913F04B0
:101CA00080913E040E94640BB00EF1E0EF1AF1083F
:101CB000D1F61F5FA6CF87FFDFCF90910A01890F72
:101CC000DBCF90E0019660910A0170E00E946733DB
:101CD000A8CF0F931F93CF93DF938091080190912A
:101CE000090123E0829FF0011124EE5BFB4F89176D
:101CF00040F1C0E0D3E060910A01C61740F10E94B4
:101D0000FB0B2091040180910202820F809302025A
:101D100090910501920F90930501191654F4082E25
:101D2000000C990B40910A014150550B84179507FF
:101D30001CF0219520930401DF91CF911F910F9109
:101D400008951182108212828F5F3396D0CF0C2FAC
:101D500010E070E0C8010E94673320910801820FF3
:101D6000482F50E020910202022E000C330B021784
:101D70001307BCF020910501022E000C330B201735
:101D800031077CF08D9F900111242E5B3B4F4091D9
:101D9000400460913F0480913E040E94640BCF5F39
:101DA000AACFFA01EE0FFF1FE40FF51FEE5BFB4F0A
:101DB000118210821282F3CF0F931F93CF93DF9380
:101DC0008C01FC018481958101968170992795830E
:101DD0008483C0E0D5E580910A01C81730F0DF9117
:101DE000CF911F910F910C94FB0B20910801422F72
:101DF0004C0F5527551FCA019A01220F331F280F78
:101E0000391F2E5B3B4F8C2F8695F80144815581FD
:101E1000840F952F911D81704091400460913F0483
:101E20008D9F802D11240E94640BCF5FD4CF0F9320
:101E30001F93CF93DF93EC0110E000E090910A0133
:101E40009017110609F06CF40E94FB0B8C8190E056
:101E50000196817099278C83DF91CF911F910F910B
:101E6000089520910801A801420F511D9A01220FE7
:101E7000331F240F351F2E5B3B4F4C8160913F0475
:101E800080913E0496959017110651F04CF0442332
:101E900049F0409140040E94640B0F5F1F4FCECF6A
:101EA0004423B9F340E0F7CF8F929F92AF92BF9255
:101EB000CF92DF92EF92FF920F931F93CF93DF9316
:101EC000FC01B280948081E0848300E015E05BE453
:101ED000A52E88248394EE24EA94F12C7BE4C72E6B
:101EE000D12C80910A01081770F0DF91CF911F91DA
:101EF0000F91FF90EF90DF90CF90BF90AF909F90A9
:101F00008F900C94FB0BC02FD0E01C9FF0011D9F05
:101F1000F00D1124EC5FFD4F91101CC01382128252
:101F200020910801CE01820F911D9C01220F331FC9
:101F3000280F391F2E5B3B4F1C9FF0011D9FF00D9A
:101F40001124EC5FFD4F4281618180810E94640B0E
:101F50000F5FC7CF2381222379F12150238334815E
:101F60008A2D821B311101C0822F1C9FF0011D9F01
:101F7000F00D1124EC5FFD4F90914004899FC0014A
:101F80001124B6010E9453336283211104C033230C
:101F900011F01482A38222E02B1510F21C9FF00195
:101FA0001D9FF00D1124EC5FFD4F80913E04808356
:101FB00080913F048183B4CF0E94F03382309140FE
:101FC0000CF0AECF82E08B1530F50E94F033B701F4
:101FD0000E9467331C9FF0011D9FF00D1124EC5FE0
:101FE000FD4F808322E02B15C8F40E94F03320912E
:101FF0003F042695622F70E00E946733280F1C9FD4
:10200000F0011D9FF00D1124EC5FFD4F2183128222
:10201000A382848285CF80913E04DCCF20913F044F
:10202000EECFEDE3F4E080818E7F8083608171816B
:10203000828193810E94850B109275022FEF80E7B9
:1020400092E0215080409040E1F700C000000C94E5
:10205000FB0BEDE3F4E080818E7F808310927502AC
:102060002FEF80E792E0215080409040E1F700C0E0
:1020700000000C94FB0B60913D04669570E04BE012
:1020800050E08BE091E00E940034892B19F481E04C
:10209000809375020E94732690936E0280936D0266
:1020A000089590913D0490FF35C09170811128C032
:1020B000926090933D04662351F060913D047091CD
:1020C0003E0480913F04909140040E94850B6091F2
:1020D0003D04669570E04BE050E08BE091E00E949B
:1020E0000034892BA1F01092750281E08093700278
:1020F0004091400460913F0480913E040C949B0DFC
:102100008B3210F09465D5CF880F982BD2CF0E94D8
:102110003B10EBCF0895682F90913D04969581E098
:10212000890F8B3208F081E00C94511081E00C94FF
:102130008B10682F90913D0496958FEF890F09F4CD
:102140008AE20C94511081E00C94991061E00C9497
:102150005110EDE3F4E080818160808386950C94DA
:10216000A61080913D0480FD0C9411100C94A910D0
:1021700060E00C9451108091730281112EC00E9476
:102180008024811104C00E9426250E94A10B0E9478
:10219000810B60933D0470933E0480933F049093C1
:1021A00040046E7F61F40E94A10B0E94810B60933A
:1021B0003D0470933E0480933F04909340040E943A
:1021C000720B1092750280913D0480FF03C08695CA
:1021D0000E94B81081E0809373020895EDE3F4E06B
:1021E00080818160808386950C94B8100F931F9333
:1021F000CF93DF9380917502882309F49BC0E0910F
:102200004104E0936F02809174028230C9F5F0E0DE
:10221000E75BFB4FE491CE2FD0E000E51CE080911E
:102220007002882389F0109270020E9473269E012A
:1022300020953095820F931F90936E0280936D02CC
:10224000109272021092710280916D0290916E0252
:102250000E948B268C179D0708F46CC0E0916D02DC
:10226000F0916E02CE0FDF1FD0936E02C0936D020D
:102270008DE692E0F801DF91CF911F910F910994C3
:10228000863049F4F0E0EA5BFB4FE491CE2FD0E0DA
:1022900004E61CE0C4CF893051F4E695F0E0ED5B34
:1022A000FB4FE491CE2FD0E002EB1DE0B8CF8F3092
:1022B00051F4E695F0E0E05CFB4FE491CE2FD0E0E6
:1022C0000FEE1DE0ACCF853149F4F0E0E35CFB4F4D
:1022D000E491CE2FD0E009E61EE0A1CFC8EED3E016
:1022E0000CED1EE0883109F49ACF833239F4EBE328
:1022F000F4E0C591D49104E71CE091CFC4EFD1E0A4
:1023000007E11FE0843209F48ACFC0EDD7E003E68D
:102310001BE0853209F083CF8E2F63E00E943933B2
:10232000E92FF0E0E85CFB4FE491CE2FD0E004E52C
:102330001FE075CFDF91CF911F910F910895FA01A2
:10234000811101C0FB010994CF93DF93C82FD62FD1
:102350000E94B00B8C1740F00E94B00B8D1720F438
:10236000DF91CF910C9496108C2FDF91CF910C942C
:10237000A6100F931F93CF938C01FB01C281CC2336
:1023800009F469C00E94CB238272F801E25CFC452B
:10239000E431F10538F4E654FB4C0C947B330E9495
:1023A000B110C0E08C2FCF911F910F91089543EA97
:1023B00050E166E970E10E949F11F3CF46E950E1D8
:1023C00063EA70E1F8CF4CE55DE06FE47DE0F3CFC8
:1023D0004FE45DE06CE57DE0EECF4AE75DE06BE663
:1023E0007DE0E9CF4BE65DE06AE77DE0E4CF48E9D8
:1023F0005DE069E87DE0DFCF49E85DE068E97DE028
:10240000DACF49EC5BE068EB7BE0D5CF48EB5BE0F3
:1024100069EC7BE0D0CF81E00E94A6100E9491047D
:10242000C0CF65E082E00E94A411BBCF68E086E0E7
:10243000FACF6EE089E0F7CF64E18FE0F4CF67E197
:1024400085E1F1CF88E10E94A610ABCF62E289E17D
:10245000EACF83E2F8CFC1E0A5CF809181040C944C
:10246000B224809181048695869586950895089575
:102470000E948024811102C00E9426250E94AE2461
:1024800080938104803220F087708861809381047A
:1024900090918104892F817090FF04C0892F8695C7
:1024A000869586950C94371280918104982F969585
:1024B00096959695933040F49F5F990F990F990FD9
:1024C0008770892B8093810480918104816080933F
:1024D00081040E94B2248091810486958695869518
:1024E0000C94371280918104982F987F79F088504E
:1024F00080938104887F91E009F490E080918104C9
:1025000090FB80F9809381040E94B2248091810421
:102510008695869586950C9437128091810480FD6E
:1025200013C0816080938104813019F489E0809325
:102530008104809181040E94B22480918104869557
:10254000869586950C94371208958091810480FFBA
:1025500008C08E7F809381040E94B22480E00C9496
:10256000371208958091810480FD0C94A5120C947B
:102570008D1290918104892F8695869586958F5F1F
:102580008F7197708430D8F4880F880F880F892B4B
:102590008093810480918104887F91E009F490E028
:1025A0008091810490FB80F9809381040E94B22481
:1025B000809181048695869586950C943712909328
:1025C0008104E8CF843008F083E090918104977013
:1025D000282F220F220F220F922B90938104987F95
:1025E00021E009F420E09091810420FB90F9909380
:1025F00081040C9437120E94E212809181040C94A1
:10260000B22408959C01FB018281882349F12D3B6E
:10261000FCE53F07C9F040F42B3BECE53E0769F0D1
:102620002C3B3C4579F008952F3B9CE5390791F010
:1026300070F0203C3C4589F0089583E00E94FB1235
:1026400080E0089580E0FACF0E947212F9CF0E94D4
:102650005412F6CF0E94B212F3CF0E94B912F0CFFB
:1026600081E00895CF93C82F0E948B04C89FC001BA
:10267000112496958795CF9108952AB1342F3F70F4
:10268000A1E0B0E001C0AA0F3A95EAF72A2B2AB9D7
:1026900042954F70E42FF0E022A14A2F409542234B
:1026A00032A1A32B5FB7F8949B01220F331F260F93
:1026B000371F280F391F2817390741F45FBF87ECF0
:1026C00090E00197F1F700C000000895FC016191CE
:1026D000CF0178E0ABB9000000C067FF4BB9660FCF
:1026E000000000C000C000C04BB900C07A9591F74F
:1026F000E2CF8F929F92AF92BF92CF92DF92EF92F2
:10270000FF920F931F93CF93DF937C016B01B12C4A
:1027100023E0A22E8B2C912C8C149D0490F047E981
:10272000B60182E894E0DF91CF911F910F91FF9065
:10273000EF90DF90CF90BF90AF909F908F900C94D0
:102740003D138701BA9C000D111D1124F8018181F0
:102750000E943213E401CC0FDD1FC80DD91DCE57E6
:10276000DB4F8983F80180810E9432138883F8014E
:1027700082810E9432138A83B394CCCF82E290E0AC
:102780000E940D34813289F483E290E00E940D347E
:10279000813059F484E290E00E940D3491E0863259
:1027A00009F090E0892F8170089580E0FCCFCF93ED
:1027B000C82F6FEF811161E282E290E00E94213424
:1027C0006FEFC11161E083E290E00E9421346FEF6E
:1027D000C11166E284E290E0CF910C94213480E054
:1027E0000E94D7130C947A24089585E290E00E9409
:1027F0000D34682F70E090E080E0089585E290E06D
:102800000C9421340E94F4130E94BE1381110CC059
:1028100060E070E0CB010E94FE130E94EE150E9462
:10282000D81681E00C94D7130895CF93FB01C28191
:10283000CC2309F19C0122513F452031310520F57F
:1028400082510E94E816C0E08C2FCF91089581E05C
:102850000E94472243E062E081E00E941A07F3CF22
:1028600081E00E94682243E062E081E00E941A0752
:10287000EBCF82E0F6CF8031FFE59F0789F381310E
:102880009F45B9F3C1E0E0CF8031EFE59E07F9F253
:1028900081319F45C9F682E0DBCF2FEFFC01208319
:1028A0000895CF93DF93EC018881893029F08A3035
:1028B00079F0DF91CF9108950E9431122FEF829F1E
:1028C000C001112463E070E00E9453336983F1CFAB
:1028D0001982EFCFFC012081293061F48181F3E07E
:1028E0008F9FC00111246FEF70E00E945333862F39
:1028F0000C94E2120895CF93DF93EC018881813824
:10290000A9F028F4803871F0DF91CF9108958238D2
:1029100081F08338C9F70E94EF0B89830E94F20B84
:102920008A83F2CF0E94F50B8983EECF0E94B00B11
:10293000FBCF0E94DA0BF8CFCF93DF93EC018881B5
:102940008138E1F028F4803869F0DF91CF91089563
:10295000823811F18338C9F70E94F50B482F6A813C
:10296000898108C0D9810E94F20BC82F0E94EF0B09
:102970004D2F6C2FDF91CF910C949B0D89810E947C
:10298000B8108981811104C0DF91CF910C94291076
:10299000DF91CF910C94EE108981DF91CF910C944F
:1029A000EC0BDF92EF92FF920F931F93CF93DF9385
:1029B000EC01D62EDC01ED918D01E150E33108F000
:1029C000C9C0F0E0E253FB4C0C947B33198289E0E0
:1029D0008A836D2DCE01DF91CF911F910F91FF90D2
:1029E000EF90DF900C945B2C8981823069F083300A
:1029F00071F08130D9F40E947F260E9481336A836E
:102A00007B838C839D83E5CF0E94F513F6CF7E01F7
:102A100010E0812F0E94A009F701928383831F5F3A
:102A2000F2E0EF0EF11C1630A1F7D3CF6D2DCE01E1
:102A30000E944D14CECF89818230C1F76A817B819B
:102A40008C819D810E9481330E94FE13C2CF4B81F5
:102A50006A8189810E94C0159827892798279D83BC
:102A60008C83B7CF2C813D813227232732274B819E
:102A70006A8189810E94D915ACCF0E94EE15A9CF39
:102A8000CD010E946A14C8010E949C14A2CFCD01FE
:102A90000E945114C8010E947B149BCF0E942D12EA
:102AA0000E94970B96CF0E948316898392CF0E9433
:102AB00085169827892798279A8389838ACF6B81DF
:102AC00070E089819A81AE014C5F5F4F982789271A
:102AD00098270E9488167DCF6B8170E089819A814A
:102AE000AE014C5F5F4F9827892798270E94AE164A
:102AF00070CF0E94D8166DCF0E94AD15D6CF6B81D6
:102B000070E089819A81AE014C5F5F4F98278927D9
:102B100098270E9426165DCF6B8170E089819A818B
:102B2000AE014C5F5F4F9827892798270E944C166B
:102B300050CF0E94EF134DCF0E945B2C2FEF81EE00
:102B400094E0215080409040E1F700C000000E94D6
:102B5000DC263FCF8FEF88833CCF84E0089590E25E
:102B6000699FB001112450E0440F551F640F751F79
:102B700090EC899F600D711D1124CB0186960895FC
:102B80000F931F93CF93DF930E94AF158C010E9488
:102B90000D34C82FD0E0DC2FCC27C80101960E944D
:102BA0000D349E01282BC901DF91CF911F910F9108
:102BB00008950F931F93CF93DF93122F032F0E943B
:102BC000AF15EC01602F0E942134612FCE010196D8
:102BD000DF91CF911F910F910C942134AF92BF924E
:102BE000CF92DF92EF92FF921F93CF93DF9388E90A
:102BF000C82E80E0D82ED0E07601C0E014C0F501E8
:102C000025913491412F6C2F8D2F0E94D91582E090
:102C1000A80EB11C1F5F103191F780E2E80EF11C85
:102C2000CF5FC63019F0570110E0E9CFDF5F80ECCD
:102C3000C80ED11CD43001F7DF91CF911F91FF90C6
:102C4000EF90DF90CF90BF90AF900895EF92FF92FA
:102C50000F931F93CF93DF93EC018A017C01E60E63
:102C6000F71ECE018696CE15DF0539F4DF91CF91A0
:102C70001F910F91FF90EF900895C11523E0D207A7
:102C800040F40E940D34F80180830F5F1F4F21969E
:102C9000E8CFF8011082F9CFCF92DF92EF92FF9246
:102CA0000F931F93CF93DF937C016A018C01060F72
:102CB000171FEC01CE018696C017D10749F4DF91AA
:102CC000CF911F910F91FF90EF90DF90CF900895DB
:102CD000C11523E0D20740F4FE01EE19FF09EC0D07
:102CE000FD1D60810E9421342196E4CF462F84305F
:102CF00038F4763028F4603118F4672F0C94C0153E
:102D000090E080E0089580E108958AED90E00895D4
:102D1000EF92FF920F931F93CF93DF93EC018A0101
:102D20007C01E60EF71ECE018A5D9C4FCE15DF05B5
:102D300039F4DF91CF911F910F91FF90EF9008959B
:102D4000CA3DD10540F40E940D34F80180830F5F25
:102D50001F4F2196E8CFF8011082F9CFCF92DF9272
:102D6000EF92FF920F931F93CF93DF937C016A0141
:102D70008C01060F171FEC01CE018A5D9C4FC01716
:102D8000D10749F4DF91CF911F910F91FF90EF9000
:102D9000DF90CF900895CA3DD10540F4FE01EE19B1
:102DA000FF09EC0DFD1D60810E9421342196E4CFC6
:102DB000CF93DF93C6E2D3E060E0CE010E942134DE
:102DC0002196C11584E0D807B9F7DF91CF91089516
:102DD000DF92EF92FF920F931F93CF93DF9300D078
:102DE00000D0CDB7DEB7F82E8FE08F1540F08FEF13
:102DF00093E00E940D3406E213E08823C1F00F90A7
:102E00000F900F900F90DF91CF911F910F91FF9036
:102E1000EF90DF900895011584E0180781F3C80151
:102E20000E940D34811101C0FA940F5F1F4FF11001
:102E3000F2CF19821A821B821C82DD24D39478017E
:102E40008FEFE81AF80AC8010E940D3489831A82AC
:102E50008823A9F29FEF980F933078F48A83D98260
:102E60000E5F1F4FC7010E940D348B83882339F2F8
:102E7000CE0101960E94C306E2CF8701F9CF0F93DE
:102E80001F93CF93DF93C62FD42F022FFC01828193
:102E90008823C9F0609378020E947326909377028A
:102EA0008093760280E28C0F883008F050C0C770A3
:102EB00081E001C0880FCA95EAF7DF91CF911F9199
:102EC0000F910C94AA1B10917802161335C08091B3
:102ED0007602909177020E948B26883C910560F5DE
:102EE000C0E2CD0F1D17B9F080E2810F883040F4A9
:102EF000177081E001C0880F1A95EAF70E94B11B94
:102F0000C83048F481E09D2F977001C0880F9A95D2
:102F1000EAF70E94AA1B802F0E94971BC830B8F4C2
:102F2000D77081E001C0880FDA95EAF7DF91CF9181
:102F30001F910F910C94B11B80E28C0F883038F4F4
:102F4000C77081E001C0880FCA95EAF7EFCFDF9123
:102F5000CF911F910F9108959C01CB01233F4CE528
:102F6000340731F190F4283DFCE53F07E9F0293DB5
:102F70004CE5340769F1273D3C4579F426E241EE02
:102F800061EE0E943F1780E00895253FFCE53F0772
:102F9000B9F090F0263F3C45B9F0FC0182818823CE
:102FA000D1F010927802089527E245EE65EEE9CF60
:102FB00026E241EE60EEE5CF27E245EE64EEE1CF9A
:102FC00026E241EE62EEDDCF27E245EE66EED9CF96
:102FD00028E241E0EBCF81E00895CF93DF93EC014D
:102FE000FB018281882309F419C1C230FCE5DF07A7
:102FF000C0F1C6319CE5D90730F09E012A5F3C45FF
:103000002930310570F50E9493249093C904809370
:10301000C804C031ECE5DE0709F4CFC008F05BC09E
:10302000C8308CE5D80709F4B6C088F5C430ECE5A3
:10303000DE0709F4A8C0C0F4C2308CE5D80709F453
:103040009CC08091C8048260C330DC4509F498C0FC
:103050008091C8049091C9040E94A1240E944D1E31
:1030600080E0DF91CF9108958091C8048061C630DF
:10307000ECE5DE0709F484C08091C8048860C7309D
:10308000DC4508F47DC08091C804806279C0CC30F2
:103090008CE5D80709F489C070F48091C8048C606D
:1030A000CA30ECE5DE0709F46BC008F478C0809103
:1030B000C8048E7F65C0CE308CE5D80709F479C08E
:1030C0008091C8048B7FCF30DC4508F459C08091D3
:1030D000C8048F7E55C0CB3FECE5DE0709F457C02E
:1030E00030F5C3318CE5D80709F46FC078F4C131ED
:1030F000ECE5DE0709F465C0C231DC4509F0A8CF74
:103100000E944D1E8091C8048F773AC0C5318CE56E
:10311000D80709F462C008F476C08091C9048160C0
:10312000CA3FDC4509F094CF8093C90491CFCF3FCB
:10313000FCE5DF0709F44DC088F48091C9048D7F58
:10314000CD3F9CE5D90781F38091C9048E7FCE3FA6
:10315000DC4550F38091C9048360E6CFC130FDE5C2
:10316000DF0709F459C008F444C080E0C230DD45EF
:1031700009F06ECF0E9428256BCF8091C804816032
:103180008093C80465CF8091C8048460F9CF809192
:10319000C9048260C9CF8091C8048064F1CF0E94C5
:1031A0004D1E8091C8048068EBCF8091C8048D7F4C
:1031B000E7CF8091C804877FE3CF8091C8048F7DDB
:1031C000DFCF8091C8048F7BDBCF8091C804837FE1
:1031D000D7CF8091C9048C7FA7CF8091C80482FB90
:1031E000992790F921E0922790FB82F990FB83F9CF
:1031F000C7CF8091C904982F909591708E7F892BAD
:1032000090FB81F991CF0E944D1E9091C804892FA7
:1032100097FB87F98058B4CF81E0ACCF81E021CF14
:10322000CF93DF93EB0186319C4511F50E94CB23B0
:103230009A81992399F08A7A91E009F490E0909329
:103240007902811109C089E20E94A6230E941724F5
:1032500080E0DF91CF91089585E3F6CF80917902E8
:10326000811104C089E20E94AD23F0CF85E3FBCF3A
:1032700081E0EFCF90937F0280937E020895E091EA
:103280007E02F0917F02309721F00190F081E02DD5
:10329000099480E00895E0917E02F0917F023097DA
:1032A00099F020912A01222359F02091C80427FF88
:1032B00007C0DC012C9111962C93119725E02C93DB
:1032C0000280F381E02D09940895E0917E02F0914F
:1032D0007F02309739F022E0DC012C930480F581E5
:1032E000E02D0994089520917C0230917D022817E9
:1032F000390771F090937D0280937C02E0917E0209
:10330000F0917F02309721F00680F781E02D09943B
:10331000089520917A0230917B022817390771F0C5
:1033200090937B0280937A02E0917E02F0917F027B
:10333000309721F00084F185E02D0994089585B738
:10334000806885BF85B7806885BF08950895089512
:103350000C94A61908950C94AA190E949F190E9412
:10336000A7190C94A81981E008950C94B3190E9430
:103370006A260E94AE090E9402140E9416270E942B
:1033800038120E94BB100C94AB197F928F929F92BF
:10339000AF92BF92CF92DF92EF92FF920F931F9363
:1033A000CF93DF93CDB7DEB72A970FB6F894DEBF81
:1033B0000FBECDBF0E94F6090E94B519882309F4FB
:1033C00075C041E8A42E42E0B42E10E000E0702E5B
:1033D000802F0E94A0096C01F501819091905F01FE
:1033E0008816990609F45CC080912F0381FD0E9424
:1033F000A90980E0EE24E394F12C8C249D2494010F
:103400002E213F21232B09F445C08E837F82CE20BD
:10341000DF2081E0CD2809F480E088870E947326B0
:103420008160782F9A8789874E815F8168858A8538
:103430000E947B1A000F111FF801EF57FD4F80818A
:103440009181E826F926F182E0820E94F6100E941E
:1034500001130E94A3280E943F19909180028917AE
:10346000B1F10E943F19809380022A960FB6F8941A
:10347000DEBF0FBECDBFDF91CF911F910F91FF90A7
:10348000EF90DF90CF90BF90AF909F908F907F9004
:103490000C943E078F5FEE0CFF1C803109F0AFCF1C
:1034A0000F5F1F4F0630110509F091CF8FEF898311
:1034B0008A831B820E9473268160782F9D838C8370
:1034C00049815A816B818D810E947B1ABECF2A96D9
:1034D0000FB6F894DEBF0FBECDBFDF91CF911F9125
:1034E0000F91FF90EF90DF90CF90BF90AF909F90A3
:1034F0008F907F900895CF93DF93CDB7DEB72B9752
:103500000FB6F894DEBF0FBECDBF4F8358876987D3
:103510007A878B871E821D8285E0FE013796DE0149
:10352000119601900D928A95E1F749815A816B813C
:103530007C818D819E812B960FB6F894DEBF0FBEE5
:10354000CDBFDF91CF910C94C320FC01808191818C
:103550000C947823CF93C82F882309F490C0823825
:10356000C1F40E943F1981FD8AC089E30E94A6230D
:103570000E9417242FEF81EE94E02150804090406C
:10358000E1F700C0000089E30E94AD23CF910C94C5
:1035900017248338A1F40E943F1980FD70C083E591
:1035A0000E94A6230E9417242FEF81EE94E0215061
:1035B00080409040E1F700C0000083E5E5CF84380B
:1035C000A1F40E943F1982FD5AC087E40E94A623FD
:1035D0000E9417242FEF81EE94E02150804090400C
:1035E000E1F700C0000087E4CFCF8CEF8C0F813A69
:1035F000B8F48C2F0E94162B811141C06C2F809142
:103600001601909117010E944125882329F08C2FE3
:103610000E94AD230E9417248C2F0E94A623B6CFB0
:1036200080E28C0F883048F4C77081E001C0880FB9
:10363000CA95EAF70E94CE23A9CFEBE5EC0FE33061
:1036400040F4F0E0EF51FE4F808190E0CF910C9478
:103650007319E8E5EC0FE73150F4F0E0EE0FFF1FCF
:10366000ED54FE4F80819181CF910C948919C03F18
:1036700030F08C2F0E94B127CF910C949828CF91D5
:103680000895882309F452C0823871F40E943F19CA
:1036900081FF4CC089E30E94A6230E94172489E37E
:1036A0000E94AD230C941724833859F40E943F19CB
:1036B00080FF3CC083E50E94A6230E94172483E577
:1036C000EFCF843859F40E943F1982FF2FC087E45E
:1036D0000E94A6230E94172487E4E2CF9CEF980F54
:1036E000913AF0F290E2980F983050F4877091E0A0
:1036F00001C0990F8A95EAF7892F0E94D423D2CF6F
:103700009BE5980F933020F490E080E00C947319BF
:1037100098E5980F973120F490E080E00C94891997
:10372000803F20F00E9419280C9498280895CF9388
:10373000C82F0E94AA1AC93349F42FEF87EE93E0ED
:10374000215080409040E1F700C000008C2FCF91C5
:103750000C94411B882321F00E94CE230C94172443
:103760000895882321F00E94D4230C9417240895EF
:10377000BF92CF92DF92EF92FF920F931F93CF935E
:10378000DF936C01D62FC72FFC01058102950F70C6
:10379000128111110E94EB230E94C423E82E88237A
:1037A00071F01123B1F080E28D0F883090F082E04B
:1037B0000E9462240E94C42391E0E82EE926BC2ED8
:1037C000B2949FE0B922EB2DF0E0EF51FB4C0C944A
:1037D0007B33E12CF4CF0C2F0F70C07F11F00295DA
:1037E000007F1123A9F0002359F080E28D0F88306B
:1037F00010F0D11109C0802F0E94CE230E941724FF
:103800008D2F0E94AA1A14C0802F0E94DE23F6CFAB
:103810008D2F0E94411B002359F080E28D0F8830CC
:1038200010F0D1112CC0802F0E94D4230E941724A5
:103830002B2D2850330B2430310520F40E943F19E2
:103840000E943E07EE2009F4D5C10E94C02380FDEE
:10385000D1C1F60112820E94BA230E944722C601FA
:103860000E941B1E0E94BA23DF91CF911F910F91DE
:10387000FF90EF90DF90CF90BF900C946822802F44
:103880000E94E423D3CFFC2FFF70FF2EC07FC032F5
:1038900019F0F29480EFF822DD2369F0D13049F17C
:1038A000112391F1002351F1F601858180FFA8CF0A
:1038B0008F70858323C0112381F0011106C00E94FF
:1038C000FE238F290E94AA1BB3CF0130C1F70E94AB
:1038D000FE238F290E940424ABCF011106C00E9451
:1038E0000D248F2D0E94B11BA3CF013009F4A0CF6E
:1038F000F6CF112329F0063008F09ACF8F2DE2CFB2
:10390000053008F095CFEDCF002359F3D93349F4B2
:10391000FFEF27EE33E0F15020403040E1F700C0E8
:1039200000008D2F0E94411B83CF8C2F869586959A
:10393000837069F0813009F07BCF8D2F9C2F9370BD
:10394000111102C090E080E00E94891971CF8D2F83
:103950009C2F9370111102C090E080E00E947319B7
:1039600067CF112309F1D53F99F0D63FB9F0D43F85
:1039700049F48091C1049091C20481609093C20483
:103980008093C1048D2F0E94B1270E94982850CFA8
:103990008091C1049091C2048260F0CF8091C104F3
:1039A0009091C2048460EACFD53F89F0D63FA9F058
:1039B000D43F49F48091C1049091C2048E7F9093CA
:1039C000C2048093C1048D2F0E941928DECF8091FC
:1039D000C1049091C2048D7FF2CF8091C104909177
:1039E000C2048B7FECCF8C2F837009F041C0111182
:1039F0001FCF4D2F429546954770440F440F0D2F12
:103A00000F7010E030E020E0042E04C0000F111F02
:103A1000221F331F0A94D2F760E070E0CB01D4FF7D
:103A20000FC06FE070E080E090E004C0660F771F89
:103A3000881F991F4A95D2F760957095809590954B
:103A4000C695C695C370602B712B822B932BC23009
:103A500049F058F4C13019F00E94F921E9CE0E94D2
:103A6000E721E6CE0E940B22E3CE0E94E521E0CEC4
:103A70008695112311F08C2F8170882309F4D8CEFC
:103A80004D2F429546954770440F440F0D2F0F70F0
:103A900010E030E020E0042E04C0000F111F221FB0
:103AA000331F0A94D2F760E070E0CB01D4FF0FC05F
:103AB0006FE070E080E090E004C0660F771F881F21
:103AC000991F4A95D2F76095709580959095C69507
:103AD000C695C370602B712B822B932BC23049F09B
:103AE00058F4C13019F00E94BE22A2CE0E94AC222E
:103AF0009FCE0E94D0229CCE0E94212299CECF70D0
:103B0000112329F08C2F0E9447228D2FDBCE8D2F81
:103B10000E94B11B8C2F0E9468228ACED23F89F16D
:103B200060F4D03FC9F0D13F29F1112309F442C01C
:103B3000011166CE8C2F8F7121C0D33F39F1D43F54
:103B4000A1F7112369F1CF718C2F0E94472263E006
:103B50008C2F0E944D246CCE112341F0053008F0CB
:103B600067CE8C2F8F710E948B2262CE063008F0B8
:103B70005FCEF7CF8C2F8F71112369F20E944722FD
:103B800057CE8C2F8F711123C9F3C5CF112329F084
:103B90008C2F8F710E9432224BCE0E942D2248CE54
:103BA00081E00E946224023008F442CE82E00E944A
:103BB00062243ECE002359F0D93309F0B2CE8FEF04
:103BC00097EEE3E081509040E040E1F7A8CE8C2FE3
:103BD0008F71A1CF4C2F4F706D2FC6010E94A4078B
:103BE0000E945D2125CE4C2F4F706D2FC6010E9483
:103BF000A7071ECEDF91CF911F910F91FF90EF90FD
:103C0000DF90CF90BF9008950F931F93CF93DF93D2
:103C1000EC01688179818A810E9482238C010E9453
:103C2000E2220E94E421B801CE01DF91CF911F91E1
:103C30000F910C94B81BCF93DF93EC018B819C8187
:103C4000892B29F08881998189238F3F19F4DF918D
:103C5000CF910895CE010E9456078823C1F3CE016B
:103C60000E94041ECE01DF91CF910C9402060E94A7
:103C7000EB230E94FB230E9417240E94BD290E946F
:103C8000982890E080E00E94731990E080E00C9406
:103C900089190E94B4230C94371E0E94DB230C94D4
:103CA000491EE92FE295EF70E250EE3070F4F0E03B
:103CB000EF50FB4C0C947B33803F19F020F4883E8E
:103CC00020F481E00895843FE1F380E00895883E88
:103CD000C0F3813FD1F7F5CF93FB882780F9089592
:103CE0000E9478230C94511ECF93DF9300D000D014
:103CF0000F92CDB7DEB70F900F900F900F900F90EF
:103D0000DF91CF910895CF93DF9300D000D000D002
:103D1000CDB7DEB726960FB6F894DEBF0FBECDBF87
:103D2000DF91CF9108951F93CF93DF93C0918E02BF
:103D300016E080918F028C1304C0DF91CF911F9108
:103D40000895D0E01C9FF0011D9FF00D1124E05755
:103D5000FD4F4081518162817381848195810E94F0
:103D6000831E2196C770E5CF4091C0025091C102D9
:103D70006091C2027091C3028091C4029091C50209
:103D80000C94831E1F93CF93DF938091C502807F95
:103D9000A9F48091C202882389F080918E02C0919B
:103DA0008F026091C0027091C102A091C302B091D4
:103DB000C402D62FD72316E0C81304C0DF91CF91D9
:103DC0001F91089590E0109711F0DF3F19F40196CC
:103DD0008770F2CF189F9001199F300D1124F901BF
:103DE000E057FD4F41814713F2CF40814613EFCF9B
:103DF00042814111ECCF438154814A1B5B0B483C0B
:103E0000510528F78091C5028F7080618093C502AB
:103E1000F901EB56FD4F80818F708061808380ECCB
:103E200092E00E941B1EDF91CF911F910C94931E74
:103E3000AF92BF92CF92DF92EF92FF920F931F93B8
:103E4000CF93DF93CDB7DEB761970FB6F894DEBF9F
:103E50000FBECDBF8C0185E0F801DE011D960190FB
:103E60000D928A95E1F7F80140815181E28080EC62
:103E7000C82E82E0D82E6091C3027091C4026115F1
:103E8000710509F461C19091C0022091C102892F8E
:103E900082238F3F09F458C1A380B480F090C202FE
:103EA000F501E61BF70BFF2009F4FCC08091C50269
:103EB000382F307FE83CF10508F0B2C0311179C0ED
:103EC000FE2C251323C0941321C0E1101FC08F7056
:103ED00080618093C5020E94B41EC6010E941B1E11
:103EE0008091C502F80185838F2D61960FB6F894F5
:103EF000DEBF0FBECDBFDF91CF911F910F91FF901D
:103F0000EF90DF90CF90BF90AF900895AB2829F04D
:103F1000842F85238F3F09F033C180E0F82FF170A3
:103F2000DF2E80FF3CC080918E0220918F0236E010
:103F3000821315C04D875E878D859E850E947823EC
:103F4000292F22952F702230F0F0243018F59F7021
:103F5000F1F0F8019581907FD1F4D12C1EC090E052
:103F6000389FF001399FF00D1124E057FD4F61811A
:103F7000651306C06081641303C062816E110FC0B7
:103F800001968770D5CF9F7011F0882331F3805E42
:103F9000883018F3C8010E941B1EFD2CA5CFEE200F
:103FA00009F4A2CF8091C50281608093C502F12CF3
:103FB0009BCF251306C0941304C0F801EE2009F42A
:103FC0008DC04D875E878D859E850E94701E8823DB
:103FD00019F1EE2009F18091C502803270F0209134
:103FE000C0023091C10238872F831986BB86AA860A
:103FF0008C87CE0107960E941B1E86E0F801A0EC7C
:10400000B2E001900D928A95E1F70E94C21E0E94D3
:10401000B41EFF24F39468CFC8010E941B1EF9CF81
:10402000311113C07A2DB98AA88A6E2D89890E9410
:10403000741E80EC92E00E941B1E86E0F601119235
:104040008A95E9F70E94B41EB2CF25130FC09413CE
:104050000DC0E1100BC0F8018583C8010E941B1E32
:1040600086E0F60111928A95E9F73ECF4D875E878B
:104070008D859E850E94701E882371F2EE2061F26C
:104080008091C502803208F4B8CF2091C0023091EF
:10409000C1023A8329831B82BD82AC828E83CE010A
:1040A0000196A9CFE83CF10508F041C0FE2CEE20B6
:1040B00009F4B2CF25132AC0941328C08091C502F9
:1040C00080FD1BC0982F907FC1F0F8018583903F41
:1040D00031F0982F907F905F8F70892B8583C80176
:1040E0000E941B1E86E0F801A0ECB2E001900D9248
:1040F0008A95E1F70E94B41EF7CE86E0F801A0ECA5
:10410000B2E001900D928A95E1F7EECE4D875E8781
:104110008D859E850E94701E81116FCF8091C50292
:1041200081608093C502C8010E941B1EDDCE7A2DDE
:10413000B98AA88A6E2D89890E94741E86E0F601CC
:1041400011928A95E9F7D6CFEE2009F465CF4D8715
:104150005E878D859E850E94701EF82E882309F447
:104160005BCF86E0F801A0ECB2E001900D928A9559
:10417000E1F780EC92E00E94A51A0E94C21EBACF1D
:1041800081E08E25CBCE1F93CF93DF93CDB7DEB7E3
:104190002C970FB6F894DEBF0FBECDBF4F83588764
:1041A00069877A878B879C87CE0107960E94181FA4
:1041B000882369F08A859B85892B39F04F81588542
:1041C000842F85238F3F09F071C016E05FC086E021
:1041D000FE013796DE01119601900D928A95E1F766
:1041E0008A859B85892B89F388859F8189238F3FC9
:1041F00061F320918F0230E0C90101968770992701
:1042000040918E024817190671F40E944D1E1092BB
:104210008F0210928E0286E0E0ECF2E0DF011D9248
:104220008A95E9F7D2CF96E0929FD001939FB00D87
:104230001124A057BD4FFE01319601900D929A9521
:10424000E1F780938F020E94931EBFCF819FC00130
:10425000112480579D4F0E94181F8823E9F0E09198
:104260008E021E9FF0011124E057FD4F40815181C5
:1042700062817381848195810E94831E80918E0268
:1042800090E001968770992780938E0280918E022C
:1042900090918F028913DACF2C960FB6F894DEBF77
:1042A0000FBECDBFDF91CF911F91089569857A85AB
:1042B0008B859C850E94831E88CFEF92FF920F937F
:1042C0001F93CF93DF938C01892B81F0F12CEE2487
:1042D000E394E8012196F8018491843770F48430E6
:1042E00008F05FC08130B1F08230A1F1DF91CF9151
:1042F0001F910F91FF90EF900895853709F44CC0FE
:1043000008F43DC09CE7980F903780F78F770E94A4
:10431000411B49C00E5F1F4FFE01849190E2980F30
:10432000983060F48770FE2D01C0FF0F8A95EAF780
:104330008F2F0E94EE230E94172402C00E94AA1A07
:104340008F2D815030F2EFE9FFE03197F1F700C097
:104350000000F7CF0E5F1F4FFE01849190E2980F8F
:10436000983050F48770FE2D01C0FF0F8A95EAF750
:104370008F2F0E94F423DFCF0E94411BE1CF0E5FFD
:104380001F4FFE01C491C150D8F28FE99FE0019701
:10439000F1F700C00000F7CF0E5F1F4FFE01F49051
:1043A000CFCF0E94AA1A8E01CBCF08950C94D521AD
:1043B0000E94D6216093060370930703809308033D
:1043C000909309030C94371E08950C94D8210F93F1
:1043D0001F93009106031091070320910803309169
:1043E0000903602B712B822B932B1F910F910C943F
:1043F000D8210F931F93009106031091070320917A
:1044000008033091090360237123822393231F91B2
:104410000F910C94D8210F931F93009106031091D4
:104420000703209108033091090360277127822731
:1044300093271F910F910C94D8210C94D5210C94A3
:104440001D220E941F226093020370930303809336
:104450000403909305030C94371E60E070E0CB01D9
:104460000C9421220F931F9341E050E060E070E034
:104470008A019B0104C0000F111F221F331F8A9560
:10448000D2F7C901B8011F910F910C9421220F930B
:104490001F9341E050E060E070E004C0440F551FFE
:1044A000661F771F8A95D2F78091020390910303CC
:1044B000A0910403B09105038A019B01082B192BDD
:1044C0002A2B3B2BC901B8011F910F910C9421227B
:1044D0000F931F9341E050E060E070E004C0440F90
:1044E000551F661F771F8A95D2F7CB01BA016095D9
:1044F000709580959095009102031091030320918F
:1045000004033091050360237123822393231F91B9
:104510000F910C9421220F931F9341E050E060E033
:1045200070E004C0440F551F661F771F8A95D2F7AD
:104530008091020390910303A0910403B0910503BD
:104540008A019B01082719272A273B27C901B8019F
:104550001F910F910C9421220F931F93009102033E
:10456000109103032091040330910503602B712BFC
:10457000822B932B1F910F910C9421220F931F9349
:10458000009102031091030320910403309105036D
:1045900060237123822393231F910F910C94212276
:1045A0000F931F93009102031091030320910403C2
:1045B0003091050360277127822793271F910F9160
:1045C0000C94212208959295907F890F982F9770CF
:1045D00041E001C0440F9A95EAF786958695869545
:1045E00095E0899FF0011124EA53FD4F30E020E06F
:1045F00070E05191DF011197CB01022E02C0969518
:1046000087950A94E2F78170819585278423852711
:104610008C932F5F3F4F2530310559F708959295C0
:10462000907F890F982F977086958695869525E0BF
:10463000829FF0011124EA53FD4F50E040E080E0FA
:10464000219130E0092E02C0369527950A94E2F7B1
:1046500021703327042E01C0220F0A94EAF7822B1F
:104660004F5F5F4F4530510559F70895BF92CF9284
:10467000DF92EF92FF920F931F93CF93DF938C0102
:10468000C0900203D0900303E0900403F090050370
:104690008091060390910703A0910803B09109034C
:1046A000C82AD92AEA2AFB2ACFE1D0E0BC2ED701BA
:1046B000C6010C2E04C0B695A795979587950A94C8
:1046C000D2F780FD0EC0219788F7B12C8B2DDF919A
:1046D000CF911F910F91FF90EF90DF90CF90BF90FF
:1046E0000895B8018C2F0E94B007019761F3EECFB7
:1046F000CF93DF93EC010E943623BE01DF91CF916F
:104700000C94B0071F93CF93DF93EB0190918D0230
:10471000992331F0CB01DF91CF911F910C94782335
:10472000882379F0CB010E943623182F682FCE0101
:104730000E94E322BE01812FDF91CF911F910C9443
:10474000B007CB010E940F23182FF4CF682F809160
:104750001601909117010C94C125682F80911601C4
:10476000909117010C94CC2580911601909117011E
:104770000C94D72580910A03859585958595089594
:1047800080910A038770089590910A03977081E0E1
:1047900009F480E0089580912E03089590912E03EE
:1047A000892B80932E030895809590912E03982352
:1047B00090932E03089510922E03089590912D0347
:1047C000892B80932D030895809590912D03982334
:1047D00090932D03089510922D03089590912C032A
:1047E000892B80932C030895809590912C03982316
:1047F00090932C03089510922C03089580910B033D
:10480000089508950C94012490910B03981721F0BA
:1048100080930B030C940224089580910B0388234A
:1048200029F010920B0380E00C9402240895E0918B
:104830001601F091170180912E038083E0911601FB
:10484000F0911701808190912D03892B8083E09155
:104850001601F0911701808190912C03892B8083A0
:1048600090910B03992381F0E0911601F0911701CB
:104870008081892B808380911601909117010E947D
:104880002D2581110E940D24809116019091170110
:104890000C944B1908950C944A2498E0899F900138
:1048A0001124622B60930A030E94472280910A031D
:1048B0008595859585950C944B2410920A0380E08C
:1048C0000C944B2490910A038095892380930A03CA
:1048D000282F277071F4282F082E000C330B921705
:1048E000130639F08595859585950E9468220C946C
:1048F0005D2408956FEF7FEF90E080E00C943F34EB
:1049000090E080E00E941B3421E08C3E9E4F09F035
:1049100020E0822F089582E090E00C940D3483E033
:1049200090E00C940D34CF9384E090E00E940D341D
:10493000C82F81E290E00E940D34982F8C2FCF91E8
:104940000895CF93C92F682F84E090E00E9421340E
:104950006C2F81E290E0CF910C94213486E090E0BE
:104960000C940D34682F86E090E00C942134AB0158
:10497000BC018FE090E00C943334AB01BC0183E1C7
:1049800090E00C94333460E070E0CB010C94BD24D3
:1049900060E070E0CB010E94B7240C94C3246CEE5D
:1049A0007EEF90E080E00E943F3460E082E090E0A3
:1049B0000E94213460E083E090E00E942134109254
:1049C000060310920703109208031092090360E097
:1049D00084E090E00E94213460E081E290E00E9457
:1049E000213460E085E090E00E94213460E086E0C0
:1049F00090E00E9421346FEF87E090E00E94213424
:104A000040E050E0BA0188E090E00E94333460E07A
:104A10008DE090E00E94213440E050E0BA0188E14E
:104A200090E00E94333460E087E190E00E942134FE
:104A300040E050E0BA018CE190E00E94333460E045
:104A400080E290E00E9421340C94C8240C94CF247E
:104A5000682F8EE090E00C942134FC013296809116
:104A60002A01882321F08091C8049EE187FF96E007
:104A700080E0915008F4089521912223D1F38F5FB3
:104A8000F8CF662301F120912A012223F1F0209131
:104A9000C80427FF1AC0462F4695469546954E31C5
:104AA00090F4677021E030E002C0220F331F6A9556
:104AB000E2F7840F911DFC01828190E028233923C5
:104AC00081E0232B69F480E00895FC01329608967A
:104AD0002191261721F0E817F907D1F7F4CF81E0EB
:104AE00008959C01FC0132969FEF80E041914617AA
:104AF00051F09F3F19F4411101C0982F8F5F86300C
:104B0000A9F79F3F09F40895290F311D97FD3A95A4
:104B1000F90162830895FC013296089621912613CB
:104B200003C0DF0111971C92E817F907B9F7089540
:104B3000E62FE695E695E695EE3168F4E80FF92F55
:104B4000F11D677021E030E001C0220F6A95EAF79D
:104B50008281822B82830895E62FE695E695E6957D
:104B6000EE3170F4E80FF92FF11D677021E030E0AD
:104B700001C0220F6A95EAF72095828128232283BB
:104B8000089520912A01222329F02091C80427FDAD
:104B90000C9498250C94712520912A01222329F048
:104BA0002091C80427FD0C94AC250C948B25FC01A6
:104BB000329680912A01882351F08091C80487FFA2
:104BC00006C08EE1DF011D928A95E9F7089586E01F
:104BD000F9CF089508950C94EA250E94EB25809161
:104BE000CE04843061F11092300388E190E020E43B
:104BF0000FB6F894A895809360000FBE20936000D4
:104C000080E00E94371280E00E943E070E94EB2560
:104C100083B7817F846083BF83B7816083BF7894CB
:104C2000889583B78E7F83BF0FB6F894A89580913F
:104C30006000886180936000109260000FBE08954C
:104C40000895CF930E94E9250E94F6090E9420262C
:104C5000C0E08C2F0E94A009892B31F4CF5FC630B1
:104C6000C1F780E0CF91089581E0FCCF08950C94C6
:104C700036260E944D1E0E9438120E943F190E9443
:104C80003E070C9437261F921FB61F9211248F9354
:104C90009F93AF93BF9380913003811113C0809194
:104CA000C4049091C504A091C604B091C704419674
:104CB000A11DB11D8093C4049093C504A093C604A4
:104CC000B093C704BF91AF919F918F911F901FBE6A
:104CD0001F90189582E084BD93E095BD93E597BD44
:104CE00080936E0008952FB7F8948091C40490913A
:104CF000C504A091C604B091C7042FBF08952FB773
:104D0000F8946091C4047091C5048091C604909198
:104D1000C7042FBF08959C014FB7F8948091C40435
:104D20009091C504A091C604B091C7044FBF821BE7
:104D3000930B089578941F920F920FB60F9211243F
:104D40002F933F934F935F936F937F938F939F9393
:104D5000AF93BF93EF93FF938091C3048F5F833032
:104D6000A8F48093C3040E944B05FF91EF91BF917B
:104D7000AF919F918F917F916F915F914F913F91F3
:104D80002F910F900FBE0F901F9018951092C30493
:104D90008091C4049091C504A091C604B091C70449
:104DA0000196A11DB11D8093C4049093C504A093E6
:104DB000C604B093C704D7CF81E08093E00080E2BF
:104DC0008093D8001092C9008FE19EE40197F1F71B
:104DD00000C0000087E090EBDC018093D704909343
:104DE000D804A093D904B093DA0488E19CE00FB60C
:104DF000F894A895809360000FBE90936000FFCF59
:104E00000C94EF130E94F6098FE39CE90197F1F7E8
:104E100000C000000E94F60980E00E94A00980FF07
:104E200004C00E9400270C94DC2608950E94802470
:104E3000811102C00E9426250E948B2480932F039B
:104E40000E9493249093C9048093C8040E948F24E5
:104E5000682F70E090E080E00C94E52180913803A9
:104E600080FF12C060911D0185E0689FB001112490
:104E7000759567957595679560387105A8F5611505
:104E80007105A1F1862F089581FF09C060911D0170
:104E900085E0689FB001112475956795EDCF60910D
:104EA0001D0182FD0AC0809137038823D1F09091C3
:104EB0001C0160911D01891728F085E0689FB001F1
:104EC0001124DACF869FB001112485E0869F9001DE
:104ED000879F300D1124692F70E0C9010E9467334C
:104EE000CBCF65E070E0CECF8FE7089581E00895E5
:104EF0008091380380FF0CC06091190170E07595B6
:104F00006795759567956115710549F1862F089527
:104F100081FF06C06091190170E075956795F3CF28
:104F20006091190182FD0BC0909137039923A1F084
:104F30006091180180911901961738F0682F70E080
:104F40006038710500F38FE70895899FC00111242F
:104F500070E00E946733F4CF61E070E0D7CF81E06A
:104F60000895803F31F40E942E27819580933C0361
:104F70000895813F19F40E942E27F8CF823F31F423
:104F80000E942E27819580933B030895833F19F457
:104F90000E942E27F8CF893F29F40E94782780931A
:104FA0003D0308958A3F21F40E9478278195F7CF29
:104FB0008B3F31F40E947827819580933E030895BA
:104FC0008C3F19F40E947827F8CF843F31F4809108
:104FD0003A03816080933A030895853F21F48091DC
:104FE0003A038260F7CF863F21F480913A038460D0
:104FF000F1CF873F21F480913A038860EBCF883F5F
:1050000021F480913A038061E5CF8D3F31F48091A6
:10501000380381608093380308958E3F21F4809196
:1050200038038260F7CF8F3FB9F7809138038460EF
:10503000F1CF90913B03803F41F480913C0387FD89
:1050400010923C03992371F00895813F29F48091D7
:105050003C031816ACF3F6CF823F81F497FFF2CFF2
:1050600010923B0380913C0390913D03892B9091DA
:105070003E03892B49F7109237030895833F19F4B3
:10508000191674F3DFCF893F39F480913D03181668
:10509000CCF610923D03D6CF8A3F29F480913D0390
:1050A00087FFD0CFF6CF8B3F39F480913E0387FF47
:1050B000C9CF10923E03C6CF8C3F29F480913E03A6
:1050C0001816BCF3BFCF843F31F480913A038E7F32
:1050D00080933A03B7CF853F21F480913A038D7FC7
:1050E000F7CF863F21F480913A038B7FF1CF873F42
:1050F00021F480913A03877FEBCF883F21F48091A0
:105100003A038F7EE5CF8D3F31F4809138038E7F57
:105110008093380397CF8E3F21F4809138038D7FA1
:10512000F7CF8F3F09F08ECF809138038B7FF0CF80
:1051300089E393E00E9465190E94732690933603D9
:10514000809335030895CF93DF9300D000D000D033
:10515000CDB7DEB786E0E9E3F3E0DE01119601901A
:105160000D928A95E1F780913B0390913C03892B46
:1051700081F080913303909134030E948B26AC011F
:1051800090913703992331F180911E018417150600
:1051900070F180913D0390913E03892B91F08091B5
:1051A0003103909132030E948B26AC01909137031A
:1051B000992309F478C080911A018417150608F420
:1051C00080C026960FB6F894DEBF0FBECDBFDF912C
:1051D000CF91089520911F018AE0289F900111240A
:1051E00024173507B0F69F5F9093370302C09F3FA7
:1051F000D1F710923D0310923E0380913B031816A5
:1052000024F40E942E2780933B0380913B0387FF69
:1052100005C00E942E27819580933B0380913C031B
:10522000181624F40E942E2780933C0380913C039F
:1052300087FF05C00E942E27819580933C03309103
:105240003B033323A1F020913C03222381F045EB63
:105250003403C00111249923F1F090933B0345EBF3
:105260002403900111243323D1F030933C030E9496
:10527000982880913503909136039093340380935E
:10528000330386E0FE013196A9E3B3E001900D926D
:105290008A95E1F77ECF81E080933B03E0CF81E008
:1052A00080933C03E4CF20911B018AE0289F90016A
:1052B00011242417350708F084CF9F5F909337039C
:1052C00002C09F3FD1F710923B0310923C038091A4
:1052D0003D03181624F40E94782780933D038091A3
:1052E0003D0387FF05C00E947827819580933D0389
:1052F00080913E03181624F40E94782780933E0381
:1053000080913E0387FF05C00E9478278195809396
:105310003E0330913D033323A1F020913E0322232D
:1053200081F045EB3403C00111249923F1F09093EF
:105330003D0345EB2403900111243323D1F0309336
:105340003E030E94982880913503909136039093F4
:1053500032038093310386E0FE013196A9E3B3E086
:1053600001900D928A95E1F72CCF81E080933D0367
:10537000E0CF81E080933E03E4CF86E0E9E3F3E011
:10538000DF011D928A95E9F71092370310923803D6
:105390000895833081F128F4813059F08230D1F0C2
:1053A0000895853009F449C0B8F1863009F456C033
:1053B000089580911F01482F460F5527551F4F3FD5
:1053C000510524F4680F60931F0108958FEF8093B7
:1053D0001F01089580911E01482F460F5527551F24
:1053E0004F3F510524F4680F60931E0108958FEF1D
:1053F00080931E01089580911D01482F460F552767
:10540000551F4F3F510524F4680F60931D01089507
:105410008FEF80931D01089580911C01482F460F46
:105420005527551F4F3F510524F4680F60931C0109
:1054300008958FEF80931C01089580911901482FE2
:10544000460F5527551F4F3F510524F4680F6093B1
:10545000190108958FEF8093190108958091180123
:10546000482F460F5527551F4F3F510524F4680F0D
:105470006093180108958FEF809318010895833089
:1054800011F128F4813049F0823091F0089585308F
:1054900081F120F18630C1F1089580911F016817D4
:1054A00020F4861B80931F01089510921F01089518
:1054B00080911E01681720F4861B80931E010895B9
:1054C00010921E01089580911D01681720F4861B1B
:1054D00080931D01089510921D01089580911C0173
:1054E000681720F4861B80931C01089510921C01FC
:1054F000089580911901681720F4861B8093190183
:10550000089510921901089580911801681720F4E8
:10551000861B8093180108951092180108950F9327
:105520001F9341E050E060E070E08A019B0104C0FD
:10553000000F111F221F331F8A95D2F7C901B8012E
:105540000E94E5211F910F910C944D1EEBEFE80F87
:10555000EF3308F05AC0F0E0E150FB4C0C947B3381
:105560000E94262581E0089580912F03807F8093FB
:105570002F0381E08093400308950E944707F2CFF4
:1055800090912F03892F8E7F90FF816080932F034E
:1055900080FDE8CF817F80932F03E4CF90912F038C
:1055A000892F8D7F91FF826080932F0381FFDACF57
:1055B00080912F038160EFCF90912F03892F8B7FF4
:1055C00092FF846080932F0382FDF2CFCBCF909126
:1055D0002F03892F877F93FF886080932F0383FD9C
:1055E000E7CFC0CF0E944D1E9091C804892F97FB32
:1055F00087F980588093C804B5CF80E00E948F2A35
:10560000B1CF8953FBCF8D51F9CF80E0089580E071
:1056100008950C94072B8E518A3030F4E82FF0E077
:10562000EC51FE4F8081089580E00895CF93C82FFC
:10563000809140038130B9F0882331F08230A1F1AC
:105640001092400380E00DC00E94CB238232D1F73C
:105650008C2F0E94072B81111BC08C2F0E94A62A21
:105660008170CF9108950E94CB23823289F38C2FD1
:105670000E94092B81110AC0C43199F060F4CB302B
:1056800029F0C03169F782E08093400381E0E8CFE0
:1056900081E090E0E5CFC93221F0C833B9F380E072
:1056A000DFCF10924003FBCFC93219F188F4C43127
:1056B00001F120F4C73081F181E0D3CF82EE8C0F6D
:1056C0008630D0F78C2F0E940B2B80933F03F4CFB2
:1056D000CE3401F140F46AE0CB3471F780913F039E
:1056E0000E94C929E9CFC13579F061E0C235B1F333
:1056F000E3CF80913F03882319F010923F03DCCF62
:1057000081E080934003ADCF61E080913F030E9430
:105710003F2AD2CF6AE0F9CF8EE180931F0182E366
:1057200080931E018AE080931D0184E180931C0117
:1057300088E08093190188E280931801BDCF8091A1
:1057400061030895CF93DF9300D00F92CDB7DEB7FA
:105750009091CE04943011F589837B836A83909372
:10576000E9008FEF9091E800815095FD06C095ED1E
:105770009A95F1F700008111F5CF8091E80085FF3F
:105780000DC050E040E063E070E0CE0101960E9461
:10579000582E8091E8008E778093E8000F900F904C
:1057A0000F90DF91CF910895CF93DF93EC010E948A
:1057B0003B2E823011F0843031F4BE0184E0DF9161
:1057C000CF910C94A22BDF91CF910895BC0183E07F
:1057D0000C94A22BCF93DF93EC010E943B2E8230DE
:1057E00011F08430F9F484E08093E9008FEF909118
:1057F000E800815095FD06C095ED9A95F1F70000FF
:105800008111F5CF8091E80085FF0CC050E040E0A9
:1058100066E070E0CE010E94582E8091E8008E77FD
:105820008093E800DF91CF910895CF93DF93EC014F
:105830000E943B2E823011F08430B9F580912A010C
:105840008823B1F18091C80487FF32C060E284E010
:105850008093E9008FEF9091E800815095FD06C09C
:1058600095ED9A95F1F700008111F5CF8091E80050
:1058700085FF1BC080912A0170E050E040E081115B
:1058800004C050E040E068E070E0CE010E94582E75
:105890008091E8008E778093E80080E2FE01A1E429
:1058A000B3E001900D928A95E1F7DF91CF910895D1
:1058B00068E081E0CDCFCF93FC01603421F5809189
:1058C000CE04843001F5C091E900CF702091EC0046
:1058D000922F917020FD90E8C92B82E08093E9001F
:1058E0008091E80080FF0CC050E040E060E470E090
:1058F000CF010E94582E8091E8008E778093E800B7
:10590000CF70C093E900CF9108958091CD048111AB
:1059100009C00E9435300E9497308091E200846077
:105920008093E20008951092CD040895089508959B
:105930000C94392642E061EC81E00E94B12F42E2F2
:1059400061EC84E00E94B12F42E361EC82E00E94AE
:10595000B12F42E360EC83E00C94B12F8091D0042E
:10596000833009F461C030F48130D1F1823009F420
:105970009DC008958A3009F489C08B3009F46FC046
:10598000893009F050C08091CF04813209F04BC0BA
:105990008091D3049091D404009719F0029709F0F4
:1059A00042C08091E800877F8093E8008091E80002
:1059B00082FF35C08091F2009091F300029729F4A4
:1059C0008091F1008B7F813021F48091F1008093F0
:1059D00061038091E8008B778093E8000C94E52FB9
:1059E0008091CF04813AF9F48091E800877F809319
:1059F000E8008091D3049091D404892B61F460E293
:105A000081E493E070E00E94F62E8091E8008B77AD
:105A10008093E800089560E090E080E0F3CF80910B
:105A2000CE048111C3CF08958091CF04813AD9F774
:105A30008091D3049091D404892BA9F78091E80038
:105A4000877F8093E8008091E80080FFFCCF809101
:105A50002A018093F1008091E8008E77BDCF80917C
:105A6000CF04813201F78091D3049091D404892B23
:105A7000D1F68091E800877F8093E8000E94E52FAF
:105A80008091D10480932A010C944D1E8091CF0403
:105A9000813249F68091E800877F8093E8000E9478
:105AA000E52F8091D2048093620308958091CF0402
:105AB000813A09F0B8CF8091E800877F8093E800B1
:105AC0008091E80080FFFCCF80916203C2CFCDB708
:105AD000DEB7C054D1090FB6F894DEBF0FBECDBFFC
