:100000000C94F7030C943E040C943E040C943E04B0
:100010000C943E040C943E040C943E040C943E0458
:100020000C943E040C943E040C9416370C94EA375E
:100030000C94C52C0C943E040C943E040C943E0489
:100040000C943E040C943E040C943E040C943E0428
:100050000C943E040C94382D0C943E040C943E04F5
:100060000C943E040C943E040C943E040C943E0408
:100070000C943E040C943E040C943E040C943E04F8
:100080000C943E040C943E040C943E040C943E04E8
:100090000C943E040C943E0429003A003B003C00C2
:1000A0003D003E003F00400041004200430044004C
:1000B000450046004700480035001E001F00200094
:1000C00021002200230024002500260027002D0007
:1000D0002E0049004A004B002B0014001A000800B3
:1000E000150017001C0018000C00120013002F0050
:1000F00030004C004D004E0039000400160007008F
:1001000009000A000B000D000E000F003300340040
:1001100028002A0000000000E10000001D001B0074
:1001200006001900050011001000360037003800E5
:10013000E50031005200E400E000E3000000E200CE
:10014000000000002C00000000000000E600E700B6
:100150000151500051004F0000000000000000005D
:10016000000000000000000000000000000000008F
:10017000000000000000000000000000000000007F
:10018000000000000000000000000000000000006F
:10019000000000000000000001000100010001005B
:1001A0000100010001000100010001000100010047
:1001B00001000100010001000100C35CC45CC65CD9
:1001C000C75CC85CC95CCA5CCB5C01000100010073
:1001D0000100010001000100010001000100010017
:1001E0000100010001000100010001000100010007
:1001F00001000100010001000100010001000100F7
:1002000001000100010001000100010001000100E6
:1002100001000100000000000100000001000100D9
:1002200001000100010001000100010001000100C6
:1002300001000100010001000100010000000100B7
:1002400000000000010000000000000001000100AB
:10025000010001000100010000000000000000009A
:10026000000000000000000000000000000000008E
:10027000000000000000000000000000000000007E
:10028000000000000000000000000000000000006E
:10029000000000000000000001000100010001005A
:1002A0000100010001000100010001000100010046
:1002B0000100010001000100010001000100010036
:1002C0000100010001000100010001000100010026
:1002D0000100010001000100010001000100010016
:1002E0000100010001000100010001000100010006
:1002F00001000100010001000100010001000100F6
:1003000001000100010001000100010001000100E5
:1003100001000100000000000100000001000100D8
:1003200001000100010001000100010001000100C5
:1003300001000100010001000100010000000100B6
:1003400000000000010000000000000001000100AA
:100350000100010001000100000000000000000099
:10036000000000000000000000000000000000008D
:10037000000000000000000000000000000000007D
:10038000000000000000000000000000000000006D
:100390000000000000000000010001000100010059
:1003A0000100010001000100010001000100010045
:1003B0000100010001000100010001000100010035
:1003C0000100010001000100010001000100010025
:1003D0000100010001000100010001000100010015
:1003E0000100010001000100010001000100010005
:1003F00001000100010001000100010001000100F5
:1004000001000100010001000100010001000100E4
:1004100001000100000000000100000001000100D7
:1004200001000100010001000100010001000100C4
:1004300001000100010001000100010000000100B5
:1004400000000000010000000000000001000100A9
:100450000100010001000100000000000000000098
:10046000000000000000000000000000000000008C
:10047000000000000000000000000000000000007C
:10048000000000000000000000000000000000006C
:10049000000000000000000000000000000000005C
:1004A0002A2B2800000000000000000000000000CF
:1004B00000000029000000002C1E342021222434DA
:1004C0002627252E362D3738271E1F2021222324AC
:1004D00025263333362E37381F0405060708090A48
:1004E0000B0C0D0E0F101112131415161718191AE4
:1004F0001B1C1D2F3130232D350405060708090A62
:100500000B0C0D0E0F101112131415161718191AC3
:100510001B1C1D2F3130354C000000000000000076
:100520000000000000000000000000007E0F00D46A
:10053000FFFFFFC700000078000101010101010178
:100540000101020202020202020202030303030388
:100550000303030404040404040405050505050657
:100560000606060607070707070808080809090915
:10057000090A0A0A0B0B0B0C0C0C0D0D0D0E0E0EBE
:100580000F0F0F101011111112121313141415154F
:1005900016161717181819191A1A1B1B1C1D1D1EC1
:1005A0001E1F202021222223242425262627282915
:1005B000292A2B2C2D2D2E2F303132323334353643
:1005C0003738393A3B3C3D3E3F4041424344454643
:1005D0004748494A4C4D4E4F50515354555658591F
:1005E0005A5B5D5E5F616264656668696B6C6D6FC6
:1005F0007072737577787A7B7D7E80828385878839
:100600008A8C8E8F91939596989A9C9EA0A2A3A572
:10061000A7A9ABADAFB1B3B5B7BABCBEC0C2C4C673
:10062000C9CBCDCFD1D4D6D8DBDDDFE2E4E7E9EB2F
:10063000EEF0F3F5F8FAFDFF0A0358004F0038001A
:100640003700000018034D006F006E007300740047
:100650006100720067006500610072000000040321
:10066000090409025B00030100A0FA09040000016B
:100670000301010009211101000122400007058149
:100680000308000A09040100020300000009211107
:100690000100012222000705820320000107050353
:1006A00003200001090402000103000000092111D8
:1006B00001000122BC000705840320000A1201107A
:1006C0000100000008474D4F5801000102000106DB
:1006D00060FF0961A1010962150026FF00952075E0
:1006E0000881020963150026FF0095207508910214
:1006F000C005010902A10185020901A1000509192E
:1007000001290515002501950575018102950175E1
:100710000381010501093009311581257F95027595
:1007200008810609381581257F9501750881060520
:100730000C0A38021581257F950175088106C0C015
:1007400005010980A101850319012AB700150126B9
:10075000B700950175108100C0050C0901A1018544
:100760000419012AA002150126A002950175108125
:1007700000C005010906A1018505050719E029E763
:10078000150025019508750181020507190029EF5B
:100790001500250195F0750181020508190129054B
:1007A000950575019102950175039101C005010937
:1007B00006A101050719E029E7150025019508752F
:1007C0000181029501750881010507190029FF15AE
:1007D0000026FF0095067508810005081901290506
:1007E000950575019102950175039101C0001124D1
:1007F0001FBECFEFD0E1DEBFCDBF04B603FE27C0E2
:100800008091F8069091F906A091FA06B091FB0646
:100810008730904BA740B04BD1F41092F80610925D
:10082000F9061092FA061092FB0614BE84B7877F71
:1008300084BF0FB6F894A89580916000886180937A
:100840006000109260000FBEE0E0F8E7099513E049
:10085000A0E0B1E0ECE7F7E702C005900D92A03907
:10086000B107D9F726E0A0E9B3E001C01D92A83F87
:10087000B207E1F70E94DB330C94073B0C940000B5
:1008800081E00E94C3180C94752C80E00E94C3186C
:100890000C94BC2CCF930E94F41FC82F20E040E0A2
:1008A0006FEF82FF60E08CE590E00E94140E20E084
:1008B00040E06FEFC0FF60E08DE590E00E94140E15
:1008C00020E040E06FEFC1FF60E08EE590E0CF9167
:1008D0000C94140E81E0089581E008950C946C044A
:1008E00008950C9470041F93CF93DF9300D000D031
:1008F0000F92CDB7DEB749835A836B833091600482
:1009000089819A8131111DC06623B9F02223A9F093
:100910000E94C329182F682F89819A810E9470290B
:1009200069817A81812F0F900F900F900F900F9017
:10093000DF91CF911F910C940D1D0E949C29182FBF
:10094000EFCF0E94C32969817A81EDCFFC01262F68
:10095000408151816281738184810C947304CF93AF
:10096000DF93EC0160E00E94A604BE01DF91CF910D
:100970000C947104FF920F931F93CF93DF93E82F92
:10098000F0E0E856FB4FF490C82FC695C695C69583
:10099000D0E0FE01E85DFA4F0491877010E0082E68
:1009A00002C0159507950A94E2F701701127C85EF9
:1009B000DA4FFE01C491D0E002C0D595C7958A9563
:1009C000E2F7C170DD270115110519F081EE0E94D3
:1009D0005E21209719F086EE0E945E218F2D0E94E5
:1009E0004B22CD2B19F086EE0E94F521012B41F010
:1009F00081EEDF91CF911F910F91FF900C94F52123
:100A0000DF91CF911F910F91FF900895EF92FF9288
:100A10000F931F93CF93DF93EC01162F0AE0888189
:100A2000882309F454C0813009F04EC08981813097
:100A300099F47E0122E0E20EF11C8A810E944B2291
:100A4000E7012196812F815050F3EFE9FFE03197C4
:100A5000F1F700C00000F7CF823041F47E0182E060
:100A6000E80EF11C8A810E945E21EACF833041F4B6
:100A70007E01E2E0EE0EF11C8A810E94F521E0CFBA
:100A8000843011F02196DDCF2A81229690E080E01B
:100A9000AE014F5F5F4F2053330B2A30310548F0D2
:100AA000019778F2EFE9FFE03197F1F700C000001D
:100AB000F7CF089FB001099F700D1124C901860F5F
:100AC000971F2981EA01E4CF0E94BA04BACFDF91CF
:100AD000CF911F910F91FF90EF90089560E00C94DB
:100AE00006058F929F92AF92BF92CF92DF92EF92C4
:100AF000FF920F931F936B017C0181E090E0A0E0D7
:100B0000B0E04C015D0104C0880C991CAA1CBB1C00
:100B10004A95D2F7B501A4014C015D0104C0880CCF
:100B2000991CAA1CBB1C2A95D2F7482959296A2965
:100B30007B2904C0880F991FAA1FBB1F0A95D2F7F3
:100B40008A019B010C211D212E213F21041715072D
:100B50002607370789F48C299D29AE29BF29BC01B6
:100B6000CD011F910F91FF90EF90DF90CF90BF903C
:100B7000AF909F908F90089580959095A095B09597
:100B80008C219D21AE21BF21EACF0F93382F262F34
:100B90006091E9047091EA048091EB049091EC0477
:100BA000042F432F0E9471050F910C94AE280E94D0
:100BB000822D0E940D2B811102C00E94B12B0E9438
:100BC00067180C9450080E94B6160C9453080895A8
:100BD0000E94DA240E94E7052FEF84E39CE0215075
:100BE00080409040E1F700C000000C945C2D0F9312
:100BF0001F93CF93DF93EC0161E00E94A6048C0168
:100C0000BE010E94FD158823B9F1BE01C8010E94F2
:100C1000E21A882389F1BE01C8010E946E0488236C
:100C200059F1BE01C8010E94441E882329F1BE016A
:100C3000C8010E94961E8823F9F0BE01C8010E94D7
:100C4000B91F8823C9F0BE01C8010E94011A882378
:100C500099F08A81882339F001158CE5180751F045
:100C60000F3D1C4579F0CE01DF91CF911F910F917F
:100C70000C946A040E94E80580E0DF91CF911F91F7
:100C80000F9108950E94B12BF7CF08950C9445065B
:100C900081E008950C944806CF93C82F0E94460621
:100CA0008C2FCF910C944A0690E080E0089508952F
:100CB000FC01EE0FFF1FE85CFA4F859194910895B7
:100CC000CF93DF930E940D1D0E947507EC018115E3
:100CD00020E5920708F042C0811530E4930708F040
:100CE000BDC0883E910528F5803E910508F09DC065
:100CF000883A910588F4853A910508F08FC08130D3
:100D0000910509F492C0009709F48FC0049708F088
:100D10008CC0D0E0C0E089C08F3B910508F489C049
:100D2000805C9109C03CD105A0F30E945806EC01FB
:100D30007CC08115904250F4C11581E0D80708F0BD
:100D400074C0C03FD10528F3D0656FC0C11590E3D2
:100D5000D90708F079C0CE019F70E7CF811525E54E
:100D6000920758F5811534E5930708F0A6C0811560
:100D700042E5940750F4C11581E5D80708F471C025
:100D8000DC2FCC27C16FD06A50C0982F96959695CE
:100D90009E0123703327C115D34508F07FC0C1E001
:100DA000D0E002C0CC0FDD1F2A95E2F720E2929F2F
:100DB000C0011124C82BD92B6FC0C11589E5D807F4
:100DC000A8F4C11598E5D90708F07CC0C11526E53F
:100DD000D20708F09ECF8C2F0E940C08C82FD0E0BD
:100DE000DC2FCC27CC27DF71D0621FC0C1153AE5BC
:100DF000D30708F46CC0CE0190568115904208F0DC
:100E000088CF8D2F8F710E940C0890E0982F882733
:100E100088279F719C012C2BE901E6CFC55AD0E0B1
:100E2000C65EDC4FC881D0E0D064CE01DF91CF91A7
:100E30000895C85AD0E0CC0FDD1FC451DD4F099092
:100E4000D881C02DD464F1CFCE019927D3FF03C040
:100E5000EC01D86CEACFEC01D06CE7CFDF70D06A40
:100E6000E4CFCE01E4E096958795EA95E1F78370AB
:100E70002C2F26952695237090E2299F900111240E
:100E8000382B8C2F8370C1E0D0E002C0CC0FDD1F67
:100E90008A95E2F7C22BD32BDC68C7CFC1E0D0E044
:100EA00002C0CC0FDD1F2A95E2F730E2939FC0010C
:100EB0001124C82BD92BDA68B8CFD82FCC27C46F10
:100EC000D06AB3CFDC2FCC27C06FD06AAECF8C2FC7
:100ED0008F700E940C0834E0D695C7953A95E1F7DB
:100EE000CF709C2FEC01D069A0CF82389105B1F171
:100EF000B0F48133910509F475C048F48932910545
:100F000009F469C08A32910509F473C008958533E4
:100F1000910509F459C08933910501F10895833E83
:100F20009105A9F138F4803E9105F9F0823E9105D2
:100F300049F10895863E9105A9F1873E9105C9F1D1
:100F4000843E910519F52091EA0621FF1FC080918A
:100F5000E90684FD14C087EE90E008952091E9062B
:100F60002370A1F080EE90E008952091E90620FD25
:100F700047C03091EA0630FF09C024FF44C090E02A
:100F800080E004C02091E90622FDF7CF089520916A
:100F9000E90622FD3BC03091EA0630FDE3CF24FF95
:100FA000F5CFEDCF2091E90623FFF0CF24FDE7CF69
:100FB000D2CF2091E90623FD2CC03091EA0631FF03
:100FC000EECF84EE90E008952091E90625FFDECF74
:100FD00089E290E008952091E90625FFD7CF85E3C7
:100FE00090E008952091E90626FFD0CF8AE290E0B4
:100FF00008952091E90626FFC9CF81E390E0089586
:1010000089E390E0089583EE90E0089582EE90E009
:10101000089586EE90E008959091E90692FF06C04B
:10102000282F28712830F9F4877F846093FF06C049
:10103000282F28712831F1F4877E84612091EA06F7
:1010400020FF06C0382F38713830D9F4877F81608F
:1010500021FF06C0282F28712831D1F4877E8161B5
:1010600094FD877E0895282F24712430F9F68B7F14
:101070008860DCCF282F2471243101F78B7E8861B2
:10108000DDCF382F3171313019F78E7F8860E0CF96
:10109000282F2171213121F78E7E8861E1CF0895BB
:1010A0000C944F0808950C945208E82FF0E0EE0FCE
:1010B000FF1FE75AFA4F808191810895089580EAD1
:1010C0008A95F1F70895F894E82FE295EF70F0E033
:1010D00031A1282F2F7081E090E001C0880F2A9560
:1010E000EAF7982F9095932391A392A1892B82A33D
:1010F00078940895CF93DF93CDE1D3E089910E9456
:10110000630883E0CD32D807C9F7CDE2D3E08991F7
:101110000E94630883E0C533D807C9F7E9E4F5E026
:10112000A9E5B5E0119211921D921D9285E0E93575
:10113000F807C1F788E00E943709DF91CF910C943E
:10114000D7056F927F929F92AF92BF92CF92DF921C
:10115000EF92FF920F931F93CF93DF939DE1E92EC0
:1011600093E0F92E10E000E0C0E0CC24C394D12C31
:1011700039E5A32E35E0B32ED7018D917D01F8948A
:10118000E82FE295EF70F0E021A18F70A60102C078
:10119000440F551F8A95E2F7CA01922F982B91A30D
:1011A00092A18095892382A378940E945F08A6016A
:1011B000002E02C0440F551F0A94E2F7BA01609551
:1011C0007095E9E4F5E08DE2682E83E0782ED0E0BA
:1011D00021913191D3019D903D01892D82958F7090
:1011E00090E0DC0190968C9190E0B92DBF7002C028
:1011F00095958795BA95E2F780FD35C0C901842B96
:10120000952B2817390739F09F0122503109D90150
:101210008D939C93D1E0AE16BF06D1F6F7013197BE
:1012200080810E946308CD2B0F5F1F4F0031110595
:1012300009F0A2CF2C2F48E069E575E089E495E03C
:101240000E9438090E94E3058C2FDF91CF911F91F6
:101250000F91FF90EF90DF90CF90BF90AF909F9055
:101260007F906F900895C90186239723CACF089570
:10127000FF920F931F93CF93DF93F82E092F162F12
:10128000D72FC42F222349F081E0809392030E943C
:10129000F52C90939103809390038091920388237F
:1012A000A1F080919003909191030E940D2D0697DB
:1012B00060F0EF2DF02FA12FBD2F90E080E0D0E067
:1012C0008C179D0744F010929203DF91CF911F91EC
:1012D0000F91FF900895219131912D933D930196A7
:1012E000EFCFEF92FF920F931F93CF93DF93EB011A
:1012F000E82FD11110C0442321F0F0E0E85CFA4F50
:10130000E4916E2F7E2F8E2FDF91CF911F910F9141
:10131000FF90EF9008950D2F10E0282F30E0442328
:1013200029F0285C3A4FF901249130E0F6E0CF9F94
:10133000C0011124EFEFF0E0BF010E949C39AB0126
:101340008C2F90E0880F991FA5E5A49FB001A59F61
:10135000700D1124861B970B982F990F980FBF01C2
:10136000601B710B629FD001639FB00D729FB00D27
:1013700011248B2F9D9FB0011124672F7727EF0138
:10138000C61BD70BBE01629FE001639FD00D729F09
:10139000D00D11247F01E91AF108E09EB001E19E11
:1013A000700DF09E700D1124672F7727E61BF70B49
:1013B000E29F8001E39F100DF29F100D1124E12F99
:1013C000722F4230510599F048F44115510569F0EA
:1013D0004130510581F0EB2F8D2F07C0443051056E
:1013E00069F080F046305105B1F76E2F8DCFE22FB6
:1013F0007B2F812FFACFE22F7D2FF7CFEB2F822F7C
:10140000712FF3CF7B2F822FED2FEFCF41E00C9484
:10141000710930E020E0869F212D969F200D311D1F
:101420001124C9010895AC018230910508F4089592
:101430009FEF413E8EE1580740F49A0195E03695C2
:1014400027959A95E1F798E0920F61E0E62FE90F72
:10145000FF27FF1F9F0135952795822F229FF001BF
:10146000239FF00DF00D11244E175F0738F49FEF06
:10147000920F961758F78FEF860F08952F3FE9F3D5
:1014800061E0620FF6CFE82F86FDE0952E2F2F70DA
:1014900086FD2F5FE695E695E695E670F0E0EB5C5D
:1014A000FC4F9181929F902D212D112492959F7038
:1014B0002295207F922B2081920F87FD919580E8C5
:1014C000890F0895E42FF0E0EE0FFF1FEC57FE4F59
:1014D000408134EE439F412D1124E72FF0E050E08E
:1014E000445E5F4FDA01A21BB1099D01B7FF03C043
:1014F00031952195310993E0220F331F9A95E1F739
:10150000AF01421B530B9A0157FD20E0279F212D6D
:101510001124722F0895E42FF0E0EE0FFF1FEC5717
:10152000FE4F408134EE439F412D1124E82FF0E01F
:1015300050E0445E5F4FDA01A21BB1099D01B7FF85
:1015400003C031952195310993E0220F331F9A95FD
:10155000E1F7AF01421B530B9A0157FD20E0582FD2
:10156000259F212D1124822F0895622F0895E42FA5
:10157000F0E0EE0FFF1FEC57FE4F6081621B0895F5
:10158000E42FF0E0EE0FFF1FEB57FE4F6081621B70
:101590000895322F50E0FA01EE0FFF1FEB57FE4F78
:1015A0009081905297FD9195440F551FFA01EC5789
:1015B000FE4F2081231B330B290F311D97FD3A95D8
:1015C000620F0895EF920F93972F23E0029FB001CF
:1015D0001124759567956E0D792F0F91EF900895F1
:1015E0000F93CF93DF93D72FC82F47FD419588E303
:1015F00090E0841B910947FD9395889FB001899FD6
:10160000700D700D1124229FC001239F900D900D2D
:101610001124860F971F0E94130A982F990F890F84
:10162000682F600F7D2F8C2FDF91CF910F91089540
:101630000F931F93522F10E0F801EE0FFF1FEB578F
:10164000FE4FA081A052BB0B9D015203F001539F9E
:10165000F00D1124000F111FD801AC57BE4F0C9193
:101660000057110B40039001419F300D11242E0FA4
:101670003F1F37FF02C021583F4F220F232F221F49
:10168000330B620F1F910F9108950F931F93522FE9
:1016900010E0F801EE0FFF1FEB57FE4FA081A052A4
:1016A000BB0B9D015203F001539FF00D1124000F5D
:1016B000111FD801AC57BE4F0C910057110B4003BE
:1016C0009001419F300D11242E0F3F1F37FF02C0A4
:1016D000215C3F4F96E0359527959A95E1F7620F8B
:1016E0001F910F9108950F931F9310E0F801EE0FD3
:1016F000FF1FEC57FE4F9081905797FD9195000F7B
:10170000111FF801EB57FE4F00810052110B20030F
:10171000F001219FF00D112408E310E0091B1109CD
:1017200097FD139540039001419F300D1124E20F66
:10173000F31F9F01220F331F2E0F3F1F37FF02C0E1
:1017400021583F4F220F232F221F330B620F1F916F
:101750000F9108954095282F429F412D1124842FE9
:10176000089522E8241B08F420E0620F0895EF9208
:10177000FF920F93970195E0099F200D311D1124D1
:101780002F3F310519F010F02FEF30E02095382F62
:10179000320F08F43FEF832F0F91FF90EF900895E1
:1017A000EF92FF920F931F930E0D1F2D111DF90144
:1017B00037FF03C0F195E195F10924E0EE0FFF1F1B
:1017C0002A95E1F7EF3FF10519F014F0EFEFF0E0A3
:1017D0009A0157FF03C031952195310994E0220FFA
:1017E000331F9A95E1F72E173F070CF4F901E00F2C
:1017F000F11FEF3FF10519F010F0EFEFF0E0E09589
:10180000282F3E2F230F08F42FEF822F1F910F91C7
:10181000FF90EF900895EF92FF920F93972F093466
:1018200038F4B701601B71096F3F710519F010F0B2
:101830006FEF70E0485F5F4F4131510540F0A90103
:10184000485F5F4F4131510510F06FEF70E06095D8
:10185000482F460F08F44FEF842F37FF02C02D5F4B
:101860003F4F359527953595279560916A05620F0D
:10187000792F0F91FF90EF900895EF92FF920F93C1
:101880009701201B31092F3F310519F010F02FEF80
:1018900030E0322F3095482F430F08F44FEF842F5C
:1018A000620F0F91FF90EF900895EF92FF920F93C8
:1018B0009701201B31092F3F310519F010F02FEF50
:1018C00030E02095382F320F08F43FEF832F0F912F
:1018D000FF90EF900895FC019B01009729F480E0B0
:1018E00077FF2BC080E80895AC0197FF04C0442720
:1018F0005527481B590BB901640F751F37FD10C0E0
:10190000241B350BC901A5E0880F991FAA95E1F7A3
:101910000E94B03980E2861BF7FF0FC081950895C1
:10192000CB0165E0880F991F6A95E1F7BA01621B48
:10193000730B0E94B03980E6EECF08950F931F938A
:10194000CF93DF93D62F172FC82FC901272F201B26
:10195000022FBA010E946B0C982F990F990F782FC4
:10196000791B700F719F712D11246D2F8C2FDF91BA
:10197000CF911F910F9108950F931F93CF93DF93F2
:10198000D62FC72F182FC901212F201B022FBA01D4
:101990000E946B0C982F990F990F891B800F282F8D
:1019A000219F212D1124822F6D2F7C2FDF91CF912C
:1019B0001F910F910895EF920F931F93CF93DF9391
:1019C000D62F172FC82FC9010E19070FBA010E9471
:1019D0006B0C702F781B719F712D11246D2F8C2F24
:1019E000DF91CF911F910F91EF900895EF920F9398
:1019F0001F93CF93DF93D62FC72F182FC9010E192E
:101A0000010FBA010E946B0C081B202F219F212D72
:101A10001124822F6D2F7C2FDF91CF911F910F9179
:101A2000EF9008950F93CF93DF93D72FC82FC9015D
:101A3000BA010E946B0C682F600F7D2F8C2FDF91F5
:101A4000CF910F910895EF920F93CF93DF93D72FFC
:101A5000C82FC9010E19BA010E946B0C602F681BB8
:101A60007D2F8C2FDF91CF910F91EF9008950C94E3
:101A7000060A0F931F93CF93DF93FC01618140818E
:101A80009FEF960FB1E0B60FAFEFA40F81E0840F88
:101A9000F0E16F9FE0011124A41760F48E010F5351
:101AA0001C4F0A0F111DF801208130E1230F08F4AB
:101AB0002FEF2083242F30E0CF53DC4F8E01020F15
:101AC000131FF801508170E2570F08F45FEF508345
:101AD000803140F4C80FD11D588170E1570F08F4D0
:101AE0005FEF5883B830F0F050E1959FF00111247A
:101AF000A41708F445C0EF53FC4FDF01A20FB31F3A
:101B00002C9130E1230F08F42FEF2C93803108F053
:101B100032C0E80FF11D20813DE0230F08F42FEFC4
:101B2000208329C050E1B59FF0011124A41758F477
:101B3000EF01CF53DC4FCA0FD11D58817DE0570F05
:101B400008F45FEF5883EF53FC4FEF01C20FD31F30
:101B5000588170E1570F08F45FEF5883803140F4EB
:101B6000E80FF11D50817DE0570F08F45FEF5083BF
:101B7000961708F4B9CFDF91CF911F910F91089577
:101B8000AF014F535C4FA40FB52FB11D4C915DE0D9
:101B9000450F08F44FEF4C93AECF45E050E06CE1B9
:101BA00070E089E695E00C94933A45E050E06CE1F2
:101BB00070E089E695E00C94B13AE9E6F5E085E35A
:101BC00080838091E9029091EA02A091EB028183E7
:101BD0009283A3838FE784830C94D50D80E00895CE
:101BE0000F931F93CF93DF93C82FD62F8A010E94A4
:101BF000EE0D90E1C99FB00111246C5F7E4F6D0F17
:101C0000711DFB0190819F3F29F0F801E80FF11D44
:101C100090838F5FDF91CF911F910F910895E09195
:101C20004303F09144030994E0913F03F091400392
:101C300009945F926F927F928F929F92AF92BF9220
:101C4000CF92DF92EF92FF920F931F93CF93DF9388
:101C50005C014B01FC01C08186E1C89FC02D1124AD
:101C600016E11C0FF12E1F3610F03EE6F32E6091A8
:101C70006D05669580916E0590916F050E94090A29
:101C8000582ED0E0CF15A0F081E01E3608F080E09D
:101C9000DF91CF911F910F91FF90EF90DF90CF9048
:101CA000BF90AF909F908F907F906F905F900895BE
:101CB000FE01E05AFD4F8081F50191818923C9F130
:101CC000CE01880F991F8C5F9E4FFC01E058FF4F9B
:101CD0002081422F4057550B6A018F579F4FFC01BF
:101CE0008081282F2052330B3901449F9001459F5A
:101CF000300D300D1124669CC001679C900D900D35
:101D00001124820F931F0E94130A082F60916A0505
:101D100070916B0580916C05E52C9301A601F4018F
:101D200009950E94370D462F282F672FCE010E945C
:101D3000140E2196A7CF6BED7CE00C94190E66EF84
:101D40007CE00C94190E62EE7AE00C94190E63E2BA
:101D50007DE00C94190EAF92BF92CF92DF92EF927A
:101D6000FF920F931F93CF93DF936C017B01FC01D4
:101D7000C08186E1C89FC02D112416E11C0FB12E31
:101D80001F3610F03EE6B32E60916D05669580918A
:101D90006E0590916F050E94090AA82ED0E0CB1520
:101DA00078F081E01E3608F080E0DF91CF911F913E
:101DB0000F91FF90EF90DF90CF90BF90AF9008957C
:101DC000FE01E05AFD4F8081F6019181892311F1D6
:101DD000CE01880F991F8C5F9E4FFC01EF57FF4F7C
:101DE00020812052330B80589F4FFC014081405787
:101DF000550B60916A0570916B0580916C050A2DF9
:101E0000F70109950E94370D462F282F672FCE0125
:101E10000E94140E2196C3CF6EE97CE00C94AB0EA9
:101E20006CEB7CE00C94AB0E60EF7AE00C94AB0EA4
:101E300062E17DE00C94AB0EBF92CF92DF92EF9205
:101E4000FF920F931F93CF93DF936C017B01FC01F3
:101E5000C08186E1C89FC02D112416E11C0F012FFF
:101E60001F3608F00EE660916D05669566958091C7
:101E70006E0590916F050E94090AB82ED0E0C01738
:101E800070F081E01E3608F080E0DF91CF911F9165
:101E90000F91FF90EF90DF90CF90BF900895FE01DB
:101EA000E05AFD4F8081F6019181892391F0609184
:101EB0006A0570916B0580916C052B2D4C2FF701F5
:101EC00009950E94370D462F282F672FCE010E94BB
:101ED000140E2196D4CF62E67AE00C941C0F6BE8C6
:101EE0007AE00C941C0F65EB7AE00C941C0F67EB06
:101EF0007AE00C941C0F60EC7AE00C941C0F69ECF7
:101F00007AE00C941C0F7F928F929F92AF92BF92B7
:101F1000CF92DF92EF92FF920F931F93CF93DF93B5
:101F20005C016B01FC01C08186E1C89FC02D1124BA
:101F300016E11C0F912E1F3610F03EE6932E609195
:101F40006D056695669580916E0590916F050E946E
:101F5000090AF82E80E48F0D0E94430A90E8892E2A
:101F6000880E8F2D0E94430A20E8722E780ED0E052
:101F7000C91590F081E01E3608F080E0DF91CF9126
:101F80001F910F91FF90EF90DF90CF90BF90AF9097
:101F90009F908F907F900895FE01E05AFD4F8081C1
:101FA000F50191818923A1F060916A0570916B051B
:101FB00080916C05EF2C0C2F272D482DF6010995EB
:101FC0000E94370D462F282F672FCE010E94140E36
:101FD0002196CECF68E17BE00C94830F65E47BE033
:101FE0000C94830F63E77BE00C94830FAF92BF9256
:101FF000CF92DF92EF92FF920F931F93CF93DF93D5
:102000007C016B01FC01C08186E1C89FC02D1124B9
:1020100026E1B22EBC0EAB2CFEE6FB1510F49EE6BC
:10202000A92E20916D0530E050E040E06FEF7FEF8A
:1020300080E090E00E94C4398901D0E02C2FCA15BD
:1020400080F081E0FDE6FB1508F480E0DF91CF91A0
:102050001F910F91FF90EF90DF90CF90BF90AF90C6
:102060000895FE01E05AFD4F8081F7019181892397
:10207000F1F0409172054150042E000C550B47FFC2
:1020800018C0C80160916D050E94090AAC016091F9
:102090006A0570916B0580916C05F60109950E94A7
:1020A000370D462F282F672FCE010E94140E219640
:1020B000C5CFFA01EE58FA4F818982130AC0FA019E
:1020C000EE0FFF1FEE58FA4F818D928D801791070A
:1020D000C8F241505109D3CF6AEA7BE00C94F60F65
:1020E00061EB7BE00C94F60F2F923F924F925F9240
:1020F0006F927F928F929F92AF92BF92CF92DF9218
:10210000EF92FF920F931F93CF93DF93CDB7DEB77C
:102110002B970FB6F894DEBF0FBECDBF8C832B017B
:102120005F834E83FB01F08186E1F89F802D1124AF
:1021300089838A5E8A838B838F3610F02EE62B8309
:10214000309172053D839981892F90E09B878A8722
:10215000880F991FFC01EC57FE4F6F01FC818F2FF8
:1021600090E09C012F5F3F4F39872887EB81FA85EC
:10217000FE17F0F081E02A812E3608F080E02B96E1
:102180000FB6F894DEBF0FBECDBFDF91CF911F9188
:102190000F91FF90EF90DF90CF90BF90AF909F9006
:1021A0008F907F906F905F904F903F902F90089509
:1021B000EA85FB85E05AFD4F8081F20191818923F8
:1021C00001F120906A0530906B05288539852E58DD
:1021D0003A4F39013C81398310E029813D81231731
:1021E000C8F020916C05129F112D1124B101812F8F
:1021F0000E94370D462F282F672F8A859B850E94C6
:10220000140E8A859B8501969B878A8792E0C90E6A
:10221000D11CACCFF30181913F01F601A080A81A37
:10222000BB088180F3018781881A9908AA9C9001D4
:10223000AB9C300D300D1124889CC001899C900D01
:10224000900D1124820F931F0E94130A082FF3018F
:10225000EE0FFF1FE257F54060916D058589968965
:102260000E94090A7C019401A501B101812FEE8130
:10227000FF8109951B01F981FF5FF983182FADCF0D
:102280002091720531E0231B08F420E047EB5BE06E
:10229000BC01822F0C94741047EB5BE0BC0180E022
:1022A0000C9474102091720531E0231B08F420E097
:1022B00040ED5BE0BC01822F0C94741040ED5BE0BC
:1022C000BC0180E00C9474102091720531E0231B56
:1022D00008F420E04BE05CE0BC01822F0C94741009
:1022E0004BE05CE0BC0180E00C947410209172051E
:1022F00031E0231B08F420E04DE35CE0BC01822FB9
:102300000C9474104DE35CE0BC0180E00C947410FC
:102310002091720531E0231B08F420E045E55CE0E4
:10232000BC01822F0C94741045E55CE0BC0180E098
:102330000C947410BF92CF92DF92EF92FF920F93A2
:102340001F93CF93DF937C01FC01C08186E1C89F7E
:10235000C02D112416E11C0F012F1F3608F00EE6C8
:1023600060916A0570916B0580916C050E94370D34
:10237000D62EC72EB82ED0E0C01770F081E01E36E2
:1023800008F080E0DF91CF911F910F91FF90EF90C7
:10239000DF90CF90BF900895FE01E05AFD4F8081FD
:1023A000F7019181892331F02B2D4D2D6C2DCE011C
:1023B0000E94140E2196E0CF8F929F92AF92BF920F
:1023C000CF92DF92EF92FF920F931F93CF93DF9301
:1023D0007C01FC01C08186E1C89FC02D112416E15B
:1023E0001C0F012F1F3608F00EE6C0906B05D09031
:1023F0006C05D0916A056D2F7C2D8D2D0E94370DB7
:10240000B62EA72E982E60916D056D0F7C2D8D2D0B
:102410000E94370DD62EC72E882ED0E0C01788F028
:1024200081E01E3608F080E0DF91CF911F910F917F
:10243000FF90EF90DF90CF90BF90AF909F908F90E4
:102440000895FE01E05AFD4F9081F70181818923B3
:1024500059F0282D4D2D6C2D90FD03C0292D4B2DAD
:102460006A2DCE010E94140E2196D8CFBF92CF9232
:10247000DF92EF92FF920F931F93CF93DF937C0134
:10248000FC01C08186E1C89FC02D112416E11C0FFC
:10249000D12E1F3610F09EE6D92EC0906B05B0905D
:1024A0006C0520916D0500E4029F012D1124D0E000
:1024B000CD1570F081E01E3608F080E0DF91CF91FD
:1024C0001F910F91FF90EF90DF90CF90BF900895F4
:1024D000FE01E05AFD4F8081F70191818923B9F017
:1024E000FE01EE0FFF1FEB57FE4F808182958F702C
:1024F00060916A05809F600D11247C2D8B2D0E94B8
:10250000370D462F282F672FCE010E94140E2196DB
:10251000CFCFBF92CF92DF92EF92FF920F931F9394
:10252000CF93DF938C01FC01C08186E1C89FC02D51
:10253000112456E1F52EFC0EDF2CFEE6FF1510F4FB
:102540004EE6D42EC0906B05B0906C0520916D05C1
:1025500030E4E32E3E2D329F312D1124E32ED0E0C6
:10256000CD1578F081E03DE63F1508F480E0DF917D
:10257000CF911F910F91FF90EF90DF90CF90BF9080
:102580000895FE01E05AFD4F8081F8019181892371
:10259000D9F0FE01EE0FFF1FEC57FE4F6081E69E63
:1025A000B001112495E0759567959A95E1F78091B2
:1025B0006A05680F7C2D8B2D0E94370D462F282F22
:1025C000672FCE010E94140E2196CACFBF92CF92E0
:1025D000DF92EF92FF920F931F93CF93DF938C01C3
:1025E000FC01C08186E1C89FC02D112496E1F92E1F
:1025F000FC0EEF2CFEE6FF1510F48EE6E82ED090D0
:102600006A05D0916B05C0906C0560916D0566956B
:102610006695669580916E0590916F050E94090AF6
:102620000E94430A805887FD8195880F282F3C2DF2
:10263000239F212D1124822F6D2D7D2F0E94370D78
:10264000D62EC72EB82ED0E0CE1578F081E02DE63C
:102650002F1508F480E0DF91CF911F910F91FF902B
:10266000EF90DF90CF90BF900895FE01E05AFD4FAC
:102670008081F8019181892331F02B2D4D2D6C2D16
:10268000CE010E94140E2196DFCFDF92EF92FF92CF
:102690000F931F93CF93DF938C01FC01E05AFD4F02
:1026A0008081682381F1D0906B05D0916C05C09139
:1026B0006A05EC2EF12C0E947A3A282FC7018C541F
:1026C0009F4F68E671E00E94B0398E199F0997FD0F
:1026D0000396959587959595879523706C2F289FE0
:1026E000600D11247D2D8D2F0E94370D462F282F30
:1026F000672FC801DF91CF911F910F91FF90EF904D
:10270000DF900C94140EDF91CF911F910F91FF90E9
:10271000EF90DF900895DF92EF92FF920F931F9357
:10272000CF93DF938C01FC01C281C11125C0609160
:102730006D0520E1620F08F46FEF80916E059091B6
:102740006F050E94090A6AE070E00E949C39892B9B
:1027500051F40E947A3A6EE670E00E94B039F801B6
:1027600061810E9445138C2FDF91CF911F910F91B2
:10277000FF90EF90DF900895C08186E1C89FC02D43
:10278000112486E1D82EDC0E8D2DFEE6FD1508F411
:102790008EE6D0E0E82EF12CCE15DF0534F0C1E056
:1027A000FDE6FD1500F7C0E0DECFF8016181CE0146
:1027B0000E9445132196F0CF1F93CF93DF93EC0136
:1027C000FC01E05AFD4F80816823A1F00E947A3A13
:1027D000182F0E947A3A612F782F80916C050E9401
:1027E000370D462F282F672FCE01DF91CF911F91F4
:1027F0000C94140EDF91CF911F910895DF92EF9208
:10280000FF920F931F93CF93DF938C01FC01C28142
:10281000C11125C060916D0520E1620F08F46FEFD2
:1028200080916E0590916F050E94090A65E070E045
:102830000E949C39892B51F40E947A3A6EE670E02E
:102840000E94B039F80161810E94DC138C2FDF9166
:10285000CF911F910F91FF90EF90DF900895C0816D
:1028600086E1C89FC02D112486E1D82EDC0E8D2D67
:10287000FEE6FD1508F48EE6D0E0E82EF12CCE152C
:10288000DF0534F0C1E0FDE6FD1500F7C0E0DECF66
:10289000F8016181CE010E94DC132196F0CFE09116
:1028A0004103F091420309942F923F924F925F921D
:1028B0006F927F928F929F92AF92BF92CF92DF9250
:1028C000EF92FF920F931F93CF93DF93CDB7DEB7B5
:1028D0002A970FB6F894DEBF0FBECDBF6C01DC01A6
:1028E0000C9186E1089F002D112446E1542E500ED4
:1028F000B0E8B51510F430E8532EF6018281882334
:1029000061F040E060E080E00E944F14E1ECF3E011
:1029100080E8DF011D928A95E9F7F6018081811137
:1029200015C080914304909144040E940D2D21E034
:102930008931910508F420E020934204499730F052
:102940000E94F52C909344048093430410E0252DBD
:1029500030E03A872987CE0101965C012AEA222ECF
:10296000E985FA850E171F07F4F0852D8095881FDD
:102970008827881F2A960FB6F894DEBF0FBECDBFFA
:10298000DF91CF911F910F91FF90EF90DF90CF904B
:10299000BF90AF909F908F907F906F905F904F907F
:1029A0003F902F900895480183E0959487948A95ED
:1029B000E1F7C801877099273C0194E0660C771C09
:1029C0009A95E1F7F301EF53FC4FE80DF91D4080B4
:1029D000A501682D0E94F00D382E75018E2D8A19E3
:1029E000831598F080914204882361F0242D31E012
:1029F000231B08F420E0C3018F539C4F880E991EBF
:102A0000D4012C930F5F1F4FABCFD701EC91F0E0B7
:102A1000E05AFD4F8081F6019181892321F1242D17
:102A200035E5231B08F420E0622D621B70916B05D5
:102A3000222D342D230F08F42FEF30916C05822FB7
:102A4000880F820F8E5F282F239F212D1124822F24
:102A50000E94370D462FD7019C91282F672F892F71
:102A600090E00E94140EBFEFEB1AFB0AB7CF6F92F3
:102A70007F928F929F92AF92BF92CF92DF92EF920E
:102A8000FF920F931F93CF93DF93CDB7DEB72897B5
:102A90000FB6F894DEBF0FBECDBFDC0112968C914D
:102AA000882371F040E060E080E00E944F14E1EC88
:102AB000F3E080E8DF011D928A95E9F71092930315
:102AC00081ECC82E83E0D82E00E077247A9490ED34
:102AD000A92EB12C20EC622E3FE2832E912C7601A0
:102AE00010E080919303812B09F072C00E947A3A22
:102AF000853595400CF06CC0F6017082AE014F5FD9
:102B00005F4F602F812F0E94F00D8823B1F0F701F5
:102B10002081E981F0E0213D08F462C0205D330BA3
:102B2000629EC001639E900D1124B4010E949C39E5
:102B3000262F4FEFCF010E94140E1F5FF0E1EF0E22
:102B4000F11C183071F60F5F2FEFC21AD20A003154
:102B500031F6809193038F5F8D3108F44BC0109252
:102B6000930341E254E027E001ED13E03EEFFA0168
:102B700081EC93E0273039F4DC01A059BF4F6C9110
:102B80006F3F09F43C9360816F3F11F43083608B99
:102B9000019631960817190769F7215040515109DC
:102BA0002111E5CF80E028960FB6F894DEBF0FBE66
:102BB000CDBFDF91CF911F910F91FF90EF90DF90EC
:102BC000CF90BF90AF909F908F907F906F9008951F
:102BD000D7018C9181508E3F08F090CF8C938ECF8F
:102BE000279DC0011124B5010E949C39462F20E089
:102BF00060E0A0CF80939303D5CFAF92BF92CF92E6
:102C0000DF92EF92FF920F931F93CF93DF93CDB795
:102C1000DEB728970FB6F894DEBF0FBECDBF8B018D
:102C2000FB018281D12C882341F0AE014F5F5F4FC1
:102C3000608181810E94F00DD82EC0909403ED2C0C
:102C4000F12CC7018C0D911D099764F188E090E08B
:102C50005C01AE18BF08B7016B567C4FA50185E932
:102C600093E00E948A3AB70163567C4FA5018DE933
:102C700093E00E948A3AA501440F551FB701660FE1
:102C8000771F63557C4F8DEA93E00E948A3AB70123
:102C90006B557C4FA50185EA93E00E948A3ACA945D
:102CA000C0929403F0909403DE01119640E0842FCB
:102CB0008F0DD4121CC080939403809169058C7F82
:102CC000843619F4C8010E94390D81E028960FB6A8
:102CD000F894DEBF0FBECDBFDF91CF911F910F9152
:102CE000FF90EF90DF90CF90BF90AF9008955D91EF
:102CF000252F30E090E0BC016C567C4FF901EE0FBF
:102D0000FF1FEC57FE4FE080FB01E182220F331FD3
:102D1000F901EB57FE4F2081FB012187518B880F72
:102D2000991FFC01EC56FC4F128E118E4F5FBFCFE6
:102D300008950E9498160C944A0408950895CF931C
:102D4000DF93FC01C08186E1C89FC02D1124DAEE1B
:102D5000DC0FCF3608F0CEE66C2F8D2F0E949D162B
:102D60006C2F8D2FDF91CF910C949E164F925F9216
:102D70006F927F928F929F92AF92BF92CF92DF928B
:102D8000EF92FF92CF936091BD037091BE0380914B
:102D9000BF039091C0030E941C2D6B017C010E9417
:102DA000012D4B015C018092BD039092BE03A09265
:102DB000BF03B092C003A0919403E4E9F3E08A2F2B
:102DC00090E04FEF5FEF60E070E04C195D096E0935
:102DD0007F09A9132AC08093940380914104C0E025
:102DE000811108C080916905C82FC37019F0C82FE0
:102DF000C695C6958091CE02813009F440C08823E3
:102E000039F1823009F445C1833009F44DC1CF91C5
:102E1000FF90EF90DF90CF90BF90AF909F908F90FA
:102E20007F906F905F904F900895218D328D290192
:102E3000712C612C441555056605770520F48150E9
:102E40009F5F3296C6CF2C0D3D1D328F218FF8CF5C
:102E50001092CF0280926E0590926F05A09270053D
:102E6000B092710589E2E4E9F3E0A2E7B5E00190F0
:102E70000D928A95E1F781E08093CE02C8CF8091D0
:102E8000D202C81316C09091690593702091D302A5
:102E900030E081E09217130609F480E0817080939E
:102EA000D102C73278F4EC2FF0E0E75FF44C0C94D9
:102EB000E33981E0F3CF882359F040E060E080E01F
:102EC0000E944F1480E004C08FEC92E00E949A119F
:102ED0009091CF029F5F9093CF028111D6C082E084
:102EE0008093CE028091D1028111CFC0CC2309F40E
:102EF000D9C00E9499168FEC92E0CF91FF90EF908D
:102F0000DF90CF90BF90AF909F908F907F906F9009
:102F10005F904F900C949F168FEC92E00E94DC1112
:102F2000D7CF8FEC92E00E943612D2CF8FEC92E096
:102F30000E948912CDCF8FEC92E00E94E612C8CF9A
:102F40008FEC92E00E946B0FC3CF8FEC92E00E9457
:102F50006F0FBECF8FEC92E00E940C0FB9CF8FECB9
:102F600092E00E94100FB4CF8FEC92E00E949B0E73
:102F7000AFCF8FEC92E00E949F0EAACF8FEC92E031
:102F80000E94730FA5CF8FEC92E00E94770FA0CF25
:102F90008FEC92E00E947B0F9BCF8FEC92E00E941F
:102FA0007F0F96CF8FEC92E00E94A30E91CF8FEC13
:102FB00092E00E94140F8CCF8FEC92E00E94180FC9
:102FC00087CF8FEC92E00E94A70E82CF8FEC92E029
:102FD0000E94EA0F7DCF8FEC92E00E94EE0F78CF37
:102FE0008FEC92E00E94F20F73CF8FEC92E00E9480
:102FF0008B136ECF8FEC92E00E94FE1369CF8FECA3
:1030000092E00E94541464CF8FEC92E00E94371536
:103010005FCF8FEC92E00E946C105ACF8FEC92E061
:103020000E94701055CF8FEC92E00E94401150CF5B
:103030008FEC92E00E944C114BCF8FEC92E00E94FB
:10304000521146CF8FEC92E00E945E1141CF8FEC7F
:1030500092E00E9464113CCF8FEC92E00E947011CC
:1030600037CF8FEC92E00E94761132CF8FEC92E056
:103070000E9482112DCF8FEC92E00E94881128CF00
:103080008FEC92E00E94941123CFCC2309F4BFCEA1
:1030900030CFC093D2028091690583708093D302B0
:1030A0000E940F0E83E0E8CE60916E0570916F056F
:1030B00080917005909171050E941C2D6031710501
:1030C0008105910508F4A3CE1092CE02A0CEE09126
:1030D0003D03F0913E030995109272058FEF9FEF2B
:1030E00090938C0580938B0590938E0580938D052E
:1030F0009093900580938F0590939205809391050E
:1031000090939405809393059093960580939505ED
:10311000909398058093970590939A0580939905CD
:10312000109294039093AE038093AD039093B003F9
:103130008093AF039093B2038093B1039093B40351
:103140008093B3039093B6038093B5039093B80331
:103150008093B7039093BA038093B9039093BC0311
:103160008093BB030E940D2B811104C00E94B12BE0
:103170000E94DD0D0E94CD0D809169058C7F11F4B8
:103180000C94DD0D0895CF93C82F882329F040E0DB
:1031900060E080E00E944F14C0934104CF910895F5
:1031A0009091690521E09227909369051092CE02D3
:1031B00081110C94D50D089581E00C94D018809164
:1031C0006905837011F41092CE02809169058C7F9D
:1031D000816080936905089580916905837011F07D
:1031E0001092CE02809169058C7F809369050895C5
:1031F00090916905937099F0811109C09460909342
:1032000069051092CE02662351F00C94D50D8732D9
:1032100010F09869F4CF880F880F982BF0CF08959D
:1032200060E00C94F81861E00C94F818809169053E
:10323000869586950895682F90916905969596953F
:1032400081E0890F873208F081E00C94F81881E062
:103250000C941B19682F90916905969596958FEFA0
:10326000890F09F486E20C94F81881E00C942A196D
:1032700090916905937061F080936A0560936B0586
:10328000453608F044E640936C0521110C94D50DA9
:10329000089520E00C94381980916A050895809172
:1032A0006B05089580916C050895A9E6B5E0119627
:1032B000EC911197F0E0282F13964C9113971296EA
:1032C0006C91CF0108960C94381981E00C94551933
:1032D000E9E6F5E09181282F43816281E92FE850EA
:1032E000FF0BCF010C94381981E00C946819E9E6C2
:1032F000F5E0628120E1620F08F46FEF9181282FE1
:103300004381892F90E00C94381981E00C9477194F
:10331000E9E6F5E0628120E1621B08F460E091815A
:10332000282F4381892F90E00C94381981E00C9468
:103330008819E9E6F5E0438120E1420F08F44FEFF8
:103340009181282F6281892F90E00C94381981E0B7
:103350000C949919E9E6F5E0438120E1421B08F459
:1033600040E09181282F6281892F90E00C943819D8
:1033700081E00C94AA1980936D05089580916D05E4
:10338000089520916D0530E1230F08F42FEF20936D
:103390006D0581110C94D50D089581E00C94C1192F
:1033A00020916D0530E1231B08F420E020936D058A
:1033B00081110C94D50D089581E00C94D0190895D5
:1033C000FC01EE0FFF1FE80FF91FE556FA4F61836E
:1033D000408322830895EBE9F5E081836083428393
:1033E000339696E0E53EF907C1F708956EE670E082
:1033F0008BE995E00C945F1AFA01811101C0FB0181
:1034000009940F931F93CF938C01FB01C281CC23AE
:1034100009F453C00E94582A8272F801E35CFC450B
:10342000E431F10538F4E05DF44C0C94E3390E948A
:10343000DC18C0E08C2FCF911F910F91089545E3C8
:1034400059E167E279E10E94FC19F3CF47E259E1C3
:1034500065E379E1F8CF44E759E165E679E1F3CF37
:1034600045E659E164E779E1EECF46E959E165E8DF
:1034700079E1E9CF45E859E166E979E1E4CF48EB44
:1034800059E167EA79E1DFCF47EA59E168EB79E191
:10349000DACF4CED59E16DEC79E1D5CF4DEC59E146
:1034A0006CED79E1D0CF81E00E941319C2CF85E0A5
:1034B000FBCF8DE0F9CF82E1F7CFC1E0BBCF579AC8
:1034C0004BB14F775BB15068EFB7F8949B01220F77
:1034D000331F260F371F280F391F2817390741F4CC
:1034E000EFBF8FE594E00197F1F700C00000089569
:1034F000DC016D91CD0178E05BB9000000C067FF91
:103500004BB9660F000000C000C000C04BB900C03E
:103510007A9591F7E2CF82E290E00E94A33A81325D
:1035200089F483E290E00E94A33A813059F484E266
:1035300090E00E94A33A91E0883109F090E0892F51
:103540008170089580E0FCCFCF93C82F6FEF811179
:1035500061E282E290E00E94C13A6FEFC11161E046
:1035600083E290E00E94C13A6FEFC11168E184E20A
:1035700090E0CF910C94C13A80E00E94A41A0C9480
:10358000072B089585E290E00E94A33A682F70E02F
:1035900090E080E0089585E290E00C94C13A0E94AA
:1035A000C11A0E948B1A81110CC060E070E0CB013F
:1035B0000E94CB1A0E94871C0E94711D81E00C940E
:1035C000A41A0895CF93FB01C281CC2309F19C0179
:1035D00022513F452031310520F582510E94811D45
:1035E000C0E08C2FCF91089581E00E94D42843E061
:1035F00062E081E00E94C505F3CF81E00E94F528DA
:1036000043E062E081E00E94C505EBCF82E0F6CFA7
:103610008031FFE59F0789F381319F45B9F3C1E010
:10362000E0CF8031EFE59E07F9F281319F45C9F681
:1036300082E0DBCF2FEFFC0120830895CF93DF934F
:10364000EC0188818138A9F028F4803871F0DF918D
:10365000CF910895823881F08338C9F70E944C19C0
:1036600089830E944F198A83F2CF0E94521989835D
:10367000EECF0E941619FBCF0E94BE19F8CFCF9350
:10368000DF93EC0188818138F1F028F4803871F003
:10369000DF91CF910895823821F18338C9F70E94D4
:1036A00052199981482F6A81892F08C0D9810E94B7
:1036B0004F19C82F0E944C194D2F6C2F90E0DF91AD
:1036C000CF910C94491989810E9410198981811127
:1036D00004C0DF91CF910C94EC18DF91CF910C9442
:1036E000DF188981DF91CF910C94BB19EF92FF9283
:1036F0000F931F93CF93DF93EC01062FDC01ED9125
:10370000CD01E150E33108F0BFC0F0E0EC5BF44CD8
:103710000C94E339198289E08A83602FCE01DF910E
:10372000CF911F910F91FF90EF900C94CF32898130
:10373000823069F0833071F08130D9F40E94012D1C
:103740000E94E9396A837B838C839D83E6CF0E9444
:10375000C21AF6CF7E0110E0812F0E945508F701B2
:10376000928383831F5FF2E0EF0EF11C1830A1F704
:10377000D4CF602FCE010E941A1BCFCF8981823017
:10378000C1F76A817B818C819D810E94E9390E9409
:10379000CB1AC3CF4B816A8189810E94591C98271B
:1037A000892798279D838C83B8CF2C813D81322730
:1037B000232732274B816A8189810E94721CADCFF9
:1037C0000E94871CAACF0E943F1BA7CF0E941E1BEE
:1037D000A4CF0E94D50DA1CF0E941A1D89839DCF31
:1037E0000E941C1D9827892798279A83898395CF43
:1037F0006B8170E089819A81AE014C5F5F4F9827A1
:10380000892798270E941F1D88CF6B8170E08981CE
:103810009A81AE014C5F5F4F9827892798270E94B5
:10382000461D7BCF0E94711D78CF0E94471CD6CFCA
:103830006B8170E089819A81AE014C5F5F4F982760
:10384000892798270E94BD1C68CF6B8170E0898111
:103850009A81AE014C5F5F4F9827892798270E9475
:10386000E31C5BCF0E94BC1A58CFCE010E94CF321E
:103870002FEF81EE94E0215080409040E1F700C0AE
:1038800000000E945C2D49CF8FEF888346CF84E0F3
:10389000089590E2699FB001112450E0440F551F34
:1038A000640F751F90E0982F8827860F971F8696C4
:1038B00008950F931F93CF93DF930E94491C8C01AF
:1038C0000E94A33AC82FD0E0DC2FCC27C801019674
:1038D0000E94A33A9E01282BC901DF91CF911F912D
:1038E0000F9108950F931F93CF93DF93122F032F00
:1038F0000E94491CEC01602F0E94C13A612FCE0149
:103900000196DF91CF911F910F910C94C13AAF9224
:10391000BF92CF92DF92EF92FF921F93CF93DF93EC
:1039200088E9C82E80E0D82ED0E07601C0E014C02F
:10393000F50125913491412F6C2F8D2F0E94721C1F
:1039400082E0A80EB11C1F5F103191F780E2E80EF3
:10395000F11CCF5FC83019F0570110E0E9CFDF5FED
:10396000D394D43011F7DF91CF911F91FF90EF9056
:10397000DF90CF90BF90AF900895EF92FF920F939A
:103980001F93CF93DF93EC018A017C01E60EF71EB3
:10399000CE018696CE15DF0539F4DF91CF911F91C8
:1039A0000F91FF90EF900895C11524E0D20740F4E5
:1039B0000E94A33AF80180830F5F1F4F2196E8CF42
:1039C000F8011082F9CFCF92DF92EF92FF920F931E
:1039D0001F93CF93DF937C016A018C01060F171FA1
:1039E000EC01CE018696C017D10749F4DF91CF9143
:1039F0001F910F91FF90EF90DF90CF900895C11528
:103A000024E0D20740F4FE01EE19FF09EC0DFD1D84
:103A100060810E94C13A2196E4CF462F843038F469
:103A2000783028F4603118F4672F0C94591C90E01A
:103A300080E0089580E108958AED93E00895EF9283
:103A4000FF920F931F93CF93DF93EC018A017C01C8
:103A5000E60EF71ECE018A5D9B4FCE15DF0539F4C9
:103A6000DF91CF911F910F91FF90EF900895CA3D84
:103A700023E0D20740F40E94A33AF80180830F5F4D
:103A80001F4F2196E7CFF8011082F9CFCF92DF9236
:103A9000EF92FF920F931F93CF93DF937C016A0104
:103AA0008C01060F171FEC01CE018A5D9B4FC017DA
:103AB000D10749F4DF91CF911F910F91FF90EF90C3
:103AC000DF90CF900895CA3D23E0D20740F4FE0175
:103AD000EE19FF09EC0DFD1D60810E94C13A21968F
:103AE000E3CFCF93DF93C6E2D4E060E0CE010E9443
:103AF000C13A2196C11588E0D807B9F7DF91CF9177
:103B00000895DF92EF92FF920F931F93CF93DF936D
:103B100000D000D0CDB7DEB7F82E8FE08F1540F083
:103B20008FEF97E00E94A33A06E214E08823C1F0E9
:103B30000F900F900F900F90DF91CF911F910F91E9
:103B4000FF90EF90DF900895011588E0180781F34A
:103B5000C8010E94A33A811101C0FA940F5F1F4F60
:103B6000F110F2CF19821A821B821C82DD24D394B9
:103B700078018FEFE81AF80AC8010E94A33A8983F6
:103B80001A828823A9F29FEF980F933078F48A83E2
:103B9000D9820E5F1F4FC7010E94A33A8B838823EF
:103BA00039F2CE0101960E946E05E2CF8701F9CF6E
:103BB0000F931F93CF93DF93C42FD22FFC018281E9
:103BC0008823C9F0409347040E94F52C9093460443
:103BD0008093450480E28C0F883008F050C0C77095
:103BE00081E001C0880FCA95EAF7DF91CF911F915C
:103BF0000F910C945E2210914704141335C08091EC
:103C00004504909146040E940D2D883C910560F575
:103C1000C0E2CD0F1D17B9F080E2810F883040F46B
:103C2000177081E001C0880F1A95EAF70E9465229B
:103C3000C83048F481E09D2F977001C0880F9A9595
:103C4000EAF70E945E22802F0E944B22C830B8F40F
:103C5000D77081E001C0880FDA95EAF7DF91CF9144
:103C60001F910F910C94652280E28C0F883038F4FC
:103C7000C77081E001C0880FCA95EAF7EFCFDF91E6
:103C8000CF911F910F9108950F939C01CB01243F79
:103C90004CE5340759F1A8F4293DFCE53F0701F153
:103CA0002A3D4CE53407D1F1283D3C4591F406E22C
:103CB00021EE41EE68ED7CE50E94D81D80E00F9179
:103CC0000895263FFCE53F07E9F0B0F0273F3C456B
:103CD000F9F0FC018281882339F110924704EFCF7B
:103CE00007E225EE45EE69ED7CE5E6CF06E221EE42
:103CF00040EE64EF7CE5E0CF07E225EE44EE65EFB1
:103D00007CE5DACF06E221EE42EE66EF7CE5D4CF29
:103D100007E225EE46EE67EF7CE5CECF08E221E034
:103D200045EE6AED7CE5C8CF81E0C9CFCF93DF9344
:103D3000EC01FB018281882309F419C1C230FCE542
:103D4000DF07C0F1C6319CE5D90730F09E012B5F3B
:103D50003C452930310570F50E94202B9093EA06EE
:103D60008093E906C031ECE5DE0709F4CFC008F026
:103D70005BC0C8308CE5D80709F4B6C088F5C430FC
:103D8000ECE5DE0709F4A8C0C0F4C2308CE5D80722
:103D900009F49CC08091E9068260C330DC4509F4D7
:103DA00098C08091E9069091EA060E942E2B0E940D
:103DB000DA2480E0DF91CF9108958091E906806157
:103DC000C630ECE5DE0709F484C08091E90688601E
:103DD000C730DC4508F47DC08091E906806279C077
:103DE000CC308CE5D80709F489C070F48091E906DD
:103DF0008C60CA30ECE5DE0709F46BC008F478C0CB
:103E00008091E9068E7F65C0CE308CE5D80709F435
:103E100079C08091E9068B7FCF30DC4508F459C02A
:103E20008091E9068F7E55C0CC3FECE5DE0709F4B2
:103E300057C030F5C3318CE5D80709F46FC078F46A
:103E4000C131ECE5DE0709F465C0C231DC4509F09B
:103E5000A8CF0E94DA248091E9068F773AC0C53155
:103E60008CE5D80709F462C008F476C08091EA06B0
:103E70008160CB3FDC4509F094CF8093EA0691CF77
:103E8000C115FDE5DF0709F44DC088F48091EA060D
:103E90008D7FCE3F9CE5D90781F38091EA068E7F26
:103EA000CF3FDC4550F38091EA068360E6CFC23015
:103EB000FDE5DF0709F459C008F444C080E0C330D1
:103EC000DD4509F06ECF0E94B32B6BCF8091E906E0
:103ED00081608093E90665CF8091E9068460F9CF1F
:103EE0008091EA068260C9CF8091E9068064F1CFB3
:103EF0000E94DA248091E9068068EBCF8091E90680
:103F00008D7FE7CF8091E906877FE3CF8091E90637
:103F10008F7DDFCF8091E9068F7BDBCF8091E90633
:103F2000837FD7CF8091EA068C7FA7CF8091E90667
:103F300082FB992790F921E0922790FB82F990FB70
:103F400083F9C7CF8091EA06982F909591708E7F64
:103F5000892B90FB81F991CF0E94DA249091E90698
:103F6000892F97FB87F98058B4CF81E0ACCF81E0EF
:103F700021CFCF93DF93EB0186319C4511F50E9451
:103F8000582A9A81992399F08A7A91E009F490E06D
:103F900090934804811109C089E20E94332A0E944B
:103FA000A42A80E0DF91CF91089585E3F6CF809138
:103FB0004804811104C089E20E943A2AF0CF85E3C7
:103FC000FBCF81E0EFCF90934E0480934D04089592
:103FD000E0914D04F0914E04309721F00190F08172
:103FE000E02D099480E00895E0914D04F0914E0495
:103FF000309711F480E008950190F081E02D09954B
:104000000895E0914D04F0914E04309799F020917D
:10401000E802222359F02091E90627FF07C0DC01BE
:104020002C9111962C93119725E02C930280F3810B
:10403000E02D09940895E0914D04F0914E043097DD
:1040400039F022E0DC012C930480F581E02D099405
:10405000089520914B0430914C042817390771F0D2
:1040600090934C0480934B04E0914D04F0914E04E6
:10407000309721F00680F781E02D09940895209172
:10408000490430914A042817390771F090934A0483
:1040900080934904E0914D04F0914E04309721F053
:1040A0000084F185E02D0994089585B7806885BF67
:1040B00085B7806885BF0895089508950C945C20A5
:1040C00008950C9460200E9455200E945D200C945D
:1040D0005E2081E008950C946920089508950E945F
:1040E000EC2C0E947A080E94CF1A0E94962D0C9404
:1040F00061207F928F929F92AF92BF92CF92DF9278
:10410000EF92FF920F931F93CF93DF93CDB7DEB75C
:104110002A970FB6F894DEBF0FBECDBF0E946D2068
:104120000E946E200E94A1080E946B20882309F43F
:1041300071C040E5A42E44E0B42E10E000E0702EE3
:10414000802F0E9455086C01F501819091905F01CC
:104150008816990609F458C08091160581FD0E94C1
:104160005E0880E0EE24E394F12C8C249D249401DD
:104170002E213F21232B09F441C08E837F82CE2044
:10418000DF2081E0CD2809F480E088870E94F52CAB
:104190008160782F9A8789874E815F8168858A85BB
:1041A0000E942F21000F111FF801E05BFB4F80815F
:1041B0009181E826F926F182E0820E94412F0E9437
:1041C000E81F90914F048917B1F10E94E81F809376
:1041D0004F042A960FB6F894DEBF0FBECDBFDF9115
:1041E000CF911F910F91FF90EF90DF90CF90BF90F4
:1041F000AF909F908F907F900C944C068F5FEE0C49
:10420000FF1C803109F0B3CF0F5F1F4F083011053D
:1042100009F095CF8FEF89838A831B820E94F52C4A
:104220008160782F9D838C8349815A816B818D8138
:104230000E942F21C2CF2A960FB6F894DEBF0FBE80
:10424000CDBFDF91CF911F910F91FF90EF90DF9045
:10425000CF90BF90AF909F908F907F900895CF9315
:10426000DF93CDB7DEB72B970FB6F894DEBF0FBE46
:10427000CDBF4F83588769877A878B871E821D82BF
:1042800085E0FE013796DE01119601900D928A9528
:10429000E1F749815A816B817C818D819E812B96CA
:1042A0000FB6F894DEBF0FBECDBFDF91CF910C9457
:1042B0005027FC01808191810C94052ACF93C82F4F
:1042C000882309F490C08238C1F40E94E81F81FD60
:1042D0008AC089E30E94332A0E94A42A2FEF81EE2C
:1042E00094E0215080409040E1F700C0000089E355
:1042F0000E943A2ACF910C94A42A8338A1F40E94F8
:10430000E81F80FD70C083E50E94332A0E94A42A22
:104310002FEF81EE94E0215080409040E1F700C003
:10432000000083E5E5CF8438A1F40E94E81F82FDF8
:104330005AC087E40E94332A0E94A42A2FEF81EEFC
:1043400094E0215080409040E1F700C0000087E4F5
:10435000CFCF8CEF8C0F813AB8F48C2F0E94A8310C
:10436000811141C06C2F8091D4029091D5020E949E
:10437000CC2B882329F08C2F0E943A2A0E94A42A51
:104380008C2F0E94332AB6CF80E28C0F883048F4FD
:10439000C77081E001C0880FCA95EAF70E945B2AC6
:1043A000A9CFEBE5EC0FE33040F4F0E0ED58FC4F23
:1043B000808190E0CF910C942920E8E5EC0FE73163
:1043C00050F4F0E0EE0FFF1FEB5BFC4F808191811A
:1043D000CF910C943F20C03F30F08C2F0E943B2E99
:1043E000CF910C94262FCF910895882309F452C0C1
:1043F000823871F40E94E81F81FF4CC089E30E945B
:10440000332A0E94A42A89E30E943A2A0C94A42AFF
:10441000833859F40E94E81F80FF3CC083E50E9466
:10442000332A0E94A42A83E5EFCF843859F40E94EE
:10443000E81F82FF2FC087E40E94332A0E94A42A2B
:1044400087E4E2CF9CEF980F913AF0F290E2980F58
:10445000983050F4877091E001C0990F8A95EAF77F
:10446000892F0E94612AD2CF9BE5980F933020F4C8
:1044700090E080E00C94292098E5980F973120F483
:1044800090E080E00C943F20803F20F00E94A32E1B
:104490000C94262F0895CF93C82F0E945E21C93314
:1044A00049F42FEF87EE93E0215080409040E1F7F0
:1044B00000C000008C2FCF910C94F521882321F0AF
:1044C0000E945B2A0C94A42A0895882321F00E945C
:1044D000612A0C94A42A0895BF92CF92DF92EF92A2
:1044E000FF920F931F93CF93DF936C01D62FC72FAB
:1044F000FC01058102950F70128111110E94782A2A
:104500000E94512AE82E882391F01123D1F08C2F9C
:10451000807F803421F080E28D0F883090F082E03F
:104520000E94EF2A0E94512A91E0E82EE926BC2E33
:10453000B2949FE0B922EB2DF0E0E95AF44C0C94D0
:10454000E339E12CF4CF0C2F0F70C07F11F00295EE
:10455000007F1123A9F0002359F080E28D0F8830ED
:1045600010F0D11109C0802F0E945B2A0E94A42A5A
:104570008D2F0E945E2114C0802F0E946B2AF6CFDF
:104580008D2F0E94F521002359F080E28D0F883095
:1045900010F0D1112CC0802F0E94612A0E94A42A01
:1045A0002B2D2850330B2430310520F40E94E81FB6
:1045B0000E944C06EE2009F49EC10E944D2A80FD07
:1045C0009AC1F60112820E94472A0E94D428C6018D
:1045D0000E949C240E94472ADF91CF911F910F9146
:1045E000FF90EF90DF90CF90BF900C94F528802F34
:1045F0000E94712AD3CFFC2FFF70FF2EC07FC032E4
:1046000019F0F29480EFF822DD2369F0D13049F1FE
:10461000112391F1002351F1F601858180FFA8CF8C
:104620008F70858323C0112381F0011106C00E9481
:104630008B2A8F290E945E22B3CF0130C1F70E94DE
:104640008B2A8F290E94912AABCF011106C00E94AC
:104650009A2A8F2D0E946522A3CF013009F4A0CFA2
:10466000F6CF112329F0063008F09ACF8F2DE2CF34
:10467000053008F095CFEDCF002359F3D93349F435
:10468000FFEF27EE33E0F15020403040E1F700C06B
:1046900000008D2F0E94F52183CF8C2F8695869563
:1046A000837069F0813009F07BCF8D2F9C2F937040
:1046B000111102C090E080E00E943F2071CF8D2F49
:1046C0009C2F9370111102C090E080E00E9429207D
:1046D00067CF8D2F112329F00E943B2E0E94262F99
:1046E0005FCF0E94A32EFACF8C2F837009F041C0B8
:1046F000111156CF4D2F429546954770440F440FE8
:104700000D2F0F7010E030E020E0042E04C0000FE9
:10471000111F221F331F0A94D2F760E070E0CB0113
:10472000D4FF0FC06FE070E080E090E004C0660F3F
:10473000771F881F991F4A95D2F7609570958095CD
:104740009095C695C695C370602B712B822B932BC9
:10475000C23049F058F4C13019F00E94862820CFA9
:104760000E9474281DCF0E9498281ACF0E94722898
:1047700017CF8695112311F08C2F8170882309F4AF
:104780000FCF4D2F429546954770440F440F0D2F84
:104790000F7010E030E020E0042E04C0000F111F65
:1047A000221F331F0A94D2F760E070E0CB01D4FFE0
:1047B0000FC06FE070E080E090E004C0660F771FEC
:1047C000881F991F4A95D2F76095709580959095AE
:1047D000C695C695C370602B712B822B932BC2306C
:1047E00049F058F4C13019F00E944B29D9CE0E94EB
:1047F0003929D6CE0E945D29D3CE0E94AE28D0CED4
:10480000CF70112329F08C2F0E94D4288D2F12CF26
:104810008D2F0E9465228C2F0E94F528C1CED23F99
:1048200089F160F4D03FC9F0D13F29F1112309F497
:1048300042C001119DCE8C2F8F7121C0D33F39F121
:10484000D43FA1F7112369F1CF718C2F0E94D42896
:1048500063E08C2F0E94DA2AA3CE112341F00530A9
:1048600008F09ECE8C2F8F710E94182999CE0630A9
:1048700008F096CEF7CF8C2F8F71112369F20E942A
:10488000D4288ECE8C2F8F711123C9F3C5CF11235D
:1048900029F08C2F8F710E94BF2882CE0E94BA28E7
:1048A0007FCE81E00E94EF2A023008F479CE82E0C8
:1048B0000E94EF2A75CE002359F0D93309F0E9CED2
:1048C0008FEF97EEE3E081509040E040E1F7DFCEDC
:1048D0008C2F8F71A1CF4C2F4F706D2FC6010E946E
:1048E00054060E94EA275CCE4C2F4F706D2FC601F4
:1048F0000E94570655CEDF91CF911F910F91FF90E7
:10490000EF90DF90CF90BF9008950F931F93CF93B8
:10491000DF93EC01688179818A810E940F2A8C01E2
:104920000E946F290E947128B801CE01DF91CF91BA
:104930001F910F910C946C22CF93DF93EC018B812C
:104940009C81892B29F08881998189238F3F59F493
:10495000DF91CF910895CE010E948524CE01DF9191
:10496000CF910C94AF04CE010E94F7058111F3CFD3
:104970000E94512A882361F38A81882349F382E0C7
:10498000DF91CF910C94EF2A0E94782A0E94882A06
:104990000E94A42A0E944D300E94262F90E080E0C1
:1049A0000E94292090E080E00C943F200E94412A40
:1049B0000C94C4240E94682A0C94D624E92FE29512
:1049C000EF70E250EE3070F4F0E0E959F44C0C94E2
:1049D000E339803F19F020F4883E20F481E0089507
:1049E000843FE1F380E00895883EC0F3813FD1F732
:1049F000F5CF93FB882780F908950E94052A0C942F
:104A0000DE24CF93DF9300D000D00F92CDB7DEB776
:104A10000F900F900F900F900F90DF91CF9108950E
:104A2000CF93DF9300D000D000D0CDB7DEB726966D
:104A30000FB6F894DEBF0FBECDBFDF91CF910895C2
:104A40001F93CF93DF93C091610416E080916204BD
:104A50008C1304C0DF91CF911F910895D0E01C9F6B
:104A6000F0011D9FF00D1124ED59FB4F4081518144
:104A700062817381848195810E9410252196C7707F
:104A8000E5CF409193045091940460919504709106
:104A9000960480919704909198040C9410251F938C
:104AA000CF93DF9380919804807FA9F4809195043F
:104AB000882389F080916104C0916204609193041D
:104AC00070919404A0919604B0919704D62FD723A7
:104AD00016E0C81304C0DF91CF911F91089590E0B4
:104AE000109711F0DF3F19F401968770F2CF189FED
:104AF0009001199F300D1124F901ED59FB4F4181AF
:104B00004713F2CF40814613EFCF42814111ECCFE2
:104B1000438154814A1B5B0B483C510528F7809127
:104B200098048F70806180939804F901E859FB4FD5
:104B300080818F708061808383E994E00E949C244F
:104B4000DF91CF911F910C942025AF92BF92CF920D
:104B5000DF92EF92FF920F931F93CF93DF93CDB726
:104B6000DEB761970FB6F894DEBF0FBECDBF8C01E4
:104B700085E0F801DE011D9601900D928A95E1F71E
:104B8000F80140815181E28083E9C82E84E0D82E6B
:104B900060919604709197046115710509F461C1E3
:104BA0009091930420919404892F82238F3F09F4DC
:104BB00058C1A380B480F0909504F501E61BF70B73
:104BC000FF2009F4FCC080919804382F307FE83C26
:104BD000F10508F0B2C0311179C0FE2C251323C0B5
:104BE000941321C0E1101FC08F70806180939804DE
:104BF0000E944125C6010E949C2480919804F801DE
:104C000085838F2D61960FB6F894DEBF0FBECDBFA2
:104C1000DF91CF911F910F91FF90EF90DF90CF9098
:104C2000BF90AF900895AB2829F0842F85238F3F44
:104C300009F033C180E0F82FF170DF2E80FF3CC017
:104C4000809161042091620436E0821315C04D8783
:104C50005E878D859E850E94052A292F22952F70BB
:104C60002230F0F0243018F59F70F1F0F8019581B2
:104C7000907FD1F4D12C1EC090E0389FF001399F75
:104C8000F00D1124ED59FB4F6181651306C0608161
:104C9000641303C062816E110FC001968770D5CF77
:104CA0009F7011F0882331F3805E883018F3C801BB
:104CB0000E949C24FD2CA5CFEE2009F4A2CF809168
:104CC0009804816080939804F12C9BCF251306C033
:104CD000941304C0F801EE2009F48DC04D875E875F
:104CE0008D859E850E94FD24882319F1EE2009F10F
:104CF00080919804803270F0209193043091940454
:104D000038872F831986BB86AA868C87CE010796A3
:104D10000E949C2486E0F801A3E9B4E001900D9282
:104D20008A95E1F70E944F250E944125FF24F394C4
:104D300068CFC8010E949C24F9CF311113C07A2D8D
:104D4000B98AA88A6E2D89890E94012583E994E099
:104D50000E949C2486E0F60111928A95E9F70E9450
:104D60004125B2CF25130FC094130DC0E1100BC025
:104D7000F8018583C8010E949C2486E0F601119207
:104D80008A95E9F73ECF4D875E878D859E850E9487
:104D9000FD24882371F2EE2061F280919804803224
:104DA00008F4B8CF20919304309194043A83298376
:104DB0001B82BD82AC828E83CE010196A9CFE83CD6
:104DC000F10508F041C0FE2CEE2009F4B2CF251306
:104DD0002AC0941328C08091980480FD1BC0982F8E
:104DE000907FC1F0F8018583903F31F0982F907F3C
:104DF000905F8F70892B8583C8010E949C2486E078
:104E0000F801A3E9B4E001900D928A95E1F70E94C0
:104E10004125F7CE86E0F801A3E9B4E001900D92B8
:104E20008A95E1F7EECE4D875E878D859E850E943F
:104E3000FD2481116FCF8091980481608093980444
:104E4000C8010E949C24DDCE7A2DB98AA88A6E2DD5
:104E500089890E94012586E0F60111928A95E9F779
:104E6000D6CFEE2009F465CF4D875E878D859E8570
:104E70000E94FD24F82E882309F45BCF86E0F80118
:104E8000A3E9B4E001900D928A95E1F783E994E0FB
:104E90000E9459210E944F25BACF81E08E25CBCEAA
:104EA0001F93CF93DF93CDB7DEB72C970FB6F8944F
:104EB000DEBF0FBECDBF4F83588769877A878B8748
:104EC0009C87CE0107960E94A525882369F08A85D4
:104ED0009B85892B39F04F815885842F85238F3FFF
:104EE00009F071C016E05FC086E0FE013796DE0172
:104EF000119601900D928A95E1F78A859B85892B01
:104F000089F388859F8189238F3F61F32091620413
:104F100030E0C901019687709927409161044817D4
:104F2000190671F40E94DA2410926204109261044E
:104F300086E0E3E9F4E0DF011D928A95E9F7D2CF3C
:104F400096E0929FD001939FB00D1124AD59BB4FB5
:104F5000FE01319601900D929A95E1F780936204DB
:104F60000E942025BFCF819FC00111248D599B4FE6
:104F70000E94A5258823E9F0E09161041E9FF001BD
:104F80001124ED59FB4F40815181628173818481ED
:104F900095810E9410258091610490E001968770B0
:104FA0009927809361048091610490916204891330
:104FB000DACF2C960FB6F894DEBF0FBECDBFDF91CF
:104FC000CF911F91089569857A858B859C850E9474
:104FD000102588CFEF92FF920F931F93CF93DF930B
:104FE0008C01892B81F0F12CEE24E394E8012196C9
:104FF000F8018491843770F4843008F05FC0813008
:10500000B1F08230A1F1DF91CF911F910F91FF900C
:10501000EF900895853709F44CC008F43DC09CE733
:10502000980F903780F78F770E94F52149C00E5F67
:105030001F4FFE01849190E2980F983060F48770C2
:10504000FE2D01C0FF0F8A95EAF78F2F0E947B2A61
:105050000E94A42A02C00E945E218F2D815030F24E
:10506000EFE9FFE03197F1F700C00000F7CF0E5FE6
:105070001F4FFE01849190E2980F983050F4877092
:10508000FE2D01C0FF0F8A95EAF78F2F0E94812A1B
:10509000DFCF0E94F521E1CF0E5F1F4FFE01C491CB
:1050A000C150D8F28FE99FE00197F1F700C00000EE
:1050B000F7CF0E5F1F4FFE01F490CFCF0E945E210D
:1050C0008E01CBCF08950C9462280E9463286093D0
:1050D000ED047093EE048093EF049093F0040C942D
:1050E000C42408950C9465280F931F930091ED0438
:1050F0001091EE042091EF043091F004602B712B9D
:10510000822B932B1F910F910C9465280F931F9363
:105110000091ED041091EE042091EF043091F00421
:1051200060237123822393231F910F910C94652890
:105130000F931F930091ED041091EE042091EF0462
:105140003091F00460277127822793271F910F91D8
:105150000C9465280C9462280C94AA280E94AC2810
:105160006093E9047093EA048093EB049093EC0459
:105170000C94C42460E070E0CB010C94AE280F9333
:105180001F9341E050E060E070E08A019B0104C0A1
:10519000000F111F221F331F8A95D2F7C901B801D2
:1051A0001F910F910C94AE280F931F9341E050E094
:1051B00060E070E004C0440F551F661F771F8A959A
:1051C000D2F78091E9049091EA04A091EB04B091A8
:1051D000EC048A019B01082B192B2A2B3B2BC901BC
:1051E000B8011F910F910C94AE280F931F9341E0CB
:1051F00050E060E070E004C0440F551F661F771F49
:105200008A95D2F7CB01BA016095709580959095FB
:105210000091E9041091EA042091EB043091EC0430
:1052200060237123822393231F910F910C94AE2846
:105230000F931F9341E050E060E070E004C0440F22
:10524000551F661F771F8A95D2F78091E9049091C8
:10525000EA04A091EB04B091EC048A019B010827B9
:1052600019272A273B27C901B8011F910F910C94D8
:10527000AE280F931F930091E9041091EA04209146
:10528000EB043091EC04602B712B822B932B1F913C
:105290000F910C94AE280F931F930091E904109185
:1052A000EA042091EB043091EC0460237123822303
:1052B00093231F910F910C94AE280F931F9300918D
:1052C000E9041091EA042091EB043091EC0460278A
:1052D0007127822793271F910F910C94AE28089570
:1052E0009295907F890F982F977041E001C0440FED
:1052F0009A95EAF786958695869595E0899FF001BF
:105300001124E756FB4F30E020E070E05191DF01BF
:105310001197CB01022E02C0969587950A94E2F769
:10532000817081958527842385278C932F5F3F4F3C
:105330002530310559F708959295907F890F982F60
:10534000977086958695869525E0829FF0011124B9
:10535000E756FB4F50E040E080E0219130E0092E1D
:1053600002C0369527950A94E2F721703327042E60
:1053700001C0220F0A94EAF7822B4F5F5F4F45303E
:10538000510559F70895BF92CF92DF92EF92FF92A5
:105390000F931F93CF93DF938C01C090E904D090BB
:1053A000EA04E090EB04F090EC048091ED0490911D
:1053B000EE04A091EF04B091F004C82AD92AEA2A99
:1053C000FB2ACFE1D0E0BC2ED701C6010C2E04C0D1
:1053D000B695A795979587950A94D2F780FD0EC04C
:1053E000219788F7B12C8B2DDF91CF911F910F91D1
:1053F000FF90EF90DF90CF90BF900895B8018C2F71
:105400000E946006019761F3EECFCF93DF93EC012A
:105410000E94C329BE01DF91CF910C9460061F93B7
:10542000CF93DF93EB0190916004992331F0CB018E
:10543000DF91CF911F910C94052A882379F0CB013D
:105440000E94C329182F682FCE010E947029BE0127
:10545000812FDF91CF911F910C946006CB010E94A8
:105460009C29182FF4CF682F8091D4029091D502F7
:105470000C944C2C682F8091D4029091D5020C94FE
:10548000572C8091D4029091D5020C94622C80917B
:10549000F10485958595859508958091F10487702F
:1054A00008959091F104977081E009F480E00895E7
:1054B00080911505089590911505892B8093150508
:1054C000089580959091150598239093150508955A
:1054D00010921505089590911405892B8093140559
:1054E000089580959091140598239093140508953C
:1054F00010921405089590911305892B809313053C
:10550000089580959091130598239093130508951D
:105510001092130508958091F204089508950C9453
:105520008E2A9091F204981721F08093F2040C9443
:105530008F2A08958091F204882329F01092F204B2
:1055400080E00C948F2A0895E091D402F091D50266
:10555000809115058083E091D402F091D50280817D
:1055600090911405892B8083E091D402F091D502AB
:10557000808190911305892B80839091F204992367
:1055800081F0E091D402F091D5028081892B808353
:105590008091D4029091D5020E94B82B81110E9473
:1055A0009A2A8091D4029091D5020C9401200895FA
:1055B0000C94D72A98E0899F90011124622B609364
:1055C000F1040E94D4288091F104859585958595F4
:1055D0000C94D82A1092F10480E00C94D82A90916F
:1055E000F104809589238093F104282F277071F4AA
:1055F000282F082E000C330B9217130639F08595CF
:10560000859585950E94F5280C94EA2A08956FEFF8
:105610007FEF90E080E00C94DF3A90E080E00E9421
:10562000AB3A21E08C3E9E4F09F020E0822F089596
:1056300082E090E00C94A33A83E090E00C94A33ACB
:10564000CF9384E090E00E94A33AC82F81E290E0DB
:105650000E94A33A982F8C2FCF910895CF93C92FF2
:10566000682F84E090E00E94C13A6C2F81E290E0C4
:10567000CF910C94C13AAB01BC018FE090E00C9447
:10568000D33AAB01BC0183E190E00C94D33A60E0E3
:1056900070E0CB010C94412B60E070E0CB010E94E4
:1056A0003B2B0C94472B6CEE7EEF90E080E00E9449
:1056B000DF3A60E082E090E00E94C13A60E083E07F
:1056C00090E00E94C13A1092ED041092EE04109204
:1056D000EF041092F00460E084E090E00E94C13A90
:1056E00060E081E290E00E94C13A60E085E090E0F5
:1056F0000E94C13A60E086E090E00E94C13A6FEFFC
:1057000087E090E00E94C13A40E050E0BA0188E0B2
:1057100090E00E94D33A60E08DE090E00E94C13AB0
:1057200040E050E0BA0188E190E00E94D33A60E0A6
:1057300087E190E00E94C13A40E050E0BA018CE17C
:1057400090E00E94D33A60E080E290E00E94C13A8B
:1057500040E050E0BA0188E190E00E94D33A0C9416
:105760004C2B0C94532B682F8EE090E00C94C13A94
:10577000FC0132968091E802882321F08091E906AD
:105780009EE187FF96E080E0915008F40895219112
:105790002223D1F38F5FF8CF662301F12091E80235
:1057A0002223F1F02091E90627FF1AC0462F4695E3
:1057B000469546954E3190F4677021E030E002C086
:1057C000220F331F6A95E2F7840F911DFC0182813D
:1057D00090E02823392381E0232B69F480E00895A9
:1057E000FC01329608962191261721F0E817F90757
:1057F000D1F7F4CF81E008959C01FC0132969FEF30
:1058000080E04191461751F09F3F19F4411101C0CA
:10581000982F8F5F8630A9F79F3F09F40895290FCD
:10582000311D97FD3A95F90162830895FC01329686
:1058300008962191261303C0DF0111971C92E817E7
:10584000F907B9F70895E62FE695E695E695EE3166
:1058500068F4E80FF92FF11D677021E030E001C016
:10586000220F6A95EAF78281822B82830895E62FC0
:10587000E695E695E695EE3170F4E80FF92FF11D07
:10588000677021E030E001C0220F6A95EAF72095A9
:1058900082812823228308952091E802222329F07F
:1058A0002091E90627FD0C94232C0C94FC2B2091CD
:1058B000E802222329F02091E90627FD0C94372CD9
:1058C0000C94162CFC0132968091E802882351F04A
:1058D0008091E90687FF06C08EE1DF011D928A955F
:1058E000E9F7089586E0F9CF089508950E944004ED
:1058F0008091EF06843049F11092170588E190E01D
:1059000020E40FB6F894A895809360000FBE209312
:10591000600080E00E944C060E94400483B7817FB3
:10592000846083BF83B7816083BF7894889583B791
:105930008E7F83BF0FB6F894A89580916000886130
:1059400080936000109260000FBE08950895CF9379
:105950000E94742C0E94A1080E94A62CC0E08C2FEB
:105960000E945508892B31F4CF5FC830C1F780E021
:10597000CF91089581E0FCCF08950E94DA240E941F
:10598000E81F0E944C060C9445041F921FB61F92FC
:1059900011248F939F93AF93BF938091170581112B
:1059A00013C08091E5069091E606A091E706B091BC
:1059B000E8064196A11DB11D8093E5069093E60689
:1059C000A093E706B093E806BF91AF919F918F91A6
:1059D0001F901FBE1F90189582E084BD93E095BD77
:1059E0009AEF97BD80936E0008952FB7F894809139
:1059F000E5069091E606A091E706B091E8062FBF74
:105A000008952FB7F8946091E5067091E6068091AD
:105A1000E7069091E8062FBF08959C014FB7F894D0
:105A20008091E5069091E606A091E706B091E80620
:105A30004FBF821B930B0895CF92DF92EF92FF929C
:105A40002FB7F894C090E506D090E606E090E70600
:105A5000F090E8062FBFA7019601261B370B480BD5
:105A6000590BCA01B901FF90EF90DF90CF900895D4
:105A700078941F921FB61F9211248F939F93AF9318
:105A8000BF938091E5069091E606A091E706B0915C
:105A9000E8060196A11DB11D8093E5069093E606E8
:105AA000A093E706B093E806BF91AF919F918F91C5
:105AB0001F901FBE1F90189581E08093E00080E248
:105AC0008093D8001092C9008FE19EE40197F1F70E
:105AD00000C0000087E090EBDC018093F806909313
