:100000000C940D040C9454040C9454040C94540457
:100010000C9454040C9454040C9454040C94540400
:100020000C9454040C9454040C9421300C94F5302A
:100030000C94EC250C9454040C9454040C94540427
:100040000C9454040C946E120C9454040C945404A8
:100050000C9492120C9443260C9454040C94540463
:100060000C9454040C9454040C9454040C945404B0
:100070000C9454040C9454040C9454040C945404A0
:100080000C9454040C9454040C9454040C94540490
:100090000C9454040C94540429003A003B003C0096
:1000A0003D003E003F00400041004200430044004C
:1000B000450046004700480035001E001F00200094
:1000C00021002200230024002500260027002D0007
:1000D0002E0049004A004B002B0014001A000800B3
:1000E000150017001C0018000C00120013002F0050
:1000F00030004C004D004E0039000400160007008F
:1001000009000A000B000D000E000F003300340040
:1001100028002A0000000000E10001001D001B0073
:1001200006001900050011001000360037003800E5
:10013000E50031005200E400E000E300E2000000CE
:10014000000001002C00000000000100E600E700B4
:100150000151500051004F00010001000100010059
:100160000100010001000100010001000100010087
:1001700001000100010001000100C35CC45CC65C19
:10018000C75CC85CC95CCA5CCB5C010001000100B3
:100190000100010001000100010001000100010057
:1001A0000100010001000100010001000100010047
:1001B0000100010001000100010001000100010037
:1001C0000100010001000100010001000100010027
:1001D0000100010000000000010001000100010019
:1001E0000100010001000100010001000100010007
:1001F00001000100BF5C01000100010001000000DE
:1002000000000100010000000000010001000100E9
:100210000100C05CBE5CC15C010001000100010086
:1002200001000100010001000100010001000100C6
:1002300001000100010001000100010001000100B6
:1002400001000100010001000100010001000100A6
:100250000100010001000100010001000100010096
:100260000100010001000100010001000100010086
:100270000100010001000100010001000100010076
:100280000100010001000100010001000100010066
:100290000100010000000000010001000100010058
:1002A0000100010001000100010001000100010046
:1002B0000100010001000100010001000100000037
:1002C0000000010001000000000001000100010029
:1002D0000100010001000100010001000100010016
:1002E0000100010001000100010001000100010006
:1002F00001000100010001000100010001000100F6
:1003000001000100010001000100010001000100E5
:1003100001000100010001000100010001000100D5
:1003200001000100010001000100010001000100C5
:1003300001000100010001000100010001000100B5
:1003400001000100010001000100010001000100A5
:100350000100010000000000010001000100010097
:100360000100010001000100010001000100010085
:100370000100010001000100010001000100000076
:100380000000010001000000000001000100010068
:100390000100010001000100000000000000000059
:1003A0002A2B2800000000000000000000000000D0
:1003B00000000029000000002C1E342021222434DB
:1003C0002627252E362D3738271E1F2021222324AD
:1003D00025263333362E37381F0405060708090A49
:1003E0000B0C0D0E0F101112131415161718191AE5
:1003F0001B1C1D2F3130232D350405060708090A63
:100400000B0C0D0E0F101112131415161718191AC4
:100410001B1C1D2F3130354C000000000000000077
:100420000000000000000000000000007E0F00D46B
:10043000FFFFFFC70000007832190A00047F3F1F4A
:10044000643214643214783C1E1E140A05222325DB
:100450002628292A2C2D2F3032333536383A3B3D89
:100460003E4042434547494A4C4E505153555759D7
:100470005A5C5E6062646668696B6D6F71737577F4
:10048000797B7D7F81838587898A8C8E90929496F3
:10049000989A9C9E9FA1A3A5A7A8AAACAEAFB1B302
:1004A000B4B6B8B9BBBCBEBFC1C2C3C5C6C7C9CA52
:1004B000CBCCCDCED0D1D2D2D3D4D5D6D7D7D8D914
:1004C000D9DADADBDBDBDCDCDCDCDCDDDDDDDDDC72
:1004D000DCDCDCDCDBDBDBDADAD9D9D8D7D7D6D584
:1004E000D4D3D2D2D1D0CECDCCCBCAC9C7C6C5C346
:1004F000C2C1BFBEBCBBB9B8B6B4B3B1AFAEACAA93
:10050000A8A7A5A3A19F9E9C9A98969492908E8C42
:100510008A89878583817F7D7B79777573716F6D1C
:100520006B6968666462605E5C5A595755535150F6
:100530004E4C4A4947454342403E3D3B3A383635AA
:100540003332302F2D2C2A292826252322FFAA7F5B
:1005500055400001010101010101010102020202F5
:10056000020202020203030303030303030404045D
:100570000404040405050505050606060606070726
:1005800007070708080808090909090A0A0A0B0BDE
:100590000B0C0C0C0D0D0D0E0E0E0F0F0F1010117D
:1005A0001111121213131414151516161717181803
:1005B00019191A1A1B1B1C1D1D1E1E1F202021226B
:1005C00022232424252626272829292A2B2C2D2DB1
:1005D0002E2F30313232333435363738393A3B3CCE
:1005E0003D3E3F404142434445464748494A4C4DC1
:1005F0004E4F50515354555658595A5B5D5E5F618A
:100600006264656668696B6C6D6F7072737577781C
:100610007A7B7D7E8082838587888A8C8E8F91937A
:100620009596989A9C9EA0A2A3A5A7A9ABADAFB1A1
:10063000B3B5B7BABCBEC0C2C4C6C9CBCDCFD1D486
:10064000D6D8DBDDDFE2E4E7E9EBEEF0F3F5F8FA2C
:10065000FDFF1C0358004F003800370020005300F6
:100660006F006C00640065007200650064000000AB
:1006700018034D006F006E0073007400610072007B
:1006800067006500610072000000040309040902AC
:100690005B00030100A0FA0904000001030101004E
:1006A0000921110100012240000705810308000A09
:1006B00009040100020300000009211101000122C8
:1006C0002200070582032000010705030320000123
:1006D00009040200010300000009211101000122A8
:1006E000BC000705840320000A120110010000006D
:1006F00008474D44530100010200010660FF0961F3
:10070000A1010962150026FF0095207508810209E4
:1007100063150026FF00952075089102C0050109A8
:1007200002A10185020901A1000509190129051588
:10073000002501950575018102950175038101056B
:1007400001093009311581257F9502750881060957
:10075000381581257F950175088106050C0A380238
:100760001581257F950175088106C0C005010980A6
:10077000A101850319012AB700150126B7009501CB
:1007800075108100C0050C0901A101850419012A19
:10079000A002150126A002950175108100C0050177
:1007A0000906A1018505050719E029E715002501BE
:1007B0009508750181020507190029EF150025012B
:1007C00095F0750181020508190129059505750146
:1007D0009102950175039101C005010906A101056A
:1007E0000719E029E7150025019508750181029593
:1007F00001750881010507190029FF150026FF0072
:1008000095067508810005081901290595057501EA
:100810009102950175039101C00011241FBECFEF15
:10082000D0E1DEBFCDBF04B603FE27C080919304A4
:1008300090919404A0919504B09196048730904BC8
:10084000A740B04BD1F410929304109294041092EC
:1008500095041092960414BE84B7877F84BF0FB6A8
:10086000F894A89580916000886180936000109250
:1008700060000FBEE0E0F8E7099511E0A0E0B1E00C
:10088000EAEAF9E602C005900D92AE3FB107D9F74A
:1008900024E0AEEFB1E001C01D92A339B207E1F749
:1008A0000E94E62C0C9445340C940000CF93DF9307
:1008B00080912F03816080932F031092BB03ACE3E0
:1008C000B1E041E050E08D91E82FE295EF70F0E06B
:1008D00021A18F70BA0102C0660F771F8A95E2F7D7
:1008E000CB01922F982B91A392A18095892382A36B
:1008F00071E0A234B70739F7ACE2B1E04CE351E064
:1009000061E070E08D91E82FE295EF70F0E021A1B9
:100910008F70EB0102C0CC0FDD1F8A95E2F7CE018C
:10092000922F982B91A392A18095892382A34A1795
:100930005B0741F7E0ECF3E080E294E021E02193F3
:100940008E179F07E1F76E987698DF91CF910C9400
:100950008F088093A20381E0089508950C94B30456
:10096000089581E0089581E0089508950C94B504F8
:100970001F93CF93DF9300D000D00F92CDB7DEB797
:1009800049835A836B8330918D0289819A81311119
:100990001DC06623B9F02223A9F00E94D822182F87
:1009A000682F89819A810E94852269817A81812FAD
:1009B0000F900F900F900F900F90DF91CF911F919C
:1009C0000C9427160E94B122182FEFCF0E94D82234
:1009D00069817A81EDCFFC01262F408151816281AE
:1009E000738184810C94B804CF93DF93EC0160E0B1
:1009F0000E94EB04BE01DF91CF910C94B604FF92EC
:100A00000F931F93CF93DF93E82FF0E0E856FC4F4E
:100A1000F490C82FC695C695C695D0E0FE01E85D56
:100A2000FB4F0491877010E0082E02C015950795C2
:100A30000A94E2F701701127C85EDB4FFE01C491F2
:100A4000D0E002C0D595C7958A95E2F7C170DD2741
:100A50000115110519F081EE0E94731A209719F003
:100A600086EE0E94731A8F2D0E94601BCD2B19F009
:100A700086EE0E940A1B012B41F081EEDF91CF919F
:100A80001F910F91FF900C940A1BDF91CF911F9142
:100A90000F91FF900895EF92FF920F931F93CF93C2
:100AA000DF93EC01162F0AE08881882309F454C0F3
:100AB000813009F04EC08981813099F47E0122E0B5
:100AC000E20EF11C8A810E94601BE7012196812FB2
:100AD000815050F3EFE9FFE03197F1F700C00000DB
:100AE000F7CF823041F47E0182E0E80EF11C8A816A
:100AF0000E94731AEACF833041F47E01E2E0EE0EE9
:100B0000F11C8A810E940A1BE0CF843011F02196EB
:100B1000DDCF2A81229690E080E0AE014F5F5F4FEB
:100B20002053330B2A30310548F0019778F2EFE972
:100B3000FFE03197F1F700C00000F7CF089FB00148
:100B4000099F700D1124C901860F971F2981EA01A1
:100B5000E4CF0E94FF04BACFDF91CF911F910F9194
:100B6000FF90EF90089560E00C944B058F929F9258
:100B7000AF92BF92CF92DF92EF92FF920F931F93AB
:100B80006B017C0181E090E0A0E0B0E04C015D01F0
:100B900004C0880C991CAA1CBB1C4A95D2F7B5014D
:100BA000A4014C015D0104C0880C991CAA1CBB1C4B
:100BB0002A95D2F7482959296A297B2904C0880F28
:100BC000991FAA1FBB1F0A95D2F78A019B010C210E
:100BD0001D212E213F21041715072607370789F409
:100BE0008C299D29AE29BF29BC01CD011F910F91F0
:100BF000FF90EF90DF90CF90BF90AF909F908F903D
:100C0000089580959095A095B0958C219D21AE2159
:100C1000BF21EACF0F93382F262F609102037091E6
:100C200003038091040390910503042F432F0E9436
:100C3000B6050F910C94C3210E948D260E94222498
:100C4000811102C00E94CF240E9433130C945604D9
:100C50000C94AD0408950E94EF1D0E942A062FEF08
:100C600084E39CE0215080409040E1F700C0000008
:100C70000C9467260F931F93CF93DF93EC0161E0F1
:100C80000E94EB048C01BE010E94C6138823B9F1B7
:100C9000BE01C8010E94AE04882389F1BE01C801CB
:100CA0000E943712882359F1BE01C8010E945E17C5
:100CB000882329F1BE01C8010E94B0178823F9F0EA
:100CC000BE01C8010E94D3188823C9F0BE01C80123
:100CD0000E94F410882399F08A81882339F0011545
:100CE0008CE5180751F00F3D1C4579F0CE01DF91DE
:100CF000CF911F910F910C94B1040E942B0680E0BC
:100D0000DF91CF911F910F9108950E94CF24F7CFCB
:100D10000C94B0040C94A904CF93C82F0E948806A9
:100D20008C2FCF910C948A0690E080E0089508956E
:100D3000FC01EE0FFF1FE85CFB4F85919491089535
:100D4000CF93DF930E9427160E94B507EC0181150F
:100D500020E5920708F042C0811530E4930708F0BF
:100D6000BDC0883E910528F5803E910508F09DC0E4
:100D7000883A910588F4853A910508F08FC0813052
:100D8000910509F492C0009709F48FC0049708F008
:100D90008CC0D0E0C0E089C08F3B910508F489C0C9
:100DA000805C9109C03CD105A0F30E949806EC013B
:100DB0007CC08115904250F4C11581E0D80708F03D
:100DC00074C0C03FD10528F3D0656FC0C11590E352
:100DD000D90708F079C0CE019F70E7CF811525E5CE
:100DE000920758F5811534E5930708F0A6C08115E0
:100DF00042E5940750F4C11581E5D80708F471C0A5
:100E0000DC2FCC27C16FD06A50C0982F969596954D
:100E10009E0123703327C115D34508F07FC0C1E080
:100E2000D0E002C0CC0FDD1F2A95E2F720E2929FAE
:100E3000C0011124C82BD92B6FC0C11589E5D80773
:100E4000A8F4C11598E5D90708F07CC0C11526E5BE
:100E5000D20708F09ECF8C2F0E944C08C82FD0E0FC
:100E6000DC2FCC27CC27DF71D0621FC0C1153AE53B
:100E7000D30708F46CC0CE0190568115904208F05B
:100E800088CF8D2F8F710E944C0890E0982F882773
:100E900088279F719C012C2BE901E6CFC55AD0E031
:100EA000C059DE4FC881D0E0D064CE01DF91CF9130
:100EB0000895C85AD0E0CC0FDD1FCE5BDE4F0990FD
:100EC000D881C02DD464F1CFCE019927D3FF03C0C0
:100ED000EC01D86CEACFEC01D06CE7CFDF70D06AC0
:100EE000E4CFCE01E4E096958795EA95E1F783702B
:100EF0002C2F26952695237090E2299F900111248E
:100F0000382B8C2F8370C1E0D0E002C0CC0FDD1FE6
:100F10008A95E2F7C22BD32BDC68C7CFC1E0D0E0C3
:100F200002C0CC0FDD1F2A95E2F730E2939FC0018B
:100F30001124C82BD92BDA68B8CFD82FCC27C46F8F
:100F4000D06AB3CFDC2FCC27C06FD06AAECF8C2F46
:100F50008F700E944C0834E0D695C7953A95E1F71A
:100F6000CF709C2FEC01D069A0CF82389105B1F1F0
:100F7000B0F48133910509F475C048F489329105C4
:100F800009F469C08A32910509F473C00895853364
:100F9000910509F459C08933910501F10895833E03
:100FA0009105A9F138F4803E9105F9F0823E910552
:100FB00049F10895863E9105A9F1873E9105C9F151
:100FC000843E910519F52091850421FF1FC0809171
:100FD000840484FD14C087EE90E008952091840479
:100FE0002370A1F080EE90E008952091840420FD0C
:100FF00047C03091850430FF09C024FF44C090E011
:1010000080E004C02091840422FDF7CF0895209150
:10101000840422FD3BC03091850430FDE3CF24FFE2
:10102000F5CFEDCF2091840423FFF0CF24FDE7CF4F
:10103000D2CF2091840423FD2CC03091850431FF50
:10104000EECF84EE90E008952091840425FFDECF5A
:1010500089E290E008952091840425FFD7CF85E3AD
:1010600090E008952091840426FFD0CF8AE290E09A
:1010700008952091840426FFC9CF81E390E008956C
:1010800089E390E0089583EE90E0089582EE90E089
:10109000089586EE90E008959091840492FF06C032
:1010A000282F28712830F9F4877F846093FF06C0C9
:1010B000282F28712831F1F4877E846120918504DE
:1010C00020FF06C0382F38713830D9F4877F81600F
:1010D00021FF06C0282F28712831D1F4877E816135
:1010E00094FD877E0895282F24712430F9F68B7F94
:1010F0008860DCCF282F2471243101F78B7E886132
:10110000DDCF382F3171313019F78E7F8860E0CF15
:10111000282F2171213121F78E7E8861E1CF08953A
:10112000E82FF0E0EE0FFF1FE15DFB4F8081918122
:101130000895089580EA8A95F1F70895F894E82FC4
:10114000E295EF70F0E031A1282F2F7081E090E060
:1011500001C0880F2A95EAF7982F9095932391A3C1
:1011600092A1892B82A378940895CF93DF93C3E74C
:10117000D1E089910E949E0881E0C338D807C9F761
:1011800086EC0E949E0887EC0E949E0883EC0E94D9
:101190009E0880E30E949E0881E30E949E0882E0F0
:1011A0000E949E08E3E2F4E0AFE2B4E011921192F3
:1011B0001D921D9284E0EF32F807C1F786E00E948D
:1011C0007B09DF91CF910C941C066F927F929F92C6
:1011D000AF92BF92CF92DF92EF92FF920F931F9345
:1011E000CF93DF9393E7E92E91E0F92E10E000E032
:1011F000C0E0CC24C394D12C3FE2A32E34E0B32E24
:10120000D7018D917D01F894E82FE295EF70F0E021
:1012100021A18F70A60102C0440F551F8A95E2F7E5
:10122000CA01922F982B91A392A18095892382A322
:1012300078940E949A08A601002E02C0440F551F00
:101240000A94E2F7BA0160957095E3E2F4E083E86E
:10125000682E81E0782ED0E021913191D3019D90CC
:101260003D01892D82958F7090E0DC0190968C91E4
:1012700090E0B92DBF7002C095958795BA95E2F7B9
:1012800080FD35C0C901842B952B2817390739F00B
:101290009F0122503109D9018D939C93D1E0AE1664
:1012A000BF06D1F6F701319780810E949E08CD2BB1
:1012B0000F5F1F4F0031110509F0A2CF2C2F46E020
:1012C0006FE274E083E294E00E947C090E942806A9
:1012D0008C2FDF91CF911F910F91FF90EF90DF90B6
:1012E000CF90BF90AF909F907F906F900895C9016D
:1012F00086239723CACF0895FF920F931F93CF930E
:10130000DF93F82E092F162FD72FC42F222349F051
:1013100081E0809300020E941C269093FF0180933D
:10132000FE01809100028823A1F08091FE0190913E
:10133000FF010E943426069760F0EF2DF02FA12FB9
:10134000BD2F90E080E0D0E08C179D0744F0109214
:101350000002DF91CF911F910F91FF90089521918D
:1013600031912D933D930196EFCFEF92FF920F9322
:101370001F93CF93DF93EB01E82FD11110C04423CB
:1013800021F0F0E0EE5AFA4FE4916E2F7E2F8E2F6F
:10139000DF91CF911F910F91FF90EF9008950D2F46
:1013A00010E0282F30E0442329F02E5A3A4FF9015B
:1013B000249130E0F6E0CF9FC0011124EFEFF0E080
:1013C000BF010E94D132AB018C2F90E0880F991F92
:1013D000A5E5A49FB001A59F700D1124861B970B56
:1013E000982F990F980FBF01601B710B629FD0015E
:1013F000639FB00D729FB00D11248B2F9D9FB00184
:101400001124672F7727EF01C61BD70BBE01629F00
:10141000E001639FD00D729FD00D11247F01E91A66
:10142000F108E09EB001E19E700DF09E700D112458
:10143000672F7727E61BF70BE29F8001E39F100DD4
:10144000F29F100D1124E12F722F4230510599F0B7
:1014500048F44115510569F04130510581F0EB2FF9
:101460008D2F07C04430510569F080F0463051059A
:10147000B1F76E2F8DCFE22F7B2F812FFACFE22F86
:101480007D2FF7CFEB2F822F712FF3CF7B2F822F62
:10149000ED2FEFCF41E00C94B50908950C944A0A62
:1014A000CF93DF93762FE901682F842F0E944E0A95
:1014B000798368838A83DF91CF91089580913B047B
:1014C000982F9E7F29F48170826080933B04089559
:1014D0008635E8F381708465F8CF88E090E00C945D
:1014E000E633CF92DF92EF92FF926B017C010E9474
:1014F0005E0AB701A60188E090E0FF90EF90DF90D0
:10150000CF900C94043460913B0470913C04809122
:101510003D0490913E040C94710AEBE3F4E083E007
:10152000808311828FEF8283838314826081718133
:10153000828193810C94710A80913B0480FF02C0E8
:101540008695089580E0089590913F04933018F4B3
:101550009F5F90933F04882351F060913B0470910A
:101560003C0480913D0490913E040C94710A0895CE
:1015700081E00C94A40A90913F04992319F09150B2
:1015800090933F04882351F060913B0470913C0498
:1015900080913D0490913E040C94710A089581E07D
:1015A0000C94BB0A80913F04089580933F04662306
:1015B00051F060913B0470913C0480913D04909106
:1015C0003E040C94710A089560E00C94D50A809151
:1015D0003C04089580913D04089580913E0408954F
:1015E00070E00C9443136091080180913B0480FFEC
:1015F0000AC08091070123E0829FC0011124805C12
:101600009B4F0C94F00A8091090190910A0123E00C
:10161000829FF0011124E05CFB4F891750F7118283
:10162000108212828F5F3396F8CF90913B0490FF27
:1016300014C09091090120910A0133E0939FF001B9
:101640001124E05CFB4F921710F00C94F30A818395
:10165000608342839F5F3396F6CF0895CF93DF93E5
:1016600000D00F92CDB7DEB790913B0490FF0AC037
:101670009E012F5F3F4F0E94500A4B8169818A81F2
:101680000E94150B0F900F900F90DF91CF9108954E
:10169000CF93DF93EC01EC81F0E0E35BFB4F4491EF
:1016A000EBE3F4E0628181810E942E0B8C818F5FDD
:1016B0008C83DF91CF910895CF93DF93EC01EBE31F
:1016C000F4E0438162818C810E942E0B8C818F5FBC
:1016D0008C83DF91CF9108950F931F93CF93DF9366
:1016E00000D00F92CDB7DEB78C018091010281113D
:1016F0000AC09E012F5F3F4F4FEF6FEF0E94500ACD
:101700008A8180930102F8016481613069F08091DF
:10171000010240E0662361F040E0623011F4409144
:10172000010280E060E004C06091010240E080E0DE
:101730000E94150BF801848190E0019663E070E04F
:101740000E94E53284830F900F900F90DF91CF912C
:101750001F910F910895AF92BF92CF92DF92EF92B7
:10176000FF920F931F93CF93DF9300D00F92CDB7CB
:10177000DEB7182FF62E042FE22E90913B0490FF37
:1017800029C0E92FE695AE2FB0E0A757BE4F8C9148
:10179000809374029E7F923059F59E012F5F3F4FD8
:1017A000812F0E94500A4B8169818A810E94150B0A
:1017B00010933C04F0923D0400933E04EE2051F05F
:1017C00060913B0470913C0480913D0490913E04F3
:1017D0000E94710A0F900F900F90DF91CF911F918F
:1017E0000F91FF90EF90DF90CF90BF90AF90089552
:1017F000823019F400913E04DBCF863019F4109149
:101800003C04D6CF8930D9F3893191F6E9518E2F36
:101810008170D82EE695F0E0E35BFA4FA590B49086
:10182000C12CBB2460910B01C61618F00E94F30A6C
:10183000BFCF2C2D30E0A29EC001A39E900DB29E82
:10184000900D112470E00E94D132812FD11013C06D
:10185000860F40910901420F532F511D9A01220F0B
:10186000331F240F351F205C3B4F402F6F2D0E94EC
:10187000500AC394D7CF861BECCFEBE3F4E0918101
:10188000282F4381628188E0890F0C94AB0B81E0A3
:101890000C943D0CEBE3F4E09181282F43816281AD
:1018A00088EF890F0C94AB0B81E00C944A0CEBE3AE
:1018B000F4E0628121E1620F08F46FEF282F438189
:1018C00081810C94AB0B81E00C94570CEBE3F4E0BA
:1018D000628121E1621B08F460E0282F438181814D
:1018E0000C94AB0B81E00C94660CEBE3F4E04381C9
:1018F00021E1420F08F44FEF282F628181810C947F
:10190000AB0B81E00C94750CEBE3F4E0438121E137
:10191000421B08F440E0282F628181810C94AB0BBC
:1019200081E00C94840C20E00C94AB0BEF92FF92BE
:101930001F93CF93DF93EC0110E0EE24EA94F12C97
:1019400060910B01161770F00E94F30A9A818C8146
:1019500090FF27C08F5F8C83DF91CF911F91FF9005
:10196000EF90089520910901422F410F5527551FEF
:10197000CA019A01220F331F280F391F205C3B4FE9
:1019800070E0C7010E94E532962F8C8140913E04A1
:1019900060913D04199F800D11240E94500A1F5F21
:1019A000CFCF8150D8CFAF92BF92CF92DF92EF923C
:1019B000FF920F931F93CF93DF93FC0182810FEF70
:1019C00080FF01E010E045E1A42E80910B01181783
:1019D000C8F00E94F30A80910302013009F055C05B
:1019E000811102C080910B01815080930302DF912D
:1019F000CF911F910F91FF90EF90DF90CF90BF900C
:101A0000AF900895C0910901C12ED12CCC0DDD2DD0
:101A1000D11DCE01880F991FC80FD91FC05CDB4FA5
:101A2000198218821A8234E0E32EF12CB12C8091B5
:101A300003028B0D86311CF16A2D0E94C332892F5F
:101A4000082E000C990BC816D90691F480913E041B
:101A50008E9DA0018F9D500D11245595479555954C
:101A600047959E0160913D0480913C040E94500A7C
:101A7000B00EF1E0EF1AF108D1F61F5FA6CF87FF95
:101A8000DFCF90910B01890FDBCF90E00196609141
:101A90000B0170E00E94E532A8CF0F931F93CF9304
:101AA000DF938091090190910A0123E0829FF00168
:101AB0001124E05CFB4F891740F1C0E0D3E0609156
:101AC0000B01C61740F10E94F30A20910501809195
:101AD0000202820F8093020290910601920F90936E
:101AE0000601191654F4082E000C990B40910B01B5
:101AF0004150550B841795071CF021952093050143
:101B0000DF91CF911F910F9108951182108212825F
:101B10008F5F3396D0CF0C2F10E070E0C8010E9489
:101B2000E53220910901820F482F50E020910202F6
:101B3000022E000C330B02171307BCF02091060194
:101B4000022E000C330B201731077CF08D9F900183
:101B50001124205C3B4F40913E0460913D048091F4
:101B60003C040E94500ACF5FAACFFA01EE0FFF1F7C
:101B7000E40FF51FE05CFB4F118210821282F3CF5D
:101B80008F929F92AF92BF92CF92DF92EF92FF928D
:101B90000F931F93CF93DF93EC014C81042F10E040
:101BA0009801D8010E9430339B01AC010E9446335A
:101BB0004B015C01E0E2F0E0E01BF10BA5E5B0E0D9
:101BC000AC019B010E9446336B017C019F01DF0148
:101BD0000E9428339B01AC010E9451339B01AC0150
:101BE000280D391D4A1D5B1DC701B6010E94F9323F
:101BF000F22E822F90E039E23F1560F143E0249FFE
:101C00009001112435952795122F109500E085E558
:101C1000E82EEF1880910B01081758F10E94F30A83
:101C20009C8181E0992319F0903219F48FEF809311
:101C3000040180910401890F8C83DF91CF911F9162
:101C40000F91FF90EF90DF90CF90BF90AF909F905B
:101C50008F90089525E530E0B901681B790B9B0151
:101C6000220F331F260F371F37FFCCCF2F5F3F4F79
:101C7000C9CF8E2D01FD8F2D20910901622F600F9C
:101C80007727771F9B01220F331F260F371F205CFA
:101C90003B4F412F60913D040E94500A0F5FBACF25
:101CA0000F931F93CF93DF93EC0110E000E090912E
:101CB0000B019017110609F06CF40E94F30A8C8155
:101CC00090E00196817099278C83DF91CF911F91CD
:101CD0000F91089520910901A801420F511D9A0109
:101CE000220F331F240F351F205C3B4F4C81609126
:101CF0003D0480913C0496959017110651F04CF0EC
:101D0000442349F040913E040E94500A0F5F1F4F48
:101D1000CECF4423B9F340E0F7CF8F929F92AF929A
:101D2000BF92CF92DF92EF92FF920F931F93CF93C8
:101D3000DF93FC01B280948081E0848300E015E0B1
:101D40005BE4A52E88248394EE24EA94F12C7BE4B2
:101D5000C72ED12C80910B01081770F0DF91CF9125
:101D60001F910F91FF90EF90DF90CF90BF90AF90B9
:101D70009F908F900C94F30AC02FD0E01C9FF0012D
:101D80001D9FF00D1124EC5FFD4F91101CC01382BC
:101D9000128220910901CE01820F911D9C01220F18
:101DA000331F280F391F205C3B4F1C9FF0011D9FE4
:101DB000F00D1124EC5FFD4F4281618180810E9412
:101DC000500A0F5FC7CF2381222379F1215023834B
:101DD00034818A2D821B311101C0822F1C9FF0019A
:101DE0001D9FF00D1124EC5FFD4F90913E04899FE3
:101DF000C0011124B6010E94D1326283211104C0B6
:101E0000332311F01482A38222E02B1510F21C9FC1
:101E1000F0011D9FF00D1124EC5FFD4F80913C04FB
:101E2000808380913D048183B4CF0E94C13382308E
:101E300091400CF0AECF82E08B1530F50E94C1339B
:101E4000B7010E94E5321C9FF0011D9FF00D112487
:101E5000EC5FFD4F808322E02B15C8F40E94C13354
:101E600020913D042695622F70E00E94E532280FF4
:101E70001C9FF0011D9FF00D1124EC5FFD4F21838D
:101E80001282A382848285CF80913C04DCCF209192
:101E90003D04EECFEBE3F4E080818E7F80836081B0
:101EA0007181828193810E94710A109275022FEFD5
:101EB00080E792E0215080409040E1F700C00000B0
:101EC0000C94F30AEBE3F4E080818E7F8083109220
:101ED00075022FEF80E792E0215080409040E1F7BB
:101EE00000C000000C94F30A60913B04669570E01A
:101EF0004BE050E08CE091E00E94D133892B19F443
:101F000081E0809375020E941C2690936E0280935C
:101F10006D02089590913B0490FF35C0917081113E
:101F200028C0926090933B04662351F060913B047B
:101F300070913C0480913D0490913E040E94710A8E
:101F400060913B04669570E04BE050E08CE091E0DE
:101F50000E94D133892BA1F01092750281E0809309
:101F6000700240913E0460913D0480913C040C94C9
:101F7000930C8B3210F09465D5CF880F982BD2CF6D
:101F80000E94740FEBCF0895682F90913B049695B3
:101F900081E0890F8B3208F081E00C948A0F81E098
:101FA0000C94C40F682F90913B0496958FEF890F86
:101FB00009F48AE20C948A0F81E00C94D20F61E05C
:101FC0000C948A0FEBE3F4E0808181608083869536
:101FD0000C94DF0F80913B0480FD0C944A0F0C940D
:101FE000E20F60E00C948A0F8091730281112EC081
:101FF0000E942224811104C00E94CF240E948D0AD5
:102000000E946D0A60933B0470933C0480933D04EE
:1020100090933E046E7F61F40E948D0A0E946D0AC7
:1020200060933B0470933C0480933D0490933E0482
:102030000E945E0A1092750280913B0480FF03C0EB
:1020400086950E94F10F81E0809373020895EBE37F
:10205000F4E080818160808386950C94F10F0F936A
:102060001F93CF93DF9380917502882309F49DC05D
:1020700080917402E0913B04E695E81BE0936F02C7
:102080008230C9F5F0E0E75BFB4FE491CE2FD0E062
:1020900008E41BE080917002882389F0109270029E
:1020A0000E941C269E0120953095820F931F9093CD
:1020B0006E0280936D0210927202109271028091F2
:1020C0006D0290916E020E9434268C179D0708F4D1
:1020D0006CC0E0916D02F0916E02CE0FDF1FD093C5
:1020E0006E02C0936D028DE692E0F801DF91CF9110
:1020F0001F910F910994863049F4F0E0EA5BFB4FA1
:10210000E491CE2FD0E00CE51BE0C4CF893051F430
:10211000E695F0E0ED5BFB4FE491CE2FD0E006E9D1
:102120001CE0B8CF8F3051F4E695F0E0E05CFB4F57
:10213000E491CE2FD0E003ED1CE0ACCF853149F423
:10214000F0E0E35CFB4FE491CE2FD0E00DE41DE026
:10215000A1CFC8E2D0E000EC1DE0883109F49ACFAD
:10216000833239F4EBE3F4E0C591D4910CE61BE043
:1021700091CFC4EFD1E000E51EE0843209F48ACFAC
:10218000C0EDD7E00DE41AE0853209F083CF8E2F41
:1021900063E00E94B732E92FF0E0E85CFB4FE49186
:1021A000CE2FD0E00DE81EE075CFDF91CF911F91CB
:1021B0000F910895FA01811101C0FB010994CF9399
:1021C000DF93C82FD62F0E949C0A8C1740F00E94E4
:1021D0009C0A8D1720F4DF91CF910C94CF0F8C2F98
:1021E000DF91CF910C94DF0F0F931F93CF938C014E
:1021F000FB01C281CC2309F465C00E946D23827269
:10220000F801E35CFC45E431F10538F4E95BFB4C93
:102210000C941B330E94EA0FC0E08C2FCF911F91CA
:102220000F9108954CED5FE06FEC7FE00E94DA10B3
:10223000F3CF4FEC5FE06CED7FE0F8CF44E55CE07E
:1022400067E47CE0F3CF47E45CE064E57CE0EECF5C
:1022500042E75CE063E67CE0E9CF43E65CE062E70E
:102260007CE0E4CF40E95CE061E87CE0DFCF41E87E
:102270005CE060E97CE0DACF4FEC5AE068EB7AE0B2
:10228000D5CF48EB5AE06FEC7AE0D0CF81E00E94E6
:10229000DF0FC2CF65E082E00E94DF10BDCF68E0B3
:1022A00086E0FACF6EE089E0F7CF64E18FE0F4CF0B
:1022B00067E185E1F1CF88E1EACF62E289E1ECCF25
:1022C00083E2E5CFC1E0A9CF80917F040C94542430
:1022D00080917F0486958695869508950E94222494
:1022E000811102C00E94CF240E94502480937F0459
:1022F000803220F08770886180937F0490917F0402
:10230000892F817090FF04C0892F869586958695C8
:102310000C94BD1280917F04982F96959695969572
:10232000933040F49F5F990F990F990F8770892B15
:1023300080937F0480917F04816080937F040E945A
:10234000542480917F048695869586950C94BD12C1
:1023500080917F04982F987F79F0885080937F0434
:10236000887F91E009F490E080917F0490FB80F9F0
:1023700080937F040E94542480917F0486958695E3
:1023800086950C94BD1280917F0480FD13C08160FE
:1023900080937F04813019F489E080937F048091D9
:1023A0007F040E94542480917F04869586958695AB
:1023B0000C94BD12089580917F0480FF08C08E7F29
:1023C00080937F040E94542480E00C94BD120895F1
:1023D00080917F0480FD0C94DB110C94C3119091CB
:1023E0007F04892F8695869586958F5F8F7197706C
:1023F0008430D8F4880F880F880F892B80937F044E
:1024000080917F04887F91E009F490E080917F04BF
:1024100090FB80F980937F040E94542480917F0474
:102420008695869586950C94BD1290937F04E8CF8F
:10243000843008F083E090917F049770282F220F5A
:10244000220F220F922B90937F04987F21E009F4B2
:1024500020E090917F0420FB90F990937F040C94EE
:10246000BD120E94181280917F040C9454249C0188
:10247000FB018281882349F12E3BFCE53F07C9F02F
:1024800040F42C3BECE53E0769F02D3B3C4579F0F0
:102490000895203C9CE5390791F070F0213C3C45C3
:1024A00089F0089583E00E94311280E0089580E071
:1024B000FACF0E94A811F9CF0E948A11F6CF0E948C
:1024C000E811F3CF0E94EF11F0CF81E00895859AD3
:1024D0008D9808958D9A08958D9808951F920F9262
:1024E0000FB60F9211242F933F934F935F936F93E7
:1024F0007F938F939F93AF93BF93EF93FF930E942C
:102500006C12FF91EF91BF91AF919F918F917F914D
:102510006F915F914F913F912F910F900FBE0F9050
:102520001F9018951F920F920FB60F9211242F93A0
:102530003F934F935F936F937F938F939F93AF934B
:10254000BF93EF93FF938091880090918900813031
:10255000914010F00E946A12FF91EF91BF91AF91EC
:102560009F918F917F916F915F914F913F912F91AB
:102570000F900FBE0F901F901895CF92DF92EF92A1
:10258000FF92CF93C82F843098F5811132C080918B
:10259000880090918900892B51F080916F008D7F88
:1025A00080936F0080916F008E7F80936F000E94F8
:1025B0006C122C2F30E0AFEFBFEF0E94303323E0DE
:1025C00030E040E050E00E94F932C9012C3764E16C
:1025D000360700F569E070E00E94D13270938900FF
:1025E00060938800CF91FF90EF90DF90CF90089597
:1025F000C3E08091880090918900892BD1F6809169
:102600006F00826080936F0080916F008160809383
:102610006F00CFCF2A50374D4F4F5F4F942F832FEE
:10262000722F662725EF38E241E050E00E94F93230
:1026300069017A01CA01B9010E94A7329B01AC016C
:10264000C701B6010E94A732672F782F892F9927DB
:102650006115710521E08207910509F0BFCF6FEF89
:102660007FEFBCCF08950E94671282E080938000C4
:1026700089E1809381008FEF9FEF90938700809393
:1026800086000C946E11579A4BB14F775BB150682E
:10269000EFB7F8949B01220F331F260F371F280F27
:1026A000391F2817390741F4EFBF8FE594E00197F0
:1026B000F1F700C000000895DC016D91CD0178E0D4
:1026C0005BB9000000C067FF4BB9660F000000C097
:1026D00000C000C04BB900C07A9591F7E2CF82E20A
:1026E00090E00E94DE33813289F483E290E00E9420
:1026F000DE33813059F484E290E00E94DE3391E0D1
:10270000843209F090E0892F8170089580E0FCCF39
:10271000CF93C82F6FEF811161E282E290E00E94B7
:10272000F2336FEFC11161E083E290E00E94F23377
:102730006FEFC11164E284E290E0CF910C94F23328
:1027400080E00E9488130C941C24089585E290E098
:102750000E94DE33682F70E090E080E0089585E20B
:1027600090E00C94F2330E94A5130E946F13811124
:102770000CC060E070E0CB010E94AF130E949F1577
:102780000E948B1681E00C9488130895CF93FB016F
:10279000C281CC2309F19C0122513F4520313105F2
:1027A00020F582510E949B16C0E08C2FCF91089596
:1027B00081E00E94E92143E062E081E00E940A0694
:1027C000F3CF81E00E940A2243E062E081E00E94B0
:1027D0000A06EBCF82E0F6CF8031FFE59F0789F351
:1027E00081319F45B9F3C1E0E0CF8031EFE59E072D
:1027F000F9F281319F45C9F682E0DBCF2FEFFC0172
:1028000020830895CF93DF93EC018881893029F0EC
:102810008A3079F0DF91CF9108950E9468112FEFEF
:10282000829FC001112463E070E00E94D13269836D
:10283000F1CF1982EFCFFC012081293061F4818131
:10284000F3E08F9FC00111246FEF70E00E94D1323E
:10285000862F0C9418120895CF93DF93EC01888192
:102860008138A9F028F4803871F0DF91CF91089574
:10287000823881F08338C9F70E94E70A89830E9471
:10288000EA0A8A83F2CF0E94ED0A8983EECF0E9482
:102890009C0AFBCF0E94D20AF8CFCF93DF93EC01C2
:1028A00088818138E1F028F4803869F0DF91CF9198
:1028B0000895823811F18338C9F70E94ED0A482F34
:1028C0006A81898108C0D9810E94EA0AC82F0E94C2
:1028D000E70A4D2F6C2FDF91CF910C94930C8981D7
:1028E0000E94F10F8981811104C0DF91CF910C9476
:1028F000620FDF91CF910C9427108981DF91CF91E6
:102900000C94E40ADF92EF92FF920F931F93CF9300
:10291000DF93EC01D62EDC01ED918D01E150E33126
:1029200008F0C9C0F0E0E55AFB4C0C941B33198247
:1029300089E08A836D2DCE01DF91CF911F910F9198
:10294000FF90EF90DF900C94DA2B8981823069F050
:10295000833071F08130D9F40E9428260E942133FF
:102960006A837B838C839D83E5CF0E94A613F6CF79
:102970007E0110E0812F0E949008F70192838383EB
:102980001F5FF2E0EF0EF11C1630A1F7D3CF6D2DD3
:10299000CE010E94FE13CECF89818230C1F76A81B9
:1029A0007B818C819D810E9421330E94AF13C2CF15
:1029B0004B816A8189810E94711598278927982700
:1029C0009D838C83B7CF2C813D81322723273227EB
:1029D0004B816A8189810E948A15ACCF0E949F1524
:1029E000A9CFCD010E941B14C8010E944D14A2CF93
:1029F000CD010E940214C8010E942C149BCF0E949A
:102A000064110E94830A96CF0E943416898392CF64
:102A10000E9436169827892798279A8389838ACF18
:102A20006B8170E089819A81AE014C5F5F4F98277E
:102A3000892798270E9439167DCF6B8170E08981A4
:102A40009A81AE014C5F5F4F9827892798270E9493
:102A5000601670CF0E948B166DCF0E945E15D6CF88
:102A60006B8170E089819A81AE014C5F5F4F98273E
:102A7000892798270E94D7155DCF6B8170E08981E7
:102A80009A81AE014C5F5F4F9827892798270E9453
:102A9000FD1550CF0E94A0134DCF0E94DA2B2FEFCF
:102AA00081EE94E0215080409040E1F700C00000AA
:102AB0000E9467263FCF8FEF88833CCF84E0089544
:102AC00090E2699FB001112450E0440F551F640F3C
:102AD000751F90EC899F600D711D1124CB018696A6
:102AE00008950F931F93CF93DF930E9460158C017D
:102AF0000E94DE33C82FD0E0DC2FCC27C80101961E
:102B00000E94DE339E01282BC901DF91CF911F91D6
:102B10000F9108950F931F93CF93DF93122F032FDD
:102B20000E946015EC01602F0E94F233612FCE01EC
:102B30000196DF91CF911F910F910C94F233AF92D8
:102B4000BF92CF92DF92EF92FF921F93CF93DF93CA
:102B500088E9C82E80E0D82ED0E07601C0E014C00D
:102B6000F50125913491412F6C2F8D2F0E948A15EC
:102B700082E0A80EB11C1F5F103191F780E2E80ED1
:102B8000F11CCF5FC63019F0570110E0E9CFDF5FCD
:102B900080ECC80ED11CD43001F7DF91CF911F918A
:102BA000FF90EF90DF90CF90BF90AF900895EF929D
:102BB000FF920F931F93CF93DF93EC018A017C0167
:102BC000E60EF71ECE018696CE15DF0539F4DF91AD
:102BD000CF911F910F91FF90EF900895C11523E0C1
:102BE000D20740F40E94DE33F80180830F5F1F4F4D
:102BF0002196E8CFF8011082F9CFCF92DF92EF92C1
:102C0000FF920F931F93CF93DF937C016A018C0196
:102C1000060F171FEC01CE018696C017D10749F4A5
:102C2000DF91CF911F910F91FF90EF90DF90CF90A8
:102C30000895C11523E0D20740F4FE01EE19FF0903
:102C4000EC0DFD1D60810E94F2332196E4CF462FEA
:102C5000843038F4763028F4603118F4672F0C94FF
:102C6000711590E080E0089580E108958AED94E088
:102C70000895EF92FF920F931F93CF93DF93EC0190
:102C80008A017C01E60EF71ECE018A5D9C4FCE15AF
:102C9000DF0539F4DF91CF911F910F91FF90EF90F5
:102CA0000895CA3D24E0D20740F40E94DE33F801C3
:102CB00080830F5F1F4F2196E7CFF8011082F9CF75
:102CC000CF92DF92EF92FF920F931F93CF93DF93F8
:102CD0007C016A018C01060F171FEC01CE018A5D91
:102CE0009C4FC017D10749F4DF91CF911F910F91ED
:102CF000FF90EF90DF90CF900895CA3D24E0D20777
:102D000040F4FE01EE19FF09EC0DFD1D60810E94EB
:102D1000F2332196E3CFCF93DF93C6E2D3E060E0B6
:102D2000CE010E94F2332196C11588E0D807B9F789
:102D3000DF91CF910895DF92EF92FF920F931F934F
:102D4000CF93DF9300D000D0CDB7DEB7F82E8FE061
:102D50008F1540F08FEF97E00E94DE3306E213E01C
:102D60008823C1F00F900F900F900F90DF91CF91BB
:102D70001F910F91FF90EF90DF900895011588E06B
:102D8000180781F3C8010E94DE33811101C0FA9453
:102D90000F5F1F4FF110F2CF19821A821B821C8223
:102DA000DD24D39478018FEFE81AF80AC8010E9455
:102DB000DE3389831A828823A9F29FEF980F93301C
:102DC00078F48A83D9820E5F1F4FC7010E94DE33D9
:102DD0008B83882339F2CE0101960E94B305E2CF9E
:102DE0008701F9CF0F931F93CF93DF93C42FD22F77
:102DF000FC0182818823C9F0409378020E941C263E
:102E0000909377028093760280E28C0F883008F0EE
:102E100050C0C77081E001C0880FCA95EAF7DF9102
:102E2000CF911F910F910C94731B10917802141382
:102E300035C080917602909177020E943426883CBA
:102E4000910560F5C0E2CD0F1D17B9F080E2810F4A
:102E5000883040F4177081E001C0880F1A95EAF7B6
:102E60000E947A1BC83048F481E09D2F977001C002
:102E7000880F9A95EAF70E94731B802F0E94601BAF
:102E8000C830B8F4D77081E001C0880FDA95EAF74E
:102E9000DF91CF911F910F910C947A1B80E28C0FE0
:102EA000883038F4C77081E001C0880FCA95EAF70E
:102EB000EFCFDF91CF911F910F9108950F939C0158
:102EC000CB01243F4CE5340759F1A8F4293DFCE53A
:102ED0003F0701F12A3D4CE53407D1F1283D3C453F
:102EE00091F406E221EE41EE68ED7CE50E94F216D7
:102EF00080E00F910895263FFCE53F07E9F0B0F030
:102F0000273F3C45F9F0FC018281882339F110927A
:102F10007802EFCF07E225EE45EE69ED7CE5E6CFDE
:102F200006E221EE40EE64EF7CE5E0CF07E225EE1D
:102F300044EE65EF7CE5DACF06E221EE42EE66EF85
:102F40007CE5D4CF07E225EE46EE67EF7CE5CECFF9
:102F500008E221E045EE6AED7CE5C8CF81E0C9CF0B
:102F6000CF93DF93EC01FB018281882309F419C11F
:102F7000C230FCE5DF07C0F1C6319CE5D90730F06F
:102F80009E012B5F3C452930310570F50E943524A8
:102F90009093850480938404C031ECE5DE0709F446
:102FA000CFC008F05BC0C8308CE5D80709F4B6C0C4
:102FB00088F5C430ECE5DE0709F4A8C0C0F4C230DF
:102FC0008CE5D80709F49CC0809184048260C330EA
:102FD000DC4509F498C080918404909185040E9496
:102FE00043240E94EF1D80E0DF91CF9108958091EE
:102FF00084048061C630ECE5DE0709F484C080916A
:1030000084048860C730DC4508F47DC08091840466
:10301000806279C0CC308CE5D80709F489C070F49F
:10302000809184048C60CA30ECE5DE0709F46BC043
:1030300008F478C0809184048E7F65C0CE308CE522
:10304000D80709F479C0809184048B7FCF30DC45A8
:1030500008F459C0809184048F7E55C0CC3FECE5C4
:10306000DE0709F457C030F5C3318CE5D80709F401
:103070006FC078F4C131ECE5DE0709F465C0C231F8
:10308000DC4509F0A8CF0E94EF1D809184048F7762
:103090003AC0C5318CE5D80709F462C008F476C09F
:1030A000809185048160CB3FDC4509F094CF80930B
:1030B000850491CFC115FDE5DF0709F44DC088F403
:1030C000809185048D7FCE3F9CE5D90781F3809167
:1030D00085048E7FCF3FDC4550F38091850483606B
:1030E000E6CFC230FDE5DF0709F459C008F444C05B
:1030F00080E0C330DD4509F06ECF0E94D1246BCF54
:103100008091840481608093840465CF80918404DD
:103110008460F9CF809185048260C9CF8091840456
:103120008064F1CF0E94EF1D809184048068EBCF12
:10313000809184048D7FE7CF80918404877FE3CFE3
:10314000809184048F7DDFCF809184048F7BDBCFDF
:1031500080918404837FD7CF809185048C7FA7CF13
:103160008091840482FB992790F921E0922790FBBB
:1031700082F990FB83F9C7CF80918504982F9095B1
:1031800091708E7F892B90FB81F991CF0E94EF1D6A
:1031900090918404892F97FB87F98058B4CF81E000
:1031A000ACCF81E021CFCF93DF93EB0186319C45FB
:1031B00011F50E946D239A81992399F08A7A91E002
:1031C00009F490E090937902811109C089E20E948C
:1031D00048230E94B92380E0DF91CF91089585E3D1
:1031E000F6CF80917902811104C089E20E944F23B9
:1031F000F0CF85E3FBCF81E0EFCF90937F02809308
:103200007E020895E0917E02F0917F02309721F0D6
:103210000190F081E02D099480E00895E0917E0214
:10322000F0917F02309799F020912B01222359F0E1
:103230002091840427FF07C0DC012C9111962C9368
:10324000119725E02C930280F381E02D09940895D5
:10325000E0917E02F0917F02309739F022E0DC01AC
:103260002C930480F581E02D0994089520917C022F
:1032700030917D022817390771F090937D02809379
:103280007C02E0917E02F0917F02309721F006806F
:10329000F781E02D0994089520917A0230917B0204
:1032A0002817390771F090937B0280937A02E0919E
:1032B0007E02F0917F02309721F00084F185E02DAD
:1032C0000994089585B7806885BF85B7806885BFF4
:1032D0000895089508950C94691908950C946D1932
:1032E0000E9462190E946A190C946B1981E008957A
:1032F0000C947619089508950E9413260E94B5082B
:103300000E94B3130E94A1260E946E110E94F40F26
:103310000C946E197F928F929F92AF92BF92CF9230
:10332000DF92EF92FF920F931F93CF93DF93CDB76E
:10333000DEB72A970FB6F894DEBF0FBECDBF0E944E
:103340007A190E947B190E94E5080E947819882347
:1033500009F475C041E8A42E42E0B42E10E000E06C
:10336000702E802F0E9490086C01F5018190919041
:103370005F018816990609F45CC080912F0381FDD6
:103380000E94990880E0EE24E394F12C8C249D2483
:1033900094012E213F21232B09F445C08E837F8287
:1033A000CE20DF2081E0CD2809F480E088870E94CC
:1033B0001C268160782F9A8789874E815F81688576
:1033C0008A850E94441A000F111FF801EF57FD4F24
:1033D00080819181E826F926F182E0820E942F10F7
:1033E0000E9432130E944C280E9402199091800280
:1033F0008917B1F10E940219809380022A960FB6B4
:10340000F894DEBF0FBECDBFDF91CF911F910F911A
:10341000FF90EF90DF90CF90BF90AF909F908F90F4
:103420007F900C948C068F5FEE0CFF1C803109F0AE
:10343000AFCF0F5F1F4F0630110509F091CF8FEF0F
:1034400089838A831B820E941C268160782F9D833A
:103450008C8349815A816B818D810E94441ABECF31
:103460002A960FB6F894DEBF0FBECDBFDF91CF9185
:103470001F910F91FF90EF90DF90CF90BF90AF9092
:103480009F908F907F900895CF93DF93CDB7DEB755
:103490002B970FB6F894DEBF0FBECDBF4F83588772
:1034A00069877A878B871E821D8285E0FE013796A9
:1034B000DE01119601900D928A95E1F749815A81BA
:1034C0006B817C818D819E812B960FB6F894DEBF37
:1034D0000FBECDBFDF91CF910C946520FC018081A0
:1034E00091810C941A23CF93C82F882309F490C09C
:1034F0008238C1F40E94021981FD8AC089E30E94CA
:1035000048230E94B9232FEF81EE94E021508040A0
:103510009040E1F700C0000089E30E944F23CF9163
:103520000C94B9238338A1F40E94021980FD70C065
:1035300083E50E9448230E94B9232FEF81EE94E097
:10354000215080409040E1F700C0000083E5E5CFC6
:103550008438A1F40E94021982FD5AC087E40E94B7
:1035600048230E94B9232FEF81EE94E02150804040
:103570009040E1F700C0000087E4CFCF8CEF8C0FC4
:10358000813AB8F48C2F0E94B32A811141C06C2F6C
:1035900080911701909118010E94EA24882329F054
:1035A0008C2F0E944F230E94B9238C2F0E94482306
:1035B000B6CF80E28C0F883048F4C77081E001C03C
:1035C000880FCA95EAF70E947023A9CFEBE5EC0FAC
:1035D000E33040F4F0E0EE51FE4F808190E0CF9177
:1035E0000C943619E8E5EC0FE73150F4F0E0EE0FFB
:1035F000FF1FEC54FE4F80819181CF910C944C19A8
:10360000C03F30F08C2F0E944627CF910C94312878
:10361000CF910895882309F452C0823871F40E9432
:10362000021981FF4CC089E30E9448230E94B923FC
:1036300089E30E944F230C94B923833859F40E94E4
:10364000021980FF3CC083E50E9448230E94B923F1
:1036500083E5EFCF843859F40E94021982FF2FC00E
:1036600087E40E9448230E94B92387E4E2CF9CEFBD
:10367000980F913AF0F290E2980F983050F48770DA
:1036800091E001C0990F8A95EAF7892F0E9476236D
:10369000D2CF9BE5980F933020F490E080E00C941B
:1036A000361998E5980F973120F490E080E00C945B
:1036B0004C19803F20F00E94AE270C9431280895C9
:1036C000CF93C82F0E94731AC93349F42FEF87EEA6
:1036D00093E0215080409040E1F700C000008C2F23
:1036E000CF910C940A1B882321F00E9470230C9424
:1036F000B9230895882321F00E9476230C94B923DE
:103700000895BF92CF92DF92EF92FF920F931F9393
:10371000CF93DF936C01D62FC72FFC010581029553
:103720000F70128111110E948D230E946623E82ED2
:10373000882391F01123D1F08C2F807F803421F0E9
:1037400080E28D0F883090F082E00E9404240E9475
:10375000662391E0E82EE926BC2EB2949FE0B922C0
:10376000EB2DF0E0E259FB4C0C941B33E12CF4CF31
:103770000C2F0F70C07F11F00295007F1123A9F06C
:10378000002359F080E28D0F883010F0D11109C06C
:10379000802F0E9470230E94B9238D2F0E94731ADC
:1037A00014C0802F0E948023F6CF8D2F0E940A1B09
:1037B000002359F080E28D0F883010F0D1112CC019
:1037C000802F0E9476230E94B9232B2D2850330B83
:1037D0002430310520F40E9402190E948C06EE204C
:1037E00009F49EC10E94622380FD9AC1F6011282F3
:1037F0000E945C230E94E921C6010E94B11D0E9423
:103800005C23DF91CF911F910F91FF90EF90DF909C
:10381000CF90BF900C940A22802F0E948623D3CF92
:10382000FC2FFF70FF2EC07FC03219F0F29480EFA2
:10383000F822DD2369F0D13049F1112391F1002301
:1038400051F1F601858180FFA8CF8F70858323C059
:10385000112381F0011106C00E94A0238F290E942C
:10386000731BB3CF0130C1F70E94A0238F290E94A0
:10387000A623ABCF011106C00E94AF238F2D0E945B
:103880007A1BA3CF013009F4A0CFF6CF112329F082
:10389000063008F09ACF8F2DE2CF053008F095CF93
:1038A000EDCF002359F3D93349F4FFEF27EE33E08E
:1038B000F15020403040E1F700C000008D2F0E9401
:1038C0000A1B83CF8C2F86958695837069F0813093
:1038D00009F07BCF8D2F9C2F9370111102C090E0C7
:1038E00080E00E944C1971CF8D2F9C2F9370111185
:1038F00002C090E080E00E94361967CF8D2F11231F
:1039000029F00E9446270E9431285FCF0E94AE27EF
:10391000FACF8C2F837009F041C0111156CF4D2F73
:10392000429546954770440F440F0D2F0F7010E0DD
:1039300030E020E0042E04C0000F111F221F331FAF
:103940000A94D2F760E070E0CB01D4FF0FC06FE0C3
:1039500070E080E090E004C0660F771F881F991F19
:103960004A95D2F76095709580959095C695C695C5
:10397000C370602B712B822B932BC23049F058F40B
:10398000C13019F00E949B2120CF0E9489211DCFB8
:103990000E94AD211ACF0E94872117CF869511234F
:1039A00011F08C2F8170882309F40FCF4D2F429591
:1039B00046954770440F440F0D2F0F7010E030E014
:1039C00020E0042E04C0000F111F221F331F0A9491
:1039D000D2F760E070E0CB01D4FF0FC06FE070E081
:1039E00080E090E004C0660F771F881F991F4A95FA
:1039F000D2F76095709580959095C695C695C370E1
:103A0000602B712B822B932BC23049F058F4C130BC
:103A100019F00E946022D9CE0E944E22D6CE0E947A
:103A20007222D3CE0E94C321D0CECF70112329F0B1
:103A30008C2F0E94E9218D2F12CF8D2F0E947A1B8F
:103A40008C2F0E940A22C1CED23F89F160F4D03F70
:103A5000C9F0D13F29F1112309F442C001119DCED3
:103A60008C2F8F7121C0D33F39F1D43FA1F711239F
:103A700069F1CF718C2F0E94E92163E08C2F0E94A5
:103A8000EF23A3CE112341F0053008F09ECE8C2FFA
:103A90008F710E942D2299CE063008F096CEF7CF76
:103AA0008C2F8F71112369F20E94E9218ECE8C2F09
:103AB0008F711123C9F3C5CF112329F08C2F8F717A
:103AC0000E94D42182CE0E94CF217FCE81E00E942D
:103AD0000424023008F479CE82E00E94042475CEDA
:103AE000002359F0D93309F0E9CE8FEF97EEE3E0E8
:103AF00081509040E040E1F7DFCE8C2F8F71A1CF55
:103B00004C2F4F706D2FC6010E9494060E94FF201B
:103B10005CCE4C2F4F706D2FC6010E94970655CE7C
:103B2000DF91CF911F910F91FF90EF90DF90CF9099
:103B3000BF9008950F931F93CF93DF93EC0168819B
:103B400079818A810E9424238C010E9484220E9410
:103B50008621B801CE01DF91CF911F910F910C9476
:103B6000811BCF93DF93EC018B819C81892B29F002
:103B70008881998189238F3F59F4DF91CF910895EE
:103B8000CE010E949A1DCE01DF91CF910C94F404D6
:103B9000CE010E943A068111F3CF0E94662388234A
:103BA00061F38A81882349F382E0DF91CF910C94FD
:103BB00004240E948D230E949D230E94B9230E9409
:103BC00058290E94312890E080E00E94361990E048
:103BD00080E00C944C190E9456230C94D91D0E942D
:103BE0007D230C94EB1DE92FE295EF70E250EE304F
:103BF00070F4F0E0E258FB4C0C941B33803F19F05A
:103C000020F4883E20F481E00895843FE1F380E0D1
:103C10000895883EC0F3813FD1F7F5CF93FB882705
:103C200080F908950E941A230C94F31DCF93DF931B
:103C300000D000D00F92CDB7DEB70F900F900F904D
:103C40000F900F90DF91CF910895CF93DF9300D025
:103C500000D000D0CDB7DEB726960FB6F894DEBF01
:103C60000FBECDBFDF91CF9108951F93CF93DF9308
:103C7000C0918E0216E080918F028C1304C0DF91F8
:103C8000CF911F910895D0E01C9FF0011D9FF00D72
:103C90001124E057FD4F40815181628173818481FD
:103CA00095810E94251E2196C770E5CF4091C002E4
:103CB0005091C1026091C2027091C3028091C4020E
:103CC0009091C5020C94251E1F93CF93DF93809192
:103CD000C502807FA9F48091C202882389F0809177
:103CE0008E02C0918F026091C0027091C102A091BA
:103CF000C302B091C402D62FD72316E0C81304C064
:103D0000DF91CF911F91089590E0109711F0DF3F60
:103D100019F401968770F2CF189F9001199F300D0A
:103D20001124F901E057FD4F41814713F2CF408143
:103D30004613EFCF42814111ECCF438154814A1B9E
:103D40005B0B483C510528F78091C5028F7080615C
:103D50008093C502F901EB56FD4F80818F70806121
:103D6000808380EC92E00E94B11DDF91CF911F9182
:103D70000C94351EAF92BF92CF92DF92EF92FF92DA
:103D80000F931F93CF93DF93CDB7DEB761970FB635
:103D9000F894DEBF0FBECDBF8C0185E0F801DE01D7
:103DA0001D9601900D928A95E1F7F80140815181AD
:103DB000E28080ECC82E82E0D82E6091C302709120
:103DC000C4026115710509F461C19091C00220918E
:103DD000C102892F82238F3F09F458C1A380B48088
:103DE000F090C202F501E61BF70BFF2009F4FCC0BE
:103DF0008091C502382F307FE83CF10508F0B2C051
:103E0000311179C0FE2C251323C0941321C0E11079
:103E10001FC08F7080618093C5020E94561EC6012C
:103E20000E94B11D8091C502F80185838F2D619696
:103E30000FB6F894DEBF0FBECDBFDF91CF911F91BB
:103E40000F91FF90EF90DF90CF90BF90AF900895CB
:103E5000AB2829F0842F85238F3F09F033C180E000
:103E6000F82FF170DF2E80FF3CC080918E022091F0
:103E70008F0236E0821315C04D875E878D859E8543
:103E80000E941A23292F22952F702230F0F024301F
:103E900018F59F70F1F0F8019581907FD1F4D12C45
:103EA0001EC090E0389FF001399FF00D1124E057BB
:103EB000FD4F6181651306C06081641303C0628198
:103EC0006E110FC001968770D5CF9F7011F08823B7
:103ED00031F3805E883018F3C8010E94B11DFD2CBB
:103EE000A5CFEE2009F4A2CF8091C5028160809316
:103EF000C502F12C9BCF251306C0941304C0F80112
:103F0000EE2009F48DC04D875E878D859E850E94C9
:103F1000121E882319F1EE2009F18091C50280322A
:103F200070F02091C0023091C10238872F8319862A
:103F3000BB86AA868C87CE0107960E94B11D86E0BB
:103F4000F801A0ECB2E001900D928A95E1F70E9491
:103F5000641E0E94561EFF24F39468CFC8010E947D
:103F6000B11DF9CF311113C07A2DB98AA88A6E2DEF
:103F700089890E94161E80EC92E00E94B11D86E0A5
:103F8000F60111928A95E9F70E94561EB2CF2513C9
:103F90000FC094130DC0E1100BC0F8018583C80158
:103FA0000E94B11D86E0F60111928A95E9F73ECF95
:103FB0004D875E878D859E850E94121E882371F233
:103FC000EE2061F28091C502803208F4B8CF2091D2
:103FD000C0023091C1023A8329831B82BD82AC8228
:103FE0008E83CE010196A9CFE83CF10508F041C0CF
:103FF000FE2CEE2009F4B2CF25132AC0941328C05A
:104000008091C50280FD1BC0982F907FC1F0F80100
:104010008583903F31F0982F907F905F8F70892B30
:104020008583C8010E94B11D86E0F801A0ECB2E0D2
:1040300001900D928A95E1F70E94561EF7CE86E018
:10404000F801A0ECB2E001900D928A95E1F7EECE76
:104050004D875E878D859E850E94121E81116FCFD0
:104060008091C50281608093C502C8010E94B11D84
:10407000DDCE7A2DB98AA88A6E2D89890E94161EF6
:1040800086E0F60111928A95E9F7D6CFEE2009F481
:1040900065CF4D875E878D859E850E94121EF82E06
:1040A000882309F45BCF86E0F801A0ECB2E0019030
:1040B0000D928A95E1F780EC92E00E946E1A0E94C0
:1040C000641EBACF81E08E25CBCE1F93CF93DF93B2
:1040D000CDB7DEB72C970FB6F894DEBF0FBECDBFBD
:1040E0004F83588769877A878B879C87CE0107968D
:1040F0000E94BA1E882369F08A859B85892B39F036
:104100004F815885842F85238F3F09F071C016E0B9
:104110005FC086E0FE013796DE01119601900D9298
:104120008A95E1F78A859B85892B89F388859F810C
:1041300089238F3F61F320918F0230E0C9010196FE
:104140008770992740918E024817190671F40E94D2
:10415000EF1D10928F0210928E0286E0E0ECF2E0EA
:10416000DF011D928A95E9F7D2CF96E0929FD001A8
:10417000939FB00D1124A057BD4FFE0131960190C1
:104180000D929A95E1F780938F020E94351EBFCF62
:10419000819FC001112480579D4F0E94BA1E882321
:1041A000E9F0E0918E021E9FF0011124E057FD4FCF
:1041B0004081518162817381848195810E94251E95
:1041C00080918E0290E001968770992780938E02ED
:1041D00080918E0290918F028913DACF2C960FB6C0
:1041E000F894DEBF0FBECDBFDF91CF911F91089530
:1041F00069857A858B859C850E94251E88CFEF92E4
:10420000FF920F931F93CF93DF938C01892B81F043
:10421000F12CEE24E394E8012196F801849184378F
:1042200070F4843008F05FC08130B1F08230A1F1C9
:10423000DF91CF911F910F91FF90EF9008958537F7
:1042400009F44CC008F43DC09CE7980F903780F704
:104250008F770E940A1B49C00E5F1F4FFE01849199
:1042600090E2980F983060F48770FE2D01C0FF0F28
:104270008A95EAF78F2F0E9490230E94B92302C0EB
:104280000E94731A8F2D815030F2EFE9FFE03197D1
:10429000F1F700C00000F7CF0E5F1F4FFE018491C1
:1042A00090E2980F983050F48770FE2D01C0FF0FF8
:1042B0008A95EAF78F2F0E949623DFCF0E940A1B70
:1042C000E1CF0E5F1F4FFE01C491C150D8F28FE9BC
:1042D0009FE00197F1F700C00000F7CF0E5F1F4F7E
:1042E000FE01F490CFCF0E94731A8E01CBCF0895B8
:1042F0000C9477210E947821609306037093070342
:1043000080930803909309030C94D91D08950C948D
:104310007A210F931F9300910603109107032091B8
:10432000080330910903602B712B822B932B1F9173
:104330000F910C947A210F931F9300910603109113
:10434000070320910803309109036023712382231E
:1043500093231F910F910C947A210F931F93009137
:104360000603109107032091080330910903602789
:104370007127822793271F910F910C947A210C9417
:1043800077210C94BF210E94C12160930203709396
:10439000030380930403909305030C94D91D60E0FC
:1043A00070E0CB010C94C3210F931F9341E050E0C8
:1043B00060E070E08A019B0104C0000F111F221F02
:1043C000331F8A95D2F7C901B8011F910F910C9440
:1043D000C3210F931F9341E050E060E070E004C000
:1043E000440F551F661F771F8A95D2F780910203ED
:1043F00090910303A0910403B09105038A019B01EE
:10440000082B192B2A2B3B2BC901B8011F910F91A7
:104410000C94C3210F931F9341E050E060E070E0E3
:1044200004C0440F551F661F771F8A95D2F7CB0132
:10443000BA01609570958095909500910203109156
:104440000303209104033091050360237123822329
:1044500093231F910F910C94C3210F931F9341E05D
:1044600050E060E070E004C0440F551F661F771FE6
:104470008A95D2F78091020390910303A0910403DF
:10448000B09105038A019B01082719272A273B279A
:10449000C901B8011F910F910C94C3210F931F9371
:1044A000009102031091030320910403309105034E
:1044B000602B712B822B932B1F910F910C94C32196
:1044C0000F931F93009102031091030320910403A3
:1044D0003091050360237123822393231F910F9151
:1044E0000C94C3210F931F930091020310910303B7
:1044F00020910403309105036027712782279327B9
:104500001F910F910C94C32108959295907F890F6C
:10451000982F977041E001C0440F9A95EAF786956D
:104520008695869595E0899FF0011124EA53FD4F09
:1045300030E020E070E05191DF011197CB01022EB5
:1045400002C0969587950A94E2F781708195852738
:10455000842385278C932F5F3F4F2530310559F7F2
:1045600008959295907F890F982F977086958695DC
:10457000869525E0829FF0011124EA53FD4F50E01B
:1045800040E080E0219130E0092E02C03695279569
:104590000A94E2F721703327042E01C0220F0A94F7
:1045A000EAF7822B4F5F5F4F4530510559F7089569
:1045B000BF92CF92DF92EF92FF920F931F93CF9310
:1045C000DF938C01C0900203D0900303E0900403BA
:1045D000F09005038091060390910703A0910803D2
:1045E000B0910903C82AD92AEA2AFB2ACFE1D0E0F0
:1045F000BC2ED701C6010C2E04C0B695A795979581
:1046000087950A94D2F780FD0EC0219788F7B12CC8
:104610008B2DDF91CF911F910F91FF90EF90DF9045
:10462000CF90BF900895B8018C2F0E94A0060197EB
:1046300061F3EECFCF93DF93EC010E94D822BE014D
:10464000DF91CF910C94A0061F93CF93DF93EB01E2
:1046500090918D02992331F0CB01DF91CF911F9181
:104660000C941A23882379F0CB010E94D822182FAA
:10467000682FCE010E948522BE01812FDF91CF914C
:104680001F910C94A006CB010E94B122182FF4CFE9
:10469000682F80911701909118010C946A25682F5A
:1046A00080911701909118010C9475258091170144
:1046B000909118010C94802580910A038595859529
:1046C0008595089580910A038770089590910A0353
:1046D000977081E009F480E0089580912E03089599
:1046E00090912E03892B80932E03089580959091AD
:1046F0002E03982390932E03089510922E0308956D
:1047000090912D03892B80932D030895809590918E
:104710002D03982390932D03089510922D0308954F
:1047200090912C03892B80932C0308958095909170
:104730002C03982390932C03089510922C03089532
:1047400080910B03089508950C94A32390910B037B
:10475000981721F080930B030C94A4230895809163
:104760000B03882329F010920B0380E00C94A42300
:104770000895E0911701F091180180912E03808334
:10478000E0911701F0911801808190912D03892B00
:104790008083E0911701F0911801808190912C03A2
:1047A000892B808390910B03992381F0E09117016D
:1047B000F09118018081892B80838091170190915D
:1047C00018010E94D62481110E94AF238091170105
:1047D000909118010C940E1908950C94EC2398E014
:1047E000899F90011124622B60930A030E94E921A2
:1047F00080910A038595859585950C94ED231092FB
:104800000A0380E00C94ED2390910A03809589239C
:1048100080930A03282F277071F4282F082E000C8C
:10482000330B9217130639F08595859585950E946F
:104830000A220C94FF2308956FEF7FEF90E080E051
:104840000C94103490E080E00E94EC3321E08C3E28
:104850009E4F09F020E0822F089582E090E00C94B2
:10486000DE3383E090E00C94DE33CF9384E090E07D
:104870000E94DE33C82F81E290E00E94DE33982F41
:104880008C2FCF910895CF93C92F682F84E090E0AB
:104890000E94F2336C2F81E290E0CF910C94F233BE
:1048A00086E090E00C94DE33682F86E090E00C9474
:1048B000F233AB01BC018FE090E00C940434AB0107
:1048C000BC0183E190E00C94043460E070E0CB0123
:1048D0000C945F2460E070E0CB010E9459240C949A
:1048E00065246CEE7EEF90E080E00E94103460E082
:1048F00082E090E00E94F23360E083E090E00E946A
:10490000F2331092060310920703109208031092DC
:10491000090360E084E090E00E94F23360E081E20D
:1049200090E00E94F23360E085E090E00E94F23374
:1049300060E086E090E00E94F2336FEF87E090E065
:104940000E94F23340E050E0BA0188E090E00E941B
:10495000043460E08DE090E00E94F23340E050E0EB
:10496000BA0188E190E00E94043460E087E190E0C1
:104970000E94F23340E050E0BA018CE190E00E94E6
:10498000043460E080E290E00E94F23340E050E0C6
:10499000BA0188E190E00E9404340C946A240C94DB
:1049A0007124682F8EE090E00C94F233FC01329673
:1049B00080912B01882321F0809184049EE187FF60
:1049C00096E080E0915008F4089521912223D1F3DC
:1049D0008F5FF8CF662301F120912B012223F1F0A4
:1049E0002091840427FF1AC0462F46954695469588
:1049F0004E3190F4677021E030E002C0220F331F87
:104A00006A95E2F7840F911DFC01828190E02823D2
:104A1000392381E0232B69F480E00895FC0132966C
:104A200008962191261721F0E817F907D1F7F4CF5E
:104A300081E008959C01FC0132969FEF80E0419156
:104A4000461751F09F3F19F4411101C0982F8F5F15
:104A50008630A9F79F3F09F40895290F311D97FD6E
:104A60003A95F90162830895FC01329608962191E6
:104A7000261303C0DF0111971C92E817F907B9F755
:104A80000895E62FE695E695E695EE3168F4E80F91
:104A9000F92FF11D677021E030E001C0220F6A9507
:104AA000EAF78281822B82830895E62FE695E695C8
:104AB000E695EE3170F4E80FF92FF11D677021E0F3
:104AC00030E001C0220F6A95EAF720958281282301
:104AD0002283089520912B01222329F02091840420
:104AE00027FD0C9441250C941A2520912B0122239B
:104AF00029F02091840427FD0C9455250C9434252D
:104B0000FC01329680912B01882351F0809184041E
:104B100087FF06C08EE1DF011D928A95E9F70895AF
:104B200086E0F9CF089508950C9493250E9494256A
:104B300080918A04843061F11092300388E190E022
:104B400020E40FB6F894A895809360000FBE2093E0
:104B5000600080E00E94BD1280E00E948C060E94EE
:104B6000942583B7817F846083BF83B7816083BFCF
:104B70007894889583B78E7F83BF0FB6F894A895F5
:104B800080916000886180936000109260000FBE89
:104B900008950895CF930E9492250E94E5080E94EF
:104BA000C925C0E08C2F0E949008892B31F4CF5F7B
:104BB000C630C1F780E0CF91089581E0FCCF089521
:104BC0000C94DF250E94EF1D0E946E110E940219B5
:104BD0000E948C060C94E0251F921FB61F92112490
:104BE0008F939F93AF93BF9380913003811113C034
:104BF0008091800490918104A0918204B0918304FB
:104C00004196A11DB11D8093800490938104A093CF
:104C10008204B0938304BF91AF919F918F911F90B5
:104C20001FBE1F90189582E084BD93E095BD9AEF5A
:104C300097BD80936E0008952FB7F89480918004FB
:104C400090918104A0918204B09183042FBF0895B4
:104C50002FB7F89460918004709181048091820450
:104C6000909183042FBF08959C014FB7F8948091D1
:104C7000800490918104A0918204B09183044FBF7D
:104C8000821B930B089578941F921FB61F921124D4
:104C90008F939F93AF93BF938091800490918104F1
:104CA000A0918204B09183040196A11DB11D80934F
:104CB000800490938104A0938204B0938304BF91F5
:104CC000AF919F918F911F901FBE1F90189581E00B
:104CD0008093E00080E28093D8001092C9008FE1B9
:104CE0009EE40197F1F700C0000087E090EBDC0143
:104CF0008093930490939404A0939504B0939604A6
:104D000088E19CE00FB6F894A895809360000FBEF0
:104D100090936000FFCF0C94A0130E94E5088FE3EE
:104D20009CE90197F1F700C000000E94E50880E0CF
:104D30000E94900880FF04C00E948B260C94672676
:104D400008950E942224811102C00E94CF240E9453
:104D50002D2480932F030E94352490938504809303
:104D600084040E943124682F70E090E080E00E946B
:104D70008721609102037091030380910403909155
:104D800005030C94C1218091370380FF12C060910C
:104D90001E0185E0689FB001112475956795759592
:104DA000679560387105A8F561157105A1F1862F29
:104DB000089581FF09C060911E0185E0689FB001E0
:104DC000112475956795EDCF60911E0182FD0AC093
:104DD000809136038823D1F090911D0160911E01CE
:104DE000891728F085E0689FB0011124DACF869FEB
:104DF000B001112485E0869F9001879F300D11241A
:104E0000692F70E0C9010E94E532CBCF65E070E008
:104E1000CECF8FE7089581E008958091370380FF1A
:104E20000CC060911A0170E075956795759567954E
:104E30006115710549F1862F089581FF06C06091C3
:104E40001A0170E075956795F3CF60911A0182FDA4
:104E50000BC0909135039923A1F0609119018091C5
:104E60001A01961738F0682F70E06038710500F36A
:104E70008FE70895899FC001112470E00E94E532F8
:104E8000F4CF61E070E0D7CF81E00895803F31F446
:104E90000E94C326819580933B030895813F19F4B6
:104EA0000E94C326F8CF823F31F40E94C326819529
:104EB00080933A030895833F19F40E94C326F8CFE4
:104EC000893F29F40E940D2780933C0308958A3F6F
:104ED00021F40E940D278195F7CF8B3F31F40E947A
:104EE0000D27819580933D0308958C3F19F40E940E
:104EF0000D27F8CF843F31F480913903816080938E
:104F000039030895853F21F4809139038260F7CFFA
:104F1000863F21F4809139038460F1CF873F21F4EB
:104F2000809139038860EBCF883F21F48091390369
:104F30008061E5CF8D3F31F48091370381608093AC
:104F4000370308958E3F21F4809137038260F7CFB5
:104F50008F3FB9F7809137038460F1CF90913A0386
:104F6000803F59F480913B0387FF0DC010923B03B3
:104F700091110BC01092360308C0813F81F48091DB
:104F80003B0318169CF3992381F080913C03909188
:104F90003D03892B09F064C0109235030895823FC8
:104FA00049F497FFF0CF10923A0380913B038111AF
:104FB000ECCFE0CF833F19F41916ACF3E4CF209186
:104FC0003C03893F29F41216F4F610923C03DBCF20
:104FD0008A3F19F427FFD7CFF8CF20913D038B3FAD
:104FE00029F427FFD0CF10923D03CDCF8C3F19F489
:104FF0001216CCF3C8CF843F31F4809139038E7FF1
:1050000080933903C0CF853F21F4809139038D7F90
:10501000F7CF863F21F4809139038B7FF1CF873F13
:1050200021F480913903877FEBCF883F21F4809171
:1050300039038F7EE5CF8D3F31F4809137038E7F2A
:1050400080933703A0CF8E3F21F4809137038D7F6B
:10505000F7CF8F3F09F097CF809137038B7FF0CF49
:1050600008950E941C269C0190913A0380913B0375
:10507000982B21F0309334032093330390913C0319
:1050800080913D03982B21F030933203209331031C
:1050900088E393E00C942819EF92FF920F931F93EB
:1050A000CF93DF9300D000D000D0CDB7DEB786E03D
:1050B000E8E3F3E0DE01119601900D928A95E1F7A5
:1050C000E0903A03F0903B0300913C0310913D03C4
:1050D00010923A0310923B0310923C0310923D034E
:1050E0008E2D8F2991F080913303909134030E948B
:1050F0003426AC0190913603992309F43FC0809186
:105100001F018417150608F447C0802F812B91F0EA
:1051100080913103909132030E943426AC0190912A
:105120003503992309F477C080911B018417150674
:1051300008F47FC080913A0390913B03892B9091B2
:105140003C03892B90913D03892B11F00E9431285B
:1051500086E0FE013196A8E3B3E001900D928A95B6
:10516000E1F726960FB6F894DEBF0FBECDBFDF91F4
:10517000CF911F910F91FF90EF9008952091200102
:105180008AE0289F900111242417350708F0BDCF2D
:105190009F5F9093360302C09F3FD1F7EE2059F0F6
:1051A0000E94C3269FEF1E140CF491E0899F802D6E
:1051B000112480933A03FF2059F00E94C3269FEFE9
:1051C0001F140CF491E0899F802D112480933B03E0
:1051D00030913A03332309F498CF20913B032223E3
:1051E00009F493CF45EB3403C0011124992359F0FE
:1051F00090933A0345EB240390011124332339F0B3
:1052000030933B0382CF81E080933A03F3CF81E078
:1052100080933B037ACF20911C018AE0289F900164
:1052200011242417350708F085CF9F5F909335032D
:1052300002C09F3FD1F7002359F00E940D279FEF36
:1052400010160CF491E0899F802D112480933C036B
:10525000112359F00E940D279FEF11160CF491E0D5
:10526000899F802D112480933D0330913C0333238B
:1052700009F460CF20913D03222309F45BCF45EB75
:105280003403C0011124992359F090933C0345EB5A
:10529000240390011124332339F030933D034ACF86
:1052A00081E080933C03F3CF81E080933D0342CFC4
:1052B00086E0E8E3F3E0DF011D928A95E9F71092BA
:1052C000360310923503109237030895833081F12D
:1052D00028F4813059F08230D1F00895853009F4F6
:1052E00049C0B8F1863009F456C008958091200174
:1052F000482F460F5527551F4F3F510524F4680F7F
:105300006093200108958FEF80932001089580918C
:105310001F01482F460F5527551F4F3F510524F4B5
:10532000680F60931F0108958FEF80931F01089508
:1053300080911E01482F460F5527551F4F3F51059D
:1053400024F4680F60931E0108958FEF80931E016F
:10535000089580911D01482F460F5527551F4F3F37
:10536000510524F4680F60931D0108958FEF809319
:105370001D01089580911A01482F460F5527551F8A
:105380004F3F510524F4680F60931A0108958FEF81
:1053900080931A01089580911901482F460F5527CF
:1053A000551F4F3F510524F4680F6093190108956C
:1053B0008FEF809319010895833011F128F4813023
:1053C00049F0823091F00895853081F120F18630E6
:1053D000C1F1089580912001681720F4861B809305
:1053E0002001089510922001089580911F016817EF
:1053F00020F4861B80931F01089510921F010895C9
:1054000080911E01681720F4861B80931E01089569
:1054100010921E01089580911D01681720F4861BCB
:1054200080931D01089510921D01089580911A0125
:10543000681720F4861B80931A01089510921A01B0
:10544000089580911901681720F4861B8093190133
:1054500008951092190108950F931F9341E050E0B1
:1054600060E070E08A019B0104C0000F111F221F41
:10547000331F8A95D2F7C901B8010E9487211F9175
:105480000F910C94EF1DEBEFE80FEF3308F05AC0CB
:10549000F0E0E457FB4C0C941B330E94CF2481E0D6
:1054A000089580912F03807F80932F0381E0809364
:1054B0003F0308950E942B06F2CF90912F03892F6E
:1054C0008E7F90FF816080932F0380FDE8CF817FE6
:1054D00080932F03E4CF90912F03892F8D7F91FF2D
:1054E000826080932F0381FFDACF80912F03816048
:1054F000EFCF90912F03892F8B7F92FF8460809351
:105500002F0382FDF2CFCBCF90912F03892F877F7E
:1055100093FF886080932F0383FDE7CFC0CF0E9465
:10552000EF1D90918404892F97FB87F98058809311
:105530008404B5CF80E00E942C2AB1CF8953FBCFE1
:105540008D51F9CF80E0089580E008950C94A42A4D
:105550008E518A3030F4E82FF0E0EB51FE4F80811D
:10556000089580E00895CF93C82F80913F03813044
:10557000B9F0882331F08230A1F110923F0380E02E
:105580000DC00E946D238232D1F78C2F0E94A42A75
:1055900081111BC08C2F0E94432A8170CF910895E6
:1055A0000E946D23823289F38C2F0E94A62A8111DA
:1055B0000AC0C43199F060F4CB3029F0C03169F7EA
:1055C00082E080933F0381E0E8CF81E090E0E5CF87
:1055D000C93221F0C833B9F380E0DFCF10923F0326
:1055E000FBCFC93219F188F4C43101F120F4C7307E
:1055F00081F181E0D3CF82EE8C0F8630D0F78C2FF3
:105600000E94A82A80933E03F4CFCE3401F140F4E7
:105610006AE0CB3471F780913E030E946629E9CF9E
:10562000C13579F061E0C235B1F3E3CF80913E033B
:10563000882319F010923E03DCCF81E080933F0372
:10564000ADCF61E080913E030E94DC29D2CF6AE0B9
:10565000F9CF8EE18093200182E380931F018AE0DD
:1056600080931E0184E180931D0188E080931A01DC
:1056700088E280931901BDCF809160030895CF9394
:10568000DF9300D00F92CDB7DEB790918A049430AB
:1056900011F589837B836A839093E9008FEF909162
:1056A000E800815095FD06C095ED9A95F1F7000050
:1056B0008111F5CF8091E80085FF0DC050E040E0FA
:1056C00063E070E0CE0101960E94C62D8091E80053
:1056D0008E778093E8000F900F900F90DF91CF911D
:1056E0000895BC0184E00C943F2BBC0183E00C9432
:1056F0003F2B9C0184E08093E9009FEF8091E800BC
:10570000915085FD06C085ED8A95F1F70000911155
:10571000F5CF8091E80085FF0CC050E040E066E0E6
:1057200070E0C9010E94C62D8091E8008E778093B9
:10573000E8000895CF93DF93EC0180912B0188233B
:10574000B1F18091840487FF32C060E284E08093ED
:10575000E9008FEF9091E800815095FD06C095ED2E
:105760009A95F1F700008111F5CF8091E80085FF4F
:105770001BC080912B0170E050E040E0811104C01B
:1057800050E040E068E070E0CE010E94C62D8091BC
:10579000E8008E778093E80080E2FE01A0E4B3E0A9
:1057A00001900D928A95E1F7DF91CF91089568E01D
:1057B00081E0CDCFCF93FC01603221F580918A0446
:1057C000843001F5C091E900CF702091EC00922F58
:1057D000917020FD90E8C92B82E08093E9008091D0
:1057E000E80080FF0CC050E040E060E270E0CF01D4
:1057F0000E94C62D8091E8008E778093E800CF70DC
:10580000C093E900CF91089580918904811109C066
:105810000E94A32F0E9405308091E2008460809353
:10582000E2000895109289040895089508950C9453
:10583000E22542E061EC81E00E941F2F42E261EC30
:1058400084E00E941F2F42E261EC82E00E941F2F41
:1058500042E260EC83E00C941F2F80918C04833033
:1058600009F461C030F48130D1F1823009F49DC077
:1058700008958A3009F489C08B3009F46FC08930EB
:1058800009F050C080918B04813209F04BC08091A7
:105890008F0490919004009719F0029709F042C08C
:1058A0008091E800877F8093E8008091E80082FF84
:1058B00035C08091F2009091F300029729F4809115
:1058C000F1008B7F813021F48091F100809360039F
:1058D0008091E8008B778093E8000C94532F80919F
:1058E0008B04813AF9F48091E800877F8093E80087
:1058F00080918F0490919004892B61F460E280E4A0
:1059000093E070E00E94642E8091E8008B77809392
:10591000E800089560E090E080E0F3CF80918A0491
:105920008111C3CF089580918B04813AD9F780917A
:105930008F0490919004892BA9F78091E800877FCC
:105940008093E8008091E80080FFFCCF80912B01DC
:105950008093F1008091E8008E77BDCF80918B0419
:10596000813201F780918F0490919004892BD1F6B8
:105970008091E800877F8093E8000E94532F8091F8
:105980008D0480932B010C94EF1D80918B04813248
:1059900049F68091E800877F8093E8000E94532FAA
:1059A00080918E0480936103089580918B04813AE5
:1059B00009F0B8CF8091E800877F8093E80080915C
:1059C000E80080FFFCCF80916103C2CFCDB7DEB786
:1059D000A0970FB6F894DEBF0FBECDBF84B7877F08
:1059E00084BF0FB6F894A895809160008861809379
:1059F0006000109260000FBE80E890E00FB6F8944F
:105A000080936100909361000FBE0E9470190E9404
:105A1000A32F0E9405308091E20084608093E20011
:105A200078940E948C320E947C1981E291E00E945D
:105A3000FD1813E080918A04853059F00E948A197C
:105A400080918A04843091F00E947A190E947B1917
:105A5000F1CF0E94962580918804882359F30E94F3
:105A6000CA25882339F30E94B02DE4CF1093E900B2
:105A70008091E80082FFE8CF8091E80090E085FF08
:105A800009C050E040E060E270E0CE0101960E9463
:105A9000152E91E08091E8008B778093E8009923A0
:105AA00099F260E2CE0101960E948214CDCF0C944F
:105AB000592D292F33272330310521F168F4213066
:105AC000310509F443C02230310509F444C090E0A7
:105AD00080E030E020E026C02132310551F1223251
