:100000000C94670A0C94AE0A0C94AE0A0C94AE0AD7
:100010000C94AE0A0C94AE0A0C94AE0A0C94AE0A80
:100020000C94AE0A0C94AE0A0C94B6380C948A392F
:100030000C94162F0C94AE0A0C94AE0A0C94AE0AD3
:100040000C94AE0A0C94AE0A0C94AE0A0C94AE0A50
:100050000C94AE0A0C94892F0C94AE0A0C94AE0A40
:100060000C94AE0A0C94AE0A0C94AE0A0C94AE0A30
:100070000C94AE0A0C94AE0A0C94AE0A0C94AE0A20
:100080000C94AE0A0C94AE0A0C94AE0A0C94AE0A10
:100090000C94AE0A0C94AE0A01140214011A021A4E
:1000A00001080208011502150117021700011E02BE
:1000B0001E011F021F012001210220012202210234
:1000C000220029003A003B003C003D003E003F007A
:1000D0004000410042004300440045004600470004
:1000E0004800000000000000000035001E001F0056
:1000F00020002100220023002400250026002700E4
:100100002D002E0049004A004B00000000000000B6
:1001100000002B0014001A000800150017001C0036
:1001200018000C00120013002F0030004C004D008E
:100130004E0000000000000000003900040016001E
:10014000070009000A000B000D000E000F0033002D
:10015000340028002A000000000000000000000019
:100160000000E10000001D001B0006001900050052
:1001700011001000360037003800E5003100520051
:10018000E4000000000000000000E000E300E200E6
:100190000000000000002C00000000000000E6004D
:1001A000E7000151500051004F0000000000000026
:1001B000000000000000000000000000000000003F
:1001C000000000000000000000000000000000002F
:1001D00000000000000000000000010000300130BD
:1001E000010001000100010001000100A900AA00B6
:1001F000A800010001000100010000000000000053
:1002000000000100C35CC45CC65CC75CC85CC95C20
:10021000CA5CCB5C0100010001000100010001008B
:1002200001000000000000000000010001000100CA
:1002300001000100010001000100010001000100B6
:1002400001000100010001000100000000000000A9
:100250000000010001000100010001000100010097
:100260000100010001000100010001000100000087
:10027000000000000000000000000100000001007C
:100280000100010001000100010001000100010066
:10029000010001000100BF5C01000000000000003F
:1002A000000001000100010000000000000001004A
:1002B000000000000000010001000051C05CBE5CB5
:1002C000C15C000000000000000000000000000011
:1002D000000000000000000000000000000000001E
:1002E000000000000000000000000000000000000E
:1002F00000000100010001000100010001000100F7
:1003000001000100010001000100010001000100E5
:1003100001000000000000000000010001000100D9
:1003200001000100010001000100010001000100C5
:1003300001000100010001000100000000000000B8
:1003400000000100010001000100010001000100A6
:100350000100010001000100010001000100010095
:100360000100000000000000000001000100010089
:100370000100010001000100010001000100010075
:10038000010001000100000000000000000000006A
:100390000000010000000100010001000100010057
:1003A0000100010001000100010001000100010045
:1003B0000100000000000000000001000100010039
:1003C000000000000000010000000000000001002B
:1003D0000100010001000100010000000000000018
:1003E000000000000000000000000000000000000D
:1003F00000000000000000000000000000000000FD
:1004000000000000000000000000010001000100E9
:1004100001000100010001000100010001000100D4
:1004200001000100010001000100000000000000C7
:1004300000000100010001000100010001000100B5
:1004400001000100010001000100010001000100A4
:100450000100000000000000000001000100010098
:100460000100010001000100010001000100010084
:100470000100010001000100010000000000000077
:100480000000010001000100010001000100010065
:100490000100010001000100010001000100000055
:1004A000000000000000000000000100000001004A
:1004B0000100010001000100010001000100010034
:1004C0000100010001000100010000000000000027
:1004D0000000010001000100000000000000010018
:1004E0000000000000000100010001000100010007
:1004F00001000000000000000000000000000000FB
:1005000000000000000000000000000000000000EB
:1005100000000000000000000000000000000000DB
:1005200000000100010001000100010001000100C4
:1005300001000100010001000100010001000100B3
:1005400001000000000000000000010001000100A7
:100550000100010001000100010001000100010093
:100560000100010001000100010000000000000086
:100570000000010001000100010001000100010074
:100580000100010001000100010001000100010063
:100590000100000000000000000001000100010057
:1005A0000100010001000100010001000100010043
:1005B0000100010001000000000000000000000038
:1005C0000000010000000100010001000100010025
:1005D0000100010001000100010001000100010013
:1005E0000100000000000000000001000100010007
:1005F00000000000000001000000000000000100F9
:1006000001000100010001000100000000000000E5
:1006100000000000000000000000000000000000DA
:1006200000000000000000000000000000000000CA
:1006300000000000000000000000010001000100B7
:1006400001000100010001000100010001000100A2
:100650000100010001000100010000000000000095
:100660000000010001000100010001000100010083
:100670000100010001000100010001000100010072
:100680000100000000000000000001000100010066
:100690000100010001000100010001000100010052
:1006A0000100010001000100010000000000000045
:1006B0000000010001000100010001000100010033
:1006C0000100010001000100010001000100000023
:1006D0000000000000000000000001000000010018
:1006E0000100010001000100010001000100010002
:1006F00001000100010001000100000000000000F5
:1007000000000100010001000000000000000100E5
:1007100000000000000001000100010001000100D4
:1007200001000000000000000000000000000000C8
:1007300000000000000000000000000000000000B9
:1007400000000000000000000000000000000000A9
:100750000000010001000100010001000100010092
:100760000100010001000100010001000100010081
:100770000100000000000000000001000100010075
:100780000100010001000100010001000100010061
:100790000100010001000100010000000000000054
:1007A0000000010001000100010001000100010042
:1007B0000100010001000100010001000100010031
:1007C0000100000000000000000001000100010025
:1007D0000100010001000100010001000100010011
:1007E0000100010001000000000000000000000006
:1007F00000000100000001000100010001000100F3
:1008000001000100010001000100010001000100E0
:1008100001000000000000000000010001000100D4
:1008200000000000000001000000000000000100C6
:1008300001000100010001000100000000000000B3
:1008400000000000000000000000000000000000A8
:100850000000000000000000000000000000000098
:100860000000000000000000000001000100010085
:100870000100010001000100010001000100010070
:100880000100010001000100010000000000000063
:100890000000010001000100010001000100010051
:1008A0000100010001000100010001000100010040
:1008B0000100000000000000000001000100010034
:1008C0000100010001000100010001000100010020
:1008D0000100010001000100010000000000000013
:1008E0000000010001000100010001000100010001
:1008F00001000100010001000100010001000000F1
:1009000000000000000000000000010000000100E5
:1009100001000100010001000100010001000100CF
:1009200001000100010001000100000000000000C2
:1009300000000100010001000000000000000100B3
:1009400000000000000001000100010001000100A2
:100950000100000000000000000000000000000096
:100960000000000000000000000000000000000087
:100970000000000000000000000000000000000077
:100980000000010001000100010001000100010060
:10099000010001000100010001000100010001004F
:1009A0000100000000000000000001000100010043
:1009B000010001000100010001000100010001002F
:1009C0000100010001000100010000000000000022
:1009D0000000010001000100010001000100010010
:1009E00001000100010001000100010001000100FF
:1009F00001000000000000000000010001000100F3
:100A000001000100010001000100010001000100DE
:100A100001000100010000000000000000000000D3
:100A200000000100000001000100010001000100C0
:100A300001000100010001000100010001000100AE
:100A400001000000000000000000010001000100A2
:100A50000000000000000100000000000000010094
:100A60000100010001000100010000000000000081
:100A70000000000000000000000000000000000076
:100A80000000000000000000000000000000000066
:100A90000000000000000000000001000100010053
:100AA000010001000100010001000100010001003E
:100AB0000100010001000100010000000000000031
:100AC000000001000100010001000100010001001F
:100AD000010001000100010001000100010001000E
:100AE0000100000000000000000001000100010002
:100AF00001000100010001000100010001000100EE
:100B000001000100010001000100000000000000E0
:100B100000000100010001000100010001000100CE
:100B200001000100010001000100010001000000BE
:100B300000000000000000000000010000000100B3
:100B4000010001000100010001000100010001009D
:100B50000100010001000100010000000000000090
:100B60000000010001000100000000000000010081
:100B70000000000000000100010001000100010070
:100B80000100000000000000000000000000000064
:100B90000000000000000000000000000000000055
:100BA0000000000000000000000000000000000045
:100BB000000001000100010001000100010001002E
:100BC000010001000100010001000100010001001D
:100BD0000100000000000000000001000100010011
:100BE00001000100010001000100010001000100FD
:100BF00001000100010001000100000000000000F0
:100C000000000100010001000100010001000100DD
:100C100001000100010001000100010001000100CC
:100C200001000000000000000000010001000100C0
:100C300001000100010001000100010001000100AC
:100C400001000100010000000000000000000000A1
:100C5000000001000000010001000100010001008E
:100C6000010001000100010001000100010001007C
:100C70000100000000000000000001000100010070
:100C80000000000000000100000000000000010062
:100C9000010001000100010001000000000000004F
:100CA0000000000000000000000000000000000044
:100CB0000000000000000000000000000000000034
:100CC0000000000000000000000001000100010021
:100CD000010001000100010001000100010001000C
:100CE00001000100010001000100000000000000FF
:100CF00000000100010001000100010001000100ED
:100D000001000100010001000100010001000100DB
:100D100001000000000000000000010001000100CF
:100D200001000100010001000100010001000100BB
:100D300001000100010001000100000000000000AE
:100D4000000001000100010001000100010001009C
:100D5000010001000100010001000100010000008C
:100D60000000000000000000000001000000010081
:100D7000010001000100010001000100010001006B
:100D8000010001000100010001000000000000005E
:100D9000000001000100010000000000000001004F
:100DA000000000000000010001000100010001003E
:100DB0000100000000000000000000000000000032
:100DC0000000000000000000000000000000000023
:100DD0000000000000000000000000000000000013
:100DE00000000100010001000100010001000100FC
:100DF00001000100010001000100010001000100EB
:100E000001000000000000000000010001000100DE
:100E100001000100010001000100010001000100CA
:100E200001000100010001000100000000000000BD
:100E300000000100010001000100010001000100AB
:100E4000010001000100010001000100010001009A
:100E5000010000000000000000000100010001008E
:100E6000010001000100010001000100010001007A
:100E7000010001000100000000000000000000006F
:100E8000000001000000010001000100010001005C
:100E9000010001000100010001000100010001004A
:100EA000010000000000000000000100010001003E
:100EB0000000000000000100000000000000010030
:100EC000010001000100010001000000000000001D
:100ED0000000000000000000000000000000000012
:100EE0000000000000000000000000000000000002
:100EF00000000000000000000000010001000100EF
:100F000001000100010001000100010001000100D9
:100F100001000100010001000100000000000000CC
:100F200000000100010001000100010001000100BA
:100F300001000100010001000100010001000100A9
:100F4000010000000000000000000100010001009D
:100F50000100010001000100010001000100010089
:100F6000010001000100010001000000000000007C
:100F7000000001000100010001000100010001006A
:100F8000010001000100010001000100010000005A
:100F9000000000000000000000000100000001004F
:100FA0000100010001000100010001000100010039
:100FB000010001000100010001000000000000002C
:100FC000000001000100010000000000000001001D
:100FD000000000000000010001000100010001000C
:100FE0000100000000000000000000000000000000
:100FF00000000000000000000000000000000000F1
:1010000000000000000000000000000000000000E0
:1010100000000100010001000100010001000100C9
:1010200001000100010001000100010001000100B8
:1010300001000000000000000000010001000100AC
:101040000100010001000100010001000100010098
:10105000010001000100010001000000000000008B
:101060000000010001000100010001000100010079
:101070000100010001000100010001000100010068
:10108000010000000000000000000100010001005C
:101090000100010001000100010001000100010048
:1010A000010001000100000000000000000000003D
:1010B000000001000000010001000100010001002A
:1010C0000100010001000100010001000100010018
:1010D000010000000000000000000100010001000C
:1010E00000000000000001000000000000000100FE
:1010F00001000100010001000100000000000000EB
:1011000000000000000000000000000000000000DF
:1011100000000000000000000000000000000000CF
:1011200000000000000000000000010001000100BC
:1011300001000100010001000100010001000100A7
:10114000010001000100010001000000000000009A
:101150000000010001000100010001000100010088
:101160000100010001000100010001000100010077
:10117000010000000000000000000100010001006B
:101180000100010001000100010001000100010057
:10119000010001000100010001000000000000004A
:1011A0000000010001000100010001000100010038
:1011B0000100010001000100010001000100000028
:1011C000000000000000000000000100000001001D
:1011D0000100010001000100010001000100010007
:1011E00001000100010001000100000000000000FA
:1011F00000000100010001000000000000000100EB
:1012000000000000000001000100010001000100D9
:1012100001000000000000000000000000000000CD
:1012200000000000000000000000000000000000BE
:1012300000000000000000000000000000000000AE
:10124000000000010101010101010101020202028D
:101250000202020202030303030303030304040460
:101260000404040405050505050606060606070729
:1012700007070708080808090909090A0A0A0B0BE1
:101280000B0C0C0C0D0D0D0E0E0E0F0F0F10101180
:101290001111121213131414151516161717181806
:1012A00019191A1A1B1B1C1D1D1E1E1F202021226E
:1012B00022232424252626272829292A2B2C2D2DB4
:1012C0002E2F30313232333435363738393A3B3CD1
:1012D0003D3E3F404142434445464748494A4C4DC4
:1012E0004E4F50515354555658595A5B5D5E5F618D
:1012F0006264656668696B6C6D6F70727375777820
:101300007A7B7D7E8082838587888A8C8E8F91937D
:101310009596989A9C9EA0A2A3A5A7A9ABADAFB1A4
:10132000B3B5B7BABCBEC0C2C4C6C9CBCDCFD1D489
:10133000D6D8DBDDDFE2E4E7E9EBEEF0F3F5F8FA2F
:10134000FDFF22034D006F006E007300740061000A
:1013500072006700650061007200200058004F00B5
:1013600038003700000018034D006F006E00730056
:101370007400610072006700650061007200000087
:101380000403090409023B00020100A0FA09040059
:1013900000010301010009211101000122400007A1
:1013A00005810308000A0904010001030000000987
:1013B000211101000122BC000705820320000A124E
:1013C00001100100000008474D4F580100010200C4
:1013D0000105010902A10185020901A10005091900
:1013E00001290515002501950575018102950175F5
:1013F0000381010501093009311581257F950275A9
:1014000008810609381581257F9501750881060533
:101410000C0A38021581257F950175088106C0C028
:1014200005010980A101850319012AB700150126CC
:10143000B700950175108100C0050C0901A1018557
:101440000419012AA002150126A002950175108138
:1014500000C005010906A1018505050719E029E776
:10146000150025019508750181020507190029EF6E
:101470001500250195F0750181020508190129055E
:10148000950575019102950175039101C00501094A
:1014900006A101050719E029E71500250195087542
:1014A0000181029501750881010507190029FF15C1
:1014B0000026FF0095067508810005081901290519
:1014C000950575019102950175039101C0001124E4
:1014D0001FBECFEFD0E1DEBFCDBF04B603FE27C0F5
:1014E00080912F0790913007A0913107B09132077A
:1014F0008730904BA740B04BD1F410922F07109239
:101500003007109231071092320714BE84B7877FDC
:1015100084BF0FB6F894A89580916000886180938D
:101520006000109260000FBEE0E0F8E7099513E05C
:10153000A0E0B1E0E8E8FAE702C005900D92A0391A
:10154000B107D9F727E0A0E9B3E001C01D92AF329F
:10155000B207E1F70E94F7350C94A03C0C94000010
:1015600081E00E94671E0C94C42E80E00E94671EDA
:101570000C940D2FCF930E940E22C82F20E040E044
:101580006FEF82FF60E08CE590E00E94E31320E0C3
:1015900040E06FEFC0FF60E08DE590E00E94E31354
:1015A00020E040E06FEFC1FF60E08EE590E0CF917A
:1015B0000C94E313662329F0613051F090E080E051
:1015C0000895FC0182818823C9F38DEA90E0089593
:1015D000FC018281882391F388E990E0089581E0FD
:1015E000089581E008950C94F10A08950C94F50A89
:1015F0001F93CF93DF9300D000D00F92CDB7DEB70B
:1016000049835A836B833091750489819A813111A2
:101610001DC06623B9F02223A9F00E94122C182FB6
:10162000682F89819A810E94BE2B69817A81812FDE
:101630000F900F900F900F900F90DF91CF911F910F
:101640000C94B70B0E94EA2B182FEFCF0E94122C9C
:1016500069817A81EDCFFC01262F40815181628121
:10166000738184810C94F80ACF93DF93EC0160E0DE
:101670000E942B0BBE01DF91CF910C94F60A0E94C1
:10168000D32F0E945C2D811102C00E94002E0E9467
:101690000B1E0C94C30D0E94621C0C94C60D089581
:1016A0000E9428270E944F0B2FEF84E39CE02150DB
:1016B00080409040E1F700C000000C94AD2F0F93E4
:1016C0001F93CF93DF93EC0161E00E942B0B8C0101
:1016D000BE010E94A91B882389F1BE01C8010E9496
:1016E000F30A882359F1BE01C8010E945E208823B5
:1016F00029F1BE01C8010E94B0208823F9F0BE0183
:10170000C8010E94D3218823C9F0BE01C8010E94EC
:10171000681F882399F08A81882339F001158CE5A8
:10172000180751F00F3D1C4579F0CE01DF91CF91A4
:101730001F910F910C94EF0A0E94500B80E0DF91F3
:10174000CF911F910F9108950E94002EF7CF089519
:101750000C94A70B81E008950C94AA0BCF93C82F8B
:101760000E94A80B8C2FCF910C94AC0B0895972F4F
:1017700070E024E1929F600D711D1124FB019CE833
:10178000899FE00DF11D1124EE0FFF1FEE53FF4F57
:10179000859194910895FC01EE0FFF1FEE5BFD4EC5
:1017A000859194910895CF93DF930E94B70B0E9487
:1017B000E80CEC01811520E5920708F042C0811584
:1017C00030E4930708F0BDC0883E910528F5803EBF
:1017D000910508F09DC0883A910588F4853A9105F5
:1017E00008F08FC08130910509F492C0009709F488
:1017F0008FC0049708F08CC0D0E0C0E089C08F3B58
:10180000910508F489C0805C9109C03CD105A0F322
:101810000E94CB0BEC017CC08115904250F4C115A5
:1018200081E0D80708F074C0C03FD10528F3D06527
:101830006FC0C11590E3D90708F079C0CE019F7041
:10184000E7CF811525E5920758F5811534E5930713
:1018500008F0A6C0811542E5940750F4C11581E552
:10186000D80708F471C0DC2FCC27C16FD06A50C0F4
:10187000982F969596959E0123703327C115D345D1
:1018800008F07FC0C1E0D0E002C0CC0FDD1F2A9578
:10189000E2F720E2929FC0011124C82BD92B6FC020
:1018A000C11589E5D807A8F4C11598E5D90708F04E
:1018B0007CC0C11526E5D20708F09ECF8C2F0E9470
:1018C0007F0DC82FD0E0DC2FCC27CC27DF71D06272
:1018D0001FC0C1153AE5D30708F46CC0CE0190567D
:1018E0008115904208F088CF8D2F8F710E947F0D57
:1018F00090E0982F882788279F719C012C2BE90165
:10190000E6CFC55AD0E0CA5DDC4FC881D0E0D064D4
:10191000CE01DF91CF910895C85AD0E0CC0FDD1FE2
:10192000C850DD4F0990D881C02DD464F1CFCE01CD
:101930009927D3FF03C0EC01D86CEACFEC01D06C3F
:10194000E7CFDF70D06AE4CFCE01E4E096958795CB
:10195000EA95E1F783702C2F26952695237090E267
:10196000299F90011124382B8C2F8370C1E0D0E087
:1019700002C0CC0FDD1F8A95E2F7C22BD32BDC68A7
:10198000C7CFC1E0D0E002C0CC0FDD1F2A95E2F73F
:1019900030E2939FC0011124C82BD92BDA68B8CF4D
:1019A000D82FCC27C46FD06AB3CFDC2FCC27C06F21
:1019B000D06AAECF8C2F8F700E947F0D34E0D69509
:1019C000C7953A95E1F7CF709C2FEC01D069A0CF75
:1019D00082389105B1F1B0F48133910509F475C0F5
:1019E00048F48932910509F469C08A32910509F4F5
:1019F00073C008958533910509F459C08933910561
:101A000001F10895833E9105A9F138F4803E9105D6
:101A1000F9F0823E910549F10895863E9105A9F1BC
:101A2000873E9105C9F1843E910519F52091210762
:101A300021FF1FC08091200784FD14C087EE90E035
:101A40000895209120072370A1F080EE90E0089582
:101A50002091200720FD47C03091210730FF09C0A9
:101A600024FF44C090E080E004C02091200722FDC4
:101A7000F7CF08952091200722FD3BC03091210728
:101A800030FDE3CF24FFF5CFEDCF2091200723FFDA
:101A9000F0CF24FDE7CFD2CF2091200723FD2CC02B
:101AA0003091210731FFEECF84EE90E00895209130
:101AB000200725FFDECF89E290E0089520912007DE
:101AC00025FFD7CF85E390E008952091200726FFDA
:101AD000D0CF8AE290E008952091200726FFC9CF59
:101AE00081E390E0089589E390E0089583EE90E02B
:101AF000089582EE90E0089586EE90E0089590912A
:101B0000200792FF06C0282F28712830F9F4877F1C
:101B1000846093FF06C0282F28712831F1F4877E56
:101B200084612091210720FF06C0382F387138309A
:101B3000D9F4877F816021FF06C0282F28712831C2
:101B4000D1F4877E816194FD877E0895282F2471CA
:101B50002430F9F68B7F8860DCCF282F2471243164
:101B600001F78B7E8861DDCF382F3171313019F765
:101B70008E7F8860E0CF282F2171213121F78E7E62
:101B80008861E1CF08950C94C20D08950C94C50DA1
:101B900094E0899FF0011124EC57FA4F6081718124
:101BA000828193810895089580EA8A95F1F70895D6
:101BB000F894E82FE295EF70F0E031A1282F2F7014
:101BC00081E090E001C0880F2A95EAF7982F909560
:101BD000932391A392A1892B82A378940895CF9304
:101BE000DF93C9E2D3E089910E94D80D83E0CD3321
:101BF000D807C9F7CDE3D3E089910E94D80D83E0DF
:101C0000C434D807C9F7E8E6F5E0A4E8B5E01192D6
:101C10001192119211921D921D921D921D9285E0BA
:101C2000E438F807A1F787E00E94E00EDF91CF913A
:101C30000C943F0B2F923F924F925F926F927F9244
:101C40008F929F92AF92BF92CF92DF92EF92FF92CC
:101C50000F931F93CF93DF9300D000D000D0CDB768
:101C6000DEB789E2282E83E0382E1C821B8210E02A
:101C7000412C512C32014394F10181911F01F894C0
:101C8000E82FE295EF70F0E021A18F7041E050E085
:101C900002C0440F551F8A95E2F7CA01922F982B74
:101CA00091A392A18095892382A378940E94D40D58
:101CB000B301A2010B8004C0440F551F661F771F9C
:101CC0000A94D2F76A017B01C094D094E094F09416
:101CD00088E695E09E838D83EDE3F3E0FA83E98364
:101CE00000E0ED81FE8181919191A191B191FE83FE
:101CF000ED83E981FA81B190FA83E9832B2D229556
:101D00002F7030E0F90120A130E0FB2DFF7002C000
:101D100035952795FA95E2F74C015D0120FD4BC002
:101D2000842A952AA62AB72A88159905AA05BB05EB
:101D300049F0AD81BE8114978D929D92AD92BC9277
:101D4000139701E024E835E08D819E81281739073B
:101D500041F6F101319780810E94D80D102BEB8163
:101D6000FC813196FC83EB83749709F085CF212F9A
:101D700047E064E875E088E695E00E94E10E0E9485
:101D80004B0B812F26960FB6F894DEBF0FBECDBF4A
:101D9000DF91CF911F910F91FF90EF90DF90CF9047
:101DA000BF90AF909F908F907F906F905F904F907B
:101DB0003F902F9008958C209D20AE20BF20B4CF5F
:101DC0000895FF920F931F93CF93DF93F82ED92F8F
:101DD0008B01C42F222349F081E0809392030E945B
:101DE000462F9093910380939003809192038823D0
:101DF00099F080919003909191030E945E2F069735
:101E000058F0EF2DFD2FD80190E080E0D0E08C1746
:101E10009D0744F010929203DF91CF911F910F9193
:101E2000FF90089501911191219131910D931D938E
:101E30002D933D930196EBCFEF92FF920F931F935B
:101E4000CF93DF93EB01E82FD11110C0442321F091
:101E5000F0E0EE5BFD4EE4916E2F7E2F8E2FDF9132
:101E6000CF911F910F91FF90EF9008950D2F10E0EB
:101E7000282F30E0442329F02E5B3D4EF9012491B8
:101E800030E0F6E0CF9FC0011124EFEFF0E0BF019A
:101E90000E943C3BAB018C2F90E0880F991FA5E579
:101EA000A49FB001A59F700D1124861B970B982F3E
:101EB000990F980FBF01601B710B629FD001639F48
:101EC000B00D729FB00D11248B2F9D9FB001112476
:101ED000672F7727EF01C61BD70BBE01629FE0017A
:101EE000639FD00D729FD00D11247F01E91AF10874
:101EF000E09EB001E19E700DF09E700D1124672FE1
:101F00007727E61BF70BE29F8001E39F100DF29FFE
:101F1000100D1124E12F722F4230510599F048F431
:101F20004115510569F04130510581F0EB2F8D2F9E
:101F300007C04430510569F080F046305105B1F7D3
:101F40006E2F8DCFE22F7B2F812FFACFE22F7D2FA7
:101F5000F7CFEB2F822F712FF3CF7B2F822FED2F17
:101F6000EFCF41E00C941C0F30E020E0869F212D44
:101F7000969F200D311D1124C9010895AC018230B6
:101F8000910508F408959FEF413E8EE1580740F413
:101F90009A0195E0369527959A95E1F798E0920F8A
:101FA00061E0E62FE90FFF27FF1F9F013595279579
:101FB000822F229FF001239FF00DF00D11244E1768
:101FC0005F0738F49FEF920F961758F78FEF860F41
:101FD00008952F3FE9F361E0620FF6CFE82F86FD09
:101FE000E0952E2F2F7086FD2F5FE695E695E695FE
:101FF000E670F0E0EC5BFC4F9181929F902D212DDB
:10200000112492959F702295207F922B2081920F10
:1020100087FD919580E8890F0895E42FF0E0EE0F99
:10202000FF1FE057FE4F408134EE439F412D1124A6
:10203000E72FF0E050E0445E5F4FDA01A21BB109E8
:102040009D01B7FF03C031952195310993E0220F1F
:10205000331F9A95E1F7AF01421B530B9A0157FDCD
:1020600020E0279F212D1124722F0895E42FF0E006
:10207000EE0FFF1FE057FE4F408134EE439F412D8E
:102080001124E82FF0E050E0445E5F4FDA01A21B1C
:10209000B1099D01B7FF03C031952195310993E046
:1020A000220F331F9A95E1F7AF01421B530B9A01A0
:1020B00057FD20E0582F259F212D1124822F0895B0
:1020C000622F0895E42FF0E0EE0FFF1FE057FE4F60
:1020D0006081621B0895E42FF0E0EE0FFF1FEF56C2
:1020E000FE4F6081621B0895322F50E0FA01EE0F1F
:1020F000FF1FEF56FE4F9081905297FD9195440F30
:10210000551FFA01E057FE4F2081231B330B290F87
:10211000311D97FD3A95620F0895EF920F93972F17
:1021200023E0029FB0011124759567956E0D792FFC
:102130000F91EF9008950F93CF93DF93D72FC82F70
:1021400047FD419588E390E0841B910947FD9395F5
:10215000889FB001899F700D700D1124229FC001CE
:10216000239F900D900D1124860F971F0E94BE0F84
:10217000982F990F890F682F600F7D2F8C2FDF917B
:10218000CF910F9108950F931F93522F10E0F801F4
:10219000EE0FFF1FEF56FE4FA081A052BB0B9D011B
:1021A0005203F001539FF00D1124000F111FD801AD
:1021B000A057BE4F0C910057110B40039001419F57
:1021C000300D11242E0F3F1F37FF02C021583F4F03
:1021D000220F232F221F330B620F1F910F9108959F
:1021E0000F931F93522F10E0F801EE0FFF1FEF56D1
:1021F000FE4FA081A052BB0B9D015203F001539FE3
:10220000F00D1124000F111FD801A057BE4F0C91E3
:102210000057110B40039001419F300D11242E0FE8
:102220003F1F37FF02C0215C3F4F96E03595279551
:102230009A95E1F7620F1F910F9108950F931F93E5
:1022400010E0F801EE0FFF1FE057FE4F908190570E
:1022500097FD9195000F111FF801EF56FE4F008179
:102260000052110B2003F001219FF00D112408E30F
:1022700010E0091B110997FD139540039001419F40
:10228000300D1124E20FF31F9F01220F331F2E0F79
:102290003F1F37FF02C021583F4F220F232F221F1D
:1022A000330B620F1F910F9108954095282F429F85
:1022B000412D1124842F089522E8241B08F420E0E6
:1022C000620F0895EF92FF920F93970195E0099F97
:1022D000200D311D11242F3F310519F010F02FEF83
:1022E00030E02095382F320F08F43FEF832F0F9105
:1022F000FF90EF900895EF92FF920F931F930E0DB2
:102300001F2D111DF90137FF03C0F195E195F1096A
:1023100024E0EE0FFF1F2A95E1F7EF3FF10519F0DA
:1023200014F0EFEFF0E09A0157FF03C031952195CB
:10233000310994E0220F331F9A95E1F72E173F07DA
:102340000CF4F901E00FF11FEF3FF10519F010F067
:10235000EFEFF0E0E095282F3E2F230F08F42FEF4A
:10236000822F1F910F91FF90EF900895EF92FF92AF
:102370000F93972F093438F4B701601B71096F3F31
:10238000710519F010F06FEF70E0485F5F4F413159
:10239000510540F0A901485F5F4F4131510510F0F0
:1023A0006FEF70E06095482F460F08F44FEF842FD1
:1023B00037FF02C02D5F3F4F3595279535952795FF
:1023C0006091A105620F792F0F91FF90EF90089512
:1023D000EF92FF920F939701201B31092F3F310598
:1023E00019F010F02FEF30E0322F3095482F430FC7
:1023F00008F44FEF842F620F0F91FF90EF90089534
:10240000EF92FF920F939701201B31092F3F310567
:1024100019F010F02FEF30E02095382F320F08F42C
:102420003FEF832F0F91FF90EF900895FC019B01E8
:10243000009729F480E077FF2BC080E80895AC0175
:1024400097FF04C044275527481B590BB901640F57
:10245000751F37FD10C0241B350BC901A5E0880F7F
:10246000991FAA95E1F70E94503B80E2861BF7FF77
:102470000FC081950895CB0165E0880F991F6A957B
:10248000E1F7BA01621B730B0E94503B80E6EECF6E
:1024900008950F931F93CF93DF93D62F172FC82F35
:1024A000C901272F201B022FBA010E941612982F54
:1024B000990F990F782F791B700F719F712D11242F
:1024C0006D2F8C2FDF91CF911F910F9108950F9356
:1024D0001F93CF93DF93D62FC72F182FC901212F1A
:1024E000201B022FBA010E941612982F990F990FE4
:1024F000891B800F282F219F212D1124822F6D2FC2
:102500007C2FDF91CF911F910F910895EF920F9340
:102510001F93CF93DF93D62F172FC82FC9010E1902
:10252000070FBA010E941612702F781B719F712D30
:1025300011246D2F8C2FDF91CF911F910F91EF9070
:102540000895EF920F931F93CF93DF93D62FC72F4A
:10255000182FC9010E19010FBA010E941612081B8B
:10256000202F219F212D1124822F6D2F7C2FDF9171
:10257000CF911F910F91EF9008950F93CF93DF9319
:10258000D72FC82FC901BA010E941612682F600FF9
:102590007D2F8C2FDF91CF910F910895EF920F93A4
:1025A000CF93DF93D72FC82FC9010E19BA010E940C
:1025B0001612602F681B7D2F8C2FDF91CF910F910A
:1025C000EF9008950C94B10FEF92FF920F931F9329
:1025D000CF93DF93EC01498128813FEF340F61E015
:1025E000640FAFEFA20FE1E0E20F042F10E0A2179B
:1025F00080F484E1809FE001819FD00D1124CF53AE
:10260000DC4FCA0FD11D588170E1570F08F45FEFFE
:102610005883822F90E054E1509FE001519FD00DEC
:1026200011248E010F531C4F7801080F191FE80168
:10263000588170E2570F08F45FEF5883E43148F493
:10264000E701CE0FD11D588170E1570F08F45FEFFD
:102650005883673018F1632F70E0A21708F45AC04E
:1026600024E1269FA001279F500D11244F535C4F5A
:10267000DA01A80FB91F2C9130E1230F08F42FEFD6
:102680002C93E43108F03FC0E40FF52FF11D2081B9
:102690003DE0230F08F42FEF208335C070E0A21730
:1026A00080F454E1569FE001579FD00D1124CF5381
:1026B000DC4FCA0FD11D58811DE0510F08F45FEFA8
:1026C000588354E1569FE001579FD00D11248E018D
:1026D0000F531C4F7801B801680F791FEB01588127
:1026E00010E1510F08F45FEF5883E43148F4E7013B
:1026F000CE0FD11D58816DE0560F08F45FEF58835F
:10270000341708F4A8CFDF91CF911F910F91FF905C
:10271000EF90089544E1469F9001479F300D1124AA
:102720002F533C4FA20FB32FB11D2C913DE0230F2F
:1027300008F42FEF2C9394CF45E050E06CE170E06B
:1027400080EA95E00C942C3C45E050E06CE170E0B0
:1027500080EA95E00C944A3CE0EAF5E085E380836A
:102760008091F5029091F602A091F7028183928305
:10277000A3838FE784830C94A41380E008950F93C0
:102780001F93CF93DF93C82FD62F8A010E94BD13CA
:1027900094E1C99FB00111246C5F7E4F6D0F711DD4
:1027A000FB0190819F3F29F0F801E80FF11D908314
:1027B0008F5FDF91CF911F910F910895E0915203A8
:1027C000F09153030994E0914E03F0914F03099463
:1027D0005F926F927F928F929F92AF92BF92CF92B1
:1027E000DF92EF92FF920F931F93CF93DF935C01E1
:1027F0004B01FC01C08186E1C89FC02D112416E168
:102800001C0FF12E1F3610F03EE6F32E6091A4054A
:1028100066958091A5059091A6050E94B40F582E4B
:10282000D0E0CF15A0F081E01E3608F080E0DF9107
:10283000CF911F910F91FF90EF90DF90CF90BF90BD
:10284000AF909F908F907F906F905F900895FE0162
:10285000E459FD4F8081F50191818923C9F1CE01B1
:10286000880F991F8C5F9E4FFC01E457FF4F20811A
:10287000422F4057550B6A0183579F4FFC018081BF
:10288000282F2052330B3901449F9001459F300D72
:10289000300D1124669CC001679C900D900D112491
:1028A000820F931F0E94BE0F082F6091A1057091A7
:1028B000A2058091A305E52C9301A601F4010995D9
:1028C0000E94E212462F282F672FCE010E94E313A9
:1028D0002196A7CF66E872E10C94E81361EA72E1F1
:1028E0000C94E8136DE870E10C94E8136EEC72E15F
:1028F0000C94E813AF92BF92CF92DF92EF92FF92C7
:102900000F931F93CF93DF936C017B01FC01C08178
:1029100086E1C89FC02D112416E11C0FB12E1F3671
:1029200010F03EE6B32E6091A40566958091A50552
:102930009091A6050E94B40FA82ED0E0CB1578F098
:1029400081E01E3608F080E0DF91CF911F910F915A
:10295000FF90EF90DF90CF90BF90AF900895FE0171
:10296000E459FD4F8081F6019181892311F1CE0157
:10297000880F991F8C5F9E4FFC01E357FF4F20810A
:102980002052330B84579F4FFC0140814057550B19
:102990006091A1057091A2058091A3050A2DF70110
:1029A00009950E94E212462F282F672FCE010E9420
:1029B000E3132196C3CF69E472E10C947A1467E6BD
:1029C00072E10C947A146BE970E10C947A146DEB5B
:1029D00072E10C947A14BF92CF92DF92EF92FF9241
:1029E0000F931F93CF93DF936C017B01FC01C08198
:1029F00086E1C89FC02D112416E11C0F012F1F3640
:102A000008F00EE66091A405669566958091A5058F
:102A10009091A6050E94B40FB82ED0E0C01770F0B8
:102A200081E01E3608F080E0DF91CF911F910F9179
:102A3000FF90EF90DF90CF90BF900895FE01E45992
:102A4000FD4F8081F6019181892391F06091A1056C
:102A50007091A2058091A3052B2D4C2FF7010995AC
:102A60000E94E212462F282F672FCE010E94E31307
:102A70002196D4CF6DE070E10C94EB1466E370E125
:102A80000C94EB1460E670E10C94EB1462E670E1D8
:102A90000C94EB146BE670E10C94EB1464E770E1BA
:102AA0000C94EB147F928F929F92AF92BF92CF9231
:102AB000DF92EF92FF920F931F93CF93DF935C010E
:102AC0006B01FC01C08186E1C89FC02D112416E175
:102AD0001C0F912E1F3610F03EE6932E6091A40538
:102AE000669566958091A5059091A6050E94B40F04
:102AF000F82E80E48F0D0E94EE0F90E8892E880E4C
:102B00008F2D0E94EE0F20E8722E780ED0E0C915AE
:102B100090F081E01E3608F080E0DF91CF911F91A8
:102B20000F91FF90EF90DF90CF90BF90AF909F906C
:102B30008F907F900895FE01E459FD4F8081F5014B
:102B400091818923A1F06091A1057091A2058091E6
:102B5000A305EF2C0C2F272D482DF60109950E9477
:102B6000E212462F282F672FCE010E94E3132196F1
:102B7000CECF63EC70E10C94521560EF70E10C94D1
:102B800052156EE171E10C945215AF92BF92CF9243
:102B9000DF92EF92FF920F931F93CF93DF937C010D
:102BA0006B01FC01C08186E1C89FC02D112426E184
:102BB000B22EBC0EAB2CFEE6FB1510F49EE6A92E41
:102BC0002091A40530E050E040E06FEF7FEF80E01F
:102BD00090E00E94643B8901D0E02C2FCA1580F060
:102BE00081E0FDE6FB1508F480E0DF91CF911F91B5
:102BF0000F91FF90EF90DF90CF90BF90AF9008952E
:102C0000FE01E459FD4F8081F70191818923F1F0A4
:102C10004091A9054150042E000C550B47FF18C0E8
:102C2000C8016091A4050E94B40FAC016091A10598
:102C30007091A2058091A305F60109950E94E21208
:102C4000462F282F672FCE010E94E3132196C5CF70
:102C5000FA01E755FA4F818982130AC0FA01EE0F93
:102C6000FF1FE755FA4F818D928D80179107C8F2AB
:102C700041505109D3CF65E571E10C94C5156CE560
:102C800071E10C94C5152F923F924F925F926F9213
:102C90007F928F929F92AF92BF92CF92DF92EF92EC
:102CA000FF920F931F93CF93DF93CDB7DEB72B9790
:102CB0000FB6F894DEBF0FBECDBF8C832B015F83B0
:102CC0004E83FB01F08186E1F89F802D11248983DA
:102CD0008A5E8A838B838F3610F02EE62B833091A9
:102CE000A9053D839981892F90E09B878A87880F6A
:102CF000991FFC01E057FE4F6F01FC818F2F90E080
:102D00009C012F5F3F4F39872887EB81FA85FE179B
:102D1000F0F081E02A812E3608F080E02B960FB685
:102D2000F894DEBF0FBECDBFDF91CF911F910F9101
:102D3000FF90EF90DF90CF90BF90AF909F908F90DB
:102D40007F906F905F904F903F902F900895EA850D
:102D5000FB85E459FD4F8081F2019181892301F1C6
:102D60002090A1053090A2052885398527553A4F36
:102D700039013C81398310E029813D812317C8F056
:102D80002091A305129F112D1124B101812F0E94C2
:102D9000E212462F282F672F8A859B850E94E31316
:102DA0008A859B8501969B878A8792E0C90ED11CF4
:102DB000ACCFF30181913F01F601A080A81ABB08B6
:102DC0008180F3018781881A9908AA9C9001AB9CA5
:102DD000300D300D1124889CC001899C900D900D00
:102DE0001124820F931F0E94BE0F082FF301EE0FD4
:102DF000FF1FE95AF5406091A405858996890E94D4
:102E0000B40F7C019401A501B101812FEE81FF81F6
:102E100009951B01F981FF5FF983182FADCF209130
:102E2000A90531E0231B08F420E042E651E1BC0192
:102E3000822F0C94431642E651E1BC0180E00C94D1
:102E400043162091A90531E0231B08F420E04BE74D
:102E500051E1BC01822F0C9443164BE751E1BC01B8
:102E600080E00C9443162091A90531E0231B08F45F
:102E700020E046EB51E1BC01822F0C94431646EB57
:102E800051E1BC0180E00C9443162091A90531E08A
:102E9000231B08F420E048EE51E1BC01822F0C9482
:102EA000431648EE51E1BC0180E00C94431620919A
:102EB000A90531E0231B08F420E040E052E1BC0109
:102EC000822F0C94431640E052E1BC0180E00C9448
:102ED0004316BF92CF92DF92EF92FF920F931F9310
:102EE000CF93DF937C01FC01C08186E1C89FC02D98
:102EF000112416E11C0F012F1F3608F00EE6609119
:102F0000A1057091A2058091A3050E94E212D62E20
:102F1000C72EB82ED0E0C01770F081E01E3608F042
:102F200080E0DF91CF911F910F91FF90EF90DF90A4
:102F3000CF90BF900895FE01E459FD4F8081F701C5
:102F40009181892331F02B2D4D2D6C2DCE010E94C6
:102F5000E3132196E0CF8F929F92AF92BF92CF92D0
:102F6000DF92EF92FF920F931F93CF93DF937C0139
:102F7000FC01C08186E1C89FC02D112416E11C0F01
:102F8000012F1F3608F00EE6C090A205D090A305D1
:102F9000D091A1056D2F7C2D8D2D0E94E212B62EB1
:102FA000A72E982E6091A4056D0F7C2D8D2D0E946B
:102FB000E212D62EC72E882ED0E0C01788F081E00E
:102FC0001E3608F080E0DF91CF911F910F91FF90A6
:102FD000EF90DF90CF90BF90AF909F908F9008952B
:102FE000FE01E459FD4F9081F7018181892359F059
:102FF000282D4D2D6C2D90FD03C0292D4B2D6A2DB4
:10300000CE010E94E3132196D8CFBF92CF92DF92D8
:10301000EF92FF920F931F93CF93DF937C01FC01FC
:10302000C08186E1C89FC02D112416E11C0FD12E4E
:103030001F3610F09EE6D92EC090A205B090A305D1
:103040002091A40500E4029F012D1124D0E0CD15AC
:1030500070F081E01E3608F080E0DF91CF911F9183
:103060000F91FF90EF90DF90CF90BF900895FE01F9
:10307000E459FD4F8081F70191818923B9F0FE0168
:10308000EE0FFF1FEF56FE4F808182958F7060918B
:10309000A105809F600D11247C2D8B2D0E94E212D2
:1030A000462F282F672FCE010E94E3132196CFCF02
:1030B000BF92CF92DF92EF92FF920F931F93CF9325
:1030C000DF938C01FC01C08186E1C89FC02D1124D3
:1030D00056E1F52EFC0EDF2CFEE6FF1510F44EE651
:1030E000D42EC090A205B090A3052091A40530E491
:1030F000E32E3E2D329F312D1124E32ED0E0CD154D
:1031000078F081E03DE63F1508F480E0DF91CF9153
:103110001F910F91FF90EF90DF90CF90BF90089597
:10312000FE01E459FD4F8081F80191818923D9F096
:10313000FE01EE0FFF1FE057FE4F6081E69EB001DB
:10314000112495E0759567959A95E1F78091A10511
:10315000680F7C2D8B2D0E94E212462F282F672F9F
:10316000CE010E94E3132196CACFBF92CF92DF9285
:10317000EF92FF920F931F93CF93DF938C01FC018B
:10318000C08186E1C89FC02D112496E1F92EFC0E66
:10319000EF2CFEE6FF1510F48EE6E82ED090A10588
:1031A000D091A205C090A3056091A405669566958F
:1031B00066958091A5059091A6050E94B40F0E9486
:1031C000EE0F805887FD8195880F282F3C2D239F77
:1031D000212D1124822F6D2D7D2F0E94E212D62EDB
:1031E000C72EB82ED0E0CE1578F081E02DE62F1551
:1031F00008F480E0DF91CF911F910F91FF90EF9045
:10320000DF90CF90BF900895FE01E459FD4F80817B
:10321000F8019181892331F02B2D4D2D6C2DCE019C
:103220000E94E3132196DFCFDF92EF92FF920F937C
:103230001F93CF93DF938C01FC01E459FD4F8081F4
:10324000682381F1D090A205D091A305C091A1057A
:10325000EC2EF12C0E94133C282FC7018C549F4F59
:1032600068E671E00E94503B8E199F0997FD039616
:10327000959587959595879523706C2F289F600D60
:1032800011247D2D8D2F0E94E212462F282F672FAB
:10329000C801DF91CF911F910F91FF90EF90DF90C8
:1032A0000C94E313DF91CF911F910F91FF90EF905A
:1032B000DF900895DF92EF92FF920F931F93CF93C9
:1032C000DF938C01FC01C281C11125C06091A4056E
:1032D00020E1620F08F46FEF8091A5059091A6059B
:1032E0000E94B40F6AE070E00E943C3B892B51F4CD
:1032F0000E94133C6EE670E00E94503BF801618131
:103300000E9414198C2FDF91CF911F910F91FF9084
:10331000EF90DF900895C08186E1C89FC02D1124F1
:1033200086E1D82EDC0E8D2DFEE6FD1508F48EE626
:10333000D0E0E82EF12CCE15DF0534F0C1E0FDE63B
:10334000FD1500F7C0E0DECFF8016181CE010E94DB
:1033500014192196F0CF1F93CF93DF93EC01FC015A
:10336000E459FD4F80816823A1F00E94133C182F7F
:103370000E94133C612F782F8091A3050E94E212D6
:10338000462F282F672FCE01DF91CF911F910C94EC
:10339000E313DF91CF911F910895DF92EF92FF9297
:1033A0000F931F93CF93DF938C01FC01C281C11156
:1033B00025C06091A40520E1620F08F46FEF8091B1
:1033C000A5059091A6050E94B40F65E070E00E94EB
:1033D0003C3B892B51F40E94133C6EE670E00E9446
:1033E000503BF80161810E94AB198C2FDF91CF9186
:1033F0001F910F91FF90EF90DF900895C08186E1BB
:10340000C89FC02D112486E1D82EDC0E8D2DFEE63E
:10341000FD1508F48EE6D0E0E82EF12CCE15DF0580
:1034200034F0C1E0FDE6FD1500F7C0E0DECFF801A5
:103430006181CE010E94AB192196F0CFE09150033B
:10344000F091510309942F923F924F925F926F92A5
:103450007F928F929F92AF92BF92CF92DF92EF9224
:10346000FF920F931F93CF93DF93CDB7DEB72997CA
:103470000FB6F894DEBF0FBECDBF3C01DC010C914E
:1034800086E1089F002D1124B6E1B00FB9874B2EBD
:10349000BD3810F08CE8482EF3018281882361F05A
:1034A00040E060E080E00E941E1AE1ECF3E08CE86E
:1034B000DF011D928A95E9F710E0512CFE0131964B
:1034C0006F0104151505F4F081E0F985FC3808F06A
:1034D00080E029960FB6F894DEBF0FBECDBFDF9116
:1034E000CF911F910F91FF90EF90DF90CF90BF9001
:1034F000AF909F908F907F906F905F904F903F9094
:103500002F900895C80167E070E00E94503B5B0176
:103510004C0124E1289FF001299FF00D1124EF5365
:10352000FC4FE60FF71F3080A6010E94BF13282E24
:1035300076018E2D8C198215A0F0232D31E0231BEE
:1035400008F420E0A4E1A89DC001A99D900D1124DC
:103550008F539C4FA80EB91EF50120830F5F1F4F9C
:10356000B0CFD701EC91F0E0E459FD4F8081F30139
:103570009181892321F1232D35E5231B08F420E0D7
:103580006AEA621B7091A2052AEA332D230F08F420
:103590002FEF3091A305822F880F820F8E5F282F87
:1035A000239F212D1124822F0E94E212462FD70142
:1035B0009C91282F672F892F90E00E94E313BFEF83
:1035C000EB1AFB0AB6CF6F927F928F929F92AF92C7
:1035D000BF92CF92DF92EF92FF920F931F93CF9300
:1035E000DF93CDB7DEB728970FB6F894DEBF0FBED6
:1035F000CDBFDC0112968C91882371F040E060E031
:1036000080E00E941E1AE1ECF3E08CE8DF011D92DD
:103610008A95E9F71092930381ECC82E83E0D82EA7
:1036200000E077247A9490EDA92EB12C20EC622E44
:103630003FE2832E912C760110E080919303812B41
:1036400009F072C00E94133C853595400CF06CC0A7
:10365000F6017082AE014F5F5F4F602F812F0E9495
:10366000BF138823B1F0F7012081E981F0E0213D0B
:1036700008F462C0205D330B629EC001639E900D12
:103680001124B4010E943C3B262F4FEFCF010E9432
:10369000E3131F5FF4E1EF0EF11C173071F60F5FBB
:1036A0002FEFC21AD20A043131F6809193038F5F53
:1036B0008D3108F44BC01092930345E254E026E0AC
:1036C00005ED13E03EEFFA0181EC93E0263039F48A
:1036D000DC01A858BF4F6C916F3F09F43C936081A7
:1036E0006F3F11F43083648B0196319608171907E8
:1036F00069F72150445151092111E5CF80E0289606
:103700000FB6F894DEBF0FBECDBFDF91CF911F91F2
:103710000F91FF90EF90DF90CF90BF90AF909F9070
:103720008F907F906F900895D7018C9181508E3F3C
:1037300008F090CF8C938ECF279DC0011124B50146
:103740000E943C3B462F20E060E0A0CF8093930393
:10375000D5CFAF92BF92CF92DF92EF92FF920F93AD
:103760001F93CF93DF93CDB7DEB728970FB6F894AA
:10377000DEBF0FBECDBF8B01FB018281D12C882320
:1037800041F0AE014F5F5F4F608181810E94BF13A6
:10379000D82EC0909403ED2CF12CC7018C0D911DF7
:1037A000099764F188E090E05C01AE18BF08B701AA
:1037B0006B567C4FA50185E993E00E94233CB7013D
:1037C00063567C4FA5018DE993E00E94233CA5013F
:1037D000440F551FB701660F771F63557C4F8DEA65
:1037E00093E00E94233CB7016B557C4FA50185EA0D
:1037F00093E00E94233CCA94C0929403F0909403F7
:10380000DE01119640E0842F8F0DD4121CC08093EE
:1038100094038091A0058C7F843619F4C8010E941E
:10382000E41281E028960FB6F894DEBF0FBECDBF3C
:10383000DF91CF911F910F91FF90EF90DF90CF908C
:10384000BF90AF9008955D91252F30E090E0BC01CE
:103850006C567C4FF901EE0FFF1FE057FE4FE080E2
:10386000FB01E182220F331FF901EF56FE4F208149
:10387000FB012187518B880F991FFC01EC56FC4FEF
:10388000128E118E4F5FBFCF08950E94441C0C947E
:10389000BA0A08950895CF93DF93FC01C08186E1B1
:1038A000C89FC02D1124DAEEDC0FCF3608F0CEE62B
:1038B0006C2F8D2F0E94491C6C2F8D2FDF91CF9183
:1038C0000C944A1C4F925F926F927F928F929F92BC
:1038D000AF92BF92CF92DF92EF92FF92CF9360911F
:1038E000BD037091BE038091BF039091C0030E94FD
:1038F0006D2F6B017C010E94522F4B015C01809265
:10390000BD039092BE03A092BF03B092C003A091EA
:103910009403E4E9F3E08A2F90E04FEF5FEF60E07B
:1039200070E04C195D096E097F09A91325C08093C9
:1039300094038091A005C82FC37019F0C82FC695B5
:10394000C6959091DA02913009F440C0992339F17B
:10395000923009F444C1933009F44AC1CF91FF90E9
:10396000EF90DF90CF90BF90AF909F908F907F901F
:103970006F905F904F900895218D328D2901712CA9
:10398000612C441555056605770520F481509F5F2D
:103990003296CBCF2C0D3D1D328F218FF8CF109258
:1039A000DB028092A5059092A605A092A705B09291
:1039B000A80589E2E4E9F3E0A9EAB5E001900D92F7
:1039C0008A95E1F781E08093DA02C8CF9091DE0218
:1039D000C91315C0982F93702091DF0230E081E069
:1039E0009217130609F480E081708093DD02C732DC
:1039F00078F4EC2FF0E0EE55F34C0C94833B81E02F
:103A0000F3CF882359F040E060E080E00E941E1A66
:103A100080E004C08BED92E00E9469179091DB0278
:103A20009F5F9093DB028111D6C082E08093DA021F
:103A30008091DD028111CFC0CC2309F4D7C00E9450
:103A4000451C8BED92E0CF91FF90EF90DF90CF90EF
:103A5000BF90AF909F908F907F906F905F904F90AE
:103A60000C944B1C8BED92E00E94AB17D7CF8BEDE3
:103A700092E00E940518D2CF8BED92E00E94581878
:103A8000CDCF8BED92E00E94B518C8CF8BED92E0C0
:103A90000E943A15C3CF8BED92E00E943E15BECF37
:103AA0008BED92E00E94DB14B9CF8BED92E00E9487
:103AB000DF14B4CF8BED92E00E946A14AFCF8BED90
:103AC00092E00E946E14AACF8BED92E00E94421504
:103AD000A5CF8BED92E00E944615A0CF8BED92E032
:103AE0000E944A159BCF8BED92E00E944E1596CF17
:103AF0008BED92E00E94721491CF8BED92E00E94C8
:103B0000E3148CCF8BED92E00E94E71487CF8BED0E
:103B100092E00E94761482CF8BED92E00E94B9155C
:103B20007DCF8BED92E00E94BD1578CF8BED92E0BA
:103B30000E94C11573CF8BED92E00E945A196ECF8F
:103B40008BED92E00E94CD1969CF8BED92E00E943F
:103B5000231A64CF8BED92E00E94E31A5FCF8BEDC6
:103B600092E00E943B165ACF8BED92E00E943F16E6
:103B700055CF8BED92E00E940F1750CF8BED92E066
:103B80000E941B174BCF8BED92E00E94211746CF6E
:103B90008BED92E00E942D1741CF8BED92E00E94B9
:103BA00033173CCF8BED92E00E943F1737CF8BED60
:103BB00092E00E94451732CF8BED92E00E945117A0
:103BC0002DCF8BED92E00E94571728CF8BED92E01E
:103BD0000E94631723CFCC2309F4C0CE30CFC0930B
:103BE000DE0283708093DF020E94DE1383E0EBCE5F
:103BF0006091A5057091A6058091A7059091A805F3
:103C00000E946D2F603171058105910508F4A6CEE3
:103C10001092DA02A3CEE0914C03F0914D03099586
:103C20001092A9058FEF9FEF9093C3058093C20573
:103C30009093C5058093C4059093C7058093C605EE
:103C40009093C9058093C8059093CB058093CA05CE
:103C50009093CD058093CC059093CF058093CE05AE
:103C60009093D1058093D005109294039093AE0366
:103C70008093AD039093B0038093AF039093B2030E
:103C80008093B1039093B4038093B3039093B603EE
:103C90008093B5039093B8038093B7039093BA03CE
:103CA0008093B9039093BC038093BB030E945C2D67
:103CB000811104C00E94002E0E94AC130E949C132C
:103CC0008091A0058C7F11F40C94AC13089580931F
:103CD0004D0408959091A00521E092279093A005AE
:103CE0001092DA0281110C94A413089581E00C94CF
:103CF0006A1E9091A005937099F0811109C094609B
:103D00009093A0051092DA02662351F00C94A4134C
:103D1000873210F09869F4CF880F880F982BF0CF76
:103D2000089561E00C94791E682F9091A0059695F6
:103D3000969581E0890F873208F081E00C94791E16
:103D400081E00C94941E682F9091A005969596950D
:103D50008FEF890F09F486E20C94791E81E00C94B0
:103D6000A31E9091A005937061F08093A1056093CC
:103D7000A205453608F044E64093A30521110C94B2
:103D8000A4130895A0EAB5E01196EC911197F0E024
:103D9000282F13964C91139712966C91CF01089689
:103DA0000C94B11E81E00C94C21EE0EAF5E0918112
:103DB000282F43816281E92FE850FF0BCF010C943B
:103DC000B11E81E00C94D51EE0EAF5E0628120E1AD
:103DD000620F08F46FEF9181282F4381892F90E0C3
:103DE0000C94B11E81E00C94E41EE0EAF5E06281DF
:103DF00020E1621B08F460E09181282F4381892F24
:103E000090E00C94B11E81E00C94F51EE0EAF5E020
:103E1000438120E1420F08F44FEF9181282F628106
:103E2000892F90E00C94B11E81E00C94061FE0EA0B
:103E3000F5E0438120E1421B08F440E09181282F06
:103E40006281892F90E00C94B11E81E00C94171FC1
:103E50002091A40530E1230F08F42FEF2093A4054F
:103E600081110C94A413089581E00C94281F2091D3
:103E7000A40530E1231B08F420E02093A405811160
:103E80000C94A413089581E00C94371F0895FC014D
:103E9000EE0FFF1FE80FF91FEE52FA4F61834083C8
:103EA00022830895E2EDF5E08183608342833396B7
:103EB00097E0EC31F907C1F708956EE670E082ED06
:103EC00095E00C94C61FFA01811101C0FB01099411
:103ED0000F931F93CF938C01FB01C281CC2309F474
:103EE00053C00E94A72C8272F801E35CFC45E431C8
:103EF000F10538F4E753F34C0C94833B0E94761E93
:103F0000C0E08C2FCF911F910F9108954EEA5EE192
:103F100060EA7EE10E94631FF3CF40EA5EE16EEA51
:103F20007EE1F8CF41EE5EE162ED7EE1F3CF42ED5E
:103F30005EE161EE7EE1EECF43E05FE162EF7EE1C4
:103F4000E9CF42EF5EE163E07FE1E4CF45E25FE18C
:103F500064E17FE1DFCF44E15FE165E27FE1DACF59
:103F600043E45FE164E37FE1D5CF44E35FE163E4F1
:103F70007FE1D0CF81E00E94911EC2CF85E0FBCFD0
:103F80008DE0F9CF82E1F7CFC1E0BBCF579A4BB1BB
:103F90004F775BB15068EFB7F8949B01220F331F46
:103FA000260F371F280F391F2817390741F4EFBF95
:103FB0008FE594E00197F1F700C000000895DC015F
:103FC0006D91CD0178E05BB9000000C067FF4BB98F
:103FD000660F000000C000C000C04BB900C07A9559
:103FE00091F7E2CF0F931F93CF93DF93C42FD22F7C
:103FF000FC0182818823C9F0409350040E94462F1F
:1040000090934F0480934E0480E28C0F883008F028
:1040100050C0C77081E001C0880FCA95EAF7DF91F0
:10402000CF911F910F910C94AC2410915004141354
:1040300035C080914E0490914F040E945E2F883CC1
:10404000910560F5C0E2CD0F1D17B9F080E2810F38
:10405000883040F4177081E001C0880F1A95EAF7A4
:104060000E94B324C83048F481E09D2F977001C0AE
:10407000880F9A95EAF70E94AC24802F0E94992419
:10408000C830B8F4D77081E001C0880FDA95EAF73C
:10409000DF91CF911F910F910C94B32480E28C0F8C
:1040A000883038F4C77081E001C0880FCA95EAF7FC
:1040B000EFCFDF91CF911F910F9108950F939C0146
:1040C000CB01243F4CE5340759F1A8F4293DFCE528
:1040D0003F0701F12A3D4CE53407D1F1283D3C452D
:1040E00091F406E221EE41EE68ED7CE50E94F21FBC
:1040F00080E00F910895263FFCE53F07E9F0B0F01E
:10410000273F3C45F9F0FC018281882339F1109268
:104110005004EFCF07E225EE45EE69ED7CE5E6CFF2
:1041200006E221EE40EE64EF7CE5E0CF07E225EE0B
:1041300044EE65EF7CE5DACF06E221EE42EE66EF73
:104140007CE5D4CF07E225EE46EE67EF7CE5CECFE7
:1041500008E221E045EE6AED7CE5C8CF81E0C9CFF9
:10416000CF93DF93EC01FB018281882309F419C10D
:10417000C230FCE5DF07C0F1C6319CE5D90730F05D
:104180009E012B5F3C452930310570F50E946F2D53
:104190009093210780932007C031ECE5DE0709F4F6
:1041A000CFC008F05BC0C8308CE5D80709F4B6C0B2
:1041B00088F5C430ECE5DE0709F4A8C0C0F4C230CD
:1041C0008CE5D80709F49CC0809120078260C33039
:1041D000DC4509F498C080912007909121070E9446
:1041E0007D2D0E94282780E0DF91CF910895809156
:1041F00020078061C630ECE5DE0709F484C08091B9
:1042000020078860C730DC4508F47DC08091200716
:10421000806279C0CC308CE5D80709F489C070F48D
:10422000809120078C60CA30ECE5DE0709F46BC092
:1042300008F478C0809120078E7F65C0CE308CE571
:10424000D80709F479C0809120078B7FCF30DC45F7
:1042500008F459C0809120078F7E55C0CC3FECE513
:10426000DE0709F457C030F5C3318CE5D80709F4EF
:104270006FC078F4C131ECE5DE0709F465C0C231E6
:10428000DC4509F0A8CF0E942827809120078F776E
:104290003AC0C5318CE5D80709F462C008F476C08D
:1042A000809121078160CB3FDC4509F094CF80935A
:1042B000210791CFC115FDE5DF0709F44DC088F452
:1042C000809121078D7FCE3F9CE5D90781F38091B6
:1042D00021078E7FCF3FDC4550F38091210783601B
:1042E000E6CFC230FDE5DF0709F459C008F444C049
:1042F00080E0C330DD4509F06ECF0E94022E6BCF07
:104300008091200781608093200765CF80912007EE
:104310008460F9CF809121078260C9CF8091200706
:104320008064F1CF0E942827809120078068EBCF1E
:10433000809120078D7FE7CF80912007877FE3CF93
:10434000809120078F7DDFCF809120078F7BDBCF8F
:1043500080912007837FD7CF809121078C7FA7CFC3
:104360008091200782FB992790F921E0922790FB0A
:1043700082F990FB83F9C7CF80912107982F909500
:1043800091708E7F892B90FB81F991CF0E94282715
:1043900090912007892F97FB87F98058B4CF81E04F
:1043A000ACCF81E021CFCF93DF93EB0186319C45E9
:1043B00011F50E94A72C9A81992399F08A7A91E0AD
:1043C00009F490E090935104811109C089E20E94A0
:1043D000822C0E94F32C80E0DF91CF91089585E339
:1043E000F6CF80915104811104C089E20E94892C8A
:1043F000F0CF85E3FBCF81E0EFCF9093570480931C
:1044000056040895E0915604F0915704309721F036
:104410000190F081E02D099480E00895E091560428
:10442000F0915704309711F480E008950190F081E5
:10443000E02D09950895E0915604F09157043097C6
:1044400099F02091F402222359F02091200727FFB0
:1044500007C0DC012C9111962C93119725E02C9329
:104460000280F381E02D09940895E0915604F091C3
:104470005704309739F022E0DC012C930480F58159
:10448000E02D099408952091540430915504281783
:10449000390771F09093550480935404E0915604C9
:1044A000F0915704309721F00680F781E02D0994B0
:1044B000089520915204309153042817390771F060
:1044C0009093530480935204E0915604F091570462
:1044D000309721F00084F185E02D0994089585B787
:1044E000806885BF85B7806885BF08950895089561
:1044F0000C94762208950C947A220E946F220E94D6
:1045000077220C94782281E008950C9483220895F8
:1045100008950E943D2F0E94EF0D0E94E72FE0E2D8
:10452000F7E0808180688083809120079091210747
:104530000E947D2D0C947B222F923F924F925F928E
:104540006F927F928F929F92AF92BF92CF92DF92A3
:10455000EF92FF920F931F93CF93DF93CDB7DEB708
:104560002B970FB6F894DEBF0FBECDBF0E948722F7
:104570000E9488220E941A0E0E948522882309F434
:1045800092C049E5242E44E0342E10E000E00B8771
:10459000802F0E94C80D4B015C01F10141905190A8
:1045A000619071901F01481459046A047B0409F456
:1045B00074C08091350581FD0E94D30D80E0C12C2F
:1045C000D12C7601C394482459246A247B24B30156
:1045D000A2014C215D216E217F21452B462B472BCB
:1045E00009F453C08E83FB85FF838C209D20AE2071
:1045F000BF2081E089288A288B2809F480E08887F9
:104600000E94462F8160782F9A8789874E815F812B
:1046100068858A850E947D23000F111F000F111FDE
:10462000F801E75AFB4F80819181A281B3818C25EB
:104630009D25AE25BF2580839183A283B3830E94ED
:1046400092310E940222909158048917E9F10E9448
:104650000222809358042B960FB6F894DEBF0FBE4B
:10466000CDBFDF91CF911F910F91FF90EF90DF9021
:10467000CF90BF90AF909F908F907F906F905F9002
:104680004F903F902F900C94AE0B8F5FCC0CDD1CA5
:10469000EE1CFF1C843109F09ACF0F5F1F4F0730CB
:1046A000110509F074CF8FEF89838A831B820E94E2
:1046B000462F8160782F9D838C8349815A816B813D
:1046C0008D810E947D23BBCF2B960FB6F894DEBF61
:1046D0000FBECDBFDF91CF911F910F91FF90EF9053
:1046E000DF90CF90BF90AF909F908F907F906F9012
:1046F0005F904F903F902F900895CF93DF93CDB769
:10470000DEB72B970FB6F894DEBF0FBECDBF4F8339
:10471000588769877A878B871E821D8285E0FE0114
:104720003796DE01119601900D928A95E1F7498145
:104730005A816B817C818D819E812B960FB6F89476
:10474000DEBF0FBECDBFDF91CF910C949E29FC013F
:10475000808191810C94542CCF93C82F882309F425
:1047600090C08238C1F40E94022281FD8AC089E390
:104770000E94822C0E94F32C2FEF81EE94E02150B6
:1047800080409040E1F700C0000089E30E94892C3E
:10479000CF910C94F32C8338A1F40E94022280FD67
:1047A00070C083E50E94822C0E94F32C2FEF81EED3
:1047B00094E0215080409040E1F700C0000083E584
:1047C000E5CF8438A1F40E94022282FD5AC087E41A
:1047D0000E94822C0E94F32C2FEF81EE94E0215056
:1047E00080409040E1F700C0000087E4CFCF8CEF1D
:1047F0008C0F813AB8F48C2F0E94F933811141C09B
:104800006C2F8091E0029091E1020E941B2E882380
:1048100029F08C2F0E94892C0E94F32C8C2F0E944F
:10482000822CB6CF80E28C0F883048F4C77081E0CC
:1048300001C0880FCA95EAF70E94AA2CA9CFEBE520
:10484000EC0FE33040F4F0E0EE57FC4F808190E055
:10485000CF910C944322E8E5EC0FE73150F4F0E0FF
:10486000EE0FFF1FEC5AFC4F80819181CF910C9489
:104870005922C03F30F08C2F0E948C30CF910C9485
:104880007731CF910895882309F452C0823871F4AA
:104890000E94022281FF4CC089E30E94822C0E9468
:1048A000F32C89E30E94892C0C94F32C833859F45F
:1048B0000E94022280FF3CC083E50E94822C0E945D
:1048C000F32C83E5EFCF843859F40E94022282FF53
:1048D0002FC087E40E94822C0E94F32C87E4E2CF51
:1048E0009CEF980F913AF0F290E2980F983050F4C4
:1048F000877091E001C0990F8A95EAF7892F0E948D
:10490000B02CD2CF9BE5980F933020F490E080E05C
:104910000C94432298E5980F973120F490E080E0C2
:104920000C945922803F20F00E94F4300C9477318F
:104930000895CF93C82F0E94AC23C93349F42FEFB9
:1049400087EE93E0215080409040E1F700C00000E6
:104950008C2FCF910C944324882321F00E94AA2C01
:104960000C94F32C0895882321F00E94B02C0C9411
:10497000F32C0895BF92CF92DF92EF92FF920F93A4
:104980001F93CF93DF936C01D62FC72FFC010581B6
:1049900002950F70128111110E94C72C0E94A02C49
:1049A000E82E882391F01123D1F08C2F807F803462
:1049B00021F080E28D0F883090F082E00E943E2D41
:1049C0000E94A02C91E0E82EE926BC2EB2949FE034
:1049D000B922EB2DF0E0E352F34C0C94833BE12C35
:1049E000F4CF0C2F0F70C07F11F00295007F1123C0
:1049F000A9F0002359F080E28D0F883010F0D1111A
:104A000009C0802F0E94AA2C0E94F32C8D2F0E9497
:104A1000AC2314C0802F0E94BA2CF6CF8D2F0E9499
:104A20004324002359F080E28D0F883010F0D1111B
:104A30002CC0802F0E94B02C0E94F32C2B2D2850CC
:104A4000330B2430310520F40E9402220E94AE0B69
:104A5000EE2009F49EC10E949C2C80FD9AC1F601B3
:104A600012820E94962C0E94222BC6010E94EA26E6
:104A70000E94962CDF91CF911F910F91FF90EF90A4
:104A8000DF90CF90BF900C94432B802F0E94C02CBE
:104A9000D3CFFC2FFF70FF2EC07FC03219F0F294ED
:104AA00080EFF822DD2369F0D13049F1112391F133
:104AB000002351F1F601858180FFA8CF8F70858397
:104AC00023C0112381F0011106C00E94DA2C8F2926
:104AD0000E94AC24B3CF0130C1F70E94DA2C8F2999
:104AE0000E94E02CABCF011106C00E94E92C8F2D53
:104AF0000E94B324A3CF013009F4A0CFF6CF112335
:104B000029F0063008F09ACF8F2DE2CF053008F05B
:104B100095CFEDCF002359F3D93349F4FFEF27EEBA
:104B200033E0F15020403040E1F700C000008D2F0D
:104B30000E94432483CF8C2F86958695837069F0DD
:104B4000813009F07BCF8D2F9C2F9370111102C003
:104B500090E080E00E94592271CF8D2F9C2F93709E
:104B6000111102C090E080E00E94432267CF8D2F98
:104B7000112329F00E948C300E9477315FCF0E9470
:104B8000F430FACF8C2F837009F041C0111156CF49
:104B90004D2F429546954770440F440F0D2F0F70CF
:104BA00010E030E020E0042E04C0000F111F221F8F
:104BB000331F0A94D2F760E070E0CB01D4FF0FC03E
:104BC0006FE070E080E090E004C0660F771F881F00
:104BD000991F4A95D2F76095709580959095C695E6
:104BE000C695C370602B712B822B932BC23049F07A
:104BF00058F4C13019F00E94D42A20CF0E94C22A52
:104C00001DCF0E94E62A1ACF0E94C02A17CF869590
:104C1000112311F08C2F8170882309F40FCF4D2FB1
:104C2000429546954770440F440F0D2F0F7010E0CA
:104C300030E020E0042E04C0000F111F221F331F9C
:104C40000A94D2F760E070E0CB01D4FF0FC06FE0B0
:104C500070E080E090E004C0660F771F881F991F06
:104C60004A95D2F76095709580959095C695C695B2
:104C7000C370602B712B822B932BC23049F058F4F8
:104C8000C13019F00E94992BD9CE0E94872BD6CE25
:104C90000E94AB2BD3CE0E94FC2AD0CECF70112322
:104CA00029F08C2F0E94222B8D2F12CF8D2F0E9446
:104CB000B3248C2F0E94432BC1CED23F89F160F4E4
:104CC000D03FC9F0D13F29F1112309F442C00111AD
:104CD0009DCE8C2F8F7121C0D33F39F1D43FA1F7E6
:104CE000112369F1CF718C2F0E94222B63E08C2F4E
:104CF0000E94292DA3CE112341F0053008F09ECE4D
:104D00008C2F8F710E94662B99CE063008F096CEBC
:104D1000F7CF8C2F8F71112369F20E94222B8ECE38
:104D20008C2F8F711123C9F3C5CF112329F08C2F3C
:104D30008F710E940D2B82CE0E94082B7FCE81E0C6
:104D40000E943E2D023008F479CE82E00E943E2D72
:104D500075CE002359F0D93309F0E9CE8FEF97EEE5
:104D6000E3E081509040E040E1F7DFCE8C2F8F717F
:104D7000A1CF4C2F4F706D2FC6010E94DA0A0E94FE
:104D8000382A5CCE4C2F4F706D2FC6010E94B60B97
:104D900055CEDF91CF911F910F91FF90EF90DF9053
:104DA000CF90BF9008950F931F93CF93DF93EC01A3
:104DB000688179818A810E945E2C8C010E94BD2BC2
:104DC0000E94BF2AB801CE01DF91CF911F910F91B0
:104DD0000C94BA24CF93DF93EC018B819C81892BB7
:104DE00029F08881998189238F3F59F4DF91CF91F0
:104DF0000895CE010E94D326CE01DF91CF910C946D
:104E0000340BCE010E945F0B8111F3CF0E94A02CC6
:104E1000882361F38A81882349F382E0DF91CF916F
:104E20000C943E2D0E94C72C0E94D72C0E94F32C7C
:104E30000E949E320E94773190E080E00E944322DF
:104E400090E080E00C9459220E94902C0C94122740
:104E50000E94B72C0C942427E92FE295EF70E250C2
:104E6000EE3070F4F0E0E351F34C0C94833B803F60
:104E700019F020F4883E20F481E00895843FE1F3A6
:104E800080E00895883EC0F3813FD1F7F5CF93FBD2
:104E9000882780F908950E94542C0C942C27CF93D6
:104EA000DF9300D000D00F92CDB7DEB70F900F90F8
:104EB0000F900F900F90DF91CF910895CF93DF93D4
:104EC00000D000D000D0CDB7DEB726960FB6F8944C
:104ED000DEBF0FBECDBFDF91CF9108951F93CF935B
:104EE000DF93C091760416E0809177048C1304C0A0
:104EF000DF91CF911F910895D0E01C9FF0011D9F7D
:104F0000F00D1124E858FB4F40815181628173817B
:104F1000848195810E945E272196C770E5CF4091DC
:104F2000A8045091A9046091AA047091AB048091E7
:104F3000AC049091AD040C945E271F93CF93DF9344
:104F40008091AD04807FA9F48091AA04882389F020
:104F500080917604C09177046091A8047091A904AF
:104F6000A091AB04B091AC04D62FD72316E0C813A0
:104F700004C0DF91CF911F91089590E0109711F038
:104F8000DF3F19F401968770F2CF189F9001199FA7
:104F9000300D1124F901E858FB4F41814713F2CF3E
:104FA00040814613EFCF42814111ECCF43815481C0
:104FB0004A1B5B0B483C510528F78091AD048F706C
:104FC00080618093AD04F901E358FB4F80818F70BD
:104FD0008061808388EA94E00E94EA26DF91CF9185
:104FE0001F910C946E27AF92BF92CF92DF92EF92F7
:104FF000FF920F931F93CF93DF93CDB7DEB76197E7
:105000000FB6F894DEBF0FBECDBF8C0185E0F8016E
:10501000DE011D9601900D928A95E1F7F80140811D
:105020005181E28088EAC82E84E0D82E6091AB04DA
:105030007091AC046115710509F461C19091A804E7
:105040002091A904892F82238F3F09F458C1A3809E
:10505000B480F090AA04F501E61BF70BFF2009F4D9
:10506000FCC08091AD04382F307FE83CF10508F09A
:10507000B2C0311179C0FE2C251323C0941321C076
:10508000E1101FC08F7080618093AD040E948F2754
:10509000C6010E94EA268091AD04F80185838F2D18
:1050A00061960FB6F894DEBF0FBECDBFDF91CF91F2
:1050B0001F910F91FF90EF90DF90CF90BF90AF9036
:1050C0000895AB2829F0842F85238F3F09F033C141
:1050D00080E0F82FF170DF2E80FF3CC080917604D5
:1050E0002091770436E0821315C04D875E878D8549
:1050F0009E850E94542C292F22952F702230F0F08B
:10510000243018F59F70F1F0F8019581907FD1F46B
:10511000D12C1EC090E0389FF001399FF00D112472
:10512000E858FB4F6181651306C06081641303C0BA
:1051300062816E110FC001968770D5CF9F7011F0FC
:10514000882331F3805E883018F3C8010E94EA2674
:10515000FD2CA5CFEE2009F4A2CF8091AD04816093
:105160008093AD04F12C9BCF251306C0941304C08B
:10517000F801EE2009F48DC04D875E878D859E85F0
:105180000E944B27882319F1EE2009F18091AD048C
:10519000803270F02091A8043091A90438872F83C1
:1051A0001986BB86AA868C87CE0107960E94EA26BE
:1051B00086E0F801A8EAB4E001900D928A95E1F743
:1051C0000E949D270E948F27FF24F39468CFC80177
:1051D0000E94EA26F9CF311113C07A2DB98AA88A24
:1051E0006E2D89890E944F2788EA94E00E94EA2662
:1051F00086E0F60111928A95E9F70E948F27B2CFD7
:1052000025130FC094130DC0E1100BC0F801858366
:10521000C8010E94EA2686E0F60111928A95E9F714
:105220003ECF4D875E878D859E850E944B278823C4
:1052300071F2EE2061F28091AD04803208F4B8CFB3
:105240002091A8043091A9043A8329831B82BD824E
:10525000AC828E83CE010196A9CFE83CF10508F01F
:1052600041C0FE2CEE2009F4B2CF25132AC09413BE
:1052700028C08091AD0480FD1BC0982F907FC1F0A5
:10528000F8018583903F31F0982F907F905F8F7069
:10529000892B8583C8010E94EA2686E0F801A8EAE6
:1052A000B4E001900D928A95E1F70E948F27F7CE26
:1052B00086E0F801A8EAB4E001900D928A95E1F742
:1052C000EECE4D875E878D859E850E944B2781118E
:1052D0006FCF8091AD0481608093AD04C8010E94BE
:1052E000EA26DDCE7A2DB98AA88A6E2D89890E9498
:1052F0004F2786E0F60111928A95E9F7D6CFEE2086
:1053000009F465CF4D875E878D859E850E944B276A
:10531000F82E882309F45BCF86E0F801A8EAB4E010
:1053200001900D928A95E1F788EA94E00E94A72304
:105330000E949D27BACF81E08E25CBCE1F93CF93BD
:10534000DF93CDB7DEB72C970FB6F894DEBF0FBE54
:10535000CDBF4F83588769877A878B879C87CE011B
:1053600007960E94F327882369F08A859B85892BFD
:1053700039F04F815885842F85238F3F09F071C004
:1053800016E05FC086E0FE013796DE0111960190BF
:105390000D928A95E1F78A859B85892B89F388850B
:1053A0009F8189238F3F61F32091770430E0C90109
:1053B000019687709927409176044817190671F471
:1053C0000E942827109277041092760486E0E8EA7B
:1053D000F4E0DF011D928A95E9F7D2CF96E0929F23
:1053E000D001939FB00D1124A858BB4FFE013196F8
:1053F00001900D929A95E1F7809377040E946E27B1
:10540000BFCF819FC001112488589B4F0E94F32772
:105410008823E9F0E09176041E9FF0011124E858FA
:10542000FB4F4081518162817381848195810E940B
:105430005E278091760490E001968770992780938B
:10544000760480917604909177048913DACF2C96B4
:105450000FB6F894DEBF0FBECDBFDF91CF911F9185
:10546000089569857A858B859C850E945E2788CF03
:10547000EF92FF920F931F93CF93DF938C01892BB1
:1054800081F0F12CEE24E394E8012196F801849157
:10549000843770F4843008F05FC08130B1F082301E
:1054A000A1F1DF91CF911F910F91FF90EF9008959F
:1054B000853709F44CC008F43DC09CE7980F90373D
:1054C00080F78F770E94432449C00E5F1F4FFE0173
:1054D000849190E2980F983060F48770FE2D01C09F
:1054E000FF0F8A95EAF78F2F0E94CA2C0E94F32C97
:1054F00002C00E94AC238F2D815030F2EFE9FFE013
:105500003197F1F700C00000F7CF0E5F1F4FFE018B
:10551000849190E2980F983050F48770FE2D01C06E
:10552000FF0F8A95EAF78F2F0E94D02CDFCF0E94C1
:105530004324E1CF0E5F1F4FFE01C491C150D8F24A
:105540008FE99FE00197F1F700C00000F7CF0E5FF1
:105550001F4FFE01F490CFCF0E94AC238E01CBCF22
:1055600008950C94B02A0E94B12A60930C057093A0
:105570000D0580930E0590930F050C941227089546
:105580000C94B32A0F931F9300910C0510910D05F5
:1055900020910E0530910F05602B712B822B932BE0
:1055A0001F910F910C94B32A0F931F9300910C0538
:1055B00010910D0520910E0530910F056023712388
:1055C000822393231F910F910C94B32A0F931F935F
:1055D00000910C0510910D0520910E0530910F05DD
:1055E00060277127822793271F910F910C94B32A6C
:1055F0000C94B02A0C94F82A0E94FA2A60930805A9
:105600007093090580930A0590930B050C9412275B
:1056100060E070E0CB010C94FC2A0F931F9341E0F3
:1056200050E060E070E08A019B0104C0000F111F90
:10563000221F331F8A95D2F7C901B8011F910F911C
:105640000C94FC2A0F931F9341E050E060E070E05F
:1056500004C0440F551F661F771F8A95D2F78091AB
:10566000080590910905A0910A05B0910B058A01E2
:105670009B01082B192B2A2B3B2BC901B8011F9129
:105680000F910C94FC2A0F931F9341E050E060E0CF
:1056900070E004C0440F551F661F771F8A95D2F72C
:1056A000CB01BA01609570958095909500910805A1
:1056B0001091090520910A0530910B056023712393
:1056C000822393231F910F910C94FC2A0F931F9315
:1056D00041E050E060E070E004C0440F551F661FD9
:1056E000771F8A95D2F78091080590910905A091BE
:1056F0000A05B0910B058A019B01082719272A2763
:105700003B27C901B8011F910F910C94FC2A0F93FC
:105710001F93009108051091090520910A05309109
:105720000B05602B712B822B932B1F910F910C94E7
:10573000FC2A0F931F9300910805109109052091F1
:105740000A0530910B0560237123822393231F9157
:105750000F910C94FC2A0F931F9300910805109150
:10576000090520910A0530910B05602771278227D2
:1057700093271F910F910C94FC2A089524E1929F86
:10578000800D1124982F977041E001C0440F9A9525
:10579000EAF786958695869595E0899FF001112414
:1057A000E255FB4F90E080E070E05191DF011197EE
:1057B0009B01082E02C0369527950A94E2F72170C6
:1057C00021952527242325272C93019685309105A3
:1057D00061F7089524E1929F800D1124982F97700E
:1057E00086958695869525E0829FF0011124E255E5
:1057F000FB4F50E040E080E0219130E0092E02C0F4
:10580000369527950A94E2F721703327042E01C0BC
:10581000220F0A94EAF7822B4F5F5F4F4530510504
:1058200059F70895BF92CF92DF92EF92FF920F93B4
:105830001F93CF93DF938C01C0900805D09009058A
:10584000E0900A05F0900B0580910C0590910D05F4
:10585000A0910E05B0910F05C82AD92AEA2AFB2A81
:10586000CFE1D0E0BC2ED701C6010C2E04C0B69506
:10587000A795979587950A94D2F780FD0EC021973A
:1058800088F7B12C8B2DDF91CF911F910F91FF9055
:10589000EF90DF90CF90BF900895B8018C2F0E94B9
:1058A000D30B019761F3EECFCF93DF93EC010E940E
:1058B000122CBE01DF91CF910C94D30B1F93CF9389
:1058C000DF93EB0190917504992331F0CB01DF91C7
:1058D000CF911F910C94542C882379F0CB010E9416
:1058E000122C182F682FCE010E94BE2BBE01812FD3
:1058F000DF91CF911F910C94D30BCB010E94EA2B27
:10590000182FF4CF682F8091E0029091E1020C945F
:105910009B2E682F8091E0029091E1020C94A62EBC
:105920008091E0029091E1020C94B12E80911005DB
:1059300085958595859508958091100587700895C2
:1059400090911005977081E009F480E008958091AE
:105950003405089590913405892B8093340508957A
:105960008095909134059823909334050895109272
:105970003405089590913305892B8093330508955C
:105980008095909133059823909333050895109254
:105990003305089590913205892B8093320508953F
:1059A0008095909132059823909332050895109236
:1059B0003205089580911105089508950C94DD2C09
:1059C00090911105981721F0809311050C94DE2C0D
:1059D000089580911105882329F01092110580E027
:1059E0000C94DE2C0895E091E002F091E1028091A8
:1059F00034058083E091E002F091E1028081909192
:105A00003305892B8083E091E002F091E1028081EF
:105A100090913205892B808390911105992381F013
:105A2000E091E002F091E1028081892B80838091F6
:105A3000E0029091E1020E94072E81110E94E92C60
:105A40008091E0029091E1020C941B2208950C9445
:105A5000262D98E0899F90011124622B60931005F8
:105A60000E94222B809110058595859585950C9433
:105A7000272D1092100580E00C94272D9091100591
:105A80008095892380931005282F277071F4282F83
:105A9000082E000C330B9217130639F08595859567
:105AA00085950E94432B0C94392D08956FEF7FEF5D
:105AB00090E080E00C94783C90E080E00E94443CD0
:105AC00021E08C3E9E4F09F020E0822F089582E075
:105AD00090E00C943C3C83E090E00C943C3CCF93F1
