:100000000C9427030C946E030C946E030C946E03F3
:100010000C946E030C946E030C946E030C946E039C
:100020000C946E030C946E030C9403310C94D73132
:100030000C9463270C946E030C946E030C946E0363
:100040000C946E030C946E030C946E030C946E036C
:100050000C946E030C94D6270C946E030C946E03D0
:100060000C946E030C946E030C946E030C946E034C
:100070000C946E030C946E030C946E030C946E033C
:100080000C946E030C946E030C946E030C946E032C
:100090000C946E030C946E0301140214011A021ADC
:1000A00001080208011502150117021700011E02BE
:1000B0001E011F021F012001210220012202210234
:1000C000220029003A003B003C003D003E003F007A
:1000D0004000410042004300440045004600470004
:1000E000480035001E001F002000210022002300D0
:1000F00024002500260027002D002E0049004A007C
:100100004B002B0014001A000800150017001C00FB
:1001100018000C00120013002F0030004C004D009E
:100120004E00390004001600070009000A000B0009
:100130000D000E000F003300340028002A000000DC
:100140000000E10000001D001B0006001900050072
:1001500011001000360037003800E5003100520071
:10016000E400E000E3000000E200000000002C00DA
:10017000000000000000E600E700015150005100BF
:100180004F000100003001300100010001000100BA
:1001900001000100A900AA00A8000100010001005F
:1001A00001000100C35CC45CC65CC75CC85CC95C80
:1001B000CA5CCB5C0100010001000100F400F0000A
:1001C000F500010001000100010001000100010033
:1001D000010001000100010001000100F200F10036
:1001E000F300010001000100010001000100010015
:1001F00001000100010001000100010001000000F8
:1002000000000100000001000100010001000100E8
:100210000100010001000100010001000100F900DE
:1002200001000100010000000100000000000100C9
:10023000000000000000010001000051FB00FA0076
:10024000FC000100010001000100010001000100AB
:100250000100010001000100010001000100010096
:100260000100010001000100010001000100010086
:100270000100010001000100010001000100010076
:100280000100010001000100010001000100010066
:100290000100010001000100010001000100010056
:1002A0000100010001000100010001000100010046
:1002B0000100010001000100010001000100000037
:1002C0000000010000000100010001000100010028
:1002D0000100010001000100010001000100010016
:1002E0000100010001000000010000000000010009
:1002F00000000000000001000100010001000100F9
:1003000001000100010001000100010001000100E5
:1003100001000100010001000100010001000100D5
:1003200001000100010001000100010001000100C5
:1003300001000100010001000100010001000100B5
:1003400001000100010001000100010001000100A5
:100350000100010001000100010001000100010095
:100360000100010001000100010001000100010085
:100370000100010001000100010001000100000076
:100380000000010000000100010001000100010067
:100390000100010001000100010001000100010055
:1003A0000100010001000000010000000000010048
:1003B0000000000000000100010001000100010038
:1003C000010000010101010101010101020202021B
:1003D00002020202020303030303030303040404EF
:1003E00004040404050505050506060606060707B8
:1003F00007070708080808090909090A0A0A0B0B70
:100400000B0C0C0C0D0D0D0E0E0E0F0F0F1010110E
:100410001111121213131414151516161717181894
:1004200019191A1A1B1B1C1D1D1E1E1F20202122FC
:1004300022232424252626272829292A2B2C2D2D42
:100440002E2F30313232333435363738393A3B3C5F
:100450003D3E3F404142434445464748494A4C4D52
:100460004E4F50515354555658595A5B5D5E5F611B
:100470006264656668696B6C6D6F707273757778AE
:100480007A7B7D7E8082838587888A8C8E8F91930C
:100490009596989A9C9EA0A2A3A5A7A9ABADAFB133
:1004A000B3B5B7BABCBEC0C2C4C6C9CBCDCFD1D418
:1004B000D6D8DBDDDFE2E4E7E9EBEEF0F3F5F8FABE
:1004C000FDFF22034D006F006E0073007400610099
:1004D00072006700650061007200200058004F0044
:1004E00038003700000018034D006F006E007300E5
:1004F0007400610072006700650061007200000016
:100500000403090409023B00020100A0FA090400E7
:10051000000103010100092111010001224000072F
:1005200005810308000A0904010001030000000915
:10053000211101000122BC000705820320000A12DC
:1005400001100100000008474D4F58010001020052
:100550000105010902A10185020901A1000509198E
:100560000129051500250195057501810295017583
:100570000381010501093009311581257F95027537
:1005800008810609381581257F95017508810605C2
:100590000C0A38021581257F950175088106C0C0B7
:1005A00005010980A101850319012AB7001501265B
:1005B000B700950175108100C0050C0901A10185E6
:1005C0000419012AA002150126A0029501751081C7
:1005D00000C005010906A1018505050719E029E705
:1005E000150025019508750181020507190029EFFD
:1005F0001500250195F075018102050819012905ED
:10060000950575019102950175039101C0050109D8
:1006100006A101050719E029E715002501950875D0
:100620000181029501750881010507190029FF154F
:100630000026FF00950675088100050819012905A7
:10064000950575019102950175039101C000112472
:100650001FBECFEFD0E1DEBFCDBF04B603FE27C083
:100660008091830690918406A0918506B0918606BC
:100670008730904BA740B04BD1F410928306109274
:100680008406109285061092860614BE84B7877F72
:1006900084BF0FB6F894A89580916000886180931C
:1006A0006000109260000FBEE0E0F8E7099513E0EB
:1006B000A0E0B1E0E2E2FBE602C005900D92AE35AB
:1006C000B107D9F726E0AEE5B3E001C01D92A3382B
:1006D000B207E1F70E94442E0C94ED340C94000014
:1006E00081E00E94D8160C94132780E00E94D8164F
:1006F0000C945A27CF930E94891AC82F20E040E01B
:1007000064E682FF60E08CE590E00E94510C20E0FE
:1007100040E064E6C0FF60E08DE590E00E94510C8F
:1007200020E040E064E6C1FF60E08EE590E0CF911C
:100730000C94510C662329F0613051F090E080E078
:100740000895FC0182818823C9F38DEA90E0089521
:10075000FC018281882391F388E990E0089581E08B
:10076000089581E008950C94B10308950C94B503A5
:100770001F93CF93DF9300D000D00F92CDB7DEB799
:1007800049835A836B833091070489819A8131119F
:100790001DC06623B9F02223A9F00E946124182FFE
:1007A000682F89819A810E940E2469817A81812F24
:1007B0000F900F900F900F900F90DF91CF911F919E
:1007C0000C9477040E943A24182FEFCF0E946124E2
:1007D00069817A81EDCFFC01262F408151816281B0
:1007E000738184810C94B803CF93DF93EC0160E0B4
:1007F0000E94EB03BE01DF91CF910C94B6030E94DF
:1008000020280E94AB25811102C00E944F260E9421
:100810007C160C9484060E94CB140C9487060895D1
:100820000E94781F0E940F042FEF84E39CE0215068
:1008300080409040E1F700C000000C94FA270F932D
:100840001F93CF93DF93EC0161E00E94EB038C01D7
:10085000BE010E941214882389F1BE01C8010E94C2
:10086000B303882359F1BE01C8010E94D918882317
:1008700029F1BE01C8010E942B198823F9F0BE019D
:10088000C8010E944E1A8823C9F0BE01C8010E9407
:10089000E317882399F08A81882339F001158CE5C4
:1008A000180751F00F3D1C4579F0CE01DF91CF9133
:1008B0001F910F910C94AF030E94100480E0DF9110
:1008C000CF911F910F9108950E944F26F7CF089561
:1008D0000C94670481E008950C946A04CF93C82FA8
:1008E0000E9468048C2FCF910C946C040895E72F1C
:1008F000F0E096E0899FE00DF11D112484E0EE0FF9
:10090000FF1F8A95E1F7E60FF11DEE0FFF1FEE5373
:10091000FF4F859194910895FC01EE0FFF1FEE5358
:10092000FC4F859194910895CF93DF930E947704B3
:100930000E94A905EC01811520E5920708F042C04C
:10094000811530E4930708F0BDC0883E910528F575
:10095000803E910508F09DC0883A910588F4853A5B
:10096000910508F08FC08130910509F492C000977D
:1009700009F48FC0049708F08CC0D0E0C0E089C0B3
:100980008F3B910508F489C0805C9109C03CD1057A
:10099000A0F30E948C04EC017CC08115904250F4BD
:1009A000C11581E0D80708F074C0C03FD10528F315
:1009B000D0656FC0C11590E3D90708F079C0CE01AA
:1009C0009F70E7CF811525E5920758F5811534E52D
:1009D000930708F0A6C0811542E5940750F4C115AD
:1009E00081E5D80708F471C0DC2FCC27C16FD06A2D
:1009F00050C0982F969596959E0123703327C11568
:100A0000D34508F07FC0C1E0D0E002C0CC0FDD1FAD
:100A10002A95E2F720E2929FC0011124C82BD92B1E
:100A20006FC0C11589E5D807A8F4C11598E5D907A5
:100A300008F07CC0C11526E5D20708F09ECF8C2FA8
:100A40000E944006C82FD0E0DC2FCC27CC27DF71D6
:100A5000D0621FC0C1153AE5D30708F46CC0CE01BF
:100A600090568115904208F088CF8D2F8F710E948B
:100A7000400690E0982F882788279F719C012C2B97
:100A8000E901E6CFC55AD0E0C650DD4FC881D0E0BD
:100A9000D064CE01DF91CF910895C85AD0E0CC0F39
:100AA000DD1FC453DD4F0990D881C02DD464F1CF30
:100AB000CE019927D3FF03C0EC01D86CEACFEC013B
:100AC000D06CE7CFDF70D06AE4CFCE01E4E096953A
:100AD0008795EA95E1F783702C2F2695269523704C
:100AE00090E2299F90011124382B8C2F8370C1E054
:100AF000D0E002C0CC0FDD1F8A95E2F7C22BD32BCA
:100B0000DC68C7CFC1E0D0E002C0CC0FDD1F2A9562
:100B1000E2F730E2939FC0011124C82BD92BDA6889
:100B2000B8CFD82FCC27C46FD06AB3CFDC2FCC2757
:100B3000C06FD06AAECF8C2F8F700E94400634E019
:100B4000D695C7953A95E1F7CF709C2FEC01D06907
:100B5000A0CF82389105B1F1B0F48133910509F449
:100B600075C048F48932910509F469C08A3291054B
:100B700009F473C008958533910509F459C0893388
:100B8000910501F10895833E9105A9F138F4803E65
:100B90009105F9F0823E910549F10895863E91054F
:100BA000A9F1873E9105C9F1843E910519F520917F
:100BB000750621FF1FC08091740684FD14C087EE66
:100BC00090E00895209174062370A1F080EE90E0EB
:100BD00008952091740620FD47C03091750630FFBE
:100BE00009C024FF44C090E080E004C02091740656
:100BF00022FDF7CF08952091740622FD3BC030916D
:100C0000750630FDE3CF24FFF5CFEDCF20917406BC
:100C100023FFF0CF24FDE7CFD2CF2091740623FD30
:100C20002CC03091750631FFEECF84EE90E0089530
:100C30002091740625FFDECF89E290E0089520918F
:100C4000740625FFD7CF85E390E0089520917406C0
:100C500026FFD0CF8AE290E008952091740626FF07
:100C6000C9CF81E390E0089589E390E0089583EE91
:100C700090E0089582EE90E0089586EE90E0089569
:100C80009091740692FF06C0282F28712830F9F43D
:100C9000877F846093FF06C0282F28712831F1F4E4
:100CA000877E84612091750620FF06C0382F387139
:100CB0003830D9F4877F816021FF06C0282F287142
:100CC0002831D1F4877E816194FD877E0895282F95
:100CD00024712430F9F68B7F8860DCCF282F2471B3
:100CE000243101F78B7E8861DDCF382F31713130AF
:100CF00019F78E7F8860E0CF282F2171213121F7ED
:100D00008E7E8861E1CF08950C94830608950C943B
:100D10008606E82FF0E0EE0FFF1FE851FB4F8081C1
:100D200091810895089580EA8A95F1F70895F894DD
:100D3000E82FE295EF70F0E031A1282F2F7081E0CD
:100D400090E001C0880F2A95EAF7982F9095932399
:100D500091A392A1892B82A378940895CF93DF93D6
:100D6000CDEFD2E089910E94970683E0CD30D8077D
:100D7000C9F786EC0E94970687EC0E94970683ECE1
:100D80000E94970680E30E94970681E30E949706DF
:100D900082E00E949706ECEDF4E0A8EEB4E0119238
:100DA00011921D921D9284E0E83EF807C1F786E09B
:100DB0000E947407DF91CF910C94FF036F927F9292
:100DC0009F92AF92BF92CF92DF92EF92FF920F93DA
:100DD0001F93CF93DF939DEFE92E92E0F92E10E061
:100DE00000E0C0E0CC24C394D12C38EEA32E34E034
:100DF000B32ED7018D917D01F894E82FE295EF7025
:100E0000F0E021A18F70A60102C0440F551F8A9502
:100E1000E2F7CA01922F982B91A392A18095892382
:100E200082A378940E949306A601002E02C0440F6C
:100E3000551F0A94E2F7BA0160957095ECEDF4E065
:100E40008DE0682E83E0782ED0E021913191D3019E
:100E50009D903D01892D82958F7090E0DC019096E8
:100E60008C9190E0B92DBF7002C095958795BA9589
:100E7000E2F780FD35C0C901842B952B281739076F
:100E800039F09F0122503109D9018D939C93D1E013
:100E9000AE16BF06D1F6F701319780810E94970602
:100EA000CD2B0F5F1F4F0031110509F0A2CF2C2F62
:100EB00046E068EE74E08CED94E00E9475070E94B5
:100EC0000B048C2FDF91CF911F910F91FF90EF902A
:100ED000DF90CF90BF90AF909F907F906F900895DC
:100EE000C90186239723CACF0895FF920F931F93BA
:100EF000CF93DF93F82E092F162FD72FC42F22233D
:100F000049F081E0809360030E94932790935F03F0
:100F100080935E03809160038823A1F080915E033B
:100F200090915F030E94AB27069760F0EF2DF02FA2
:100F3000A12FBD2F90E080E0D0E08C179D0744F0FA
:100F400010926003DF91CF911F910F91FF90089550
:100F5000219131912D933D930196EFCFEF92FF9226
:100F60000F931F93CF93DF93EB01E82FD11110C0A4
:100F7000442321F0F0E0EE53FC4FE4916E2F7E2FDE
:100F80008E2FDF91CF911F910F91FF90EF900895D9
:100F90000D2F10E0282F30E0442329F02E533C4F32
:100FA000F901249130E0F6E0CF9FC0011124EFEF6A
:100FB000F0E0BF010E948933AB018C2F90E0880FD5
:100FC000991FA5E5A49FB001A59F700D1124861B54
:100FD000970B982F990F980FBF01601B710B629FA1
:100FE000D001639FB00D729FB00D11248B2F9D9F78
:100FF000B0011124672F7727EF01C61BD70BBE0165
:10100000629FE001639FD00D729FD00D11247F017C
:10101000E91AF108E09EB001E19E700DF09E700D9E
:101020001124672F7727E61BF70BE29F8001E39FD0
:10103000100DF29F100D1124E12F722F4230510537
:1010400099F048F44115510569F04130510581F09E
:10105000EB2F8D2F07C04430510569F080F04630EA
:101060005105B1F76E2F8DCFE22F7B2F812FFACF55
:10107000E22F7D2FF7CFEB2F822F712FF3CF7B2F16
:10108000822FED2FEFCF41E00C94AE0730E020E04F
:10109000869F212D969F200D311D1124C901089591
:1010A000AC018230910508F408959FEF413E8EE136
:1010B000580740F49A0195E0369527959A95E1F7FF
:1010C00098E0920F61E0E62FE90FFF27FF1F9F01D5
:1010D00035952795822F229FF001239FF00DF00D6B
:1010E00011244E175F0738F49FEF920F961758F7A9
:1010F0008FEF860F08952F3FE9F361E0620FF6CF7F
:10110000E82F86FDE0952E2F2F7086FD2F5FE69548
:10111000E695E695E670F0E0ED5EFC4F9181929FDA
:10112000902D212D112492959F702295207F922B36
:101130002081920F87FD919580E8890F0895E42F13
:10114000F0E0EE0FFF1FEC59FE4F408134EE439F5D
:10115000412D1124E72FF0E050E0445E5F4FDA01AB
:10116000A21BB1099D01B7FF03C03195219531093B
:1011700093E0220F331F9A95E1F7AF01421B530B07
:101180009A0157FD20E0279F212D1124722F0895E9
:10119000E42FF0E0EE0FFF1FEC59FE4F408134EEDC
:1011A000439F412D1124E82FF0E050E0445E5F4F53
:1011B000DA01A21BB1099D01B7FF03C0319521954A
:1011C000310993E0220F331F9A95E1F7AF01421BDB
:1011D000530B9A0157FD20E0582F259F212D1124F4
:1011E000822F0895622F0895E42FF0E0EE0FFF1F85
:1011F000EC59FE4F6081621B0895E42FF0E0EE0F82
:10120000FF1FEB59FE4F6081621B0895322F50E0A3
:10121000FA01EE0FFF1FEB59FE4F9081905297FDA0
:101220009195440F551FFA01EC59FE4F2081231B65
:10123000330B290F311D97FD3A95620F0895EF92F8
:101240000F93972F23E0029FB001112475956795A6
:101250006E0D792F0F91EF9008950F93CF93DF9339
:10126000D72FC82F47FD419588E390E0841B910953
:1012700047FD9395889FB001899F700D700D1124D3
:10128000229FC001239F900D900D1124860F971F60
:101290000E945008982F990F890F682F600F7D2F9B
:1012A0008C2FDF91CF910F9108950F931F93522FA1
:1012B00010E0F801EE0FFF1FEB59FE4FA081A05286
:1012C000BB0B9D015203F001539FF00D1124000F41
:1012D000111FD801AC59BE4F0C910057110B4003A0
:1012E0009001419F300D11242E0F3F1F37FF02C088
:1012F00021583F4F220F232F221F330B620F1F91C4
:101300000F9108950F931F93522F10E0F801EE0FE5
:10131000FF1FEB59FE4FA081A052BB0B9D01520352
:10132000F001539FF00D1124000F111FD801AC598B
:10133000BE4F0C910057110B40039001419F300D9F
:1013400011242E0F3F1F37FF02C0215C3F4F96E054
:10135000359527959A95E1F7620F1F910F910895A2
:101360000F931F9310E0F801EE0FFF1FEC59FE4F93
:101370009081905797FD9195000F111FF801EB593F
:10138000FE4F00810052110B2003F001219FF00D50
:10139000112408E310E0091B110997FD1395400380
:1013A0009001419F300D1124E20FF31F9F01220F86
:1013B000331F2E0F3F1F37FF02C021583F4F220F10
:1013C000232F221F330B620F1F910F910895409519
:1013D000282F429F412D1124842F089522E8241B99
:1013E00008F420E0620F0895EF92FF920F939701A7
:1013F00095E0099F200D311D11242F3F310519F073
:1014000010F02FEF30E02095382F320F08F43FEF27
:10141000832F0F91FF90EF900895EF92FF920F931B
:101420001F930E0D1F2D111DF90137FF03C0F195FC
:10143000E195F10924E0EE0FFF1F2A95E1F7EF3F58
:10144000F10519F014F0EFEFF0E09A0157FF03C037
:1014500031952195310994E0220F331F9A95E1F7D8
:101460002E173F070CF4F901E00FF11FEF3FF105D4
:1014700019F010F0EFEFF0E0E095282F3E2F230F4A
:1014800008F42FEF822F1F910F91FF90EF90089596
:10149000EF92FF920F93972F093438F4B701601B36
:1014A00071096F3F710519F010F06FEF70E0485F40
:1014B0005F4F4131510540F0A901485F5F4F413115
:1014C000510510F06FEF70E06095482F460F08F45B
:1014D0004FEF842F37FF02C02D5F3F4F3595279583
:1014E000359527956091F504620F792F0F91FF9044
:1014F000EF900895EF92FF920F939701201B31090F
:101500002F3F310519F010F02FEF30E0322F3095DA
:10151000482F430F08F44FEF842F620F0F91FF9075
:10152000EF900895EF92FF920F939701201B3109DE
:101530002F3F310519F010F02FEF30E02095382FB4
:10154000320F08F43FEF832F0F91FF90EF90089533
:10155000FC019B01009729F480E077FF2BC080E815
:101560000895AC0197FF04C044275527481B590B29
:10157000B901640F751F37FD10C0241B350BC9015D
:10158000A5E0880F991FAA95E1F70E949D3380E29C
:10159000861BF7FF0FC081950895CB0165E0880F8A
:1015A000991F6A95E1F7BA01621B730B0E949D3384
:1015B00080E6EECF08950F931F93CF93DF93D62F3E
:1015C000172FC82FC901272F201B022FBA010E94F5
:1015D000A80A982F990F990F782F791B700F719F78
:1015E000712D11246D2F8C2FDF91CF911F910F91B1
:1015F00008950F931F93CF93DF93D62FC72F182FE4
:10160000C901212F201B022FBA010E94A80A982F7E
:10161000990F990F891B800F282F219F212D1124AD
:10162000822F6D2F7C2FDF91CF911F910F91089505
:10163000EF920F931F93CF93DF93D62F172FC82FBF
:10164000C9010E19070FBA010E94A80A702F781B52
:10165000719F712D11246D2F8C2FDF91CF911F91D0
:101660000F91EF900895EF920F931F93CF93DF9315
:10167000D62FC72F182FC9010E19010FBA010E94CA
:10168000A80A081B202F219F212D1124822F6D2FA6
:101690007C2FDF91CF911F910F91EF9008950F93C1
:1016A000CF93DF93D72FC82FC901BA010E94A80A90
:1016B000682F600F7D2F8C2FDF91CF910F910895B0
:1016C000EF920F93CF93DF93D72FC82FC9010E1935
:1016D000BA010E94A80A602F681B7D2F8C2FDF9112
:1016E000CF910F91EF9008950C9443080F931F939F
:1016F000CF93DF93FC01618140819FEF960FB1E0B2
:10170000B60FAFEFA40F81E0840FF0E16F9FE0010F
:101710001124A41760F48E0101571C4F0A0F111DEC
:10172000F801208130E1230F08F42FEF2083242FCC
:1017300030E0C157DC4F8E01020F131FF8015081BA
:1017400070E2570F08F45FEF5083803140F4C80F08
:10175000D11D588170E1570F08F45FEF5883B63000
:10176000F0F050E1959FF0011124A41708F445C052
:10177000E157FC4FDF01A20FB31F2C9130E1230F83
:1017800008F42FEF2C93803108F032C0E80FF11DE0
:1017900020813DE0230F08F42FEF208329C050E182
:1017A000B59FF0011124A41758F4EF01C157DC4F85
:1017B000CA0FD11D58817DE0570F08F45FEF5883A1
:1017C000E157FC4FEF01C20FD31F588170E1570F53
:1017D00008F45FEF5883803140F4E80FF11D508129
:1017E0007DE0570F08F45FEF5083961708F4B9CFE8
:1017F000DF91CF911F910F910895AF0141575C4F39
:10180000A40FB52FB11D4C915DE0450F08F44FEFCB
:101810004C93AECF45E050E06CE170E084EF94E093
:101820000C94793445E050E06CE170E084EF94E092
:101830000C949734E4EFF4E085E380838091C9024F
:101840009091CA02A091CB0281839283A3838FE7F8
:1018500084830C94120C80E008950F931F93CF9310
:10186000DF93C82FD62F8A010E942B0C90E1C99FCD
:10187000B00111246C5F7E4F6D0F711DFB019081D3
:101880009F3F29F0F801E80FF11D90838F5FDF91F2
:10189000CF911F910F910895E0912103F0912203C0
:1018A0000994E0911D03F0911E0309945F926F92D9
:1018B0007F928F929F92AF92BF92CF92DF92EF92E0
:1018C000FF920F931F93CF93DF935C014B01FC01B9
:1018D000C08186E1C89FC02D112416E11C0FF12E96
:1018E0001F3610F03EE6F32E6091F8046695809165
:1018F000F9049091FA040E944608582ED0E0CF15C2
:10190000A0F081E01E3608F080E0DF91CF911F91BA
:101910000F91FF90EF90DF90CF90BF90AF909F908E
:101920008F907F906F905F900895FE01E05CFD4F77
:101930008081F50191818923C9F1CE01880F991F1A
:101940008C5F9E4FFC01E05AFF4F2081422F405791
:10195000550B6A018F599F4FFC018081282F20521F
:10196000330B3901449F9001459F300D300D1124F8
:10197000669CC001679C900D900D1124820F931FEF
:101980000E945008082F6091F5047091F604809130
:10199000F704E52C9301A601F40109950E94740B4C
:1019A000462F282F672FCE010E94510C2196A7CFDA
:1019B00068E17BE00C94560C63E37BE00C94560CDE
:1019C0006FE179E00C94560C60E67BE00C94560CC9
:1019D000AF92BF92CF92DF92EF92FF920F931F933D
:1019E000CF93DF936C017B01FC01C08186E1C89F2E
:1019F000C02D112416E11C0FB12E1F3610F03EE64B
:101A0000B32E6091F80466958091F9049091FA04E0
:101A10000E944608A82ED0E0CB1578F081E01E3653
:101A200008F080E0DF91CF911F910F91FF90EF9030
:101A3000DF90CF90BF90AF900895FE01E05CFD4F26
:101A40008081F6019181892311F1CE01880F991FC0
:101A50008C5F9E4FFC01EF59FF4F20812052330BCA
:101A6000805A9F4FFC0140814057550B6091F5040F
:101A70007091F6048091F7040A2DF70109950E94F0
:101A8000740B462F282F672FCE010E94510C2196F0
:101A9000C3CF6BED7AE00C94E80C69EF7AE00C941C
:101AA000E80C6DE279E00C94E80C6FE47BE00C94B8
:101AB000E80CBF92CF92DF92EF92FF920F931F93A9
:101AC000CF93DF936C017B01FC01C08186E1C89F4D
:101AD000C02D112416E11C0F012F1F3608F00EE651
:101AE0006091F804669566958091F9049091FA04E6
:101AF0000E944608B82ED0E0C01770F081E01E3674
:101B000008F080E0DF91CF911F910F91FF90EF904F
:101B1000DF90CF90BF900895FE01E05CFD4F808183
:101B2000F6019181892391F06091F5047091F6049A
:101B30008091F7042B2D4C2FF70109950E94740B0F
:101B4000462F282F672FCE010E94510C2196D4CF0B
:101B50006FE978E00C94590D68EC78E00C94590D1D
:101B600062EF78E00C94590D64EF78E00C94590D15
:101B70006DEF78E00C94590D66E079E00C94590D06
:101B80007F928F929F92AF92BF92CF92DF92EF920D
:101B9000FF920F931F93CF93DF935C016B01FC01C6
:101BA000C08186E1C89FC02D112416E11C0F912E23
:101BB0001F3610F03EE6932E6091F8046695669508
:101BC0008091F9049091FA040E944608F82E80E46E
:101BD0008F0D0E94800890E8892E880E8F2D0E941C
:101BE000800820E8722E780ED0E0C91590F081E0D0
:101BF0001E3608F080E0DF91CF911F910F91FF908A
:101C0000EF90DF90CF90BF90AF909F908F907F909C
:101C10000895FE01E05CFD4F8081F50191818923EB
:101C2000A1F06091F5047091F6048091F704EF2C17
:101C30000C2F272D482DF60109950E94740B462F75
:101C4000282F672FCE010E94510C2196CECF65E53B
:101C500079E00C94C00D62E879E00C94C00D60EB63
:101C600079E00C94C00DAF92BF92CF92DF92EF92C9
:101C7000FF920F931F93CF93DF937C016B01FC01C5
:101C8000C08186E1C89FC02D112426E1B22EBC0E72
:101C9000AB2CFEE6FB1510F49EE6A92E2091F8046D
:101CA00030E050E040E06FEF7FEF80E090E00E9496
:101CB000B1338901D0E02C2FCA1580F081E0FDE618
:101CC000FB1508F480E0DF91CF911F910F91FF90F9
:101CD000EF90DF90CF90BF90AF900895FE01E05C51
:101CE000FD4F8081F70191818923F1F04091FD043E
:101CF0004150042E000C550B47FF18C0C8016091DD
:101D0000F8040E944608AC016091F5047091F60455
:101D10008091F704F60109950E94740B462F282F35
:101D2000672FCE010E94510C2196C5CFFA01E350D6
:101D3000FB4F818982130AC0FA01EE0FFF1FE350A7
:101D4000FB4F818D928D80179107C8F24150510948
:101D5000D3CF67EE79E00C94330E6EEE79E00C94FD
:101D6000330E2F923F924F925F926F927F928F929B
:101D70009F92AF92BF92CF92DF92EF92FF920F931A
:101D80001F93CF93DF93CDB7DEB72B970FB6F894A1
:101D9000DEBF0FBECDBF8C832B015F834E83FB0163
:101DA000F08186E1F89F802D112489838A5E8A83E1
:101DB0008B838F3610F02EE62B833091FD043D830C
:101DC0009981892F90E09B878A87880F991FFC0152
:101DD000EC59FE4F6F01FC818F2F90E09C012F5F2B
:101DE0003F4F39872887EB81FA85FE17F0F081E0B5
:101DF0002A812E3608F080E02B960FB6F894DEBFCD
:101E00000FBECDBFDF91CF911F910F91FF90EF904B
:101E1000DF90CF90BF90AF909F908F907F906F900A
:101E20005F904F903F902F900895EA85FB85E05C8E
:101E3000FD4F8081F2019181892301F12090F50409
:101E40003090F6042885398523503B4F39013C8179
:101E5000398310E029813D812317C8F02091F704D0
:101E6000129F112D1124B101812F0E94740B462F56
:101E7000282F672F8A859B850E94510C8A859B8518
:101E800001969B878A8792E0C90ED11CACCFF301E3
:101E900081913F01F601A080A81ABB088180F3015F
:101EA0008781881A9908AA9C9001AB9C300D300D4F
:101EB0001124889CC001899C900D900D1124820FE3
:101EC000931F0E945008082FF301EE0FFF1FED5FD4
:101ED000F4406091F804858996890E9446087C0147
:101EE0009401A501B101812FEE81FF8109951B01AC
:101EF000F981FF5FF983182FADCF2091FD0431E008
:101F0000231B08F420E044EF59E0BC01822F0C941D
:101F1000B10E44EF59E0BC0180E00C94B10E209169
:101F2000FD0431E0231B08F420E04DE05AE0BC0141
:101F3000822F0C94B10E4DE05AE0BC0180E00C946D
:101F4000B10E2091FD0431E0231B08F420E048E4A9
:101F50005AE0BC01822F0C94B10E48E45AE0BC0157
:101F600080E00C94B10E2091FD0431E0231B08F4B5
:101F700020E04AE75AE0BC01822F0C94B10E4AE7F8
:101F80005AE0BC0180E00C94B10E2091FD0431E0D8
:101F9000231B08F420E042E95AE0BC01822F0C9494
:101FA000B10E42E95AE0BC0180E00C94B10EBF9240
:101FB000CF92DF92EF92FF920F931F93CF93DF9315
:101FC0007C01FC01C08186E1C89FC02D112416E16F
:101FD0001C0F012F1F3608F00EE66091F50470917A
:101FE000F6048091F7040E94740BD62EC72EB82EEB
:101FF000D0E0C01770F081E01E3608F080E0DF917D
:10200000CF911F910F91FF90EF90DF90CF90BF90F5
:102010000895FE01E05CFD4F8081F70191818923E5
:1020200031F02B2D4D2D6C2DCE010E94510C21969F
:10203000E0CF8F929F92AF92BF92CF92DF92EF92BA
:10204000FF920F931F93CF93DF937C01FC01C0811C
:1020500086E1C89FC02D112416E11C0F012F1F36E9
:1020600008F00EE6C090F604D090F704D091F50485
:102070006D2F7C2D8D2D0E94740BB62EA72E982EC1
:102080006091F8046D0F7C2D8D2D0E94740BD62E5F
:10209000C72E882ED0E0C01788F081E01E3608F0E9
:1020A00080E0DF91CF911F910F91FF90EF90DF9033
:1020B000CF90BF90AF909F908F900895FE01E05C0D
:1020C000FD4F9081F7018181892359F0282D4D2DF5
:1020D0006C2D90FD03C0292D4B2D6A2DCE010E9441
:1020E000510C2196D8CFBF92CF92DF92EF92FF9200
:1020F0000F931F93CF93DF937C01FC01C08186E196
:10210000C89FC02D112416E11C0FD12E1F3610F0D0
:102110009EE6D92EC090F604B090F7042091F80402
:1021200000E4029F012D1124D0E0CD1570F081E074
:102130001E3608F080E0DF91CF911F910F91FF9044
:10214000EF90DF90CF90BF900895FE01E05CFD4FCF
:102150008081F70191818923B9F0FE01EE0FFF1F05
:10216000EB59FE4F808182958F706091F504809FBE
:10217000600D11247C2D8B2D0E94740B462F282F6F
:10218000672FCE010E94510C2196CFCFBF92CF92E4
:10219000DF92EF92FF920F931F93CF93DF938C0107
:1021A000FC01C08186E1C89FC02D112456E1F52EA7
:1021B000FC0EDF2CFEE6FF1510F44EE6D42EC09088
:1021C000F604B090F7042091F80430E4E32E3E2D9D
:1021D000329F312D1124E32ED0E0CD1578F081E02F
:1021E0003DE63F1508F480E0DF91CF911F910F91FC
:1021F000FF90EF90DF90CF90BF900895FE01E05CDC
:10220000FD4F8081F80191818923D9F0FE01EE0F05
:10221000FF1FEC59FE4F6081E69EB001112495E04E
:10222000759567959A95E1F78091F504680F7C2D77
:102230008B2D0E94740B462F282F672FCE010E94F2
:10224000510C2196CACFBF92CF92DF92EF92FF92AC
:102250000F931F93CF93DF938C01FC01C08186E124
:10226000C89FC02D112496E1F92EFC0EEF2CFEE63E
:10227000FF1510F48EE6E82ED090F504D091F60408
:10228000C090F7046091F804669566956695809114
:10229000F9049091FA040E9446080E948008805830
:1022A00087FD8195880F282F3C2D239F212D1124F8
:1022B000822F6D2D7D2F0E94740BD62EC72EB82E27
:1022C000D0E0CE1578F081E02DE62F1508F480E0FF
:1022D000DF91CF911F910F91FF90EF90DF90CF9002
:1022E000BF900895FE01E05CFD4F8081F80191816F
:1022F000892331F02B2D4D2D6C2DCE010E94510CD8
:102300002196DFCFDF92EF92FF920F931F93CF932F
:10231000DF938C01FC01E05CFD4F8081682381F13B
:10232000D090F604D091F704C091F504EC2EF12C76
:102330000E946034282FC7018C549F4F68E671E0DB
:102340000E949D338E199F0997FD03969595879559
:102350009595879523706C2F289F600D11247D2DF6
:102360008D2F0E94740B462F282F672FC801DF91F5
:10237000CF911F910F91FF90EF90DF900C94510C33
:10238000DF91CF911F910F91FF90EF90DF90089513
:10239000DF92EF92FF920F931F93CF93DF938C0105
:1023A000FC01C281C11125C06091F80420E1620FD7
:1023B00008F46FEF8091F9049091FA040E944608A6
:1023C0006AE070E00E948933892B51F40E946034E6
:1023D0006EE670E00E949D33F80161810E948211D7
:1023E0008C2FDF91CF911F910F91FF90EF90DF9095
:1023F0000895C08186E1C89FC02D112486E1D82EA2
:10240000DC0E8D2DFEE6FD1508F48EE6D0E0E82EFC
:10241000F12CCE15DF0534F0C1E0FDE6FD1500F727
:10242000C0E0DECFF8016181CE010E9482112196C9
:10243000F0CF1F93CF93DF93EC01FC01E05CFD4FE5
:1024400080816823A1F00E946034182F0E946034BC
:10245000612F782F8091F7040E94740B462F282F4C
:10246000672FCE01DF91CF911F910C94510CDF911A
:10247000CF911F910895DF92EF92FF920F931F93D8
:10248000CF93DF938C01FC01C281C11125C0609103
:10249000F80420E1620F08F46FEF8091F904909145
:1024A000FA040E94460865E070E00E948933892B97
:1024B00051F40E9460346EE670E00E949D33F80192
:1024C00061810E9419128C2FDF91CF911F910F9182
:1024D000FF90EF90DF900895C08186E1C89FC02DE6
:1024E000112486E1D82EDC0E8D2DFEE6FD1508F4B4
:1024F0008EE6D0E0E82EF12CCE15DF0534F0C1E0F9
:10250000FDE6FD1500F7C0E0DECFF8016181CE01E8
:102510000E9419122196F0CFE0911F03F091200341
:1025200009942F923F924F925F926F927F928F9277
:102530009F92AF92BF92CF92DF92EF92FF920F9352
:102540001F93CF93DF93CDB7DEB729970FB6F894DB
:10255000DEBF0FBECDBF6C01DC010C9186E1089F90
:10256000002D1124B6E1B00FB9874B2EB13610F013
:1025700020E6422EF6018281882361F040E060E08F
:1025800080E00E948C12EFE8F3E080E6DF011D920C
:102590008A95E9F710E0512CFE0131965F01041590
:1025A0001505F4F081E0B985B03608F080E0299691
:1025B0000FB6F894DEBF0FBECDBFDF91CF911F9154
:1025C0000F91FF90EF90DF90CF90BF90AF909F90D2
:1025D0008F907F906F905F904F903F902F900895D5
:1025E000C80166E070E00E949D334B013C0194E01D
:1025F000660C771C9A95E1F7F301E157FC4FE60F63
:10260000F71F3080A5010E942D0C282E75018E2DFC
:102610008A19821578F0232D31E0231B08F420E07D
:10262000C30181579C4F880E991ED4012C930F5FD4
:102630001F4FB5CFD701EC91F0E0E05CFD4F8081FA
:10264000F6019181892321F1232D35E5231B08F41F
:1026500020E06AEA621B7091F6042AEA332D230F08
:1026600008F42FEF3091F704822F880F820F8E5FCE
:10267000282F239F212D1124822F0E94740B462F77
:10268000D7019C91282F672F892F90E00E94510C31
:10269000BFEFEB1AFB0ABBCF6F927F928F929F9294
:1026A000AF92BF92CF92DF92EF92FF920F931F9360
:1026B000CF93DF93CDB7DEB728970FB6F894DEBF80
:1026C0000FBECDBFDC0112968C91882371F040E0E3
:1026D00060E080E00E948C12EFE8F3E080E6DF012A
:1026E0001D928A95E9F7109261038FE8C82E83E066
:1026F000D82E00E077247A9490EDA92EB12C20EC0E
:10270000622E3FE2832E912C760110E080916103CE
:10271000812B09F072C00E946034853595400CF021
:102720006CC0F6017082AE014F5F5F4F602F812F4A
:102730000E942D0C8823B1F0F7012081E981F0E09F
:10274000213D08F462C0205D330B629EC001639E90
:10275000900D1124B4010E948933262F4FEFCF0131
:102760000E94510C1F5FF0E1EF0EF11C163071F664
:102770000F5F2FEFC21AD20A003131F68091610348
:102780008F5F8D3108F44BC0109261034FEC53E022
:1027900025E00FE913E03EEFFA018FE893E02530E2
:1027A00039F4DC01A05BBF4F6C916F3F09F43C939F
:1027B00060816F3F11F43083608B0196319608176A
:1027C000190769F72150405151092111E5CF80E0E7
:1027D00028960FB6F894DEBF0FBECDBFDF91CF9124
:1027E0001F910F91FF90EF90DF90CF90BF90AF902F
:1027F0009F908F907F906F900895D7018C9181501A
:102800008E3F08F090CF8C938ECF279DC00111246E
:10281000B5010E948933462F20E060E0A0CF80936D
:102820006103D5CFAF92BF92CF92DF92EF92FF922A
:102830000F931F93CF93DF93CDB7DEB728970FB6D3
:10284000F894DEBF0FBECDBF8B01FB018281D12C7E
:10285000882341F0AE014F5F5F4F608181810E940C
:102860002D0CD82EC0906203ED2CF12CC7018C0DDD
:10287000911D099764F188E090E05C01AE18BF08F3
:10288000B7016D597C4FA50183E693E00E94703437
:10289000B70165597C4FA5018BE693E00E94703427
:1028A000A501440F551FB701660F771F65587C4F70
:1028B0008BE793E00E947034B7016D587C4FA501FF
:1028C00083E793E00E947034CA94C0926203F09050
:1028D0006203DE01119640E0842F8F0DD4121CC0DC
:1028E000809362038091F4048C7F843619F4C801CC
:1028F0000E94760B81E028960FB6F894DEBF0FBEDB
:10290000CDBFDF91CF911F910F91FF90EF90DF909E
:10291000CF90BF90AF9008955D91252F30E090E06B
:10292000BC016E597C4FF901EE0FFF1FEC59FE4FB1
:10293000E080FB01E182220F331FF901EB59FE4FCA
:102940002081FB012187518B880F991FFC01EE59D3
:10295000FC4F128E118E4F5FBFCF08950E94AD14B1
:102960000C947A0308950895CF93DF93FC01C081FE
:1029700086E1C89FC02D1124DAEEDC0FCF3608F0B7
:10298000CEE66C2F8D2F0E94B2146C2F8D2FDF910D
:10299000CF910C94B3144F925F926F927F928F926B
:1029A0009F92AF92BF92CF92DF92EF92FF92CF931E
:1029B00060918B0370918C0380918D0390918E03B5
:1029C0000E94BA276B017C010E949F274B015C018A
:1029D00080928B0390928C03A0928D03B0928E0311
:1029E000A0916203E2E6F3E08A2F90E04FEF5FEF01
:1029F00060E070E04C195D096E097F09A9132AC0D7
:102A0000809362038091EF03C0E0811108C0809140
:102A1000F404C82FC37019F0C82FC695C6958091CD
:102A2000AE02813009F440C0882339F1823009F4C4
:102A300045C1833009F44DC1CF91FF90EF90DF90F5
:102A4000CF90BF90AF909F908F907F906F905F904E
:102A50004F900895218D328D2901712C612C4415E0
:102A600055056605770520F481509F5F3296C6CFE5
:102A70002C0D3D1D328F218FF8CF1092AF02809226
:102A8000F9049092FA04A092FB04B092FC0489E24B
:102A9000E2E6F3E0ADEFB4E001900D928A95E1F744
:102AA00081E08093AE02C8CF8091B202C81316C0F5
:102AB0009091F40493702091B30230E081E092177A
:102AC000130609F480E081708093B102C73278F474
:102AD000EC2FF0E0E151FB4C0C94D03381E0F3CFCC
:102AE000882359F040E060E080E00E948C1280E092
:102AF00004C08FEA92E00E94D70F9091AF029F5FCF
:102B00009093AF028111D6C082E08093AE02809193
:102B1000B1028111CFC0CC2309F4D9C00E94AE14F8
:102B20008FEA92E0CF91FF90EF90DF90CF90BF902F
:102B3000AF909F908F907F906F905F904F900C948C
:102B4000B4148FEA92E00E941910D7CF8FEA92E076
:102B50000E947310D2CF8FEA92E00E94C610CDCFB0
:102B60008FEA92E00E942311C8CF8FEA92E00E9480
:102B7000A80DC3CF8FEA92E00E94AC0DBECF8FEAC2
:102B800092E00E94490DB9CF8FEA92E00E944D0D6C
:102B9000B4CF8FEA92E00E94D80CAFCF8FEA92E0D8
:102BA0000E94DC0CAACF8FEA92E00E94B00DA5CF64
:102BB0008FEA92E00E94B40DA0CF8FEA92E00E94CB
:102BC000B80D9BCF8FEA92E00E94BC0D96CF8FEAA2
:102BD00092E00E94E00C91CF8FEA92E00E94510DAA
:102BE0008CCF8FEA92E00E94550D87CF8FEA92E05A
:102BF0000E94E40C82CF8FEA92E00E94270E7DCFE4
:102C00008FEA92E00E942B0E78CF8FEA92E00E942A
:102C10002F0E73CF8FEA92E00E94C8116ECF8FEA19
:102C200092E00E943B1269CF8FEA92E00E949112DB
:102C300064CF8FEA92E00E944C135FCF8FEA92E05C
:102C40000E94A90E5ACF8FEA92E00E94AD0E55CF96
:102C50008FEA92E00E947D0F50CF8FEA92E00E94AF
:102C6000890F4BCF8FEA92E00E948F0F46CF8FEAF9
:102C700092E00E949B0F41CF8FEA92E00E94A10F49
:102C80003CCF8FEA92E00E94AD0F37CF8FEA92E0FF
:102C90000E94B30F32CF8FEA92E00E94BF0F2DCF78
:102CA0008FEA92E00E94C50F28CF8FEA92E00E943F
:102CB000D10F23CFCC2309F4BFCE30CFC093B202C3
:102CC0008091F40483708093B3020E944C0C83E0E3
:102CD000E8CE6091F9047091FA048091FB04909120
:102CE000FC040E94BA27603171058105910508F442
:102CF000A3CE1092AE02A0CEE0911B03F0911C0374
:102D000009951092FD048FEF9FEF90931705809324
:102D10001605909319058093180590931B058093D1
:102D20001A0590931D0580931C0590931F058093B1
:102D30001E05909321058093200590932305809391
:102D400022059093250580932405109262039093A9
:102D50007C0380937B0390937E0380937D03909309
:102D6000800380937F0390938203809381039093E9
:102D700084038093830390938603809385039093C9
:102D800088038093870390938A03809389030E942A
:102D9000AB25811104C00E944F260E941A0C0E948C
:102DA0000A0C8091F4048C7F11F40C941A0C089591
:102DB000CF93C82F882329F040E060E080E00E9494
:102DC0008C12C093EF03CF9108959091F40421E009
:102DD00092279093F4041092AE0281110C94120C7D
:102DE000089581E00C94E5169091F404937099F0A5
:102DF000811109C094609093F4041092AE0266238E
:102E000051F00C94120C873210F09869F4CF880FAF
:102E1000880F982BF0CF089561E00C94F416682F7A
:102E20009091F4049695969581E0890F873208F089
:102E300081E00C94F41681E00C940F17682F9091A8
:102E4000F404969596958FEF890F09F486E20C9419
:102E5000F41681E00C941E179091F404937061F0C5
:102E60008093F5046093F604453608F044E64093F9
:102E7000F70421110C94120C0895A4EFB4E01196FC
:102E8000EC911197F0E0282F13964C91139712961E
:102E90006C91CF0108960C942C1781E00C943D178F
:102EA000E4EFF4E09181282F43816281E92FE8501B
:102EB000FF0BCF010C942C1781E00C945017E4EF1A
:102EC000F4E0628120E1620F08F46FEF9181282F16
:102ED0004381892F90E00C942C1781E00C945F17AC
:102EE000E4EFF4E0628120E1621B08F460E091818C
:102EF000282F4381892F90E00C942C1781E00C94AB
:102F00007017E4EFF4E0438120E1420F08F44FEF43
:102F10009181282F6281892F90E00C942C1781E0F9
:102F20000C948117E4EFF4E0438120E1421B08F4A4
:102F300040E09181282F6281892F90E00C942C171A
:102F400081E00C9492172091F80430E1230F08F4EB
:102F50002FEF2093F80481110C94120C089581E056
:102F60000C94A3172091F80430E1231B08F420E00F
:102F70002093F80481110C94120C089581E00C94B4
:102F8000B2170895FC01EE0FFF1FE80FF91FEA5D6D
:102F9000FA4F6183408322830895E6E2F5E081835E
:102FA00060834283339696E0E037F907C1F70895CE
:102FB0006EE670E086E295E00C944118FA0181110A
:102FC00001C0FB0109940F931F93CF938C01FB0168
:102FD000C281CC2309F453C00E94F6248272F80106
:102FE000E35CFC45E431F10538F4EA5EFA4C0C94FC
:102FF000D0330E94F116C0E08C2FCF911F910F911A
:10300000089549E257E16BE177E10E94DE17F3CFC3
:103010004BE157E169E277E1F8CF4CE557E16DE428
:1030200077E1F3CF4DE457E16CE577E1EECF4EE782
:1030300057E16DE677E1E9CF4DE657E16EE777E1DD
:10304000E4CF40EA57E16FE877E1DFCF4FE857E19F
:1030500060EA77E1DACF4EEB57E16FEA77E1D5CF5F
:103060004FEA57E16EEB77E1D0CF81E00E940C1779
:10307000C2CF85E0FBCF8DE0F9CF82E1F7CFC1E091
:10308000BBCF579A4BB14F775BB15068EFB7F8940D
:103090009B01220F331F260F371F280F391F2817B8
:1030A000390741F4EFBF8FE594E00197F1F700C0D5
:1030B00000000895DC016D91CD0178E05BB900005E
:1030C00000C067FF4BB9660F000000C000C000C021
:1030D0004BB900C07A9591F7E2CF0F931F93CF932E
:1030E000DF93C42FD22FFC0182818823C9F0409343
:1030F000F2030E9493279093F1038093F00380E200
:103100008C0F883008F050C0C77081E001C0880F74
:10311000CA95EAF7DF91CF911F910F910C94FC1C97
:103120001091F203141335C08091F0039091F103D4
:103130000E94AB27883C910560F5C0E2CD0F1D17BA
:10314000B9F080E2810F883040F4177081E001C04F
:10315000880F1A95EAF70E94031DC83048F481E0F1
:103160009D2F977001C0880F9A95EAF70E94FC1C6A
:10317000802F0E94E91CC830B8F4D77081E001C0EC
:10318000880FDA95EAF7DF91CF911F910F910C9498
:10319000031D80E28C0F883038F4C77081E001C0D5
:1031A000880FCA95EAF7EFCFDF91CF911F910F916A
:1031B00008950F939C01CB01243F4CE5340759F14E
:1031C000A8F4293DFCE53F0701F12A3D4CE5340711
:1031D000D1F1283D3C4591F406E221EE41EE68ED47
:1031E0007CE50E946D1880E00F910895263FFCE574
:1031F0003F07E9F0B0F0273F3C45F9F0FC01828140
:10320000882339F11092F203EFCF07E225EE45EE65
:1032100069ED7CE5E6CF06E221EE40EE64EF7CE569
:10322000E0CF07E225EE44EE65EF7CE5DACF06E27B
:1032300021EE42EE66EF7CE5D4CF07E225EE46EEC6
:1032400067EF7CE5CECF08E221E045EE6AED7CE554
:10325000C8CF81E0C9CFCF93DF93EC01FB0182811E
:10326000882309F419C1C230FCE5DF07C0F1C6317B
:103270009CE5D90730F09E012B5F3C452930310594
:1032800070F50E94BE259093750680937406C03138
:10329000ECE5DE0709F4CFC008F05BC0C8308CE570
:1032A000D80709F4B6C088F5C430ECE5DE0709F4A8
:1032B000A8C0C0F4C2308CE5D80709F49CC0809146
:1032C00074068260C330DC4509F498C080917406AE
:1032D000909175060E94CC250E94781F80E0DF91B6
:1032E000CF910895809174068061C630ECE5DE07C9
:1032F00009F484C0809174068860C730DC4508F406
:103300007DC080917406806279C0CC308CE5D8078E
:1033100009F489C070F4809174068C60CA30ECE5C1
:10332000DE0709F46BC008F478C0809174068E7FC4
:1033300065C0CE308CE5D80709F479C08091740659
:103340008B7FCF30DC4508F459C0809174068F7EA6
:1033500055C0CC3FECE5DE0709F457C030F5C3316A
:103360008CE5D80709F46FC078F4C131ECE5DE07CD
:1033700009F465C0C231DC4509F0A8CF0E94781F6E
:10338000809174068F773AC0C5318CE5D80709F46F
:1033900062C008F476C0809175068160CB3FDC4541
:1033A00009F094CF8093750691CFC115FDE5DF0735
:1033B00009F44DC088F4809175068D7FCE3F9CE561
:1033C000D90781F3809175068E7FCF3FDC4550F39E
:1033D000809175068360E6CFC230FDE5DF0709F412
:1033E00059C008F444C080E0C330DD4509F06ECF19
:1033F0000E9451266BCF8091740681608093740681
:1034000065CF809174068460F9CF809175068260E3
:10341000C9CF809174068064F1CF0E94781F80919B
:1034200074068068EBCF809174068D7FE7CF809122
:103430007406877FE3CF809174068F7DDFCF809104
:1034400074068F7BDBCF80917406837FD7CF80910A
:1034500075068C7FA7CF8091740682FB992790F91F
:1034600021E0922790FB82F990FB83F9C7CF8091EE
:103470007506982F909591708E7F892B90FB81F91E
:1034800091CF0E94781F90917406892F97FB87F93E
:103490008058B4CF81E0ACCF81E021CFCF93DF93D0
:1034A000EB0186319C4511F50E94F6249A819923FF
:1034B00099F08A7A91E009F490E09093F3038111F6
:1034C00009C089E20E94D1240E94422580E0DF9158
:1034D000CF91089585E3F6CF8091F303811104C065
:1034E00089E20E94D824F0CF85E3FBCF81E0EFCFC3
:1034F0009093F9038093F8030895E091F803F09115
:10350000F903309721F00190F081E02D099480E0DB
:103510000895E091F803F091F903309711F480E0F9
:1035200008950190F081E02D09950895E091F80348
:10353000F091F903309799F02091C802222359F0B5
:103540002091740627FF07C0DC012C9111962C9363
:10355000119725E02C930280F381E02D09940895C2
:10356000E091F803F091F903309739F022E0DC01A3
:103570002C930480F581E02D099408952091F603A1
:103580003091F7032817390771F09093F703809370
:10359000F603E091F803F091F903309721F00680EB
:1035A000F781E02D099408952091F4033091F503FB
:1035B0002817390771F09093F5038093F403E09195
:1035C000F803F091F903309721F00084F185E02DA4
:1035D0000994089585B7806885BF85B7806885BFE1
:1035E0000895089508950C94F11A08950C94F51A0D
:1035F0000E94EA1A0E94F21A0C94F31A81E00895CC
:103600000C94FE1A089508950E948A270E94AE061F
:103610000E943428E4E7F6E080818068808380910E
:103620007406909175060E94CC250C94F61A7F9230
:103630008F929F92AF92BF92CF92DF92EF92FF92C2
:103640000F931F93CF93DF93CDB7DEB72A970FB6B3
:10365000F894DEBF0FBECDBF0E94021B0E94031B69
:103660000E94DE060E94001B882309F471C04BEF04
:10367000A42E43E0B42E10E000E0702E802F0E94B4
:1036800089066C01F501819091905F018816990679
:1036900009F458C08091A90481FD0E94920680E03F
:1036A000EE24E394F12C8C249D2494012E213F21BF
:1036B000232B09F441C08E837F82CE20DF2081E05E
:1036C000CD2809F480E088870E9493278160782FB5
:1036D0009A8789874E815F8168858A850E94CD1B84
:1036E000000F111FF801E550FC4F80819181E82601
:1036F000F926F182E0820E94DF290E947D1A9091D2
:10370000FA038917B1F10E947D1A8093FA032A9671
:103710000FB6F894DEBF0FBECDBFDF91CF911F91E2
:103720000F91FF90EF90DF90CF90BF90AF909F9060
:103730008F907F900C946E048F5FEE0CFF1C803195
:1037400009F0B3CF0F5F1F4F0630110509F095CF79
:103750008FEF89838A831B820E9493278160782F51
:103760009D838C8349815A816B818D810E94CD1B01
:10377000C2CF2A960FB6F894DEBF0FBECDBFDF9141
:10378000CF911F910F91FF90EF90DF90CF90BF905E
:10379000AF909F908F907F900895CF93DF93CDB798
:1037A000DEB72B970FB6F894DEBF0FBECDBF4F83A9
:1037B000588769877A878B871E821D8285E0FE0184
:1037C0003796DE01119601900D928A95E1F74981B5
:1037D0005A816B817C818D819E812B960FB6F894E6
:1037E000DEBF0FBECDBFDF91CF910C94EE21FC0167
:1037F000808191810C94A324CF93C82F882309F44E
:1038000090C08238C1F40E947D1A81FD8AC089E38C
:103810000E94D1240E9442252FEF81EE94E0215096
:1038200080409040E1F700C0000089E30E94D82466
:10383000CF910C9442258338A1F40E947D1A80FD1B
:1038400070C083E50E94D1240E9442252FEF81EEB3
:1038500094E0215080409040E1F700C0000083E5F3
:10386000E5CF8438A1F40E947D1A82FD5AC087E416
:103870000E94D1240E9442252FEF81EE94E0215036
:1038800080409040E1F700C0000087E4CFCF8CEF8C
:103890008C0F813AB8F48C2F0E94462C811141C0C4
:1038A0006C2F8091B4029091B5020E946A26882301
:1038B00029F08C2F0E94D8240E9442258C2F0E9430
:1038C000D124B6CF80E28C0F883048F4C77081E0F5
:1038D00001C0880FCA95EAF70E94F924A9CFEBE549
:1038E000EC0FE33040F4F0E0EF5AFC4F808190E0C1
:1038F000CF910C94BE1AE8E5EC0FE73150F4F0E0FC
:10390000EE0FFF1FED5DFC4F80819181CF910C94F4
:10391000D41AC03F30F08C2F0E94D928CF910C943C
:10392000C429CF910895882309F452C0823871F4D4
:103930000E947D1A81FF4CC089E30E94D1240E941D
:10394000422589E30E94D8240C944225833859F4F7
:103950000E947D1A80FF3CC083E50E94D1240E9412
:10396000422583E5EFCF843859F40E947D1A82FF07
:103970002FC087E40E94D1240E94422587E4E2CF31
:103980009CEF980F913AF0F290E2980F983050F433
:10399000877091E001C0990F8A95EAF7892F0E94FC
:1039A000FF24D2CF9BE5980F933020F490E080E085
:1039B0000C94BE1A98E5980F973120F490E080E0BF
:1039C0000C94D41A803F20F00E9441290C94C42901
:1039D0000895CF93C82F0E94FC1BC93349F42FEFE1
:1039E00087EE93E0215080409040E1F700C0000056
:1039F0008C2FCF910C94931C882321F00E94F924E2
:103A00000C9442250895882321F00E94FF240C94F1
:103A100042250895BF92CF92DF92EF92FF920F93CB
:103A20001F93CF93DF936C01D62FC72FFC01058125
:103A300002950F70128111110E9416250E94EF2429
:103A4000E82E882391F01123D1F08C2F807F8034D1
:103A500021F080E28D0F883090F082E00E948D2569
:103A60000E94EF2491E0E82EE926BC2EB2949FE05C
:103A7000B922EB2DF0E0E65DFA4C0C94D033E12C4A
:103A8000F4CF0C2F0F70C07F11F00295007F11232F
:103A9000A9F0002359F080E28D0F883010F0D11189
:103AA00009C0802F0E94F9240E9442258D2F0E9478
:103AB000FC1B14C0802F0E940925F6CF8D2F0E9479
:103AC000931C002359F080E28D0F883010F0D11143
:103AD0002CC0802F0E94FF240E9442252B2D2850AD
:103AE000330B2430310520F40E947D1A0E946E04AD
:103AF000EE2009F49EC10E94EB2480FD9AC1F601DC
:103B000012820E94E5240E947223C6010E943A1F7D
:103B10000E94E524DF91CF911F910F91FF90EF90CC
:103B2000DF90CF90BF900C949323802F0E940F259D
:103B3000D3CFFC2FFF70FF2EC07FC03219F0F2945C
:103B400080EFF822DD2369F0D13049F1112391F1A2
:103B5000002351F1F601858180FFA8CF8F70858306
:103B600023C0112381F0011106C00E9429258F294D
:103B70000E94FC1CB3CF0130C1F70E9429258F2978
:103B80000E942F25ABCF011106C00E9438258F2D32
:103B90000E94031DA3CF013009F4A0CFF6CF11235B
:103BA00029F0063008F09ACF8F2DE2CF053008F0CB
:103BB00095CFEDCF002359F3D93349F4FFEF27EE2A
:103BC00033E0F15020403040E1F700C000008D2F7D
:103BD0000E94931C83CF8C2F86958695837069F005
:103BE000813009F07BCF8D2F9C2F9370111102C073
:103BF00090E080E00E94D41A71CF8D2F9C2F93709B
:103C0000111102C090E080E00E94BE1A67CF8D2F94
:103C1000112329F00E94D9280E94C4295FCF0E9455
:103C20004129FACF8C2F837009F041C0111156CF72
:103C30004D2F429546954770440F440F0D2F0F703E
:103C400010E030E020E0042E04C0000F111F221FFE
:103C5000331F0A94D2F760E070E0CB01D4FF0FC0AD
:103C60006FE070E080E090E004C0660F771F881F6F
:103C7000991F4A95D2F76095709580959095C69555
:103C8000C695C370602B712B822B932BC23049F0E9
:103C900058F4C13019F00E94242320CF0E9412232F
:103CA0001DCF0E9436231ACF0E94102317CF86956E
:103CB000112311F08C2F8170882309F40FCF4D2F21
:103CC000429546954770440F440F0D2F0F7010E03A
:103CD00030E020E0042E04C0000F111F221F331F0C
:103CE0000A94D2F760E070E0CB01D4FF0FC06FE020
:103CF00070E080E090E004C0660F771F881F991F76
:103D00004A95D2F76095709580959095C695C69521
:103D1000C370602B712B822B932BC23049F058F467
:103D2000C13019F00E94E923D9CE0E94D723D6CE04
:103D30000E94FB23D3CE0E944C23D0CECF70112300
:103D400029F08C2F0E9472238D2F12CF8D2F0E946D
:103D5000031D8C2F0E949323C1CED23F89F160F4C2
:103D6000D03FC9F0D13F29F1112309F442C001111C
:103D70009DCE8C2F8F7121C0D33F39F1D43FA1F755
:103D8000112369F1CF718C2F0E94722363E08C2F75
:103D90000E947825A3CE112341F0053008F09ECE75
:103DA0008C2F8F710E94B62399CE063008F096CEE4
:103DB000F7CF8C2F8F71112369F20E9472238ECE60
:103DC0008C2F8F711123C9F3C5CF112329F08C2FAC
:103DD0008F710E945D2382CE0E9458237FCE81E0A6
:103DE0000E948D25023008F479CE82E00E948D2554
:103DF00075CE002359F0D93309F0E9CE8FEF97EE55
:103E0000E3E081509040E040E1F7DFCE8C2F8F71EE
:103E1000A1CF4C2F4F706D2FC6010E949A030E94B4
:103E200088225CCE4C2F4F706D2FC6010E94760405
:103E300055CEDF91CF911F910F91FF90EF90DF90C2
:103E4000CF90BF9008950F931F93CF93DF93EC0112
:103E5000688179818A810E94AD248C010E940D24A1
:103E60000E940F23B801CE01DF91CF911F910F91D6
:103E70000C940A1DCF93DF93EC018B819C81892BDD
:103E800029F08881998189238F3F59F4DF91CF915F
:103E90000895CE010E94231FCE01DF91CF910C9493
:103EA000F403CE010E941F048111F3CF0E94EF247E
:103EB000882361F38A81882349F382E0DF91CF91DF
:103EC0000C948D250E9416250E9426250E944225CD
:103ED0000E94EB2A0E94C42990E080E00E94BE1A52
:103EE00090E080E00C94D41A0E94DF240C94621FAE
:103EF0000E9406250C94741FE92FE295EF70E250A2
:103F0000EE3070F4F0E0E65CFA4C0C94D033803F75
:103F100019F020F4883E20F481E00895843FE1F315
:103F200080E00895883EC0F3813FD1F7F5CF93FB41
:103F3000882780F908950E94A3240C947C1FCF93B6
:103F4000DF9300D000D00F92CDB7DEB70F900F9067
:103F50000F900F900F90DF91CF910895CF93DF9343
:103F600000D000D000D0CDB7DEB726960FB6F894BB
:103F7000DEBF0FBECDBFDF91CF9108951F93CF93CA
:103F8000DF93C091080416E0809109048C1304C0EB
:103F9000DF91CF911F910895D0E01C9FF0011D9FEC
:103FA000F00D1124E65FFB4F4081518162817381E6
:103FB000848195810E94AE1F2196C770E5CF409104
:103FC0003A0450913B0460913C0470913D0480910F
:103FD0003E0490913F040C94AE1F1F93CF93DF9348
:103FE00080913F04807FA9F480913C04882389F06C
:103FF00080910804C091090460913A0470913B04D7
:10400000A0913D04B0913E04D62FD72316E0C813EB
:1040100004C0DF91CF911F91089590E0109711F0A7
:10402000DF3F19F401968770F2CF189F9001199F16
:10403000300D1124F901E65FFB4F41814713F2CFA8
:1040400040814613EFCF42814111ECCF438154812F
:104050004A1B5B0B483C510528F780913F048F7049
:10406000806180933F04F901E15FFB4F80818F7095
:10407000806180838AE394E00E943A1FDF91CF91B0
:104080001F910C94BE1FAF92BF92CF92DF92EF921E
:10409000FF920F931F93CF93DF93CDB7DEB7619756
:1040A0000FB6F894DEBF0FBECDBF8C0185E0F801DE
:1040B000DE011D9601900D928A95E1F7F80140818D
:1040C0005181E2808AE3C82E84E0D82E60913D04BD
:1040D00070913E046115710509F461C190913A0433
:1040E00020913B04892F82238F3F09F458C1A3807C
:1040F000B480F0903C04F501E61BF70BFF2009F4B7
:10410000FCC080913F04382F307FE83CF10508F077
:10411000B2C0311179C0FE2C251323C0941321C0E5
:10412000E1101FC08F70806180933F040E94DF1FE9
:10413000C6010E943A1F80913F04F80185838F2DAC
:1041400061960FB6F894DEBF0FBECDBFDF91CF9161
:104150001F910F91FF90EF90DF90CF90BF90AF90A5
:104160000895AB2829F0842F85238F3F09F033C1B0
:1041700080E0F82FF170DF2E80FF3CC080910804B2
:104180002091090436E0821315C04D875E878D8526
:104190009E850E94A324292F22952F702230F0F0B3
:1041A000243018F59F70F1F0F8019581907FD1F4DB
:1041B000D12C1EC090E0389FF001399FF00D1124E2
:1041C000E65FFB4F6181651306C06081641303C025
:1041D00062816E110FC001968770D5CF9F7011F06C
:1041E000882331F3805E883018F3C8010E943A1F9B
:1041F000FD2CA5CFEE2009F4A2CF80913F04816071
:1042000080933F04F12C9BCF251306C0941304C068
:10421000F801EE2009F48DC04D875E878D859E855F
:104220000E949B1F882319F1EE2009F180913F0421
:10423000803270F020913A0430913B0438872F830C
:104240001986BB86AA868C87CE0107960E943A1FE4
:1042500086E0F801AAE3B4E001900D928A95E1F7B7
:104260000E94ED1F0E94DF1FFF24F39468CFC80156
:104270000E943A1FF9CF311113C07A2DB98AA88A4A
:104280006E2D89890E949F1F8AE394E00E943A1F45
:1042900086E0F60111928A95E9F70E94DF1FB2CFFE
:1042A00025130FC094130DC0E1100BC0F8018583D6
:1042B000C8010E943A1F86E0F60111928A95E9F73B
:1042C0003ECF4D875E878D859E850E949B1F8823EC
:1042D00071F2EE2061F280913F04803208F4B8CF91
:1042E00020913A0430913B043A8329831B82BD829A
:1042F000AC828E83CE010196A9CFE83CF10508F08F
:1043000041C0FE2CEE2009F4B2CF25132AC094132D
:1043100028C080913F0480FD1BC0982F907FC1F082
:10432000F8018583903F31F0982F907F905F8F70D8
:10433000892B8583C8010E943A1F86E0F801AAE311
:10434000B4E001900D928A95E1F70E94DF1FF7CE4D
:1043500086E0F801AAE3B4E001900D928A95E1F7B6
:10436000EECE4D875E878D859E850E949B1F8111B5
:104370006FCF80913F04816080933F04C8010E9409
:104380003A1FDDCE7A2DB98AA88A6E2D89890E94BE
:104390009F1F86E0F60111928A95E9F7D6CFEE20AD
:1043A00009F465CF4D875E878D859E850E949B1F92
:1043B000F82E882309F45BCF86E0F801AAE3B4E085
:1043C00001900D928A95E1F78AE394E00E94F71B31
:1043D0000E94ED1FBACF81E08E25CBCE1F93CF93E5
:1043E000DF93CDB7DEB72C970FB6F894DEBF0FBEC4
:1043F000CDBF4F83588769877A878B879C87CE018B
:1044000007960E944320882369F08A859B85892B23
:1044100039F04F815885842F85238F3F09F071C073
:1044200016E05FC086E0FE013796DE01119601902E
:104430000D928A95E1F78A859B85892B89F388857A
:104440009F8189238F3F61F32091090430E0C901E6
:10445000019687709927409108044817190671F44E
:104460000E94781F109209041092080486E0EAE383
:10447000F4E0DF011D928A95E9F7D2CF96E0929F92
:10448000D001939FB00D1124A65FBB4FFE01319662
:1044900001900D929A95E1F7809309040E94BE1F46
:1044A000BFCF819FC0011124865F9B4F0E94432094
:1044B0008823E9F0E09108041E9FF0011124E65FD3
:1044C000FB4F4081518162817381848195810E947B
:1044D000AE1F8091080490E0019687709927809321
:1044E000080480910804909109048913DACF2C966E
:1044F0000FB6F894DEBF0FBECDBFDF91CF911F91F5
:10450000089569857A858B859C850E94AE1F88CF2A
:10451000EF92FF920F931F93CF93DF938C01892B20
:1045200081F0F12CEE24E394E8012196F8018491C6
:10453000843770F4843008F05FC08130B1F082308D
:10454000A1F1DF91CF911F910F91FF90EF9008950E
:10455000853709F44CC008F43DC09CE7980F9037AC
:1045600080F78F770E94931C49C00E5F1F4FFE019A
:10457000849190E2980F983060F48770FE2D01C00E
:10458000FF0F8A95EAF78F2F0E9419250E94422576
:1045900002C00E94FC1B8F2D815030F2EFE9FFE03A
:1045A0003197F1F700C00000F7CF0E5F1F4FFE01FB
:1045B000849190E2980F983050F48770FE2D01C0DE
:1045C000FF0F8A95EAF78F2F0E941F25DFCF0E94E9
:1045D000931CE1CF0E5F1F4FFE01C491C150D8F272
:1045E0008FE99FE00197F1F700C00000F7CF0E5F61
:1045F0001F4FFE01F490CFCF0E94FC1B8E01CBCF4A
:1046000008950C9400230E9401236093800470930A
:10461000810480938204909383040C94621F089514
:104620000C9403230F931F93009180041091810435
:104630002091820430918304602B712B822B932B69
:104640001F910F910C9403230F931F9300918004EB
:10465000109181042091820430918304602371239E
:10466000822393231F910F910C9403230F931F9385
:104670000091800410918104209182043091830480
:1046800060277127822793271F910F910C94032392
:104690000C9400230C9448230E944A2360937C04CA
:1046A00070937D0480937E0490937F040C94621F2A
:1046B00060E070E0CB010C944C230F931F9341E01A
:1046C00050E060E070E08A019B0104C0000F111F00
:1046D000221F331F8A95D2F7C901B8011F910F918C
:1046E0000C944C230F931F9341E050E060E070E086
:1046F00004C0440F551F661F771F8A95D2F780911B
:104700007C0490917D04A0917E04B0917F048A0185
:104710009B01082B192B2A2B3B2BC901B8011F9198
:104720000F910C944C230F931F9341E050E060E0F5
:1047300070E004C0440F551F661F771F8A95D2F79B
:10474000CB01BA01609570958095909500917C049D
:1047500010917D0420917E0430917F0460237123A9
:10476000822393231F910F910C944C230F931F933B
:1047700041E050E060E070E004C0440F551F661F48
:10478000771F8A95D2F780917C0490917D04A09147
:104790007E04B0917F048A019B01082719272A27EC
:1047A0003B27C901B8011F910F910C944C230F9323
:1047B0001F9300917C0410917D0420917E04309120
:1047C0007F04602B712B822B932B1F910F910C94E4
:1047D0004C230F931F9300917C0410917D04209132
:1047E0007E0430917F0460237123822393231F91E1
:1047F0000F910C944C230F931F9300917C04109104
:104800007D0420917E0430917F04602771278227E8
:1048100093271F910F910C944C2308959295907FAC
:10482000890F982F977041E001C0440F9A95EAF7DD
:1048300086958695869595E0899FF0011124E05C28
:10484000FB4F30E020E070E05191DF011197CB0188
:10485000022E02C0969587950A94E2F781708195A1
:104860008527842385278C932F5F3F4F2530310583
:1048700059F708959295907F890F982F9770869594
:104880008695869525E0829FF0011124E05CFB4F20
:1048900050E040E080E0219130E0092E02C03695E2
:1048A00027950A94E2F721703327042E01C0220FC6
:1048B0000A94EAF7822B4F5F5F4F4530510559F755
:1048C0000895BF92CF92DF92EF92FF920F931F93C2
:1048D000CF93DF938C01C0907C04D0907D04E09056
:1048E0007E04F0907F048091800490918104A091D7
:1048F0008204B0918304C82AD92AEA2AFB2ACFE18C
:10490000D0E0BC2ED701C6010C2E04C0B695A795E9
:10491000979587950A94D2F780FD0EC0219788F766
:10492000B12C8B2DDF91CF911F910F91FF90EF90C4
:10493000DF90CF90BF900895B8018C2F0E9494040F
:10494000019761F3EECFCF93DF93EC010E946124D6
:10495000BE01DF91CF910C9494041F93CF93DF930A
:10496000EB0190910704992331F0CB01DF91CF91B6
:104970001F910C94A324882379F0CB010E94612419
:10498000182F682FCE010E940E24BE01812FDF91C7
:10499000CF911F910C949404CB010E943A24182FBC
:1049A000F4CF682F8091B4029091B5020C94EA265E
:1049B000682F8091B4029091B5020C94F5268091F5
:1049C000B4029091B5020C940027809184048595DF
:1049D00085958595089580918404877008959091B8
:1049E0008404977081E009F480E008958091A80420
:1049F00008959091A804892B8093A8040895809528
:104A00009091A80498239093A80408951092A80464
:104A100008959091A704892B8093A7040895809509
:104A20009091A70498239093A70408951092A70447
:104A300008959091A604892B8093A60408958095EB
:104A40009091A60498239093A60408951092A6042A
:104A5000089580918504089508950C942C259091D3
:104A60008504981721F0809385040C942D250895D2
:104A700080918504882329F01092850480E00C94AD
:104A80002D250895E091B402F091B5028091A8041B
:104A90008083E091B402F091B50280819091A704E7
:104AA000892B8083E091B402F091B50280819091CE
:104AB000A604892B808390918504992381F0E0914D
:104AC000B402F091B5028081892B80838091B40279
:104AD0009091B5020E94562681110E94382580913E
:104AE000B4029091B5020C94961A08950C94752511
:104AF00098E0899F90011124622B609384040E94A6
:104B00007223809184048595859585950C947625EE
:104B10001092840480E00C94762590918404809512
:104B2000892380938404282F277071F4282F082E5E
:104B3000000C330B9217130639F0859585958595F2
:104B40000E9493230C94882508956FEF7FEF90E0E7
:104B500080E00C94C53490E080E00E94913421E024
:104B60008C3E9E4F09F020E0822F089582E090E075
:104B70000C94893483E090E00C948934CF9384E0E2
:104B800090E00E948934C82F81E290E00E9489342D
:104B9000982F8C2FCF910895CF93C92F682F84E041
:104BA00090E00E94A7346C2F81E290E0CF910C94AA
:104BB000A734AB01BC018FE090E00C94B934AB0199
:104BC000BC0183E190E00C94B93460E070E0CB016B
:104BD0000C94DF2560E070E0CB010E94D9250C9495
:104BE000E5256CEE7EEF90E080E00E94C53460E049
:104BF00082E090E00E94A73460E083E090E00E94B1
:104C0000A7341092800410928104109282041092B2
:104C1000830460E084E090E00E94A73460E081E2D9
:104C200090E00E94A73460E085E090E00E94A73405
:104C300060E086E090E00E94A7346FEF87E090E0AC
:104C40000E94A73440E050E0BA0188E090E00E9462
:104C5000B93460E08DE090E00E94A73440E050E07D
:104C6000BA0188E190E00E94B93460E087E190E009
:104C70000E94A73440E050E0BA018CE190E00E942D
:104C8000B93460E080E290E00E94A73440E050E058
:104C9000BA0188E190E00E94B9340C94EA250C94A2
:104CA000F125682F8EE090E00C94A734FC01329639
:104CB0008091C802882321F0809174069EE187FFCD
:104CC00096E080E0915008F4089521912223D1F3D9
:104CD0008F5FF8CF662301F12091C8022223F1F003
:104CE0002091740627FF1AC0462F46954695469593
:104CF0004E3190F4677021E030E002C0220F331F84
:104D00006A95E2F7840F911DFC01828190E02823CF
:104D1000392381E0232B69F480E00895FC01329669
:104D200008962191261721F0E817F907D1F7F4CF5B
:104D300081E008959C01FC0132969FEF80E0419153
:104D4000461751F09F3F19F4411101C0982F8F5F12
:104D50008630A9F79F3F09F40895290F311D97FD6B
:104D60003A95F90162830895FC01329608962191E3
:104D7000261303C0DF0111971C92E817F907B9F752
:104D80000895E62FE695E695E695EE3168F4E80F8E
:104D9000F92FF11D677021E030E001C0220F6A9504
:104DA000EAF78281822B82830895E62FE695E695C5
:104DB000E695EE3170F4E80FF92FF11D677021E0F0
:104DC00030E001C0220F6A95EAF7209582812823FE
:104DD000228308952091C802222329F0209174068D
:104DE00027FD0C94C1260C949A262091C8022223F8
:104DF00029F02091740627FD0C94D5260C94B42636
:104E0000FC0132968091C802882351F0809174068B
:104E100087FF06C08EE1DF011D928A95E9F70895AC
:104E200086E0F9CF089508950E94700380917A0674
:104E3000843049F11092AA0488E190E020E40FB692
:104E4000F894A895809360000FBE2093600080E0E6
:104E50000E946E040E94700383B7817F846083BFC9
:104E600083B7816083BF7894889583B78E7F83BF33
:104E70000FB6F894A89580916000886180936000D7
:104E8000109260000FBE08950895CF930E941227DC
:104E90000E94DE060E944427C0E08C2F0E948906F3
:104EA000892B31F4CF5FC630C1F780E0CF910895F0
:104EB00081E0FCCF08950E94781F0E947D1A0E9415
:104EC0006E040C9475031F921FB61F9211248F93CA
:104ED0009F93AF93BF938091AA04811113C08091D7
:104EE000700690917106A0917206B091730641967A
:104EF000A11DB11D8093700690937106A093720658
:104F0000B0937306BF91AF919F918F911F901FBE79
:104F10001F90189582E084BD93E095BD9AEF97BDF0
:104F200080936E0008952FB7F89480917006909149
:104F30007106A0917206B09173062FBF08952FB726
:104F4000F89460917006709171068091720690914C
:104F500073062FBF08959C014FB7F8948091700697
:104F600090917106A0917206B09173064FBF821B9B
:104F7000930B0895CF92DF92EF92FF922FB7F894A0
:104F8000C0907006D0907106E0907206F0907306A3
:104F90002FBFA7019601261B370B480B590BCA01DF
:104FA000B901FF90EF90DF90CF90089578941F9211
:104FB0001FB61F9211248F939F93AF93BF9380913D
:104FC000700690917106A0917206B09173060196D9
:104FD000A11DB11D8093700690937106A093720677
:104FE000B0937306BF91AF919F918F911F901FBE99
:104FF0001F90189581E08093E00080E28093D800B4
:105000001092C9008FE19EE40197F1F700C0000003
:1050100087E090EBDC018093830690938406A09355
:105020008506B093860688E19CE00FB6F894A895B3
:10503000809360000FBE90936000FFCF0C94A52575
:105040000E94DE068FE39CE90197F1F700C00000A3
:105050000E94DE0680E00E94890680FF04C00E9454
:105060001E280C94FA2708950E94AB25811102C0D6
:105070000E944F260E94B6258093A9040E94BE2557
:1050800090937506809374060E94BA25682F70E08D
:1050900090E080E00E94102360917C0470917D0478
:1050A00080917E0490917F040C944A238091B104F6
:1050B00080FF12C06091BB0285E0689FB00111249F
:1050C000759567957595679560387105A8F56115B3
:1050D0007105A1F1862F089581FF09C06091BB027F
:1050E00085E0689FB001112475956795EDCF6091BB
:1050F000BB0282FD0AC08091B0048823D1F0909158
:10510000BA026091BB02891728F085E0689FB00160
:105110001124DACF869FB001112485E0869F90018B
:10512000879F300D1124692F70E0C9010E949D33C3
:10513000CBCF65E070E0CECF8FE7089581E0089592
:105140008091B10480FF0CC06091B70270E075954A
:105150006795759567956115710549F1862F0895D5
:1051600081FF06C06091B70270E075956795F3CF37
:105170006091B70282FD0BC09091AF049923A1F01A
:105180006091B6028091B702961738F0682F70E0F0
:105190006038710500F38FE70895899FC0011124DD
:1051A00070E00E949D33F4CF61E070E0D7CF81E0E2
:1051B0000895803F31F40E94562881958093B5046C
:1051C0000895813F19F40E945628F8CF823F31F4A8
:1051D0000E94562881958093B4040895833F19F462
:1051E0000E945628F8CF893F29F40E94A028809376
:1051F000B60408958A3F21F40E94A0288195F7CF34
:105200008B3F31F40E94A02881958093B7040895C4
:105210008C3F19F40E94A028F8CF843F31F480918C
:10522000B30481608093B3040895853F21F4809195
:10523000B3048260F7CF863F21F48091B304846089
:10524000F1CF873F21F48091B3048860EBCF883F92
:1052500021F48091B3048061E5CF8D3F31F48091DA
:10526000B10481608093B10408958E3F21F4809150
:10527000B1048260F7CF8F3FB9F78091B1048460A9
:10528000F1CF9091B404803F59F48091B50487FF29
:105290000DC01092B50491110BC01092B00408C05B
:1052A000813F81F48091B50418169CF3992381F015
:1052B0008091B6049091B704892B09F064C01092D4
:1052C000AF040895823F49F497FFF0CF1092B404E1
:1052D0008091B5048111ECCFE0CF833F19F419160A
:1052E000ACF3E4CF2091B604893F29F41216F4F60A
:1052F0001092B604DBCF8A3F19F427FFD7CFF8CF3F
:105300002091B7048B3F29F427FFD0CF1092B70428
:10531000CDCF8C3F19F41216CCF3C8CF843F31F4B3
:105320008091B3048E7F8093B304C0CF853F21F476
:105330008091B3048D7FF7CF863F21F48091B30431
:105340008B7FF1CF873F21F48091B304877FEBCF30
:10535000883F21F48091B3048F7EE5CF8D3F31F4F7
:105360008091B1048E7F8093B104A0CF8E3F21F451
:105370008091B1048D7FF7CF8F3F09F097CF809157
:10538000B1048B7FF0CF08950E9493279C019091E8
:10539000B4048091B504982B21F03093AE0420938F
:1053A000AD049091B6048091B704982B21F030930E
:1053B000AC042093AB0482EB94E00C94B01AEF920F
:1053C000FF920F931F93CF93DF9300D000D000D0B4
:1053D000CDB7DEB786E0E2EBF4E0DE011196019096
:1053E0000D928A95E1F7E090B404F090B504009135
:1053F000B6041091B7041092B4041092B504109240
:10540000B6041092B7048E2D8F2991F08091AD04CF
:105410009091AE040E94AB27AC019091B004992307
:1054200009F43FC08091BC028417150608F447C0F8
:10543000802F812B91F08091AB049091AC040E945D
:10544000AB27AC019091AF04992309F477C0809108
:10545000B8028417150608F47FC08091B4049091B7
:10546000B504892B9091B604892B9091B704892BB0
:1054700011F00E94C42986E0FE013196A2EBB4E04F
:1054800001900D928A95E1F726960FB6F894DEBF4B
:105490000FBECDBFDF91CF911F910F91FF90EF9085
:1054A00008952091BD028AE0289F900111242417BD
:1054B000350708F0BDCF9F5F9093B00402C09F3FB7
:1054C000D1F7EE2059F00E9456289FEF1E140CF4DD
:1054D00091E0899F802D11248093B404FF2059F01E
:1054E0000E9456289FEF1F140CF491E0899F802D95
:1054F00011248093B5043091B404332309F498CF78
:105500002091B504222309F493CF45EB3403C00165
:105510001124992359F09093B40445EB240390018E
:105520001124332339F03093B50482CF81E0809386
:10553000B404F3CF81E08093B5047ACF2091B9020F
:105540008AE0289F900111242417350708F085CFA1
:105550009F5F9093AF0402C09F3FD1F7002359F0A3
:105560000E94A0289FEF10160CF491E0899F802DD7
:1055700011248093B604112359F00E94A0289FEFB4
:1055800011160CF491E0899F802D11248093B704AB
:105590003091B604332309F460CF2091B70422235D
:1055A00009F45BCF45EB3403C0011124992359F072
:1055B0009093B60445EB240390011124332339F072
:1055C0003093B7044ACF81E08093B604F3CF81E0F3
:1055D0008093B70442CF86E0E2EBF4E0DF011D9256
:1055E0008A95E9F71092B0041092AF041092B104BA
:1055F0000895833081F128F4813059F08230D1F060
:105600000895853009F449C0B8F1863009F456C0D0
:1056100008958091BD02482F460F5527551F4F3FD3
:10562000510524F4680F6093BD0208958FEF8093B5
:10563000BD0208958091BC02482F460F5527551F83
:105640004F3F510524F4680F6093BC0208958FEF1B
:105650008093BC0208958091BB02482F460F5527C6
:10566000551F4F3F510524F4680F6093BB02089506
:105670008FEF8093BB0208958091BA02482F460FA6
:105680005527551F4F3F510524F4680F6093BA0208
:1056900008958FEF8093BA0208958091B702482F42
:1056A000460F5527551F4F3F510524F4680F60934F
:1056B000B70208958FEF8093B70208958091B602E4
:1056C000482F460F5527551F4F3F510524F4680FAB
:1056D0006093B60208958FEF8093B60208958330E9
:1056E00011F128F4813049F0823091F0089585302D
:1056F00081F120F18630C1F108958091BD026817D3
:1057000020F4861B8093BD0208951092BD02089577
:105710008091BC02681720F4861B8093BC02089518
:105720001092BC0208958091BB02681720F4861B7A
:105730008093BB0208951092BB0208958091BA0233
:10574000681720F4861B8093BA0208951092BA025B
:1057500008958091B702681720F4861B8093B702E2
:1057600008951092B70208958091B602681720F448
:10577000861B8093B60208951092B60208950F9387
:105780001F9341E050E060E070E08A019B0104C09B
:10579000000F111F221F331F8A95D2F7C901B801CC
:1057A0000E9410231F910F910C94781FEBEFE80FCC
:1057B000EF3308F05AC0F0E0E85BFA4C0C94D033B9
:1057C0000E944F2681E008958091A904807F8093F4
:1057D000A90481E08093B90408950E941004F2CFD7
:1057E0009091A904892F8E7F90FF81608093A904F6
:1057F00080FDE8CF817F8093A904E4CF9091A90434
:10580000892F8D7F91FF82608093A90481FFDACF79
:105810008091A9048160EFCF9091A904892F8B7F9B
:1058200092FF84608093A90482FDF2CFCBCF909148
:10583000A904892F877F93FF88608093A90483FD43
:10584000E7CFC0CF0E94781F90917406892F97FBF5
:1058500087F9805880937406B5CF80E00E94BF2BF3
:10586000B1CF8953FBCF8D51F9CF80E0089580E00F
:1058700008950C94372C8E518A3030F4E82FF0E0E4
:10588000EC5AFC4F8081089580E00895CF93C82F93
:105890008091B9048130B9F0882331F08230A1F1D0
:1058A0001092B90480E00DC00E94F6248232D1F734
:1058B0008C2F0E94372C81111BC08C2F0E94D62B5D
:1058C0008170CF9108950E94F624823289F38C2F43
:1058D0000E94392C81110AC0C43199F060F4CB3098
:1058E00029F0C03169F782E08093B90481E0E8CF04
:1058F00081E090E0E5CFC93221F0C833B9F380E010
:10590000DFCF1092B904FBCFC93219F188F4C4314A
:1059100001F120F4C73081F181E0D3CF82EE8C0F0A
:105920008630D0F78C2F0E943B2C8093B804F4CFA4
:10593000CE3401F140F46AE0CB3471F78091B804C1
:105940000E94F92AE9CFC13579F061E0C235B1F39F
:10595000E3CF8091B804882319F01092B804DCCF0B
:1059600081E08093B904ADCF61E08091B8040E94DA
:105970006F2BD2CF6AE0F9CF8EE18093BD0282E334
:105980008093BC028AE08093BB0284E18093BA02D8
:1059900088E08093B70288E28093B602BDCF809101
:1059A000DA040895CF93DF9300D00F92CDB7DEB71E
:1059B00090917A06943019F589837B836A8382E01B
:1059C0008093E9008FEF9091E800815095FD06C02B
:1059D00095ED9A95F1F700008111F5CF8091E800DF
:1059E00085FF0DC050E040E063E070E0CE0101961D
:1059F0000E94F72E8091E8008E778093E8000F9048
:105A00000F900F90DF91CF910895BC0184E00C942A
:105A1000D22CBC0183E00C94D22C9C0182E08093B8
:105A2000E9009FEF8091E800915085FD06C085ED6B
:105A30008A95F1F700009111F5CF8091E80085FF7C
:105A40000CC050E040E066E070E0C9010E94F72E13
:105A50008091E8008E778093E8000895CF93DF93DC
:105A6000EC018091C8028823B1F18091740687FF10
:105A700032C060E282E08093E9008FEF9091E8000D
:105A8000815095FD06C095ED9A95F1F700008111C2
:105A9000F5CF8091E80085FF1BC08091C80270E0BF
:105AA00050E040E0811104C050E040E068E070E068
:105AB000CE010E94F72E8091E8008E778093E80057
:105AC00080E2FE01AAEBB4E001900D928A95E1F725
:105AD000DF91CF91089568E081E0CDCF8091790684
