:100000000C945B0A0C94A20A0C94A20A0C94A20A07
:100010000C94A20A0C94A20A0C94A20A0C94A20AB0
:100020000C94A20A0C94A20A0C94E1330C94B434FC
:100030000C94FC290C94A20A0C94A20A0C94A20A17
:100040000C94A20A0C94A20A0C94A20A0C94A20A80
:100050000C94A20A0C948E2A0C94A20A0C94A20A64
:100060000C94A20A0C94A20A0C94A20A0C94A20A60
:100070000C94A20A0C94A20A0C94A20A0C94A20A50
:100080000C94A20A0C94A20A0C94A20A0C94A20A40
:100090000C94A20A0C94A20A01140214011A021A66
:1000A00001080208011502150117021700011E02BE
:1000B0001E011F021F012001210220012202210234
:1000C000220029003A003B003C003D003E003F007A
:1000D0004000410042004300440045004600470004
:1000E0004800000000000000000035001E001F0056
:1000F00020002100220023002400250026002700E4
:100100002D002E0049004A004B00000000000000B6
:1001100000002B0014001A000800150017001C0036
:1001200018000C00120013002F0030004C004D008E
:100130004E0000000000000000003900040016001E
:10014000070009000A000B000D000E000F0033002D
:10015000340028002A000000000000000000000019
:100160000000E10000001D001B0006001900050052
:1001700011001000360037003800E5003100520051
:10018000E4000000000000000000E000E300E200E6
:100190000000000000002C00000000000000E6004D
:1001A000E7000151500051004F0000000000000026
:1001B000000000000000000000000000000000003F
:1001C000000000000000000000000000000000002F
:1001D00000000000000000000000010000300130BD
:1001E000010001000100010001000100A900AA00B6
:1001F000A800010001000100010000000000000053
:1002000000000100C35CC45CC65CC75CC85CC95C20
:10021000CA5CCB5C0100010001000100010001008B
:1002200001000000000000000000010001000100CA
:1002300001000100010001000100010001000100B6
:1002400001000100010001000100000000000000A9
:100250000000010001000100010001000100010097
:100260000100010001000100010001000100000087
:10027000000000000000000000000100000001007C
:100280000100010001000100010001000100010066
:10029000010001000100BF5C01000000000000003F
:1002A000000001000100010000000000000001004A
:1002B000000000000000010001000051C05CBE5CB5
:1002C000C15C000000000000000000000000000011
:1002D000000000000000000000000000000000001E
:1002E000000000000000000000000000000000000E
:1002F00000000100010001000100010001000100F7
:1003000001000100010001000100010001000100E5
:1003100001000000000000000000010001000100D9
:1003200001000100010001000100010001000100C5
:1003300001000100010001000100000000000000B8
:1003400000000100010001000100010001000100A6
:100350000100010001000100010001000100010095
:100360000100000000000000000001000100010089
:100370000100010001000100010001000100010075
:10038000010001000100000000000000000000006A
:100390000000010000000100010001000100010057
:1003A0000100010001000100010001000100010045
:1003B0000100000000000000000001000100010039
:1003C000000000000000010000000000000001002B
:1003D0000100010001000100010000000000000018
:1003E000000000000000000000000000000000000D
:1003F00000000000000000000000000000000000FD
:1004000000000000000000000000010001000100E9
:1004100001000100010001000100010001000100D4
:1004200001000100010001000100000000000000C7
:1004300000000100010001000100010001000100B5
:1004400001000100010001000100010001000100A4
:100450000100000000000000000001000100010098
:100460000100010001000100010001000100010084
:100470000100010001000100010000000000000077
:100480000000010001000100010001000100010065
:100490000100010001000100010001000100000055
:1004A000000000000000000000000100000001004A
:1004B0000100010001000100010001000100010034
:1004C0000100010001000100010000000000000027
:1004D0000000010001000100000000000000010018
:1004E0000000000000000100010001000100010007
:1004F00001000000000000000000000000000000FB
:1005000000000000000000000000000000000000EB
:1005100000000000000000000000000000000000DB
:1005200000000100010001000100010001000100C4
:1005300001000100010001000100010001000100B3
:1005400001000000000000000000010001000100A7
:100550000100010001000100010001000100010093
:100560000100010001000100010000000000000086
:100570000000010001000100010001000100010074
:100580000100010001000100010001000100010063
:100590000100000000000000000001000100010057
:1005A0000100010001000100010001000100010043
:1005B0000100010001000000000000000000000038
:1005C0000000010000000100010001000100010025
:1005D0000100010001000100010001000100010013
:1005E0000100000000000000000001000100010007
:1005F00000000000000001000000000000000100F9
:1006000001000100010001000100000000000000E5
:1006100000000000000000000000000000000000DA
:1006200000000000000000000000000000000000CA
:1006300000000000000000000000010001000100B7
:1006400001000100010001000100010001000100A2
:100650000100010001000100010000000000000095
:100660000000010001000100010001000100010083
:100670000100010001000100010001000100010072
:100680000100000000000000000001000100010066
:100690000100010001000100010001000100010052
:1006A0000100010001000100010000000000000045
:1006B0000000010001000100010001000100010033
:1006C0000100010001000100010001000100000023
:1006D0000000000000000000000001000000010018
:1006E0000100010001000100010001000100010002
:1006F00001000100010001000100000000000000F5
:1007000000000100010001000000000000000100E5
:1007100000000000000001000100010001000100D4
:1007200001000000000000000000000000000000C8
:1007300000000000000000000000000000000000B9
:1007400000000000000000000000000000000000A9
:100750000000010001000100010001000100010092
:100760000100010001000100010001000100010081
:100770000100000000000000000001000100010075
:100780000100010001000100010001000100010061
:100790000100010001000100010000000000000054
:1007A0000000010001000100010001000100010042
:1007B0000100010001000100010001000100010031
:1007C0000100000000000000000001000100010025
:1007D0000100010001000100010001000100010011
:1007E0000100010001000000000000000000000006
:1007F00000000100000001000100010001000100F3
:1008000001000100010001000100010001000100E0
:1008100001000000000000000000010001000100D4
:1008200000000000000001000000000000000100C6
:1008300001000100010001000100000000000000B3
:1008400000000000000000000000000000000000A8
:100850000000000000000000000000000000000098
:100860000000000000000000000001000100010085
:100870000100010001000100010001000100010070
:100880000100010001000100010000000000000063
:100890000000010001000100010001000100010051
:1008A0000100010001000100010001000100010040
:1008B0000100000000000000000001000100010034
:1008C0000100010001000100010001000100010020
:1008D0000100010001000100010000000000000013
:1008E0000000010001000100010001000100010001
:1008F00001000100010001000100010001000000F1
:1009000000000000000000000000010000000100E5
:1009100001000100010001000100010001000100CF
:1009200001000100010001000100000000000000C2
:1009300000000100010001000000000000000100B3
:1009400000000000000001000100010001000100A2
:100950000100000000000000000000000000000096
:100960000000000000000000000000000000000087
:100970000000000000000000000000000000000077
:100980000000010001000100010001000100010060
:10099000010001000100010001000100010001004F
:1009A0000100000000000000000001000100010043
:1009B000010001000100010001000100010001002F
:1009C0000100010001000100010000000000000022
:1009D0000000010001000100010001000100010010
:1009E00001000100010001000100010001000100FF
:1009F00001000000000000000000010001000100F3
:100A000001000100010001000100010001000100DE
:100A100001000100010000000000000000000000D3
:100A200000000100000001000100010001000100C0
:100A300001000100010001000100010001000100AE
:100A400001000000000000000000010001000100A2
:100A50000000000000000100000000000000010094
:100A60000100010001000100010000000000000081
:100A70000000000000000000000000000000000076
:100A80000000000000000000000000000000000066
:100A90000000000000000000000001000100010053
:100AA000010001000100010001000100010001003E
:100AB0000100010001000100010000000000000031
:100AC000000001000100010001000100010001001F
:100AD000010001000100010001000100010001000E
:100AE0000100000000000000000001000100010002
:100AF00001000100010001000100010001000100EE
:100B000001000100010001000100000000000000E0
:100B100000000100010001000100010001000100CE
:100B200001000100010001000100010001000000BE
:100B300000000000000000000000010000000100B3
:100B4000010001000100010001000100010001009D
:100B50000100010001000100010000000000000090
:100B60000000010001000100000000000000010081
:100B70000000000000000100010001000100010070
:100B80000100000000000000000000000000000064
:100B90000000000000000000000000000000000055
:100BA0000000000000000000000000000000000045
:100BB000000001000100010001000100010001002E
:100BC000010001000100010001000100010001001D
:100BD0000100000000000000000001000100010011
:100BE00001000100010001000100010001000100FD
:100BF00001000100010001000100000000000000F0
:100C000000000100010001000100010001000100DD
:100C100001000100010001000100010001000100CC
:100C200001000000000000000000010001000100C0
:100C300001000100010001000100010001000100AC
:100C400001000100010000000000000000000000A1
:100C5000000001000000010001000100010001008E
:100C6000010001000100010001000100010001007C
:100C70000100000000000000000001000100010070
:100C80000000000000000100000000000000010062
:100C9000010001000100010001000000000000004F
:100CA0000000000000000000000000000000000044
:100CB0000000000000000000000000000000000034
:100CC0000000000000000000000001000100010021
:100CD000010001000100010001000100010001000C
:100CE00001000100010001000100000000000000FF
:100CF00000000100010001000100010001000100ED
:100D000001000100010001000100010001000100DB
:100D100001000000000000000000010001000100CF
:100D200001000100010001000100010001000100BB
:100D300001000100010001000100000000000000AE
:100D4000000001000100010001000100010001009C
:100D5000010001000100010001000100010000008C
:100D60000000000000000000000001000000010081
:100D7000010001000100010001000100010001006B
:100D8000010001000100010001000000000000005E
:100D9000000001000100010000000000000001004F
:100DA000000000000000010001000100010001003E
:100DB0000100000000000000000000000000000032
:100DC0000000000000000000000000000000000023
:100DD0000000000000000000000000000000000013
:100DE00000000100010001000100010001000100FC
:100DF00001000100010001000100010001000100EB
:100E000001000000000000000000010001000100DE
:100E100001000100010001000100010001000100CA
:100E200001000100010001000100000000000000BD
:100E300000000100010001000100010001000100AB
:100E4000010001000100010001000100010001009A
:100E5000010000000000000000000100010001008E
:100E6000010001000100010001000100010001007A
:100E7000010001000100000000000000000000006F
:100E8000000001000000010001000100010001005C
:100E9000010001000100010001000100010001004A
:100EA000010000000000000000000100010001003E
:100EB0000000000000000100000000000000010030
:100EC000010001000100010001000000000000001D
:100ED0000000000000000000000000000000000012
:100EE0000000000000000000000000000000000002
:100EF00000000000000000000000010001000100EF
:100F000001000100010001000100010001000100D9
:100F100001000100010001000100000000000000CC
:100F200000000100010001000100010001000100BA
:100F300001000100010001000100010001000100A9
:100F4000010000000000000000000100010001009D
:100F50000100010001000100010001000100010089
:100F6000010001000100010001000000000000007C
:100F7000000001000100010001000100010001006A
:100F8000010001000100010001000100010000005A
:100F9000000000000000000000000100000001004F
:100FA0000100010001000100010001000100010039
:100FB000010001000100010001000000000000002C
:100FC000000001000100010000000000000001001D
:100FD000000000000000010001000100010001000C
:100FE0000100000000000000000000000000000000
:100FF00000000000000000000000000000000000F1
:1010000000000000000000000000000000000000E0
:1010100000000100010001000100010001000100C9
:1010200001000100010001000100010001000100B8
:1010300001000000000000000000010001000100AC
:101040000100010001000100010001000100010098
:10105000010001000100010001000000000000008B
:101060000000010001000100010001000100010079
:101070000100010001000100010001000100010068
:10108000010000000000000000000100010001005C
:101090000100010001000100010001000100010048
:1010A000010001000100000000000000000000003D
:1010B000000001000000010001000100010001002A
:1010C0000100010001000100010001000100010018
:1010D000010000000000000000000100010001000C
:1010E00000000000000001000000000000000100FE
:1010F00001000100010001000100000000000000EB
:1011000000000000000000000000000000000000DF
:1011100000000000000000000000000000000000CF
:1011200000000000000000000000010001000100BC
:1011300001000100010001000100010001000100A7
:10114000010001000100010001000000000000009A
:101150000000010001000100010001000100010088
:101160000100010001000100010001000100010077
:10117000010000000000000000000100010001006B
:101180000100010001000100010001000100010057
:10119000010001000100010001000000000000004A
:1011A0000000010001000100010001000100010038
:1011B0000100010001000100010001000100000028
:1011C000000000000000000000000100000001001D
:1011D0000100010001000100010001000100010007
:1011E00001000100010001000100000000000000FA
:1011F00000000100010001000000000000000100EB
:1012000000000000000001000100010001000100D9
:1012100001000000000000000000000000000000CD
:1012200000000000000000000000000000000000BE
:1012300000000000000000000000000000000000AE
:10124000000000010101010101010101020202028D
:101250000202020202030303030303030304040460
:101260000404040405050505050606060606070729
:1012700007070708080808090909090A0A0A0B0BE1
:101280000B0C0C0C0D0D0D0E0E0E0F0F0F10101180
:101290001111121213131414151516161717181806
:1012A00019191A1A1B1B1C1D1D1E1E1F202021226E
:1012B00022232424252626272829292A2B2C2D2DB4
:1012C0002E2F30313232333435363738393A3B3CD1
:1012D0003D3E3F404142434445464748494A4C4DC4
:1012E0004E4F50515354555658595A5B5D5E5F618D
:1012F0006264656668696B6C6D6F70727375777820
:101300007A7B7D7E8082838587888A8C8E8F91937D
:101310009596989A9C9EA0A2A3A5A7A9ABADAFB1A4
:10132000B3B5B7BABCBEC0C2C4C6C9CBCDCFD1D489
:10133000D6D8DBDDDFE2E4E7E9EBEEF0F3F5F8FA2F
:10134000FDFF0A0358004F00380037000000180363
:101350004D006F006E007300740061007200670042
:1013600065006100720000000403090409023B00EB
:10137000020100A0FA090400000103010100092193
:10138000110100012240000705810308000A090439
:101390000100010300000009211101000122BC002D
:1013A0000705820320000A12011001000000085006
:1013B00042475201000102000105010902A1018515
:1013C000020901A10005091901290515002501954A
:1013D0000575018102950175038101050109300937
:1013E000311581257F9502750881060938158125FB
:1013F0007F950175088106050C0A38021581257F45
:10140000950175088106C0C005010980A101850309
:1014100019012AB700150126B70095017510810042
:10142000C0050C0901A101850419012AA0021501BA
:1014300026A002950175108100C005010906A101D1
:101440008505050719E029E71500250195087501AF
:1014500081020507190029EF1500250195F0750196
:10146000810205081901290595057501910295016B
:1014700075039101C005010906A101050719E029BD
:10148000E715002501950875018102950175088110
:10149000010507190029FF150026FF0095067508AC
:1014A000810005081901290595057501910295012D
:1014B00075039101C00011241FBECFEFD0E1DEBF44
:1014C000CDBF04B603FE27C080914A0690914B061B
:1014D000A0914C06B0914D068730904BA740B04B81
:1014E000D1F410924A0610924B0610924C061092BC
:1014F0004D0614BE84B7877F84BF0FB6F894A895B5
:1015000080916000886180936000109260000FBE3F
:10151000E0E0F8E7099513E0A0E0B1E0E8ECF0E7DF
:1015200002C005900D92AA38B107D9F726E0AAE8C3
:10153000B3E001C01D92AA34B207E1F70E94263140
:101540000C94C0370C94000081E00E947F180C942A
:101550009C2980E00E947F180C94F329CF930E946D
:10156000E11BC82F20E040E06FEF82FF60E08CE5D8
:1015700090E00E94671220E040E06FEFC0FF60E063
:101580008DE590E00E94671220E040E06FEFC1FF20
:1015900060E08EE590E0CF910C946712FC01662329
:1015A00029F0613049F090E080E00895828188233D
:1015B000D1F38DEA90E0089582818823A1F388E930
:1015C00090E0089581E0089581E008950C94E40A84
:1015D00008950C94E80A1F93CF93DF9300D000D0B6
:1015E0000F92CDB7DEB749835A836B8330914405A0
:1015F00089819A8131111DC06623B9F02223A9F097
:101600000E94DB26182F682F89819A810E948426E8
:1016100069817A81812F0F900F900F900F900F901A
:10162000DF91CF911F910C94AC0B0E94B226182F22
:10163000EFCF0E94DB2669817A81EDCFFC01262F56
:10164000408151816281738184810C94EB0ACF9334
:10165000DF93D82FC92F60E00E941E0B6D2F7C2FC7
:10166000DF91CF910C94E90A0E94D82A0E94302879
:10167000811102C00E94D4280E9469180C94B60DF2
:101680000E9450170C94B90D08950E9436210E94B3
:10169000440B2FEF84E39CE0215080409040E1F721
:1016A00000C000000C94B22A0F931F93CF93DF93D6
:1016B000EC0161E00E941E0B8C01BE010E943017FC
:1016C000882389F1BE01C8010E94E60A882359F1E6
:1016D000BE01C8010E947E1A882329F1BE01C801FB
:1016E0000E94D31A8823F9F0BE01C8010E94A61BEC
:1016F0008823C9F0BE01C8010E948619882399F089
:101700008A81882339F001158CE5180751F00F3DC7
:101710001C4579F0CE01DF91CF911F910F910C9470
:10172000E20A0E94450B80E0DF91CF911F910F915B
:1017300008950E94D428F7CF08950C949C0B81E063
:1017400008950C949F0BCF93C82F0E949D0B8C2F54
:10175000CF910C94A10B0895972F70E024E1929FF4
:10176000600D711D1124FB019CE8899FE00DF11DA6
:101770001124EE0FFF1FEE53FF4F859194910895B2
:10178000FC01EE0FFF1FEE5BFD4E859194910895D5
:10179000CF93DF930E94AC0B0E94DA0CEC01811511
:1017A00020E5920708F04BC0811530E4930708F05C
:1017B000B2C0803E910518F5803C910508F09FC0AD
:1017C000883A910570F4853A910508F095C081300A
:1017D000910529F10497813A910508F1D0E0C0E024
:1017E0001EC08F3B9105D1F3C85AD0E0CC0FDD1F4E
:1017F000C850DD4F0990D881C02DD46410C0811528
:1018000040E2940780F48F3F910509F040F4883E50
:10181000910528F0805F9109D0654097F8F6CE01D8
:10182000DF91CF910895C11580E3D80708F46DC00A
:10183000CE019927D3FD6CC0EC01D06CF0CFC1155F
:1018400095E5D90760F5C11524E5D20708F094C0E5
:10185000C11533E5D30778F4C11542E5D40708F084
:101860007AC0C11581E5D80708F458C0DC2FCC2711
:10187000C16FD06AD4CFCE018370992721E030E0C8
:1018800002C0220F331F8A95E2F7C695C69590E2F3
:10189000C99FE0011124C22BD32BDA68C0CFC11538
:1018A0002AE5D207B0F4C11539E5D30708F074C0B2
:1018B000C11546E5D40708F464C0CE0198558F3FA2
:1018C000910511F008F08ACFDC2FCC27C06FD06AC9
:1018D000A6CFCE0190568115904208F07FCF8D2F74
:1018E0008F710E94720D90E0982F882788279F7132
:1018F0009C012C2BE9014EC0A497D06490CF805C52
:1019000091090E94C00BEC018ACFCE019F70F9CFE4
:10191000EC01D86C84CFDF70D06A81CFCE0174E047
:10192000969587957A95E1F783702C2F26952695C5
:10193000237040E2249F90011124382B8C2F837058
:10194000C1E0D0E002C0CC0FDD1F8A95E2F7C22BC8
:10195000D32BDC6864CFCE018370992721E030E07F
:1019600002C0220F331F8A95E2F7C695C69580E222
:10197000C89FE0011124EBCFDC2FCC27C46FD06AC5
:101980004ECF8C2F0E94720DC82FD0E0DC2FCC27B9
:10199000CC27DF71D06243CF8C2F8F700E94720DE5
:1019A00034E0D695C7953A95E1F7CF70DC2FC82F74
:1019B000D06935CF803E910599F1C8F48133910506
:1019C00009F476C048F48932910509F46AC08A3274
:1019D000910509F474C0089589339105D1F08238D6
:1019E0009105B9F08533910509F454C00895843EFA
:1019F000910599F138F4823E9105F9F0833E910505
:101A000009F10895863E910599F1873E9105B9F156
:101A1000089520910A062370A1F080EE90E00895C9
:101A200020910A0620FD52C030910B0630FF09C0FC
:101A300024FF4FC090E080E004C020910A0622FD00
:101A4000F7CF089520910A0622FD46C030910B067B
:101A500030FDE3CF24FFF5CFEDCF20910B0621FF22
:101A6000F0CF80910A0684FDE5CF87EE90E00895DF
:101A700020910A0623FFE5CF24FDDCCFF6CF20918D
:101A80000A0623FD2CC030910B0631FFE3CF84EE14
:101A900090E0089520910A0625FFD3CF89E290E0D7
:101AA000089520910A0625FFCCCF85E390E00895A4
:101AB00020910A0626FFC5CF8AE290E00895209182
:101AC0000A0626FFBECF81E390E0089589E390E007
:101AD000089583EE90E0089582EE90E0089586EEFA
:101AE00090E0089590910A0692FF06C0282F287171
:101AF0002830F9F4877F846093FF06C0282F28716F
:101B00002831F1F4877E846120910B0620FF06C006
:101B1000382F38713830D9F4877F816021FF06C0B3
:101B2000282F28712831D1F4877E816194FD877E2A
:101B30000895282F24712430F9F68B7F8860DCCF3C
:101B4000282F2471243101F78B7E8861DDCF382F57
:101B50003171313019F78E7F8860E0CF282F2171E5
:101B6000213121F78E7E8861E1CF08950C94B50D67
:101B700008950C94B80DCF93DF9300D000D0CDB76B
:101B8000DEB794E0899FF0011124E657FC4F808175
:101B90009181A281B381BC01CD010F900F900F9074
:101BA0000F90DF91CF910895089580EA8A95F1F71B
:101BB0000895F894E82FE295EF70A1E2AE0FB0E03F
:101BC0004C918F7021E030E0B90102C0660F771FA1
:101BD0008A95E2F7CB01962F909594239C93EE5D26
:101BE000F0E09081892B8083789408950F931F9360
:101BF000CF93DF93C6E2D3E089910E94D90D83E0B1
:101C0000CA33D807C9F7CAE3D3E001E413E08991E6
:101C10000E94D90D0C171D07D1F78CE1E6EAF3E01D
:101C2000DF01982F1D929A95E9F7EAE8F3E0DF01CA
:101C30001D928A95E9F787E00E94EF0EDF91CF9120
:101C40001F910F910C94340B2F923F924F925F9201
:101C50006F927F928F929F92AF92BF92CF92DF92BC
:101C6000EF92FF920F931F93CF93DF9300D000D09A
:101C700000D0CDB7DEB786E2282E83E0382E1C8256
:101C80001B8210E0412C512C32014394F1018191CF
:101C90001F01F894E82FE295EF70A1E2AE0FB0E0DB
:101CA0002C918F7041E050E002C0440F551F8A957F
:101CB000E2F7CA01922F982B9C93EE5DF0E09081A1
:101CC00080958923808378940E94D50DB301A20169
:101CD0000B8004C0440F551F661F771F0A94D2F76C
:101CE0006A017B01C094D094E094F09486EA93E07A
:101CF0009E838D83EAE3F3E0FA83E98300E0ED81DC
:101D0000FE8181919191A191B191FE83ED83E98151
:101D1000FA81B190FA83E9832B2D22952F70205EF2
:101D200030E0F901208130E0FB2DFF7002C03595D5
:101D30002795FA95E2F74C015D0120FD4BC0842AFE
:101D4000952AA62AB72A88159905AA05BB0549F040
:101D5000AD81BE8114978D929D92AD92BC921397E6
:101D600001E022EC33E08D819E812817390739F696
:101D7000F101319780810E94D90D102BEB81FC81FC
:101D80003196FC83EB83749709F080CF212F47E0D5
:101D90006AE873E086EA93E00E94F00E0E94400B2E
:101DA000812F26960FB6F894DEBF0FBECDBFDF9110
:101DB000CF911F910F91FF90EF90DF90CF90BF9048
:101DC000AF909F908F907F906F905F904F903F90DB
:101DD0002F9008958C209D20AE20BF20B4CF089571
:101DE000FF920F931F93CF93DF93F82E092F162F97
:101DF000D72FC42F222349F081E08093C4030E948F
:101E00002C2A9093C3038093C2038091C403882338
:101E1000A1F08091C2039091C3030E94582A0697B3
:101E200060F0EF2DF02FA12FBD2F90E080E0D0E0EB
:101E30008C179D0744F01092C403DF91CF911F913E
:101E40000F91FF90089501911191219131910D937E
:101E50001D932D933D930196EBCFCF92DF92EF929E
:101E6000FF920F931F93CF93DF93D62FC72F982FF7
:101E7000711113C0442329F0E82FF0E0EE5BFD4E12
:101E80009491692F792F892FDF91CF911F910F9115
:101E9000FF90EF90DF90CF900895272F30E0E82F4C
:101EA000F0E0442321F0EE5BFD4EE491F0E086E0AB
:101EB000D89F700111240FEF10E0C701B8010E94F4
:101EC00065368D2F90E0880F991FA5E5A69FA0018C
:101ED000A79F500D1124841B950BD82EDD0CD80E16
:101EE000C801821B930B8E9FA0018F9F500D9E9F58
:101EF000500D1124952FDC9EE0011124CD2FDD27FC
:101F0000D801AC1BBD0BED01CE9FD001CF9FB00D12
:101F1000DE9FB00D11248B2FE801CD19D1096E0180
:101F2000C29EE001C39ED00DD29ED00D1124CD2FB4
:101F3000DD270C1B1D0B0E9FE0010F9FD00D1E9F78
:101F4000D00D11242E2F63307105D9F03CEFE3162C
:101F500033E0F30668F461307105B9F06230710561
:101F6000C1F0AFEFEA16F10448F4852F9D2F06C0AB
:101F70006430710589F066307105B9F3692F722FED
:101F800083CF9B2F8E2F252FF9CF9E2F2B2F852F81
:101F9000F5CF8D2F9E2FF7CF8E2F2D2FEFCF41E036
:101FA0000C942D0F9C0190E080E0269F812D369FA0
:101FB000800D911D112408959C018230910508F433
:101FC00008959FEF213E8EE1380740F4C90145E0B6
:101FD000969587954A95E1F798E0980F61E0E62F8E
:101FE000E90FFF27FF1FAF0155954795842F449FA9
:101FF000F001459FF00DF00D11242E173F0738F426
:102000009FEF940F961758F78FEF860F08954F3F65
:10201000E9F361E0640FF6CF982FE82F96FDE09585
:102020002E2F2F7096FD2F5FE695E695E695E670CC
:10203000F0E0EF5BFC4F8181829F802D212D1124E8
:1020400082958F702295207F822B2081820F97FDB1
:102050008195805808951F93172F922FE42FF0E059
:10206000EE0FFF1FE057FE4F208134EE239F212DFE
:102070001124472F50E030E0245E3F4F291B3109E7
:1020800037FF03C031952195310993E0220F331FAB
:102090009A95E1F7421B530B57FD40E0742F719F57
:1020A000712D11241F910895582FA22FE42FF0E0D5
:1020B000EE0FFF1FE057FE4F208134EE239F212DAE
:1020C000112490E030E0245E3F4F2A1B310937FF96
:1020D00003C031952195310943E0220F331F4A9502
:1020E000E1F7821B930B97FD80E0282F259F212D80
:1020F0001124822F0895622F0895E42FF0E0EE0F4F
:10210000FF1FE057FE4F6081621B0895E42FF0E04F
:10211000EE0FFF1FEF56FE4F6081621B0895A62F42
:10212000372F50E0FA01EE0FFF1FEF56FE4F908160
:10213000905297FD9195440F551FFA01E057FE4FBD
:102140006081621B770B690F711D97FD7A956A0F8D
:10215000732F0895EF920F93972F23E0029FB00102
:102160001124759567956E0D792F0F91EF90089555
:102170000F93CF93DF93D72FC82FF90147FD4195D8
:1021800028E330E0241B310947FD3395229FA0014D
:10219000239F500D500D1124EE9FC001EF9F900D15
:1021A000900D1124840F951F0E94DC0F982F990F1A
:1021B000692F680F600F7D2F8C2FDF91CF910F91CA
:1021C00008950F931F93522F10E0F801EE0FFF1F99
:1021D000EF56FE4FA081A052BB0B9D015203F001B0
:1021E000539FF00D1124000F111FD801A057BE4FAF
:1021F0000C910057110B40039001419F300D1124A9
:102200002E0F3F1F37FF02C021583F4F220F232FB1
:10221000221F330B620F1F910F9108950F931F938D
:10222000522F10E0F801EE0FFF1FEF56FE4FA08176
:10223000A052BB0B9D015203F001539FF00D1124DE
:10224000000F111FD801A057BE4F0C910057110B62
:1022500040039001419F300D11242E0F3F1F37FF87
:1022600002C0215C3F4F96E0359527959A95E1F79E
:10227000620F1F910F9108950F931F93522F10E03B
:10228000F801EE0FFF1FE057FE4F9081905797FD2A
:102290009195000F111FF801EF56FE4F008100527B
:1022A000110B50039001519F300D112408E310E0F1
:1022B000091B110997FD13954003F001419FF00D93
:1022C0001124E20FF31F9F01220F331F2E0F3F1F18
:1022D00037FF02C021583F4F220F232F221F330BFD
:1022E000620F1F910F910895FC019B01009729F443
:1022F00080E077FF2BC080E80895AC0197FF04C011
:1023000044275527481B590BB901640F751F37FD2A
:1023100010C0241B350BC901A5E0880F991FAA9591
:10232000E1F70E94793680E2861BF7FF0FC08195A6
:102330000895CB0165E0880F991F6A95E1F7BA010E
:10234000621B730B0E94793680E6EECF08950F93DF
:102350001F93CF93DF93D62F172FC82FBA01C90130
:10236000212F201B022F0E947411982F990F990F73
:10237000782F791B700F719F712D11246D2F8C2F69
:10238000DF91CF911F910F9108950F931F93CF93DA
:10239000DF93D62FC72F182FBA01C901212F201B79
:1023A000022F0E947411982F990F990F282F291B23
:1023B000200F219F212D11246D2F7C2F822FDF9143
:1023C000CF911F910F910895EF920F931F93CF9389
:1023D000DF93D62F172FC82FBA01C9010E19010F8D
:1023E0000E947411702F781B719F712D11246D2F15
:1023F0008C2FDF91CF911F910F91EF900895EF9265
:102400000F931F93CF93DF93D62FC72F182FBA01A7
:10241000C9010E19010F0E947411081B019F012DA3
:1024200011246D2F7C2F802FDF91CF911F910F9161
:10243000EF9008950F93CF93DF93D72FC82FBA0152
:10244000C9010E947411682F600F7D2F8C2FDF91BE
:10245000CF910F910895EF920F93CF93DF93D72FE2
:10246000C82FBA01C9010E190E947411602F681B90
:102470007D2F8C2FDF91CF910F91EF9008950C94C9
:10248000CF0F45E050E06CE170E08DEC93E00C94F0
:102490000B3745E050E06CE170E08DEC93E00C947C
:1024A0002937EDECF3E085E380838091F50290918C
:1024B000F602A091F70281839283A3838FE784833E
:1024C0000C944912E0914F03F09150030994E0916C
:1024D0004B03F0914C0309943F924F925F926F929D
:1024E0007F928F929F92AF92BF92CF92DF92EF92A4
:1024F000FF920F931F93CF93DF933C012B01FC01BD
:10250000C08186E1C89FC02D112416E11C0F312E19
:102510001F3610F03EE6332E6091D1036695809110
:10252000C9039091CA030E94D20FF82ED0E0CE01C9
:10253000880F991F9C0120573E4F6901C315B0F0C9
:1025400081E01E3608F080E0DF91CF911F910F915E
:10255000FF90EF90DF90CF90BF90AF909F908F90C3
:102560007F906F905F904F903F900895FE01E459E7
:10257000FD4F8081F3019181892379F1F6018081FA
:10258000282F2057330B59018181E82FE052FF0B90
:102590004F01AA9C9001AB9C300D300D1124EE9F91
:1025A000C001EF9F900D900D1124820F931F0E9488
:1025B000DC0F082F6091CE037091CF038091D00380
:1025C000EF2C9401A501F20109950E943F12462FBC
:1025D000672F282FCE010E946712F2E0CF0ED11C88
:1025E0002196ACCF64EE71E10C946C126FEF71E147
:1025F0000C946C126AEA70E10C946C126BE272E15A
:102600000C946C128F929F92AF92BF92CF92DF92F6
:10261000EF92FF920F931F93CF93DF936C015B01B7
:10262000FC01C08186E1C89FC02D112416E11C0F5A
:10263000812E1F3610F03EE6832E6091D103669501
:102640008091C9039091CA030E94D20F982ED0E0C6
:10265000CE01880F991F9C0120573E4F7901C81564
:1026600088F081E01E3608F080E0DF91CF911F9165
:102670000F91FF90EF90DF90CF90BF90AF909F9021
:102680008F900895FE01E459FD4F8081F6019181FC
:102690008923C1F0F70121812052330B408140573B
:1026A000550B6091CE037091CF038091D003092D1B
:1026B000F50109950E943F12462F672F282FCE0162
:1026C0000E946712F2E0EF0EF11C2196C8CF67EA74
:1026D00071E10C94021365EC71E10C94021368EB48
:1026E00070E10C9402136AE172E10C940213BF9240
:1026F000CF92DF92EF92FF920F931F93CF93DF93CE
:102700008C016B01FC01C08186E1C89FC02D1124A2
:1027100096E1F92EFC0EBF2CFEE6FF1510F48EE6B6
:10272000B82E6091D103669566958091C90390910A
:10273000CA030E94D20FE82ED0E0CB1578F081E0DA
:102740009DE69F1508F480E0DF91CF911F910F91D6
:10275000FF90EF90DF90CF90BF900895FE01E45975
:10276000FD4F8081F8019181892391F06091CE0322
:102770007091CF038091D0032E2D4C2FF601099537
:102780000E943F12462F672F282FCE010E9467120A
:102790002196D3CF6BE270E10C94771364E570E17E
:1027A0000C9477136BE770E10C9477136DE770E18D
:1027B0000C94771366E870E10C9477136FE870E17E
:1027C0000C9477139F92AF92BF92CF92DF92EF92C9
:1027D000FF920F931F93CF93DF9300D000D00F92FF
:1027E000CDB7DEB76C015B01FC01F08186E1F89F9B
:1027F000802D11248B8396E1F92EF80E9F2C8EE606
:102800008F1510F48EE6982E6091D103669566952B
:102810008091C9039091CA030E94D20F182F80E4BF
:10282000810F0E940C1080588983812F0E940C1008
:1028300080588A83FB81EF2FF0E0FD83EC839C813D
:102840009915B0F081E0EDE6EF1508F480E00F9007
:102850000F900F900F900F90DF91CF911F910F91DC
:10286000FF90EF90DF90CF90BF90AF909F90089532
:10287000EC81FD81E459FD4F8081F601918189232E
:10288000A9F06091CE037091CF038091D003E12E27
:102890000C812A814981F50109950E943F12462F3A
:1028A000672F282F8C819D810E9467128C819D81CA
:1028B00001969D838C83C3CF61EE70E10C94E2138B
:1028C0006EE071E10C94E2136CE371E10C94E2139D
:1028D000BF92CF92DF92EF92FF920F931F93CF930D
:1028E000DF938C01FC01C08186E1C89FC02D1124BB
:1028F00096E1F92EFC0EBF2CFEE6FF1510F48EE6D5
:10290000B82E6091CE037091CF038091D0030E94C6
:102910003F12E62ED72EC82ED0E0CB1578F081E0FE
:102920009DE69F1508F480E0DF91CF911F910F91F4
:10293000FF90EF90DF90CF90BF900895FE01E45993
:10294000FD4F8081F8019181892331F02C2D4E2D8E
:102950006D2DCE010E9467122196DFCF8F929F923C
:10296000AF92BF92CF92DF92EF92FF920F931F939D
:10297000CF93DF938C01FC01C08186E1C89FC02DFD
:10298000112496E1F92EFC0E8F2CFEE6FF1510F4B3
:102990008EE6882ED091CE03A090CF03B090D003C6
:1029A0006D2F7A2D8B2D0E943F12E62ED72EC82E2A
:1029B0006091D1036D0F7A2D8B2D0E943F12B62EA0
:1029C000A72E982ED0E0C81590F081E09DE69F15C7
:1029D00008F480E0DF91CF911F910F91FF90EF906D
:1029E000DF90CF90BF90AF909F908F900895FE01A1
:1029F000E459FD4F9081F8018181892359F0292DF7
:102A00004B2D6A2D90FD03C02C2D4E2D6D2DCE012A
:102A10000E9467122196D7CFBF92CF92DF92EF929A
:102A2000FF920F931F93CF93DF938C01FC01C08122
:102A300086E1C89FC02D112436E1F32EFC0EDF2C59
:102A4000FEE6FF1510F42EE6D22EC090CF03B09014
:102A5000D0032091D10390E4E92E3E2D329F312DF9
:102A60001124E32ED0E0CD1578F081E03DE63F154E
:102A700008F480E0DF91CF911F910F91FF90EF90CC
:102A8000DF90CF90BF900895FE01E459FD4F808103
:102A9000F80191818923B9F0FE01EE0FFF1FEF5677
:102AA000FE4F808182958F706091CE038E9D600D68
:102AB00011247C2D8B2D0E943F12462F672F282F2B
:102AC000CE010E9467122196CECFBF92CF92DF92A5
:102AD000EF92FF920F931F93CF93DF938C01FC0132
:102AE000C08186E1C89FC02D112456E1F52EFC0E51
:102AF000DF2CFEE6FF1510F44EE6D42EC090CF0377
:102B0000B090D0032091D10330E4E32E3E2D329FCC
:102B1000312D1124E32ED0E0CD1578F081E03DE693
:102B20003F1508F480E0DF91CF911F910F91FF9046
:102B3000EF90DF90CF90BF900895FE01E459FD4FD4
:102B40008081F80191818923D9F0FE01EE0FFF1FEA
:102B5000E057FE4F6081E69EB001112495E0759527
:102B600067959A95E1F78091CE03680F7C2D8B2DA8
:102B70000E943F12462F672F282FCE010E94671216
:102B80002196CACFBF92CF92DF92EF92FF920F931E
:102B90001F93CF93DF938C01FC01C08186E1C89F16
:102BA000C02D112496E1F92EFC0EBF2CFEE6FF1578
:102BB00010F48EE6B82EE090CE03D091CF03D090E3
:102BC000D0036091D1036695669566958091C9039F
:102BD0009091CA030E94D20F0E940C10805887FD6A
:102BE0008195880F282F3D2D239F212D11246E2D97
:102BF0007D2F822F0E943F12E62ED72EC82ED0E0C6
:102C0000CB1578F081E03DE63F1508F480E0DF91D8
:102C1000CF911F910F91FF90EF90DF90CF90BF90D9
:102C20000895FE01E459FD4F8081F80191818923C7
:102C300031F02C2D4E2D6D2DCE010E946712219664
:102C4000DFCF1F93CF93DF93EC01FC01E459FD4FDD
:102C500080816823A1F00E94FB36182F0E94FB366A
:102C6000782F612F8091D0030E943F12462F672F4B
:102C7000282FCE01DF91CF911F910C946712DF9125
:102C8000CF911F910895DF92EF92FF920F931F93C0
:102C9000CF93DF938C01FC01C281C11125C06091EB
:102CA000D10320E1620F08F46FEF8091C903909186
:102CB000CA030E94D20F65E070E00E946536892B3E
:102CC00051F40E94FB366EE670E00E947936F801FE
:102CD00061810E9421168C2FDF91CF911F910F915E
:102CE000FF90EF90DF900895C08186E1C89FC02DCE
:102CF000112486E1D82EDC0E8D2DFEE6FD1508F49C
:102D00008EE6D0E0E82EF12CCE15DF0534F0C1E0E0
:102D1000FDE6FD1500F7C0E0DECFF8016181CE01D0
:102D20000E9421162196F0CFDF92EF92FF920F932F
:102D30001F93CF93DF93EC01FC01E459FD4F808199
:102D4000682381F1D090CF030091D0031091CE037E
:102D5000E12EF12C0E94FB36282FC7018C549F4F87
:102D600068E671E00E9479368E199F0997FD0396F7
:102D700095958795959587952370612F289F600D70
:102D800011247D2D802F0E943F12462F672F282F60
:102D9000CE01DF91CF911F910F91FF90EF90DF90C7
:102DA0000C946712DF91CF911F910F91FF90EF90DC
:102DB000DF900895DF92EF92FF920F931F93CF93CE
:102DC000DF938C01FC01C281C11125C06091D10348
:102DD00020E1620F08F46FEF8091C9039091CA035C
:102DE0000E94D20F6AE070E00E946536892B51F490
:102DF0000E94FB366EE670E00E947936F801618130
:102E00000E9494168C2FDF91CF911F910F91FF900C
:102E1000EF90DF900895C08186E1C89FC02D1124F6
:102E200086E1D82EDC0E8D2DFEE6FD1508F48EE62B
:102E3000D0E0E82EF12CCE15DF0534F0C1E0FDE640
:102E4000FD1500F7C0E0DECFF8016181CE010E94E0
:102E500094162196F0CFE0914D03F0914E03099422
:102E600081E0089508950E9432170C94AE0A0895E7
:102E70000895CF93DF93FC01C08186E1C89FC02DE8
:102E80001124DAEEDC0FCF3608F0CEE66C2F8D2F52
:102E90000E9437176C2F8D2FDF91CF910C9438172C
:102EA000CF93DF9300D000D0CDB7DEB70E94382A91
:102EB0006093C5037093C6038093C7039093C803C0
:102EC0002091CD03322F33703983332321F0A22F89
:102ED000A695A695A9833091DA02323009F4DAC0BA
:102EE00080F4311118C01092DB026093C903709313
:102EF000CA038093CB039093CC0381E08093DA02E2
:102F000003C0333009F4D0C00F900F900F900F9092
:102F1000DF91CF9108958091DE02B981B81315C079
:102F200023704091DF0250E081E02417150609F478
:102F300080E081708093DD023981393178F4E32FAC
:102F4000F0E0EE53F84C0C948D3681E0F2CF8823FC
:102F500059F040E060E080E00E942B1780E004C060
:102F60008BED92E00E9468149091DB029F5F90933A
:102F7000DB0281118AC082E08093DA028091DD0257
:102F8000811183C08981882309F48CC00E94331782
:102F90008BED92E00F900F900F900F90DF91CF91FB
:102FA0000C9439178BED92E00E94AE14DDCF8BEDBF
:102FB00092E00E940C15D8CF8BED92E00E9465152F
:102FC000D3CF8BED92E00E94C215CECF8BED92E075
:102FD0000E94CA13C9CF8BED92E00E94CE13C4CFDA
:102FE0008BED92E00E946713BFCF8BED92E00E94C1
:102FF0006B13BACF8BED92E00E94F212B5CF8BED3E
:1030000092E00E94F612B0CF8BED92E00E94D213B4
:10301000ABCF8BED92E00E94D613A6CF8BED92E062
:103020000E94DA13A1CF8BED92E00E94DE139CCFB9
:103030008BED92E00E94FA1297CF8BED92E00E9406
:103040006F1392CF8BED92E00E9473138DCF8BEDB7
:1030500092E00E94FE1288CF8BED92E00E945C14F9
:1030600083CF8BED92E00E9460147ECF8BED92E0D7
:103070000E94641479CF8BED92E00E94DA1674CF2F
:103080008BED92E00E9443166FCF9981992309F44A
:103090003BCF7CCFA981A093DE0223702093DF0277
:1030A0000E94621283E02ACF8091C9039091CA03E3
:1030B000A091CB03B091CC03BC01CD010E94672A43
:1030C000603171058105910508F41ECF1092DA0276
:1030D0001BCFE0914903F0914A0309950E943028E3
:1030E000811104C00E94D4280E9451120E944112F2
:1030F0008091CD038C7F11F40C945112089580932C
:10310000D20308959091CD0321E092279093CD03AF
:103110001092DA0281110C944912089581E00C9406
:1031200082189091CD03937099F0811109C0946039
:103130009093CD031092DA02662351F00C94491259
:10314000893110F09066F4CF880F880F982BF0CF5C
:10315000089561E00C949118682F8091CD038695B5
:1031600086958F5F893108F081E00C94911881E099
:103170000C94AC18682F9091CD03969596958FEF8F
:10318000890F913009F488E10C94911881E00C9436
:10319000BA189091CD03937061F08093CE03609341
:1031A000CF03453608F044E64093D00321110C9438
:1031B00049120895282FEDECF3E09181892F90E0DA
:1031C0004381628108960C94C91881E00C94DA1846
:1031D000282FEDECF3E08181438162818850990BC7
:1031E0000C94C91881E00C94E818282FEDECF3E05A
:1031F000628130E1630F08F46FEF8181438190E0D9
:103200000C94C91881E00C94F518282FEDECF3E02C
:10321000628130E1631B08F460E08181438190E0CA
:103220000C94C91881E00C940519282FEDECF3E0FB
:10323000438130E1430F08F44FEF8181628190E0D8
:103240000C94C91881E00C941519282FEDECF3E0CB
:10325000438130E1431B08F440E08181628190E0CA
:103260000C94C91881E00C9425198093D103611145
:103270000C9449120895682F2091D10330E1230F57
:1032800008F42FEF822F0C94351981E00C943B1930
:10329000682F2091D10330E1231B08F420E0822F16
:1032A0000C94351981E00C9448190895FC01EE0F37
:1032B000FF1FE80FF91FED52FC4F6183408322830B
:1032C0000895FF920F931F93CF93DF93182F062F2C
:1032D000F42ED0E0C0E02F2D402F612FCE010E94B0
:1032E00056192196CE36D105B1F7DF91CF911F91B6
:1032F0000F91FF9008956EE670E083ED93E00C94DB
:10330000E419FA0181110994FB01FDCF0F931F937A
:10331000CF938C01FB01C281CC2309F453C00E94DE
:1033200078278272F801E35CFC45E431F10538F45A
:10333000E552F84C0C948D360E948E18C0E08C2F0C
:10334000CF911F910F91089546EC58E167EB78E11A
:103350000E948119F3CF47EB58E166EC78E1F8CF92
:1033600042EF58E165EE78E1F3CF45EE58E162EFC8
:1033700078E1EECF42E159E162E079E1E9CF42E064
:1033800059E162E179E1E4CF42E359E162E279E1B6
:10339000DFCF42E259E162E379E1DACF42E559E178
:1033A00065E479E1D5CF45E459E162E579E1D0CF33
:1033B00081E00E94A918C2CF85E0FBCF8DE0F9CF54
:1033C00082E1F7CFC1E0BBCF9C01AB01579A6BB153
:1033D0006F777BB17068EFB7F894CA01880F991FB7
:1033E000840F951F820F931F8217930741F4EFBF3D
:1033F0008FE594E00197F1F700C000000895D9012E
:103400004D919D0158E07BB9000000C047FF6BB9AA
:10341000440F000000C000C000C06BB900C05A9546
:1034200091F7E2CF0F931F93CF93DF93C42FD22F47
:10343000FC0182818823C9F040931F050E942C2A39
:1034400090931E0580931D0580E28C0F883008F054
:1034500050C0C77081E001C0880FCA95EAF7DF91BC
:10346000CF911F910F910C94721E10911F05141390
:1034700035C080911D0590911E050E94582A883CF8
:10348000910560F5C0E2CD0F1D17B9F080E2810F04
:10349000883040F4177081E001C0880F1A95EAF770
:1034A0000E94791EC83048F481E09D2F977001C0BA
:1034B000880F9A95EAF70E94721E802F0E945F1E65
:1034C000C830B8F4D77081E001C0880FDA95EAF708
:1034D000DF91CF911F910F910C94791E80E28C0F98
:1034E000883038F4C77081E001C0880FCA95EAF7C8
:1034F000EFCFDF91CF911F910F9108950F939C0112
:10350000CB01243F4CE53407A1F190F4293DFCE5C3
:103510003F0749F12A3D4CE53407E9F1283D3C4598
:10352000C1F0FC0182818823E1F110921F0519C0CE
:10353000263FFCE53F0719F1273F4CE5340729F109
:10354000253F3C4571F707E225EE44EE65EF7CE54B
:1035500005C006E221EE41EE68ED7CE50E94121AFC
:1035600080E00F91089507E225EE45EE69ED7CE5D8
:10357000F5CF06E221EE40EE64EF7CE5EFCF06E208
:1035800021EE42EE66EF7CE5E9CF07E225EE46EE5E
:1035900067EF7CE5E3CF08E221E045EE6AED7CE5EC
:1035A000DDCF81E0DECFCF93DF93EC01FB018281A1
:1035B000882309F4C9C0C631FCE5DF07E0F4C23056
:1035C0009CE5D907F0F00E94432890930B06809366
:1035D0000A06C631ECE5DE0720F5C230FCE5DF0760
:1035E00098F480910A0690910B060E9451280E943F
:1035F000362180E006C09E012B5F3C452930310515
:1036000010F3DF91CF910895FE01E350FC458091C6
:103610000A068160E331F10588F4E151F84C0C941D
:103620008D36CB5FDC45C930D105D8F6CE5FD74C9F
:10363000FE010C948D3680910A06826080930A0602
:10364000D0CF80910A068460F9CF80910A06886005
:10365000F5CF80910B06816080930B06C2CF8091DD
:103660000B068260F9CF80910A068061E7CF8091D6
:103670000A068062E3CF80910A068064DFCF0E9451
:10368000362180910A068068D9CF80910A068C6025
:10369000D5CF80910B068360DFCF80910A068E7FA5
:1036A000CDCF80910A068D7FC9CF80910A068B7F8E
:1036B000C5CF80910A06877FC1CF80910B068E7F90
:1036C000CBCF80910B068D7FC7CF80910A068F7E6E
:1036D000B5CF80910A068F7DB1CF80910A068F7B8E
:1036E000ADCF0E94362180910A068F77A7CF8091B7
:1036F0000A06837FA3CF80910B068C7FADCF80918C
:103700000A0682FB992790F921E0922790FB82F923
:1037100090FB83F993CF80910B06982F9095917031
:103720008E7F892B90FB81F997CF0E943621909153
:103730000A06892F97FB87F9805880CF81E00E9485
:10374000D6284FCF80E0FBCF81E05BCFCF93DF93D4
:10375000EB0186319C4511F50E9478279A819923C7
:1037600099F08A7A91E009F490E090932005811114
:1037700009C089E20E9453270E94C72780E0DF9199
:10378000CF91089585E3F6CF80912005811104C083
:1037900089E20E945A27F0CF85E3FBCF81E0EFCF8B
:1037A00090932605809325050895E0912505F091D5
:1037B0002605309721F00190F081E02D099480E0FA
:1037C0000895E0912505F0912605309711F480E0E9
:1037D00008950190F081E02D09950895DC01E091B4
:1037E0002505F0912605309799F08091F402882301
:1037F00051F080910A0687FF06C08C9111968C9338
:10380000119785E08C930280F381E02DCD0109941E
:103810000895DC01E0912505F0912605309739F0F7
:1038200082E08C930480F581E02DCD010994089508
:1038300020912305309124052817390771F09093C2
:10384000240580932305E0912505F0912605309706
:1038500021F00680F781E02D09940895209121053B
:10386000309122052817390771F090932205809333
:103870002105E0912505F0912605309721F000847F
:10388000F185E02D0994089585B7806885BF85B7D7
:10389000806885BF0895089508950C944B1C089581
:1038A0000C944F1C0E94441C0E944C1C0C944D1CF8
:1038B00081E008950C94581C089508950E94232ACD
:1038C0000E94F60D0E94EC2AEAE0F6E08081806812
:1038D000808380910A0690910B060E9451280C94D7
:1038E000501C4F925F926F927F929F92AF92BF92C5
:1038F000CF92DF92EF92FF920F931F93CF93DF93BC
:1039000000D000D00F92CDB7DEB70E945C1C0E94A1
:103910005D1C0E94240E0E945A1C882309F48FC04B
:1039200048E2A42E45E0B42E10E000E0902E802F57
:103930000E94BB0D6B017C01F5014190519061909B
:1039400071905F014C145D046E047F0409F471C032
:103950008091040681FD0E94D40DB301A2014C2583
:103960005D256E257F2520E0412C512C32014394AA
:10397000DB01CA0184219521A621B721892B8A2B3D
:103980008B2B09F44EC029839A82C420D520E620CF
:10399000F72081E0CD28CE28CF2809F480E08B8362
:1039A0000E942C2A8160782F9D838C8349815A81C3
:1039B0006B818D810E94451D000F111F000F111F8B
:1039C000F801E85DFA4F80819181A281B38184255D
:1039D0009525A625B72580839183A283B3830E9472
:1039E000AA2C0E94D51B909127058917C9F10E9426
:1039F000D51B809327050F900F900F900F900F907D
:103A0000DF91CF911F910F91FF90EF90DF90CF90BA
:103A1000BF90AF909F907F906F905F904F900C946D
:103A2000A30B2F5F440C551C661C771C243109F036
:103A30009FCF0F5F1F4F0730110509F077CF8FEF32
:103A400089838A831B820E942C2A8160782F9D8320
:103A50008C8349815A816B818D810E94451DBFCF26
:103A60000F900F900F900F900F90DF91CF911F91BB
:103A70000F91FF90EF90DF90CF90BF90AF909F900D
:103A80007F906F905F904F900895CF93DF93CDB765
:103A9000DEB72B970FB6F894DEBF0FBECDBF4F83B6
:103AA000588769877A878B871E8285E0FE01379663
:103AB000DE01119601900D928A95E1F749815A81B4
:103AC0006B817C818D819E812B960FB6F894DEBF31
:103AD0000FBECDBFDF91CF910C949823FC01808164
:103AE00091810C941D27CF93C82F882309F48FC090
:103AF0008238C1F40E94D51B81FD89C089E30E94F0
:103B000053270E94C7272FEF31EE84E02150304029
:103B10008040E1F700C0000089E30E945A27CF915E
:103B20000C94C7278338A1F40E94D51B80FD6FC079
:103B300083E50E9453270E94C7279FEF21EE34E0C0
:103B4000915020403040E1F700C0000083E5E5CF10
:103B50008438A1F40E94D51B82FD59C087E40E94DD
:103B600053270E94C7278FEF91EE24E081509040A9
:103B70002040E1F700C0000087E4CFCF8CEF8C0F2E
:103B8000813AB8F48C2F0E94292F811140C06C2FEC
:103B90008091E0029091E1020E94EF28882329F0B1
:103BA0008C2F0E945A270E94C7278C2F0E945327D0
:103BB000B6CF80E28C0F883048F4C77081E001C036
:103BC000880FCA95EAF70E947B27A9CF8BE58C0F57
:103BD000833038F42C2F2452330BC901CF910C942D
:103BE000181CE8E5EC0FE73150F4F0E0EE0FFF1F92
:103BF000EF5AFC4F80819181CF910C942E1CC03FD5
:103C000030F08C2F0E94A52BCF910C94902CCF914B
:103C10000895882309F452C0823871F40E94D51B9C
:103C200081FF4CC089E30E9453270E94C72789E384
:103C30000E945A270C94C727833859F40E94D51B39
:103C400080FF3CC083E50E9453270E94C72783E57D
:103C5000EFCF843859F40E94D51B82FF2FC087E430
:103C60000E9453270E94C72787E4E2CF9CEF980F5A
:103C7000913AF0F290E2980F983050F4877091E00A
:103C800001C0990F8A95EAF7892F0E948127D2CF28
:103C90009BE5980F933020F490E080E00C94181C82
:103CA00098E5980F973120F490E080E00C942E1C5A
:103CB000803F20F00E940D2C0C94902C0895CF93FF
:103CC000C82F0E94731DC93349F42FEF87EE93E08C
:103CD000215080409040E1F700C000008C2FCF9130
:103CE0000C94091E882321F00E947B270C94C7277F
:103CF0000895882321F00E9481270C94C7270895F6
:103D0000AF92BF92CF92DF92EF92FF920F931F93E9
:103D1000CF93DF9300D000D00F92CDB7DEB76C0108
:103D20006D837983FC01058102950F701281111159
:103D30000E949A270E947127E82E882391F0112370
:103D4000D1F08981807F803421F08D81805E883040
:103D500090F082E00E9412280E94712791E0E82EE4
:103D6000E926A980A2949FE0A922B12CF501E55F84
:103D7000F74C0C948D36E12CF4CF09810F70F9814A
:103D8000F07F11F00295007F1123B1F0002361F064
:103D90008D81805E883018F02D81211109C0802F1F
:103DA0000E947B270E94C7278D810E94731D15C02A
:103DB000802F0E948C27F6CF8D810E94091E002340
:103DC00061F08D81805E883018F04D81411133C0E3
:103DD000802F0E9481270E94C72748E0A41AB108BB
:103DE00054E0A516B10420F40E94D51B0E94A30B39
:103DF000EE2009F4D6C10E946D2780FDD2C1F601E4
:103E000012820E9467270E947425C6010E94F82032
:103E10000E9467270F900F900F900F900F90DF91E7
:103E2000CF911F910F91FF90EF90DF90CF90BF90B7
:103E3000AF900C94A525802F0E949227CCCF59815A
:103E40005F70F52E6981607F603219F0F29480EF27
:103E5000F8227D81772369F0713049F1112391F1C6
:103E6000002351F1F601858180FF9ECF8F708583FD
:103E700023C0112381F0011106C00E94AE278F29B3
:103E80000E94721EAACF0130C1F70E94AE278F296F
:103E90000E94B427A2CF011106C00E94BD278F2D1A
:103EA0000E94791E9ACF013009F497CFF6CF1123E3
:103EB00029F0063008F091CF8F2DE2CF053008F0C1
:103EC0008CCFEDCF002359F3FD81F93349F42FEF67
:103ED00047EE53E0215040405040E1F700C0000061
:103EE0008D810E94091E79CF898186958695837080
:103EF00069F0813009F071CF8D8199819370111132
:103F000002C090E080E00E942E1C67CF8D819981D5
:103F10009370111102C090E080E00E94181C5DCFE8
:103F20008D81112329F00E94A52B0E94902C55CF42
:103F30000E940D2CFACF8981837009F050C01111B5
:103F40004CCF4D81429546954770440F440F8D816B
:103F50008F7090E0B0E0A0E0042E04C0880F991F9D
:103F6000AA1FBB1F0A94D2F76D8100E010E09801F0
:103F700064FF0FC00FE010E020E030E004C0000F4D
:103F8000111F221F331F4A95D2F7009510952095D7
:103F9000309579817695769573707D83B901A80106
:103FA000482B592B6A2B7B2B49835A836B837C8349
:103FB0005D8169817A818B819C81523051F05330CF
:103FC00059F0513019F00E94EA2407CF0E94C22410
:103FD00004CF0E94122501CF0E94C024FECE1123DF
:103FE00009F445C0698160FFF8CE4D814295469540
:103FF0004770440F440F8D818F7090E0B0E0A0E0D7
:10400000042E04C0880F991FAA1FBB1F0A94D2F761
:10401000ED8100E010E09801E4FF0FC00FE010E038
:1040200020E030E004C0000F111F221F331F4A950B
:10403000D2F70095109520953095F981F695F69573
:10404000F370FD83B901A801482B592B6A2B7B2BF8
:1040500049835A836B837C83F230A1F0F330C9F03B
:10406000F13049F0CB01BA010E943326B6CE7981F6
:1040700071FFB3CEBACF69817A818B819C810E9416
:104080000B26ABCE69817A818B819C810E945B2655
:10409000A4CE69817A818B819C810E943E259DCE30
:1040A00059815F705983112329F0852F0E9474254F
:1040B0008D81E6CE8D810E94791E89810E94A52581
:1040C0008CCE6D81623F99F160F4603FD9F0613F21
:1040D00039F1112309F444C0011166CE89818F7131
:1040E00023C07D81733F41F1743F99F7112371F132
:1040F00089818F7189830E94742563E089810E9480
:10410000FD276BCE112341F0053008F066CE898182
:104110008F710E94DA2561CE063008F05ECEF7CFAF
:1041200089818F71112351F20E94742556CE8981A5
:104130008F711123C9F3C2CF112329F089818F71A7
:104140000E944F254ACE0E944A2547CE81E00E9418
:104150001228023008F441CE82E00E9412283DCE9F
:10416000002361F09D81993309F0BACEEFEFF7EEAD
:1041700023E0E150F0402040E1F7B0CE89818F711B
:104180009DCF49814F706D81C6010E94CE0A0E9469
:10419000322423CE49814F706D81C6010E94AB0B42
:1041A0001CCE0F900F900F900F900F90DF91CF913A
:1041B0001F910F91FF90EF90DF90CF90BF90AF9045
:1041C00008950F931F93CF93DF93EC01688179815A
:1041D0008A810E9429278C010E9483260E94BF2485
:1041E000B801CE01DF91CF911F910F910C94801EE9
:1041F000CF93DF93EC018B819C81892B29F08981FE
:10420000988189238F3F59F4DF91CF910895CE0192
:104210000E94E120CE01DF91CF910C94270BCE01BB
:104220000E94540B8111F3CF0E947127882361F300
:104230008A81882349F382E0DF91CF910C94122880
:104240000E949A270E94AB270E94C7270E94BB2D7D
:104250000E94902C90E080E00E94181C90E080E08A
:104260000C942E1C0E9461270C9420210E94892707
:104270000C943221282F892F82958F70903C80F4E6
:104280008A30B0F4843020F4823090F480E00895D5
:104290008630E1F781E0283E88F0213FB9F70EC073
:1042A0008C3011F08F3091F793FB882780F90895B7
:1042B00081E0203F39F018F4283E40F70895243F6C
:1042C00029F7FCCF08950E941D270C943A21CF9323
:1042D000DF9300D000D00F92CDB7DEB70F900F90D4
:1042E0000F900F900F90DF91CF910895CF93DF93B0
:1042F00000D000D000D0CDB7DEB726960FB6F89428
:10430000DEBF0FBECDBFDF91CF9108951F93CF9336
:10431000DF93E091450516E0809146058E1304C0B9
:10432000DF91CF911F910895CE2FD0E01E9FF00115
:104330001124E95BFA4F408151816281738184814C
:1043400095810E947621FE013196E770E5CF40917C
:104350007705509178056091790570917A05809183
:104360007B0590917C050C9476211F93CF93DF936E
:1043700080917C05807FA9F480917905882389F05C
:1043800080914505C091460570917705609178054B
:10439000A0917A05B0917B05D62FD72316E0C813DC
:1043A00004C0DF91CF911F91089590E0109711F014
:1043B000DF3F19F401968770F2CF189F9001199F83
:1043C000300D1124F901E95BFA4F41816413F2CFFA
:1043D00040814713EFCF42814111ECCF438154819B
:1043E0004A1B5B0B483C510528F780917C058F7078
:1043F000806180937C05F901E45BFA4F80818F70C6
:104400008061808387E795E00E94F820DF91CF915B
:104410001F910C948621AF92BF92CF92DF92EF92C0
:10442000FF920F931F93CF93DF93CDB7DEB72B97F8
:104430000FB6F894DEBF0FBECDBF8C0185E0F8014A
:10444000DE01179601900D928A95E1F7F8014081FF
:104450005181E28087E7A82E85E0B82E60917A0529
:1044600070917B056115710549F090917705209158
:104470007805892F82238F3F09F045C1EE2009F48A
:1044800053C14F8358878F8198850E946321F82EEE
:10449000882309F449C186E0F801A7E7B5E0019057
:1044A0000D928A95E1F787E795E00E946E1D0E94C4
:1044B000B52126C180917C05382F307F683C71057D
:1044C00008F07CC03111B5C0FE2C251324C0941314
:1044D00022C0E11020C08F70806180937C050E9413
:1044E000A72187E795E00E94F82080917C05F801DC
:1044F00085838F2D2B960FB6F894DEBF0FBECDBFF0
:10450000DF91CF911F910F91FF90EF90DF90CF90AF
:10451000BF90AF900895CD2829F0842F85238F3F39
:1045200009F084C080E0F82FF170DF2EE09145059E
:104530002091460536E080FD1CC0EE20D1F280912E
:104540007C05816080937C05F12CD3CF8E2F90E089
:104550003E9FF0011124E95BFA4F6181651306C0AB
:104560006081641303C062816E11E7CFFC01319654
:10457000E770E213EBCF4F8358878F8198850E94B5
:104580001D27292F22952F70903260F0225F2F7007
:10459000223078F49F7051F0F8019581907F31F4CA
:1045A000D12C0AC09F7011F08823D1F3805E88302F
:1045B000B8F3C8010E94F820FD2C9BCF31116EC0CA
:1045C0006E2D7A858B850E94672187E795E00E9492
:1045D000F82086E0F50111928A95E9F70E94A7215B
:1045E000B3CF86E0F801A7E7B5E001900D928A9578
:1045F000E1F77FCF4F8358878F8198850E94632191
:1046000081113DC080917C05816080937C05C8014B
:104610000E94F8206ECF6E2D7A858B850E946721CF
:1046200086E0F50111928A95E9F76AC081E08E254E
:104630007ACF251306C0941304C0F801EE2009F4C4
:1046400053C04F8358878F8198850E9463218823A8
:1046500009F46AC0EE2009F467C080917C058032BD
:1046600070F020917705309178053A8329831B8279
:10467000DD82CC828E83CE0101960E94F82086E0F6
:10468000F801A7E7B5E001900D928A95E1F70E9445
:10469000B5210E94A721FF24F3942BCF2513D1CF5E
:1046A0009413CFCFE110CDCFF8018583C8010E94CC
:1046B000F82086E0F50111928A95E9F71ACF2513C3
:1046C00099CF941397CF80917C0580FD8ACF982F46
:1046D000907F09F486CFF8018583903F31F0982FC1
:1046E000907F905F8F70892B8583C8010E94F8208E
:1046F00086E0F801A7E7B5E001900D928A95E1F711
:104700000E94A721F6CEC380D480F0907905F601EF
:10471000E61BF70BBF01F110CDCE683C710508F028
:104720007ACFFE2CE110CBCFC8010E94F820B3CF86
:104730001F93CF93DF93CDB7DEB72C970FB6F894C6
:10474000DEBF0FBECDBF4F83588769877A878B87BF
:104750009C87CE0107960E940B22882369F08A85E8
:104760009B85892B39F058854F81852F84238F3F76
:1047700009F071C016E05FC086E0FE013796DE01E9
:10478000119601900D928A95E1F78A859B85892B78
:1047900089F38F81988589238F3F61F320914605A6
:1047A00030E0C90101968770992740914505481767
:1047B000190671F40E9436211092460510924505A3
:1047C00086E0E7E7F5E0DF011D928A95E9F7D2CFB1
:1047D00096E0929FD001939FB00D1124A95BBA4F30
:1047E000FE01319601900D929A95E1F7809346056E
:1047F0000E948621BFCF819FC0011124895B9A4FFF
:104800000E940B228823E9F0E09145051E9FF001EC
:104810001124E95BFA4F4081518162817381848167
:1048200095810E9476218091450590E001968770E0
:1048300099278093450580914505909146058913F8
:10484000DACF2C960FB6F894DEBF0FBECDBFDF9146
:10485000CF911F91089569857A858B859C850E94EB
:10486000762188CFEF92FF920F931F93CF93DF9320
:104870008C01892B89F0F12CEE24E394E801219638
:10488000F8018491843709F458C0A0F4823009F407
:104890003FC048F48130D1F0DF91CF911F910F914B
:1048A000FF90EF9008959CEF980F9037A8F70E9423
:1048B000731D0AC0853709F44EC09CE7980F9037E6
:1048C00058F78F770E94091E8E0116C00E5F1F4F8A
:1048D000FE01849190E2980F983060F48770FE2D6D
:1048E00001C0FF0F8A95EAF78F2F0E949D270E9433
:1048F000C72702C00E94731D8F2D882309F4BECFE5
:10490000EFE9FFE03197F1F700C000008150F5CFEB
:104910000E5F1F4FFE01849190E2980F983050F483
:104920008770FE2D01C0FF0F8A95EAF78F2F0E9436
:10493000A327DDCF0E94091EDFCF0E5F1F4FFE01B0
:10494000C491CC23C9F28FE99FE00197F1F700C031
:104950000000C150F6CF0E5F1F4FFE01F490CCCF88
:1049600008950C94B0240E94B1246093DB057093E9
:10497000DC058093DD059093DE050C9420210895DD
:104980000C94B324CF93DF9300D000D0CDB7DEB723
:1049900069837A838B839C838091DB059091DC050E
:1049A000A091DD05B091DE0529813A814B815C81C2
:1049B000282B392B4A2B5B2B29833A834B835C832F
:1049C000CA01B9010F900F900F900F90DF91CF9116
:1049D0000C94B324CF93DF9300D000D0CDB7DEB7D3
:1049E00069837A838B839C838091DB059091DC05BE
:1049F000A091DD05B091DE0529813A814B815C8172
:104A0000282339234A235B2329833A834B835C83FE
:104A1000CA01B9010F900F900F900F90DF91CF91C5
:104A20000C94B324CF93DF9300D000D0CDB7DEB782
:104A300069837A838B839C838091DB059091DC056D
:104A4000A091DD05B091DE0529813A814B815C8121
:104A5000282739274A275B2729833A834B835C839E
:104A6000CA01B9010F900F900F900F90DF91CF9175
:104A70000C94B3240C94B0240C943A250E943C2549
:104A80006093D7057093D8058093D9059093DA0584
:104A90000C94202160E070E0CB010C943E250F9334
:104AA0001F93CF93DF9300D000D0CDB7DEB741E0A6
:104AB00050E060E070E08A019B0104C0000F111F0C
:104AC000221F331F8A95D2F709831A832B833C83D5
:104AD000C901B8010F900F900F900F90DF91CF9107
:104AE0001F910F910C943E250F931F93CF93DF934B
:104AF00000D000D0CDB7DEB741E050E060E070E01C
:104B000004C0440F551F661F771F8A95D2F7809106
:104B1000D7059091D805A091D905B091DA058A0101
:104B20009B01082B192B2A2B3B2B09831A832B83E0
:104B30003C83C901B8010F900F900F900F90DF9147
:104B4000CF911F910F910C943E250F931F93CF93FC
:104B5000DF9300D000D0CDB7DEB741E050E060E099
:104B600070E004C0440F551F661F771F8A95D2F767
:104B700040955095609570958091D7059091D80596
:104B8000A091D905B091DA058A019B010823192368
:104B90002A233B2309831A832B833C83C901B80151
:104BA0000F900F900F900F90DF91CF911F910F9169
:104BB0000C943E250F931F93CF93DF9300D000D02A
:104BC000CDB7DEB741E050E060E070E004C0440FD4
:104BD000551F661F771F8A95D2F78091D705909150
:104BE000D805A091D905B091DA058A019B01082763
:104BF00019272A273B2709831A832B833C83C90162
:104C0000B8010F900F900F900F90DF91CF911F91EF
:104C10000F910C943E25CF93DF9300D000D0CDB7F9
:104C2000DEB769837A838B839C838091D7059091CB
:104C3000D805A091D905B091DA0529813A814B8137
:104C40005C81282B392B4A2B5B2B29833A834B839E
:104C50005C83CA01B9010F900F900F900F90DF9104
:104C6000CF910C943E25CF93DF9300D000D0CDB7E9
:104C7000DEB769837A838B839C838091D70590917B
:104C8000D805A091D905B091DA0529813A814B81E7
:104C90005C81282339234A235B2329833A834B836E
:104CA0005C83CA01B9010F900F900F900F90DF91B4
:104CB000CF910C943E25CF93DF9300D000D0CDB799
:104CC000DEB769837A838B839C838091D70590912B
:104CD000D805A091D905B091DA0529813A814B8197
:104CE0005C81282739274A275B2729833A834B830E
:104CF0005C83CA01B9010F900F900F900F90DF9164
:104D0000CF910C943E250895E82F24E1929FE00D69
:104D100011248E2F877041E001C0440F8A95EAF775
:104D2000E695E695E69585E0E89FF0011124E358C5
:104D3000FA4F30E020E070E05191DF011197CB0194
:104D4000022E02C0969587950A94E2F781708195AC
:104D50008527842385278C932F5F3F4F253031058E
:104D600059F70895E82F24E1929FE00D11249E2F1A
:104D70009770E695E695E69585E0E89FF0011124A9
:104D8000E358FA4F50E040E080E0219130E0092EF6
:104D900002C0369527950A94E2F721703327042E36
:104DA00001C0220F0A94EAF7822B4F5F5F4F453014
:104DB000510559F70895BF92CF92DF92EF92FF927B
:104DC0000F931F93CF93DF938C01C090D705D090A2
:104DD000D805E090D905F090DA058091DB05909137
:104DE000DC05A091DD05B091DE05C82AD92AEA2AA2
:104DF000FB2ACFE1D0E0BC2ED701C6010C2E04C0A7
:104E0000B695A795979587950A94D2F780FD0EC021
:104E1000219788F7B12C8B2DDF91CF911F910F91A6
:104E2000FF90EF90DF90CF90BF900895B8018C2F46
:104E30000E94C80B019761F3EECFCF93DF93D82F79
:104E4000C92F0E94DB266D2F7C2FDF91CF910C9410
:104E5000C80B1F93CF93DF93162FD72F9091440544
:104E6000992339F0862F972FDF91CF911F910C94C2
:104E70001D27882391F0862F972F0E94DB26C82FAD
:104E8000682F812F9D2F0E948426612F7D2F8C2FCC
:104E9000DF91CF911F910C94C80B862F972F0E9402
:104EA000B226C82FF2CF682F8091E0029091E102E4
:104EB0000C947329682F8091E0029091E1020C9488
:104EC0007E298091E0029091E1020C9489298091E1
:104ED000DF0585958595859508958091DF05877017
:104EE00008959091DF05977081E009F480E00895BE
:104EF00080910306089590910306982B90930306E2
:104F00000895982F90958091030689238093030636
:104F1000089510920306089590910206982B90939D
:104F200002060895982F9095809102068923809318
:104F30000206089510920206089590910106982B9A
:104F4000909301060895982F9095809101068923EA
:104F50008093010608951092010608958091E0055E
:104F6000089508950C94B1279091E005981721F0C9
:104F70008093E0050C94B22708958091E005882382
:104F800029F01092E00580E00C94B2270895E0919A
:104F9000E002F091E102809103068083E091E0025B
:104FA000F091E102808190910206892B8083E0914B
:104FB000E002F091E102808190910106892B8083CB
:104FC0009091E005992381F0E091E002F091E102F7
:104FD0008081892B80838091E0029091E1020E9480
:104FE000DB2881110E94BD278091E0029091E102AF
:104FF0000C94EE1B08950C94FA2798E0899F900179
:105000001124622B6093DF050E9474258091DF05D7
:105010008595859585950C94FB271092DF0580E09A
:105020000C94FB279091DF05809589238093DF0501
:10503000282F277071F4282F082E000C330B92179D
:10504000130639F08595859585950E94A5250C94C4
:105050000D2808956FEF7FEF90E080E00C945737B4
:1050600090E080E00E9423379C0181E02C3E3E4F7F
:1050700009F080E0089582E090E00C941B3783E013
:1050800090E00C941B37CF9384E090E00E941B3794
:10509000C82F81E290E00E941B37982F8C2FCF9170
:1050A0000895CF93682FC92F84E090E00E9439378C
:1050B0006C2F81E290E0CF910C943937AB01BC01A9
:1050C0008FE090E00C944B37AB01BC0183E190E0A2
:1050D0000C944B3760E070E0CB010C94642860E0E6
:1050E00070E0CB010E945E280C946A286CEE7EEF83
:1050F00090E080E00E94573760E082E090E00E94FC
:10510000393760E083E090E00E9439371092DB0588
:105110001092DC051092DD051092DE0560E084E05F
:1051200090E00E94393760E081E290E00E943937D8
:1051300060E085E090E00E94393760E086E090E032
:105140000E9439376FEF87E090E00E94393740E0E6
:1051500050E0BA0188E090E00E944B3760E08DE0BB
:1051600090E00E94393740E050E0BA0188E190E0D9
:105170000E944B3760E087E190E00E94393740E0C1
:1051800050E0BA018CE190E00E944B3760E080E291
:1051900090E00E94393740E050E0BA0188E190E0A9
:1051A0000E944B370C946F280C947628682F8EE061
:1051B00090E00C943937FC0132968091F4028823F8
:1051C00021F080910A069EE187FF96E080E09150F1
:1051D00008F4089521912223D1F38F5FF8CF9C0129
:1051E000662301F18091F4028823F1F080910A0690
:1051F00087FF1AC0462F469546954695603F90F426
:10520000677081E090E002C0880F991F6A95E2F70D
:10521000240F311DF901228130E02823392381E058
:10522000232B71F480E00895F9013296285F3F4FF7
:105230008191861721F0E217F307D1F7F3CF81E0D0
:1052400008959C01FC0132968FEF90E04191461742
:1052500051F08F3F19F4411101C0892F9F5F9630A3
:10526000A9F78F3F09F40895280F311D87FD3A955E
:10527000F901628308959C01FC013296285F3F4F3B
:105280008191861303C0DF0111971C92E217F30787
:10529000B9F70895FC01862F869586958695603F1F
:1052A00060F4E80FF11D677021E030E001C0220FCB
:1052B0006A95EAF78281822B82830895FC01862F0A
:1052C000869586958695603F68F4E80FF11D6770B6
:1052D00081E090E001C0880F6A95EAF7809592819D
:1052E0008923828308952091F402222329F02091BA
:1052F0000A0627FD0C944A290C9421292091F402D6
:10530000222329F020910A0627FD0C945E290C9493
:105310003B29FC0132968091F402882351F0809160
:105320000A0687FF06C08EE1DF011D928A95E9F724
:10533000089586E0F9CF089508950E94A40A809107
:105340004006843049F11092050688E190E020E49F
:105350000FB6F894A895809360000FBE209360006C
:1053600080E00E94A30B0E94A40A83B7817F84601F
:1053700083BF83B7816083BF7894889583B78E7F1E
:1053800083BF0FB6F894A8958091600088618093E0
:105390006000109260000FBE08950895CF93DF93D0
:1053A00000D000D00F92CDB7DEB70E949B290E949B
:1053B000240E0E94CD291D828D810E94BB0D672B7A
:1053C000682B692B71F48D818F5F8D838730A1F7F6
:1053D00080E00F900F900F900F900F90DF91CF9182
:1053E000089581E0F6CF08950E9436210E94D51BD2
:1053F0000E94A30B0C94A90A1F921FB61F9211249E
:105400008F939F93AF93BF9380910506811113C033
:105410008091060690910706A0910806B0910906B2
:105420004196A11DB11D8093060690930706A09397
:105430000806B0930906BF91AF919F918F911F907D
:105440001FBE1F90189582E084BD93E095BD9AEF32
:1054500097BD80936E0008952FB7F894809106064B
:1054600090910706A0910806B09109062FBF0895F4
:10547000CF93DF9300D000D0CDB7DEB78FB7F894CD
:1054800020910606309107064091080650910906C2
:1054900029833A834B835C838FBF69817A818B81B7
:1054A0009C810F900F900F900F90DF91CF910895F6
:1054B0009C014FB7F8948091060690910706A09141
:1054C0000806B09109064FBF821B930B08950F93F6
:1054D0001F93CF93DF9300D000D0CDB7DEB7462F18
:1054E000572FBC012FB7F8948091060690910706BC
:1054F000A0910806B09109062FBF8C019D01041BE5
:10550000150B260B370BC901B8010F900F900F90A8
:105510000F90DF91CF911F910F91089578941F9272
:105520001FB61F9211248F939F93AF93BF938091C7
:10553000060690910706A0910806B091090601960B
:10554000A11DB11D8093060690930706A09308063F
:10555000B0930906BF91AF919F918F911F901FBE8D
:105560001F90189581E08093E00080E28093D8003E
:105570001092C9008FE19EE40197F1F700C000008E
:1055800087E090EBDC0180934A0690934B06A09352
:105590004C06B0934D0688E19CE00FB6F894A895B0
:1055A000809360000FBE90936000FFCF0C942A2878
:1055B0000E94240E8FE39CE90197F1F700C00000E0
:1055C0000E94240E80E00E94BB0D60FF04C00E9478
:1055D000D62A0C94B22A0895CF93DF9300D000D03E
:1055E000CDB7DEB70E943028811102C00E94D428B6
:1055F0000E943B28809304060E94432890930B0648
:1056000080930A060E943F28282F30E050E040E0B7
:10561000CA01B9010E94C0248091D7059091D80594
:10562000A091D905B091DA0589839A83AB83BC83B5
:10563000BC01CD010F900F900F900F90DF91CF9193
:105640000C943C258091120680FF12C06091E70205
:1056500085E0689FB00111247595679575956795EC
:1056600060387105A8F561157105A1F1862F0895BF
:1056700081FF09C06091E70285E0689FB0011124B5
:1056800075956795EDCF6091E70282FD0AC0809124
:1056900011068823D1F09091E6026091E702891704
:1056A00028F085E0689FB0011124DACF869FB00111
:1056B000112485E0869F9001879F300D1124692F6A
:1056C00070E0C9010E947936CBCF65E070E0CECFA3
:1056D0008FE7089581E008958091120680FF0CC045
:1056E0006091E30270E07595679575956795611512
:1056F000710549F1862F089581FF06C06091E3028C
:1057000070E075956795F3CF6091E30282FD0BC061
:10571000909110069923A1F06091E2028091E3023A
:10572000961738F0682F70E06038710500F38FE746
:105730000895899FC001112470E00E947936F4CF4A
:1057400061E070E0D7CF81E00895803F31F40E949E
:10575000222B8195809316060895813F19F40E94AB
:10576000222BF8CF823F31F40E94222B8195809327
:1057700015060895833F19F40E94222BF8CF893F24
:1057800029F40E946C2B8093170608958A3F21F418
:105790000E946C2B8195F7CF8B3F31F40E946C2BCC
:1057A00081958093180608958C3F19F40E946C2B04
:1057B000F8CF843F31F48091140681608093140601
:1057C0000895853F21F4809114068260F7CF863FCB
:1057D00021F4809114068460F1CF873F21F48091F9
:1057E00014068860EBCF883F21F480911406806115
:1057F000E5CF8D3F31F480911206816080931206CF
:1058000008958E3F21F4809112068260F7CF8F3F7A
:10581000B9F7809112068460F1CF90911506803F10
:1058200059F48091160687FF0DC01092160691114B
:105830000BC01092110608C0813F81F480911606BA
:1058400018169CF3992381F0809117069091180601
:10585000892B09F064C0109210060895823F49F424
:1058600097FFF0CF10921506809116068111ECCFAC
:10587000E0CF833F19F41916ACF3E4CF209117065B
:10588000893F29F41216F4F610921706DBCF8A3FEF
:1058900019F427FFD7CFF8CF209118068B3F29F4B2
:1058A00027FFD0CF10921806CDCF8C3F19F41216D7
:1058B000CCF3C8CF843F31F4809114068E7F80935F
:1058C0001406C0CF853F21F4809114068D7FF7CF59
:1058D000863F21F4809114068B7FF1CF873F21F41E
:1058E00080911406877FEBCF883F21F480911406C6
:1058F0008F7EE5CF8D3F31F4809112068E7F8093AD
:105900001206A0CF8E3F21F4809112068D7FF7CF33
:105910008F3F09F097CF809112068B7FF0CF0895CB
:105920000E942C2A2091150630911606232B21F077
:1059300080930E0690930F0620911706309118065B
:10594000232B21F080930C0690930D0683E196E0C3
:105950000C94091CCF92DF92EF92FF920F931F934A
:10596000CF93DF9300D000D000D0CDB7DEB726E0D4
:10597000E3E1F6E0CE010196DC0101900D922A955B
:10598000E1F7C0901506D0901606E0901706F0904B
:10599000180610921506109216061092170610920D
:1059A00018062C2D2D298C0191F080910E069091D6
:1059B0000F060E94582A9C0180911106882309F441
:1059C00040C09091E8029217130608F448C08E2D4B
:1059D0008F2991F080910C0690910D060E94582A13
:1059E0009C0180911006882309F478C09091E4020C
:1059F0009217130608F480C0809115069091160640
:105A0000892B90911706892B90911806892B11F0FC
:105A10000E94902C86E0F801A3E1B6E001900D927F
:105A20008A95E1F726960FB6F894DEBF0FBECDBF7C
:105A3000DF91CF911F910F91FF90EF90DF90CF906A
:105A400008954091E9029AE0499FA001112442176C
:105A5000530708F0BCCF8F5F8093110602C08F3FC1
:105A6000D1F7CC2059F00E94222B9FEF1C140CF48C
:105A700091E0899F802D112480931506DD2059F037
:105A80000E94222B9FEF1D140CF491E0899F802D22
:105A900011248093160630911506332309F497CF0D
:105AA00020911606222309F492CF45EB3403C0015E
:105AB0001124992359F09093150645EB2403900186
:105AC0001124332339F03093160681CF81E080937F
:105AD0001506F3CF81E08093160679CF4091E50259
