:100000000C9483030C94CA030C94CA030C94CA0383
:100010000C94CA030C94CA030C94CA030C94CA032C
:100020000C94CA030C94CA030C94FA350C94CE3683
:100030000C94A92B0C94CA030C94CA030C94CA0305
:100040000C94CA030C94CA030C94CA030C94CA03FC
:100050000C94CA030C941C2C0C94CA030C94CA0371
:100060000C94CA030C94CA030C94CA030C94CA03DC
:100070000C94CA030C94CA030C94CA030C94CA03CC
:100080000C94CA030C94CA030C94CA030C94CA03BC
:100090000C94CA030C94CA0329003A003B003C00AC
:1000A0003D003E003F00400041004200430044004C
:1000B000450046004700480035001E001F00200094
:1000C00021002200230024002500260027002D0007
:1000D0002E0049004A004B002B0014001A000800B3
:1000E000150017001C0018000C00120013002F0050
:1000F00030004C004D004E0039000400160007008F
:1001000009000A000B000D000E000F003300340040
:1001100028002A0000000000E10000001D001B0074
:1001200006001900050011001000360037003800E5
:10013000E50031005200E400E000E3000000E200CE
:10014000000000002C00000000000000E600E700B6
:100150000151500051004F000100003001300100FA
:1001600001000100010001000100A900AA00A8008F
:1001700001000100010001000100C35CC45CC65C19
:10018000C75CC85CC95CCA5CCB5C010001000100B3
:100190000100F400F000F500010001000100010081
:1001A0000100010001000100010001000100010047
:1001B0000100F200F100F300010001000100010064
:1001C0000100010001000100010001000100010027
:1001D000010001000000000001000000010001001A
:1001E0000100010001000100010001000100010007
:1001F00001000100F9000100010001000000010000
:1002000000000000010000000000000001000100EB
:100210000051FB00FA00FC00010001000100010098
:1002200001000100010001000100010001000100C6
:1002300001000100010001000100010001000100B6
:1002400001000100010001000100010001000100A6
:100250000100010001000100010001000100010096
:100260000100010001000100010001000100010086
:100270000100010001000100010001000100010076
:100280000100010001000100010001000100010066
:100290000100010000000000010000000100010059
:1002A0000100010001000100010001000100010046
:1002B0000100010001000100010001000000010037
:1002C000000000000100000000000000010001002B
:1002D0000100010001000100010001000100010016
:1002E0000100010001000100010001000100010006
:1002F00001000100010001000100010001000100F6
:1003000001000100010001000100010001000100E5
:1003100001000100010001000100010001000100D5
:1003200001000100010001000100010001000100C5
:1003300001000100010001000100010001000100B5
:1003400001000100010001000100010001000100A5
:100350000100010000000000010000000100010098
:100360000100010001000100010001000100010085
:100370000100010001000100010001000000010076
:10038000000000000100000000000000010001006A
:100390000100010001000100000000000000000059
:1003A0002A2B2800000000000000000000000000D0
:1003B00000000029000000002C1E342021222434DB
:1003C0002627252E362D3738271E1F2021222324AD
:1003D00025263333362E37381F0405060708090A49
:1003E0000B0C0D0E0F101112131415161718191AE5
:1003F0001B1C1D2F3130232D350405060708090A63
:100400000B0C0D0E0F101112131415161718191AC4
:100410001B1C1D2F3130354C000000000000000077
:100420000000000000000000000000007E0F00D46B
:10043000FFFFFFC700000078000101010101010179
:100440000101020202020202020202030303030389
:100450000303030404040404040405050505050658
:100460000606060607070707070808080809090916
:10047000090A0A0A0B0B0B0C0C0C0D0D0D0E0E0EBF
:100480000F0F0F1010111111121213131414151550
:1004900016161717181819191A1A1B1B1C1D1D1EC2
:1004A0001E1F202021222223242425262627282916
:1004B000292A2B2C2D2D2E2F303132323334353644
:1004C0003738393A3B3C3D3E3F4041424344454644
:1004D0004748494A4C4D4E4F505153545556585920
:1004E0005A5B5D5E5F616264656668696B6C6D6FC7
:1004F0007072737577787A7B7D7E8082838587883A
:100500008A8C8E8F91939596989A9C9EA0A2A3A573
:10051000A7A9ABADAFB1B3B5B7BABCBEC0C2C4C674
:10052000C9CBCDCFD1D4D6D8DBDDDFE2E4E7E9EB30
:10053000EEF0F3F5F8FAFDFF22034D006F006E00B8
:100540007300740061007200670065006100720052
:10055000200058004F0038003700000018034D00FD
:100560006F006E0073007400610072006700650028
:100570006100720000000403090409025B0003012A
:1005800000A0FA0904000001030101000921110182
:1005900000012240000705810308000A0904010048
:1005A00002030000000921110100012222000705B9
:1005B0008203200001070503032000010904020053
:1005C000010300000009211101000122BC00070500
:1005D000840320000A1201100100000008474D4F5B
:1005E000580100010200010660FF0961A1010962D2
:1005F000150026FF00952075088102096315002665
:10060000FF00952075089102C005010902A101852E
:10061000020901A100050919012905150025019507
:1006200005750181029501750381010501093009F4
:10063000311581257F9502750881060938158125B8
:100640007F950175088106050C0A38021581257F02
:10065000950175088106C0C005010980A1018503C7
:1006600019012AB700150126B70095017510810000
:10067000C0050C0901A101850419012AA002150178
:1006800026A002950175108100C005010906A1018F
:100690008505050719E029E715002501950875016D
:1006A00081020507190029EF1500250195F0750154
:1006B0008102050819012905950575019102950129
:1006C00075039101C005010906A101050719E0297B
:1006D000E7150025019508750181029501750881CE
:1006E000010507190029FF150026FF00950675086A
:1006F00081000508190129059505750191029501EB
:1007000075039101C00011241FBECFEFD0E1DEBF01
:10071000CDBF04B603FE27C0809193069091940646
:10072000A0919506B09196068730904BA740B04BAC
:10073000D1F410929306109294061092950610929E
:10074000960614BE84B7877F84BF0FB6F894A89529
:1007500080916000886180936000109260000FBEFD
:10076000E0E0F8E7099513E0A0E0B1E0E4E4F5E7A4
:1007700002C005900D92AE36B107D9F726E0AEE67D
:10078000B3E001C01D92A339B207E1F70E94BF3266
:100790000C94EB390C94000081E00E9430180C940A
:1007A000592B80E00E9430180C94A02BCF930E940C
:1007B000CD1EC82F20E040E064E682FF60E08CE5BB
:1007C00090E00E94A90D20E040E064E6C0FF60E0F8
:1007D0008DE590E00E94A90D20E040E064E6C1FFB5
:1007E00060E08EE590E0CF910C94A90D81E0089532
:1007F00081E008950C94F80308950C94FC031F9372
:10080000CF93DF9300D000D00F92CDB7DEB74983EE
:100810005A836B833091170489819A8131111DC0ED
:100820006623B9F02223A9F00E94A728182F682F69
:1008300089819A810E94542869817A81812F0F9041
:100840000F900F900F900F90DF91CF911F910C940C
:10085000E61B0E948028182FEFCF0E94A7286981ED
:100860007A81EDCFFC01262F408151816281738115
:1008700084810C94FF03CF93DF93EC0160E00E942E
:100880003204BE01DF91CF910C94FD03FF920F93D0
:100890001F93CF93DF93E82FF0E0E856FC4FF490DE
:1008A000C82FC695C695C695D0E0FE01E85DFB4F02
:1008B0000491877010E0082E02C0159507950A94E0
:1008C000E2F701701127C85EDB4FFE01C491D0E052
:1008D00002C0D595C7958A95E2F7C170DD2701154D
:1008E000110519F081EE0E944220209719F086EE42
:1008F0000E9442208F2D0E942F21CD2B19F086EED1
:100900000E94D920012B41F081EEDF91CF911F9100
:100910000F91FF900C94D920DF91CF911F910F91EF
:10092000FF900895EF92FF920F931F93CF93DF9361
:10093000EC01162F0AE08881882309F454C0813025
:1009400009F04EC08981813099F47E0122E0E20EE7
:10095000F11C8A810E942F21E7012196812F81506D
:1009600050F3EFE9FFE03197F1F700C00000F7CF57
:10097000823041F47E0182E0E80EF11C8A810E94FF
:100980004220EACF833041F47E01E2E0EE0EF11C1A
:100990008A810E94D920E0CF843011F02196DDCFEA
:1009A0002A81229690E080E0AE014F5F5F4F205396
:1009B000330B2A30310548F0019778F2EFE9FFE078
:1009C0003197F1F700C00000F7CF089FB001099FF1
:1009D000700D1124C901860F971F2981EA01E4CF08
:1009E0000E944604BACFDF91CF911F910F91FF90E3
:1009F000EF90089560E00C9492048F929F92AF92D2
:100A0000BF92CF92DF92EF92FF920F931F936B01F1
:100A10007C0181E090E0A0E0B0E04C015D0104C009
:100A2000880C991CAA1CBB1C4A95D2F7B501A401DD
:100A30004C015D0104C0880C991CAA1CBB1C2A95A2
:100A4000D2F7482959296A297B2904C0880F991FA0
:100A5000AA1FBB1F0A95D2F78A019B010C211D21F9
:100A60002E213F21041715072607370789F48C2903
:100A70009D29AE29BF29BC01CD011F910F91FF9087
:100A8000EF90DF90CF90BF90AF909F908F900895A0
:100A900080959095A095B0958C219D21AE21BF2188
:100AA000EACF0F93382F262F60918C0470918D041C
:100AB00080918E0490918F04042F432F0E94FD0497
:100AC0000F910C9492270E94662C0E94F1298111AB
:100AD00002C00E94952A0E94D4170C94DC070E9441
:100AE00023160C94DF0708950E94BE230E9473050D
:100AF0002FEF84E39CE0215080409040E1F700C05C
:100B000000000C94402C0F931F93CF93DF93EC01C4
:100B100061E00E9432048C01BE010E946A158823A4
:100B2000B9F1BE01C8010E941C1A882389F1BE01D7
:100B3000C8010E94FA03882359F1BE01C8010E942E
:100B40001D1D882329F1BE01C8010E946F1D882345
:100B5000F9F0BE01C8010E94921E8823C9F0BE01AF
:100B6000C8010E943B19882399F08A81882339F0B3
:100B700001158CE5180751F00F3D1C4579F0CE01A9
:100B8000DF91CF911F910F910C94F6030E94740591
:100B900080E0DF91CF911F910F9108950E94952AD7
:100BA000F7CF08950C94D10581E008950C94D405F5
:100BB000CF93C82F0E94D2058C2FCF910C94D605CD
:100BC00090E080E008950895FC01EE0FFF1FE85CBF
:100BD000FB4F859194910895CF93DF930E94E61B7C
:100BE0000E940107EC01811520E5920708F042C040
:100BF000811530E4930708F0BDC0883E910528F5C3
:100C0000803E910508F09DC0883A910588F4853AA8
:100C1000910508F08FC08130910509F492C00097CA
:100C200009F48FC0049708F08CC0D0E0C0E089C000
:100C30008F3B910508F489C0805C9109C03CD105C7
:100C4000A0F30E94E405EC017CC08115904250F4B1
:100C5000C11581E0D80708F074C0C03FD10528F362
:100C6000D0656FC0C11590E3D90708F079C0CE01F7
:100C70009F70E7CF811525E5920758F5811534E57A
:100C8000930708F0A6C0811542E5940750F4C115FA
:100C900081E5D80708F471C0DC2FCC27C16FD06A7A
:100CA00050C0982F969596959E0123703327C115B5
:100CB000D34508F07FC0C1E0D0E002C0CC0FDD1FFB
:100CC0002A95E2F720E2929FC0011124C82BD92B6C
:100CD0006FC0C11589E5D807A8F4C11598E5D907F3
:100CE00008F07CC0C11526E5D20708F09ECF8C2FF6
:100CF0000E949807C82FD0E0DC2FCC27CC27DF71CB
:100D0000D0621FC0C1153AE5D30708F46CC0CE010C
:100D100090568115904208F088CF8D2F8F710E94D8
:100D2000980790E0982F882788279F719C012C2B8B
:100D3000E901E6CFC55AD0E0C650DD4FC881D0E00A
:100D4000D064CE01DF91CF910895C85AD0E0CC0F86
:100D5000DD1FC453DD4F0990D881C02DD464F1CF7D
:100D6000CE019927D3FF03C0EC01D86CEACFEC0188
:100D7000D06CE7CFDF70D06AE4CFCE01E4E0969587
:100D80008795EA95E1F783702C2F26952695237099
:100D900090E2299F90011124382B8C2F8370C1E0A1
:100DA000D0E002C0CC0FDD1F8A95E2F7C22BD32B17
:100DB000DC68C7CFC1E0D0E002C0CC0FDD1F2A95B0
:100DC000E2F730E2939FC0011124C82BD92BDA68D7
:100DD000B8CFD82FCC27C46FD06AB3CFDC2FCC27A5
:100DE000C06FD06AAECF8C2F8F700E94980734E00E
:100DF000D695C7953A95E1F7CF709C2FEC01D06955
:100E0000A0CF82389105B1F1B0F48133910509F496
:100E100075C048F48932910509F469C08A32910598
:100E200009F473C008958533910509F459C08933D5
:100E3000910501F10895833E9105A9F138F4803EB2
:100E40009105F9F0823E910549F10895863E91059C
:100E5000A9F1873E9105C9F1843E910519F52091CC
:100E6000850621FF1FC08091840684FD14C087EE93
:100E700090E00895209184062370A1F080EE90E028
:100E800008952091840620FD47C03091850630FFEB
:100E900009C024FF44C090E080E004C02091840693
:100EA00022FDF7CF08952091840622FD3BC03091AA
:100EB000850630FDE3CF24FFF5CFEDCF20918406EA
:100EC00023FFF0CF24FDE7CFD2CF2091840623FD6E
:100ED0002CC03091850631FFEECF84EE90E008956E
:100EE0002091840625FFDECF89E290E008952091CD
:100EF000840625FFD7CF85E390E0089520918406EE
:100F000026FFD0CF8AE290E008952091840626FF44
:100F1000C9CF81E390E0089589E390E0089583EEDE
:100F200090E0089582EE90E0089586EE90E00895B6
:100F30009091840692FF06C0282F28712830F9F47A
:100F4000877F846093FF06C0282F28712831F1F431
:100F5000877E84612091850620FF06C0382F387176
:100F60003830D9F4877F816021FF06C0282F28718F
:100F70002831D1F4877E816194FD877E0895282FE2
:100F800024712430F9F68B7F8860DCCF282F247100
:100F9000243101F78B7E8861DDCF382F31713130FC
:100FA00019F78E7F8860E0CF282F2171213121F73A
:100FB0008E7E8861E1CF08950C94DB0708950C9430
:100FC000DE07E82FF0E0EE0FFF1FE850FB4F8081B7
:100FD00091810895089580EA8A95F1F70895F8942B
:100FE000E82FE295EF70F0E031A1282F2F7081E01B
:100FF00090E001C0880F2A95EAF7982F90959323E7
:1010000091A392A1892B82A378940895CF93DF9323
:10101000CDEFD2E089910E94EF0783E0CD30D80771
:10102000C9F786EC0E94EF0787EC0E94EF0783EC7C
:101030000E94EF0780E30E94EF0781E30E94EF0721
:1010400082E00E94EF07ECEEF4E0A8EFB4E011922A
:1010500011921D921D9284E0E83FF807C1F786E0E7
:101060000E94CC08DF91CF910C9463056F927F9220
:101070009F92AF92BF92CF92DF92EF92FF920F9327
:101080001F93CF93DF939DEFE92E92E0F92E10E0AE
:1010900000E0C0E0CC24C394D12C38EFA32E34E080
:1010A000B32ED7018D917D01F894E82FE295EF7072
:1010B000F0E021A18F70A60102C0440F551F8A9550
:1010C000E2F7CA01922F982B91A392A180958923D0
:1010D00082A378940E94EB07A601002E02C0440F61
:1010E000551F0A94E2F7BA0160957095ECEEF4E0B2
:1010F0008DE0682E83E0782ED0E021913191D301EC
:101100009D903D01892D82958F7090E0DC01909635
:101110008C9190E0B92DBF7002C095958795BA95D6
:10112000E2F780FD35C0C901842B952B28173907BC
:1011300039F09F0122503109D9018D939C93D1E060
:10114000AE16BF06D1F6F701319780810E94EF07F6
:10115000CD2B0F5F1F4F0031110509F0A2CF2C2FAF
:1011600046E068EF74E08CEE94E00E94CD080E94A7
:101170006F058C2FDF91CF911F910F91FF90EF9012
:10118000DF90CF90BF90AF909F907F906F90089529
:10119000C90186239723CACF0895FF920F931F9307
:1011A000CF93DF93F82E092F162FD72FC42F22238A
:1011B00049F081E0809370030E94D92B90936F03D4
:1011C00080936E03809170038823A1F080916E0359
:1011D00090916F030E94F12B069760F0EF2DF02F96
:1011E000A12FBD2F90E080E0D0E08C179D0744F048
:1011F00010927003DF91CF911F910F91FF9008958E
:10120000219131912D933D930196EFCFEF92FF9273
:101210000F931F93CF93DF93EB01E82FD11110C0F1
:10122000442321F0F0E0E85CFB4FE4916E2F7E2F29
:101230008E2FDF91CF911F910F91FF90EF90089526
:101240000D2F10E0282F30E0442329F0285C3B4F7D
:10125000F901249130E0F6E0CF9FC0011124EFEFB7
:10126000F0E0BF010E948038AB018C2F90E0880F26
:10127000991FA5E5A49FB001A59F700D1124861BA1
:10128000970B982F990F980FBF01601B710B629FEE
:10129000D001639FB00D729FB00D11248B2F9D9FC5
:1012A000B0011124672F7727EF01C61BD70BBE01B2
:1012B000629FE001639FD00D729FD00D11247F01CA
:1012C000E91AF108E09EB001E19E700DF09E700DEC
:1012D0001124672F7727E61BF70BE29F8001E39F1E
:1012E000100DF29F100D1124E12F722F4230510585
:1012F00099F048F44115510569F04130510581F0EC
:10130000EB2F8D2F07C04430510569F080F0463037
:101310005105B1F76E2F8DCFE22F7B2F812FFACFA2
:10132000E22F7D2FF7CFEB2F822F712FF3CF7B2F63
:10133000822FED2FEFCF41E00C94060930E020E042
:10134000869F212D969F200D311D1124C9010895DE
:10135000AC018230910508F408959FEF413E8EE183
:10136000580740F49A0195E0369527959A95E1F74C
:1013700098E0920F61E0E62FE90FFF27FF1F9F0122
:1013800035952795822F229FF001239FF00DF00DB8
:1013900011244E175F0738F49FEF920F961758F7F6
:1013A0008FEF860F08952F3FE9F361E0620FF6CFCC
:1013B000E82F86FDE0952E2F2F7086FD2F5FE69596
:1013C000E695E695E670F0E0ED5EFC4F9181929F28
:1013D000902D212D112492959F702295207F922B84
:1013E0002081920F87FD919580E8890F0895E42F61
:1013F000F0E0EE0FFF1FEC59FE4F408134EE439FAB
:10140000412D1124E72FF0E050E0445E5F4FDA01F8
:10141000A21BB1099D01B7FF03C031952195310988
:1014200093E0220F331F9A95E1F7AF01421B530B54
:101430009A0157FD20E0279F212D1124722F089536
:10144000E42FF0E0EE0FFF1FEC59FE4F408134EE29
:10145000439F412D1124E82FF0E050E0445E5F4FA0
:10146000DA01A21BB1099D01B7FF03C03195219597
:10147000310993E0220F331F9A95E1F7AF01421B28
:10148000530B9A0157FD20E0582F259F212D112441
:10149000822F0895622F0895E42FF0E0EE0FFF1FD2
:1014A000EC59FE4F6081621B0895E42FF0E0EE0FCF
:1014B000FF1FEB59FE4F6081621B0895322F50E0F1
:1014C000FA01EE0FFF1FEB59FE4F9081905297FDEE
:1014D0009195440F551FFA01EC59FE4F2081231BB3
:1014E000330B290F311D97FD3A95620F0895EF9246
:1014F0000F93972F23E0029FB001112475956795F4
:101500006E0D792F0F91EF9008950F93CF93DF9386
:10151000D72FC82F47FD419588E390E0841B9109A0
:1015200047FD9395889FB001899F700D700D112420
:10153000229FC001239F900D900D1124860F971FAD
:101540000E94A809982F990F890F682F600F7D2F8F
:101550008C2FDF91CF910F9108950F931F93522FEE
:1015600010E0F801EE0FFF1FEB59FE4FA081A052D3
:10157000BB0B9D015203F001539FF00D1124000F8E
:10158000111FD801AC59BE4F0C910057110B4003ED
:101590009001419F300D11242E0F3F1F37FF02C0D5
:1015A00021583F4F220F232F221F330B620F1F9111
:1015B0000F9108950F931F93522F10E0F801EE0F33
:1015C000FF1FEB59FE4FA081A052BB0B9D015203A0
:1015D000F001539FF00D1124000F111FD801AC59D9
:1015E000BE4F0C910057110B40039001419F300DED
:1015F00011242E0F3F1F37FF02C0215C3F4F96E0A2
:10160000359527959A95E1F7620F1F910F910895EF
:101610000F931F9310E0F801EE0FFF1FEC59FE4FE0
:101620009081905797FD9195000F111FF801EB598C
:10163000FE4F00810052110B2003F001219FF00D9D
:10164000112408E310E0091B110997FD13954003CD
:101650009001419F300D1124E20FF31F9F01220FD3
:10166000331F2E0F3F1F37FF02C021583F4F220F5D
:10167000232F221F330B620F1F910F910895409566
:10168000282F429F412D1124842F089522E8241BE6
:1016900008F420E0620F0895EF92FF920F939701F4
:1016A00095E0099F200D311D11242F3F310519F0C0
:1016B00010F02FEF30E02095382F320F08F43FEF75
:1016C000832F0F91FF90EF900895EF92FF920F9369
:1016D0001F930E0D1F2D111DF90137FF03C0F1954A
:1016E000E195F10924E0EE0FFF1F2A95E1F7EF3FA6
:1016F000F10519F014F0EFEFF0E09A0157FF03C085
:1017000031952195310994E0220F331F9A95E1F725
:101710002E173F070CF4F901E00FF11FEF3FF10521
:1017200019F010F0EFEFF0E0E095282F3E2F230F97
:1017300008F42FEF822F1F910F91FF90EF900895E3
:10174000EF92FF920F93972F093438F4B701601B83
:1017500071096F3F710519F010F06FEF70E0485F8D
:101760005F4F4131510540F0A901485F5F4F413162
:10177000510510F06FEF70E06095482F460F08F4A8
:101780004FEF842F37FF02C02D5F3F4F35952795D0
:101790003595279560910505620F792F0F91FF9080
:1017A000EF900895EF92FF920F939701201B31095C
:1017B0002F3F310519F010F02FEF30E0322F309528
:1017C000482F430F08F44FEF842F620F0F91FF90C3
:1017D000EF900895EF92FF920F939701201B31092C
:1017E0002F3F310519F010F02FEF30E02095382F02
:1017F000320F08F43FEF832F0F91FF90EF90089581
:10180000FC019B01009729F480E077FF2BC080E862
:101810000895AC0197FF04C044275527481B590B76
:10182000B901640F751F37FD10C0241B350BC901AA
:10183000A5E0880F991FAA95E1F70E94943880E2ED
:10184000861BF7FF0FC081950895CB0165E0880FD7
:10185000991F6A95E1F7BA01621B730B0E949438D5
:1018600080E6EECF08950F931F93CF93DF93D62F8B
:10187000172FC82FC901272F201B022FBA010E9442
:10188000000C982F990F990F782F791B700F719F6B
:10189000712D11246D2F8C2FDF91CF911F910F91FE
:1018A00008950F931F93CF93DF93D62FC72F182F31
:1018B000C901212F201B022FBA010E94000C982F72
:1018C000990F990F891B800F282F219F212D1124FB
:1018D000822F6D2F7C2FDF91CF911F910F91089553
:1018E000EF920F931F93CF93DF93D62F172FC82F0D
:1018F000C9010E19070FBA010E94000C702F781B46
:10190000719F712D11246D2F8C2FDF91CF911F911D
:101910000F91EF900895EF920F931F93CF93DF9362
:10192000D62FC72F182FC9010E19010FBA010E9417
:10193000000C081B202F219F212D1124822F6D2F99
:101940007C2FDF91CF911F910F91EF9008950F930E
:10195000CF93DF93D72FC82FC901BA010E94000C83
:10196000682F600F7D2F8C2FDF91CF910F910895FD
:10197000EF920F93CF93DF93D72FC82FC9010E1982
:10198000BA010E94000C602F681B7D2F8C2FDF9105
:10199000CF910F91EF9008950C949B090F931F9393
:1019A000CF93DF93FC01618140819FEF960FB1E0FF
:1019B000B60FAFEFA40F81E0840FF0E16F9FE0015D
:1019C0001124A41760F48E0101561C4F0A0F111D3B
:1019D000F801208130E1230F08F42FEF2083242F1A
:1019E00030E0C156DC4F8E01020F131FF801508109
:1019F00070E2570F08F45FEF5083803140F4C80F56
:101A0000D11D588170E1570F08F45FEF5883B6304D
:101A1000F0F050E1959FF0011124A41708F445C09F
:101A2000E156FC4FDF01A20FB31F2C9130E1230FD1
:101A300008F42FEF2C93803108F032C0E80FF11D2D
:101A400020813DE0230F08F42FEF208329C050E1CF
:101A5000B59FF0011124A41758F4EF01C156DC4FD3
:101A6000CA0FD11D58817DE0570F08F45FEF5883EE
:101A7000E156FC4FEF01C20FD31F588170E1570FA1
:101A800008F45FEF5883803140F4E80FF11D508176
:101A90007DE0570F08F45FEF5083961708F4B9CF35
:101AA000DF91CF911F910F910895AF0141565C4F87
:101AB000A40FB52FB11D4C915DE0450F08F44FEF19
:101AC0004C93AECF45E050E06CE170E084E095E0EF
:101AD0000C94773945E050E06CE170E084E095E0EB
:101AE0000C949539E4E0F5E085E380838091C902A8
:101AF0009091CA02A091CB0281839283A3838FE746
:101B000084830C946A0D80E008950F931F93CF9304
:101B1000DF93C82FD62F8A010E94830D90E1C99FC1
:101B2000B00111246C5F7E4F6D0F711DFB01908120
:101B30009F3F29F0F801E80FF11D90838F5FDF913F
:101B4000CF911F910F910895E0912103F09122030D
:101B50000994E0911D03F0911E0309945F926F9226
:101B60007F928F929F92AF92BF92CF92DF92EF922D
:101B7000FF920F931F93CF93DF935C014B01FC0106
:101B8000C08186E1C89FC02D112416E11C0FF12EE3
:101B90001F3610F03EE6F32E6091080566958091A1
:101BA000090590910A050E949E09582ED0E0CF1594
:101BB000A0F081E01E3608F080E0DF91CF911F9108
:101BC0000F91FF90EF90DF90CF90BF90AF909F90DC
:101BD0008F907F906F905F900895FE01E05CFD4FC5
:101BE0008081F50191818923C9F1CE01880F991F68
:101BF0008C5F9E4FFC01E05AFF4F2081422F4057DF
:101C0000550B6A018F599F4FFC018081282F20526C
:101C1000330B3901449F9001459F300D300D112445
:101C2000669CC001679C900D900D1124820F931F3C
:101C30000E94A809082F6091050570910605809102
:101C40000705E52C9301A601F40109950E94CC0C2F
:101C5000462F282F672FCE010E94A90D2196A7CFCE
:101C600060E77CE00C94AE0D6BE87CE00C94AE0D6C
:101C700067E77AE00C94AE0D68EB7CE00C94AE0D57
:101C8000AF92BF92CF92DF92EF92FF920F931F938A
:101C9000CF93DF936C017B01FC01C08186E1C89F7B
:101CA000C02D112416E11C0FB12E1F3610F03EE698
:101CB000B32E6091080566958091090590910A05FB
:101CC0000E949E09A82ED0E0CB1578F081E01E3648
:101CD00008F080E0DF91CF911F910F91FF90EF907E
:101CE000DF90CF90BF90AF900895FE01E05CFD4F74
:101CF0008081F6019181892311F1CE01880F991F0E
:101D00008C5F9E4FFC01EF59FF4F20812052330B17
:101D1000805A9F4FFC0140814057550B609105054B
:101D200070910605809107050A2DF70109950E941B
:101D3000CC0C462F282F672FCE010E94A90D21968B
:101D4000C3CF63E37CE00C94400E61E57CE00C942F
:101D5000400E65E87AE00C94400E67EA7CE00C9453
:101D6000400EBF92CF92DF92EF92FF920F931F939C
:101D7000CF93DF936C017B01FC01C08186E1C89F9A
:101D8000C02D112416E11C0F012F1F3608F00EE69E
:101D900060910805669566958091090590910A0500
:101DA0000E949E09B82ED0E0C01770F081E01E3668
:101DB00008F080E0DF91CF911F910F91FF90EF909D
:101DC000DF90CF90BF900895FE01E05CFD4F8081D1
:101DD000F6019181892391F06091050570910605C6
:101DE000809107052B2D4C2FF70109950E94CC0CF3
:101DF000462F282F672FCE010E94A90D2196D4CF00
:101E000067EF79E00C94B10E60E27AE00C94B10EC9
:101E10006AE47AE00C94B10E6CE47AE00C94B10EB2
:101E200065E57AE00C94B10E6EE57AE00C94B10EA3
:101E30007F928F929F92AF92BF92CF92DF92EF925A
:101E4000FF920F931F93CF93DF935C016B01FC0113
:101E5000C08186E1C89FC02D112416E11C0F912E70
:101E60001F3610F03EE6932E609108056695669544
:101E70008091090590910A050E949E09F82E80E440
:101E80008F0D0E94D80990E8892E880E8F2D0E9410
:101E9000D80920E8722E780ED0E0C91590F081E0C4
:101EA0001E3608F080E0DF91CF911F910F91FF90D7
:101EB000EF90DF90CF90BF90AF909F908F907F90EA
:101EC0000895FE01E05CFD4F8081F5019181892339
:101ED000A1F0609105057091060580910705EF2C32
:101EE0000C2F272D482DF60109950E94CC0C462F6A
:101EF000282F672FCE010E94A90D2196CECF6DEA23
:101F00007AE00C94180F6AED7AE00C94180F68E0F0
:101F10007BE00C94180FAF92BF92CF92DF92EF92BA
:101F2000FF920F931F93CF93DF937C016B01FC0112
:101F3000C08186E1C89FC02D112426E1B22EBC0EBF
:101F4000AB2CFEE6FB1510F49EE6A92E20910805A9
:101F500030E050E040E06FEF7FEF80E090E00E94E3
:101F6000A8388901D0E02C2FCA1580F081E0FDE669
:101F7000FB1508F480E0DF91CF911F910F91FF9046
:101F8000EF90DF90CF90BF90AF900895FE01E05C9E
:101F9000FD4F8081F70191818923F1F040910D057A
:101FA0004150042E000C550B47FF18C0C80160912A
:101FB00008050E949E09AC01609105057091060517
:101FC00080910705F60109950E94CC0C462F282F19
:101FD000672FCE010E94A90D2196C5CFFA01E35FBC
:101FE000FA4F818982130AC0FA01EE0FFF1FE35FE7
:101FF000FA4F818D928D80179107C8F24150510997
:10200000D3CF6FE37BE00C948B0F66E47BE00C9402
:102010008B0F2F923F924F925F926F927F928F928F
:102020009F92AF92BF92CF92DF92EF92FF920F9367
:102030001F93CF93DF93CDB7DEB72B970FB6F894EE
:10204000DEBF0FBECDBF8C832B015F834E83FB01B0
:10205000F08186E1F89F802D112489838A5E8A832E
:102060008B838F3610F02EE62B8330910D053D8348
:102070009981892F90E09B878A87880F991FFC019F
:10208000EC59FE4F6F01FC818F2F90E09C012F5F78
:102090003F4F39872887EB81FA85FE17F0F081E002
:1020A0002A812E3608F080E02B960FB6F894DEBF1A
:1020B0000FBECDBFDF91CF911F910F91FF90EF9099
:1020C000DF90CF90BF90AF909F908F907F906F9058
:1020D0005F904F903F902F900895EA85FB85E05CDC
:1020E000FD4F8081F2019181892301F12090050546
:1020F0003090060528853985235F3A4F39013C81A8
:10210000398310E029813D812317C8F0209107050C
:10211000129F112D1124B101812F0E94CC0C462F4A
:10212000282F672F8A859B850E94A90D8A859B850C
:1021300001969B878A8792E0C90ED11CACCFF30130
:1021400081913F01F601A080A81ABB088180F301AC
:102150008781881A9908AA9C9001AB9C300D300D9C
:102160001124889CC001899C900D900D1124820F30
:10217000931F0E94A809082FF301EE0FFF1FED50D7
:10218000F54060910805858996890E949E097C0129
:102190009401A501B101812FEE81FF8109951B01F9
:1021A000F981FF5FF983182FADCF20910D0531E044
:1021B000231B08F420E04CE45BE0BC01822F0C946C
:1021C00009104CE45BE0BC0180E00C940910209104
:1021D0000D0531E0231B08F420E045E65BE0BC017F
:1021E000822F0C94091045E65BE0BC0180E00C9462
:1021F000091020910D0531E0231B08F420E040EA8E
:102200005BE0BC01822F0C94091040EA5BE0BC014A
:1022100080E00C94091020910D0531E0231B08F497
:1022200020E042ED5BE0BC01822F0C94091042EDEE
:102230005BE0BC0180E00C94091020910D0531E0B9
:10224000231B08F420E04AEE5BE0BC01822F0C94D3
:1022500009104AEE5BE0BC0180E00C940910BF92CB
:10226000CF92DF92EF92FF920F931F93CF93DF9362
:102270007C01FC01C08186E1C89FC02D112416E1BC
:102280001C0F012F1F3608F00EE6609105057091B6
:102290000605809107050E94CC0CD62EC72EB82EBD
:1022A000D0E0C01770F081E01E3608F080E0DF91CA
:1022B000CF911F910F91FF90EF90DF90CF90BF9043
:1022C0000895FE01E05CFD4F8081F7019181892333
:1022D00031F02B2D4D2D6C2DCE010E94A90D219694
:1022E000E0CF8F929F92AF92BF92CF92DF92EF9208
:1022F000FF920F931F93CF93DF937C01FC01C0816A
:1023000086E1C89FC02D112416E11C0F012F1F3636
:1023100008F00EE6C0900605D0900705D09105059F
:102320006D2F7C2D8D2D0E94CC0CB62EA72E982EB5
:10233000609108056D0F7C2D8D2D0E94CC0CD62E42
:10234000C72E882ED0E0C01788F081E01E3608F036
:1023500080E0DF91CF911F910F91FF90EF90DF9080
:10236000CF90BF90AF909F908F900895FE01E05C5A
:10237000FD4F9081F7018181892359F0282D4D2D42
:102380006C2D90FD03C0292D4B2D6A2DCE010E948E
:10239000A90D2196D8CFBF92CF92DF92EF92FF92F4
:1023A0000F931F93CF93DF937C01FC01C08186E1E3
:1023B000C89FC02D112416E11C0FD12E1F3610F01E
:1023C0009EE6D92EC0900605B0900705209108051D
:1023D00000E4029F012D1124D0E0CD1570F081E0C2
:1023E0001E3608F080E0DF91CF911F910F91FF9092
:1023F000EF90DF90CF90BF900895FE01E05CFD4F1D
:102400008081F70191818923B9F0FE01EE0FFF1F52
:10241000EB59FE4F808182958F7060910505809FFA
:10242000600D11247C2D8B2D0E94CC0C462F282F63
:10243000672FCE010E94A90D2196CFCFBF92CF92D8
:10244000DF92EF92FF920F931F93CF93DF938C0154
:10245000FC01C08186E1C89FC02D112456E1F52EF4
:10246000FC0EDF2CFEE6FF1510F44EE6D42EC090D5
:102470000605B09007052091080530E4E32E3E2DB7
:10248000329F312D1124E32ED0E0CD1578F081E07C
:102490003DE63F1508F480E0DF91CF911F910F9149
:1024A000FF90EF90DF90CF90BF900895FE01E05C29
:1024B000FD4F8081F80191818923D9F0FE01EE0F53
:1024C000FF1FEC59FE4F6081E69EB001112495E09C
:1024D000759567959A95E1F780910505680F7C2DB4
:1024E0008B2D0E94CC0C462F282F672FCE010E94E7
:1024F000A90D2196CACFBF92CF92DF92EF92FF92A1
:102500000F931F93CF93DF938C01FC01C08186E171
:10251000C89FC02D112496E1F92EFC0EEF2CFEE68B
:10252000FF1510F48EE6E82ED0900505D091060533
:10253000C09007056091080566956695669580913F
:10254000090590910A050E949E090E94D8098058A9
:1025500087FD8195880F282F3C2D239F212D112445
:10256000822F6D2D7D2F0E94CC0CD62EC72EB82E1B
:10257000D0E0CE1578F081E02DE62F1508F480E04C
:10258000DF91CF911F910F91FF90EF90DF90CF904F
:10259000BF900895FE01E05CFD4F8081F8019181BC
:1025A000892331F02B2D4D2D6C2DCE010E94A90DCC
:1025B0002196DFCFDF92EF92FF920F931F93CF937D
:1025C000DF938C01FC01E05CFD4F8081682381F189
:1025D000D0900605D0910705C0910505EC2EF12C91
:1025E0000E945E39282FC7018C549F4F68E671E026
:1025F0000E9494388E199F0997FD039695958795AB
:102600009595879523706C2F289F600D11247D2D43
:102610008D2F0E94CC0C462F282F672FC801DF91E9
:10262000CF911F910F91FF90EF90DF900C94A90D27
:10263000DF91CF911F910F91FF90EF90DF90089560
:10264000DF92EF92FF920F931F93CF93DF938C0152
:10265000FC01C281C11125C06091080520E1620F13
:1026600008F46FEF8091090590910A050E949E0978
:102670006AE070E00E948038892B51F40E945E3934
:102680006EE670E00E949438F80161810E94DA12CF
:102690008C2FDF91CF911F910F91FF90EF90DF90E2
:1026A0000895C08186E1C89FC02D112486E1D82EEF
:1026B000DC0E8D2DFEE6FD1508F48EE6D0E0E82E4A
:1026C000F12CCE15DF0534F0C1E0FDE6FD1500F775
:1026D000C0E0DECFF8016181CE010E94DA122196BE
:1026E000F0CF1F93CF93DF93EC01FC01E05CFD4F33
:1026F00080816823A1F00E945E39182F0E945E3904
:10270000612F782F809107050E94CC0C462F282F2F
:10271000672FCE01DF91CF911F910C94A90DDF910E
:10272000CF911F910895DF92EF92FF920F931F9325
:10273000CF93DF938C01FC01C281C11125C0609150
:10274000080520E1620F08F46FEF80910905909170
:102750000A050E949E0965E070E00E948038892B7E
:1027600051F40E945E396EE670E00E949438F801E0
:1027700061810E9471138C2FDF91CF911F910F9176
:10278000FF90EF90DF900895C08186E1C89FC02D33
:10279000112486E1D82EDC0E8D2DFEE6FD1508F401
:1027A0008EE6D0E0E82EF12CCE15DF0534F0C1E046
:1027B000FDE6FD1500F7C0E0DECFF8016181CE0136
:1027C0000E9471132196F0CFE0911F03F091200336
:1027D00009942F923F924F925F926F927F928F92C5
:1027E0009F92AF92BF92CF92DF92EF92FF920F93A0
:1027F0001F93CF93DF93CDB7DEB729970FB6F89429
:10280000DEBF0FBECDBF6C01DC010C9186E1089FDD
:10281000002D1124B6E1B00FB9874B2EB13610F060
:1028200020E6422EF6018281882361F040E060E0DC
:1028300080E00E94E413EFE9F3E080E6DF011D92FF
:102840008A95E9F710E0512CFE0131965F010415DD
:102850001505F4F081E0B985B03608F080E02996DE
:102860000FB6F894DEBF0FBECDBFDF91CF911F91A1
:102870000F91FF90EF90DF90CF90BF90AF909F901F
:102880008F907F906F905F904F903F902F90089522
:10289000C80166E070E00E9494384B013C0194E06E
:1028A000660C771C9A95E1F7F301E156FC4FE60FB1
:1028B000F71F3080A5010E94850D282E75018E2DF1
:1028C0008A19821578F0232D31E0231B08F420E0CB
:1028D000C30181569C4F880E991ED4012C930F5F23
:1028E0001F4FB5CFD701EC91F0E0E05CFD4F808148
:1028F000F6019181892321F1232D35E5231B08F46D
:1029000020E06AEA621B709106052AEA332D230F44
:1029100008F42FEF30910705822F880F820F8E5F0A
:10292000282F239F212D1124822F0E94CC0C462F6B
:10293000D7019C91282F672F892F90E00E94A90D25
:10294000BFEFEB1AFB0ABBCF6F927F928F929F92E1
:10295000AF92BF92CF92DF92EF92FF920F931F93AD
:10296000CF93DF93CDB7DEB728970FB6F894DEBFCD
:102970000FBECDBFDC0112968C91882371F040E030
:1029800060E080E00E94E413EFE9F3E080E6DF011D
:102990001D928A95E9F7109271038FE9C82E83E0A2
:1029A000D82E00E077247A9490EDA92EB12C20EC5B
:1029B000622E3FE2832E912C760110E0809171030C
:1029C000812B09F072C00E945E39853595400CF06C
:1029D0006CC0F6017082AE014F5F5F4F602F812F98
:1029E0000E94850D8823B1F0F7012081E981F0E094
:1029F000213D08F462C0205D330B629EC001639EDE
:102A0000900D1124B4010E948038262F4FEFCF0182
:102A10000E94A90D1F5FF0E1EF0EF11C163071F658
:102A20000F5F2FEFC21AD20A003131F68091710385
:102A30008F5F8D3108F44BC0109271034FED53E05E
:102A400025E00FEA13E03EEFFA018FE993E025302D
:102A500039F4DC01A05BBF4F6C916F3F09F43C93EC
:102A600060816F3F11F43083608B019631960817B7
:102A7000190769F72150405151092111E5CF80E034
:102A800028960FB6F894DEBF0FBECDBFDF91CF9171
:102A90001F910F91FF90EF90DF90CF90BF90AF907C
:102AA0009F908F907F906F900895D7018C91815067
:102AB0008E3F08F090CF8C938ECF279DC0011124BC
:102AC000B5010E948038462F20E060E0A0CF8093BF
:102AD0007103D5CFAF92BF92CF92DF92EF92FF9268
:102AE0000F931F93CF93DF93CDB7DEB728970FB621
:102AF000F894DEBF0FBECDBF8B01FB018281D12CCC
:102B0000882341F0AE014F5F5F4F608181810E9459
:102B1000850DD82EC0907203ED2CF12CC7018C0DC1
:102B2000911D099764F188E090E05C01AE18BF0840
:102B3000B7016D587C4FA50183E793E00E946E3981
:102B4000B70165587C4FA5018BE793E00E946E3971
:102B5000A501440F551FB701660F771F65577C4FBE
:102B60008BE893E00E946E39B7016D577C4FA50149
:102B700083E893E00E946E39CA94C0927203F09089
:102B80007203DE01119640E0842F8F0DD4121CC019
:102B900080937203809104058C7F843619F4C801F8
:102BA0000E94CE0C81E028960FB6F894DEBF0FBECF
:102BB000CDBFDF91CF911F910F91FF90EF90DF90EC
:102BC000CF90BF90AF9008955D91252F30E090E0B9
:102BD000BC016E587C4FF901EE0FFF1FEC59FE4F00
:102BE000E080FB01E182220F331FF901EB59FE4F18
:102BF0002081FB012187518B880F991FFC01EE5822
:102C0000FC4F128E118E4F5FBFCF08950E940516A4
:102C10000C94D60308950895CF93DF93FC01C081EF
:102C200086E1C89FC02D1124DAEEDC0FCF3608F004
:102C3000CEE66C2F8D2F0E940A166C2F8D2FDF9100
:102C4000CF910C940B164F925F926F927F928F925E
:102C50009F92AF92BF92CF92DF92EF92FF92CF936B
:102C600060919B0370919C0380919D0390919E03C2
:102C70000E94002C6B017C010E94E52B4B015C0142
:102C800080929B0390929C03A0929D03B0929E031E
:102C9000A0917203E2E7F3E08A2F90E04FEF5FEF3D
:102CA00060E070E04C195D096E097F09A9132AC024
:102CB000809372038091FF03C0E0811108C080916E
:102CC0000405C82FC37019F0C82FC695C69580910A
:102CD000AE02813009F440C0882339F1823009F412
:102CE00045C1833009F44DC1CF91FF90EF90DF9043
:102CF000CF90BF90AF909F908F907F906F905F909C
:102D00004F900895218D328D2901712C612C44152D
:102D100055056605770520F481509F5F3296C6CF32
:102D20002C0D3D1D328F218FF8CF1092AF02809273
:102D3000090590920A05A0920B05B0920C0589E254
:102D4000E2E7F3E0ADE0B5E001900D928A95E1F79E
:102D500081E08093AE02C8CF8091B202C81316C042
:102D60009091040593702091B30230E081E09217B6
:102D7000130609F480E081708093B102C73278F4C1
:102D8000EC2FF0E0E351F64C0C94C73881E0F3CF20
:102D9000882359F040E060E080E00E94E41380E086
:102DA00004C08FEA92E00E942F119091AF029F5FC2
:102DB0009093AF028111D6C082E08093AE028091E1
:102DC000B1028111CFC0CC2309F4D9C00E940616EC
:102DD0008FEA92E0CF91FF90EF90DF90CF90BF907D
:102DE000AF909F908F907F906F905F904F900C94DA
:102DF0000C168FEA92E00E947111D7CF8FEA92E011
:102E00000E94CB11D2CF8FEA92E00E941E12CDCF4A
:102E10008FEA92E00E947B12C8CF8FEA92E00E9474
:102E2000000FC3CF8FEA92E00E94040FBECF8FEA5B
:102E300092E00E94A10EB9CF8FEA92E00E94A50E07
:102E4000B4CF8FEA92E00E94300EAFCF8FEA92E0CB
:102E50000E94340EAACF8FEA92E00E94080FA5CFFD
:102E60008FEA92E00E940C0FA0CF8FEA92E00E94BE
:102E7000100F9BCF8FEA92E00E94140F96CF8FEA3B
:102E800092E00E94380E91CF8FEA92E00E94A90E44
:102E90008CCF8FEA92E00E94AD0E87CF8FEA92E04E
:102EA0000E943C0E82CF8FEA92E00E947F0F7DCF7E
:102EB0008FEA92E00E94830F78CF8FEA92E00E941F
:102EC000870F73CF8FEA92E00E9420136ECF8FEAB4
:102ED00092E00E94931369CF8FEA92E00E94E91377
:102EE00064CF8FEA92E00E94A4145FCF8FEA92E051
:102EF0000E9401105ACF8FEA92E00E94051055CF30
:102F00008FEA92E00E94D51050CF8FEA92E00E94A3
:102F1000E1104BCF8FEA92E00E94E71046CF8FEA94
:102F200092E00E94F31041CF8FEA92E00E94F910E4
:102F30003CCF8FEA92E00E94051137CF8FEA92E0F2
:102F40000E940B1132CF8FEA92E00E9417112DCF11
:102F50008FEA92E00E941D1128CF8FEA92E00E9432
:102F6000291123CFCC2309F4BFCE30CFC093B202B6
:102F70008091040583708093B3020E94A40D83E0C6
:102F8000E8CE6091090570910A0580910B0590913A
:102F90000C050E94002C603171058105910508F433
:102FA000A3CE1092AE02A0CEE0911B03F0911C03C1
:102FB000099510920D058FEF9FEF90932705809351
:102FC0002605909329058093280590932B058093DF
:102FD0002A0590932D0580932C0590932F058093BF
:102FE0002E0590933105809330059093330580939F
:102FF00032059093350580933405109272039093B7
:103000008C0380938B0390938E0380938D03909316
:10301000900380938F0390939203809391039093F6
:1030200094038093930390939603809395039093D6
:1030300098038093970390939A03809399030E9437
:10304000F129811104C00E94952A0E94720D0E94EC
:10305000620D809104058C7F11F40C94720D08951B
:10306000CF93C82F882329F040E060E080E00E94E1
:10307000E413C093FF03CF9108959091040521E0DC
:103080009227909304051092AE0281110C946A0D60
:10309000089581E00C943D1890910405937099F087
:1030A000811109C09460909304051092AE026623CA
:1030B00051F00C946A0D873210F09869F4CF880FA4
:1030C000880F982BF0CF089561E00C944C18682F6E
:1030D000909104059695969581E0890F873208F0C6
:1030E00081E00C944C1881E00C946718682F909143
:1030F0000405969596958FEF890F09F486E20C9456
:103100004C1881E00C94761890910405937061F04E
:103110008093050560930605453608F044E6409324
:10312000070521110C946A0D0895A4E0B5E01196ED
:10313000EC911197F0E0282F13964C91139712966B
:103140006C91CF0108960C94841881E00C9495182A
:10315000E4E0F5E09181282F43816281E92FE85076
:10316000FF0BCF010C94841881E00C94A818E4E0C4
:10317000F5E0628120E1620F08F46FEF9181282F62
:103180004381892F90E00C94841881E00C94B71847
:10319000E4E0F5E0628120E1621B08F460E09181E7
:1031A000282F4381892F90E00C94841881E00C949F
:1031B000C818E4E0F5E0438120E1420F08F44FEF46
:1031C0009181282F6281892F90E00C94841881E0EE
:1031D0000C94D918E4E0F5E0438120E1421B08F4A7
:1031E00040E09181282F6281892F90E00C9484180F
:1031F00081E00C94EA182091080530E1230F08F4CF
:103200002FEF2093080581110C946A0D089581E039
:103210000C94FB182091080530E1231B08F420E0F2
:103220002093080581110C946A0D089581E00C9497
:103230000A190895FC01EE0FFF1FE80FF91FEA5C61
:10324000FA4F6183408322830895E6E3F5E08183AA
:1032500060834283339696E0E038F907C1F708951A
:103260006EE670E086E395E00C949919FA018111FD
:1032700001C0FB0109940F931F93CF938C01FB01B5
:10328000C281CC2309F453C00E943C298272F80108
:10329000E35CFC45E431F10538F4EC5EF54C0C944C
:1032A000C7380E944918C0E08C2FCF911F910F9111
:1032B000089541E858E163E778E10E943619F3CFB9
:1032C00043E758E161E878E1F8CF44EB58E165EA7B
:1032D00078E1F3CF45EA58E164EB78E1EECF46EDD3
:1032E00058E165EC78E1E9CF45EC58E166ED78E12D
:1032F000E4CF48EF58E167EE78E1DFCF47EE58E1E1
:1033000068EF78E1DACF46E159E167E079E1D5CFBE
:1033100047E059E166E179E1D0CF81E00E9464188D
:10332000C2CF85E0FBCF8DE0F9CF82E1F7CFC1E0DE
:10333000BBCF579A4BB14F775BB15068EFB7F8945A
:103340009B01220F331F260F371F280F391F281705
:10335000390741F4EFBF8FE594E00197F1F700C022
:1033600000000895DC016D91CD0178E05BB90000AB
:1033700000C067FF4BB9660F000000C000C000C06E
:103380004BB900C07A9591F7E2CF82E290E00E94BB
:103390008739813289F483E290E00E948739813055
:1033A00059F484E290E00E94873991E0863109F077
:1033B00090E0892F8170089580E0FCCFCF93C82FD3
:1033C0006FEF811161E282E290E00E94A5396FEF18
:1033D000C11161E083E290E00E94A5396FEFC11155
:1033E00066E184E290E0CF910C94A53980E00E94E0
:1033F000DE190C94EB29089585E290E00E9487394C
:10340000682F70E090E080E0089585E290E00C94F1
:10341000A5390E94FB190E94C51981110CC060E0FA
:1034200070E0CB010E94051A0E945E1B0E944A1C9C
:1034300081E00C94DE190895CF93FB01C281CC2367
:1034400009F19C0122513F452031310520F582517F
:103450000E945A1CC0E08C2FCF91089581E00E94F9
:10346000B82743E062E081E00E945105F3CF81E09C
:103470000E94D92743E062E081E00E945105EBCF32
:1034800082E0F6CF8031FFE59F0789F381319F45C8
:10349000B9F3C1E0E0CF8031EFE59E07F9F2813169
:1034A0009F45C9F682E0DBCF2FEFFC012083089512
:1034B000EF92FF920F931F93CF93DF93EC01062FB0
:1034C000E881E150E33108F05EC0F0E0E85DF54CE2
:1034D0000C94C738198289E08A83602FCE01DF916E
:1034E000CF911F910F91FF90EF900C94B331898190
:1034F000823069F0833071F08130D9F40E94E52B7D
:103500000E94CD386A837B838C839D83E6CF0E94A3
:10351000FC19F6CF7E0110E0812F0E94E107F70130
:10352000928383831F5FF2E0EF0EF11C1630A1F748
:10353000D4CF602FCE010E94541ACFCF8981823020
:10354000C1F76A817B818C819D810E94CD380E9468
:10355000051AC3CF4B816A8189810E94301B98274D
:10356000892798279D838C83B8CF2C813D81322772
:10357000232732274B816A8189810E94491BADCF65
:103580000E945E1BAACF8FEF8883A7CF0E94F31BF8
:103590008983A3CF0E94F51B9827892798279A83B0
:1035A00089839BCF6B8170E089819A81AE014C5FEA
:1035B0005F4F9827892798270E94F81B8ECF6B8131
:1035C00070E089819A81AE014C5F5F4F982789270F
:1035D00098270E941F1C81CF0E944A1C7ECF0E9408
:1035E0001D1BD6CF6B8170E089819A81AE014C5F43
:1035F0005F4F9827892798270E94961B6ECF6B8173
:1036000070E089819A81AE014C5F5F4F98278927CE
:1036100098270E94BC1B61CF0E94F6195ECF0E94C2
:10362000B3312FEF81EE94E0215080409040E1F7DC
:1036300000C000000E94402C50CF84E0089590E22A
:10364000699FB001112450E0440F551F640F751F8E
:1036500090EC899F600D711D1124CB018696089511
:103660000F931F93CF93DF930E941F1B8C010E9427
:103670008739C82FD0E0DC2FCC27C80101960E94E3
:1036800087399E01282BC901DF91CF911F910F919E
:1036900008950F931F93CF93DF93122F032F0E9450
:1036A0001F1BEC01602F0E94A539612FCE010196EE
:1036B000DF91CF911F910F910C94A539AF92BF92DA
:1036C000CF92DF92EF92FF921F93CF93DF9388E91F
:1036D000C82E80E0D82ED0E07601C0E014C0F501FD
:1036E00025913491412F6C2F8D2F0E94491B82E030
:1036F000A80EB11C1F5F103191F780E2E80EF11C9B
:10370000CF5FC63019F0570110E0E9CFDF5F80ECE2
:10371000C80ED11CD43001F7DF91CF911F91FF90DB
:10372000EF90DF90CF90BF90AF900895EF92FF920F
:103730000F931F93CF93DF93EC018A017C01E60E78
:10374000F71ECE018696CE15DF0539F4DF91CF91B5
:103750001F910F91FF90EF900895C11523E0D207BC
:1037600040F40E948739F80180830F5F1F4F219634
:10377000E8CFF8011082F9CFCF92DF92EF92FF925B
:103780000F931F93CF93DF937C016A018C01060F87
:10379000171FEC01CE018696C017D10749F4DF91BF
:1037A000CF911F910F91FF90EF90DF90CF900895F0
:1037B000C11523E0D20740F4FE01EE19FF09EC0D1C
:1037C000FD1D60810E94A5392196E4CF462F8430EB
:1037D00038F4763028F4603118F4672F0C94301BDD
:1037E00090E080E0089580E108958AED94E00895E6
:1037F000EF92FF920F931F93CF93DF93EC018A0117
:103800007C01E60EF71ECE018A5D9C4FCE15DF05CA
:1038100039F4DF91CF911F910F91FF90EF900895B0
:10382000CA3D24E0D20740F40E948739F801808322
:103830000F5F1F4F2196E7CFF8011082F9CFCF928B
:10384000DF92EF92FF920F931F93CF93DF937C0150
:103850006A018C01060F171FEC01CE018A5D9C4F97
:10386000C017D10749F4DF91CF911F910F91FF90BD
:10387000EF90DF90CF900895CA3D24E0D20740F446
:10388000FE01EE19FF09EC0DFD1D60810E94A539B6
:103890002196E3CFCF93DF93C6E2D3E060E0CE0181
:1038A0000E94A5392196C11588E0D807B9F7DF91A4
:1038B000CF910895DF92EF92FF920F931F93CF93D2
:1038C000DF9300D000D0CDB7DEB7F82E8FE08F1594
:1038D00040F08FEF97E00E94873906E213E08823DB
:1038E000C1F00F900F900F900F90DF91CF911F912B
:1038F0000F91FF90EF90DF900895011588E0180771
:1039000081F3C8010E948739811101C0FA940F5FC9
:103910001F4FF110F2CF19821A821B821C82DD2404
:10392000D39478018FEFE81AF80AC8010E9487390A
:1039300089831A828823A9F29FEF980F933078F435
:103940008A83D9820E5F1F4FC7010E9487398B83FC
:10395000882339F2CE0101960E94FA04E2CF870152
:10396000F9CF0F931F93CF93DF93C42FD22FFC0176
:1039700082818823C9F0409302040E94D92B90933E
:1039800001048093000480E28C0F883008F050C05E
:10399000C77081E001C0880FCA95EAF7DF91CF9127
:1039A0001F910F910C94422110910204141335C001
:1039B00080910004909101040E94F12B883C9105B4
:1039C00060F5C0E2CD0F1D17B9F080E2810F88309D
:1039D00040F4177081E001C0880F1A95EAF70E9441
:1039E0004921C83048F481E09D2F977001C0880FAD
:1039F0009A95EAF70E944221802F0E942F21C83019
:103A0000B8F4D77081E001C0880FDA95EAF7DF914A
:103A1000CF911F910F910C94492180E28C0F883037
:103A200038F4C77081E001C0880FCA95EAF7EFCF7C
:103A3000DF91CF911F910F9108950F939C01CB01BE
:103A4000243F4CE5340759F1A8F4293DFCE53F0734
:103A500001F12A3D4CE53407D1F1283D3C4591F474
:103A600006E221EE41EE68ED7CE50E94B11C80E0AB
:103A70000F910895263FFCE53F07E9F0B0F0273F9E
:103A80003C45F9F0FC018281882339F1109202044F
:103A9000EFCF07E225EE45EE69ED7CE5E6CF06E2E5
:103AA00021EE40EE64EF7CE5E0CF07E225EE44EE48
:103AB00065EF7CE5DACF06E221EE42EE66EF7CE5CB
:103AC000D4CF07E225EE46EE67EF7CE5CECF08E2E5
:103AD00021E045EE6AED7CE5C8CF81E0C9CFCF9308
:103AE000DF93EC01FB018281882309F419C1C23004
:103AF000FCE5DF07C0F1C6319CE5D90730F09E0137
:103B00002B5F3C452930310570F50E94042A9093C3
:103B1000850680938406C031ECE5DE0709F4CFC04A
:103B200008F05BC0C8308CE5D80709F4B6C088F54A
:103B3000C430ECE5DE0709F4A8C0C0F4C2308CE55F
:103B4000D80709F49CC0809184068260C330DC45AC
:103B500009F498C080918406909185060E94122AEB
:103B60000E94BE2380E0DF91CF910895809184066A
:103B70008061C630ECE5DE0709F484C080918406DC
:103B80008860C730DC4508F47DC08091840680627F
:103B900079C0CC308CE5D80709F489C070F48091E5
:103BA00084068C60CA30ECE5DE0709F46BC008F4CB
:103BB00078C0809184068E7F65C0CE308CE5D807B2
:103BC00009F479C0809184068B7FCF30DC4508F4FE
:103BD00059C0809184068F7E55C0CC3FECE5DE074E
:103BE00009F457C030F5C3318CE5D80709F46FC02C
:103BF00078F4C131ECE5DE0709F465C0C231DC457B
:103C000009F0A8CF0E94BE23809184068F773AC026
:103C1000C5318CE5D80709F462C008F476C08091FC
:103C200085068160CB3FDC4509F094CF8093850603
:103C300091CFC115FDE5DF0709F44DC088F48091EF
:103C400085068D7FCE3F9CE5D90781F3809185065F
:103C50008E7FCF3FDC4550F3809185068360E6CFB1
:103C6000C230FDE5DF0709F459C008F444C080E024
:103C7000C330DD4509F06ECF0E94972A6BCF80914B
:103C8000840681608093840665CF80918406846079
:103C9000F9CF809185068260C9CF809184068064C7
:103CA000F1CF0E94BE23809184068068EBCF809183
:103CB00084068D7FE7CF80918406877FE3CF809154
:103CC00084068F7DDFCF809184068F7BDBCF809150
:103CD0008406837FD7CF809185068C7FA7CF809184
:103CE000840682FB992790F921E0922790FB82F9C4
:103CF00090FB83F9C7CF80918506982F909591709E
:103D00008E7F892B90FB81F991CF0E94BE239091E9
:103D10008406892F97FB87F98058B4CF81E0ACCF18
:103D200081E021CFCF93DF93EB0186319C4511F5E4
:103D30000E943C299A81992399F08A7A91E009F4AA
:103D400090E090930304811109C089E20E94172931
:103D50000E94882980E0DF91CF91089585E3F6CF16
:103D600080910304811104C089E20E941E29F0CFD2
:103D700085E3FBCF81E0EFCF9093090480930804A3
:103D80000895E0910804F0910904309721F0019022
:103D9000F081E02D099480E00895E0910804F0910D
:103DA0000904309711F480E008950190F081E02D2E
:103DB00009950895E0910804F0910904309799F06D
:103DC0002091C802222359F02091840627FF07C0C2
:103DD000DC012C9111962C93119725E02C930280F5
:103DE000F381E02D09940895E0910804F09109040D
:103DF000309739F022E0DC012C930480F581E02D2E
:103E00000994089520910604309107042817390772
:103E100071F09093070480930604E0910804F091F8
:103E20000904309721F00680F781E02D0994089568
:103E300020910404309105042817390771F09093FC
:103E4000050480930404E0910804F091090430977C
:103E500021F00084F185E02D0994089585B78068EC
:103E600085BF85B7806885BF0895089508950C942F
:103E7000351F08950C94391F0E942E1F0E94361F73
:103E80000C94371F81E008950C94421F0895089503
:103E90000E94D02B0E9406080E94091A0E947A2CC8
:103EA000E4E8F6E0808180688083809184069091C8
:103EB00085060E94122A0C943A1F7F928F929F923D
:103EC000AF92BF92CF92DF92EF92FF920F931F9328
:103ED000CF93DF93CDB7DEB72A970FB6F894DEBF46
:103EE0000FBECDBF0E94461F0E94471F0E9436088A
:103EF0000E94441F882309F471C04BE0A42E44E0C3
:103F0000B42E10E000E0702E802F0E94E1076C01BB
:103F1000F501819091905F018816990609F458C0C7
:103F20008091B90481FD0E94EA0780E0EE24E394C9
:103F3000F12C8C249D2494012E213F21232B09F464
:103F400041C08E837F82CE20DF2081E0CD2809F41E
:103F500080E088870E94D92B8160782F9A87898793
:103F60004E815F8168858A850E941320000F111F92
:103F7000F801E55FFB4F80819181E826F926F18207
:103F8000E0820E94252E0E94C11E90910A0489178A
:103F9000B1F10E94C11E80930A042A960FB6F894CC
:103FA000DEBF0FBECDBFDF91CF911F910F91FF906C
:103FB000EF90DF90CF90BF90AF909F908F907F90C9
:103FC0000C94D8058F5FEE0CFF1C803109F0B3CF45
:103FD0000F5F1F4F0630110509F095CF8FEF8983D2
:103FE0008A831B820E94D92B8160782F9D838C83CA
:103FF00049815A816B818D810E941320C2CF2A96FC
:104000000FB6F894DEBF0FBECDBFDF91CF911F91E9
:104010000F91FF90EF90DF90CF90BF90AF909F9067
:104020008F907F900895CF93DF93CDB7DEB72B9716
:104030000FB6F894DEBF0FBECDBF4F835887698798
:104040007A878B871E821D8285E0FE013796DE010E
:10405000119601900D928A95E1F749815A816B8101
:104060007C818D819E812B960FB6F894DEBF0FBEAA
:10407000CDBFDF91CF910C943426FC0180819181DA
:104080000C94E928CF93C82F882309F490C0823874
:10409000C1F40E94C11E81FD8AC089E30E941729D4
:1040A0000E9488292FEF81EE94E0215080409040BB
:1040B000E1F700C0000089E30E941E29CF910C9413
:1040C00088298338A1F40E94C11E80FD70C083E559
:1040D0000E9417290E9488292FEF81EE94E0215039
:1040E00080409040E1F700C0000083E5E5CF8438D0
:1040F000A1F40E94C11E82FD5AC087E40E941729C4
:104100000E9488292FEF81EE94E02150804090405A
:10411000E1F700C0000087E4CFCF8CEF8C0F813A2D
:10412000B8F48C2F0E948C30811141C06C2F80918B
:10413000B4029091B5020E94B02A882329F08C2FF6
:104140000E941E290E9488298C2F0E941729B6CF11
:1041500080E28C0F883048F4C77081E001C0880F7E
:10416000CA95EAF70E943F29A9CFEBE5EC0FE330AF
:1041700040F4F0E0EF5AFC4F808190E0CF910C9436
:10418000021FE8E5EC0FE73150F4F0E0EE0FFF1FFF
:10419000ED5DFC4F80819181CF910C94181FC03F41
:1041A00030F08C2F0E941F2DCF910C940A2ECF91AE
:1041B0000895882309F452C0823871F40E94C11E08
:1041C00081FF4CC089E30E9417290E94882989E356
:1041D0000E941E290C948829833859F40E94C11E1C
:1041E00080FF3CC083E50E9417290E94882983E54F
:1041F000EFCF843859F40E94C11E82FF2FC087E49C
:104200000E9417290E94882987E4E2CF9CEF980F2B
:10421000913AF0F290E2980F983050F4877091E064
:1042200001C0990F8A95EAF7892F0E944529D2CFBC
:104230009BE5980F933020F490E080E00C94021FEF
:1042400098E5980F973120F490E080E00C94181FC7
:10425000803F20F00E94872D0C940A2E0895CF9362
:10426000C82F0E944220C93349F42FEF87EE93E014
:10427000215080409040E1F700C000008C2FCF918A
:104280000C94D920882321F00E943F290C9488297E
:104290000895882321F00E9445290C9488290895C7
:1042A000BF92CF92DF92EF92FF920F931F93CF9323
:1042B000DF936C01D62FC72FFC01058102950F708B
:1042C000128111110E945C290E943529E82E882351
:1042D00091F01123D1F08C2F807F803421F080E287
:1042E0008D0F883090F082E00E94D3290E943529FA
:1042F00091E0E82EE926BC2EB2949FE0B922EB2D86
:10430000F0E0E55CF54C0C94C738E12CF4CF0C2FB1
:104310000F70C07F11F00295007F1123A9F00023D8
:1043200059F080E28D0F883010F0D11109C0802F34
:104330000E943F290E9488298D2F0E94422014C08C
:10434000802F0E944F29F6CF8D2F0E94D920002365
:1043500059F080E28D0F883010F0D1112CC0802FE1
:104360000E9445290E9488292B2D2850330B243088
:10437000310520F40E94C11E0E94D805EE2009F4E8
:104380009EC10E94312980FD9AC1F60112820E94CD
:104390002B290E94B827C6010E9480230E942B2946
:1043A000DF91CF911F910F91FF90EF90DF90CF9011
:1043B000BF900C94D927802F0E945529D3CFFC2F72
:1043C000FF70FF2EC07FC03219F0F29480EFF82208
:1043D000DD2369F0D13049F1112391F1002351F12E
:1043E000F601858180FFA8CF8F70858323C01123BC
:1043F00081F0011106C00E946F298F290E9442217D
:10440000B3CF0130C1F70E946F298F290E9475290F
:10441000ABCF011106C00E947E298F2D0E94492139
:10442000A3CF013009F4A0CFF6CF112329F0063035
:1044300008F09ACF8F2DE2CF053008F095CFEDCF61
:10444000002359F3D93349F4FFEF27EE33E0F1505D
:1044500020403040E1F700C000008D2F0E94D9209D
:1044600083CF8C2F86958695837069F0813009F013
:104470007BCF8D2F9C2F9370111102C090E080E0B4
:104480000E94181F71CF8D2F9C2F9370111102C0A5
:1044900090E080E00E94021F67CF8D2F112329F04A
:1044A0000E941F2D0E940A2E5FCF0E94872DFACFF7
:1044B0008C2F837009F041C0111156CF4D2F4295BA
:1044C00046954770440F440F0D2F0F7010E030E0F9
:1044D00020E0042E04C0000F111F221F331F0A9476
:1044E000D2F760E070E0CB01D4FF0FC06FE070E066
:1044F00080E090E004C0660F771F881F991F4A95DF
:10450000D2F76095709580959095C695C695C370C5
:10451000602B712B822B932BC23049F058F4C130A1
:1045200019F00E946A2720CF0E9458271DCF0E94B1
:104530007C271ACF0E94562717CF8695112311F09A
:104540008C2F8170882309F40FCF4D2F429546950B
:104550004770440F440F0D2F0F7010E030E020E043
:10456000042E04C0000F111F221F331F0A94D2F71C
:1045700060E070E0CB01D4FF0FC06FE070E080E03E
:1045800090E004C0660F771F881F991F4A95D2F7E5
:104590006095709580959095C695C695C370602B73
:1045A000712B822B932BC23049F058F4C13019F093
:1045B0000E942F28D9CE0E941D28D6CE0E944128C5
:1045C000D3CE0E949227D0CECF70112329F08C2F0A
:1045D0000E94B8278D2F12CF8D2F0E9449218C2F3A
:1045E0000E94D927C1CED23F89F160F4D03FC9F0F3
:1045F000D13F29F1112309F442C001119DCE8C2F26
:104600008F7121C0D33F39F1D43FA1F7112369F154
:10461000CF718C2F0E94B82763E08C2F0E94BE2997
:10462000A3CE112341F0053008F09ECE8C2F8F7160
:104630000E94FC2799CE063008F096CEF7CF8C2F3B
:104640008F71112369F20E94B8278ECE8C2F8F7143
:104650001123C9F3C5CF112329F08C2F8F710E942C
:10466000A32782CE0E949E277FCE81E00E94D3297D
:10467000023008F479CE82E00E94D32975CE00235F
:1046800059F0D93309F0E9CE8FEF97EEE3E081508E
:104690009040E040E1F7DFCE8C2F8F71A1CF4C2FFF
:1046A0004F706D2FC6010E94E0050E94CE265CCEA1
:1046B0004C2F4F706D2FC6010E94E30555CEDF9140
:1046C000CF911F910F91FF90EF90DF90CF90BF900F
:1046D00008950F931F93CF93DF93EC016881798145
:1046E0008A810E94F3288C010E9453280E9455273A
:1046F000B801CE01DF91CF911F910F910C94502101
:10470000CF93DF93EC018B819C81892B29F08881E9
:10471000998189238F3F59F4DF91CF910895CE017C
:104720000E946923CE01DF91CF910C943B04CE010E
:104730000E9483058111F3CF0E943529882361F3FC
:104740008A81882349F382E0DF91CF910C94D329A9
:104750000E945C290E946C290E9488290E94312FA6
:104760000E940A2E90E080E00E94021F90E080E00C
:104770000C94181F0E9425290C94A8230E944C29F0
:104780000C94BA23E92FE295EF70E250EE3070F40A
:10479000F0E0E55BF54C0C94C738803F19F020F44D
:1047A000883E20F481E00895843FE1F380E008959D
:1047B000883EC0F3813FD1F7F5CF93FB882780F97E
:1047C00008950E94E9280C94C223CF93DF9300D070
:1047D00000D00F92CDB7DEB70F900F900F900F90D3
:1047E0000F90DF91CF910895CF93DF9300D000D049
:1047F00000D0CDB7DEB726960FB6F894DEBF0FBE59
:10480000CDBFDF91CF9108951F93CF93DF93C091D8
:10481000180416E0809119048C1304C0DF91CF9125
:104820001F910895D0E01C9FF0011D9FF00D1124F1
:10483000E65EFB4F40815181628173818481958165
:104840000E94F4232196C770E5CF40914A0450910D
:104850004B0460914C0470914D0480914E049091F2
:104860004F040C94F4231F93CF93DF9380914F0454
:10487000807FA9F480914C04882389F080911804EA
:10488000C091190460914A0470914B04A0914D04A9
:10489000B0914E04D62FD72316E0C81304C0DF9181
:1048A000CF911F91089590E0109711F0DF3F19F418
:1048B00001968770F2CF189F9001199F300D112437
:1048C000F901E65EFB4F41814713F2CF4081461369
:1048D000EFCF42814111ECCF438154814A1B5B0BE6
:1048E000483C510528F780914F048F708061809378
:1048F0004F04F901E15EFB4F80818F7080618083FE
:104900008AE494E00E948023DF91CF911F910C9460
:104910000424AF92BF92CF92DF92EF92FF920F9357
:104920001F93CF93DF93CDB7DEB761970FB6F8949F
:10493000DEBF0FBECDBF8C0185E0F801DE011D9604
:1049400001900D928A95E1F7F80140815181E28052
:104950008AE4C82E84E0D82E60914D0470914E04F4
:104960006115710509F461C190914A0420914B04CD
:10497000892F82238F3F09F458C1A380B480F0901F
:104980004C04F501E61BF70BFF2009F4FCC08091F5
:104990004F04382F307FE83CF10508F0B2C03111E8
:1049A00079C0FE2C251323C0941321C0E1101FC031
:1049B0008F70806180934F040E942524C6010E945D
:1049C000802380914F04F80185838F2D61960FB667
:1049D000F894DEBF0FBECDBFDF91CF911F910F9135
:1049E000FF90EF90DF90CF90BF90AF900895AB28ED
:1049F00029F0842F85238F3F09F033C180E0F82F01
:104A0000F170DF2E80FF3CC08091180420911904C2
:104A100036E0821315C04D875E878D859E850E9486
:104A2000E928292F22952F702230F0F0243018F534
:104A30009F70F1F0F8019581907FD1F4D12C1EC0C8
:104A400090E0389FF001399FF00D1124E65EFB4F96
:104A50006181651306C06081641303C062816E11B9
:104A60000FC001968770D5CF9F7011F0882331F366
:104A7000805E883018F3C8010E948023FD2CA5CFEA
:104A8000EE2009F4A2CF80914F04816080934F04FF
:104A9000F12C9BCF251306C0941304C0F801EE201F
:104AA00009F48DC04D875E878D859E850E94E12328
:104AB000882319F1EE2009F180914F04803270F0C3
:104AC00020914A0430914B0438872F831986BB8686
:104AD000AA868C87CE0107960E94802386E0F80183
:104AE000AAE4B4E001900D928A95E1F70E94332484
:104AF0000E942524FF24F39468CFC8010E948023DC
:104B0000F9CF311113C07A2DB98AA88A6E2D8989FF
:104B10000E94E5238AE494E00E94802386E0F60167
:104B200011928A95E9F70E942524B2CF25130FC070
:104B300094130DC0E1100BC0F8018583C8010E94D9
:104B4000802386E0F60111928A95E9F73ECF4D87E2
:104B50005E878D859E850E94E123882371F2EE2079
:104B600061F280914F04803208F4B8CF20914A045A
:104B700030914B043A8329831B82BD82AC828E83A1
:104B8000CE010196A9CFE83CF10508F041C0FE2C0A
:104B9000EE2009F4B2CF25132AC0941328C08091C7
:104BA0004F0480FD1BC0982F907FC1F0F8018583D2
:104BB000903F31F0982F907F905F8F70892B858385
:104BC000C8010E94802386E0F801AAE4B4E00190C5
:104BD0000D928A95E1F70E942524F7CE86E0F80130
:104BE000AAE4B4E001900D928A95E1F7EECE4D87EC
:104BF0005E878D859E850E94E12381116FCF809114
:104C00004F04816080934F04C8010E948023DDCE51
:104C10007A2DB98AA88A6E2D89890E94E52386E0BB
:104C2000F60111928A95E9F7D6CFEE2009F465CF07
:104C30004D875E878D859E850E94E123F82E88230F
:104C400009F45BCF86E0F801AAE4B4E001900D928C
:104C50008A95E1F78AE494E00E943D200E94332483
:104C6000BACF81E08E25CBCE1F93CF93DF93CDB704
:104C7000DEB72C970FB6F894DEBF0FBECDBF4F83C3
:104C8000588769877A878B879C87CE0107960E9411
:104C90008924882369F08A859B85892B39F04F8187
:104CA0005885842F85238F3F09F071C016E05FC0BF
:104CB00086E0FE013796DE01119601900D928A95ED
:104CC000E1F78A859B85892B89F388859F818923D4
:104CD0008F3F61F32091190430E0C901019687707C
:104CE0009927409118044817190671F40E94BE23B1
:104CF000109219041092180486E0EAE4F4E0DF014F
:104D00001D928A95E9F7D2CF96E0929FD001939FAA
:104D1000B00D1124A65EBB4FFE01319601900D929D
:104D20009A95E1F7809319040E940424BFCF819FD4
:104D3000C0011124865E9B4F0E9489248823E9F0DC
:104D4000E09118041E9FF0011124E65EFB4F4081A4
:104D5000518162817381848195810E94F4238091C5
:104D6000180490E001968770992780931804809129
:104D70001804909119048913DACF2C960FB6F89481
:104D8000DEBF0FBECDBFDF91CF911F910895698522
:104D90007A858B859C850E94F42388CFEF92FF92C1
:104DA0000F931F93CF93DF938C01892B81F0F12C0C
:104DB000EE24E394E8012196F8018491843770F49D
:104DC000843008F05FC08130B1F08230A1F1DF9112
:104DD000CF911F910F91FF90EF900895853709F4BF
:104DE0004CC008F43DC09CE7980F903780F78F7750
:104DF0000E94D92049C00E5F1F4FFE01849190E2AE
:104E0000980F983060F48770FE2D01C0FF0F8A95CF
:104E1000EAF78F2F0E945F290E94882902C00E9412
:104E200042208F2D815030F2EFE9FFE03197F1F70A
:104E300000C00000F7CF0E5F1F4FFE01849190E28B
:104E4000980F983050F48770FE2D01C0FF0F8A959F
:104E5000EAF78F2F0E946529DFCF0E94D920E1CF8A
:104E60000E5F1F4FFE01C491C150D8F28FE99FE041
:104E70000197F1F700C00000F7CF0E5F1F4FFE0152
:104E8000F490CFCF0E9442208E01CBCF08950C9496
:104E900046270E9447276093900470939104809363
:104EA0009204909393040C94A82308950C9449279A
:104EB0000F931F93009190041091910420919204FC
:104EC00030919304602B712B822B932B1F910F91A8
:104ED0000C9449270F931F93009190041091910413
:104EE00020919204309193046023712382239323B1
:104EF0001F910F910C9449270F931F9300919004D9
:104F000010919104209192043091930460277127AD
:104F1000822793271F910F910C9449270C944627C1
:104F20000C948E270E94902760938C0470938D04BC
:104F300080938E0490938F040C94A82360E070E01B
:104F4000CB010C9492270F931F9341E050E060E057
:104F500070E08A019B0104C0000F111F221F331F44
:104F60008A95D2F7C901B8011F910F910C9492272D
:104F70000F931F9341E050E060E070E004C0440FE5
:104F8000551F661F771F8A95D2F780918C049091E8
:104F90008D04A0918E04B0918F048A019B01082B8F
:104FA000192B2A2B3B2BC901B8011F910F910C948F
:104FB00092270F931F9341E050E060E070E004C03F
:104FC000440F551F661F771F8A95D2F7CB01BA0190
:104FD000609570958095909500918C0410918D044A
:104FE00020918E0430918F046023712382239323B8
:104FF0001F910F910C9492270F931F9341E050E063
:1050000060E070E004C0440F551F661F771F8A954B
:10501000D2F780918C0490918D04A0918E04B09170
:105020008F048A019B01082719272A273B27C901DA
:10503000B8011F910F910C9492270F931F93009129
:105040008C0410918D0420918E0430918F04602B7C
:10505000712B822B932B1F910F910C9492270F93FE
:105060001F9300918C0410918D0420918E04309137
:105070008F0460237123822393231F910F910C943B
:1050800092270F931F9300918C0410918D0420910F
:105090008E0430918F0460277127822793271F91F8
:1050A0000F910C94922708959295907F890F982FD5
:1050B000977041E001C0440F9A95EAF7869586956E
:1050C000869595E0899FF0011124E05BFB4F30E06D
:1050D00020E070E05191DF011197CB01022E02C058
:1050E000969587950A94E2F78170819585278423A8
:1050F00085278C932F5F3F4F2530310559F7089551
:105100009295907F890F982F9770869586958695B2
:1051100025E0829FF0011124E05BFB4F50E040E06E
:1051200080E0219130E0092E02C0369527950A943F
:10513000E2F721703327042E01C0220F0A94EAF708
:10514000822B4F5F5F4F4530510559F70895BF924D
:10515000CF92DF92EF92FF920F931F93CF93DF9343
:105160008C01C0908C04D0908D04E0908E04F0905F
:105170008F048091900490919104A0919204B09139
:105180009304C82AD92AEA2AFB2ACFE1D0E0BC2E10
:10519000D701C6010C2E04C0B695A79597958795A3
:1051A0000A94D2F780FD0EC0219788F7B12C8B2D81
:1051B000DF91CF911F910F91FF90EF90DF90CF90F3
:1051C000BF900895B8018C2F0E94EC05019761F300
:1051D000EECFCF93DF93EC010E94A728BE01DF91B1
:1051E000CF910C94EC051F93CF93DF93EB0190913B
:1051F0001704992331F0CB01DF91CF911F910C94CB
:10520000E928882379F0CB010E94A728182F682F5E
:10521000CE010E945428BE01812FDF91CF911F91B2
:105220000C94EC05CB010E948028182FF4CF682F36
:105230008091B4029091B5020C94302B682F80912C
:10524000B4029091B5020C943B2B8091B4029091E2
:10525000B5020C94462B809194048595859585958F
:1052600008958091940487700895909194049770A4
:1052700081E009F480E008958091B8040895909148
:10528000B804892B8093B804089580959091B80450
:1052900098239093B80408951092B80408959091BB
:1052A000B704892B8093B704089580959091B70433
:1052B00098239093B70408951092B704089590919D
:1052C000B604892B8093B604089580959091B60416
:1052D00098239093B60408951092B604089580918F
:1052E0009504089508950C94722990919504981747
:1052F00021F0809395040C9473290895809195046E
:10530000882329F01092950480E00C947329089565
:10531000E091B402F091B5028091B8048083E091ED
:10532000B402F091B50280819091B704892B8083FB
:10533000E091B402F091B50280819091B604892B7E
:10534000808390919504992381F0E091B402F091CB
:10535000B5028081892B80838091B4029091B5023F
:105360000E949C2A81110E947E298091B402909112
:10537000B5020C94DA1E08950C94BB2998E0899F1D
:1053800090011124622B609394040E94B8278091AD
:1053900094048595859585950C94BC291092940468
:1053A00080E00C94BC29909194048095892380938B
:1053B0009404282F277071F4282F082E000C330B2B
:1053C0009217130639F08595859585950E94D92702
:1053D0000C94CE2908956FEF7FEF90E080E00C945D
:1053E000C33990E080E00E948F3921E08C3E9E4FCF
:1053F00009F020E0822F089582E090E00C94873934
:1054000083E090E00C948739CF9384E090E00E9491
:105410008739C82F81E290E00E948739982F8C2F1E
:10542000CF910895CF93C92F682F84E090E00E9418
:10543000A5396C2F81E290E0CF910C94A539AB0196
:10544000BC018FE090E00C94B739AB01BC0183E163
:1054500090E00C94B73960E070E0CB010C94252A01
:1054600060E070E0CB010E941F2A0C942B2A6CEEA6
:105470007EEF90E080E00E94C33960E082E090E03F
:105480000E94A53960E083E090E00E94A539109267
:10549000900410929104109292041092930460E090
:1054A00084E090E00E94A53960E081E290E00E94F3
:1054B000A53960E085E090E00E94A53960E086E0D3
:1054C00090E00E94A5396FEF87E090E00E94A53937
:1054D00040E050E0BA0188E090E00E94B73960E017
:1054E0008DE090E00E94A53940E050E0BA0188E1EB
:1054F00090E00E94B73960E087E190E00E94A53912
:1055000040E050E0BA018CE190E00E94B73960E0E1
:1055100080E290E00E94A53940E050E0BA0188E1C5
:1055200090E00E94B7390C94302A0C94372A682FE7
:105530008EE090E00C94A539FC0132968091C8026F
:10554000882321F0809184069EE187FF96E080E029
:10555000915008F4089521912223D1F38F5FF8CF61
:10556000662301F12091C8022223F1F020918406E4
:1055700027FF1AC0462F4695469546954E3190F422
:10558000677021E030E002C0220F331F6A95E2F716
:10559000840F911DFC01828190E02823392381E052
:1055A000232B69F480E00895FC013296089621913E
:1055B000261721F0E817F907D1F7F4CF81E0089515
:1055C0009C01FC0132969FEF80E04191461751F01B
:1055D0009F3F19F4411101C0982F8F5F8630A9F7C2
:1055E0009F3F09F40895290F311D97FD3A95F90160
:1055F00062830895FC01329608962191261303C018
:10560000DF0111971C92E817F907B9F70895E62F03
:10561000E695E695E695EE3168F4E80FF92FF11D71
:10562000677021E030E001C0220F6A95EAF78281BD
:10563000822B82830895E62FE695E695E695EE3176
:1056400070F4E80FF92FF11D677021E030E001C020
:10565000220F6A95EAF720958281282322830895F4
:105660002091C802222329F02091840627FD0C9462
:10567000072B0C94E02A2091C802222329F02091C4
:10568000840627FD0C941B2B0C94FA2AFC013296FD
:105690008091C802882351F08091840687FF06C05C
:1056A0008EE1DF011D928A95E9F7089586E0F9CF32
:1056B000089508950E94CC0380918A06843049F1B0
:1056C0001092BA0488E190E020E40FB6F894A8950F
:1056D000809360000FBE2093600080E00E94D80598
:1056E0000E94CC0383B7817F846083BF83B78160CE
:1056F00083BF7894889583B78E7F83BF0FB6F89465
:10570000A89580916000886180936000109260008D
:105710000FBE08950895CF930E94582B0E9436081B
:105720000E948A2BC0E08C2F0E94E107892B31F464
:10573000CF5FC630C1F780E0CF91089581E0FCCF04
:1057400008950E94BE230E94C11E0E94D8050C9499
:10575000D1031F921FB61F9211248F939F93AF9373
:10576000BF938091BA04811113C0809180069091FB
:105770008106A0918206B09183064196A11DB11DBC
:105780008093800690938106A0938206B09383064F
:10579000BF91AF919F918F911F901FBE1F90189541
:1057A00082E084BD93E095BD9AEF97BD80936E0033
:1057B00008952FB7F8948091800690918106A0916A
:1057C0008206B09183062FBF08952FB7F894609199
:1057D00080067091810680918206909183062FBF8A
:1057E00008959C014FB7F8948091800690918106AE
:1057F000A0918206B09183064FBF821B930B089540
:10580000CF92DF92EF92FF922FB7F894C09080066C
:10581000D0908106E0908206F09083062FBFA7010A
:105820009601261B370B480B590BCA01B901FF9093
:10583000EF90DF90CF90089578941F921FB61F923B
:1058400011248F939F93AF93BF9380918006909183
:105850008106A0918206B09183060196A11DB11D1B
:105860008093800690938106A0938206B09383066E
:10587000BF91AF919F918F911F901FBE1F90189560
:1058800081E08093E00080E28093D8001092C9000C
:105890008FE19EE40197F1F700C0000087E090EBF4
:1058A000DC018093930690939406A0939506B093A1
:1058B000960688E19CE00FB6F894A8958093600066
:1058C0000FBE90936000FFCF0C94F6190E9436082B
:1058D0008FE39CE90197F1F700C000000E943608B1
:1058E00080E00E94E10780FF04C00E94642C0C94B9
:1058F000402C08950E94F129811102C00E94952A2E
:105900000E94FC298093B9040E94042A9093850682
:10591000809384060E94002A682F70E090E080E067
:105920000E94562760918C0470918D0480918E04A2
:1059300090918F040C9490278091C10480FF12C035
:105940006091BB0285E0689FB00111247595679551
:105950007595679560387105A8F561157105A1F118
:10596000862F089581FF09C06091BB0285E0689F82
:10597000B001112475956795EDCF6091BB0282FD52
:105980000AC08091C0048823D1F09091BA0260913E
:10599000BB02891728F085E0689FB0011124DACF97
:1059A000869FB001112485E0869F9001879F300D6E
:1059B0001124692F70E0C9010E949438CBCF65E0B3
:1059C00070E0CECF8FE7089581E008958091C10403
:1059D00080FF0CC06091B70270E075956795759572
:1059E00067956115710549F1862F089581FF06C0FD
:1059F0006091B70270E075956795F3CF6091B7023B
:105A000082FD0BC09091BF049923A1F06091B60272
:105A10008091B702961738F0682F70E060387105F2
:105A200000F38FE70895899FC001112470E00E9460
:105A30009438F4CF61E070E0D7CF81E00895803FE3
:105A400031F40E949C2C81958093C5040895813F78
:105A500019F40E949C2CF8CF823F31F40E949C2CB8
:105A600081958093C4040895833F19F40E949C2C6F
:105A7000F8CF893F29F40E94E62C8093C60408954C
:105A80008A3F21F40E94E62C8195F7CF8B3F31F4B9
:105A90000E94E62C81958093C70408958C3F19F4E9
:105AA0000E94E62CF8CF843F31F48091C3048160DA
:105AB0008093C3040895853F21F48091C3048260DC
:105AC000F7CF863F21F48091C3048460F1CF873FF4
:105AD00021F48091C3048860EBCF883F21F480914A
