:100000000C9486030C94CD030C94CD030C94CD0377
:100010000C94CD030C94CD030C94CD030C94CD0320
:100020000C94CD030C94CD030C9464310C943832B1
:100030000C94C4270C94CD030C94CD030C94CD03E5
:100040000C94CD030C94CD030C94CD030C94CD03F0
:100050000C94CD030C9437280C94CD030C94CD0351
:100060000C94CD030C94CD030C94CD030C94CD03D0
:100070000C94CD030C94CD030C94CD030C94CD03C0
:100080000C94CD030C94CD030C94CD030C94CD03B0
:100090000C94CD030C94CD0329003A003B003C00A6
:1000A0003D003E003F00400041004200430044004C
:1000B000450046004700480035001E001F00200094
:1000C00021002200230024002500260027002D0007
:1000D0002E0049004A004B002B0014001A000800B3
:1000E000150017001C0018000C00120013002F0050
:1000F00030004C004D004E0039000400160007008F
:1001000009000A000B000D000E000F003300340040
:1001100028002A0000000000E10000001D001B0074
:1001200006001900050011001000360037003800E5
:10013000E50031005200E400E000E3000000E200CE
:10014000000000002C00000000000000E600E700B6
:100150000151500051004F0000000000000000005D
:10016000000000000000000000000000000000008F
:10017000000000000000000000000000000000007F
:10018000000000000000000000000000000000006F
:10019000000000000000000001000100010001005B
:1001A0000100010001000100010001000100010047
:1001B00001000100010001000100C35CC45CC65CD9
:1001C000C75CC85CC95CCA5CCB5C01000100010073
:1001D0000100010001000100010001000100010017
:1001E0000100010001000100010001000100010007
:1001F00001000100010001000100010001000100F7
:1002000001000100010001000100010001000100E6
:1002100001000100000000000100000001000100D9
:1002200001000100010001000100010001000100C6
:1002300001000100010001000100010000000100B7
:1002400000000000010000000000000001000100AB
:10025000010001000100010000000000000000009A
:10026000000000000000000000000000000000008E
:10027000000000000000000000000000000000007E
:10028000000000000000000000000000000000006E
:10029000000000000000000001000100010001005A
:1002A0000100010001000100010001000100010046
:1002B0000100010001000100010001000100010036
:1002C0000100010001000100010001000100010026
:1002D0000100010001000100010001000100010016
:1002E0000100010001000100010001000100010006
:1002F00001000100010001000100010001000100F6
:1003000001000100010001000100010001000100E5
:1003100001000100000000000100000001000100D8
:1003200001000100010001000100010001000100C5
:1003300001000100010001000100010000000100B6
:1003400000000000010000000000000001000100AA
:100350000100010001000100000000000000000099
:10036000000000000000000000000000000000008D
:10037000000000000000000000000000000000007D
:10038000000000000000000000000000000000006D
:100390000000000000000000010001000100010059
:1003A0000100010001000100010001000100010045
:1003B0000100010001000100010001000100010035
:1003C0000100010001000100010001000100010025
:1003D0000100010001000100010001000100010015
:1003E0000100010001000100010001000100010005
:1003F00001000100010001000100010001000100F5
:1004000001000100010001000100010001000100E4
:1004100001000100000000000100000001000100D7
:1004200001000100010001000100010001000100C4
:1004300001000100010001000100010000000100B5
:1004400000000000010000000000000001000100A9
:100450000100010001000100000000000000000098
:10046000000000000000000000000000000000008C
:10047000000000000000000000000000000000007C
:10048000000000000000000000000000000000006C
:100490000000000000000000000101010101010155
:1004A0000101020202020202020202030303030329
:1004B00003030304040404040404050505050506F8
:1004C00006060606070707070708080808090909B6
:1004D000090A0A0A0B0B0B0C0C0C0D0D0D0E0E0E5F
:1004E0000F0F0F10101111111212131314141515F0
:1004F00016161717181819191A1A1B1B1C1D1D1E62
:100500001E1F2020212222232424252626272829B5
:10051000292A2B2C2D2D2E2F3031323233343536E3
:100520003738393A3B3C3D3E3F40414243444546E3
:100530004748494A4C4D4E4F5051535455565859BF
:100540005A5B5D5E5F616264656668696B6C6D6F66
:100550007072737577787A7B7D7E808283858788D9
:100560008A8C8E8F91939596989A9C9EA0A2A3A513
:10057000A7A9ABADAFB1B3B5B7BABCBEC0C2C4C614
:10058000C9CBCDCFD1D4D6D8DBDDDFE2E4E7E9EBD0
:10059000EEF0F3F5F8FAFDFF0A0358004F003800BB
:1005A0003700000018034D006F006E0073007400E8
:1005B00061007200670065006100720000000403C2
:1005C000090409023B00020100A0FA09040000012D
:1005D00003010100092111010001224000070581EA
:1005E0000308000A090401000103000000092111A9
:1005F00001000122BC000705820320000A1201103D
:100600000100000008474D4F58010001020001059C
:10061000010902A10185020901A1000509190129A9
:100620000515002501950575018102950175038168
:10063000010501093009311581257F950275088171
:100640000609381581257F950175088106050C0A74
:1006500038021581257F950175088106C0C0050106
:100660000980A101850319012AB700150126B700E9
:10067000950175108100C0050C0901A101850419BF
:10068000012AA002150126A002950175108100C063
:1006900005010906A1018505050719E029E71500EF
:1006A00025019508750181020507190029EF15003C
:1006B000250195F0750181020508190129059505A7
:1006C00075019102950175039101C005010906A10B
:1006D00001050719E029E715002501950875018135
:1006E000029501750881010507190029FF150026EB
:1006F000FF00950675088100050819012905950573
:1007000075019102950175039101C00011241FBE6E
:10071000CFEFD0E1DEBFCDBF04B603FE27C080918E
:10072000E8069091E906A091EA06B091EB068730C1
:10073000904BA740B04BD1F41092E8061092E90616
:100740001092EA061092EB0614BE84B7877F84BF2E
:100750000FB6F894A895809160008861809360003E
:10076000109260000FBEE0E0F8E7099513E0A0E00A
:10077000B1E0E4EEFBE602C005900D92A038B107AF
:10078000D9F726E0A0E8B3E001C01D92A83EB20769
:10079000E1F70E94A52E0C944E350C94000081E0E8
:1007A0000E9444170C94742780E00E9444170C9414
:1007B000BB27CF930E94F51AC82F20E040E06FEFCF
:1007C00082FF60E08CE590E00E94950C20E040E024
:1007D0006FEFC0FF60E08DE590E00E94950C20E097
:1007E00040E06FEFC1FF60E08EE590E0CF910C94A8
:1007F000950C81E0089581E008950C94FB03089521
:100800000C94FF031F93CF93DF9300D000D00F927F
:10081000CDB7DEB749835A836B8330915004898109
:100820009A8131111DC06623B9F02223A9F00E94DC
:10083000C224182F682F89819A810E946F246981B0
:100840007A81812F0F900F900F900F900F90DF9172
:10085000CF911F910C94C4040E949B24182FEFCFBA
:100860000E94C22469817A81EDCFFC01262F40814C
:1008700051816281738184810C940204CF93DF9350
:10088000EC0160E00E943504BE01DF91CF910C9431
:1008900000040E9481280E940C26811102C00E943F
:1008A000B0260E94E8160C94D1060E9437150C94CD
:1008B000D40608950E94D91F0E9459042FEF84E3A3
:1008C0009CE0215080409040E1F700C000000C9473
:1008D0005B280F931F93CF93DF93EC0161E00E949D
:1008E00035048C01BE010E947E14882389F1BE016B
:1008F000C8010E94FD03882359F1BE01C8010E946E
:100900004519882329F1BE01C8010E94971988233F
:10091000F9F0BE01C8010E94BA1A8823C9F0BE01CD
:10092000C8010E944F18882399F08A81882339F0E2
:1009300001158CE5180751F00F3D1C4579F0CE01EB
:10094000DF91CF911F910F910C94F9030E945A04EB
:1009500080E0DF91CF911F910F9108950E94B02602
:10096000F7CF08950C94B10481E008950C94B40479
:10097000CF93C82F0E94B2048C2FCF910C94B60451
:1009800090E080E00895089528E0829FC00111243E
:10099000FC01E70FF11D84E0EE0FFF1F8A95E1F7E0
:1009A000E60FF11DEE0FFF1FE856FF4F8591949162
:1009B0000895FC01EE0FFF1FE856FB4F85919491BF
:1009C0000895CF93DF930E94C4040E94F605EC01C2
:1009D000811520E5920708F042C0811530E49307A5
:1009E00008F0BDC0883E910528F5803E910508F0CD
:1009F0009DC0883A910588F4853A910508F08FC02A
:100A00008130910509F492C0009709F48FC00497D2
:100A100008F08CC0D0E0C0E089C08F3B910508F49D
:100A200089C0805C9109C03CD105A0F30E94D90423
:100A3000EC017CC08115904250F4C11581E0D807CB
:100A400008F074C0C03FD10528F3D0656FC0C11550
:100A500090E3D90708F079C0CE019F70E7CF8115E8
:100A600025E5920758F5811534E5930708F0A6C0EF
:100A7000811542E5940750F4C11581E5D80708F4C3
:100A800071C0DC2FCC27C16FD06A50C0982F9695CB
:100A900096959E0123703327C115D34508F07FC07A
:100AA000C1E0D0E002C0CC0FDD1F2A95E2F720E2C2
:100AB000929FC0011124C82BD92B6FC0C11589E5A5
:100AC000D807A8F4C11598E5D90708F07CC0C1156E
:100AD00026E5D20708F09ECF8C2F0E948D06C82FE6
:100AE000D0E0DC2FCC27CC27DF71D0621FC0C1152E
:100AF0003AE5D30708F46CC0CE01905681159042B8
:100B000008F088CF8D2F8F710E948D0690E0982F6E
:100B1000882788279F719C012C2BE901E6CFC55AB5
:100B2000D0E0C65EDC4FC881D0E0D064CE01DF915A
:100B3000CF910895C85AD0E0CC0FDD1FC451DD4FCE
:100B40000990D881C02DD464F1CFCE019927D3FF6D
:100B500003C0EC01D86CEACFEC01D06CE7CFDF70BA
:100B6000D06AE4CFCE01E4E096958795EA95E1F767
:100B700083702C2F26952695237090E2299F900153
:100B80001124382B8C2F8370C1E0D0E002C0CC0F31
:100B9000DD1F8A95E2F7C22BD32BDC68C7CFC1E0FB
:100BA000D0E002C0CC0FDD1F2A95E2F730E2939F20
:100BB000C0011124C82BD92BDA68B8CFD82FCC2785
:100BC000C46FD06AB3CFDC2FCC27C06FD06AAECF52
:100BD0008C2F8F700E948D0634E0D695C7953A957C
:100BE000E1F7CF709C2FEC01D069A0CF823891053E
:100BF000B1F1B0F48133910509F475C048F489323C
:100C0000910509F469C08A32910509F473C0089509
:100C10008533910509F459C08933910501F108958F
:100C2000833E9105A9F138F4803E9105F9F0823EAA
:100C3000910549F10895863E9105A9F1873E9105F8
:100C4000C9F1843E910519F52091DA0621FF1FC0F4
:100C50008091D90684FD14C087EE90E0089520911C
:100C6000D9062370A1F080EE90E008952091D90676
:100C700020FD47C03091DA0630FF09C024FF44C090
:100C800090E080E004C02091D90622FDF7CF0895BE
:100C90002091D90622FD3BC03091DA0630FDE3CF2A
:100CA00024FFF5CFEDCF2091D90623FFF0CF24FD0F
:100CB000E7CFD2CF2091D90623FD2CC03091DA06A0
:100CC00031FFEECF84EE90E008952091D90625FF04
:100CD000DECF89E290E008952091D90625FFD7CF95
:100CE00085E390E008952091D90626FFD0CF8AE2CF
:100CF00090E008952091D90626FFC9CF81E390E0C6
:100D0000089589E390E0089583EE90E0089582EEDF
:100D100090E0089586EE90E008959091D90692FFB4
:100D200006C0282F28712830F9F4877F846093FF4C
:100D300006C0282F28712831F1F4877E8461209124
:100D4000DA0620FF06C0382F38713830D9F4877F93
:100D5000816021FF06C0282F28712831D1F4877EB9
:100D6000816194FD877E0895282F24712430F9F63F
:100D70008B7F8860DCCF282F2471243101F78B7E94
:100D80008861DDCF382F3171313019F78E7F88605F
:100D9000E0CF282F2171213121F78E7E8861E1CFAC
:100DA00008950C94D00608950C94D306E82FF0E033
:100DB000EE0FFF1FE75BFA4F808191810895089540
:100DC00080EA8A95F1F70895F894E82FE295EF709C
:100DD000F0E031A1282F2F7081E090E001C0880F52
:100DE0002A95EAF7982F9095932391A392A1892BA6
:100DF00082A378940895CF93DF93CDE1D3E08991D6
:100E00000E94E40683E0CD32D807C9F7CDE2D3E0F3
:100E100089910E94E40683E0C533D807C9F7E9E366
:100E2000F5E0A9E4B5E0119211921D921D9285E0C2
:100E3000E934F807C1F788E00E94B807DF91CF9145
:100E40000C9449046F927F929F92AF92BF92CF927F
:100E5000DF92EF92FF920F931F93CF93DF939DE169
:100E6000E92E93E0F92E10E000E0C0E0CC24C3941A
:100E7000D12C39E4A32E35E0B32ED7018D917D011D
:100E8000F894E82FE295EF70F0E021A18F70A601B1
:100E900002C0440F551F8A95E2F7CA01922F982B82
:100EA00091A392A18095892382A378940E94E00661
:100EB000A601002E02C0440F551F0A94E2F7BA01A2
:100EC00060957095E9E3F5E08DE2682E83E0782E79
:100ED000D0E021913191D3019D903D01892D8295E2
:100EE0008F7090E0DC0190968C9190E0B92DBF70EE
:100EF00002C095958795BA95E2F780FD35C0C90186
:100F0000842B952B2817390739F09F01225031097E
:100F1000D9018D939C93D1E0AE16BF06D1F6F701AF
:100F2000319780810E94E406CD2B0F5F1F4F003167
:100F3000110509F0A2CF2C2F48E069E475E089E3A0
:100F400095E00E94B9070E9455048C2FDF91CF9144
:100F50001F910F91FF90EF90DF90CF90BF90AF90D7
:100F60009F907F906F900895C90186239723CACFE1
:100F70000895FF920F931F93CF93DF93F82E092FBD
:100F8000162FD72FC42F222349F081E080938203AC
:100F90000E94F427909381038093800380918203C1
:100FA0008823A1F080918003909181030E940C28F6
:100FB000069760F0EF2DF02FA12FBD2F90E080E07D
:100FC000D0E08C179D0744F010928203DF91CF91FF
:100FD0001F910F91FF900895219131912D933D9391
:100FE0000196EFCFEF92FF920F931F93CF93DF9372
:100FF000EB01E82FD11110C0442321F0F0E0E856B6
:10100000FB4FE4916E2F7E2F8E2FDF91CF911F919A
:101010000F91FF90EF9008950D2F10E0282F30E0F2
:10102000442329F028563B4FF901249130E0F6E0A3
:10103000CF9FC0011124EFEFF0E0BF010E94EA331F
:10104000AB018C2F90E0880F991FA5E5A49FB001FC
:10105000A59F700D1124861B970B982F990F980F41
:10106000BF01601B710B629FD001639FB00D729F27
:10107000B00D11248B2F9D9FB0011124672F77276E
:10108000EF01C61BD70BBE01629FE001639FD00D2D
:10109000729FD00D11247F01E91AF108E09EB00182
:1010A000E19E700DF09E700D1124672F7727E61BCF
:1010B000F70BE29F8001E39F100DF29F100D1124AA
:1010C000E12F722F4230510599F048F44115510536
:1010D00069F04130510581F0EB2F8D2F07C044306E
:1010E000510569F080F046305105B1F76E2F8DCF74
:1010F000E22F7B2F812FFACFE22F7D2FF7CFEB2F1F
:10110000822F712FF3CF7B2F822FED2FEFCF41E076
:101110000C94F20730E020E0869F212D969F200D51
:10112000311D1124C9010895AC018230910508F4E4
:1011300008959FEF413E8EE1580740F49A0195E0F3
:10114000369527959A95E1F798E0920F61E0E62FA2
:10115000E90FFF27FF1F9F0135952795822F229FBB
:10116000F001239FF00DF00D11244E175F0738F4A6
:101170009FEF920F961758F78FEF860F08952F3F26
:10118000E9F361E0620FF6CFE82F86FDE0952E2FA0
:101190002F7086FD2F5FE695E695E695E670F0E008
:1011A000EB5CFC4F9181929F902D212D1124929503
:1011B0009F702295207F922B2081920F87FD919521
:1011C00080E8890F0895E42FF0E0EE0FFF1FEC5741
:1011D000FE4F408134EE439F412D1124E72FF0E074
:1011E00050E0445E5F4FDA01A21BB1099D01B7FFD9
:1011F00003C031952195310993E0220F331F9A9551
:10120000E1F7AF01421B530B9A0157FD20E0279FE6
:10121000212D1124722F0895E42FF0E0EE0FFF1F0F
:10122000EC57FE4F408134EE439F412D1124E82FAF
:10123000F0E050E0445E5F4FDA01A21BB1099D016E
:10124000B7FF03C031952195310993E0220F331F79
:101250009A95E1F7AF01421B530B9A0157FD20E02D
:10126000582F259F212D1124822F0895622F089534
:10127000E42FF0E0EE0FFF1FEC57FE4F6081621B82
:101280000895E42FF0E0EE0FFF1FEB57FE4F608153
:10129000621B0895322F50E0FA01EE0FFF1FEB574B
:1012A000FE4F9081905297FD9195440F551FFA0182
:1012B000EC57FE4F2081231B330B290F311D97FD67
:1012C0003A95620F0895EF920F93972F23E0029FB4
:1012D000B0011124759567956E0D792F0F91EF90E0
:1012E00008950F93CF93DF93D72FC82F47FD4195D4
:1012F00088E390E0841B910947FD9395889FB00196
:10130000899F700D700D1124229FC001239F900DA5
:10131000900D1124860F971F0E949408982F990F03
:10132000890F682F600F7D2F8C2FDF91CF910F9148
:1013300008950F931F93522F10E0F801EE0FFF1F37
:10134000EB57FE4FA081A052BB0B9D015203F00151
:10135000539FF00D1124000F111FD801AC57BE4F41
:101360000C910057110B40039001419F300D112447
:101370002E0F3F1F37FF02C021583F4F220F232F50
:10138000221F330B620F1F910F9108950F931F932C
:10139000522F10E0F801EE0FFF1FEB57FE4FA08118
:1013A000A052BB0B9D015203F001539FF00D11247D
:1013B000000F111FD801AC57BE4F0C910057110BF5
:1013C00040039001419F300D11242E0F3F1F37FF26
:1013D00002C0215C3F4F96E0359527959A95E1F73D
:1013E000620F1F910F9108950F931F9310E0F80162
:1013F000EE0FFF1FEC57FE4F9081905797FD919590
:10140000000F111FF801EB57FE4F00810052110B26
:101410002003F001219FF00D112408E310E0091BC7
:10142000110997FD139540039001419F300D112440
:10143000E20FF31F9F01220F331F2E0F3F1F37FFB5
:1014400002C021583F4F220F232F221F330B620F60
:101450001F910F9108954095282F429F412D1124EF
:10146000842F089522E8241B08F420E0620F0895D9
:10147000EF92FF920F93970195E0099F200D311D88
:1014800011242F3F310519F010F02FEF30E0209597
:10149000382F320F08F43FEF832F0F91FF90EF901A
:1014A0000895EF92FF920F931F930E0D1F2D111DA4
:1014B000F90137FF03C0F195E195F10924E0EE0F42
:1014C000FF1F2A95E1F7EF3FF10519F014F0EFEF58
:1014D000F0E09A0157FF03C031952195310994E05E
:1014E000220F331F9A95E1F72E173F070CF4F901ED
:1014F000E00FF11FEF3FF10519F010F0EFEFF0E012
:10150000E095282F3E2F230F08F42FEF822F1F91F5
:101510000F91FF90EF900895EF92FF920F93972F06
:10152000093438F4B701601B71096F3F710519F078
:1015300010F06FEF70E0485F5F4F4131510540F0B0
:10154000A901485F5F4F4131510510F06FEF70E026
:101550006095482F460F08F44FEF842F37FF02C0E5
:101560002D5F3F4F359527953595279560915A0505
:10157000620F792F0F91FF90EF900895EF92FF92F5
:101580000F939701201B31092F3F310519F010F0FF
:101590002FEF30E0322F3095482F430F08F44FEFF4
:1015A000842F620F0F91FF90EF900895EF92FF92BA
:1015B0000F939701201B31092F3F310519F010F0CF
:1015C0002FEF30E02095382F320F08F43FEF832FB4
:1015D0000F91FF90EF900895FC019B01009729F473
:1015E00080E077FF2BC080E80895AC0197FF04C02E
:1015F00044275527481B590BB901640F751F37FD48
:1016000010C0241B350BC901A5E0880F991FAA95AE
:10161000E1F70E94FE3380E2861BF7FF0FC0819541
:101620000895CB0165E0880F991F6A95E1F7BA012B
:10163000621B730B0E94FE3380E6EECF08950F937A
:101640001F93CF93DF93D62F172FC82FC901272FB2
:10165000201B022FBA010E94EC0A982F990F990FB4
:10166000782F791B700F719F712D11246D2F8C2F86
:10167000DF91CF911F910F9108950F931F93CF93F7
:10168000DF93D62FC72F182FC901212F201B022F20
:10169000BA010E94EC0A982F990F990F891B800FAD
:1016A000282F219F212D1124822F6D2F7C2FDF9138
:1016B000CF911F910F910895EF920F931F93CF93A6
:1016C000DF93D62F172FC82FC9010E19070FBA01A4
:1016D0000E94EC0A702F781B719F712D11246D2FC1
:1016E0008C2FDF91CF911F910F91EF900895EF9282
:1016F0000F931F93CF93DF93D62FC72F182FC901B6
:101700000E19010FBA010E94EC0A081B202F219F1D
:10171000212D1124822F6D2F7C2FDF91CF911F91CE
:101720000F91EF9008950F93CF93DF93D72FC82F8A
:10173000C901BA010E94EC0A682F600F7D2F8C2F1F
:10174000DF91CF910F910895EF920F93CF93DF9395
:10175000D72FC82FC9010E19BA010E94EC0A602FB9
:10176000681B7D2F8C2FDF91CF910F91EF90089503
:101770000C9487080F931F93CF93DF93FC01618133
:1017800040819FEF960FB1E0B60FAFEFA40F81E05D
:10179000840FF0E16F9FE0011124A41760F48E0123
:1017A0000F541C4F0A0F111DF801208130E1230F47
:1017B00008F42FEF2083242F30E0CF54DC4F8E012C
:1017C000020F131FF801508170E2570F08F45FEF0A
:1017D0005083803140F4C80FD11D588170E1570FFC
:1017E00008F45FEF5883B830F0F050E1959FF001B6
:1017F0001124A41708F445C0EF54FC4FDF01A20FD9
:10180000B31F2C9130E1230F08F42FEF2C9380317C
:1018100008F032C0E80FF11D20813DE0230F08F4ED
:101820002FEF208329C050E1B59FF0011124A417A8
:1018300058F4EF01CF54DC4FCA0FD11D58817DE021
:10184000570F08F45FEF5883EF54FC4FEF01C20FBE
:10185000D31F588170E1570F08F45FEF5883803130
:1018600040F4E80FF11D50817DE0570F08F45FEF61
:101870005083961708F4B9CFDF91CF911F910F9144
:101880000895AF014F545C4FA40FB52FB11D4C917B
:101890005DE0450F08F44FEF4C93AECF45E050E0CC
:1018A0006CE170E089E595E00C94DA3445E050E0B5
:1018B0006CE170E089E595E00C94F834E9E5F5E039
:1018C00085E380838091E9029091EA02A091EB0286
:1018D00081839283A3838FE784830C94560C80E0EA
:1018E00008950F931F93CF93DF93C82FD62F8A01AC
:1018F0000E946F0C90E1C99FB00111246C5F7E4F74
:101900006D0F711DFB0190819F3F29F0F801E80FD9
:10191000F11D90838F5FDF91CF911F910F910895FB
:10192000E0914303F09144030994E0913F03F09167
:10193000400309945F926F927F928F929F92AF9231
:10194000BF92CF92DF92EF92FF920F931F93CF93AC
:10195000DF935C014B01FC01C08186E1C89FC02D73
:10196000112416E11C0FF12E1F3610F03EE6F32E67
:1019700060915D05669580915E0590915F050E947E
:101980008A08582ED0E0CF15A0F081E01E3608F06E
:1019900080E0DF91CF911F910F91FF90EF90DF904A
:1019A000CF90BF90AF909F908F907F906F905F90FF
:1019B0000895FE01E05AFD4F8081F5019181892350
:1019C000C9F1CE01880F991F8C5F9E4FFC01E05832
:1019D000FF4F2081422F4057550B6A018F579F4F71
:1019E000FC018081282F2052330B3901449F900144
:1019F000459F300D300D1124669CC001679C900DF1
:101A0000900D1124820F931F0E949408082F60915B
:101A10005A0570915B0580915C05E52C9301A60148
:101A2000F40109950E94B80B462F282F672FCE018D
:101A30000E94950C2196A7CF6CE57BE00C949A0C44
:101A400067E77BE00C949A0C63E679E00C949A0CBF
:101A500064EA7BE00C949A0CAF92BF92CF92DF9233
:101A6000EF92FF920F931F93CF93DF936C017B0153
:101A7000FC01C08186E1C89FC02D112416E11C0F16
:101A8000B12E1F3610F03EE6B32E60915D056695CF
:101A900080915E0590915F050E948A08A82ED0E093
:101AA000CB1578F081E01E3608F080E0DF91CF9111
:101AB0001F910F91FF90EF90DF90CF90BF90AF906C
:101AC0000895FE01E05AFD4F8081F601918189233E
:101AD00011F1CE01880F991F8C5F9E4FFC01EF57CB
:101AE000FF4F20812052330B80589F4FFC014081D3
:101AF0004057550B60915A0570915B0580915C05CC
:101B00000A2DF70109950E94B80B462F282F672F41
:101B1000CE010E94950C2196C3CF6FE17BE00C941F
:101B20002C0D6DE37BE00C942C0D61E779E00C94B7
:101B30002C0D63E97BE00C942C0DBF92CF92DF92C9
:101B4000EF92FF920F931F93CF93DF936C017B0172
:101B5000FC01C08186E1C89FC02D112416E11C0F35
:101B6000012F1F3608F00EE660915D0566956695BB
:101B700080915E0590915F050E948A08B82ED0E0A2
:101B8000C01770F081E01E3608F080E0DF91CF9141
:101B90001F910F91FF90EF90DF90CF90BF9008952D
:101BA000FE01E05AFD4F8081F6019181892391F079
:101BB00060915A0570915B0580915C052B2D4C2F2F
:101BC000F70109950E94B80B462F282F672FCE01E9
:101BD0000E94950C2196D4CF63EE78E00C949D0D75
:101BE0006CE079E00C949D0D66E379E00C949D0D1A
:101BF00068E379E00C949D0D61E479E00C949D0D0F
:101C00006AE479E00C949D0D7F928F929F92AF923F
:101C1000BF92CF92DF92EF92FF920F931F93CF93D9
:101C2000DF935C016B01FC01C08186E1C89FC02D80
:101C3000112416E11C0F912E1F3610F03EE6932E54
:101C400060915D056695669580915E0590915F0552
:101C50000E948A08F82E80E48F0D0E94C40890E844
:101C6000892E880E8F2D0E94C40820E8722E780ECF
:101C7000D0E0C91590F081E01E3608F080E0DF91D9
:101C8000CF911F910F91FF90EF90DF90CF90BF9079
:101C9000AF909F908F907F900895FE01E05AFD4F86
:101CA0008081F50191818923A1F060915A0570919D
:101CB0005B0580915C05EF2C0C2F272D482DF6013C
:101CC00009950E94B80B462F282F672FCE010E943E
:101CD000950C2196CECF69E979E00C94040E66EC60
:101CE00079E00C94040E64EF79E00C94040EAF924A
:101CF000BF92CF92DF92EF92FF920F931F93CF93F9
:101D0000DF937C016B01FC01C08186E1C89FC02D7F
:101D1000112426E1B22EBC0EAB2CFEE6FB1510F40E
:101D20009EE6A92E20915D0530E050E040E06FEF87
:101D30007FEF80E090E00E9412348901D0E02C2FE8
:101D4000CA1580F081E0FDE6FB1508F480E0DF9124
:101D5000CF911F910F91FF90EF90DF90CF90BF90A8
:101D6000AF900895FE01E05AFD4F8081F701918107
:101D70008923F1F0409162054150042E000C550B6F
:101D800047FF18C0C80160915D050E948A08AC0138
:101D900060915A0570915B0580915C05F60109958B
:101DA0000E94B80B462F282F672FCE010E94950C5A
:101DB0002196C5CFFA01EE59FA4F818982130AC0E4
:101DC000FA01EE0FFF1FEE59FA4F818D928D8017A9
:101DD0009107C8F241505109D3CF6BE27AE00C94DD
:101DE000770E62E37AE00C94770E2F923F924F9237
:101DF0005F926F927F928F929F92AF92BF92CF929B
:101E0000DF92EF92FF920F931F93CF93DF93CDB7A3
:101E1000DEB72B970FB6F894DEBF0FBECDBF8C8315
:101E20002B015F834E83FB01F08186E1F89F802DBB
:101E3000112489838A5E8A838B838F3610F02EE685
:101E40002B83309162053D839981892F90E09B8798
:101E50008A87880F991FFC01EC57FE4F6F01FC81A8
:101E60008F2F90E09C012F5F3F4F39872887EB81B0
:101E7000FA85FE17F0F081E02A812E3608F080E026
:101E80002B960FB6F894DEBF0FBECDBFDF91CF917A
:101E90001F910F91FF90EF90DF90CF90BF90AF9088
:101EA0009F908F907F906F905F904F903F902F907A
:101EB0000895EA85FB85E05AFD4F8081F20191810A
:101EC000892301F120905A0530905B0528853985DA
:101ED0002E593A4F39013C81398310E029813D81E7
:101EE0002317C8F020915C05129F112D1124B10118
:101EF000812F0E94B80B462F282F672F8A859B853C
:101F00000E94950C8A859B8501969B878A8792E023
:101F1000C90ED11CACCFF30181913F01F601A08025
:101F2000A81ABB088180F3018781881A9908AA9CA6
:101F30009001AB9C300D300D1124889CC001899C10
:101F4000900D900D1124820F931F0E949408082F6A
:101F5000F301EE0FFF1FE256F54060915D058589A4
:101F600096890E948A087C019401A501B101812F04
:101F7000EE81FF8109951B01F981FF5FF983182F1D
:101F8000ADCF2091620531E0231B08F420E048E347
:101F90005AE0BC01822F0C94F50E48E35AE0BC01D4
:101FA00080E00C94F50E2091620531E0231B08F4CB
:101FB00020E041E55AE0BC01822F0C94F50E41E58A
:101FC0005AE0BC0180E00C94F50E2091620531E0EE
:101FD000231B08F420E04CE85AE0BC01822F0C944B
:101FE000F50E4CE85AE0BC0180E00C94F50E20910F
:101FF000620531E0231B08F420E04EEB5AE0BC01FF
:10200000822F0C94F50E4EEB5AE0BC0180E00C944C
:10201000F50E2091620531E0231B08F420E046ED27
:102020005AE0BC01822F0C94F50E46ED5AE0BC013B
:1020300080E00C94F50EBF92CF92DF92EF92FF9268
:102040000F931F93CF93DF937C01FC01C08186E146
:10205000C89FC02D112416E11C0F012F1F3608F058
:102060000EE660915A0570915B0580915C050E94B7
:10207000B80BD62EC72EB82ED0E0C01770F081E076
:102080001E3608F080E0DF91CF911F910F91FF90F5
:10209000EF90DF90CF90BF900895FE01E05AFD4F82
:1020A0008081F7019181892331F02B2D4D2D6C2DED
:1020B000CE010E94950C2196E0CF8F929F92AF9215
:1020C000BF92CF92DF92EF92FF920F931F93CF9325
:1020D000DF937C01FC01C08186E1C89FC02D1124E3
:1020E00016E11C0F012F1F3608F00EE6C0905B05AD
:1020F000D0905C05D0915A056D2F7C2D8D2D0E94BE
:10210000B80BB62EA72E982E60915D056D0F7C2D15
:102110008D2D0E94B80BD62EC72E882ED0E0C0176A
:1021200088F081E01E3608F080E0DF91CF911F91AA
:102130000F91FF90EF90DF90CF90BF90AF909F9066
:102140008F900895FE01E05AFD4F9081F701818143
:10215000892359F0282D4D2D6C2D90FD03C0292D7C
:102160004B2D6A2DCE010E94950C2196D8CFBF929F
:10217000CF92DF92EF92FF920F931F93CF93DF9353
:102180007C01FC01C08186E1C89FC02D112416E1AD
:102190001C0FD12E1F3610F09EE6D92EC0905B0585
:1021A000B0905C0520915D0500E4029F012D112493
:1021B000D0E0CD1570F081E01E3608F080E0DF91B0
:1021C000CF911F910F91FF90EF90DF90CF90BF9034
:1021D0000895FE01E05AFD4F8081F7019181892326
:1021E000B9F0FE01EE0FFF1FEB57FE4F8081829585
:1021F0008F7060915A05809F600D11247C2D8B2D6E
:102200000E94B80B462F282F672FCE010E94950CF5
:102210002196CFCFBF92CF92DF92EF92FF920F9392
:102220001F93CF93DF938C01FC01C08186E1C89F8F
:10223000C02D112456E1F52EFC0EDF2CFEE6FF1515
:1022400010F44EE6D42EC0905B05B0905C05209152
:102250005D0530E4E32E3E2D329F312D1124E32E17
:10226000D0E0CD1578F081E03DE63F1508F480E040
:10227000DF91CF911F910F91FF90EF90DF90CF9062
:10228000BF900895FE01E05AFD4F8081F8019181D1
:102290008923D9F0FE01EE0FFF1FEC57FE4F60813E
:1022A000E69EB001112495E0759567959A95E1F742
:1022B00080915A05680F7C2D8B2D0E94B80B462FFC
:1022C000282F672FCE010E94950C2196CACFBF926E
:1022D000CF92DF92EF92FF920F931F93CF93DF93F2
:1022E0008C01FC01C08186E1C89FC02D112496E1BC
:1022F000F92EFC0EEF2CFEE6FF1510F48EE6E82E0C
:10230000D0905A05D0915B05C0905C0560915D0549
:1023100066956695669580915E0590915F050E9431
:102320008A080E94C408805887FD8195880F282F4D
:102330003C2D239F212D1124822F6D2D7D2F0E9456
:10234000B80BD62EC72EB82ED0E0CE1578F081E08F
:102350002DE62F1508F480E0DF91CF911F910F91AA
:10236000FF90EF90DF90CF90BF900895FE01E05A6C
:10237000FD4F8081F8019181892331F02B2D4D2D66
:102380006C2DCE010E94950C2196DFCFDF92EF924B
:10239000FF920F931F93CF93DF938C01FC01E05AC0
:1023A000FD4F8081682381F1D0905B05D0915C0561
:1023B000C0915A05EC2EF12C0E94C134282FC70180
:1023C0008C549F4F68E671E00E94FE338E199F097E
:1023D00097FD0396959587959595879523706C2F16
:1023E000289F600D11247D2D8D2F0E94B80B462F44
:1023F000282F672FC801DF91CF911F910F91FF9078
:10240000EF90DF900C94950CDF91CF911F910F917D
:10241000FF90EF90DF900895DF92EF92FF920F937D
:102420001F93CF93DF938C01FC01C281C11125C0A2
:1024300060915D0520E1620F08F46FEF80915E0509
:1024400090915F050E948A086AE070E00E94EA337A
:10245000892B51F40E94C1346EE670E00E94FE3375
:10246000F80161810E94C6118C2FDF91CF911F91DD
:102470000F91FF90EF90DF900895C08186E1C89F93
:10248000C02D112486E1D82EDC0E8D2DFEE6FD1523
:1024900008F48EE6D0E0E82EF12CCE15DF0534F0FE
:1024A000C1E0FDE6FD1500F7C0E0DECFF801618177
:1024B000CE010E94C6112196F0CF1F93CF93DF93D8
:1024C000EC01FC01E05AFD4F80816823A1F00E94DD
:1024D000C134182F0E94C134612F782F80915C0580
:1024E0000E94B80B462F282F672FCE01DF91CF9186
:1024F0001F910C94950CDF91CF911F910895DF925D
:10250000EF92FF920F931F93CF93DF938C01FC0107
:10251000C281C11125C060915D0520E1620F08F400
:102520006FEF80915E0590915F050E948A0865E0DB
:1025300070E00E94EA33892B51F40E94C1346EE6A8
:1025400070E00E94FE33F80161810E945D128C2FC1
:10255000DF91CF911F910F91FF90EF90DF90089541
:10256000C08186E1C89FC02D112486E1D82EDC0EE3
:102570008D2DFEE6FD1508F48EE6D0E0E82EF12C58
:10258000CE15DF0534F0C1E0FDE6FD1500F7C0E033
:10259000DECFF8016181CE010E945D122196F0CF5D
:1025A000E0914103F091420309942F923F924F92A0
:1025B0005F926F927F928F929F92AF92BF92CF92D3
:1025C000DF92EF92FF920F931F93CF93DF93CDB7DC
:1025D000DEB72A970FB6F894DEBF0FBECDBF6C01F1
:1025E000DC010C9186E1089F002D112446E1542E58
:1025F000500EB0E8B51510F430E8532EF601828184
:10260000882361F040E060E080E00E94D012E1EBBE
:10261000F3E080E8DF011D928A95E9F7F6018081F9
:10262000811115C080913304909134040E940C28CC
:1026300021E08931910508F420E020933204499784
:1026400030F00E94F427909334048093330410E018
:10265000252D30E03A872987CE0101965C012AEAD0
:10266000222EE985FA850E171F07F4F0852D809537
:10267000881F8827881F2A960FB6F894DEBF0FBEE2
:10268000CDBFDF91CF911F910F91FF90EF90DF9021
:10269000CF90BF90AF909F908F907F906F905F9002
:1026A0004F903F902F900895480183E09594879430
:1026B0008A95E1F7C801877099273C0194E0660C80
:1026C000771C9A95E1F7F301EF54FC4FE80DF91DE3
:1026D0004080A501682D0E94710C382E75018E2D49
:1026E0008A19831598F080913204882361F0242D93
:1026F00031E0231B08F420E0C3018F549C4F880E67
:10270000991ED4012C930F5F1F4FABCFD701EC91D3
:10271000F0E0E05AFD4F8081F6019181892321F19B
:10272000242D35E5231B08F420E0622D621B7091F7
:102730005B05222D342D230F08F42FEF30915C051B
:10274000822F880F820F8E5F282F239F212D112427
:10275000822F0E94B80B462FD7019C91282F672FFC
:10276000892F90E00E94950CBFEFEB1AFB0AB7CFC0
:102770006F927F928F929F92AF92BF92CF92DF9291
:10278000EF92FF920F931F93CF93DF93CDB7DEB7F6
:1027900028970FB6F894DEBF0FBECDBFDC011296AE
:1027A0008C91882371F040E060E080E00E94D012BC
:1027B000E1EBF3E080E8DF011D928A95E9F71092E2
:1027C000830381EBC82E83E0D82E00E077247A942F
:1027D00090EDA92EB12C20EC622E3FE2832E912C9D
:1027E000760110E080918303812B09F072C00E9472
:1027F000C134853595400CF06CC0F6017082AE0195
:102800004F5F5F4F602F812F0E94710C8823B1F0C2
:10281000F7012081E981F0E0213D08F462C0205DEC
:10282000330B629EC001639E900D1124B4010E947F
:10283000EA33262F4FEFCF010E94950C1F5FF0E186
:10284000EF0EF11C183071F60F5F2FEFC21AD20A8B
:10285000003131F6809183038F5F8D3108F44BC0D6
:102860001092830341E154E027E001EC13E03EEFD6
:10287000FA0181EB93E0273039F4DC01A059BF4F16
:102880006C916F3F09F43C9360816F3F11F430838A
:10289000608B019631960817190769F7215040514E
:1028A00051092111E5CF80E028960FB6F894DEBFDC
:1028B0000FBECDBFDF91CF911F910F91FF90EF9091
:1028C000DF90CF90BF90AF909F908F907F906F9050
:1028D0000895D7018C9181508E3F08F090CF8C9352
:1028E0008ECF279DC0011124B5010E94EA33462FE7
:1028F00020E060E0A0CF80938303D5CFAF92BF925A
:10290000CF92DF92EF92FF920F931F93CF93DF93BB
:10291000CDB7DEB728970FB6F894DEBF0FBECDBF98
:102920008B01FB018281D12C882341F0AE014F5FE6
:102930005F4F608181810E94710CD82EC09084030A
:10294000ED2CF12CC7018C0D911D099764F188E0E5
:1029500090E05C01AE18BF08B7016B577C4FA50132
:1029600085E893E00E94D134B70163577C4FA501FD
:102970008DE893E00E94D134A501440F551FB701A3
:10298000660F771F63567C4F8DE993E00E94D13428
:10299000B7016B567C4FA50185E993E00E94D134C5
:1029A000CA94C0928403F0908403DE01119640E043
:1029B000842F8F0DD4121CC08093840380915905FD
:1029C0008C7F843619F4C8010E94BA0B81E02896E6
:1029D0000FB6F894DEBF0FBECDBFDF91CF911F9130
:1029E0000F91FF90EF90DF90CF90BF90AF90089540
:1029F0005D91252F30E090E0BC016C577C4FF901D0
:102A0000EE0FFF1FEC57FE4FE080FB01E182220F2B
:102A1000331FF901EB57FE4F2081FB012187518BBA
:102A2000880F991FFC01EC57FC4F128E118E4F5FDF
:102A3000BFCF08950E9419150C94D90308950895E5
:102A4000CF93DF93FC01C08186E1C89FC02D112484
:102A5000DAEEDC0FCF3608F0CEE66C2F8D2F0E9419
:102A60001E156C2F8D2FDF91CF910C941F154F9257
:102A70005F926F927F928F929F92AF92BF92CF920E
:102A8000DF92EF92FF92CF936091AD037091AE030E
:102A90008091AF039091B0030E941B286B017C01D1
:102AA0000E9400284B015C018092AD039092AE031E
:102AB000A092AF03B092B003A0918403E4E8F3E0E6
:102AC0008A2F90E04FEF5FEF60E070E04C195D09F6
:102AD0006E097F09A9132AC0809384038091310471
:102AE000C0E0811108C080915905C82FC37019F04A
:102AF000C82FC695C6958091CE02813009F440C09A
:102B0000882339F1823009F445C1833009F44DC17D
:102B1000CF91FF90EF90DF90CF90BF90AF909F90BC
:102B20008F907F906F905F904F900895218D328DA0
:102B30002901712C612C441555056605770520F493
:102B400081509F5F3296C6CF2C0D3D1D328F218F55
:102B5000F8CF1092CF0280925E0590925F05A0920E
:102B60006005B092610589E2E4E8F3E0A2E6B5E031
:102B700001900D928A95E1F781E08093CE02C8CF53
:102B80008091D202C81316C090915905937020917C
:102B9000D30230E081E09217130609F480E08170DF
:102BA0008093D102C73278F4EC2FF0E0E05BFA4C6E
:102BB0000C94313481E0F3CF882359F040E060E099
:102BC00080E00E94D01280E004C08FEC92E00E946E
:102BD0001B109091CF029F5F9093CF028111D6C0BE
:102BE00082E08093CE028091D1028111CFC0CC23AC
:102BF00009F4D9C00E941A158FEC92E0CF91FF9092
:102C0000EF90DF90CF90BF90AF909F908F907F908C
:102C10006F905F904F900C9420158FEC92E00E9483
:102C20005D10D7CF8FEC92E00E94B710D2CF8FEC1F
:102C300092E00E940A11CDCF8FEC92E00E946711C2
:102C4000C8CF8FEC92E00E94EC0DC3CF8FEC92E0E6
:102C50000E94F00DBECF8FEC92E00E948D0DB9CF97
:102C60008FEC92E00E94910DB4CF8FEC92E00E9425
:102C70001C0DAFCF8FEC92E00E94200DAACF8FECFD
:102C800092E00E94F40DA5CF8FEC92E00E94F80D27
:102C9000A0CF8FEC92E00E94FC0D9BCF8FEC92E0D6
:102CA0000E94000E96CF8FEC92E00E94240D91CFEF
:102CB0008FEC92E00E94950D8CCF8FEC92E00E94F9
:102CC000990D87CF8FEC92E00E94280D82CF8FEC78
:102CD00092E00E946B0E7DCF8FEC92E00E946F0E0F
:102CE00078CF8FEC92E00E94730E73CF8FEC92E05E
:102CF0000E940C126ECF8FEC92E00E947F1269CF7F
:102D00008FEC92E00E94D51264CF8FEC92E00E948B
:102D1000B8135FCF8FEC92E00E94ED0E5ACF8FEC8C
:102D200092E00E94F10E55CF8FEC92E00E94C10F0D
:102D300050CF8FEC92E00E94CD0F4BCF8FEC92E002
:102D40000E94D30F46CF8FEC92E00E94DF0F41CF5D
:102D50008FEC92E00E94E50F3CCF8FEC92E00E9456
:102D6000F10F37CF8FEC92E00E94F70F32CF8FEC4C
:102D700092E00E9403102DCF8FEC92E00E94091088
:102D800028CF8FEC92E00E94151023CFCC2309F4BA
:102D9000BFCE30CFC093D20280915905837080930B
:102DA000D3020E94900C83E0E8CE60915E057091A2
:102DB0005F0580916005909161050E941B2860313C
:102DC00071058105910508F4A3CE1092CE02A0CE24
:102DD000E0913D03F0913E030995109262058FEF5B
:102DE0009FEF90937C0580937B0590937E05809365
:102DF0007D059093800580937F0590938205809355
:102E00008105909384058093830590938605809334
:102E10008505909388058093870590938A05809314
:102E200089051092840390939E0380939D03909351
:102E3000A00380939F039093A2038093A103909398
:102E4000A4038093A3039093A6038093A503909378
:102E5000A8038093A7039093AA038093A903909358
:102E6000AC038093AB030E940C26811104C00E9426
:102E7000B0260E945E0C0E944E0C809159058C7FFA
:102E800011F40C945E0C0895CF93C82F882329F079
:102E900040E060E080E00E94D012C0933104CF9106
:102EA00008959091590521E0922790935905109229
:102EB000CE0281110C94560C089581E00C945117A8
:102EC00090915905937099F0811109C09460909385
:102ED00059051092CE02662351F00C94560C87329D
:102EE00010F09869F4CF880F880F982BF0CF0895D1
:102EF00061E00C946017682F90915905969596950E
:102F000081E0890F873208F081E00C94601781E03E
:102F10000C947B17682F90915905969596958FEF95
:102F2000890F09F486E20C94601781E00C948A17EB
:102F300090915905937061F080935A0560935B05F9
:102F4000453608F044E640935C0521110C94560C7C
:102F50000895A9E5B5E01196EC911197F0E0282FBE
:102F600013964C91139712966C91CF0108960C947E
:102F7000981781E00C94A917E9E5F5E09181282FD5
:102F800043816281E92FE850FF0BCF010C94981721
:102F900081E00C94BC17E9E5F5E0628120E1620F65
:102FA00008F46FEF9181282F4381892F90E00C94D2
:102FB000981781E00C94CB17E9E5F5E0628120E1F8
:102FC000621B08F460E09181282F4381892F90E0F3
:102FD0000C94981781E00C94DC17E9E5F5E0438147
:102FE00020E1420F08F44FEF9181282F6281892F51
:102FF00090E00C94981781E00C94ED17E9E5F5E06A
:10300000438120E1421B08F440E09181282F628136
:10301000892F90E00C94981781E00C94FE17209172
:103020005D0530E1230F08F42FEF20935D0581113A
:103030000C94560C089581E00C940F1820915D05B6
:1030400030E1231B08F420E020935D0581110C94EE
:10305000560C089581E00C941E180895FC01EE0FA3
:10306000FF1FE80FF91FE557FA4F61834083228362
:103070000895EBE8F5E0818360834283339696E020
:10308000E53DF907C1F708956EE670E08BE895E03D
:103090000C94AD18FA01811101C0FB0109940F9342
:1030A0001F93CF938C01FB01C281CC2309F453C041
:1030B0000E9457258272F801E35CFC45E431F1057A
:1030C00038F4E958FA4C0C9431340E945D17C0E092
:1030D0008C2FCF911F910F91089545E957E167E833
:1030E00077E10E944A18F3CF47E857E165E977E1B5
:1030F000F8CF48EC57E169EB77E1F3CF49EB57E1C3
:1031000068EC77E1EECF4AEE57E169ED77E1E9CF80
:1031100049ED57E16AEE77E1E4CF4CE058E16BEF1F
:1031200077E1DFCF4BEF57E16CE078E1DACF4AE2AD
:1031300058E16BE178E1D5CF4BE158E16AE278E103
:10314000D0CF81E00E947817C2CF85E0FBCF8DE021
:10315000F9CF82E1F7CFC1E0BBCF579A4BB14F77A0
:103160005BB15068EFB7F8949B01220F331F260F15
:10317000371F280F391F2817390741F4EFBF8FE594
:1031800094E00197F1F700C000000895DC016D9113
:10319000CD0178E05BB9000000C067FF4BB9660F56
:1031A000000000C000C000C04BB900C07A9591F784
:1031B000E2CF0F931F93CF93DF93C42FD22FFC0145
:1031C00082818823C9F0409337040E94F4279093AA
:1031D00036048093350480E28C0F883008F050C0AC
:1031E000C77081E001C0880FCA95EAF7DF91CF91DF
:1031F0001F910F910C945D1D10913704141335C06D
:1032000080913504909136040E940C28883C9105E9
:1032100060F5C0E2CD0F1D17B9F080E2810F883054
:1032200040F4177081E001C0880F1A95EAF70E94F8
:10323000641DC83048F481E09D2F977001C0880F4D
:103240009A95EAF70E945D1D802F0E944A1DC830A2
:10325000B8F4D77081E001C0880FDA95EAF7DF9102
:10326000CF911F910F910C94641D80E28C0F8830D8
:1032700038F4C77081E001C0880FCA95EAF7EFCF34
:10328000DF91CF911F910F9108950F939C01CB0176
:10329000243F4CE5340759F1A8F4293DFCE53F07EC
:1032A00001F12A3D4CE53407D1F1283D3C4591F42C
:1032B00006E221EE41EE68ED7CE50E94D91880E03F
:1032C0000F910895263FFCE53F07E9F0B0F0273F56
:1032D0003C45F9F0FC018281882339F110923704D2
:1032E000EFCF07E225EE45EE69ED7CE5E6CF06E29D
:1032F00021EE40EE64EF7CE5E0CF07E225EE44EE00
:1033000065EF7CE5DACF06E221EE42EE66EF7CE582
:10331000D4CF07E225EE46EE67EF7CE5CECF08E29C
:1033200021E045EE6AED7CE5C8CF81E0C9CFCF93BF
:10333000DF93EC01FB018281882309F419C1C230BB
:10334000FCE5DF07C0F1C6319CE5D90730F09E01EE
:103350002B5F3C452930310570F50E941F26909364
:10336000DA068093D906C031ECE5DE0709F4CFC058
:1033700008F05BC0C8308CE5D80709F4B6C088F502
:10338000C430ECE5DE0709F4A8C0C0F4C2308CE517
:10339000D80709F49CC08091D9068260C330DC450F
:1033A00009F498C08091D9069091DA060E942D26E2
:1033B0000E94D91F80E0DF91CF9108958091D906B6
:1033C0008061C630ECE5DE0709F484C08091D9063F
:1033D0008860C730DC4508F47DC08091D9068062E2
:1033E00079C0CC308CE5D80709F489C070F480919D
:1033F000D9068C60CA30ECE5DE0709F46BC008F42E
:1034000078C08091D9068E7F65C0CE308CE5D80714
:1034100009F479C08091D9068B7FCF30DC4508F460
:1034200059C08091D9068F7E55C0CC3FECE5DE07B0
:1034300009F457C030F5C3318CE5D80709F46FC0E3
:1034400078F4C131ECE5DE0709F465C0C231DC4532
:1034500009F0A8CF0E94D91F8091D9068F773AC072
:10346000C5318CE5D80709F462C008F476C08091B4
:10347000DA068160CB3FDC4509F094CF8093DA0611
:1034800091CFC115FDE5DF0709F44DC088F48091A7
:10349000DA068D7FCE3F9CE5D90781F38091DA066D
:1034A0008E7FCF3FDC4550F38091DA068360E6CF14
:1034B000C230FDE5DF0709F459C008F444C080E0DC
:1034C000C330DD4509F06ECF0E94B2266BCF8091EC
:1034D000D90681608093D90665CF8091D906846032
:1034E000F9CF8091DA068260C9CF8091D9068064D5
:1034F000F1CF0E94D91F8091D9068068EBCF8091CF
:10350000D9068D7FE7CF8091D906877FE3CF809161
:10351000D9068F7DDFCF8091D9068F7BDBCF80915D
:10352000D906837FD7CF8091DA068C7FA7CF809191
:10353000D90682FB992790F921E0922790FB82F926
:1035400090FB83F9C7CF8091DA06982F9095917000
:103550008E7F892B90FB81F991CF0E94D91F90918A
:10356000D906892F97FB87F98058B4CF81E0ACCF7B
:1035700081E021CFCF93DF93EB0186319C4511F59C
:103580000E9457259A81992399F08A7A91E009F44B
:1035900090E090933804811109C089E20E9432259D
:1035A0000E94A32580E0DF91CF91089585E3F6CFB7
:1035B00080913804811104C089E20E943925F0CF3E
:1035C00085E3FBCF81E0EFCF90933E0480933D04F1
:1035D0000895E0913D04F0913E04309721F0019070
:1035E000F081E02D099480E00895E0913D04F09190
:1035F0003E04309711F480E008950190F081E02DB1
:1036000009950895E0913D04F0913E04309799F0BA
:103610002091E802222359F02091D90627FF07C004
:10362000DC012C9111962C93119725E02C930280AC
:10363000F381E02D09940895E0913D04F0913E045A
:10364000309739F022E0DC012C930480F581E02DE5
:103650000994089520913B0430913C0428173907C0
:1036600071F090933C0480933B04E0913D04F09111
:103670003E04309721F00680F781E02D09940895EB
:103680002091390430913A042817390771F090934A
:103690003A0480933904E0913D04F0913E04309760
:1036A00021F00084F185E02D0994089585B78068A4
:1036B00085BF85B7806885BF0895089508950C94E7
:1036C0005D1B08950C94611B0E94561B0E945E1B9B
:1036D0000C945F1B81E008950C946A1B0895089573
:1036E0000E94EB270E94FB060E9495280C94621B07
:1036F0007F928F929F92AF92BF92CF92DF92EF9282
:10370000FF920F931F93CF93DF93CDB7DEB72A9726
:103710000FB6F894DEBF0FBECDBF0E946E1B0E9495
:103720006F1B0E9422070E946C1B882309F471C042
:1037300040E4A42E44E0B42E10E000E0702E802F70
:103740000E94D6066C01F501819091905F01881668
:10375000990609F458C08091060581FD0E94DF0694
:1037600080E0EE24E394F12C8C249D2494012E21FE
:103770003F21232B09F441C08E837F82CE20DF209E
:1037800081E0CD2809F480E088870E94F4278160D9
:10379000782F9A8789874E815F8168858A850E9404
:1037A0002E1C000F111FF801E05CFB4F80819181FE
:1037B000E826F926F182E0820E94402A0E94E91A56
:1037C00090913F048917B1F10E94E91A80933F0458
:1037D0002A960FB6F894DEBF0FBECDBFDF91CF9112
:1037E0001F910F91FF90EF90DF90CF90BF90AF901F
:1037F0009F908F907F900C94B8048F5FEE0CFF1C0D
:10380000803109F0B3CF0F5F1F4F0830110509F069
:1038100095CF8FEF89838A831B820E94F427816072
:10382000782F9D838C8349815A816B818D810E9481
:103830002E1CC2CF2A960FB6F894DEBF0FBECDBFA6
:10384000DF91CF911F910F91FF90EF90DF90CF907C
:10385000BF90AF909F908F907F900895CF93DF930C
:10386000CDB7DEB72B970FB6F894DEBF0FBECDBF36
:103870004F83588769877A878B871E821D8285E0F0
:10388000FE013796DE01119601900D928A95E1F7BF
:1038900049815A816B817C818D819E812B960FB6E7
:1038A000F894DEBF0FBECDBFDF91CF910C944F22B5
:1038B000FC01808191810C940425CF93C82F88232B
:1038C00009F490C08238C1F40E94E91A81FD8AC0CF
:1038D00089E30E9432250E94A3252FEF81EE94E018
:1038E000215080409040E1F700C0000089E30E9431
:1038F0003925CF910C94A3258338A1F40E94E91AAD
:1039000080FD70C083E50E9432250E94A3252FEF21
:1039100081EE94E0215080409040E1F700C000002B
:1039200083E5E5CF8438A1F40E94E91A82FD5AC0EC
:1039300087E40E9432250E94A3252FEF81EE94E0B8
:10394000215080409040E1F700C0000087E4CFCFD5
:103950008CEF8C0F813AB8F48C2F0E94A72C811128
:1039600041C06C2F8091D4029091D5020E94CB2649
:10397000882329F08C2F0E9439250E94A3258C2FA3
:103980000E943225B6CF80E28C0F883048F4C77091
:1039900081E001C0880FCA95EAF70E945A25A9CF95
:1039A000EBE5EC0FE33040F4F0E0ED58FC4F8081A4
:1039B00090E0CF910C942A1BE8E5EC0FE73150F42E
:1039C000F0E0EE0FFF1FEB5BFC4F80819181CF9108
:1039D0000C94401BC03F30F08C2F0E943A29CF91AD
:1039E0000C94252ACF910895882309F452C0823877
:1039F00071F40E94E91A81FF4CC089E30E943225CC
:103A00000E94A32589E30E9439250C94A3258338BD
:103A100059F40E94E91A80FF3CC083E50E943225D8
:103A20000E94A32583E5EFCF843859F40E94E91A58
:103A300082FF2FC087E40E9432250E94A32587E4DD
:103A4000E2CF9CEF980F913AF0F290E2980F983005
:103A500050F4877091E001C0990F8A95EAF7892F99
:103A60000E946025D2CF9BE5980F933020F490E020
:103A700080E00C942A1B98E5980F973120F490E091
:103A800080E00C94401B803F20F00E94A2290C94FF
:103A9000252A0895CF93C82F0E945D1CC93349F48D
:103AA0002FEF87EE93E0215080409040E1F700C077
:103AB00000008C2FCF910C94F41C882321F00E94DD
:103AC0005A250C94A3250895882321F00E9460258F
:103AD0000C94A3250895BF92CF92DF92EF92FF92AC
:103AE0000F931F93CF93DF936C01D62FC72FFC0149
:103AF000058102950F70128111110E9477250E9495
:103B00005025E82E882391F01123D1F08C2F807F4F
:103B1000803421F080E28D0F883090F082E00E94A6
:103B2000EE250E94502591E0E82EE926BC2EB294A5
:103B30009FE0B922EB2DF0E0E557FA4C0C943134BC
:103B4000E12CF4CF0C2F0F70C07F11F00295007F95
:103B50001123A9F0002359F080E28D0F883010F076
:103B6000D11109C0802F0E945A250E94A3258D2FB4
:103B70000E945D1C14C0802F0E946A25F6CF8D2FF5
:103B80000E94F41C002359F080E28D0F883010F061
:103B9000D1112CC0802F0E9460250E94A3252B2DBF
:103BA0002850330B2430310520F40E94E91A0E947A
:103BB000B804EE2009F49EC10E944C2580FD9AC1F4
:103BC000F60112820E9446250E94D323C6010E945C
:103BD0009B1F0E944625DF91CF911F910F91FF906F
:103BE000EF90DF90CF90BF900C94F423802F0E9431
:103BF0007025D3CFFC2FFF70FF2EC07FC03219F08D
:103C0000F29480EFF822DD2369F0D13049F11123DD
:103C100091F1002351F1F601858180FFA8CF8F70CB
:103C2000858323C0112381F0011106C00E948A25DB
:103C30008F290E945D1DB3CF0130C1F70E948A25F4
:103C40008F290E949025ABCF011106C00E949925B3
:103C50008F2D0E94641DA3CF013009F4A0CFF6CFB1
:103C6000112329F0063008F09ACF8F2DE2CF0530CE
:103C700008F095CFEDCF002359F3D93349F4FFEF86
:103C800027EE33E0F15020403040E1F700C0000063
:103C90008D2F0E94F41C83CF8C2F86958695837080
:103CA00069F0813009F07BCF8D2F9C2F937011111B
:103CB00002C090E080E00E94401B71CF8D2F9C2FAE
:103CC0009370111102C090E080E00E942A1B67CF20
:103CD0008D2F112329F00E943A290E94252A5FCFB7
:103CE0000E94A229FACF8C2F837009F041C01111D4
:103CF00056CF4D2F429546954770440F440F0D2FD8
:103D00000F7010E030E020E0042E04C0000F111FFF
:103D1000221F331F0A94D2F760E070E0CB01D4FF7A
:103D20000FC06FE070E080E090E004C0660F771F86
:103D3000881F991F4A95D2F7609570958095909548
:103D4000C695C695C370602B712B822B932BC23006
:103D500049F058F4C13019F00E94852320CF0E9409
:103D600073231DCF0E9497231ACF0E94712317CF70
:103D70008695112311F08C2F8170882309F40FCFC1
:103D80004D2F429546954770440F440F0D2F0F70ED
:103D900010E030E020E0042E04C0000F111F221FAD
:103DA000331F0A94D2F760E070E0CB01D4FF0FC05C
:103DB0006FE070E080E090E004C0660F771F881F1E
:103DC000991F4A95D2F76095709580959095C69504
:103DD000C695C370602B712B822B932BC23049F098
:103DE00058F4C13019F00E944A24D9CE0E943824D8
:103DF000D6CE0E945C24D3CE0E94AD23D0CECF700D
:103E0000112329F08C2F0E94D3238D2F12CF8D2FB9
:103E10000E94641D8C2F0E94F423C1CED23F89F1F1
:103E200060F4D03FC9F0D13F29F1112309F442C019
:103E300001119DCE8C2F8F7121C0D33F39F1D43F1A
:103E4000A1F7112369F1CF718C2F0E94D32363E076
:103E50008C2F0E94D925A3CE112341F0053008F004
:103E60009ECE8C2F8F710E94172499CE063008F0B9
:103E700096CEF7CF8C2F8F71112369F20E94D32336
:103E80008ECE8C2F8F711123C9F3C5CF112329F04A
:103E90008C2F8F710E94BE2382CE0E94B9237FCEC9
:103EA00081E00E94EE25023008F479CE82E00E9483
:103EB000EE2575CE002359F0D93309F0E9CE8FEF06
:103EC00097EEE3E081509040E040E1F7DFCE8C2FA9
:103ED0008F71A1CF4C2F4F706D2FC6010E94C0046F
:103EE0000E94E9225CCE4C2F4F706D2FC6010E94BC
:103EF000C30455CEDF91CF911F910F91FF90EF90AA
:103F0000DF90CF90BF9008950F931F93CF93DF93CF
:103F1000EC01688179818A810E940E258C010E94C2
:103F20006E240E947023B801CE01DF91CF911F91C2
:103F30000F910C946B1DCF93DF93EC018B819C81CF
:103F4000892B29F08881998189238F3F59F4DF914A
:103F5000CF910895CE010E94841FCE01DF91CF91B1
:103F60000C943E04CE010E9469048111F3CF0E949B
:103F70005025882361F38A81882349F382E0DF9109
:103F8000CF910C94EE250E9477250E9487250E94F0
:103F9000A3250E944C2B0E94252A90E080E00E94DD
:103FA0002A1B90E080E00C94401B0E9440250C945A
:103FB000C31F0E9467250C94D51FE92FE295EF706F
:103FC000E250EE3070F4F0E0E556FA4C0C943134E7
:103FD000803F19F020F4883E20F481E00895843F6A
:103FE000E1F380E00895883EC0F3813FD1F7F5CF3B
:103FF00093FB882780F908950E9404250C94DD1F07
:10400000CF93DF9300D000D00F92CDB7DEB70F90E3
:104010000F900F900F900F90DF91CF910895CF9355
:10402000DF9300D000D000D0CDB7DEB726960FB614
:10403000F894DEBF0FBECDBFDF91CF9108951F93DF
:10404000CF93DF93C091510416E0809152048C13FA
:1040500004C0DF91CF911F910895D0E01C9FF00123
:104060001D9FF00D1124ED5AFB4F4081518162815B
:104070007381848195810E940F202196C770E5CFBE
:10408000409183045091840460918504709186046A
:1040900080918704909188040C940F201F93CF93F4
:1040A000DF9380918804807FA9F480918504882320
:1040B00089F080915104C091520460918304709101
:1040C0008404A0918604B0918704D62FD72316E0EC
:1040D000C81304C0DF91CF911F91089590E010970D
:1040E00011F0DF3F19F401968770F2CF189F90010D
:1040F000199F300D1124F901ED5AFB4F41814713EF
:10410000F2CF40814613EFCF42814111ECCF438182
:1041100054814A1B5B0B483C510528F78091880469
:104120008F70806180938804F901E85AFB4F808189
:104130008F708061808383E894E00E949B1FDF91F1
:10414000CF911F910C941F20AF92BF92CF92DF921C
:10415000EF92FF920F931F93CF93DF93CDB7DEB70C
:1041600061970FB6F894DEBF0FBECDBF8C0185E01E
:10417000F801DE011D9601900D928A95E1F7F80194
:1041800040815181E28083E8C82E84E0D82E60917E
:104190008604709187046115710509F461C19091DD
:1041A000830420918404892F82238F3F09F458C10E
:1041B000A380B480F0908504F501E61BF70BFF2087
:1041C00009F4FCC080918804382F307FE83CF10569
:1041D00008F0B2C0311179C0FE2C251323C094130E
:1041E00021C0E1101FC08F708061809388040E94FD
:1041F0004020C6010E949B1F80918804F80185839E
:104200008F2D61960FB6F894DEBF0FBECDBFDF9144
:10421000CF911F910F91FF90EF90DF90CF90BF90C3
:10422000AF900895AB2829F0842F85238F3F09F0A4
:1042300033C180E0F82FF170DF2E80FF3CC0809109
:1042400051042091520436E0821315C04D875E87D9
:104250008D859E850E940425292F22952F7022305E
:10426000F0F0243018F59F70F1F0F8019581907FFF
:10427000D1F4D12C1EC090E0389FF001399FF00D91
:104280001124ED5AFB4F6181651306C060816413F0
:1042900003C062816E110FC001968770D5CF9F70E9
:1042A00011F0882331F3805E883018F3C8010E9432
:1042B0009B1FFD2CA5CFEE2009F4A2CF809188048E
:1042C000816080938804F12C9BCF251306C0941342
:1042D00004C0F801EE2009F48DC04D875E878D85FE
:1042E0009E850E94FC1F882319F1EE2009F1809120
:1042F0008804803270F020918304309184043887E0
:104300002F831986BB86AA868C87CE0107960E94CA
:104310009B1F86E0F801A3E8B4E001900D928A9516
:10432000E1F70E944E200E944020FF24F39468CFC2
:10433000C8010E949B1FF9CF311113C07A2DB98A91
:10434000A88A6E2D89890E94002083E894E00E944B
:104350009B1F86E0F60111928A95E9F70E944020A2
:10436000B2CF25130FC094130DC0E1100BC0F8019C
:104370008583C8010E949B1F86E0F60111928A95F1
:10438000E9F73ECF4D875E878D859E850E94FC1F95
:10439000882371F2EE2061F280918804803208F463
:1043A000B8CF20918304309184043A8329831B82FF
:1043B000BD82AC828E83CE010196A9CFE83CF10587
:1043C00008F041C0FE2CEE2009F4B2CF25132AC01C
:1043D000941328C08091880480FD1BC0982F907F83
:1043E000C1F0F8018583903F31F0982F907F905F66
:1043F0008F70892B8583C8010E949B1F86E0F8017E
:10440000A3E8B4E001900D928A95E1F70E94402064
:10441000F7CE86E0F801A3E8B4E001900D928A950A
:10442000E1F7EECE4D875E878D859E850E94FC1F4D
:1044300081116FCF80918804816080938804C801C6
:104440000E949B1FDDCE7A2DB98AA88A6E2D89899C
:104450000E94002086E0F60111928A95E9F7D6CFF6
:10446000EE2009F465CF4D875E878D859E850E947D
:10447000FC1FF82E882309F45BCF86E0F801A3E83F
:10448000B4E001900D928A95E1F783E894E00E94F0
:10449000581C0E944E20BACF81E08E25CBCE1F93B0
:1044A000CF93DF93CDB7DEB72C970FB6F894DEBF6E
:1044B0000FBECDBF4F83588769877A878B879C87CC
:1044C000CE0107960E94A420882369F08A859B85E7
:1044D000892B39F04F815885842F85238F3F09F030
:1044E00071C016E05FC086E0FE013796DE011196CE
:1044F00001900D928A95E1F78A859B85892B89F336
:1045000088859F8189238F3F61F32091520430E099
:10451000C9010196877099274091510448171906DF
:1045200071F40E94D91F109252041092510486E037
:10453000E3E8F4E0DF011D928A95E9F7D2CF96E037
:10454000929FD001939FB00D1124AD5ABB4FFE0135
:10455000319601900D929A95E1F7809352040E9452
:104560001F20BFCF819FC00111248D5A9B4F0E94F5
:10457000A4208823E9F0E09151041E9FF00111244A
:10458000ED5AFB4F40815181628173818481958115
:104590000E940F208091510490E001968770992726
:1045A0008093510480915104909152048913DACF81
:1045B0002C960FB6F894DEBF0FBECDBFDF91CF9122
:1045C0001F91089569857A858B859C850E940F20AF
:1045D00088CFEF92FF920F931F93CF93DF938C01BD
:1045E000892B81F0F12CEE24E394E8012196F80167
:1045F0008491843770F4843008F05FC08130B1F06A
:104600008230A1F1DF91CF911F910F91FF90EF9038
:104610000895853709F44CC008F43DC09CE7980F15
:10462000903780F78F770E94F41C49C00E5F1F4FB0
:10463000FE01849190E2980F983060F48770FE2D0F
:1046400001C0FF0F8A95EAF78F2F0E947A250E94FA
:10465000A32502C00E945D1C8F2D815030F2EFE92E
:10466000FFE03197F1F700C00000F7CF0E5F1F4F5A
:10467000FE01849190E2980F983050F48770FE2DDF
:1046800001C0FF0F8A95EAF78F2F0E948025DFCFA8
:104690000E94F41CE1CF0E5F1F4FFE01C491C15078
:1046A000D8F28FE99FE00197F1F700C00000F7CF43
:1046B0000E5F1F4FFE01F490CFCF0E945D1C8E0154
:1046C000CBCF08950C9461230E9462236093DD0494
:1046D0007093DE048093DF049093E0040C94C31F76
:1046E00008950C9464230F931F930091DD0410919F
:1046F000DE042091DF043091E004602B712B822BCB
:10470000932B1F910F910C9464230F931F9300918F
:10471000DD041091DE042091DF043091E004602379
:104720007123822393231F910F910C9464230F9381
:104730001F930091DD041091DE042091DF0430917D
:10474000E00460277127822793271F910F910C9413
:1047500064230C9461230C94A9230E94AB236093DF
:10476000D9047093DA048093DB049093DC040C94F6
:10477000C31F60E070E0CB010C94AD230F931F9337
:1047800041E050E060E070E08A019B0104C0000F4E
:10479000111F221F331F8A95D2F7C901B8011F913B
:1047A0000F910C94AD230F931F9341E050E060E014
:1047B00070E004C0440F551F661F771F8A95D2F71B
:1047C0008091D9049091DA04A091DB04B091DC04CB
:1047D0008A019B01082B192B2A2B3B2BC901B801FD
:1047E0001F910F910C94AD230F931F9341E050E064
:1047F00060E070E004C0440F551F661F771F8A9564
:10480000D2F7CB01BA016095709580959095009193
:10481000D9041091DA042091DB043091DC04602388
:104820007123822393231F910F910C94AD230F9337
:104830001F9341E050E060E070E004C0440F551F5A
:10484000661F771F8A95D2F78091D9049091DA0478
:10485000A091DB04B091DC048A019B010827192791
:104860002A273B27C901B8011F910F910C94AD2352
:104870000F931F930091D9041091DA042091DB0467
:104880003091DC04602B712B822B932B1F910F91A5
:104890000C94AD230F931F930091D9041091DA0467
:1048A0002091DB043091DC04602371238223932365
:1048B0001F910F910C94AD230F931F930091D90476
:1048C0001091DA042091DB043091DC046027712719
:1048D000822793271F910F910C94AD2308959295F1
:1048E000907F890F982F977041E001C0440F9A95EF
:1048F000EAF786958695869595E0899FF0011124C3
:10490000E757FB4F30E020E070E05191DF01119755
:10491000CB01022E02C0969587950A94E2F781702A
:1049200081958527842385278C932F5F3F4F2530E2
:10493000310559F708959295907F890F982F9770B8
:1049400086958695869525E0829FF0011124E7578C
:10495000FB4F50E040E080E0219130E0092E02C0A2
:10496000369527950A94E2F721703327042E01C06B
:10497000220F0A94EAF7822B4F5F5F4F45305105B3
:1049800059F70895BF92CF92DF92EF92FF920F9363
:104990001F93CF93DF938C01C090D904D090DA0499
:1049A000E090DB04F090DC048091DD049091DE0463
:1049B000A091DF04B091E004C82AD92AEA2AFB2A90
:1049C000CFE1D0E0BC2ED701C6010C2E04C0B695B5
:1049D000A795979587950A94D2F780FD0EC02197E9
:1049E00088F7B12C8B2DDF91CF911F910F91FF9004
:1049F000EF90DF90CF90BF900895B8018C2F0E9468
:104A0000E104019761F3EECFCF93DF93EC010E94B5
:104A1000C224BE01DF91CF910C94E1041F93CF9388
:104A2000DF93EB0190915004992331F0CB01DF919A
:104A3000CF911F910C940425882379F0CB010E941B
:104A4000C224182F682FCE010E946F24BE01812F2F
:104A5000DF91CF911F910C94E104CB010E949B2424
:104A6000182FF4CF682F8091D4029091D5020C9426
:104A70004B27682F8091D4029091D5020C94562731
:104A80008091D4029091D5020C9461278091E10429
:104A900085958595859508958091E10487700895A1
:104AA0009091E104977081E009F480E0089580918D
:104AB0000505089590910505892B809305050895B6
:104AC000809590910505982390930505089510927F
:104AD0000505089590910405892B80930405089598
:104AE0008095909104059823909304050895109261
:104AF0000405089590910305892B8093030508957B
:104B00008095909103059823909303050895109242
:104B1000030508958091E204089508950C948D256D
:104B20009091E204981721F08093E2040C948E2572
:104B300008958091E204882329F01092E20480E035
:104B40000C948E250895E091D402F091D5028091C5
:104B500005058083E091D402F091D5028081909187
:104B60000405892B8083E091D402F091D5028081E5
:104B700090910305892B80839091E204992381F021
:104B8000E091D402F091D5028081892B80838091BD
:104B9000D4029091D5020E94B72681110E949925D6
:104BA0008091D4029091D5020C94021B08950C942C
:104BB000D62598E0899F90011124622B6093E1042F
:104BC0000E94D3238091E1048595859585950C9469
:104BD000D7251092E10480E00C94D7259091E10450
:104BE000809589238093E104282F277071F4282F62
:104BF000082E000C330B9217130639F08595859516
:104C000085950E94F4230C94E92508956FEF7FEFBA
:104C100090E080E00C94263590E080E00E94F23431
:104C200021E08C3E9E4F09F020E0822F089582E023
:104C300090E00C94EA3483E090E00C94EA34CF9353
:104C400084E090E00E94EA34C82F81E290E00E9464
:104C5000EA34982F8C2FCF910895CF93C92F682FC6
:104C600084E090E00E9408356C2F81E290E0CF91C3
:104C70000C940835AB01BC018FE090E00C941A3520
:104C8000AB01BC0183E190E00C941A3560E070E068
:104C9000CB010C94402660E070E0CB010E943A26E4
:104CA0000C9446266CEE7EEF90E080E00E94263564
:104CB00060E082E090E00E94083560E083E090E0F0
:104CC0000E9408351092DD041092DE041092DF0479
:104CD0001092E00460E084E090E00E94083560E01B
:104CE00081E290E00E94083560E085E090E00E945B
:104CF000083560E086E090E00E9408356FEF87E0BD
:104D000090E00E94083540E050E0BA0188E090E071
:104D10000E941A3560E08DE090E00E94083540E086
:104D200050E0BA0188E190E00E941A3560E087E126
:104D300090E00E94083540E050E0BA018CE190E03C
:104D40000E941A3560E080E290E00E94083540E061
:104D500050E0BA0188E190E00E941A350C944B268D
:104D60000C945226682F8EE090E00C940835FC01DC
:104D700032968091E802882321F08091D9069EE145
:104D800087FF96E080E0915008F408952191222356
:104D9000D1F38F5FF8CF662301F12091E80222233F
:104DA000F1F02091D90627FF1AC0462F4695469567
:104DB00046954E3190F4677021E030E002C0220F3A
:104DC000331F6A95E2F7840F911DFC01828190E008
:104DD0002823392381E0232B69F480E00895FC0126
:104DE000329608962191261721F0E817F907D1F796
:104DF000F4CF81E008959C01FC0132969FEF80E0A2
:104E00004191461751F09F3F19F4411101C0982F6D
:104E10008F5F8630A9F79F3F09F40895290F311D50
:104E200097FD3A95F90162830895FC013296089640
:104E30002191261303C0DF0111971C92E817F9078F
:104E4000B9F70895E62FE695E695E695EE3168F414
:104E5000E80FF92FF11D677021E030E001C0220F4B
:104E60006A95EAF78281822B82830895E62FE69580
:104E7000E695E695EE3170F4E80FF92FF11D6770B5
:104E800021E030E001C0220F6A95EAF72095828187
:104E90002823228308952091E802222329F02091DB
:104EA000D90627FD0C9422270C94FB262091E802BA
:104EB000222329F02091D90627FD0C9436270C9443
:104EC0001527FC0132968091E802882351F08091E9
:104ED000D90687FF06C08EE1DF011D928A95E9F7AA
:104EE000089586E0F9CF089508950E94CF03809138
:104EF000DF06843049F11092070588E190E020E454
:104F00000FB6F894A895809360000FBE20936000C0
:104F100080E00E94B8040E94CF0383B7817F846041
:104F200083BF83B7816083BF7894889583B78E7F72
:104F300083BF0FB6F894A895809160008861809334
:104F40006000109260000FBE08950895CF930E94F4
:104F500073270E9422070E94A527C0E08C2F0E9481
:104F6000D606892B31F4CF5FC830C1F780E0CF91EE
:104F7000089581E0FCCF08950E94D91F0E94E91A8C
:104F80000E94B8040C94D4031F921FB61F921124E0
:104F90008F939F93AF93BF9380910705811113C0A7
:104FA0008091D5069091D606A091D706B091D806EB
:104FB0004196A11DB11D8093D5069093D606A0936E
:104FC000D706B093D806BF91AF919F918F911F9054
:104FD0001FBE1F90189582E084BD93E095BD9AEFA7
:104FE00097BD80936E0008952FB7F8948091D506F1
:104FF0009091D606A091D706B091D8062FBF0895FC
:105000002FB7F8946091D5067091D6068091D70697
:105010009091D8062FBF08959C014FB7F8948091C6
:10502000D5069091D606A091D706B091D8064FBF6D
:10503000821B930B0895CF92DF92EF92FF922FB7CE
:10504000F894C090D506D090D606E090D706F090A0
:10505000D8062FBFA7019601261B370B480B590B0B
:10506000CA01B901FF90EF90DF90CF900895789436
:105070001F921FB61F9211248F939F93AF93BF93DC
:105080008091D5069091D606A091D706B091D8060A
:105090000196A11DB11D8093D5069093D606A093CD
:1050A000D706B093D806BF91AF919F918F911F9073
:1050B0001FBE1F90189581E08093E00080E28093EE
:1050C000D8001092C9008FE19EE40197F1F700C06B
:1050D000000087E090EBDC018093E8069093E906FE
:1050E000A093EA06B093EB0688E19CE00FB6F89433
:1050F000A895809360000FBE90936000FFCF0C9442
:1051000006260E9422078FE39CE90197F1F700C071
:1051100000000E94220780E00E94D60680FF04C0A3
:105120000E947F280C945B2808950E940C26811110
:1051300002C00E94B0260E941726809306050E9496
:105140001F269093DA068093D9060E941B26682FAB
:1051500070E090E080E00E9471236091D90470912A
:10516000DA048091DB049091DC040C94AB238091F1
:105170000E0580FF12C06091DB0285E0689FB001E0
:105180001124759567957595679560387105A8F533
:1051900061157105A1F1862F089581FF09C0609105
:1051A000DB0285E0689FB001112475956795EDCF0E
:1051B0006091DB0282FD0AC080910D058823D1F049
:1051C0009091DA026091DB02891728F085E0689FF0
:1051D000B0011124DACF869FB001112485E0869FAB
:1051E0009001879F300D1124692F70E0C9010E9442
:1051F000FE33CBCF65E070E0CECF8FE7089581E03E
:10520000089580910E0580FF0CC06091D70270E078
:1052100075956795759567956115710549F1862FA7
:10522000089581FF06C06091D70270E0759567957B
:10523000F3CF6091D70282FD0BC090910C059923AA
:10524000A1F06091D6028091D702961738F0682FAE
:1052500070E06038710500F38FE70895899FC00101
:10526000112470E00E94FE33F4CF61E070E0D7CFEC
:1052700081E00895803F31F40E94B72881958093A2
:1052800012050895813F19F40E94B728F8CF823F94
:1052900031F40E94B7288195809311050895833FCA
:1052A00019F40E94B728F8CF893F29F40E940129F8
:1052B0008093130508958A3F21F40E940129819566
:1052C000F7CF8B3F31F40E9401298195809314051B
:1052D00008958C3F19F40E940129F8CF843F31F4DE
:1052E000809110058160809310050895853F21F419
:1052F000809110058260F7CF863F21F480911005E0
:105300008460F1CF873F21F4809110058860EBCF56
:10531000883F21F4809110058061E5CF8D3F31F405
:1053200080910E05816080930E0508958E3F21F4D3
:1053300080910E058260F7CF8F3FB9F780910E05FF
:105340008460F1CF90911105803F59F4809112054E
:1053500087FF0DC01092120591110BC010920D0520
:1053600008C0813F81F48091120518169CF399239F
:1053700081F08091130590911405892B09F064C088
:1053800010920C050895823F49F497FFF0CF1092D8
:105390001105809112058111ECCFE0CF833F19F404
:1053A0001916ACF3E4CF20911305893F29F41216A6
:1053B000F4F610921305DBCF8A3F19F427FFD7CFFD
:1053C000F8CF209114058B3F29F427FFD0CF1092FE
:1053D0001405CDCF8C3F19F41216CCF3C8CF843FFF
:1053E00031F4809110058E7F80931005C0CF853FEA
:1053F00021F4809110058D7FF7CF863F21F48091B5
:1054000010058B7FF1CF873F21F480911005877FB6
:10541000EBCF883F21F4809110058F7EE5CF8D3F43
:1054200031F480910E058E7F80930E05A0CF8E3FC4
:1054300021F480910E058D7FF7CF8F3F09F097CF34
:1054400080910E058B7FF0CF08950E94F4279C0178
:105450009091110580911205982B21F030930B0546
:1054600020930A059091130580911405982B21F043
:1054700030930905209308058FE095E00C941C1BE0
:10548000EF92FF920F931F93CF93DF9300D000D042
:1054900000D0CDB7DEB786E0EFE0F5E0DE01119693
:1054A00001900D928A95E1F7E0901105F0901205B8
:1054B0000091130510911405109211051092120518
:1054C00010921305109214058E2D8F2991F0809162
:1054D0000A0590910B050E940C28AC0190910D05D6
:1054E000992309F43FC08091DC028417150608F463
:1054F00047C0802F812B91F080910805909109057C
:105500000E940C28AC0190910C05992309F477C0F6
:105510008091D8028417150608F47FC08091110588
:1055200090911205892B90911305892B9091140568
:10553000892B11F00E94252A86E0FE013196AFE00A
:10554000B5E001900D928A95E1F726960FB6F89492
:10555000DEBF0FBECDBFDF91CF911F910F91FF90A6
:10556000EF9008952091DD028AE0289F9001112498
:105570002417350708F0BDCF9F5F90930D0502C03B
:105580009F3FD1F7EE2059F00E94B7289FEF1E14DD
:105590000CF491E0899F802D112480931105FF2048
:1055A00059F00E94B7289FEF1F140CF491E0899FD7
:1055B000802D11248093120530911105332309F4B5
:1055C00098CF20911205222309F493CF45EB3403A1
:1055D000C0011124992359F09093110545EB240340
:1055E00090011124332339F03093120582CF81E0EA
:1055F00080931105F3CF81E0809312057ACF20913B
:10560000D9028AE0289F900111242417350708F059
:1056100085CF9F5F90930C0502C09F3FD1F7002379
:1056200059F00E9401299FEF10160CF491E0899F18
:10563000802D112480931305112359F00E94012914
:105640009FEF11160CF491E0899F802D1124809317
:10565000140530911305332309F460CF209114050C
:10566000222309F45BCF45EB3403C00111249923B5
:1056700059F09093130545EB240390011124332333
:1056800039F0309314054ACF81E080931305F3CFAE
:1056900081E08093140542CF86E0EFE0F5E0DF0182
:1056A0001D928A95E9F710920D0510920C05109243
:1056B0000E050895833081F128F4813059F082304D
:1056C000D1F00895853009F449C0B8F1863009F465
:1056D00056C008958091DD02482F460F5527551F6B
:1056E0004F3F510524F4680F6093DD0208958FEF5A
:1056F0008093DD0208958091DC02482F460F5527E4
:10570000551F4F3F510524F4680F6093DC02089544
:105710008FEF8093DC0208958091DB02482F460FC3
:105720005527551F4F3F510524F4680F6093DB0246
:1057300008958FEF8093DB0208958091DA02482F5D
:10574000460F5527551F4F3F510524F4680F6093AE
:10575000DA0208958FEF8093DA0208958091D702DC
:10576000482F460F5527551F4F3F510524F4680F0A
:105770006093D70208958FEF8093D70208958091A8
:10578000D602482F460F5527551F4F3F510524F489
:10579000680F6093D60208958FEF8093D602089524
:1057A000833011F128F4813049F0823091F008956E
:1057B000853081F120F18630C1F108958091DD02BC
:1057C000681720F4861B8093DD0208951092DD0295
:1057D00008958091DC02681720F4861B8093DC0218
:1057E00008951092DC0208958091DB02681720F47E
:1057F000861B8093DB0208951092DB02089580914E
:10580000DA02681720F4861B8093DA02089510925A
:10581000DA0208958091D702681720F4861B8093DE
:10582000D70208951092D70208958091D602681782
:1058300020F4861B8093D60208951092D602089514
:105840000F931F9341E050E060E070E08A019B01FC
:1058500004C0000F111F221F331F8A95D2F7C90100
:10586000B8010E9471231F910F910C94D91FEBEF87
:10587000E80FEF3308F05AC0F0E0E755FA4C0C940B
:1058800031340E94B02681E0089580910605807F22
:105890008093060581E08093160508950E945A04BE
:1058A000F2CF90910605892F8E7F90FF81608093C3
:1058B000060580FDE8CF817F80930605E4CF9091B7
:1058C0000605892F8D7F91FF82608093060581FFF9
:1058D000DACF809106058160EFCF90910605892F80
:1058E0008B7F92FF84608093060582FDF2CFCBCF41
:1058F00090910605892F877F93FF88608093060526
:1059000083FDE7CFC0CF0E94D91F9091D906892F80
:1059100097FB87F980588093D906B5CF80E00E9425
:10592000202CB1CF8953FBCF8D51F9CF80E0089562
:1059300080E008950C94982C8E518A3030F4E82F32
:10594000F0E0EA58FC4F8081089580E00895CF93FD
:10595000C82F809116058130B9F0882331F082304C
:10596000A1F11092160580E00DC00E9457258232E9
:10597000D1F78C2F0E94982C81111BC08C2F0E9474
:10598000372C8170CF9108950E945725823289F378
:105990008C2F0E949A2C81110AC0C43199F060F4B6
:1059A000CB3029F0C03169F782E08093160581E0A1
:1059B000E8CF81E090E0E5CFC93221F0C833B9F3F8
:1059C00080E0DFCF10921605FBCFC93219F188F4C1
:1059D000C43101F120F4C73081F181E0D3CF82EEF0
:1059E0008C0F8630D0F78C2F0E949C2C809315054D
:1059F000F4CFCE3401F140F46AE0CB3471F78091FA
:105A000015050E945A2BE9CFC13579F061E0C23506
:105A1000B1F3E3CF80911505882319F01092150595
:105A2000DCCF81E080931605ADCF61E08091150554
:105A30000E94D02BD2CF6AE0F9CF8EE18093DD02B5
:105A400082E38093DC028AE08093DB0284E180932E
:105A5000DA0288E08093D70288E28093D602BDCF35
:105A6000809137050895CF93DF9300D00F92CDB783
:105A7000DEB79091DF06943019F589837B836A83C2
:105A800082E08093E9008FEF9091E800815095FDCE
:105A900006C095ED9A95F1F700008111F5CF809140
:105AA000E80085FF0DC050E040E063E070E0CE010B
:105AB00001960E94582F8091E8008E778093E8002D
:105AC0000F900F900F90DF91CF910895BC0184E06B
:105AD0000C94332DBC0183E00C94332D9C0182E0A7
