:100000000C9477030C94BE030C94BE030C94BE03B3
:100010000C94BE030C94BE030C94BE030C94BE035C
:100020000C94BE030C94BE030C9498360C946C375D
:100030000C94472C0C94BE030C94BE030C94BE038A
:100040000C94BE030C94BE030C94BE030C94BE032C
:100050000C94BE030C94BA2C0C94BE030C94BE03F7
:100060000C94BE030C94BE030C94BE030C94BE030C
:100070000C94BE030C94BE030C94BE030C94BE03FC
:100080000C94BE030C94BE030C94BE030C94BE03EC
:100090000C94BE030C94BE0329003A003B003C00C4
:1000A0003D003E003F00400041004200430044004C
:1000B000450046004700480035001E001F00200094
:1000C00021002200230024002500260027002D0007
:1000D0002E0049004A004B002B0014001A000800B3
:1000E000150017001C0018000C00120013002F0050
:1000F00030004C004D004E0039000400160007008F
:1001000009000A000B000D000E000F003300340040
:1001100028002A0000000000E10000001D001B0074
:1001200006001900050011001000360037003800E5
:10013000E50031005200E400E000E300E2000000CE
:10014000000000002C00000000000000E600E700B6
:100150000151500051004F00010001000100010059
:100160000100010001000100010001000100010087
:1001700001000100010001000100C35CC45CC65C19
:10018000C75CC85CC95CCA5CCB5C010001000100B3
:100190000100010001000100010001000100010057
:1001A0000100010001000100010001000100010047
:1001B0000100010001000100010001000100010037
:1001C0000100010001000100010001000100010027
:1001D000010001000000000001000000010001001A
:1001E0000100010001000100010001000100010007
:1001F00001000100010001000100010001000000F8
:1002000000000000010000000000000001000100EB
:1002100001000100010001000100010001000100D6
:1002200001000100010001000100010001000100C6
:1002300001000100010001000100010001000100B6
:1002400001000100010001000100010001000100A6
:100250000100010001000100010001000100010096
:100260000100010001000100010001000100010086
:100270000100010001000100010001000100010076
:100280000100010001000100010001000100010066
:100290000100010000000000010000000100010059
:1002A0000100010001000100010001000100010046
:1002B0000100010001000100010001000100000037
:1002C000000000000100000000000000010001002B
:1002D0000100010001000100010001000100010016
:1002E0000100010001000100010001000100010006
:1002F00001000100010001000100010001000100F6
:1003000001000100010001000100010001000100E5
:1003100001000100010001000100010001000100D5
:1003200001000100010001000100010001000100C5
:1003300001000100010001000100010001000100B5
:1003400001000100010001000100010001000100A5
:100350000100010000000000010000000100010098
:100360000100010001000100010001000100010085
:100370000100010001000100010001000100000076
:10038000000000000100000000000000010001006A
:100390000100010001000100000000000000000059
:1003A0002A2B2800000000000000000000000000D0
:1003B00000000029000000002C1E342021222434DB
:1003C0002627252E362D3738271E1F2021222324AD
:1003D00025263333362E37381F0405060708090A49
:1003E0000B0C0D0E0F101112131415161718191AE5
:1003F0001B1C1D2F3130232D350405060708090A63
:100400000B0C0D0E0F101112131415161718191AC4
:100410001B1C1D2F3130354C000000000000000077
:100420000000000000000000000000007E0F00D46B
:10043000FFFFFFC700000078000101010101010179
:100440000101020202020202020202030303030389
:100450000303030404040404040405050505050658
:100460000606060607070707070808080809090916
:10047000090A0A0A0B0B0B0C0C0C0D0D0D0E0E0EBF
:100480000F0F0F1010111111121213131414151550
:1004900016161717181819191A1A1B1B1C1D1D1EC2
:1004A0001E1F202021222223242425262627282916
:1004B000292A2B2C2D2D2E2F303132323334353644
:1004C0003738393A3B3C3D3E3F4041424344454644
:1004D0004748494A4C4D4E4F505153545556585920
:1004E0005A5B5D5E5F616264656668696B6C6D6FC7
:1004F0007072737577787A7B7D7E8082838587883A
:100500008A8C8E8F91939596989A9C9EA0A2A3A573
:10051000A7A9ABADAFB1B3B5B7BABCBEC0C2C4C674
:10052000C9CBCDCFD1D4D6D8DBDDDFE2E4E7E9EB30
:10053000EEF0F3F5F8FAFDFF0A0358004F0038001B
:100540003700000018034D006F006E007300740048
:100550006100720067006500610072000000040322
:10056000090409025B00030100A0FA09040000016C
:10057000030101000921110100012240000705814A
:100580000308000A09040100020300000009211108
:100590000100012222000705820320000107050354
:1005A00003200001090402000103000000092111D9
:1005B00001000122BC000705840320000A1201107B
:1005C0000100000008474D4F5801000102000106DC
:1005D00060FF0961A1010962150026FF00952075E1
:1005E0000881020963150026FF0095207508910215
:1005F000C005010902A10185020901A1000509192F
:1006000001290515002501950575018102950175E2
:100610000381010501093009311581257F95027596
:1006200008810609381581257F9501750881060521
:100630000C0A38021581257F950175088106C0C016
:1006400005010980A101850319012AB700150126BA
:10065000B700950175108100C0050C0901A1018545
:100660000419012AA002150126A002950175108126
:1006700000C005010906A1018505050719E029E764
:10068000150025019508750181020507190029EF5C
:100690001500250195F0750181020508190129054C
:1006A000950575019102950175039101C005010938
:1006B00006A101050719E029E71500250195087530
:1006C0000181029501750881010507190029FF15AF
:1006D0000026FF0095067508810005081901290507
:1006E000950575019102950175039101C0001124D2
:1006F0001FBECFEFD0E1DEBFCDBF04B603FE27C0E3
:100700008091960690919706A0919806B0919906CF
:100710008730904BA740B04BD1F4109296061092C0
:100720009706109298061092990614BE84B7877F98
:1007300084BF0FB6F894A89580916000886180937B
:100740006000109260000FBEE0E0F8E7099513E04A
:10075000A0E0B1E0E0E8F6E702C005900D92AE3609
:10076000B107D9F726E0AEE6B3E001C01D92A63985
:10077000B207E1F70E945D330C94893A0C940000B3
:1007800081E00E9442180C94F72B80E00E944218EE
:100790000C943E2CCF930E94761FC82F20E040E09F
:1007A00060E482FF60E08CE590E00E949D0D20E017
:1007B00040E060E4C0FF60E08DE590E00E949D0DA8
:1007C00020E040E060E4C1FF60E08EE590E0CF9182
:1007D0000C949D0D81E0089581E008950C94EC0344
:1007E00008950C94F0031F93CF93DF9300D000D0B3
:1007F0000F92CDB7DEB749835A836B8330911A04C9
:1008000089819A8131111DC06623B9F02223A9F094
:100810000E944529182F682F89819A810E94F22809
:1008200069817A81812F0F900F900F900F900F9018
:10083000DF91CF911F910C948F1C0E941E29182FBD
:10084000EFCF0E94452969817A81EDCFFC01262FE7
:10085000408151816281738184810C94F303CF9331
:10086000DF93EC0160E00E942604BE01DF91CF918E
:100870000C94F103FF920F931F93CF93DF93E82F14
:10088000F0E0E856FC4FF490C82FC695C695C69583
:10089000D0E0FE01E85DFB4F0491877010E0082E68
:1008A00002C0159507950A94E2F701701127C85EFA
:1008B000DB4FFE01C491D0E002C0D595C7958A9563
:1008C000E2F7C170DD270115110519F081EE0E94D4
:1008D000E020209719F086EE0E94E0208F2D0E94E4
:1008E000CD21CD2B19F086EE0E947721012B41F00E
:1008F00081EEDF91CF911F910F91FF900C947721A2
:10090000DF91CF911F910F91FF900895EF92FF9289
:100910000F931F93CF93DF93EC01162F0AE088818A
:10092000882309F454C0813009F04EC08981813098
:1009300099F47E0122E0E20EF11C8A810E94CD2111
:10094000E7012196812F815050F3EFE9FFE03197C5
:10095000F1F700C00000F7CF823041F47E0182E061
:10096000E80EF11C8A810E94E020EACF833041F436
:100970007E01E2E0EE0EF11C8A810E947721E0CF39
:10098000843011F02196DDCF2A81229690E080E01C
:10099000AE014F5F5F4F2053330B2A30310548F0D3
:1009A000019778F2EFE9FFE03197F1F700C000001E
:1009B000F7CF089FB001099F700D1124C901860F60
:1009C000971F2981EA01E4CF0E943A04BACFDF9150
:1009D000CF911F910F91FF90EF90089560E00C94DC
:1009E00086048F929F92AF92BF92CF92DF92EF9246
:1009F000FF920F931F936B017C0181E090E0A0E0D8
:100A0000B0E04C015D0104C0880C991CAA1CBB1C01
:100A10004A95D2F7B501A4014C015D0104C0880CD0
:100A2000991CAA1CBB1C2A95D2F7482959296A2966
:100A30007B2904C0880F991FAA1FBB1F0A95D2F7F4
:100A40008A019B010C211D212E213F21041715072E
:100A50002607370789F48C299D29AE29BF29BC01B7
:100A6000CD011F910F91FF90EF90DF90CF90BF903D
:100A7000AF909F908F90089580959095A095B09598
:100A80008C219D21AE21BF21EACF0F93382F262F35
:100A900060918F04709190048091910490919204E0
:100AA000042F432F0E94F1040F910C9430280E94D0
:100AB000042D0E948F2A811102C00E94332B0E94B4
:100AC000E6170C94D0070E9435160C94D3070895AE
:100AD0000E945C240E9467052FEF84E39CE0215074
:100AE00080409040E1F700C000000C94DE2C0F9392
:100AF0001F93CF93DF93EC0161E00E9426048C01E9
:100B0000BE010E947C158823B9F1BE01C8010E9474
:100B1000611A882389F1BE01C8010E94EE0388236F
:100B200059F1BE01C8010E94C61D882329F1BE01EA
:100B3000C8010E94181E8823F9F0BE01C8010E9456
:100B40003B1F8823C9F0BE01C8010E948019882379
:100B500099F08A81882339F001158CE5180751F046
:100B60000F3D1C4579F0CE01DF91CF911F910F9180
:100B70000C94EA030E94680580E0DF91CF911F91F9
:100B80000F9108950E94332BF7CF08950C94C5055B
:100B900081E008950C94C805CF93C82F0E94C60524
:100BA0008C2FCF910C94CA0590E080E008950895B1
:100BB000FC01EE0FFF1FE85CFB4F859194910895B7
:100BC000CF93DF930E948F1C0E94F506EC018115E4
:100BD00020E5920708F042C0811530E4930708F041
:100BE000BDC0883E910528F5803E910508F09DC066
:100BF000883A910588F4853A910508F08FC08130D4
:100C0000910509F492C0009709F48FC0049708F089
:100C10008CC0D0E0C0E089C08F3B910508F489C04A
:100C2000805C9109C03CD105A0F30E94D805EC017D
:100C30007CC08115904250F4C11581E0D80708F0BE
:100C400074C0C03FD10528F3D0656FC0C11590E3D3
:100C5000D90708F079C0CE019F70E7CF811525E54F
:100C6000920758F5811534E5930708F0A6C0811561
:100C700042E5940750F4C11581E5D80708F471C026
:100C8000DC2FCC27C16FD06A50C0982F96959695CF
:100C90009E0123703327C115D34508F07FC0C1E002
:100CA000D0E002C0CC0FDD1F2A95E2F720E2929F30
:100CB000C0011124C82BD92B6FC0C11589E5D807F5
:100CC000A8F4C11598E5D90708F07CC0C11526E540
:100CD000D20708F09ECF8C2F0E948C07C82FD0E03F
:100CE000DC2FCC27CC27DF71D0621FC0C1153AE5BD
:100CF000D30708F46CC0CE0190568115904208F0DD
:100D000088CF8D2F8F710E948C0790E0982F8827B5
:100D100088279F719C012C2BE901E6CFC55AD0E0B2
:100D2000C650DD4FC881D0E0D064CE01DF91CF91B5
:100D30000895C85AD0E0CC0FDD1FC453DD4F099091
:100D4000D881C02DD464F1CFCE019927D3FF03C041
:100D5000EC01D86CEACFEC01D06CE7CFDF70D06A41
:100D6000E4CFCE01E4E096958795EA95E1F78370AC
:100D70002C2F26952695237090E2299F900111240F
:100D8000382B8C2F8370C1E0D0E002C0CC0FDD1F68
:100D90008A95E2F7C22BD32BDC68C7CFC1E0D0E045
:100DA00002C0CC0FDD1F2A95E2F730E2939FC0010D
:100DB0001124C82BD92BDA68B8CFD82FCC27C46F11
:100DC000D06AB3CFDC2FCC27C06FD06AAECF8C2FC8
:100DD0008F700E948C0734E0D695C7953A95E1F75D
:100DE000CF709C2FEC01D069A0CF82389105B1F172
:100DF000B0F48133910509F475C048F48932910546
:100E000009F469C08A32910509F473C008958533E5
:100E1000910509F459C08933910501F10895833E84
:100E20009105A9F138F4803E9105F9F0823E9105D3
:100E300049F10895863E9105A9F1873E9105C9F1D2
:100E4000843E910519F52091880621FF1FC08091ED
:100E5000870684FD14C087EE90E0089520918706F0
:100E60002370A1F080EE90E008952091870620FD88
:100E700047C03091880630FF09C024FF44C090E08D
:100E800080E004C02091870622FDF7CF08952091CD
:100E9000870622FD3BC03091880630FDE3CF24FF5A
:100EA000F5CFEDCF2091870623FFF0CF24FDE7CFCC
:100EB000D2CF2091870623FD2CC03091880631FFC8
:100EC000EECF84EE90E008952091870625FFDECFD7
:100ED00089E290E008952091870625FFD7CF85E32A
:100EE00090E008952091870626FFD0CF8AE290E017
:100EF00008952091870626FFC9CF81E390E00895E9
:100F000089E390E0089583EE90E0089582EE90E00A
:100F1000089586EE90E008959091870692FF06C0AE
:100F2000282F28712830F9F4877F846093FF06C04A
:100F3000282F28712831F1F4877E8461209188065A
:100F400020FF06C0382F38713830D9F4877F816090
:100F500021FF06C0282F28712831D1F4877E8161B6
:100F600094FD877E0895282F24712430F9F68B7F15
:100F70008860DCCF282F2471243101F78B7E8861B3
:100F8000DDCF382F3171313019F78E7F8860E0CF97
:100F9000282F2171213121F78E7E8861E1CF0895BC
:100FA0000C94CF0708950C94D207E82FF0E0EE0FD1
:100FB000FF1FE550FB4F808191810895089580EADD
:100FC0008A95F1F70895F894E82FE295EF70F0E034
:100FD00031A1282F2F7081E090E001C0880F2A9561
:100FE000EAF7982F9095932391A392A1892B82A33E
:100FF00078940895CF93DF93CDEFD2E089910E944A
:10100000E30783E0CD30D807C9F786EC0E94E307F9
:1010100087EC0E94E30783EC0E94E30780E30E94D1
:10102000E30781E30E94E30782E00E94E307EFEE1B
:10103000F4E0ABEFB4E0119211921D921D9284E0A6
:10104000EB3FF807C1F786E00E94C008DF91CF911F
:101050000C9457056F927F929F92AF92BF92CF925E
:10106000DF92EF92FF920F931F93CF93DF939DEF49
:10107000E92E92E0F92E10E000E0C0E0CC24C39409
:10108000D12C3BEFA32E34E0B32ED7018D917D01FF
:10109000F894E82FE295EF70F0E021A18F70A6019F
:1010A00002C0440F551F8A95E2F7CA01922F982B70
:1010B00091A392A18095892382A378940E94DF074F
:1010C000A601002E02C0440F551F0A94E2F7BA0190
:1010D00060957095EFEEF4E08DE0682E83E0782E59
:1010E000D0E021913191D3019D903D01892D8295D0
:1010F0008F7090E0DC0190968C9190E0B92DBF70DC
:1011000002C095958795BA95E2F780FD35C0C90173
:10111000842B952B2817390739F09F01225031096C
:10112000D9018D939C93D1E0AE16BF06D1F6F7019D
:10113000319780810E94E307CD2B0F5F1F4F003155
:10114000110509F0A2CF2C2F46E06BEF74E08FEE73
:1011500094E00E94C1080E9463058C2FDF91CF911B
:101160001F910F91FF90EF90DF90CF90BF90AF90C5
:101170009F907F906F900895C90186239723CACFCF
:101180000895FF920F931F93CF93DF93F82E092FAB
:10119000162FD72FC42F222349F081E080937003AC
:1011A0000E94772C90936F0380936E03809170035D
:1011B0008823A1F080916E0390916F030E948F2C81
:1011C000069760F0EF2DF02FA12FBD2F90E080E06B
:1011D000D0E08C179D0744F010927003DF91CF91FF
:1011E0001F910F91FF900895219131912D933D937F
:1011F0000196EFCFEF92FF920F931F93CF93DF9360
:10120000EB01E82FD11110C0442321F0F0E0E85C9D
:10121000FB4FE4916E2F7E2F8E2FDF91CF911F9188
:101220000F91FF90EF9008950D2F10E0282F30E0E0
:10123000442329F0285C3B4FF901249130E0F6E08B
:10124000CF9FC0011124EFEFF0E0BF010E941E39D3
:10125000AB018C2F90E0880F991FA5E5A49FB001EA
:10126000A59F700D1124861B970B982F990F980F2F
:10127000BF01601B710B629FD001639FB00D729F15
:10128000B00D11248B2F9D9FB0011124672F77275C
:10129000EF01C61BD70BBE01629FE001639FD00D1B
:1012A000729FD00D11247F01E91AF108E09EB00170
:1012B000E19E700DF09E700D1124672F7727E61BBD
:1012C000F70BE29F8001E39F100DF29F100D112498
:1012D000E12F722F4230510599F048F44115510524
:1012E00069F04130510581F0EB2F8D2F07C044305C
:1012F000510569F080F046305105B1F76E2F8DCF62
:10130000E22F7B2F812FFACFE22F7D2FF7CFEB2F0C
:10131000822F712FF3CF7B2F822FED2FEFCF41E064
:101320000C94FA0830E020E0869F212D969F200D36
:10133000311D1124C9010895AC018230910508F4D2
:1013400008959FEF413E8EE1580740F49A0195E0E1
:10135000369527959A95E1F798E0920F61E0E62F90
:10136000E90FFF27FF1F9F0135952795822F229FA9
:10137000F001239FF00DF00D11244E175F0738F494
:101380009FEF920F961758F78FEF860F08952F3F14
:10139000E9F361E0620FF6CFE82F86FDE0952E2F8E
:1013A0002F7086FD2F5FE695E695E695E670F0E0F6
:1013B000ED5EFC4F9181929F902D212D11249295ED
:1013C0009F702295207F922B2081920F87FD91950F
:1013D00080E8890F0895E42FF0E0EE0FFF1FEC592D
:1013E000FE4F408134EE439F412D1124E72FF0E062
:1013F00050E0445E5F4FDA01A21BB1099D01B7FFC7
:1014000003C031952195310993E0220F331F9A953E
:10141000E1F7AF01421B530B9A0157FD20E0279FD4
:10142000212D1124722F0895E42FF0E0EE0FFF1FFD
:10143000EC59FE4F408134EE439F412D1124E82F9B
:10144000F0E050E0445E5F4FDA01A21BB1099D015C
:10145000B7FF03C031952195310993E0220F331F67
:101460009A95E1F7AF01421B530B9A0157FD20E01B
:10147000582F259F212D1124822F0895622F089522
:10148000E42FF0E0EE0FFF1FEC59FE4F6081621B6E
:101490000895E42FF0E0EE0FFF1FEB59FE4F60813F
:1014A000621B0895322F50E0FA01EE0FFF1FEB5937
:1014B000FE4F9081905297FD9195440F551FFA0170
:1014C000EC59FE4F2081231B330B290F311D97FD53
:1014D0003A95620F0895EF920F93972F23E0029FA2
:1014E000B0011124759567956E0D792F0F91EF90CE
:1014F00008950F93CF93DF93D72FC82F47FD4195C2
:1015000088E390E0841B910947FD9395889FB00183
:10151000899F700D700D1124229FC001239F900D93
:10152000900D1124860F971F0E949C09982F990FE8
:10153000890F682F600F7D2F8C2FDF91CF910F9136
:1015400008950F931F93522F10E0F801EE0FFF1F25
:10155000EB59FE4FA081A052BB0B9D015203F0013D
:10156000539FF00D1124000F111FD801AC59BE4F2D
:101570000C910057110B40039001419F300D112435
:101580002E0F3F1F37FF02C021583F4F220F232F3E
:10159000221F330B620F1F910F9108950F931F931A
:1015A000522F10E0F801EE0FFF1FEB59FE4FA08104
:1015B000A052BB0B9D015203F001539FF00D11246B
:1015C000000F111FD801AC59BE4F0C910057110BE1
:1015D00040039001419F300D11242E0F3F1F37FF14
:1015E00002C0215C3F4F96E0359527959A95E1F72B
:1015F000620F1F910F9108950F931F9310E0F80150
:10160000EE0FFF1FEC59FE4F9081905797FD91957B
:10161000000F111FF801EB59FE4F00810052110B12
:101620002003F001219FF00D112408E310E0091BB5
:10163000110997FD139540039001419F300D11242E
:10164000E20FF31F9F01220F331F2E0F3F1F37FFA3
:1016500002C021583F4F220F232F221F330B620F4E
:101660001F910F9108954095282F429F412D1124DD
:10167000842F089522E8241B08F420E0620F0895C7
:10168000EF92FF920F93970195E0099F200D311D76
:1016900011242F3F310519F010F02FEF30E0209585
:1016A000382F320F08F43FEF832F0F91FF90EF9008
:1016B0000895EF92FF920F931F930E0D1F2D111D92
:1016C000F90137FF03C0F195E195F10924E0EE0F30
:1016D000FF1F2A95E1F7EF3FF10519F014F0EFEF46
:1016E000F0E09A0157FF03C031952195310994E04C
:1016F000220F331F9A95E1F72E173F070CF4F901DB
:10170000E00FF11FEF3FF10519F010F0EFEFF0E0FF
:10171000E095282F3E2F230F08F42FEF822F1F91E3
:101720000F91FF90EF900895EF92FF920F93972FF4
:10173000093438F4B701601B71096F3F710519F066
:1017400010F06FEF70E0485F5F4F4131510540F09E
:10175000A901485F5F4F4131510510F06FEF70E014
:101760006095482F460F08F44FEF842F37FF02C0D3
:101770002D5F3F4F35952795359527956091080545
:10178000620F792F0F91FF90EF900895EF92FF92E3
:101790000F939701201B31092F3F310519F010F0ED
:1017A0002FEF30E0322F3095482F430F08F44FEFE2
:1017B000842F620F0F91FF90EF900895EF92FF92A8
:1017C0000F939701201B31092F3F310519F010F0BD
:1017D0002FEF30E02095382F320F08F43FEF832FA2
:1017E0000F91FF90EF900895FC019B01009729F461
:1017F00080E077FF2BC080E80895AC0197FF04C01C
:1018000044275527481B590BB901640F751F37FD35
:1018100010C0241B350BC901A5E0880F991FAA959C
:10182000E1F70E94323980E2861BF7FF0FC08195F5
:101830000895CB0165E0880F991F6A95E1F7BA0119
:10184000621B730B0E94323980E6EECF08950F932E
:101850001F93CF93DF93D62F172FC82FC901272FA0
:10186000201B022FBA010E94F40B982F990F990F99
:10187000782F791B700F719F712D11246D2F8C2F74
:10188000DF91CF911F910F9108950F931F93CF93E5
:10189000DF93D62FC72F182FC901212F201B022F0E
:1018A000BA010E94F40B982F990F990F891B800F92
:1018B000282F219F212D1124822F6D2F7C2FDF9126
:1018C000CF911F910F910895EF920F931F93CF9394
:1018D000DF93D62F172FC82FC9010E19070FBA0192
:1018E0000E94F40B702F781B719F712D11246D2FA6
:1018F0008C2FDF91CF911F910F91EF900895EF9270
:101900000F931F93CF93DF93D62FC72F182FC901A3
:101910000E19010FBA010E94F40B081B202F219F02
:10192000212D1124822F6D2F7C2FDF91CF911F91BC
:101930000F91EF9008950F93CF93DF93D72FC82F78
:10194000C901BA010E94F40B682F600F7D2F8C2F04
:10195000DF91CF910F910895EF920F93CF93DF9383
:10196000D72FC82FC9010E19BA010E94F40B602F9E
:10197000681B7D2F8C2FDF91CF910F91EF900895F1
:101980000C948F090F931F93CF93DF93FC01618118
:1019900040819FEF960FB1E0B60FAFEFA40F81E04B
:1019A000840FF0E16F9FE0011124A41760F48E0111
:1019B00001561C4F0A0F111DF801208130E1230F41
:1019C00008F42FEF2083242F30E0C156DC4F8E0126
:1019D000020F131FF801508170E2570F08F45FEFF8
:1019E0005083803140F4C80FD11D588170E1570FEA
:1019F00008F45FEF5883B630F0F050E1959FF001A6
:101A00001124A41708F445C0E156FC4FDF01A20FD2
:101A1000B31F2C9130E1230F08F42FEF2C9380316A
:101A200008F032C0E80FF11D20813DE0230F08F4DB
:101A30002FEF208329C050E1B59FF0011124A41796
:101A400058F4EF01C156DC4FCA0FD11D58817DE01B
:101A5000570F08F45FEF5883E156FC4FEF01C20FB8
:101A6000D31F588170E1570F08F45FEF588380311E
:101A700040F4E80FF11D50817DE0570F08F45FEF4F
:101A80005083961708F4B9CFDF91CF911F910F9132
:101A90000895AF0141565C4FA40FB52FB11D4C9175
:101AA0005DE0450F08F44FEF4C93AECF45E050E0BA
:101AB0006CE170E087E095E00C94153A45E050E069
:101AC0006CE170E087E095E00C94333AE7E0F5E0F4
:101AD00085E380838091C9029091CA02A091CB02D4
:101AE00081839283A3838FE784830C945E0D80E0CF
:101AF00008950F931F93CF93DF93C82FD62F8A019A
:101B00000E94770D90E1C99FB00111246C5F7E4F58
:101B10006D0F711DFB0190819F3F29F0F801E80FC7
:101B2000F11D90838F5FDF91CF911F910F910895E9
:101B3000E0912103F09122030994E0911D03F091BB
:101B40001E0309945F926F927F928F929F92AF9241
:101B5000BF92CF92DF92EF92FF920F931F93CF939A
:101B6000DF935C014B01FC01C08186E1C89FC02D61
:101B7000112416E11C0FF12E1F3610F03EE6F32E55
:101B800060910B05669580910C0590910D050E9462
:101B90009209582ED0E0CF15A0F081E01E3608F053
:101BA00080E0DF91CF911F910F91FF90EF90DF9038
:101BB000CF90BF90AF909F908F907F906F905F90ED
:101BC0000895FE01E05CFD4F8081F501918189233C
:101BD000C9F1CE01880F991F8C5F9E4FFC01E05A1E
:101BE000FF4F2081422F4057550B6A018F599F4F5D
:101BF000FC018081282F2052330B3901449F900132
:101C0000459F300D300D1124669CC001679C900DDE
:101C1000900D1124820F931F0E949C09082F609140
:101C200008057091090580910A05E52C9301A6012C
:101C3000F40109950E94C00C462F282F672FCE0172
:101C40000E949D0D2196A7CF64E67CE00C94A20D26
:101C50006FE77CE00C94A20D6BE67AE00C94A20D89
:101C60006CEA7CE00C94A20DAF92BF92CF92DF920F
:101C7000EF92FF920F931F93CF93DF936C017B0141
:101C8000FC01C08186E1C89FC02D112416E11C0F04
:101C9000B12E1F3610F03EE6B32E60910B0566950F
:101CA00080910C0590910D050E949209A82ED0E01C
:101CB000CB1578F081E01E3608F080E0DF91CF91FF
:101CC0001F910F91FF90EF90DF90CF90BF90AF905A
:101CD0000895FE01E05CFD4F8081F601918189232A
:101CE00011F1CE01880F991F8C5F9E4FFC01EF59B7
:101CF000FF4F20812052330B805A9F4FFC014081BF
:101D00004057550B609108057091090580910A05AF
:101D10000A2DF70109950E94C00C462F282F672F26
:101D2000CE010E949D0D2196C3CF67E27CE00C940A
:101D3000340E65E47CE00C94340E69E77AE00C9490
:101D4000340E6BE97CE00C94340EBF92CF92DF929C
:101D5000EF92FF920F931F93CF93DF936C017B0160
:101D6000FC01C08186E1C89FC02D112416E11C0F23
:101D7000012F1F3608F00EE660910B0566956695FB
:101D800080910C0590910D050E949209B82ED0E02B
:101D9000C01770F081E01E3608F080E0DF91CF912F
:101DA0001F910F91FF90EF90DF90CF90BF9008951B
:101DB000FE01E05CFD4F8081F6019181892391F065
:101DC000609108057091090580910A052B2D4C2F13
:101DD000F70109950E94C00C462F282F672FCE01CE
:101DE0000E949D0D2196D4CF6BEE79E00C94A50E48
:101DF00064E17AE00C94A50E6EE37AE00C94A50EF3
:101E000060E47AE00C94A50E69E47AE00C94A50EE7
:101E100062E57AE00C94A50E7F928F929F92AF922A
:101E2000BF92CF92DF92EF92FF920F931F93CF93C7
:101E3000DF935C016B01FC01C08186E1C89FC02D6E
:101E4000112416E11C0F912E1F3610F03EE6932E42
:101E500060910B056695669580910C0590910D0536
:101E60000E949209F82E80E48F0D0E94CC0990E820
:101E7000892E880E8F2D0E94CC0920E8722E780EB4
:101E8000D0E0C91590F081E01E3608F080E0DF91C7
:101E9000CF911F910F91FF90EF90DF90CF90BF9067
:101EA000AF909F908F907F900895FE01E05CFD4F72
:101EB0008081F50191818923A1F0609108057091DD
:101EC000090580910A05EF2C0C2F272D482DF601CE
:101ED00009950E94C00C462F282F672FCE010E9423
:101EE0009D0D2196CECF61EA7AE00C940C0F6EEC3A
:101EF0007AE00C940C0F6CEF7AE00C940C0FAF921C
:101F0000BF92CF92DF92EF92FF920F931F93CF93E6
:101F1000DF937C016B01FC01C08186E1C89FC02D6D
:101F2000112426E1B22EBC0EAB2CFEE6FB1510F4FC
:101F30009EE6A92E20910B0530E050E040E06FEFC7
:101F40007FEF80E090E00E9446398901D0E02C2F9D
:101F5000CA1580F081E0FDE6FB1508F480E0DF9112
:101F6000CF911F910F91FF90EF90DF90CF90BF9096
:101F7000AF900895FE01E05CFD4F8081F7019181F3
:101F80008923F1F0409110054150042E000C550BAF
:101F900047FF18C0C80160910B050E949209AC016F
:101FA000609108057091090580910A05F60109956F
:101FB0000E94C00C462F282F672FCE010E949D0D36
:101FC0002196C5CFFA01E05FFA4F818982130AC0DA
:101FD000FA01EE0FFF1FE05FFA4F818D928D80179F
:101FE0009107C8F241505109D3CF63E37BE00C94D1
:101FF0007F0F6AE37BE00C947F0F2F923F924F920A
:102000005F926F927F928F929F92AF92BF92CF9288
:10201000DF92EF92FF920F931F93CF93DF93CDB791
:10202000DEB72B970FB6F894DEBF0FBECDBF8C8303
:102030002B015F834E83FB01F08186E1F89F802DA9
:10204000112489838A5E8A838B838F3610F02EE673
:102050002B83309110053D839981892F90E09B87D8
:102060008A87880F991FFC01EC59FE4F6F01FC8194
:102070008F2F90E09C012F5F3F4F39872887EB819E
:10208000FA85FE17F0F081E02A812E3608F080E014
:102090002B960FB6F894DEBF0FBECDBFDF91CF9168
:1020A0001F910F91FF90EF90DF90CF90BF90AF9076
:1020B0009F908F907F906F905F904F903F902F9068
:1020C0000895EA85FB85E05CFD4F8081F2019181F6
:1020D000892301F12090080530900905288539856C
:1020E000205F3A4F39013C81398310E029813D81DD
:1020F0002317C8F020910A05129F112D1124B10158
:10210000812F0E94C00C462F282F672F8A859B8520
:102110000E949D0D8A859B8501969B878A8792E008
:10212000C90ED11CACCFF30181913F01F601A08013
:10213000A81ABB088180F3018781881A9908AA9C94
:102140009001AB9C300D300D1124889CC001899CFE
:10215000900D900D1124820F931F0E949C09082F4F
:10216000F301EE0FFF1FE051F54060910B058589EB
:1021700096890E9492097C019401A501B101812FE9
:10218000EE81FF8109951B01F981FF5FF983182F0B
:10219000ADCF2091100531E0231B08F420E040E48E
:1021A0005BE0BC01822F0C94FD0F40E45BE0BC01BE
:1021B00080E00C94FD0F2091100531E0231B08F402
:1021C00020E049E55BE0BC01822F0C94FD0F49E55E
:1021D0005BE0BC0180E00C94FD0F2091100531E024
:1021E000231B08F420E044E95BE0BC01822F0C943F
:1021F000FD0F44E95BE0BC0180E00C94FD0F2091F1
:10220000100531E0231B08F420E046EC5BE0BC0144
:10221000822F0C94FD0F46EC5BE0BC0180E00C9437
:10222000FD0F2091100531E0231B08F420E04EED56
:102230005BE0BC01822F0C94FD0F4EED5BE0BC0116
:1022400080E00C94FD0FBF92CF92DF92EF92FF924D
:102250000F931F93CF93DF937C01FC01C08186E134
:10226000C89FC02D112416E11C0F012F1F3608F046
:102270000EE6609108057091090580910A050E949B
:10228000C00CD62EC72EB82ED0E0C01770F081E05B
:102290001E3608F080E0DF91CF911F910F91FF90E3
:1022A000EF90DF90CF90BF900895FE01E05CFD4F6E
:1022B0008081F7019181892331F02B2D4D2D6C2DDB
:1022C000CE010E949D0D2196E0CF8F929F92AF92FA
:1022D000BF92CF92DF92EF92FF920F931F93CF9313
:1022E000DF937C01FC01C08186E1C89FC02D1124D1
:1022F00016E11C0F012F1F3608F00EE6C0900905ED
:10230000D0900A05D09108056D2F7C2D8D2D0E944F
:10231000C00CB62EA72E982E60910B056D0F7C2D4C
:102320008D2D0E94C00CD62EC72E882ED0E0C0174F
:1023300088F081E01E3608F080E0DF91CF911F9198
:102340000F91FF90EF90DF90CF90BF90AF909F9054
:102350008F900895FE01E05CFD4F9081F70181812F
:10236000892359F0282D4D2D6C2D90FD03C0292D6A
:102370004B2D6A2DCE010E949D0D2196D8CFBF9284
:10238000CF92DF92EF92FF920F931F93CF93DF9341
:102390007C01FC01C08186E1C89FC02D112416E19B
:1023A0001C0FD12E1F3610F09EE6D92EC0900905C5
:1023B000B0900A0520910B0500E4029F012D112425
:1023C000D0E0CD1570F081E01E3608F080E0DF919E
:1023D000CF911F910F91FF90EF90DF90CF90BF9022
:1023E0000895FE01E05CFD4F8081F7019181892312
:1023F000B9F0FE01EE0FFF1FEB59FE4F8081829571
:102400008F7060910805809F600D11247C2D8B2DAD
:102410000E94C00C462F282F672FCE010E949D0DD1
:102420002196CFCFBF92CF92DF92EF92FF920F9380
:102430001F93CF93DF938C01FC01C08186E1C89F7D
:10244000C02D112456E1F52EFC0EDF2CFEE6FF1503
:1024500010F44EE6D42EC0900905B0900A052091E4
:102460000B0530E4E32E3E2D329F312D1124E32E57
:10247000D0E0CD1578F081E03DE63F1508F480E02E
:10248000DF91CF911F910F91FF90EF90DF90CF9050
:10249000BF900895FE01E05CFD4F8081F8019181BD
:1024A0008923D9F0FE01EE0FFF1FEC59FE4F60812A
:1024B000E69EB001112495E0759567959A95E1F730
:1024C00080910805680F7C2D8B2D0E94C00C462F33
:1024D000282F672FCE010E949D0D2196CACFBF9253
:1024E000CF92DF92EF92FF920F931F93CF93DF93E0
:1024F0008C01FC01C08186E1C89FC02D112496E1AA
:10250000F92EFC0EEF2CFEE6FF1510F48EE6E82EF9
:10251000D0900805D0910905C0900A0560910B057F
:1025200066956695669580910C0590910D050E94C3
:1025300092090E94CC09805887FD8195880F282F29
:102540003C2D239F212D1124822F6D2D7D2F0E9444
:10255000C00CD62EC72EB82ED0E0CE1578F081E074
:102560002DE62F1508F480E0DF91CF911F910F9198
:10257000FF90EF90DF90CF90BF900895FE01E05C58
:10258000FD4F8081F8019181892331F02B2D4D2D54
:102590006C2DCE010E949D0D2196DFCFDF92EF9230
:1025A000FF920F931F93CF93DF938C01FC01E05CAC
:1025B000FD4F8081682381F1D0900905D0910A05F3
:1025C000C0910805EC2EF12C0E94FC39282FC70180
:1025D0008C549F4F68E671E00E9432398E199F0932
:1025E00097FD0396959587959595879523706C2F04
:1025F000289F600D11247D2D8D2F0E94C00C462F29
:10260000282F672FC801DF91CF911F910F91FF9065
:10261000EF90DF900C949D0DDF91CF911F910F9162
:10262000FF90EF90DF900895DF92EF92FF920F936B
:102630001F93CF93DF938C01FC01C281C11125C090
:1026400060910B0520E1620F08F46FEF80910C059B
:1026500090910D050E9492096AE070E00E941E3977
:10266000892B51F40E94FC396EE670E00E943239E9
:10267000F80161810E94CE128C2FDF91CF911F91C2
:102680000F91FF90EF90DF900895C08186E1C89F81
:10269000C02D112486E1D82EDC0E8D2DFEE6FD1511
:1026A00008F48EE6D0E0E82EF12CCE15DF0534F0EC
:1026B000C1E0FDE6FD1500F7C0E0DECFF801618165
:1026C000CE010E94CE122196F0CF1F93CF93DF93BD
:1026D000EC01FC01E05CFD4F80816823A1F00E94C9
:1026E000FC39182F0E94FC39612F782F80910A0540
:1026F0000E94C00C462F282F672FCE01DF91CF916B
:102700001F910C949D0DDF91CF911F910895DF9241
:10271000EF92FF920F931F93CF93DF938C01FC01F5
:10272000C281C11125C060910B0520E1620F08F440
:102730006FEF80910C0590910D050E94920965E064
:1027400070E00E941E39892B51F40E94FC396EE61C
:1027500070E00E943239F80161810E9465138C2F6C
:10276000DF91CF911F910F91FF90EF90DF9008952F
:10277000C08186E1C89FC02D112486E1D82EDC0ED1
:102780008D2DFEE6FD1508F48EE6D0E0E82EF12C46
:10279000CE15DF0534F0C1E0FDE6FD1500F7C0E021
:1027A000DECFF8016181CE010E9465132196F0CF42
:1027B000E0911F03F091200309942F923F924F92D2
:1027C0005F926F927F928F929F92AF92BF92CF92C1
:1027D000DF92EF92FF920F931F93CF93DF93CDB7CA
:1027E000DEB729970FB6F894DEBF0FBECDBF6C01E0
:1027F000DC010C9186E1089F002D1124B6E1B00F99
:10280000B9874B2EB13610F020E6422EF6018281B8
:10281000882361F040E060E080E00E94D813EFE997
:10282000F3E080E6DF011D928A95E9F7F6018081E9
:10283000811115C080910104909102040E948F2C97
:1028400021E08931910508F420E0209300044997A4
:1028500030F00E94772C909302048093010410E0E2
:10286000512C9E012F5F3F4F590104151505F4F0BF
:1028700081E0B985B03608F080E029960FB6F8946B
:10288000DEBF0FBECDBFDF91CF911F910F91FF90A3
:10289000EF90DF90CF90BF90AF909F908F907F9000
:1028A0006F905F904F903F902F900895C80166E021
:1028B00070E00E9432394B013C0194E0660C771CB9
:1028C0009A95E1F7F301E156FC4FE60FF71F3080D0
:1028D000A5010E94790D282E75018E2D8A19821569
:1028E00098F080910004882361F0232D31E0231BB0
:1028F00008F420E0C30181569C4F880E991ED40134
:102900002C930F5F1F4FB1CFD701EC91F0E0E05C4B
:10291000FD4F8081F6019181892321F1232D35E539
:10292000231B08F420E06AEA621B709109052AEA79
:10293000332D230F08F42FEF30910A05822F880FD3
:10294000820F8E5F282F239F212D1124822F0E941A
:10295000C00C462FD7019C91282F672F892F90E01C
:102960000E949D0DBFEFEB1AFB0AB7CF6F927F92CB
:102970008F929F92AF92BF92CF92DF92EF92FF928F
:102980000F931F93CF93DF93CDB7DEB728970FB682
:10299000F894DEBF0FBECDBFDC0112968C91882368
:1029A00071F040E060E080E00E94D813EFE9F3E0CE
:1029B00080E6DF011D928A95E9F7109271038FE995
:1029C000C82E83E0D82E00E077247A9490EDA92ECB
:1029D000B12C20EC622E3FE2832E912C760110E088
:1029E00080917103812B09F072C00E94FC398535FA
:1029F00095400CF06CC0F6017082AE014F5F5F4FE6
:102A0000602F812F0E94790D8823B1F0F70120817A
:102A1000E981F0E0213D08F462C0205D330B629E45
:102A2000C001639E900D1124B4010E941E39262F0F
:102A30004FEFCF010E949D0D1F5FF0E1EF0EF11CE3
:102A4000163071F60F5F2FEFC21AD20A003131F63D
:102A5000809171038F5F8D3108F44BC01092710328
:102A60004FED53E025E00FEA13E03EEFFA018FE966
:102A700093E0253039F4DC01A05BBF4F6C916F3FD0
:102A800009F43C9360816F3F11F43083608B0196B1
:102A900031960817190769F7215040515109211142
:102AA000E5CF80E028960FB6F894DEBF0FBECDBF0D
:102AB000DF91CF911F910F91FF90EF90DF90CF901A
:102AC000BF90AF909F908F907F906F900895D701A7
:102AD0008C9181508E3F08F090CF8C938ECF279DA4
:102AE000C0011124B5010E941E39462F20E060E08C
:102AF000A0CF80937103D5CFAF92BF92CF92DF92D8
:102B0000EF92FF920F931F93CF93DF93CDB7DEB772
:102B100028970FB6F894DEBF0FBECDBF8B01FB0127
:102B20008281D12C882341F0AE014F5F5F4F6081DD
:102B300081810E94790DD82EC0907203ED2CF12C6A
:102B4000C7018C0D911D099764F188E090E05C014C
:102B5000AE18BF08B7016D587C4FA50183E793E01D
:102B60000E940C3AB70165587C4FA5018BE793E0B2
:102B70000E940C3AA501440F551FB701660F771F3D
:102B800065577C4F8BE893E00E940C3AB7016D5774
:102B90007C4FA50183E893E00E940C3ACA94C0924E
:102BA0007203F0907203DE01119640E0842F8F0DC6
:102BB000D4121CC080937203809107058C7F8436E9
:102BC00019F4C8010E94C20C81E028960FB6F8944F
:102BD000DEBF0FBECDBFDF91CF911F910F91FF9050
:102BE000EF90DF90CF90BF90AF9008955D91252F2B
:102BF00030E090E0BC016E587C4FF901EE0FFF1FF2
:102C0000EC59FE4FE080FB01E182220F331FF901F6
:102C1000EB59FE4F2081FB012187518B880F991FB3
:102C2000FC01EE58FC4F128E118E4F5FBFCF0895FE
:102C30000E9417160C94CA0308950895CF93DF934A
:102C4000FC01C08186E1C89FC02D1124DAEEDC0FA3
:102C5000CF3608F0CEE66C2F8D2F0E941C166C2FFD
:102C60008D2FDF91CF910C941D164F925F926F9232
:102C70007F928F929F92AF92BF92CF92DF92EF920C
:102C8000FF92CF9360919B0370919C0380919D0371
:102C900090919E030E949E2C6B017C010E94832CCC
:102CA0004B015C0180929B0390929C03A0929D0338
:102CB000B0929E03A0917203E2E7F3E08A2F90E0C6
:102CC0004FEF5FEF60E070E04C195D096E097F091E
:102CD000A9132AC0809372038091FF03C0E0811181
:102CE00008C080910705C82FC37019F0C82FC6957A
:102CF000C6958091AE02813009F440C0882339F135
:102D0000823009F445C1833009F44DC1CF91FF9061
:102D1000EF90DF90CF90BF90AF909F908F907F907B
:102D20006F905F904F900895218D328D2901712C05
:102D3000612C441555056605770520F481509F5F89
:102D40003296C6CF2C0D3D1D328F218FF8CF1092B9
:102D5000AF0280920C0590920D05A0920E05B092E4
:102D60000F0589E2E2E7F3E0A0E1B5E001900D9202
:102D70008A95E1F781E08093AE02C8CF8091B202DC
:102D8000C81316C09091070593702091B30230E0EC
:102D900081E09217130609F480E081708093B102FC
:102DA000C73278F4EC2FF0E0E557F54C0C94653918
:102DB00081E0F3CF882359F040E060E080E00E949A
:102DC000D81380E004C08FEA92E00E942311909112
:102DD000AF029F5F9093AF028111D6C082E08093D3
:102DE000AE028091B1028111CFC0CC2309F4D9C0C9
:102DF0000E9418168FEA92E0CF91FF90EF90DF903B
:102E0000CF90BF90AF909F908F907F906F905F908A
:102E10004F900C941E168FEA92E00E946511D7CF56
:102E20008FEA92E00E94BF11D2CF8FEA92E00E9417
:102E30001212CDCF8FEA92E00E946F12C8CF8FEAB4
:102E400092E00E94F40EC3CF8FEA92E00E94F80E47
:102E5000BECF8FEA92E00E94950EB9CF8FEA92E042
:102E60000E94990EB4CF8FEA92E00E94240EAFCF59
:102E70008FEA92E00E94280EAACF8FEA92E00E9489
:102E8000FC0EA5CF8FEA92E00E94000FA0CF8FEA40
:102E900092E00E94040F9BCF8FEA92E00E94080FFD
:102EA00096CF8FEA92E00E942C0E91CF8FEA92E0AB
:102EB0000E949D0E8CCF8FEA92E00E94A10E87CFD8
:102EC0008FEA92E00E94300E82CF8FEA92E00E9459
:102ED000730F7DCF8FEA92E00E94770F78CF8FEA51
:102EE00092E00E947B0F73CF8FEA92E00E9414134E
:102EF0006ECF8FEA92E00E94871369CF8FEA92E04B
:102F00000E94DD1364CF8FEA92E00E94B6145FCF77
:102F10008FEA92E00E94F50F5ACF8FEA92E00E946A
:102F2000F90F55CF8FEA92E00E94C91050CF8FEA77
:102F300092E00E94D5104BCF8FEA92E00E94DB1006
:102F400046CF8FEA92E00E94E71041CF8FEA92E0ED
:102F50000E94ED103CCF8FEA92E00E94F91037CF2B
:102F60008FEA92E00E94FF1032CF8FEA92E00E9437
:102F70000B112DCF8FEA92E00E94111128CF8FEA1A
:102F800092E00E941D1123CFCC2309F4BFCE30CF95
:102F9000C093B2028091070583708093B3020E94B0
:102FA000980D83E0E8CE60910C0570910D0580913D
:102FB0000E0590910F050E949E2C603171058105D0
:102FC000910508F4A3CE1092AE02A0CEE0911B03AF
:102FD000F0911C030995109210058FEF9FEF9093CD
:102FE0002A058093290590932C0580932B059093B7
:102FF0002E0580932D059093300580932F05909397
:103000003205809331059093340580933305909376
:1030100036058093350590933805809337051092D7
:10302000720390938C0380938B0390938E03809311
:103030008D039093900380938F03909392038093DA
:1030400091039093940380939303909396038093BA
:103050009503909398038093970390939A0380939A
:1030600099030E948F2A811104C00E94332B0E9471
:10307000660D0E94560D809107058C7F11F40C940B
:10308000660D0895CF93C82F882329F040E060E0B3
:1030900080E00E94D813C093FF03CF9108959091D0
:1030A000070521E09227909307051092AE02811147
:1030B0000C945E0D089581E00C944F1880910705E3
:1030C000837011F41092AE02809107058C7F8160AD
:1030D00080930705089580910705837011F0109281
:1030E000AE02809107058C7F80930705089590912B
:1030F0000705937099F0811109C0946090930705BA
:103100001092AE02662351F00C945E0D873210F0DF
:103110009869F4CF880F880F982BF0CF089560E05E
:103120000C94771861E00C947718809107058695C8
:1031300086950895682F909107059695969581E05C
:10314000890F873208F081E00C94771881E00C94A5
:103150009A18682F90910705969596958FEF890F8D
:1031600009F486E20C94771881E00C94A9189091E8
:103170000705937061F08093080560930905453653
:1031800008F044E640930A0521110C945E0D089561
:1031900020E00C94B71880910805089580910905E6
:1031A000089580910A050895A7E0B5E01196EC9185
:1031B0001197F0E0282F13964C91139712966C916B
:1031C000CF0108960C94B71881E00C94D418E7E06E
:1031D000F5E09181282F43816281E92FE850FF0BB0
:1031E000CF010C94B71881E00C94E718E7E0F5E004
:1031F000628120E1620F08F46FEF9181282F4381F3
:10320000892F90E00C94B71881E00C94F618E7E051
:10321000F5E0628120E1621B08F460E09181282FD3
:103220004381892F90E00C94B71881E00C94071922
:10323000E7E0F5E0438120E1420F08F44FEF918190
:10324000282F6281892F90E00C94B71881E00C94AC
:103250001819E7E0F5E0438120E1421B08F440E063
:103260009181282F6281892F90E00C94B71881E01A
:103270000C94291980930B05089580910B050895EE
:1032800020910B0530E1230F08F42FEF20930B055D
:1032900081110C945E0D089581E00C9440192091E9
:1032A0000B0530E1231B08F420E020930B0581116E
:1032B0000C945E0D089581E00C944F190895FC0163
:1032C000EE0FFF1FE80FF91FE75CFA4F61834083A1
:1032D00022830895E9E3F5E0818360834283339696
:1032E00096E0E338F907C1F708956EE670E089E3E8
:1032F00095E00C94DE19FA01811101C0FB010994DB
:103300000F931F93CF938C01FB01C281CC2309F44F
:1033100053C00E94DA298272F801E35CFC45E43173
:10332000F10538F4EE54F54C0C9465390E945B18A5
:10333000C0E08C2FCF911F910F91089544EB58E17D
:1033400066EA78E10E947B19F3CF46EA58E164EB24
:1033500078E1F8CF43EF58E164EE78E1F3CF44EE43
:1033600058E163EF78E1EECF45E159E164E079E1BE
:10337000E9CF44E059E165E179E1E4CF47E359E180
:1033800066E279E1DFCF46E259E167E379E1DACF3E
:103390004BE559E16CE479E1D5CF4CE459E16BE5BB
:1033A00079E1D0CF81E00E949218C2CF85E0FBCFB7
:1033B0008DE0F9CF82E1F7CFC1E0BBCF579A4BB197
:1033C0004F775BB15068EFB7F8949B01220F331F22
:1033D000260F371F280F391F2817390741F4EFBF71
:1033E0008FE594E00197F1F700C000000895DC013B
:1033F0006D91CD0178E05BB9000000C067FF4BB96B
:10340000660F000000C000C000C04BB900C07A9534
:1034100091F7E2CF82E290E00E94253A813289F46E
:1034200083E290E00E94253A813059F484E290E0F2
:103430000E94253A91E0893209F090E0892F81704D
:10344000089580E0FCCFCF93C82F6FEF811161E228
:1034500082E290E00E94433A6FEFC11161E083E2A3
:1034600090E00E94433A6FEFC11169E284E290E07C
:10347000CF910C94433A80E00E94231A0C94892A3D
:10348000089585E290E00E94253A682F70E090E070
:1034900080E0089585E290E00C94433A0E94401A3F
:1034A0000E940A1A81110CC060E070E0CB010E94FA
:1034B0004A1A0E94071C0E94F31C81E00C94231AF4
:1034C0000895CF93FB01C281CC2309F19C012251C5
:1034D0003F452031310520F582510E94031DC0E097
:1034E0008C2FCF91089581E00E94562843E062E03E
:1034F00081E00E944505F3CF81E00E94772843E0F8
:1035000062E081E00E944505EBCF82E0F6CF80319A
:10351000FFE59F0789F381319F45B9F3C1E0E0CF13
:103520008031EFE59E07F9F281319F45C9F682E0CF
:10353000DBCF2FEFFC0120830895CF93DF93EC01C5
:1035400088818138A9F028F4803871F0DF91CF911B
:103550000895823881F08338C9F70E94CB18898397
:103560000E94CE188A83F2CF0E94D1188983EECFB1
:103570000E949518FBCF0E943D19F8CFCF93DF939F
:10358000EC0188818138F1F028F4803871F0DF9106
:10359000CF910895823821F18338C9F70E94D1185C
:1035A0009981482F6A81892F08C0D9810E94CE183D
:1035B000C82F0E94CB184D2F6C2F90E0DF91CF9138
:1035C0000C94C81889810E948F188981811104C0C8
:1035D000DF91CF910C946B18DF91CF910C945E1812
:1035E0008981DF91CF910C943A19EF92FF920F935A
:1035F0001F93CF93DF93EC01062FDC01ED91CD01FA
:10360000E150E33108F0BFC0F0E0EA53F54C0C9410
:103610006539198289E08A83602FCE01DF91CF91CD
:103620001F910F91FF90EF900C945132898182305D
:1036300069F0833071F08130D9F40E94832C0E94AC
:103640006B396A837B838C839D83E6CF0E94411A0A
:10365000F6CF7E0110E0812F0E94D507F7019283FB
:1036600083831F5FF2E0EF0EF11C1630A1F7D4CF79
:10367000602FCE010E94991ACFCF89818230C1F785
:103680006A817B818C819D810E946B390E944A1ADC
:10369000C3CF4B816A8189810E94D91B98278927D2
:1036A00098279D838C83B8CF2C813D813227232797
:1036B00032274B816A8189810E94F21BADCF0E9423
:1036C000071CAACF0E94BE1AA7CF0E949D1AA4CFA2
:1036D0000E945E0DA1CF0E949C1C89839DCF0E94F9
:1036E0009E1C9827892798279A83898395CF6B8179
:1036F00070E089819A81AE014C5F5F4F98278927DE
:1037000098270E94A11C88CF6B8170E089819A81E3
:10371000AE014C5F5F4F9827892798270E94C81CED
:103720007BCF0E94F31C78CF0E94C61BD6CF6B8143
:1037300070E089819A81AE014C5F5F4F982789279D
:1037400098270E943F1C68CF6B8170E089819A8125
:10375000AE014C5F5F4F9827892798270E94651C10
:103760005BCF0E943B1A58CFCE010E9451322FEFFF
:1037700081EE94E0215080409040E1F700C00000CD
:103780000E94DE2C49CF8FEF888346CF84E00895D6
:1037900090E2699FB001112450E0440F551F640F5F
:1037A000751F90EC899F600D711D1124CB018696C9
:1037B00008950F931F93CF93DF930E94C81B8C0132
:1037C0000E94253AC82FD0E0DC2FCC27C8010196F3
:1037D0000E94253A9E01282BC901DF91CF911F91AC
:1037E0000F9108950F931F93CF93DF93122F032F01
:1037F0000E94C81BEC01602F0E94433A612FCE014A
:103800000196DF91CF911F910F910C94433AAF92A3
:10381000BF92CF92DF92EF92FF921F93CF93DF93ED
:1038200088E9C82E80E0D82ED0E07601C0E014C030
:10383000F50125913491412F6C2F8D2F0E94F21BA1
:1038400082E0A80EB11C1F5F103191F780E2E80EF4
:10385000F11CCF5FC63019F0570110E0E9CFDF5FF0
:1038600080ECC80ED11CD43001F7DF91CF911F91AD
:10387000FF90EF90DF90CF90BF90AF900895EF92C0
:10388000FF920F931F93CF93DF93EC018A017C018A
:10389000E60EF71ECE018696CE15DF0539F4DF91D0
:1038A000CF911F910F91FF90EF900895C11523E0E4
:1038B000D20740F40E94253AF80180830F5F1F4F22
:1038C0002196E8CFF8011082F9CFCF92DF92EF92E4
:1038D000FF920F931F93CF93DF937C016A018C01BA
:1038E000060F171FEC01CE018696C017D10749F4C9
:1038F000DF91CF911F910F91FF90EF90DF90CF90CC
:103900000895C11523E0D20740F4FE01EE19FF0926
:10391000EC0DFD1D60810E94433A2196E4CF462FB5
:10392000843038F4763028F4603118F4672F0C9422
:10393000D91B90E080E0089580E108958AED94E03D
:103940000895EF92FF920F931F93CF93DF93EC01B3
:103950008A017C01E60EF71ECE018A5D9C4FCE15D2
:10396000DF0539F4DF91CF911F910F91FF90EF9018
:103970000895CA3D24E0D20740F40E94253AF80198
:1039800080830F5F1F4F2196E7CFF8011082F9CF98
:10399000CF92DF92EF92FF920F931F93CF93DF931B
:1039A0007C016A018C01060F171FEC01CE018A5DB4
:1039B0009C4FC017D10749F4DF91CF911F910F9110
:1039C000FF90EF90DF90CF900895CA3D24E0D2079A
:1039D00040F4FE01EE19FF09EC0DFD1D60810E940F
:1039E000433A2196E3CFCF93DF93C6E2D3E060E082
:1039F000CE010E94433A2196C11588E0D807B9F755
:103A0000DF91CF910895DF92EF92FF920F931F9372
:103A1000CF93DF9300D000D0CDB7DEB7F82E8FE084
:103A20008F1540F08FEF97E00E94253A06E213E0F1
:103A30008823C1F00F900F900F900F90DF91CF91DE
:103A40001F910F91FF90EF90DF900895011588E08E
:103A5000180781F3C8010E94253A811101C0FA9428
:103A60000F5F1F4FF110F2CF19821A821B821C8246
:103A7000DD24D39478018FEFE81AF80AC8010E9478
:103A8000253A89831A828823A9F29FEF980F9330F1
:103A900078F48A83D9820E5F1F4FC7010E94253AAE
:103AA0008B83882339F2CE0101960E94EE04E2CF87
:103AB0008701F9CF0F931F93CF93DF93C42FD22F9A
:103AC000FC0182818823C9F0409305040E94772C71
:103AD000909304048093030480E28C0F883008F0F4
:103AE00050C0C77081E001C0880FCA95EAF7DF9126
:103AF000CF911F910F910C94E021109105041413A4
:103B000035C080910304909104040E948F2C883C5E
:103B1000910560F5C0E2CD0F1D17B9F080E2810F6D
:103B2000883040F4177081E001C0880F1A95EAF7D9
:103B30000E94E721C83048F481E09D2F977001C0B2
:103B4000880F9A95EAF70E94E021802F0E94CD21EC
:103B5000C830B8F4D77081E001C0880FDA95EAF771
:103B6000DF91CF911F910F910C94E72180E28C0F90
:103B7000883038F4C77081E001C0880FCA95EAF731
:103B8000EFCFDF91CF911F910F9108950F939C017B
:103B9000CB01243F4CE5340759F1A8F4293DFCE55D
:103BA0003F0701F12A3D4CE53407D1F1283D3C4562
:103BB00091F406E221EE41EE68ED7CE50E945A1D8B
:103BC00080E00F910895263FFCE53F07E9F0B0F053
:103BD000273F3C45F9F0FC018281882339F110929E
:103BE0000504EFCF07E225EE45EE69ED7CE5E6CF73
:103BF00006E221EE40EE64EF7CE5E0CF07E225EE41
:103C000044EE65EF7CE5DACF06E221EE42EE66EFA8
:103C10007CE5D4CF07E225EE46EE67EF7CE5CECF1C
:103C200008E221E045EE6AED7CE5C8CF81E0C9CF2E
:103C3000CF93DF93EC01FB018281882309F419C142
:103C4000C230FCE5DF07C0F1C6319CE5D90730F092
:103C50009E012B5F3C452930310570F50E94A22A58
:103C60009093880680938706C031ECE5DE0709F45F
:103C7000CFC008F05BC0C8308CE5D80709F4B6C0E7
:103C800088F5C430ECE5DE0709F4A8C0C0F4C23002
:103C90008CE5D80709F49CC0809187068260C33008
:103CA000DC4509F498C080918706909188060E94AF
:103CB000B02A0E945C2480E0DF91CF91089580912A
:103CC00087068061C630ECE5DE0709F484C0809188
:103CD00087068860C730DC4508F47DC08091870680
:103CE000806279C0CC308CE5D80709F489C070F4C3
:103CF000809187068C60CA30ECE5DE0709F46BC062
:103D000008F478C0809187068E7F65C0CE308CE540
:103D1000D80709F479C0809187068B7FCF30DC45C6
:103D200008F459C0809187068F7E55C0CC3FECE5E2
:103D3000DE0709F457C030F5C3318CE5D80709F424
:103D40006FC078F4C131ECE5DE0709F465C0C2311B
:103D5000DC4509F0A8CF0E945C24809187068F770C
:103D60003AC0C5318CE5D80709F462C008F476C0C2
:103D7000809188068160CB3FDC4509F094CF809329
:103D8000880691CFC115FDE5DF0709F44DC088F421
:103D9000809188068D7FCE3F9CE5D90781F3809185
:103DA00088068E7FCF3FDC4550F380918806836084
:103DB000E6CFC230FDE5DF0709F459C008F444C07E
:103DC00080E0C330DD4509F06ECF0E94352B6BCF0C
:103DD0008091870681608093870665CF80918706F2
:103DE0008460F9CF809188068260C9CF8091870670
:103DF0008064F1CF0E945C24809187068068EBCFBD
:103E0000809187068D7FE7CF80918706877FE3CFFC
:103E1000809187068F7DDFCF809187068F7BDBCFF8
:103E200080918706837FD7CF809188068C7FA7CF2C
:103E30008091870682FB992790F921E0922790FBD9
:103E400082F990FB83F9C7CF80918806982F9095CF
:103E500091708E7F892B90FB81F991CF0E945C2419
:103E600090918706892F97FB87F98058B4CF81E01E
:103E7000ACCF81E021CFCF93DF93EB0186319C451E
:103E800011F50E94DA299A81992399F08A7A91E0B2
:103E900009F490E090930604811109C089E20E9420
:103EA000B5290E94262A80E0DF91CF91089585E30D
:103EB000F6CF80910604811104C089E20E94BC29DA
:103EC000F0CF85E3FBCF81E0EFCF90930C0480939C
:103ED0000B040895E0910B04F0910C04309721F04D
:103EE0000190F081E02D099480E00895E0910B04A9
:103EF000F0910C04309711F480E008950190F08166
:103F0000E02D09950895E0910B04F0910C04309791
:103F100099F02091C802222359F02091870627FFAB
:103F200007C0DC012C9111962C93119725E02C935E
:103F30000280F381E02D09940895E0910B04F09143
:103F40000C04309739F022E0DC012C930480F581D9
:103F5000E02D099408952091090430910A0428174E
:103F6000390771F090930A0480930904E0910B04DF
:103F7000F0910C04309721F00680F781E02D099430
:103F8000089520910704309108042817390771F02B
:103F90009093080480930704E0910B04F0910C04C3
:103FA000309721F00084F185E02D0994089585B7BC
:103FB000806885BF85B7806885BF08950895089596
:103FC0000C94DE1F08950C94E21F0E94D71F0E94DC
:103FD000DF1F0C94E01F81E008950C94EB1F0895FF
:103FE00008950E946E2C0E94FA070E944E1A0E94A9
:103FF000182D0C94E31F7F928F929F92AF92BF92E5
:10400000CF92DF92EF92FF920F931F93CF93DF93A4
:10401000CDB7DEB72A970FB6F894DEBF0FBECDBF7F
:104020000E94EF1F0E94F01F0E942A080E94ED1FAD
:10403000882309F471C04EE0A42E44E0B42E10E0B1
:1040400000E0702E802F0E94D5076C01F501819051
:1040500091905F018816990609F458C08091BC04BC
:1040600081FD0E94DE0780E0EE24E394F12C8C2495
:104070009D2494012E213F21232B09F441C08E83DE
:104080007F82CE20DF2081E0CD2809F480E0888780
:104090000E94772C8160782F9A8789874E815F8173
:1040A00068858A850E94B120000F111FF801E25F28
:1040B000FB4F80819181E826F926F182E0820E94FF
:1040C000C32E0E946A1F90910D048917B1F10E94BE
:1040D0006A1F80930D042A960FB6F894DEBF0FBEB8
:1040E000CDBFDF91CF911F910F91FF90EF90DF90A7
:1040F000CF90BF90AF909F908F907F900C94CC0505
:104100008F5FEE0CFF1C803109F0B3CF0F5F1F4FA4
:104110000630110509F095CF8FEF89838A831B82C2
:104120000E94772C8160782F9D838C8349815A81EE
:104130006B818D810E94B120C2CF2A960FB6F89470
:10414000DEBF0FBECDBFDF91CF911F910F91FF90CA
:10415000EF90DF90CF90BF90AF909F908F907F9027
:104160000895CF93DF93CDB7DEB72B970FB6F894B2
:10417000DEBF0FBECDBF4F83588769877A878B8795
:104180001E821D8285E0FE013796DE0111960190A8
:104190000D928A95E1F749815A816B817C818D81ED
:1041A0009E812B960FB6F894DEBF0FBECDBFDF9178
:1041B000CF910C94D226FC01808191810C948729A7
:1041C000CF93C82F882309F490C08238C1F40E948D
:1041D0006A1F81FD8AC089E30E94B5290E94262AB0
:1041E0002FEF81EE94E0215080409040E1F700C035
:1041F000000089E30E94BC29CF910C94262A8338C1
:10420000A1F40E946A1F80FD70C083E50E94B52959
:104210000E94262A2FEF81EE94E0215080409040AA
:10422000E1F700C0000083E5E5CF8438A1F40E94E7
:104230006A1F82FD5AC087E40E94B5290E94262A7F
:104240002FEF81EE94E0215080409040E1F700C0D4
:10425000000087E4CFCF8CEF8C0F813AB8F48C2F1D
:104260000E942A31811141C06C2F8091B40290913B
:10427000B5020E944E2B882329F08C2F0E94BC2966
:104280000E94262A8C2F0E94B529B6CF80E28C0F7F
:10429000883048F4C77081E001C0880FCA95EAF7FA
:1042A0000E94DD29A9CFEBE5EC0FE33040F4F0E00C
:1042B000EF5AFC4F808190E0CF910C94AB1FE8E562
:1042C000EC0FE73150F4F0E0EE0FFF1FED5DFC4F17
:1042D00080819181CF910C94C11FC03F30F08C2F11
:1042E0000E94BD2DCF910C94A82ECF9108958823C4
:1042F00009F452C0823871F40E946A1F81FF4CC0D9
:1043000089E30E94B5290E94262A89E30E94BC29DC
:104310000C94262A833859F40E946A1F80FF3CC0FF
:1043200083E50E94B5290E94262A83E5EFCF8438D1
:1043300059F40E946A1F82FF2FC087E40E94B529AA
:104340000E94262A87E4E2CF9CEF980F913AF0F280
:1043500090E2980F983050F4877091E001C0990F67
:104360008A95EAF7892F0E94E329D2CF9BE5980F1F
:10437000933020F490E080E00C94AB1F98E5980F08
:10438000973120F490E080E00C94C11F803F20F032
:104390000E94252E0C94A82E0895CF93C82F0E941A
:1043A000E020C93349F42FEF87EE93E0215080409D
:1043B0009040E1F700C000008C2FCF910C94772142
:1043C000882321F00E94DD290C94262A0895882351
:1043D00021F00E94E3290C94262A0895BF92CF92DF
:1043E000DF92EF92FF920F931F93CF93DF936C01B5
:1043F000D62FC72FFC01058102950F701281111174
:104400000E94FA290E94D329E82E882391F01123D3
:10441000D1F08C2F807F803421F080E28D0F8830A6
:1044200090F082E00E94712A0E94D32991E0E82E48
:10443000E926BC2EB2949FE0B922EB2DF0E0E752C2
:10444000F54C0C946539E12CF4CF0C2F0F70C07F24
:1044500011F00295007F1123A9F0002359F080E2AA
:104460008D0F883010F0D11109C0802F0E94DD29F6
:104470000E94262A8D2F0E94E02014C0802F0E94C7
:10448000ED29F6CF8D2F0E947721002359F080E28D
:104490008D0F883010F0D1112CC0802F0E94E3299D
:1044A0000E94262A2B2D2850330B2430310520F46E
:1044B0000E946A1F0E94CC05EE2009F49EC10E9452
:1044C000CF2980FD9AC1F60112820E94C9290E945B
:1044D0005628C6010E941E240E94C929DF91CF914F
:1044E0001F910F91FF90EF90DF90CF90BF900C94B1
:1044F0007728802F0E94F329D3CFFC2FFF70FF2E47
:10450000C07FC03219F0F29480EFF822DD2369F009
:10451000D13049F1112391F1002351F1F601858148
:1045200080FFA8CF8F70858323C0112381F00111F4
:1045300006C00E940D2A8F290E94E021B3CF0130CE
:10454000C1F70E940D2A8F290E94132AABCF0111B7
:1045500006C00E941C2A8F2D0E94E721A3CF0130A4
:1045600009F4A0CFF6CF112329F0063008F09ACF36
:104570008F2DE2CF053008F095CFEDCF002359F312
:10458000D93349F4FFEF27EE33E0F15020403040BB
:10459000E1F700C000008D2F0E94772183CF8C2F80
:1045A00086958695837069F0813009F07BCF8D2FD9
:1045B0009C2F9370111102C090E080E00E94C11FF7
:1045C00071CF8D2F9C2F9370111102C090E080E06D
:1045D0000E94AB1F67CF8D2F112329F00E94BD2DA4
:1045E0000E94A82E5FCF0E94252EFACF8C2F8370B9
:1045F00009F041C0111156CF4D2F42954695477095
:10460000440F440F0D2F0F7010E030E020E0042E17
:1046100004C0000F111F221F331F0A94D2F760E05D
:1046200070E0CB01D4FF0FC06FE070E080E090E05D
:1046300004C0660F771F881F991F4A95D2F76095AF
:10464000709580959095C695C695C370602B712B1B
:10465000822B932BC23049F058F4C13019F00E94DC
:10466000082820CF0E94F6271DCF0E941A281ACFB3
:104670000E94F42717CF8695112311F08C2F81709B
:10468000882309F40FCF4D2F429546954770440F6C
:10469000440F0D2F0F7010E030E020E0042E04C016
:1046A000000F111F221F331F0A94D2F760E070E041
:1046B000CB01D4FF0FC06FE070E080E090E004C059
:1046C000660F771F881F991F4A95D2F760957095DE
:1046D00080959095C695C695C370602B712B822BE3
:1046E000932BC23049F058F4C13019F00E94CD2804
:1046F000D9CE0E94BB28D6CE0E94DF28D3CE0E94FE
:104700003028D0CECF70112329F08C2F0E9456284C
:104710008D2F12CF8D2F0E94E7218C2F0E9477289A
:10472000C1CED23F89F160F4D03FC9F0D13F29F129
:10473000112309F442C001119DCE8C2F8F7121C02D
:10474000D33F39F1D43FA1F7112369F1CF718C2FF9
:104750000E94562863E08C2F0E945C2AA3CE11236E
:1047600041F0053008F09ECE8C2F8F710E949A2860
:1047700099CE063008F096CEF7CF8C2F8F7111238B
:1047800069F20E9456288ECE8C2F8F711123C9F3A7
:10479000C5CF112329F08C2F8F710E94412882CE22
:1047A0000E943C287FCE81E00E94712A023008F4EA
:1047B00079CE82E00E94712A75CE002359F0D93358
:1047C00009F0E9CE8FEF97EEE3E081509040E040B2
:1047D000E1F7DFCE8C2F8F71A1CF4C2F4F706D2F53
:1047E000C6010E94D4050E946C275CCE4C2F4F70EE
:1047F0006D2FC6010E94D70555CEDF91CF911F9135
:104800000F91FF90EF90DF90CF90BF9008950F939E
:104810001F93CF93DF93EC01688179818A810E9495
:1048200091298C010E94F1280E94F327B801CE0142
:10483000DF91CF911F910F910C94EE21CF93DF93D5
:10484000EC018B819C81892B29F0888199818923B6
:104850008F3F59F4DF91CF910895CE010E94072434
:10486000CE01DF91CF910C942F04CE010E947705E9
:104870008111F3CF0E94D329882361F38A81882391
:1048800049F382E0DF91CF910C94712A0E94FA29BA
:104890000E940A2A0E94262A0E94CF2F0E94A82E38
:1048A00090E080E00E94AB1F90E080E00C94C11F7C
:1048B0000E94C3290C9446240E94EA290C9458248F
:1048C000E92FE295EF70E250EE3070F4F0E0E7513E
:1048D000F54C0C946539803F19F020F4883E20F4A3
:1048E00081E00895843FE1F380E00895883EC0F3BD
:1048F000813FD1F7F5CF93FB882780F908950E9477
:1049000087290C946024CF93DF9300D000D00F92BE
:10491000CDB7DEB70F900F900F900F900F90DF91F3
:10492000CF910895CF93DF9300D000D000D0CDB7C2
:10493000DEB726960FB6F894DEBF0FBECDBFDF916F
:10494000CF9108951F93CF93DF93C0911B0416E07E
:1049500080911C048C1304C0DF91CF911F910895A6
:10496000D0E01C9FF0011D9FF00D1124E35EFB4F72
:104970004081518162817381848195810E9492245A
:104980002196C770E5CF40914D0450914E0460913F
:104990004F047091500480915104909152040C94F2
:1049A00092241F93CF93DF9380915204807FA9F4C8
:1049B00080914F04882389F080911B04C0911C04CE
:1049C00060914D0470914E04A0915004B091510437
:1049D000D62FD72316E0C81304C0DF91CF911F91C3
:1049E000089590E0109711F0DF3F19F40196877059
:1049F000F2CF189F9001199F300D1124F901E35E49
:104A0000FB4F41814713F2CF40814613EFCF4281E4
:104A10004111ECCF438154814A1B5B0B483C51054B
:104A200028F7809152048F70806180935204F901BD
:104A3000EE5DFB4F80818F70806180838DE494E018
:104A40000E941E24DF91CF911F910C94A224AF925B
:104A5000BF92CF92DF92EF92FF920F931F93CF936B
:104A6000DF93CDB7DEB761970FB6F894DEBF0FBE08
:104A7000CDBF8C0185E0F801DE011D9601900D92FD
:104A80008A95E1F7F80140815181E2808DE4C82EDA
:104A900084E0D82E60915004709151046115710525
:104AA00009F461C190914D0420914E04892F822315
:104AB0008F3F09F458C1A380B480F0904F04F501F2
:104AC000E61BF70BFF2009F4FCC080915204382F3D
:104AD000307FE83CF10508F0B2C0311179C0FE2CFE
:104AE000251323C0941321C0E1101FC08F70806173
:104AF000809352040E94C324C6010E941E24809108
:104B00005204F80185838F2D61960FB6F894DEBFAD
:104B10000FBECDBFDF91CF911F910F91FF90EF900E
:104B2000DF90CF90BF90AF900895AB2829F0842FED
:104B300085238F3F09F033C180E0F82FF170DF2E1D
:104B400080FF3CC080911B0420911C0436E082133E
:104B500015C04D875E878D859E850E948729292FE8
:104B600022952F702230F0F0243018F59F70F1F06C
:104B7000F8019581907FD1F4D12C1EC090E0389F30
:104B8000F001399FF00D1124E35EFB4F6181651345
:104B900006C06081641303C062816E110FC001966C
:104BA0008770D5CF9F7011F0882331F3805E8830F5
:104BB00018F3C8010E941E24FD2CA5CFEE2009F495
:104BC000A2CF80915204816080935204F12C9BCF3C
:104BD000251306C0941304C0F801EE2009F48DC01B
:104BE0004D875E878D859E850E947F24882319F1DD
:104BF000EE2009F180915204803270F020914D0432
:104C000030914E0438872F831986BB86AA868C87FD
:104C1000CE0107960E941E2486E0F801ADE4B4E0C0
:104C200001900D928A95E1F70E94D1240E94C3243D
:104C3000FF24F39468CFC8010E941E24F9CF3111DC
:104C400013C07A2DB98AA88A6E2D89890E9483247F
:104C50008DE494E00E941E2486E0F60111928A956C
:104C6000E9F70E94C324B2CF25130FC094130DC0DF
:104C7000E1100BC0F8018583C8010E941E2486E064
:104C8000F60111928A95E9F73ECF4D875E878D85B3
:104C90009E850E947F24882371F2EE2061F280912C
:104CA0005204803208F4B8CF20914D0430914E0464
:104CB0003A8329831B82BD82AC828E83CE0101960A
:104CC000A9CFE83CF10508F041C0FE2CEE2009F424
:104CD000B2CF25132AC0941328C08091520480FDBE
:104CE0001BC0982F907FC1F0F8018583903F31F071
:104CF000982F907F905F8F70892B8583C8010E94C9
:104D00001E2486E0F801ADE4B4E001900D928A958E
:104D1000E1F70E94C324F7CE86E0F801ADE4B4E0E9
:104D200001900D928A95E1F7EECE4D875E878D85D5
:104D30009E850E947F2481116FCF809152048160F3
:104D400080935204C8010E941E24DDCE7A2DB98AB8
:104D5000A88A6E2D89890E94832486E0F60111922B
:104D60008A95E9F7D6CFEE2009F465CF4D875E87A7
:104D70008D859E850E947F24F82E882309F45BCFC1
:104D800086E0F801ADE4B4E001900D928A95E1F778
:104D90008DE494E00E94DB200E94D124BACF81E010
:104DA0008E25CBCE1F93CF93DF93CDB7DEB72C9755
:104DB0000FB6F894DEBF0FBECDBF4F83588769870B
:104DC0007A878B879C87CE0107960E9427258823A8
:104DD00069F08A859B85892B39F04F815885842F0E
:104DE00085238F3F09F071C016E05FC086E0FE01A9
:104DF0003796DE01119601900D928A95E1F78A852A
:104E00009B85892B89F388859F8189238F3F61F357
:104E100020911C0430E0C9010196877099274091C8
:104E20001B044817190671F40E945C2410921C049C
:104E300010921B0486E0EDE4F4E0DF011D928A95F8
:104E4000E9F7D2CF96E0929FD001939FB00D112445
:104E5000A35EBB4FFE01319601900D929A95E1F74A
:104E600080931C040E94A224BFCF819FC001112403
:104E7000835E9B4F0E9427258823E9F0E0911B0465
:104E80001E9FF0011124E35EFB4F4081518162813E
:104E90007381848195810E94922480911B0490E00B
:104EA00001968770992780931B0480911B04909131
:104EB0001C048913DACF2C960FB6F894DEBF0FBE10
:104EC000CDBFDF91CF911F91089569857A858B853C
:104ED0009C850E94922488CFEF92FF920F931F939C
:104EE000CF93DF938C01892B81F0F12CEE24E39496
:104EF000E8012196F8018491843770F4843008F039
:104F00005FC08130B1F08230A1F1DF91CF911F916C
:104F10000F91FF90EF900895853709F44CC008F485
:104F20003DC09CE7980F903780F78F770E947721DC
:104F300049C00E5F1F4FFE01849190E2980F983098
:104F400060F48770FE2D01C0FF0F8A95EAF78F2F5E
:104F50000E94FD290E94262A02C00E94E0208F2D77
:104F6000815030F2EFE9FFE03197F1F700C0000027
:104F7000F7CF0E5F1F4FFE01849190E2980F98309B
:104F800050F48770FE2D01C0FF0F8A95EAF78F2F2E
:104F90000E94032ADFCF0E947721E1CF0E5F1F4FCF
:104FA000FE01C491C150D8F28FE99FE00197F1F75B
:104FB00000C00000F7CF0E5F1F4FFE01F490CFCF6F
:104FC0000E94E0208E01CBCF08950C94E4270E942C
:104FD000E5276093930470939404809395049093D1
:104FE00096040C94462408950C94E7270F931F937E
:104FF00000919304109194042091950430919604AB
:10500000602B712B822B932B1F910F910C94E72710
:105010000F931F9300919304109194042091950491
:105020003091960460237123822393231F910F9163
:105030000C94E7270F931F9300919304109194040D
:105040002091950430919604602771278227932739
:105050001F910F910C94E7270C94E4270C942C28B3
:105060000E942E2860938F04709390048093910483
:10507000909392040C94462460E070E0CB010C9471
:1050800030280F931F9341E050E060E070E08A0108
:105090009B0104C0000F111F221F331F8A95D2F7F6
:1050A000C901B8011F910F910C9430280F931F93E1
:1050B00041E050E060E070E004C0440F551F661FFF
:1050C000771F8A95D2F780918F0490919004A091D8
:1050D0009104B09192048A019B01082B192B2A2B71
:1050E0003B2BC901B8011F910F910C9430280F93ED
:1050F0001F9341E050E060E070E004C0440F551F92
:10510000661F771F8A95D2F7CB01BA01609570951B
:105110008095909500918F041091900420919104B6
:105120003091920460237123822393231F910F9166
:105130000C9430280F931F9341E050E060E070E042
:1051400004C0440F551F661F771F8A95D2F78091C0
:105150008F0490919004A0919104B09192048A01DF
:105160009B01082719272A273B27C901B8011F914E
:105170000F910C9430280F931F9300918F0410917E
:1051800090042091910430919204602B712B822B1A
:10519000932B1F910F910C9430280F931F93009124
:1051A0008F04109190042091910430919204602317
:1051B0007123822393231F910F910C9430280F9316
:1051C0001F9300918F0410919004209191043091CD
:1051D000920460277127822793271F910F910C94C7
:1051E000302808959295907F890F982F977041E00D
:1051F00001C0440F9A95EAF786958695869595E0C5
:10520000899FF0011124ED5AFB4F30E020E070E05F
:105210005191DF011197CB01022E02C0969587951F
:105220000A94E2F7817081958527842385278C93E2
:105230002F5F3F4F2530310559F708959295907FA4
:10524000890F982F977086958695869525E0829F81
:10525000F0011124ED5AFB4F50E040E080E0219135
:1052600030E0092E02C0369527950A94E2F72170A6
:105270003327042E01C0220F0A94EAF7822B4F5FD6
:105280005F4F4530510559F70895BF92CF92DF9295
:10529000EF92FF920F931F93CF93DF938C01C090F7
:1052A0008F04D0909004E0909104F090920480914B
:1052B000930490919404A0919504B0919604C82A07
:1052C000D92AEA2AFB2ACFE1D0E0BC2ED701C601B9
:1052D0000C2E04C0B695A795979587950A94D2F79A
:1052E00080FD0EC0219788F7B12C8B2DDF91CF91D7
:1052F0001F910F91FF90EF90DF90CF90BF90089596
:10530000B8018C2F0E94E005019761F3EECFCF9397
:10531000DF93EC010E944529BE01DF91CF910C94EF
:10532000E0051F93CF93DF93EB0190911A0499232B
:1053300031F0CB01DF91CF911F910C948729882305
:1053400079F0CB010E944529182F682FCE010E94C9
:10535000F228BE01812FDF91CF911F910C94E005BF
:10536000CB010E941E29182FF4CF682F8091B40220
:105370009091B5020C94CE2B682F8091B40290913D
:10538000B5020C94D92B8091B4029091B5020C9483
:10539000E42B809197048595859585950895809156
:1053A00097048770089590919704977081E009F4AD
:1053B00080E008958091BB0408959091BB04892BEF
:1053C0008093BB04089580959091BB04982390939B
:1053D000BB0408951092BB0408959091BA04892BE0
:1053E0008093BA04089580959091BA04982390937D
:1053F000BA0408951092BA0408959091B904892BC3
:105400008093B904089580959091B904982390935E
:10541000B90408951092B9040895809198040895EC
:1054200008950C94102A90919804981721F0809375
:1054300098040C94112A089580919804882329F0E7
:105440001092980480E00C94112A0895E091B4021F
:10545000F091B5028091BB048083E091B402F09199
:10546000B50280819091BA04892B8083E091B402C7
:10547000F091B50280819091B904892B808390913D
:105480009804992381F0E091B402F091B5028081F3
:10549000892B80838091B4029091B5020E943A2BAF
:1054A00081110E941C2A8091B4029091B5020C9443
:1054B000831F08950C94592A98E0899F9001112424
:1054C000622B609397040E945628809197048595DB
:1054D000859585950C945A2A1092970480E00C9437
:1054E0005A2A909197048095892380939704282FB6
:1054F000277071F4282F082E000C330B9217130617
:1055000039F08595859585950E9477280C946C2AAD
:1055100008956FEF7FEF90E080E00C94613A90E0A7
:1055200080E00E942D3A21E08C3E9E4F09F020E061
:10553000822F089582E090E00C94253A83E090E079
:105540000C94253ACF9384E090E00E94253AC82F2E
:1055500081E290E00E94253A982F8C2FCF910895F8
:10556000CF93C92F682F84E090E00E94433A6C2FBC
:1055700081E290E0CF910C94433AAB01BC018FE003
:1055800090E00C94553AAB01BC0183E190E00C949F
:10559000553A60E070E0CB010C94C32A60E070E003
:1055A000CB010E94BD2A0C94C92A6CEE7EEF90E0DC
:1055B00080E00E94613A60E082E090E00E94433A1D
:1055C00060E083E090E00E94433A109293041092CE
:1055D0009404109295041092960460E084E090E0A8
:1055E0000E94433A60E081E290E00E94433A60E02A
:1055F00085E090E00E94433A60E086E090E00E94FF
:10560000433A6FEF87E090E00E94433A40E050E079
:10561000BA0188E090E00E94553A60E08DE090E0A9
:105620000E94433A40E050E0BA0188E190E00E94D5
:10563000553A60E087E190E00E94433A40E050E054
:10564000BA018CE190E00E94553A60E080E290E07F
:105650000E94433A40E050E0BA0188E190E00E94A5
:10566000553A0C94CE2A0C94D52A682F8EE090E0FF
:105670000C94433AFC0132968091C802882321F0B1
:10568000809187069EE187FF96E080E0915008F4C4
:10569000089521912223D1F38F5FF8CF662301F182
:1056A0002091C8022223F1F02091870627FF1AC01B
:1056B000462F4695469546954E3190F4677021E009
:1056C00030E002C0220F331F6A95E2F7840F911D6C
:1056D000FC01828190E02823392381E0232B69F4A7
:1056E00080E00895FC01329608962191261721F05A
:1056F000E817F907D1F7F4CF81E008959C01FC0188
:1057000032969FEF80E04191461751F09F3F19F488
:10571000411101C0982F8F5F8630A9F79F3F09F490
:105720000895290F311D97FD3A95F9016283089577
:10573000FC01329608962191261303C0DF011197D0
:105740001C92E817F907B9F70895E62FE695E69554
:10575000E695EE3168F4E80FF92FF11D677021E04E
:1057600030E001C0220F6A95EAF78281822B8283A2
:105770000895E62FE695E695E695EE3170F4E80F8C
:10578000F92FF11D677021E030E001C0220F6A950A
:10579000EAF7209582812823228308952091C80268
:1057A000222329F02091870627FD0C94A52B0C9429
:1057B0007E2B2091C802222329F02091870627FD05
:1057C0000C94B92B0C94982BFC0132968091C80252
:1057D000882351F08091870687FF06C08EE1DF01A4
:1057E0001D928A95E9F7089586E0F9CF0895089506
:1057F0000E94C00380918D06843049F11092BD044F
:1058000088E190E020E40FB6F894A89580936000BA
:105810000FBE2093600080E00E94CC050E94C00370
:1058200083B7817F846083BF83B7816083BF7894AF
:10583000889583B78E7F83BF0FB6F894A895809123
:105840006000886180936000109260000FBE089530
:105850000895CF930E94F62B0E942A080E94282CBC
:10586000C0E08C2F0E94D507892B31F4CF5FC63062
:10587000C1F780E0CF91089581E0FCCF08950E94A8
:105880005C240E946A1F0E94CC050C94C5031F92E1
:105890001FB61F9211248F939F93AF93BF93809154
:1058A000BD04811113C08091830690918406A0915C
:1058B0008506B09186064196A11DB11D8093830691
:1058C00090938406A0938506B0938606BF91AF910E
:1058D0009F918F911F901FBE1F90189582E084BDED
:1058E00093E095BD9AEF97BD80936E0008952FB712
:1058F000F8948091830690918406A0918506B091DA
:1059000086062FBF08952FB7F89460918306709193
:10591000840680918506909186062FBF08959C018C
:105920004FB7F8948091830690918406A0918506E4
:10593000B09186064FBF821B930B0895CF92DF92E2
:10594000EF92FF922FB7F894C0908306D090840610
:10595000E0908506F09086062FBFA7019601261BD2
:10596000370B480B590BCA01B901FF90EF90DF903C
:10597000CF90089578941F921FB61F9211248F9391
:105980009F93AF93BF938091830690918406A091DB
:105990008506B09186060196A11DB11D80938306F0
:1059A00090938406A0938506B0938606BF91AF912D
:1059B0009F918F911F901FBE1F90189581E080933B
:1059C000E00080E28093D8001092C9008FE19EE44D
:1059D0000197F1F700C0000087E090EBDC018093B5
:1059E000960690939706A0939806B093990688E13F
:1059F0009CE00FB6F894A895809360000FBE90933A
:105A00006000FFCF0C943B1A0E942A088FE39CE9A8
:105A10000197F1F700C000000E942A0880E00E9470
:105A2000D50780FF04C00E94022D0C94DE2C08953F
:105A30000E948F2A811102C00E94332B0E949A2A51
:105A40008093BC040E94A22A9093880680938706C4
:105A50000E949E2A682F70E090E080E00E94F42768
:105A600060918F04709190048091910490919204C0
:105A70000C942E288091C40480FF12C06091BB0258
:105A800085E0689FB00111247595679575956795B8
:105A900060387105A8F561157105A1F1862F08958B
:105AA00081FF09C06091BB0285E0689FB0011124AD
:105AB00075956795EDCF6091BB0282FD0AC080911C
:105AC000C3048823D1F09091BA026091BB02891778
:105AD00028F085E0689FB0011124DACF869FB001DD
