:100000000C9410050C9457050C9457050C94570547
:100010000C9457050C9457050C9457050C945705F0
:100020000C9457050C9457050C94043C0C94D73C45
:100030000C941B360C9457050C9457050C945705DB
:100040000C9457050C9457050C9457050C945705C0
:100050000C9457050C9490360C9457050C94570546
:100060000C9457050C9457050C9457050C945705A0
:100070000C9457050C9457050C9457050C94570590
:100080000C9457050C9457050C9457050C94570580
:100090000C9457050C94570529003A003B003C008E
:1000A0003D003E003F00400041004200430044004C
:1000B000450046004700480035001E001F00200094
:1000C00021002200230024002500260027002D0007
:1000D0002E0049004A004B002B0014001A000800B3
:1000E000150017001C0018000C00120013002F0050
:1000F00030004C004D004E0039000400160007008F
:1001000009000A000B000D000E000F003300340040
:1001100028002A0000000000E10000001D001B0074
:1001200006001900050011001000360037003800E5
:10013000E50031005200E400E000E300E2000000CE
:10014000000000002C00000000000000E600E700B6
:100150000151500051004F00010001000100010059
:100160000100010001000100010001000100010087
:1001700001000100010001000100C25CC35CC55C1C
:10018000C65CC75CC85CC95CCA5C010001000100B8
:100190000100010001000100010001000100010057
:1001A0000100010001000100010001000100010047
:1001B0000100010001000100010001000100010037
:1001C0000100010001000100010001000100010027
:1001D000010001000000000001000000010001001A
:1001E0000100010001000100010001000100010007
:1001F00001000100010001000100010001000000F8
:1002000000000000010000000000000001000100EB
:1002100001000100010001000100010001000100D6
:1002200001000100010001000100010001000100C6
:1002300001000100010001000100010001000100B6
:1002400001000100010001000100010001000100A6
:100250000100010001000100010001000100010096
:100260000100010001000100010001000100010086
:100270000100010001000100010001000100010076
:100280000100010001000100010001000100010066
:100290000100010000000000010000000100010059
:1002A0000100010001000100010001000100010046
:1002B0000100010001000100010001000100000037
:1002C000000000000100000000000000010001002B
:1002D0000100010001000100010001000100010016
:1002E0000100010001000100010001000100010006
:1002F00001000100010001000100010001000100F6
:1003000001000100010001000100010001000100E5
:1003100001000100010001000100010001000100D5
:1003200001000100010001000100010001000100C5
:1003300001000100010001000100010001000100B5
:1003400001000100010001000100010001000100A5
:100350000100010000000000010000000100010098
:100360000100010001000100010001000100010085
:100370000100010001000100010001000100000076
:10038000000000000100000000000000010001006A
:100390000100010001000100000000000000000059
:1003A0002A2B2800000000000000000000000000D0
:1003B00000000029000000002C1E342021222434DB
:1003C0002627252E362D3738271E1F2021222324AD
:1003D00025263333362E37381F0405060708090A49
:1003E0000B0C0D0E0F101112131415161718191AE5
:1003F0001B1C1D2F3130232D350405060708090A63
:100400000B0C0D0E0F101112131415161718191AC4
:100410001B1C1D2F3130354C000000000000000077
:1004200000000000000000000000000000000000CC
:100430000000000000000000000000007E0F00D45B
:10044000FFFFFFC700000078000101010101010169
:100450000101020202020202020202030303030379
:100460000303030404040404040405050505050648
:100470000606060607070707070808080809090906
:10048000090A0A0A0B0B0B0C0C0C0D0D0D0E0E0EAF
:100490000F0F0F1010111111121213131414151540
:1004A00016161717181819191A1A1B1B1C1D1D1EB2
:1004B0001E1F202021222223242425262627282906
:1004C000292A2B2C2D2D2E2F303132323334353634
:1004D0003738393A3B3C3D3E3F4041424344454634
:1004E0004748494A4C4D4E4F505153545556585910
:1004F0005A5B5D5E5F616264656668696B6C6D6FB7
:100500007072737577787A7B7D7E80828385878829
:100510008A8C8E8F91939596989A9C9EA0A2A3A563
:10052000A7A9ABADAFB1B3B5B7BABCBEC0C2C4C664
:10053000C9CBCDCFD1D4D6D8DBDDDFE2E4E7E9EB20
:10054000EEF0F3F5F8FAFDFFFD377A585A00000493
:10055000E6D6B4460200210116000000742FE5A380
:10056000E0086202C25D003D8889C65436C3174F59
:10057000E4E2A73DAD15CA83D605A48B4B132D7CB1
:10058000EF6B63A01F08E3C45D24D3928742AE4A99
:10059000CB375DC184A2B5FF1F466ABC0F29FFBEE1
:1005A000D171F44EA923AF654888FCBB55E393F5A0
:1005B000F99BBFD68FDF61EF243A61503F499FBE60
:1005C00038BA3630CA237594E3F5109F8BA9B89CCE
:1005D0000853D5592EEBE28A45299D821C6C79EC93
:1005E000622C06F5CCC40AEAB6945C8F1374AAB6E2
:1005F0009C685D4487AD0766810B3BC875B7A081D9
:10060000BAC0D78CC4176831C51D7A3CB3DF73BC40
:10061000C1674ED967013CD313B248EFDC46B9B786
:100620008B9AEC8A8392AE8FD5AAFBC2F5E609D7E6
:1006300076114B066F049E3C093EA56C24741BCAC0
:100640002732B3278F7CD93FADE9FFFC3742D3A6D1
:100650000A009FE1C44FB955F377F00DA7318A62C4
:10066000891CD4892196CB1246315575AF1C13B520
:10067000E3E38276726F3A62C7AFE191A9A749219D
:1006800033EB04FC8133A51C05D765289907D1CF2E
:1006900026DF68F99911A01B516EA1D8F66D3B9623
:1006A000C722F4136FDE03EA276D2E63ED43D822D1
:1006B000496DB5657BBFB04A91F2156FFF06EC4CF2
:1006C000EAC3A800A4EE48D02FE9C8D758E8AF3F46
:1006D000ED0099A63F2FDB773C2D25F6BFF6A4074A
:1006E00014570AB69F78374CAC4FF7BF5D74FA9633
:1006F000D9B8F06466B91CB4CAE33F38B21DDCFD5A
:10070000FA913848075BD437C9083C89308BD0C789
:10071000923B7FB3E8B1667F74419190B5DEB876C5
:100720001CE997BE1D7D90E6EB854A12A14E8728F5
:100730001F4853116F6E92A815E7504EAAC383321B
:1007400040F8DB86DAC023FF8257CE446CB479C30D
:1007500058EDB3CB0E00C8CB063A30DB7CC0A1CC41
:1007600028EA83ECAC8F7FF440121B8BB172876E4A
:1007700016A0FC21FC0FA36140D5E1D32581F66EC4
:100780006C5979E9163266AC0D386A7BF21593180C
:1007900035B9FAD66C608E1BB4BF14542A5BE3F1F2
:1007A000BE797119628800E534306ABA89C564C9B6
:1007B000C2F1B3F05A6FA1A0E32AB8C7D4F0BD329A
:1007C00053A73ECD3EE33AC8F08188F58D61B08EE7
:1007D000B34E7A100B3994F1BB210521C9B4D70E61
:1007E0002D88BF5A1E8E71871BC8A5D987CB32DAD8
:1007F0002EE81CF2307DCA462CA829104484550BE3
:10080000547C9971704D8A47816AF7A67C246A4F9F
:1008100042A143DF214BF05B9BE06B10A9E57E75A5
:10082000B26B49C70C50914CA6000000EFD1C62016
:100830002FB692040001DE05E3100000546B6DFB3F
:10084000B1C467FB020000000004595A1C03760083
:10085000690061006C003A006600360034006300F5
:10086000320062003300630000000A0358004F00AA
:1008700038003700000018034D006F006E00730051
:100880007400610072006700650061007200000082
:100890000403090409025B00030100A0FA09040033
:1008A000000103010100092111010001224000079C
:1008B00005810308000A0904010002030000000981
:1008C00021110100012222000705820320000107F7
:1008D00005030320000109040200010300000009D0
:1008E000211101000122BC000705840320000A1227
:1008F00001100100000008474D4F5801000102039C
:10090000010660FF0961A1010962150026FF00953B
:1009100020750881020963150026FF0095207508DF
:100920009102C005010902A10185020901A100058A
:100930000919012905150025019505750181029503
:1009400001750381010501093009311581257F9564
:10095000027508810609381581257F950175088182
:1009600006050C0A38021581257F95017508810658
:10097000C0C005010980A101850319012AB700152E
:100980000126B700950175108100C0050C0901A171
:1009900001850419012AA002150126A002950175FE
:1009A000108100C005010906A1018505050719E0B0
:1009B00029E7150025019508750181020507190031
:1009C00029EF1500250195F075018102050819012F
:1009D0002905950575019102950175039101C005E1
:1009E000010906A101050719E029E7150025019570
:1009F0000875018102950175088101050719002913
:100A0000FF150026FF0095067508810005081901ED
:100A10002905950575019102950175039101C000A5
:100A200011241FBECFEFD0E1DEBFCDBF04B603FE61
:100A300027C08091B0069091B106A091B206B09106
:100A4000B3068730904BA740B04BD1F41092B0065C
:100A50001092B1061092B2061092B30614BE84B77B
:100A6000877F84BF0FB6F894A89580916000886155
:100A700080936000109260000FBEE0E0F8E70995F7
:100A800013E0A0E0B1E0E8EDFFE702C005900D92B1
:100A9000A637B107D9F726E0A6E7B3E001C01D925B
:100AA000A03BB207E1F70E94BD380C94EA3F0C94DA
:100AB000000081E00E94361F0C94CD3580E00E943A
:100AC000361F0C941236CF930E94BD28C82F20E009
:100AD00040E06FEF82FF60E08CE590E00E94401400
:100AE00020E040E06FEFC0FF60E08DE590E00E9405
:100AF000401420E040E06FEFC1FF60E08EE590E041
:100B0000CF910C94401481E0089581E008950C94F5
:100B1000850508950C9489051F93CF93DF9300D02A
:100B200000D01F92CDB7DEB749835A836B833091D3
:100B3000430489819A8131111DC06623B9F02223B3
:100B4000A9F00E941633182F682F89819A810E947C
:100B5000BE3269817A81812F0F900F900F900F9094
:100B60000F90DF91CF911F910C948A250E94EC3257
:100B7000182FEFCF0E94163369817A81EDCFFC01E7
:100B8000262F408151816281738184810C948C0570
:100B9000CF93DF93EC0160E00E94BF05BE01DF91BF
:100BA000CF910C948A058F929F92AF92BF92CF9271
:100BB000DF92EF92FF920F931F936B017C0181E014
:100BC00090E0A0E0B0E04C015D0104C0880C991CED
:100BD000AA1CBB1C4A95D2F7B501A4014C015D01CA
:100BE00004C0880C991CAA1CBB1C2A95D2F7482962
:100BF00059296A297B2904C0880F991FAA1FBB1F86
:100C00000A95D2F78A019B010C211D212E213F213B
:100C1000041715072607370789F48C299D29AE2963
:100C2000BF29BC01CD011F910F91FF90EF90DF9084
:100C3000CF90BF90AF909F908F90089580959095A2
:100C4000A095B0958C219D21AE21BF21EACF0F93B5
:100C5000382F262F6091B8047091B9048091BA049E
:100C60009091BB04042F432F0E94D3050F910C9445
:100C7000FC310E94E1360E946534811102C00E945D
:100C800009350E94DA1E0C9489090C948C09089588
:100C90000E94F02D0E9447062FEF84E39CE0215034
:100CA00080409040E1F700C000000C94B6360F93EE
:100CB0001F93CF93DF938C01EB010E946A2188235D
:100CC00089F1BE01C8010E948705882359F1BE0140
:100CD000C8010E940B27882329F1BE01C8010E9488
:100CE0005D278823F9F0BE01C8010E94822888236D
:100CF000C9F0BE01C8010E947520882399F08A813D
:100D0000882339F001158CE5180751F00E3D1C457C
:100D100079F0CE01DF91CF911F910F910C94830553
:100D20000E94480680E0DF91CF911F910F910895B6
:100D30000E940935F7CFCF93DF93EC0161E00E9469
:100D4000BF05BE01DF91CF910C945706DF92EF9261
:100D5000FF920F931F93CF93DF93E82FF0E0E856B5
:100D6000FC4FD490282F26952695269530E0F90142
:100D7000E85CFB4F0491877010E0082E02C01595C7
:100D800007950A94E2F701701127F901E85DFB4F1E
:100D9000E490F12C082E02C0F594E7940A94E2F74F
:100DA00091E0E922FF24F901E85EFB4FC491D0E015
:100DB00002C0D595C7958A95E2F7C170DD27011568
:100DC000110519F081EE0E94542AE114F10419F082
:100DD00086EE0E94542A8D2D0E94582BEF2819F080
:100DE00086EE0E94EB2A012B19F081EE0E94EB2A7D
:100DF000CD2B51F08CE2DF91CF911F910F91FF909D
:100E0000EF90DF900C94582BDF91CF911F910F91B1
:100E1000FF90EF90DF900895EF92FF920F931F9352
:100E2000CF93DF93EC01162F0AE08881882309F421
:100E300054C0813009F04EC08981813099F47E011F
:100E400022E0E20EF11C8A810E94582BE7012196D4
:100E5000812F815050F3EFE9FFE03197F1F700C0A7
:100E60000000F7CF823041F47E0182E0E80EF11CF1
:100E70008A810E94542AEACF833041F47E01E2E065
:100E8000EE0EF11C8A810E94EB2AE0CF843011F033
:100E90002196DDCF2A81229690E080E0AE014F5F5F
:100EA0005F4F2053330B2A30310548F0019778F219
:100EB000EFE9FFE03197F1F700C00000F7CF089F9E
:100EC000B001099F700D1124C901860F971F298158
:100ED000EA01E4CF0E94A606BACFDF91CF911F911D
:100EE0000F91FF90EF90089560E00C940C07089527
:100EF0000C94770781E008950C947A07CF93C82F5C
:100F00000E9478078C2FCF910C947C0790E080E0B2
:100F100008950895FC01EE0FFF1FE85BFB4F8591DC
:100F200094910895CF93DF930E948A250E94AA0886
:100F3000EC018115904508F043C0C11580E4D80745
:100F400008F0C0C0C83ED10528F5C03ED10508F064
:100F5000A0C0C83AD10580F4C53AD10508F092C0C6
:100F6000C130D10509F495C020F0C430D10508F096
:100F700090C0D0E0C0E08DC0CF3BD10508F48DC05B
:100F8000CE01805C9109C03CD10598F30E948A078C
:100F9000EC017FC0C11520E2D20750F4C11581E0F9
:100FA000D80708F076C0C03FD10518F3D06571C0EE
:100FB000C11520E3D20708F07BC0CE019F70E6CFB9
:100FC000C11585E5D80760F5C11524E5D20708F0FD
:100FD000A7C0C11582E5D80750F4C11521E5D20795
:100FE00008F473C0DC2FCC27C16FD06A52C09C2F8D
:100FF000969596959E0123703327C115D34508F029
:1010000080C0C1E0D0E002C0CC0FDD1F2A95E2F71E
:1010100020E2929FC0011124C82BD92BDC6839C073
:10102000C11529E5D207A8F4C11588E5D80708F04D
:101030007CC0C11526E5D20708F09BCF8C2F0E94FB
:101040004509C82FD0E0DC2FCC27CC27DF71D06238
:1010500020C0C1158AE5D80708F46CC0CE019056AF
:101060008115904208F085CF8D2F8F710E94450920
:10107000DD27D06290E0982F882788279F71C82BA2
:10108000D92B07C0C55AD0E0CE5FDC4FC881D0E075
:10109000D064CE01DF91CF910895C85AD0E0CC0F33
:1010A000DD1FCC52DD4F0990D881C02DD464F1CF23
:1010B000CE019927D3FF03C0EC01D86CEACFEC0135
:1010C000D06CE7CFDF70D06AE4CFCE01F4E0969524
:1010D0008795FA95E1F783709C2F937021E030E0BB
:1010E00002C0220F331F9A95E2F73C68382BC69551
:1010F000C695C37080E2C89FE0011124C22BD32B98
:10110000C8CFC1E0D0E002C0CC0FDD1F2A95E2F7C6
:1011100020E2929FC0011124C82BD92BDA68B9CFE5
:10112000DC2FCC27C46FD06AB4CFDC2FCC27C06FA4
:10113000D06AAFCF8C2F8F700E94450934E0D695CE
:10114000C7953A95E1F7CF70D0E0DC2FCC27D06976
:10115000C82B9FCF82389105B1F1B0F4813391054E
:1011600009F471C048F48932910509F467C08A32E4
:10117000910509F46DC008958533910509F459C0AE
:101180008933910501F10895833E9105A9F138F461
:10119000803E9105F9F0823E910549F10895863E21
:1011A0009105A9F1873E9105C9F1843E910519F594
:1011B0002091A20621FF1FC08091A10684FD14C0CA
:1011C00087EE90E008952091A1062370A1F080EEB3
:1011D00090E008952091A10620FD3FC03091A20625
:1011E00030FF09C024FF3CC090E080E008952091CA
:1011F000A10622FDF7CF08952091A10622FD33C05C
:101200003091A20630FDE3CF24FDEECFF4CF209144
:10121000A10623FFF0CF24FDE7CFD2CF2091A10676
:1012200023FD24C03091A20631FFEECF84EE90E082
:1012300008952091A10625FD1CC008952091A106C6
:1012400025FD1AC008952091A10626FD18C0089515
:101250002091A10626FD16C0089589E390E0089527
:1012600083EE90E0089582EE90E0089586EE90E09F
:10127000089589E290E0089585E390E008958AE278
:1012800090E0089581E390E0B6CF9091A10692FF9F
:1012900006C0282F28712830F9F4877F846093FFD7
:1012A00006C0282F28712831F1F4877E84612091AF
:1012B000A20620FF06C0382F38713830D9F4877F56
:1012C000816021FF06C0282F28712831D1F4877E44
:1012D000816194FD877E0895282F24712430F9F6CA
:1012E0008B7F8860DCCF282F2471243101F78B7E1F
:1012F0008861DDCF382F3171313019F78E7F8860EA
:10130000E0CF282F2171213121F78E7E8861E1CF36
:1013100008950C94880908950C948B09E82FF0E047
:10132000EE0FFF1FEB5EFA4F21E030E002C0220F0C
:10133000331F6A95E2F7808191812823392381E068
:10134000232B09F480E00895E82FF0E0EE0FFF1F53
:10135000EB5EFA4F808191810895089580EA8A9525
:10136000F1F7089500C008950C94AE09F894E82FA1
:10137000E295EF70F0E031A1282F2F7081E090E02E
:1013800001C0880F2A95EAF7982F9095932391A38F
:1013900092A1892B82A378940895CF93DF93C5E01F
:1013A000D3E089910E94B60983E0C531D807C9F717
:1013B00086EC0E94B60987EC0E94B60983EC0E9475
:1013C000B60980E30E94B60981E30E94B60982E073
:1013D0000E94B609E9E0F5E0A5E1B5E011921192AD
:1013E0001D921D9285E0E531F807C1F786E00E9465
:1013F000960ADF91CF910C9439066F927F929F925B
:10140000AF92BF92CF92DF92EF92FF920F931F9312
:10141000CF93DF9395E0E92E93E0F92ED0E0C0E082
:1014200010E0CC24C394D12C35E1A32E35E0B32EAB
:10143000D7018D917D01F894E82FE295EF70F0E0EF
:1014400021A18F70A60102C0440F551F8A95E2F7B3
:10145000CA01922F982B91A392A18095892382A3F0
:1014600078940E94B209A6010C2E02C0440F551FA9
:101470000A94E2F7BA0160957095E9E0F5E085E13C
:10148000682E83E0782E00E021913191D3019D9068
:101490003D01892D82958F7090E0DC0190968C91B2
:1014A00090E0B92DBF7002C095958795BA95E2F787
:1014B00080FD38C0C901842B952B2817390739F0D6
:1014C0009F0122503109D9018D939C9301E0AE1602
:1014D000BF06D1F6F701319780810E94B609CF305F
:1014E00011F00E94B409102B2196C031D10509F0EA
:1014F0009FCF212F46E065E175E089E095E00E94ED
:10150000970A0E944506812FDF91CF911F910F917D
:10151000FF90EF90DF90CF90BF90AF909F907F9023
:101520006F900895C90186239723C7CF0895FF922E
:101530000F931F93CF93DF93F82E092F162FD72FDA
:10154000C42F222349F081E080937A030E944D3614
:10155000909379038093780380917A038823A1F094
:1015600080917803909179030E946536069760F028
:10157000EF2DF02FA12FBD2F90E080E0D0E08C1751
:101580009D0744F010927A03DF91CF911F910F9144
:10159000FF900895219131912D933D930196EFCFC6
:1015A000833081F128F4813059F08230D1F00895F0
:1015B000853009F449C0B8F1863009F456C0089561
:1015C0008091B502482F460F5527551F4F3F5105B3
:1015D00024F4680F6093B50208958FEF8093B502ED
:1015E00008958091B402482F460F5527551F4F3F4D
:1015F000510524F4680F6093B40208958FEF80932F
:10160000B40208958091B302482F460F5527551F05
:101610004F3F510524F4680F6093B30208958FEF94
:101620008093B30208958091B202482F460F552748
:10163000551F4F3F510524F4680F6093B20208957F
:101640008FEF8093B20208958091AF02482F460F2A
:101650005527551F4F3F510524F4680F6093AF0283
:1016600008958FEF8093AF0208958091AE02482FC6
:10167000460F5527551F4F3F510524F4680F6093BF
:10168000AE0208958FEF8093AE020895833011F17A
:1016900028F4813049F0823091F00895853081F14D
:1016A00020F18630C1F108958091B502681720F4C9
:1016B000861B8093B50208951092B502089580911B
:1016C000B402681720F4861B8093B4020895109228
:1016D000B40208958091B302681720F4861B8093AA
:1016E000B30208951092B30208958091B202681770
:1016F00020F4861B8093B20208951092B2020895DE
:101700008091AF02681720F4861B8093AF02089582
:101710001092AF0208958091AE02681720F4861BE4
:101720008093AE0208951092AE0208950F931F9316
:1017300041E050E060E070E08A019B0104C0000FCE
:10174000111F221F331F8A95D2F7C901B8010E94C9
:10175000C0311F910F910C94F02DEBEFE80FEF3398
:1017600008F0A1C0F0E0E954F44F0C94D23E040C10
:10177000FA0B0D0CF80B530C530CF80B530C530CC9
:101780002A0C530C350C400C530C530C530C530CBB
:10179000F80B530C530CF80B530C1C0C530C530C40
:1017A000510C510C510C510C510C510C510C510C51
:1017B000510C4B0C530C040CF60B530C530C530CE8
:1017C000530C530C530C530C530C530C530C4B0C29
:1017D000530C530CF80B530C4F0C4F0C4F0C4F0C7D
:1017E0004F0C4F0C4F0C4F0C4F0C4B0C0E940935FB
:1017F00081E008958091E504817F8E7F8093E504E8
:1018000081E080937C0308958091220490912304C9
:10181000892B71F30E944806EBCF9091E504892F44
:101820008E7F90FF81608093E50480FDE1CF897F0A
:10183000877F8093E504DCCF9091E504892F8D7F2D
:1018400091FF82608093E50481FFD2CF8091E5040F
:101850008160EFCF9091E504892F8B7F92FF8460A8
:101860008093E50482FDF2CFC3CF9091E504892FE8
:10187000877F93FF88608093E50483FDE7CFB8CF2F
:101880000E94F02D9091A106892F97FB87F980582F
:101890008093A106ADCF80E00E94960BA9CF89531B
:1018A000FBCF8D51F9CF80E0089580E008950C942E
:1018B000550C8E518A3030F4E82FF0E0E55EFC4F95
:1018C0008081089580E00895CF93C82F80917C0394
:1018D0008130B1F030F08230A9F110927C0380E0C9
:1018E0000DC00E94AB338232D1F78C2F0E94550C71
:1018F000811118C08C2F0E94AD0B8170CF9108957B
:101900000E94AB33823289F38C2F0E94570C8111D5
:1019100010C0C43181F048F4CB3059F0C03171F0BF
:1019200080E0EBCF81E090E0E8CFC93221F0C8330E
:10193000B9F781E0E2CF10927C03F2CF82E080938E
:101940007C03F7CFC93219F188F4C43101F120F4D6
:10195000C73081F181E0D2CF82EE8C0F8630D0F794
:101960008C2F0E94590C80937B03F4CFCE3401F16D
:1019700040F46AE0CB3471F780917B030E94D00A77
:10198000E9CFC13579F061E0C235B1F3E3CF8091A1
:101990007B03882319F010927B03DCCF81E08093D6
:1019A0007C03ACCF61E080917B030E94460BD2CFD9
:1019B0006AE0F9CF8EE18093B50282E38093B402AE
:1019C0008AE08093B30284E18093B20288E080933E
:1019D000AF0288E28093AE02BDCF8091830380FF87
:1019E00012C06091B30285E0689FB0011124759523
:1019F00067957595679560387105A8F5611571054E
:101A0000A1F1862F089581FF09C06091B30285E09E
:101A1000689FB001112475956795EDCF82FF07C0CF
:101A20006091B30285E0689FB0011124E4CF20915A
:101A300082032223A9F09091B2026091B30285E063
:101A4000689FB00111242917B0F6269FA001279F97
:101A5000500D1124692F70E0CA010E949F3ECBCF28
:101A600065E070E0CECF8FE7089581E00895809122
:101A7000830380FF0CC06091AF0270E0759567959D
:101A8000759567956115710549F1862F089581FF58
:101A900006C06091AF0270E075956795F3CF6091D5
:101AA000AF0282FD0BC0909181039923A1F0609158
:101AB000AE028091AF02961738F0682F70E0603860
:101AC000710500F38FE70895899FC001112470E02C
:101AD0000E949F3EF4CF61E070E0D7CF81E008958F
:101AE000803F31F40E94ED0C819580938703089527
:101AF000813F19F40E94ED0CF8CF823F31F40E942F
:101B0000ED0C8195809386030895833F19F40E941C
:101B1000ED0CF8CF893F29F40E94370D809388039C
:101B200008958A3F21F40E94370D8195F7CF8B3FAE
:101B300031F40E94370D81958093890308958C3F7D
:101B400019F40E94370DF8CF843F31F4809185035A
:101B50008160809385030895853F21F480918503FA
:101B60008260F7CF863F21F4809185038460F1CFB6
:101B7000873F21F4809185038860EBCF883F21F473
:101B8000809185038061E5CF8D3F31F4809183039F
:101B900081608093830308958E3F21F480918303B5
:101BA0008260F7CF8F3FB9F7809183038460F1CFD4
:101BB000803FD1F48091870387FD10928703809145
:101BC0008603811106C080918703811102C01092A3
:101BD000820380918803811106C08091890381115D
:101BE00002C0109281030895813F29F480918703F8
:101BF00018161CF3E4CF90918603823F29F497FFD7
:101C0000DECF10928603DBCF833F19F41916CCF395
:101C1000D6CF90918803893F29F4191684F6109243
:101C20008803CDCF8A3F19F497FFC9CFF8CF8B3FF8
:101C300039F48091890387FFC2CF10928903BFCF07
:101C40008C3F29F4809189031816BCF3B8CF843FE8
:101C500031F4809185038E7F80938503B0CF853FDB
:101C600021F4809185038D7FF7CF863F21F4809109
:101C700085038B7FF1CF873F21F480918503877F98
:101C8000EBCF883F21F4809185038F7EE5CF8D3F98
:101C900031F4809183038E7F8093830390CF8E3FB6
:101CA00021F4809183038D7FF7CF8F3F09F087CF99
:101CB000809183038B7FF0CF0E944D362091860365
:101CC000211104C020918703222321F090938003E7
:101CD00080937F0320918803211104C02091890300
:101CE000222321F090937E0380937D0384E893E088
:101CF0000C94E428EF92FF920F931F93CF93DF93FE
:101D000000D000D000D0CDB7DEB786E0E4E8F3E045
:101D1000DE01119601900D928A95E1F7E09086031D
:101D2000F090870300918803109189031092860335
:101D3000109287031092880310928903E11002C069
:101D4000FF2091F080917F03909180030E9465367F
:101D5000AC0190918203992309F443C08091B402AD
:101D60008417150608F44BC0011102C0112391F02D
:101D700080917D0390917E030E946536AC01909125
:101D80008103992309F47AC08091B0028417150663
:101D900008F482C08091860381110BC08091870373
:101DA000811107C080918803811103C0809189034C
:101DB00081110E945C0E86E0FE013196A4E8B3E03A
:101DC00001900D928A95E1F726960FB6F894DEBF42
:101DD0000FBECDBFDF91CF911F910F91FF90EF907C
:101DE00008952091B5028AE0289F900111242417BC
:101DF000350708F0B9CF9F5F9093820302C09F3FE1
:101E0000D1F7EE2059F00E94ED0C9FEF1E140CF458
:101E100091E0899F802D112480938603FF2059F043
:101E20000E94ED0C9FEF1F140CF491E0899F802D10
:101E300011248093870330918603332309F494CFD0
:101E400020918703222309F48FCF45EB3403C0018F
:101E50001124992359F09093860345EB24039001B4
:101E60001124332339F0309387037ECF81E08093B0
:101E70008603F3CF81E08093870376CF2091B10270
:101E80008AE0289F900111242417350708F082CF9B
:101E90009F5F9093810302C09F3FD1F7002359F0C9
:101EA0000E94370D9FEF10160CF491E0899F802D52
:101EB000112480938803112359F00E94370D9FEF5E
:101EC00011160CF491E0899F802D112480938903D1
:101ED00030918803332309F45DCF209189032223B5
:101EE00009F458CF45EB3403C0011124992359F06C
:101EF0009093880345EB240390011124332339F098
:101F00003093890347CF81E080938803F3CF81E04A
:101F1000809389033FCF86E0E4E8F3E0DF011D9280
:101F20008A95E9F71092820310928103109283033D
:101F30000895EF92FF920F931F93CF93DF93EB01DE
:101F4000E82FD11110C0442321F0F0E0E85BFB4FF3
:101F5000E4916E2F7E2F8E2FDF91CF911F910F91E5
:101F6000FF90EF9008950D2F10E0282F30E04423CC
:101F700029F0285B3B4FF901249130E0F6E0CF9F38
:101F8000C0011124EFEFF0E0BF010E948B3EAB01D6
:101F90008C2F90E0880F991FA5E5A49FB001A59F05
:101FA000700D1124861B970B982F990F980FBF0166
:101FB000601B710B629FD001639FB00D729FB00DCB
:101FC00011248B2F9D9FB0011124672F7727EF01DC
:101FD000C61BD70BBE01629FE001639FD00D729FAD
:101FE000D00D11247F01E91AF108E09EB001E19EB5
:101FF000700DF09E700D1124672F7727E61BF70BED
:10200000E29F8001E39F100DF29F100D1124E12F3C
:10201000722F42305105B1F048F44115510569F075
:102020004130510561F0EB2F8D2F07C04430510531
:1020300089F060F046305105B1F76E2F8DCFE22F59
:102040007D2FFBCFE22F7B2F812FF7CF7B2F822F8E
:10205000ED2FF3CFEB2F822F712FEFCF41E00C94B8
:10206000990F30E020E0869F212D969F200D311D95
:102070001124C9010895E82F86FDE0952E2F2F70B9
:1020800086FD2F5FE695E695E695E670F0E0EB5D60
:10209000FC4F9181929F902D212D112492959F703C
:1020A0002295207F922B2081920F87FD919580E8C9
:1020B000890F0895E42FF0E0EE0FFF1FEC59FE4F5B
:1020C000408134EE439F412D1124E72FF0E050E092
:1020D000445E5F4FDA01A21BB1099D01B7FF03C047
:1020E00031952195310993E0220F331F9A95E1F73D
:1020F000AF01421B530B9A0157FD20E0279F212D72
:102100001124722F0895E42FF0E0EE0FFF1FEC5919
:10211000FE4F408134EE439F412D1124E82FF0E023
:1021200050E0445E5F4FDA01A21BB1099D01B7FF89
:1021300003C031952195310993E0220F331F9A9501
:10214000E1F7AF01421B530B9A0157FD20E0582FD6
:10215000259F212D1124822F0895622F0895E42FA9
:10216000F0E0EE0FFF1FEC59FE4F6081621B0895F7
:10217000E42FF0E0EE0FFF1FEB59FE4F6081621B72
:102180000895322F50E0FA01EE0FFF1FEB59FE4F7A
:102190009081905297FD9195440F551FFA01EC598B
:1021A000FE4F2081231B330B290F311D97FD3A95DC
:1021B000620F0895EF920F93972F23E0029FB001D3
:1021C0001124759567956E0D792F0F91EF900895F5
:1021D0000F931F93522F10E0F801EE0FFF1FEB59E2
:1021E000FE4FA081A052BB0B9D015203F001539FF3
:1021F000F00D1124000F111FD801AC59BE4F0C91E6
:102200000057110B40039001419F300D11242E0FF8
:102210003F1F37FF02C021583F4F220F232F221F9D
:10222000330B620F1F910F9108950F931F93522F3D
:1022300010E0F801EE0FFF1FEB59FE4FA081A052F6
:10224000BB0BAA0FBB1F9D015203F001539FF00D62
:102250001124000F111FD801AC59BE4F0C9100572B
:10226000110B000F111F40039001419F300D1124ED
:102270002E0F3F1F37FF02C021583F4F220F232F41
:10228000221F330B620F1F910F9108950F931F931D
:1022900010E0F801EE0FFF1FEC59FE4F90819057B0
:1022A00097FD9195000F111FF801EB59FE4FE0814A
:1022B000E052FF0B8F01000F111F0E0F1F1F200395
:1022C000F001219FF00D112428E330E0291B310992
:1022D00097FD3395D901AA0FBB1F2A0F3B1F42035D
:1022E000D001439FB00D11249F012A0F3B1F37FFE0
:1022F00002C021583F4F220F232F221F330B620FA2
:102300001F910F9108954095282F429F412D112430
:10231000842F089522E8241B08F420E0620F08951A
:10232000EF92FF920F93970195E0099F200D311DC9
:1023300011242F3F310519F010F02FEF30E02095D8
:10234000382F320F08F43FEF832F0F91FF90EF905B
:102350000895EF92FF920F931F93E00EF11C8901F5
:1023600037FF03C011950195110924E0000F111FDB
:102370002A95E1F70F3F110519F014F00FEF10E067
:102380009A0157FF03C031952195310994E0220F3E
:10239000331F9A95E1F7201731070CF489010E0DD0
:1023A0001F1D0F3F110519F010F00FEF10E0009501
:1023B000282F200F08F42FEF822F1F910F91FF90ED
:1023C000EF900895EF92FF920F93972F093438F40E
:1023D000B701601B71096F3F710519F010F06FEFC5
:1023E00070E0485F5F4F4131510540F0A901485FFF
:1023F0005F4F4131510510F06FEF70E06095482F4D
:10240000460F08F44FEF842F37FF02C02D5F3F4F78
:10241000359527953595279560912205620F792F7F
:102420000F91FF90EF900895EF92FF920F93970115
:10243000201B31092F3F310519F010F02FEF30E04C
:10244000322F3095482F430F08F44FEF842F620F3F
:102450000F91FF90EF900895EF92FF920F939701E5
:10246000201B31092F3F310519F010F02FEF30E01C
:102470002095382F320F08F43FEF832F0F91FF90F4
:10248000EF900895BC019FEF613E8EE1780740F424
:102490009B0195E0369527959A95E1F798E0920F84
:1024A00041E0E42FE90FFF27FF1F9F013595279596
:1024B000822F229FF001239FF00DF00D11246E1743
:1024C0007F0738F49FEF920F941758F78FEF840F20
:1024D00008952F3FE9F341E0420FF6CF0F93CF93DA
:1024E000DF93D72FC82F47FD419588E390E0BC01CB
:1024F000641B710947FD7395669FC001679F900D2E
:10250000900D1124229FB001239F700D700D112496
:10251000860F971F8230910510F00E944212682F9B
:10252000660F860F682F600F7D2F8C2FDF91CF9164
:102530000F910895FC019B01009721F477FD2BC0BA
:1025400080E00895AC0197FF04C044275527481B3D
:10255000590BB901640F751F37FD10C0241B350BD3
:10256000C901A5E0880F991FAA95E1F70E949F3E37
:1025700080E2861BF7FF10C081950895CB0165E0CE
:10258000880F991F6A95E1F7BA01621B730B0E94CD
:102590009F3E80E6EECF80E808950F931F93CF9380
:1025A000DF93D62F172FC82FC901272F201B022FEB
:1025B000BA010E949A12982F990F990F782F791BC0
:1025C000700F719F712D11246D2F8C2FDF91CF9182
:1025D0001F910F9108950F931F93CF93DF93D62FE1
:1025E000C72F182FC901212F201B022FBA010E94CB
:1025F0009A12982F990F990F891B800F282F219FCE
:10260000212D1124822F6D2F7C2FDF91CF911F91CF
:102610000F910895EF920F931F93CF93DF93D62FCF
:10262000172FC82FC9010E19070FBA010E949A125D
:10263000702F781B719F712D11246D2F8C2FDF91BE
:10264000CF911F910F91EF900895EF920F931F93E9
:10265000CF93DF93D62FC72F182FC9010E19010F63
:10266000BA010E949A12081B202F219F212D1124AC
:10267000822F6D2F7C2FDF91CF911F910F91EF90C3
:1026800008950F93CF93DF93D72FC82FC901BA01B5
:102690000E949A12682F600F7D2F8C2FDF91CF91AF
:1026A0000F910895EF920F93CF93DF93D72FC82FF9
:1026B000C9010E19BA010E949A12602F681B7D2F62
:1026C0008C2FDF91CF910F91EF9008950C942E10E5
:1026D0000F931F93CF93DF932FEF280FB1E0B80F25
:1026E000AFEFA60F91E0960F30E1839FE001112438
:1026F000A61760F4AE0148545C4F4A0F511DFA0111
:10270000308170E1370F08F43FEF3083462F50E0FF
:10271000C854DC4F8E01040F151FF801308170E2A0
:10272000370F08F43FEF3083903140F4C90FD11DCB
:10273000388170E1370F08F43FEF3883B630F0F09E
:1027400030E1239FF0011124A61708F445C0E85496
:10275000FC4FDF01A40FB51F2C9130E1230F08F4CB
:102760002FEF2C93903108F032C0E90FF11D20813A
:102770003DE0230F08F42FEF208329C030E1B39F01
:10278000F0011124A61758F4EF01C854DC4FCA0F0A
:10279000D11D38817DE0370F08F43FEF3883E854CE
:1027A000FC4FEF01C40FD51F388170E1370F08F4DB
:1027B0003FEF3883903140F4E90FF11D30817DE027
:1027C000370F08F43FEF3083281708F4B9CFDF91B3
:1027D000CF911F910F9108959F0128543C4FA20F54
:1027E000B32FB11D2C913DE0230F08F42FEF2C9354
:1027F000AECF45E050E06CE170E081E295E00C94F2
:10280000763F45E050E06CE170E081E295E00C94A9
:10281000943FE1E2F5E085E380838091C9029091E5
:10282000CA02A091CB0281839283A3838FE7848322
:102830000C94011480E008950F931F93CF93DF93BE
:10284000C82FD62F8A010E941A1490E1C99FB001A7
:1028500011246C5F7E4F6D0F711DFB0190819F3FB6
:1028600029F0F801E80FF11D90838F5FDF91CF9180
:102870001F910F910895E0913303F091340309946F
:10288000E0912F03F091300309943F924F925F92B1
:102890006F927F928F929F92AF92BF92CF92DF9270
:1028A000EF92FF920F931F93CF93DF933C012B0185
:1028B000FC01C08186E1C89FC02D112416E11C0FC8
:1028C000F12E1F3610F03EE6F32E60912505669539
:1028D00080912605909127050E943110382ED0E076
:1028E000CE01880F991F9C012C5F3E4F6901CF15C7
:1028F000B0F081E01E3608F080E0DF91CF911F91AB
:102900000F91FF90EF90DF90CF90BF90AF909F908E
:102910008F907F906F905F904F903F900895FE0151
:10292000E05CFD4F8081F3019181892399F1F601EB
:10293000E05AFF4F8081282F2057330B59013196E1
:102940008081E82FE052FF0B4F01229FC001239F9F
:10295000900D900D1124EE9F9001EF9F300D300DE2
:102960001124820F931F82309105C8F4082F6091C3
:1029700022057091230580912405E32C9401A50183
:10298000F20109950E946613462F282F672FCE016A
:102990000E9440142196F2E0CF0ED11CA8CF0E94D5
:1029A0004212E4CF6AE073E10C94451465E273E1EE
:1029B0000C9445146AED70E10C94451462E573E1E2
:1029C0000C9445148F929F92AF92BF92CF92DF9258
:1029D000EF92FF920F931F93CF93DF935C016B01F4
:1029E000FC01C08186E1C89FC02D112416E11C0F97
:1029F000912E1F3610F03EE6932E609125056695C8
:102A000080912605909127050E943110882ED0E0F4
:102A1000CE01880F991F9C012C593E4F7901C91591
:102A200088F081E01E3608F080E0DF91CF911F91A1
:102A30000F91FF90EF90DF90CF90BF90AF909F905D
:102A40008F900895FE01E05CFD4F8081F50191813A
:102A50008923C1F0F70121812052330B4081405777
:102A6000550B609122057091230580912405082D56
:102A7000F60109950E946613462F282F672FCE0175
:102A80000E944014F2E0EF0EF11C2196C8CF6DECCD
:102A900072E10C94E2146BEE72E10C94E2146EE6B7
:102AA00072E10C94E21461E473E10C94E214BF92BD
:102AB000CF92DF92EF92FF920F931F93CF93DF930A
:102AC0006C017B01FC01C08186E1C89FC02D1124EF
:102AD00016E11C0F012F1F3608F00EE66091250548
:102AE0006695669580912605909127050E94311084
:102AF000B82ED0E0C01770F081E01E3608F080E0FC
:102B0000DF91CF911F910F91FF90EF90DF90CF90C9
:102B1000BF900895FE01E05CFD4F8081F601918138
:102B2000892391F0609122057091230580912405FD
:102B30002B2D4C2FF70109950E946613462F282F45
:102B4000672FCE010E9440142196D4CF6AE570E130
:102B50000C94571563E870E10C9457156DEA70E119
:102B60000C9457156FEA70E10C94571568EB70E1FF
:102B70000C94571561EC70E10C9457157F928F926D
:102B80009F92AF92BF92CF92DF92EF92FF920F93FC
:102B90001F93CF93DF935C016B01FC01C08186E141
:102BA000C89FC02D112416E11C0F912E1F3610F066
:102BB0003EE6932E609125056695669580912605E3
:102BC000909127050E943110F82E80E48F0D0E940D
:102BD0003B1090E8892E880E8F2D0E943B1020E834
:102BE000722E780ED0E0C91590F081E01E3608F004
:102BF00080E0DF91CF911F910F91FF90EF90DF90D8
:102C0000CF90BF90AF909F908F907F900895FE01DE
:102C1000E05CFD4F8081F50191818923A1F06091F5
:102C200022057091230580912405EF2C0C2F272D70
:102C3000482DF60109950E946613462F282F672F0D
:102C4000CE010E9440142196CECF68EE70E10C9424
:102C5000BE1565E171E10C94BE1566E471E10C945A
:102C6000BE15AF92BF92CF92DF92EF92FF920F9379
:102C70001F93CF93DF937C016B01FC01C08186E140
:102C8000C89FC02D112426E1B22EBC0EAB2CFEE64F
:102C9000FB1510F49EE6A92E2091250530E050E0AA
:102CA00040E06FEF7FEF80E090E00E94B33E89014B
:102CB000D0E04C2FCA1580F081E0FDE6FB1508F44A
:102CC00080E0DF91CF911F910F91FF90EF90DF9007
:102CD000CF90BF90AF900895FE01E05CFD4F8081E2
:102CE000F7019181892311F190912A059150E92FE3
:102CF000092E000CFF0BE65DFA4F97FF19C09801F3
:102D000060912505C9010E943110AC016091220536
:102D10007091230580912405F60109950E946613A0
:102D2000462F282F672FCE010E9440142196C1CF35
:102D3000818984130BC0DF01AA0FBB1FAA52B540C3
:102D400059962D913C9120173107D0F2915031972F
:102D5000D4CF63E871E10C9431166AE871E10C9408
:102D600031162F923F924F925F926F927F928F9285
:102D70009F92AF92BF92CF92DF92EF92FF920F930A
:102D80001F93CF93DF93CDB7DEB72F970FB6F8948D
:102D9000DEBF0FBECDBF282E7F836E835B874A8741
:102DA000FB01F08186E1F89F802D11248A838A5EE1
:102DB0008983382E8F3610F05EE6352E70902A0506
:102DC0003A81232F30E03F872E87C901880F991F52
:102DD000AC014C595E4F6A01822D90E09C01220F9C
:102DE000331FF901ED5BFA4FF987E8879C012F5FEC
:102DF0003F4F3D872C874E854315F0F081E0598188
:102E00005E3608F080E02F960FB6F894DEBF0FBE56
:102E1000CDBFDF91CF911F910F91FF90EF90DF9089
:102E2000CF90BF90AF909F908F907F906F905F906A
:102E30004F903F902F900895EE85FF85E05CFD4F09
:102E40008081EE81FF819181892319F150902205C3
:102E5000609023052C853D85265D3A4F3B832A8370
:102E6000488559855D834C83422C10E04714D8F087
:102E700020912405129F112D1124652D762D812F6F
:102E80000E946613462F282F672F8E859F850E94EC
:102E900040142E853F852F5F3F4F3F872E8732E0BE
:102EA000C30ED11CA8CFEA81FB818191FB83EA8309
:102EB000F601A080A81ABB088180EA81FB81878186
:102EC000881A9908AA9CC001AB9C900D900D112402
:102ED000889C9001899C300D300D1124820F931F26
:102EE00082309105CCF4082F60912505EC81FD819D
:102EF00081919191FD83EC830E9431107C019401BA
:102F0000A501652D762D812FEA85FB850995562E25
:102F1000672E4394182FAACF0E944212E4CF20912B
:102F20002A0531E0231B08F420E040E951E1BC010F
:102F3000822F0C94B11640E951E1BC0180E00C9461
:102F4000B11620912A0531E0231B08F420E049EA5C
:102F500051E1BC01822F0C94B11649EA51E1BC0148
:102F600080E00C94B11620912A0531E0231B08F46F
:102F700020E042EE51E1BC01822F0C94B11642EEEA
:102F800051E1BC0180E00C94B11620912A0531E09A
:102F9000231B08F420E044E152E1BC01822F0C9491
:102FA000B11644E152E1BC0180E00C94B1162091CD
:102FB0002A0531E0231B08F420E04CE252E1BC0179
:102FC000822F0C94B1164CE252E1BC0180E00C94CB
:102FD000B116BF92CF92DF92EF92FF920F931F93A1
:102FE000CF93DF937C01FC01C08186E1C89FC02D97
:102FF000112416E11C0F012F1F3608F00EE6609118
:10300000220570912305809124050E946613D62E17
:10301000C72EB82ED0E0C01770F081E01E3608F041
:1030200080E0DF91CF911F910F91FF90EF90DF90A3
:10303000CF90BF900895FE01E05CFD4F8081F701C5
:103040009181892331F02B2D4D2D6C2DCE010E94C5
:1030500040142196E0CF8F929F92AF92BF92CF9271
:10306000DF92EF92FF920F931F93CF93DF937C0138
:10307000FC01C08186E1C89FC02D112416E11C0F00
:10308000012F1F3608F00EE6C0902305D0902405CE
:10309000D09122056D2F7C2D8D2D0E946613B62EAA
:1030A000A72E982E609125056D0F7C2D8D2D0E94E9
:1030B0006613D62EC72E882ED0E0C01788F081E088
:1030C0001E3608F080E0DF91CF911F910F91FF90A5
:1030D000EF90DF90CF90BF90AF909F908F9008952A
:1030E000FE01E05CFD4F9081F7018181892359F059
:1030F000282D4D2D6C2D90FD03C0292D4B2D6A2DB3
:10310000CE010E9440142196D8CFBF92CF92DF9279
:10311000EF92FF920F931F93CF93DF937C01FC01FB
:10312000C08186E1C89FC02D112416E11C0FD12E4D
:103130001F3610F09EE6D92EC0902305B0902405CE
:103140002091250500E4029F012D1124D0E0CD152A
:1031500070F081E01E3608F080E0DF91CF911F9182
:103160000F91FF90EF90DF90CF90BF900895FE01F8
:10317000E05CFD4F8081F70191818923B9F0FE0168
:10318000EE0FFF1FEB59FE4F808182958F7060918B
:103190002205809F600D11247C2D8B2D0E946613CB
:1031A000462F282F672FCE010E9440142196CFCFA3
:1031B000BF92CF92DF92EF92FF920F931F93CF9324
:1031C000DF938C01FC01C08186E1C89FC02D1124D2
:1031D00056E1F52EFC0EDF2CFEE6FF1510F44EE650
:1031E000D42EC0902305B09024052091250530E40D
:1031F000E32E3E2D329F312D1124E32ED0E0CD154C
:1032000078F081E03DE63F1508F480E0DF91CF9152
:103210001F910F91FF90EF90DF90CF90BF90089596
:10322000FE01E05CFD4F8081F80191818923D9F096
:10323000FE01EE0FFF1FEC59FE4F6081E69EB001CC
:10324000112495E0759567959A95E1F7809122058F
:10325000680F7C2D8B2D0E946613462F282F672F19
:10326000CE010E9440142196CACFBF92CF92DF9226
:10327000EF92FF920F931F93CF93DF938C01FC018A
:10328000C08186E1C89FC02D112496E1F92EFC0E65
:10329000EF2CFEE6FF1510F48EE6E82ED090220506
:1032A000D0912305C090240560912505669566950B
:1032B000669580912605909127050E9431100E9405
:1032C0003B10805887FD8195880F282F3C2D239F28
:1032D000212D1124822F6D2D7D2F0E946613D62E55
:1032E000C72EB82ED0E0CE1578F081E02DE62F1550
:1032F00008F480E0DF91CF911F910F91FF90EF9044
:10330000DF90CF90BF900895FE01E05CFD4F80817B
:10331000F8019181892331F02B2D4D2D6C2DCE019B
:103320000E9440142196DFCFDF92EF92FF920F931D
:103330001F93CF93DF93FC01E05CFD4F208162235C
:1033400089F1EC01D090230500912405109122050C
:10335000E12EF12C0E944D3F282FC7018C549F4F26
:1033600068E671E00E949F3E8E199F0997FD0396C3
:1033700095958795959587952370612F289F600D6A
:1033800011247D2D802F0E946613462F282F672F32
:10339000CE01DF91CF911F910F91FF90EF90DF90C1
:1033A0000C944014DF91CF911F910F91FF90EF90FB
:1033B000DF900895DF92EF92FF920F931F93CF93C8
:1033C000DF938C01FC01C281C11125C060912505EC
:1033D00020E1620F08F46FEF809126059091270598
:1033E0000E9431106AE070E00E948B3E892B51F4FC
:1033F0000E944D3F6EE670E00E949F3EF8016181A1
:103400000E9494198C2FDF91CF911F910F91FF9003
:10341000EF90DF900895C08186E1C89FC02D1124F0
:1034200086E1D82EDC0E8D2DFEE6FD1508F48EE625
:10343000D0E0E82EF12CCE15DF0534F0C1E0FDE63A
:10344000FD1500F7C0E0DECFF8016181CE010E94DA
:1034500094192196F0CF1F93CF93DF93FC01E05C8A
:10346000FD4F20816223A9F0EC010E944D3F182FEF
:103470000E944D3F612F782F809124050E94661392
:10348000462F282F672FCE01DF91CF911F910C94EB
:103490004014DF91CF911F910895DF92EF92FF9238
:1034A0000F931F93CF93DF938C01FC01C281C11155
:1034B00025C06091250520E1620F08F46FEF80912F
:1034C0002605909127050E94311065E070E00E946A
:1034D0008B3E892B51F40E944D3F6EE670E00E94B6
:1034E0009F3EF80161810E942B1A8C2FDF91CF91B2
:1034F0001F910F91FF90EF90DF900895C08186E1BA
:10350000C89FC02D112486E1D82EDC0E8D2DFEE63D
:10351000FD1508F48EE6D0E0E82EF12CCE15DF057F
:1035200034F0C1E0FDE6FD1500F7C0E0DECFF801A4
:103530006181CE010E942B1A2196F0CFE0913103D8
:10354000F091320309942F923F924F925F926F92C3
:103550007F928F929F92AF92BF92CF92DF92EF9223
:10356000FF920F931F93CF93DF93CDB7DEB72997C9
:103570000FB6F894DEBF0FBECDBF6C01DC010C911D
:1035800086E1089F002D1124B6E1B00FB9874B2EBC
:10359000B13610F020E6422EF6018281882361F0D8
:1035A00040E060E080E00E949E1AE8EBF3E080E6F5
:1035B000DF011D928A95E9F7F6018081811115C01E
:1035C00080911A0490911B040E94653621E0893194
:1035D000910508F420E020931904499730F00E94E7
:1035E0004D3690931B0480931A0410E0512C9E01D9
:1035F0002F5F3F4F590104151505F4F081E0B9859F
:10360000B03608F080E029960FB6F894DEBF0FBE02
:10361000CDBFDF91CF911F910F91FF90EF90DF9081
:10362000CF90BF90AF909F908F907F906F905F9062
:103630004F903F902F900895C80166E070E00E947F
:103640009F3E4B013C0194E0660C771C9A95E1F794
:10365000F301E854FC4FE60FF71F3080A5010E94EC
:103660001C14282E75018E2D8A19821598F08091D0
:103670001904882361F0232D31E0231B08F420E096
:10368000C30188549C4F880E991ED4012C930F5F60
:103690001F4FB1CFD701EC91F0E0E05CFD4F80818E
:1036A000F6019181892321F1232D35E5231B08F4AF
:1036B00020E06AEA621B709123052AEA332D230F6A
:1036C00008F42FEF30912405822F880F820F8E5F30
:1036D000282F239F212D1124822F0E946613462F0D
:1036E000D7019C91282F672F892F90E00E944014CA
:1036F000BFEFEB1AFB0AB7CF6F927F928F929F9228
:10370000AF92BF92CF92DF92EF92FF920F931F93EF
:10371000CF93DF93CDB7DEB728970FB6F894DEBF0F
:103720000FBECDBFDC0112968C91882371F040E072
:1037300060E080E00E949E1AE8EBF3E080E6DF01A3
:103740001D928A95E9F710928A0388EBC82E83E0D0
:10375000D82E00E077247A9490EDA92EB12C20EC9D
:10376000622E3FE2832E912C760110E0111177C07A
:1037700080918A03811173C00E944D3F8535954029
:103780000CF06DC0F6017082AE014F5F5F4F602F8D
:10379000812F0E941C148823B1F0F7012081E98158
:1037A000F0E0213D08F463C0205D330B629EC00150
:1037B000639E900D1124B4010E948B3E262F4FEF83
:1037C000CF010E9440141F5FF0E1EF0EF11C163094
:1037D00069F60F5F2FEFC21AD20A003129F68091E5
:1037E0008A038F5F8D3108F44CC010928A0348E041
:1037F00054E025E03EEF90E080E0253039F4FC0114
:10380000E85FFB4F60816F3F09F43083FA01E80FF6
:10381000F91FDF0150976C916F3F11F43C93608367
:1038200001968031910549F72150405151092111EC
:10383000E2CF80E028960FB6F894DEBF0FBECDBF72
:10384000DF91CF911F910F91FF90EF90DF90CF907C
:10385000BF90AF909F908F907F906F900895D70109
:103860008C9181508E3F08F08FCF8C938DCF279D08
:10387000C0011124B5010E948B3E462F20E060E07C
:103880009FCF80938A03D5CFAF92BF92CF92DF9222
:10389000EF92FF920F931F93CF93DF93CDB7DEB7D5
:1038A00028970FB6F894DEBF0FBECDBFE82ED62EF8
:1038B000142F0E944929882309F454C0F12C1123A4
:1038C00041F0AE014F5F5F4F6D2D8E2D0E941C1495
:1038D000F82EC0908B030F2D10E0C8018C0D911DA8
:1038E000099764F188E090E05C01A01AB10AB80180
:1038F00064577C4FA5018CE893E00E94663FB801B5
:103900006C567C4FA50184E993E00E94663FA501B7
:10391000440F551FB801660F771F6C557C4F84EA22
:1039200093E00E94663FB80164567C4FA5018CE984
:1039300093E00E94663FCA94C0928B0310918B0360
:10394000DE01119640E0842F810FF4121CC0809399
:103950008B03809121058C7F843621F46D2D8E2D73
:103960000E94681328960FB6F894DEBF0FBECDBF35
:10397000DF91CF911F910F91FF90EF90DF90CF904B
:10398000BF90AF9008955D91252F30E090E0BC018D
:1039900065577C4FF901EE0FFF1FEC59FE4F008178
:1039A000FB010183220F331FF901EB59FE4F2081E8
:1039B000FB012187518B880F991FFC01E557FC4FB4
:1039C000128E118E4F5FBFCF08950E94E41C0C949D
:1039D000630508950895CF93DF93FC01C08186E1CC
:1039E000C89FC02D1124DAEEDC0FCF3608F0CEE6EA
:1039F0006C2F8D2F0E94E91C6C2F8D2FDF91CF91A2
:103A00000C94EA1C4F925F926F927F928F929F92DA
:103A1000AF92BF92CF92DF92EF92FF92CF936091DD
:103A2000B4037091B5038091B6039091B7030E94DF
:103A300074366B017C010E9459364B015C01809207
:103A4000B4039092B503A092B603B092B703A091CD
:103A50008B03EBE8F3E08A2F90E04FEF5FEF60E03D
:103A600070E04C195D096E097F09A91329C0809384
:103A70008B0380911804811108C0C09121058C2FFF
:103A80008370C695C695811101C0C0E08091B602D1
:103A9000813009F43FC038F1823009F46DC18330C0
:103AA00009F475C1CF91FF90EF90DF90CF90BF9058
:103AB000AF909F908F907F906F905F904F90089500
:103AC000218D328D2901712C612C44155505660517
:103AD000770520F481509F5F3296C7CF2C0D3D1D96
:103AE000328F218FF8CF1092B702809226059092E4
:103AF0002705A0922805B092290589E2EBE8F3E0BA
:103B0000AAE2B5E001900D928A95E1F781E08093F9
:103B1000B602C8CF8091BA02C8133EC09091210569
:103B200093702091BB0230E081E09217130609F4F4
:103B300080E081708093B902C73208F036C0EC2F64
:103B4000F0E0EB55F24E0C94D23ECE1DD71DFF1D7A
:103B5000041E091E0E1E131E181E1D1E221E271EC9
:103B60002C1E311E361E3B1E401E451E4A1E4F1E79
:103B7000541E591E5E1E631E681E6D1E721E771E29
:103B80007C1E811E861E8B1E901E951E9A1E9F1ED9
:103B9000A41EA91EAE1EB31E81E0CBCF882359F010
:103BA00040E060E080E00E949E1A80E004C087EB65
:103BB00092E00E94E9179091B7029F5F9093B7023D
:103BC0008111D6C082E08093B6028091B902811142
:103BD000CFC0CC2309F4D9C00E94E51C87EB92E04A
:103BE000CF91FF90EF90DF90CF90BF90AF909F90DC
:103BF0008F907F906F905F904F900C94EB1C87EBB1
:103C000092E00E942B18D7CF87EB92E00E94851894
:103C1000D2CF87EB92E00E94D818CDCF87EB92E00D
:103C20000E943519C8CF87EB92E00E94A615C3CF3A
:103C300087EB92E00E94AA15BECF87EB92E00E942C
:103C40004715B9CF87EB92E00E944B15B4CF87EBB5
:103C500092E00E94D214AFCF87EB92E00E94D6147C
:103C6000AACF87EB92E00E94AE15A5CF87EB92E03A
:103C70000E94B215A0CF87EB92E00E94B6159BCFB1
:103C800087EB92E00E94BA1596CF87EB92E00E94F4
:103C9000DA1491CF87EB92E00E944F158CCF87EB1F
:103CA00092E00E94531587CF87EB92E00E94DE14CA
:103CB00082CF87EB92E00E9425167DCF87EB92E0C2
:103CC0000E94291678CF87EB92E00E942D1673CFC1
:103CD00087EB92E00E94DA196ECF87EB92E00E94A8
:103CE0004D1A69CF87EB92E00E94A31A64CF87EB4D
:103CF00092E00E947C1B5FCF87EB92E00E94A916A6
:103D00005ACF87EB92E00E94AD1655CF87EB92E039
:103D10000E948F1750CF87EB92E00E949B174BCFEA
:103D200087EB92E00E94A11746CF87EB92E00E94BA
:103D3000AD1741CF87EB92E00E94B3173CCF87EBE2
:103D400092E00E94BF1737CF87EB92E00E94C51721
:103D500032CF87EB92E00E94D1172DCF87EB92E014
:103D60000E94D71728CF87EB92E00E94E31723CF5A
:103D7000CC2309F497CE30CFC093BA0280912105AD
:103D800083708093BB020E943B1483E0C0CE60919D
:103D900026057091270580912805909129050E949C
:103DA0007436603171058105910508F47BCE10925F
:103DB000B60278CEE0912D03F0912E030995109272
:103DC0002A058FEF9FEF90934405809343059093CE
:103DD0004605809345059093480580934705909349
:103DE0004A058093490590934C0580934B05909329
:103DF0004E0580934D059093500580934F05909309
:103E000052058093510510928B039093A5038093E4
:103E1000A4039093A7038093A6039093A903809390
:103E2000A8039093AB038093AA039093AD03809370
:103E3000AC039093AF038093AE039093B103809350
:103E4000B0039093B3038093B2030E946534811151
:103E500004C00E9409350E9409140E94F913809140
:103E600021058C7F11F40C9409140895CF93C82F69
:103E7000882329F040E060E080E00E949E1AC09311
:103E80001804CF9108959091210521E092279093F5
:103E900021051092B60281110C940114089581E05D
:103EA0000C94431F80912105837011F41092B60287
:103EB000809121058C7F81608093210508958091F8
:103EC0002105837011F01092B602809121058C7F3C
:103ED00080932105089590912105937099F08111A7
:103EE00009C09460909321051092B602662351F0A8
:103EF0000C940114873210F09869F4CF880F880F62
:103F0000982BF0CF089560E00C946B1F61E00C9447
:103F10006B1F80912105869586950895682F909155
:103F200021059695969581E0890F873208F081E00A
:103F30000C946B1F81E00C948E1F682F90912105CB
:103F4000969596958FEF890F09F486E20C946B1F76
:103F500081E00C949D1F90912105937061F08093F6
:103F6000220560932305453608F044E64093240576
:103F700021110C940114089520E00C94AB1F809142
:103F800022050895809123050895809124050895C0
:103F9000A1E2B5E01196EC911197F0E0282F13966D
:103FA0004C91139712966C91CF0108960C94AB1F0D
:103FB00081E00C94C81FE1E2F5E09181282F438154
:103FC0006281E92FE850FF0BCF010C94AB1F81E019
:103FD0000C94DB1FE1E2F5E0628120E1620F08F45E
:103FE0006FEF9181282F4381892F90E00C94AB1FB4
:103FF00081E00C94EA1FE1E2F5E0628120E1621BBE
:1040000008F460E09181282F4381892F90E00C947F
:10401000AB1F81E00C94FB1FE1E2F5E0438120E15E
:10402000420F08F44FEF9181282F6281892F90E091
:104030000C94AB1F81E00C940C20E1E2F5E043818D
:1040400020E1421B08F440E09181282F6281892FF2
:1040500090E00C94AB1F81E00C941D20809325050B
:1040600008958091250508952091250530E1230FBD
:1040700008F42FEF2093250581110C940114089565
:1040800081E00C9434202091250530E1231B08F4B5
:1040900020E02093250581110C940114089581E0FE
:1040A0000C9443200895FC01EE0FFF1FE80FF91F49
:1040B000ED5AFA4F6183408322830895E3E5F5E0EA
:1040C00096E0ED39F90709F408958183608342830E
:1040D0003396F6CF6EE670E083E595E00C94E82029
:1040E000FA01811101C0FB0109940F931F93CF9333
:1040F000FB01C281CC2309F465C08C010E94AB3363
:104100008272F801E25CFC45E431F10508F05BC025
:10411000E457FF4D0C94D23EA020A420AB20B02049
:10412000B520BA20BF20C420C920CE20D320D8205B
:10413000DC20DE20E020A220A220A220A220A220BB
:104140000E944F1FC0E03FC048EA5FE16AE97FE19B
:104150000E947020F7CF4AE95FE168EA7FE1F8CF7B
:1041600047EE5FE168ED7FE1F3CF48ED5FE167EE99
:104170007FE1EECF49E050E268EF7FE1E9CF48EF21
:104180005FE169E070E2E4CF4BE250E26AE170E2A5
:10419000DFCF4AE150E26BE270E2DACF4FE450E267
:1041A00060E470E2D5CF40E450E26FE470E2D0CF3B
:1041B00081E00E94861FC6CF85E0FBCF8DE0F9CF5E
:1041C00082E1F7CFC1E08C2FCF911F910F9108951D
:1041D000579A2BB12F773BB130684FB7F894FC0159
:1041E000CB01880F991F680F791F6E0F7F1FE6178D
:1041F000F70741F44FBF8FE594E00197F1F700C056
:1042000000000895819198E03BB9000000C087FF4D
:104210002BB9880F000000C000C000C02BB900C03F
:104220009A9591F7E4CF82E290E00E94863F8B332B
:1042300089F483E290E00E94863F883059F484E25A
:1042400090E00E94863F91E0843E09F090E0892F43
:104250008170089580E0FCCFCF93C82F6FEF81115C
:104260006BE382E290E00E94A43F6FEFC11168E02F
:1042700083E290E00E94A43F6FEFC11164EE84E2FC
:1042800090E0CF910C94A43F80E00E942C210C94EC
:104290005F34089585E290E00E94863F682F70E0C9
:1042A00090E080E0089585E290E00C94A43F0E94A5
:1042B00049210E94132181110CC060E070E0CB0104
:1042C0000E9453210E9489240E94F22581E00C94CF
:1042D0002C210895CF93FB01C281CC2309F19C01CD
:1042E00022513F452031310520F582510E9402269E
:1042F000C0E08C2FCF91089581E00E94223243E0EC
:1043000062E081E00E942706F3CF81E00E94433201
:1043100043E062E081E00E942706EBCFC1E0E9CFF5
:104320008031FFE59F0789F381319F45B9F782E02E
:10433000EDCF8031EFE59E07F9F281319F45C9F657
:1043400082E0DBCF2FEFFC0120830895CF93DF9332
:10435000EC0188818138A9F028F4803871F0DF9170
:10436000CF910895823881F08338C9F70E94BF1F2A
:1043700089830E94C21F8A83F2CF0E94C51F89834E
:10438000EECF0E94891FFBCF0E943120F8CFCF9340
:10439000DF93EC0188818138F1F028F4803871F0E6
:1043A000DF91CF910895823821F18338C9F70E94B7
:1043B000C51F9981482F6A81892F08C0D9810E9421
:1043C000C21FC82F0E94BF1F4D2F6C2F90E0DF919E
:1043D000CF910C94BC1F89810E94831F8981811118
:1043E00004C0DF91CF910C945F1FDF91CF910C94AB
:1043F000521F8981DF91CF910C942E201F93CF9370
:10440000DF93EC01162F9881209120043091210434
:10441000232B51F09E3F09F07BC08981833020F02F
:104420008550833008F074C09E012F5F3F4F9B3052
:1044300009F4E0C040F5953009F485C0B8F4923035
:1044400009F459C030F4913009F451C08FEF8883DA
:104450005FC0933009F46BC09430C1F74B816A811F
:1044600089810E943E249C838D8352C0973009F439
:1044700078C008F473C0983009F477C0993031F7E8
:104480000E94011445C0903109F48CC000F59D30A4
:1044900009F473C008F46DC09E3009F472C09F30F7
:1044A000A9F68091220490912304892B89F18981B6
:1044B0009A819827892798276B8170E06D31710563
:1044C00038F5AE014C5F5F4F0E94C72521C0923185
:1044D00009F46EC008F469C0933109F47AC09E3FB4
:1044E00009F0B4CF612FCE010E94112311C01982AF
:1044F00089E08A830DC08981823089F0833041F060
:10450000813081F40E9459369A838B837C836D833A
:10451000612FCE01DF91CF911F910C94B3370E9490
:104520004A21F2CF612FCE010E94A221F1CF8981D1
:104530008230C1F76A817B818C819D810E94D83E47
:104540000E945321E5CF2C813D813227232732273A
:104550004B816A8189810E946024DACF0E9489247C
:10456000D7CFC9010E94C721D3CFC9010E94A6217C
:10457000CFCF0E949D258983CBCF0E949F25998311
:10458000B8CF89819A819827892798276B8170E015
:104590006D31710508F0BCCFAE014C5F5F4F0E94DA
:1045A000A225B6CF0E94F225B3CF0E942A24E3CFE2
:1045B00089819A819827892798276B8170E06D31CE
:1045C000710508F0A5CFAE014C5F5F4F0E94D42467
:1045D0009FCF89819A819827892798276B8170E0DE
:1045E0006D31710508F094CFAE014C5F5F4F0E94B2
:1045F000F8248ECF8091220490912304892B09F412
:1046000087CF612FCE010E94B3372FEF81EE94E068
:10461000215080409040E1F700C000000E94B63673
:1046200077CFEF92FF920F931F93CF93DF93CDB786
:10463000DEB728970FB6F894DEBF0FBECDBF60324D
:1046400069F5DC011196EC911197E93038F58C0190
:10465000F0E0E35DFC4D0C94D23E36235B236723F0
:104660004E234E23AB23C823DB23252488E0ECEC28
:10467000F2E0DE01119601900D928A95E1F782E059
:10468000F801808311821282138288E0FE01319644
:10469000D801149601900D928A95E1F728960FB6ED
:1046A000F894DEBF0FBECDBFDF91CF911F910F9168
:1046B000FF90EF90089584E08C9383E011968C93A3
:1046C000119712961C92129713961C92E7CFFC0139
:1046D0008381682F70E0762F66278281860F972F5F
:1046E000911D092E000CAA0BBB0B25E0880F991F0A
:1046F000AA1FBB1F2A95D1F7AC01BD01405E5F4FD9
:104700006F4F7F4F481759076A077B0738F284308D
:10471000F3E09F07A105B10508F6453023E05207F5
:104720006105710520F044E053E060E070E0481B53
:10473000590BBC01685B7A4FC80128960FB6F894F4
:10474000DEBF0FBECDBFDF91CF911F910F91FF90C4
:10475000EF900C945D3F40E250E06FEF70E00E94FC
:104760006F3F80912204D8018C9380912004119690
:104770008C93119712961C92129713961C92139772
:1047800083E014968C9314978CE015968C9386CFC7
:1047900081E090E0909321048093200482E390E0F4
:1047A00090931F0480931E040E944D3690931D0425
:1047B00080931C0473CF8091200490912104892B55
:1047C00091F160E080E00E948E09E82E6CE083E0C9
:1047D0000E948E09F82E80911C0490911D040E9465
:1047E00065368536910550F1EE2041F1FF2031F11B
:1047F0000E944D3690931D0480931C0480911E04EA
:1048000090911F04019790931F0480931E04892B9D
:1048100051F4109221041092200481E090E09093D2
:1048200023048093220480912204F80180838091E4
:104830002004818380911E04828330CF82E390E044
:1048400090931F0480931E04EECF109223041092C5
:10485000220424CF84E0089520E2629FB001112455
:1048600050E0440F551F640F751F9B0140EC849F5F
:10487000200D311D1124C901869608950F931F93B1
:10488000CF93DF938430C8F46630B8F44031A8F495
:104890000E942C248C010E94863FC82FD0E0DC2F80
:1048A000CC27C80101960E94863F9E01282BC90192
:1048B000DF91CF911F910F91089590E080E0F8CFA4
:1048C0000F931F93CF93DF938430F0F46630E0F4BE
:1048D0004031D0F421159CE5390731F4E0912204F0
:1048E000F0912304EF2B81F0E9010E942C248C012C
:1048F0006D2F0E94A43F6C2FC8010196DF91CF91CC
:104900001F910F910C94A43FDF91CF911F910F91B4
:104910000895AF92BF92CF92DF92EF92FF920F93E2
:104920001F93CF93DF93C0902204D090230481E0A3
:1049300090E09093230480932204F12CE12CA12C8D
:104940008701B12C18C0FE01E00FF11FEE0FFF1F11
:10495000E856FF4F259134914C2F6B2D8A2D0E94E4
:1049600060242196C031D10571F7005F1F4FB394C9
:1049700086E0B81619F0D0E0C0E0E5CFA39480E659
:10498000E80EF11C84E0A812DBCFD0922304C09281
:104990002204DF91CF911F910F91FF90EF90DF9054
:1049A000CF90BF90AF900895EF92FF920F931F9317
:1049B000CF93DF938C01EA017A01E60EF71EC8015E
:1049C0008696CE15DF0539F4DF91CF911F910F91B7
:1049D000FF90EF900895011523E0120738F40E942C
:1049E000863F888321960F5F1F4FE9CF1882FACF49
:1049F0004F925F926F927F928F929F92AF92BF92EF
:104A0000CF92DF92EF92FF920F931F93CF93DF939A
:104A1000811523E09207F0F420E033E0281B390BE6
:104A200026173707B8F07A016B018C013C0136E29A
:104A3000630E711C80912204909123042801460E7C
:104A4000571E892BC1F0E801CE0186964C165D06F3
:104A500009F052C0DF91CF911F910F91FF90EF901D
:104A6000DF90CF90BF90AF909F908F907F906F908E
:104A70005F904F900895D0E0C0E000FF11C0C801E2
:104A800085960E94863FF70190818927982789277C
:104A900081159C4519F48FEFF7018083C1E0D0E0C8
:104AA000560140FE13C0F1E0AF1AB10847018A0C6D
:104AB0009B1CC3018C0D9D1D0E94863FF4019081BB
:104AC00081159C4519F48FEFF4018083CE0DDF1D15
:104AD0002FEFCE018E199F098A159B0508F0B3CFE1
:104AE0008881998189279827892781159C4511F408
:104AF000288329832296EDCFC11523E0D20740F405
:104B0000FE01E01BF10BEE0DFF1D60810E94A43F32
:104B100021969ACF462F2091200430912104232BF7
:104B200049F4843038F4763028F4603118F4672F73
:104B30000C943E2490E080E0089580E108958AED91
:104B400094E00895EF92FF920F931F93CF93DF931A
:104B50008C01EA017A01E60EF71EC8018A5D9C4FBE
:104B6000CE15DF0539F4DF91CF911F910F91FF90A2
:104B7000EF9008950A3D24E0120738F40E94863F22
:104B8000888321960F5F1F4FE8CF1882FACFCF920C
:104B9000DF92EF92FF920F931F93CF93DF937C01ED
:104BA0006A018C01060F171FEC01CE018A5D9C4F34
:104BB000C017D10749F4DF91CF911F910F91FF905A
:104BC000EF90DF90CF900895CA3D24E0D20740F4E3
:104BD000FE01EE19FF09EC0DFD1D60810E94A43F4E
:104BE0002196E3CFCF93DF93C6E2D3E060E0CE011E
:104BF0000E94A43F2196C11588E0D807B9F7DF913C
:104C0000CF910895BF92CF92DF92EF92FF920F93D0
:104C10001F93CF93DF9300D000D0CDB7DEB7F82E2F
:104C20002FE0281740F08FEF97E00E94863F06E2C2
:104C300013E08823D1F00F900F900F900F90DF9129
:104C4000CF911F910F91FF90EF90DF90CF90BF9089
:104C50000895011548E0140771F3C8010E94863FCA
:104C6000811101C0FA940F5F1F4FF110F2CF19822A
:104C70001A821B821C82BB24BA9478015FEFE51A6A
:104C8000F50AC8010E94863F89831A82882399F217
:104C9000813009F047C0680182E0C80ED11CC7010D
:104CA0000E94863FE82E8A83882329F2C6010E944B
:104CB000863FF82E8FEF8E0D833068F46801E3E0B5
:104CC000CE0ED11CFB82FF2021F0CE0101960E9466
:104CD00074078601D2CFF4E0EF12FBCF680124E025
:104CE000C20ED11CC80103960E94863FFF2009F422
:104CF000A2CF882309F49FCF8150990BB89E9001D1
:104D0000B99E300D11244F2D4150550BCA01820F11
:104D1000931F0197F0F2EFE9FFE03197F1F700C040
:104D20000000F7CFCE0101960E9474076701D1CF32
:104D30000F931F93CF93DF93C42FD22FFC01828157
:104D40008823C9F0409326040E944D369093250491
:104D50008093240480E28C0F883008F057C0C7701D
:104D600081E001C0880FCA95EAF7DF91CF911F91CA
:104D70000F910C94602B10912604141335C0809170
:104D80002404909125040E946536883C910560F5C5
:104D9000C0E2CD0F1D17B9F080E2810F883040F4DA
:104DA000177081E001C0880F1A95EAF70E94672BFF
:104DB000C83028F581E09D2F977001C0880F9A9523
:104DC000EAF70E94602B802F0E94582BC830F0F425
:104DD000D77081E001C0880FDA95EAF7DF91CF91B3
:104DE0001F910F910C94672B80E28C0F883070F428
:104DF000C77081E001C0880FCA95EAF7EFCF802F16
:104E0000DF91CF911F910F910C94582BDF91CF918F
:104E10001F910F9108950F939C01CB01233F4CE507
:104E2000340759F1A8F4283DFCE53F0701F1293D7D
:104E30004CE53407D1F1273D3C4591F406E221EEE3
:104E400041EE67ED7CE50E94982680E00F91089581
:104E5000253FFCE53F07E9F0B0F0263F3C45F9F07F
:104E6000FC018281882339F110922604EFCF07E2FA
:104E700025EE45EE68ED7CE5E6CF06E221EE40EE5C
:104E800063EF7CE5E0CF07E225EE44EE64EF7CE5DE
:104E9000DACF06E221EE42EE65EF7CE5D4CF07E201
:104EA00025EE46EE66EF7CE5CECF08E221E045EE4A
:104EB00069ED7CE5C8CF81E0C9CFCF93DF93EC01EA
:104EC000FB018281882309F41BC1C230FCE5DF07A6
:104ED000C0F1C6319CE5D90730F09E012A5F3C4500
:104EE0002930310570F50E9478349093A2068093A2
:104EF000A106C031ECE5DE0709F4CFC008F057C0C9
:104F0000C8308CE5D80709F4B2C088F5C430ECE5A8
:104F1000DE0709F4A2C0C0F4C2308CE5D80709F45A
:104F200096C08091A1068260C330DC4509F492C02E
:104F30008091A1069091A2060E9486340E94F02DD5
:104F400080E0DF91CF9108958091A1068061C63005
:104F5000ECE5DE0709F47EC08091A1068860C730C9
:104F6000DC4508F477C08091A106806273C0CC3024
:104F70008CE5D80709F489C058F4CA30ECE5DE079F
:104F800009F47FC008F477C08091A1068E7F62C0CB
:104F9000CE308CE5D80709F47CC08091A106CF30D3
:104FA000DC4508F485C08091A1068F7E53C0CB3FBD
:104FB000ECE5DE0709F455C020F5C3318CE5D807D0
:104FC00009F473C078F4C131ECE5DE0709F469C077
:104FD000C231DC4509F0ACCF0E94F02D8091A106D2
:104FE0008F7738C0C5318CE5D80709F468C008F45C
:104FF0007CC08091A206CA3FDC4509F099CF816050
:1050000033C0CF3FFCE5DF0709F454C088F480913A
:10501000A2068D7FCD3F9CE5D90731F18091A20694
:10502000CE3FDC4508F449C08091A2068260E7CFFC
:10503000C130FDE5DF0709F461C008F44CC080E031
:10504000C230DD4509F074CF0E940B3571CF8091DD
:10505000A10681608093A1066BCF8091A106846038
:10506000F9CF8091A20682608093A20661CF8091E1
:10507000A1068064EFCF0E94F02D8091A106806888
:10508000E9CF8091A1068860EACF8091A1068D7F4B
:10509000E1CF8091A106877FDDCF8091A1068F7D32
:1050A000D9CF8091A1068F7BD5CF8091A106877F34
:1050B0008B7FD0CF8091A2068D7F8E7FD5CF8091C0
:1050C000A10682FB992790F921E0922790FB82F9B3
:1050D00090FB83F9BFCF8091A206982F9095917095
:1050E0008E7F892B90FB81F9BFCF0E94F02D90918C
:1050F000A106892F97FB87F98058ACCF81E0A4CF18
:1051000081E01FCFCF93DF9386319C4519F5EB01EA
:105110000E94AB339A81992399F08A7A91E009F43D
:1051200090E090932704811109C089E20E948633A0
:105130000E94FA3380E0DF91CF91089585E3F6CFA6
:1051400080912704811104C089E20E948D33F0CF41
:1051500085E3FBCF81E0EFCF90932D0480932C0467
:105160000895E0912C04F0912D04309721F00190E6
:10517000F081E02D099480E00895E0912C04F091F5
:105180002D04309711F480E008950190F081E02D16
:1051900009950895E0912C04F0912D04309799F031
:1051A0002091C802222359F02091A10627FF07C0B1
:1051B000DC012C9111962C93119725E02C93028001
:1051C000F381E02D09940895E0912C04F0912D04D1
:1051D000309739F022E0DC012C930480F581E02D3A
:1051E0000994089520912A0430912B042817390737
:1051F00071F090932B0480932A04E0912C04F09199
:105200002D04309721F00680F781E02D0994089550
:1052100020912804309129042817390771F09093C0
:10522000290480932804E0912C04F0912D043097F8
:1052300021F00084F185E02D099408950E945936EB
:1052400060933F0470934004809341049093420420
:1052500060933B0470933C0480933D0490933E0420
:10526000089585B7806885BF85B7806885BF089534
:10527000089508950C94382908950C943C290E94AF
:1052800031298DE594E30E94DA360E9439290C9485
:105290003A2981E008950C944929089508950E94BF
:1052A00044360E94CD090E9457210E94F5360C9485
:1052B0003D296F927F928F929F92AF92BF92CF9231
:1052C000DF92EF92FF920F931F93CF93DF93CDB7AF
:1052D000DEB72A970FB6F894DEBF0FBECDBF0E948F
:1052E0004D290E944E290E94FD0981110E941E290C
:1052F0003FE2832E34E0932E10E000E0E02E802F7A
:105300000E94A4095C01F401619071904F0168163C
:10531000790609F466C08091E50481FD0E94AD091B
:10532000F12CCC24C394D12C6A247B24C3018C217E
:105330009D21892B09F44FC00E944B2995012C21F6
:105340003D21BB24B394232B09F4B12C882379F09D
:10535000FE82EF82B8860E944D368160782F9A8750
:1053600089874E815F8168858A850E941D2A000F8A
:10537000111FF801E15DFB4F80819181C826D9267C
:10538000D182C0824B2D6F2D8E2D0E94441C0E9415
:10539000021D0E947A0E0E94B12890912E04891756
:1053A000B9F10E94B12880932E042A960FB6F89482
:1053B000DEBF0FBECDBFDF91CF911F910F91FF9048
:1053C000EF90DF90CF90BF90AF909F908F907F90A5
:1053D0006F900C947E07F394CC0CDD1CF0E1FF126F
:1053E000A5CF0F5F1F4F0630110509F087CF8FEF54
:1053F00089838A831B820E944D368160782F9D832A
:105400008C8349815A816B818D810E941D2ABFCF77
:105410002A960FB6F894DEBF0FBECDBFDF91CF91B5
:105420001F910F91FF90EF90DF90CF90BF90AF90C2
:105430009F908F907F906F900895DF92EF92FF92F0
:105440000F931F93CF93DF93CDB7DEB72B970FB694
:10545000F894DEBF0FBECDBF7A878B87F42E052F61
:10546000162FE72ED82E61110E94CD331E821D8289
:105470007E2DEC82DD824F2D502F612F8D2D9E8150
:105480002B960FB6F894DEBF0FBECDBFDF91CF9144
:105490001F910F91FF90EF90DF900C948F30FC01E3
:1054A000808191810C945833CF93882309F491C063
:1054B000C82F8238C1F40E94B12881FD8AC089E3D7
:1054C0000E9486330E94FA332FEF81EE94E0215040
:1054D00080409040E1F700C0000089E30E948D33D6
:1054E000CF910C94FA338338A1F40E94B12880FD47
:1054F00070C083E50E9486330E94FA332FEF81EE5D
:1055000094E0215080409040E1F700C0000083E526
:10551000E5CF8438A1F40E94B12882FD5AC087E407
:105520000E9486330E94FA332FEF81EE94E02150DF
:1055300080409040E1F700C0000087E4CFCF8CEFBF
:105540008C0F813AB8F48C2F0E94640C811141C0F9
:105550006C2F8091BC029091BD020E94243588235B
:1055600029F08C2F0E948D330E94FA338C2F0E94D9
:105570008633B6CF80E28C0F883048F4C77081E064
:1055800001C0880FCA95EAF70E94AE33A9CFEBE5B8
:10559000EC0FE33040F4F0E0ED59FC4F808190E0F7
:1055A000CF910C94F228E8E5EC0FE73150F4F0E0ED
:1055B000EE0FFF1FEB5CFC4F80819181CF910C942B
:1055C0000829C03F30F08C2F0E94700DCF910C94B1
:1055D0005C0ECF910895882309F452C0823871F48B
:1055E0000E94B12881FF4CC089E30E9486330E944B
:1055F000FA3389E30E948D330C94FA33833859F4DB
:105600000E94B12880FF3CC083E50E9486330E943F
:10561000FA3383E5EFCF843859F40E94B12882FF32
:105620002FC087E40E9486330E94FA3387E4E2CFDA
:105630009CEF980F913AF0F290E2980F983050F466
:10564000877091E001C0990F8A95EAF7892F0E942F
:10565000B433D2CF9BE5980F933020F490E080E0F4
:105660000C94F22898E5980F973120F490E080E0B0
:105670000C940829803F20F00E94D80D0C945C0EF9
:1056800008951F93CF93DF93182FEB010E94542AA4
:10569000209731F4812FDF91CF911F910C94EB2A49
:1056A0008FE99FE00197F1F700C000002197F0CF4C
:1056B00070E060E0893311F460E570E00C94412BF8
:1056C000882321F00E94AE330C94FA330895882386
:1056D00021F00E94B4330C94FA330895BF92CF9214
:1056E000DF92EF92FF920F931F93CF93DF936C01A2
:1056F000D62FC72FFC011281058102950F700E94E1
:10570000A433E82E8823A1F0E12E112389F08C2FF9
:10571000807F803429F080E28D0FE12C883040F0CA
:1057200082E00E9445340E94A43391E0E82EE926ED
:10573000BC2EB2949FE0B922EB2DF0E0EE55F44D73
:105740000C94D23EB22BB22B082C082C5A2C762C5F
:10575000DF2BDF2B832C0F2D1E2D1E2D7A2DDF2B03
:10576000DF2B832D0C2F0F70C07F11F00295007F6F
:105770001123A9F0002359F080E28D0F883010F03A
:10578000D11109C0802F0E94AE330E94FA338D2FB1
:105790000E94542A14C0802F0E94BF33F6CF8D2F51
:1057A0000E94EB2A002359F080E28D0F883010F020
:1057B000D1112AC0802F0E94B4330E94FA3388EF9F
:1057C0008B0D843020F40E94B1280E947E07EE20C9
:1057D00009F4A0C10E94A03380FD9CC1F601128291
:1057E0000E949A330E942232C6010E94AB2D0E9471
:1057F0009A33DF91CF911F910F91FF90EF90DF903F
:10580000CF90BF900C944332802F0E94C533D5CFE8
:10581000FC2FFF70FF2EC07FC03219F0F29480EF92
:10582000F822DD2369F0D13049F1112391F10023F1
:1058300051F1F601858180FFAACF8F70858323C047
:10584000112381F0011106C00E94E1338F290E94CB
:10585000602BB5CF0130C1F70E94E1338F290E9440
:10586000E733ADCF011106C00E94F0338F2D0E94A7
:10587000672BA5CF013009F4A2CFF6CF112329F071
:10588000063008F09CCF8F2DE2CF053008F097CF7F
:10589000EDCF002359F3D93349F4FFEF27EE83E02E
:1058A000F15020408040E1F700C000008D2F0E94A1
:1058B000EB2A85CF8C2F86958695837069F0813091
:1058C00009F07DCF8D2F9C2F9370111102C090E0B5
:1058D00080E00E94082973CF8D2F9C2F93701111A7
:1058E00002C090E080E00E94F22869CF8D2F112342
:1058F00039F00E94700D0E945C0E0E945C0E5FCF1A
:105900000E94D80DFACF8C2F837009F041C011117D
:105910005ACF4D2F429546954770440F440F0D2F97
:105920000F7010E030E020E0042E04C0000F111FC3
:10593000221F331F0A94D2F760E070E0CB01D4FF3E
:105940000FC06FE070E080E090E004C0660F771F4A
:10595000881F991F4A95D2F760957095809590950C
:10596000602B712B822B932BC695C695C370C230CA
:1059700049F058F4C13019F00E94D43120CF0E9470
:10598000C2311DCF0E94E6311ACF0E94C03117CF1D
:105990008695112311F08C2F8170882309F413CF81
:1059A0004D2F429546954770440F440F0D2F0F70B1
:1059B00010E030E020E0042E04C0000F111F221F71
:1059C000331F0A94D2F760E070E0CB01D4FF0FC020
:1059D0006FE070E080E090E004C0660F771F881FE2
:1059E000991F4A95D2F76095709580959095602B98
:1059F000712B822B932BC695C695C370C23049F08C
:105A000058F4C13019F00E949932D9CE0E948732E1
:105A1000D6CE0E94AB32D3CE0E94FC31D0CECF7016
:105A2000112329F08C2F0E9422328D2F10CF8D2F21
:105A30000E94672B8C2F0E944332C1CED23F89F146
:105A400060F4D03FC9F0D13F29F1112309F442C0DD
:105A500001119DCE8C2F8F7121C0D33F39F1D43FDE
:105A6000A1F7112369F1CF718C2F0E94223263E0DC
:105A70008C2F0E943034A3CE112341F0053008F062
:105A80009ECE8C2F8F710E94663299CE063008F020
:105A900096CEF7CF8C2F8F71112369F20E9422329C
:105AA0008ECE8C2F8F711123C9F3C5CF112329F00E
:105AB0008C2F8F710E940D3282CE0E9408327FCED1
:105AC00081E00E944534023008F479CE82E00E94E1
:105AD000453475CE002359F0D93309F0E7CE9FEF56
