:100000000C9477030C94BE030C94BE030C94BE03B3
:100010000C94BE030C94BE030C94BE030C94BE035C
:100020000C94BE030C94BE030C945C380C943039D1
:100030000C94E12F0C94BE030C94BE030C94BE03ED
:100040000C94BE030C94BE030C94BE030C94BE032C
:100050000C94BE030C9454300C94BE030C94BE0359
:100060000C94BE030C94BE030C94BE030C94BE030C
:100070000C94BE030C94BE030C94BE030C94BE03FC
:100080000C94BE030C94BE030C94BE030C94BE03EC
:100090000C94BE030C94BE0329003A003B003C00C4
:1000A0003D003E003F00400041004200430044004C
:1000B000450046004700480035001E001F00200094
:1000C00021002200230024002500260027002D0007
:1000D0002E0049004A004B002B0014001A000800B3
:1000E000150017001C0018000C00120013002F0050
:1000F00030004C004D004E0039000400160007008F
:1001000009000A000B000D000E000F003300340040
:1001100028002A0000000000E10000001D001B0074
:1001200006001900050011001000360037003800E5
:10013000E50031005200E400E000E300E2000000CE
:10014000000000002C00000000000000E600E700B6
:100150000151500051004F00010001000100010059
:100160000100010001000100010001000100010087
:1001700001000100010001000100C35CC45CC65C19
:10018000C75CC85CC95CCA5CCB5C010001000100B3
:100190000100010001000100010001000100010057
:1001A0000100010001000100010001000100010047
:1001B0000100010001000100010001000100010037
:1001C0000100010001000100010001000100010027
:1001D000010001000000000001000000010001001A
:1001E0000100010001000100010001000100010007
:1001F00001000100BF5C01000100010001000000DE
:1002000000000000010000000000000001000100EB
:100210000100C05CBE5CC15C010001000100010086
:1002200001000100010001000100010001000100C6
:1002300001000100010001000100010001000100B6
:1002400001000100010001000100010001000100A6
:100250000100010001000100010001000100010096
:100260000100010001000100010001000100010086
:100270000100010001000100010001000100010076
:100280000100010001000100010001000100010066
:100290000100010000000000010000000100010059
:1002A0000100010001000100010001000100010046
:1002B0000100010001000100010001000100000037
:1002C000000000000100000000000000010001002B
:1002D0000100010001000100010001000100010016
:1002E0000100010001000100010001000100010006
:1002F00001000100010001000100010001000100F6
:1003000001000100010001000100010001000100E5
:1003100001000100010001000100010001000100D5
:1003200001000100010001000100010001000100C5
:1003300001000100010001000100010001000100B5
:1003400001000100010001000100010001000100A5
:100350000100010000000000010000000100010098
:100360000100010001000100010001000100010085
:100370000100010001000100010001000100000076
:10038000000000000100000000000000010001006A
:100390000100010001000100000000000000000059
:1003A0002A2B2800000000000000000000000000D0
:1003B00000000029000000002C1E342021222434DB
:1003C0002627252E362D3738271E1F2021222324AD
:1003D00025263333362E37381F0405060708090A49
:1003E0000B0C0D0E0F101112131415161718191AE5
:1003F0001B1C1D2F3130232D350405060708090A63
:100400000B0C0D0E0F101112131415161718191AC4
:100410001B1C1D2F3130354C000000000000000077
:100420000000000000000000000000007E0F00D46B
:10043000FFFFFFC700000078000101010101010179
:100440000101020202020202020202030303030389
:100450000303030404040404040405050505050658
:100460000606060607070707070808080809090916
:10047000090A0A0A0B0B0B0C0C0C0D0D0D0E0E0EBF
:100480000F0F0F1010111111121213131414151550
:1004900016161717181819191A1A1B1B1C1D1D1EC2
:1004A0001E1F202021222223242425262627282916
:1004B000292A2B2C2D2D2E2F303132323334353644
:1004C0003738393A3B3C3D3E3F4041424344454644
:1004D0004748494A4C4D4E4F505153545556585920
:1004E0005A5B5D5E5F616264656668696B6C6D6FC7
:1004F0007072737577787A7B7D7E8082838587883A
:100500008A8C8E8F91939596989A9C9EA0A2A3A573
:10051000A7A9ABADAFB1B3B5B7BABCBEC0C2C4C674
:10052000C9CBCDCFD1D4D6D8DBDDDFE2E4E7E9EB30
:10053000EEF0F3F5F8FAFDFF0A0358004F0038001B
:100540003700000018034D006F006E007300740048
:100550006100720067006500610072000000040322
:10056000090409025B00030100A0FA09040000016C
:10057000030101000921110100012240000705814A
:100580000308000A09040100020300000009211108
:100590000100012222000705820320000107050354
:1005A00003200001090402000103000000092111D9
:1005B00001000122BC000705840320000A1201107B
:1005C0000100000008474D4F5801000102000106DC
:1005D00060FF0961A1010962150026FF00952075E1
:1005E0000881020963150026FF0095207508910215
:1005F000C005010902A10185020901A1000509192F
:1006000001290515002501950575018102950175E2
:100610000381010501093009311581257F95027596
:1006200008810609381581257F9501750881060521
:100630000C0A38021581257F950175088106C0C016
:1006400005010980A101850319012AB700150126BA
:10065000B700950175108100C0050C0901A1018545
:100660000419012AA002150126A002950175108126
:1006700000C005010906A1018505050719E029E764
:10068000150025019508750181020507190029EF5C
:100690001500250195F0750181020508190129054C
:1006A000950575019102950175039101C005010938
:1006B00006A101050719E029E71500250195087530
:1006C0000181029501750881010507190029FF15AF
:1006D0000026FF0095067508810005081901290507
:1006E000950575019102950175039101C0001124D2
:1006F0001FBECFEFD0E1DEBFCDBF04B603FE27C0E3
:100700008091970690919806A0919906B0919A06CB
:100710008730904BA740B04BD1F4109297061092BF
:1007200098061092990610929A0614BE84B7877F95
:1007300084BF0FB6F894A89580916000886180937B
:100740006000109260000FBEE0E0F8E7099513E04A
:10075000A0E0B1E0E8E0FAE702C005900D92AE3605
:10076000B107D9F726E0AEE6B3E001C01D92A73984
:10077000B207E1F70E9421350C944D3C0C94000027
:1007800081E00E948E1A0C948C2F80E00E948E1AB9
:100790000C94D62FCF930E94FE22C82F20E040E079
:1007A0006FEF82FF60E08CE590E00E94A70F20E0F1
:1007B00040E06FEFC0FF60E08DE590E00E94A70F82
:1007C00020E040E06FEFC1FF60E08EE590E0CF9168
:1007D0000C94A70F81E0089581E008950C94EC0338
:1007E00008950C94F0031F93CF93DF9300D000D0B3
:1007F0000F92CDB7DEB749835A836B8330911C04C7
:1008000089819A8131111DC06623B9F02223A9F094
:100810000E94D12C182F682F89819A810E947E2CEA
:1008200069817A81812F0F900F900F900F900F9018
:10083000DF91CF911F910C9417200E94AA2C182FA2
:10084000EFCF0E94D12C69817A81EDCFFC01262F58
:10085000408151816281738184810C94F303CF9331
:10086000DF93EC0160E00E942604BE01DF91CF918E
:100870000C94F103FF920F931F93CF93DF93E82F14
:10088000F0E0E856FC4FF490C82FC695C695C69583
:10089000D0E0FE01E85DFB4F0491877010E0082E68
:1008A00002C0159507950A94E2F701701127C85EFA
:1008B000DB4FFE01C491D0E002C0D595C7958A9563
:1008C000E2F7C170DD270115110519F081EE0E94D4
:1008D0006C24209719F086EE0E946C248F2D0E94C4
:1008E0005925CD2B19F086EE0E940325012B41F0EE
:1008F00081EEDF91CF911F910F91FF900C94032512
:10090000DF91CF911F910F91FF900895EF92FF9289
:100910000F931F93CF93DF93EC01162F0AE088818A
:10092000882309F454C0813009F04EC08981813098
:1009300099F47E0122E0E20EF11C8A810E94592581
:10094000E7012196812F815050F3EFE9FFE03197C5
:10095000F1F700C00000F7CF823041F47E0182E061
:10096000E80EF11C8A810E946C24EACF833041F4A6
:100970007E01E2E0EE0EF11C8A810E940325E0CFA9
:10098000843011F02196DDCF2A81229690E080E01C
:10099000AE014F5F5F4F2053330B2A30310548F0D3
:1009A000019778F2EFE9FFE03197F1F700C000001E
:1009B000F7CF089FB001099F700D1124C901860F60
:1009C000971F2981EA01E4CF0E943A04BACFDF9150
:1009D000CF911F910F91FF90EF90089560E00C94DC
:1009E00086048F929F92AF92BF92CF92DF92EF9246
:1009F000FF920F931F936B017C0181E090E0A0E0D8
:100A0000B0E04C015D0104C0880C991CAA1CBB1C01
:100A10004A95D2F7B501A4014C015D0104C0880CD0
:100A2000991CAA1CBB1C2A95D2F7482959296A2966
:100A30007B2904C0880F991FAA1FBB1F0A95D2F7F4
:100A40008A019B010C211D212E213F21041715072E
:100A50002607370789F48C299D29AE29BF29BC01B7
:100A6000CD011F910F91FF90EF90DF90CF90BF903D
:100A7000AF909F908F90089580959095A095B09598
:100A80008C219D21AE21BF21EACF0F93382F262F35
:100A900060919104709192048091930490919404D8
:100AA000042F432F0E94F1040F910C94BC2B0E9441
:100AB0009E300E941B2E811102C00E94C82E0E94EF
:100AC0002E1D0E94321A0C94D8070E9481180C9493
:100AD000DB0708950E94E8270E9469052FEF84E351
:100AE0009CE0215080409040E1F700C000000C9451
:100AF00078300F931F93CF93DF93EC0161E00E9456
:100B000026048C01BE010E94C8178823E9F1BE01AA
:100B1000C8010E94B41D8823B9F1BE01C8010E941A
:100B2000EE03882389F1BE01C8010E94FE1C8823C0
:100B300059F1BE01C8010E944E21882329F1BE014E
:100B4000C8010E94A0218823F9F0BE01C8010E94BB
:100B5000C3228823C9F0BE01C8010E94C91B882393
:100B600099F08A81882339F001158CE5180751F036
:100B70000F3D1C4579F0CE01DF91CF911F910F9170
:100B80000C94EA030E946A0580E0DF91CF911F91E7
:100B90000F9108950E94C82EF7CF08950C94CD05AB
:100BA00081E008950C94D005CF93C82F0E94CE0504
:100BB0008C2FCF910C94D20590E080E00895089599
:100BC000FC01EE0FFF1FE85CFB4F859194910895A7
:100BD000CF93DF930E9417200E94FD06EC01811540
:100BE00020E5920708F042C0811530E4930708F031
:100BF000BDC0883E910528F5803E910508F09DC056
:100C0000883A910588F4853A910508F08FC08130C3
:100C1000910509F492C0009709F48FC0049708F079
:100C20008CC0D0E0C0E089C08F3B910508F489C03A
:100C3000805C9109C03CD105A0F30E94E005EC0165
:100C40007CC08115904250F4C11581E0D80708F0AE
:100C500074C0C03FD10528F3D0656FC0C11590E3C3
:100C6000D90708F079C0CE019F70E7CF811525E53F
:100C7000920758F5811534E5930708F0A6C0811551
:100C800042E5940750F4C11581E5D80708F471C016
:100C9000DC2FCC27C16FD06A50C0982F96959695BF
:100CA0009E0123703327C115D34508F07FC0C1E0F2
:100CB000D0E002C0CC0FDD1F2A95E2F720E2929F20
:100CC000C0011124C82BD92B6FC0C11589E5D807E5
:100CD000A8F4C11598E5D90708F07CC0C11526E530
:100CE000D20708F09ECF8C2F0E949407C82FD0E027
:100CF000DC2FCC27CC27DF71D0621FC0C1153AE5AD
:100D0000D30708F46CC0CE0190568115904208F0CC
:100D100088CF8D2F8F710E94940790E0982F88279D
:100D200088279F719C012C2BE901E6CFC55AD0E0A2
:100D3000C650DD4FC881D0E0D064CE01DF91CF91A5
:100D40000895C85AD0E0CC0FDD1FC453DD4F099081
:100D5000D881C02DD464F1CFCE019927D3FF03C031
:100D6000EC01D86CEACFEC01D06CE7CFDF70D06A31
:100D7000E4CFCE01E4E096958795EA95E1F783709C
:100D80002C2F26952695237090E2299F90011124FF
:100D9000382B8C2F8370C1E0D0E002C0CC0FDD1F58
:100DA0008A95E2F7C22BD32BDC68C7CFC1E0D0E035
:100DB00002C0CC0FDD1F2A95E2F730E2939FC001FD
:100DC0001124C82BD92BDA68B8CFD82FCC27C46F01
:100DD000D06AB3CFDC2FCC27C06FD06AAECF8C2FB8
:100DE0008F700E94940734E0D695C7953A95E1F745
:100DF000CF709C2FEC01D069A0CF82389105B1F162
:100E0000B0F48133910509F475C048F48932910535
:100E100009F469C08A32910509F473C008958533D5
:100E2000910509F459C08933910501F10895833E74
:100E30009105A9F138F4803E9105F9F0823E9105C3
:100E400049F10895863E9105A9F1873E9105C9F1C2
:100E5000843E910519F52091890621FF1FC08091DC
:100E6000880684FD14C087EE90E0089520918806DE
:100E70002370A1F080EE90E008952091880620FD77
:100E800047C03091890630FF09C024FF44C090E07C
:100E900080E004C02091880622FDF7CF08952091BC
:100EA000880622FD3BC03091890630FDE3CF24FF48
:100EB000F5CFEDCF2091880623FFF0CF24FDE7CFBB
:100EC000D2CF2091880623FD2CC03091890631FFB6
:100ED000EECF84EE90E008952091880625FFDECFC6
:100EE00089E290E008952091880625FFD7CF85E319
:100EF00090E008952091880626FFD0CF8AE290E006
:100F000008952091880626FFC9CF81E390E00895D7
:100F100089E390E0089583EE90E0089582EE90E0FA
:100F2000089586EE90E008959091880692FF06C09D
:100F3000282F28712830F9F4877F846093FF06C03A
:100F4000282F28712831F1F4877E84612091890649
:100F500020FF06C0382F38713830D9F4877F816080
:100F600021FF06C0282F28712831D1F4877E8161A6
:100F700094FD877E0895282F24712430F9F68B7F05
:100F80008860DCCF282F2471243101F78B7E8861A3
:100F9000DDCF382F3171313019F78E7F8860E0CF87
:100FA000282F2171213121F78E7E8861E1CF0895AC
:100FB0000C94D70708950C94DA07E82FF0E0EE0FB1
:100FC000FF1FE550FB4F808191810895089580EACD
:100FD0008A95F1F70895F894E82FE295EF70F0E024
:100FE00031A1282F2F7081E090E001C0880F2A9551
:100FF000EAF7982F9095932391A392A1892B82A32E
:1010000078940895CF93DF93CDEFD2E089910E9439
:10101000EB0783E0CD30D807C9F786EC0E94EB07D9
:1010200087EC0E94EB0783EC0E94EB0780E30E94B1
:10103000EB0781E30E94EB0782E00E94EB07EFEEF3
:10104000F4E0ABEFB4E0119211921D921D9284E096
:10105000EB3FF807C1F786E00E94C808DF91CF9107
:101060000C9457056F927F929F92AF92BF92CF924E
:10107000DF92EF92FF920F931F93CF93DF939DEF39
:10108000E92E92E0F92E10E000E0C0E0CC24C394F9
:10109000D12C3BEFA32E34E0B32ED7018D917D01EF
:1010A000F894E82FE295EF70F0E021A18F70A6018F
:1010B00002C0440F551F8A95E2F7CA01922F982B60
:1010C00091A392A18095892382A378940E94E70737
:1010D000A601002E02C0440F551F0A94E2F7BA0180
:1010E00060957095EFEEF4E08DE0682E83E0782E49
:1010F000D0E021913191D3019D903D01892D8295C0
:101100008F7090E0DC0190968C9190E0B92DBF70CB
:1011100002C095958795BA95E2F780FD35C0C90163
:10112000842B952B2817390739F09F01225031095C
:10113000D9018D939C93D1E0AE16BF06D1F6F7018D
:10114000319780810E94EB07CD2B0F5F1F4F00313D
:10115000110509F0A2CF2C2F46E06BEF74E08FEE63
:1011600094E00E94C9080E9465058C2FDF91CF9101
:101170001F910F91FF90EF90DF90CF90BF90AF90B5
:101180009F907F906F900895C90186239723CACFBF
:101190000895FF920F931F93CF93DF93F82E092F9B
:1011A000162FD72FC42F222349F081E0809370039C
:1011B0000E94113090936F0380936E0380917003AF
:1011C0008823A1F080916E0390916F030E942930D3
:1011D000069760F0EF2DF02FA12FBD2F90E080E05B
:1011E000D0E08C179D0744F010927003DF91CF91EF
:1011F0001F910F91FF900895219131912D933D936F
:101200000196EFCF833081F128F4813059F082309C
:10121000D1F00895853009F449C0B8F1863009F459
:1012200056C008958091BD02482F460F5527551F7F
:101230004F3F510524F4680F6093BD0208958FEF6E
:101240008093BD0208958091BC02482F460F552718
:10125000551F4F3F510524F4680F6093BC02089559
:101260008FEF8093BC0208958091BB02482F460FF8
:101270005527551F4F3F510524F4680F6093BB025B
:1012800008958FEF8093BB0208958091BA02482F92
:10129000460F5527551F4F3F510524F4680F6093A3
:1012A000BA0208958FEF8093BA0208958091B70231
:1012B000482F460F5527551F4F3F510524F4680FFF
:1012C0006093B70208958FEF8093B70208958091DD
:1012D000B602482F460F5527551F4F3F510524F49E
:1012E000680F6093B60208958FEF8093B602089559
:1012F000833011F128F4813049F0823091F0089563
:10130000853081F120F18630C1F108958091BD02D0
:10131000681720F4861B8093BD0208951092BD02C9
:1013200008958091BC02681720F4861B8093BC024C
:1013300008951092BC0208958091BB02681720F4B2
:10134000861B8093BB0208951092BB020895809182
:10135000BA02681720F4861B8093BA02089510928F
:10136000BA0208958091B702681720F4861B809313
:10137000B70208951092B70208958091B6026817D7
:1013800020F4861B8093B60208951092B602089549
:101390000F931F9341E050E060E070E08A019B01F1
:1013A00004C0000F111F221F331F8A95D2F7C901F5
:1013B000B8010E94802B1F910F910C94E827EBEF4E
:1013C000E80FEF3308F05AC0F0E0E15BF34C0C9407
:1013D000293B0E94C82E81E008958091BE04807F41
:1013E0008093BE0481E08093720308950E946A0591
:1013F000F2CF9091BE04892F8E7F90FF8160809301
:10140000BE0480FDE8CF817F8093BE04E4CF90913D
:10141000BE04892F8D7F91FF82608093BE0481FF7F
:10142000DACF8091BE048160EFCF9091BE04892F06
:101430008B7F92FF84608093BE0482FDF2CFCBCF7E
:101440009091BE04892F877F93FF88608093BE04AC
:1014500083FDE7CFC0CF0E94E82790918806892FAF
:1014600097FB87F9805880938806B5CF80E00E946B
:10147000C809B1CF8953FBCF8D51F9CF80E00895D2
:1014800080E008950C94400A8E518A3030F4E82FA1
:10149000F0E0ED5EFC4F8081089580E00895CF93E9
:1014A000C82F809172038130B9F0882331F08230E7
:1014B000A1F11092720380E00DC00E94662D82326D
:1014C000D1F78C2F0E94400A81111BC08C2F0E94E3
:1014D000DF098170CF9108950E94662D823289F3D1
:1014E0008C2F0E94420A81110AC0C43199F060F425
:1014F000CB3029F0C03169F782E08093720381E03C
:10150000E8CF81E090E0E5CFC93221F0C833B9F3EC
:1015100080E0DFCF10927203FBCFC93219F188F45B
:10152000C43101F120F4C73081F181E0D3CF82EEE4
:101530008C0F8630D0F78C2F0E94440A8093710361
:10154000F4CFCE3401F140F46AE0CB3471F78091EE
:1015500071030E940209E9CFC13579F061E0C2351B
:10156000B1F3E3CF80917103882319F010927103D6
:10157000DCCF81E080937203ADCF61E08091710395
:101580000E947809D2CF6AE0F9CF8EE18093BD0244
:1015900082E38093BC028AE08093BB0284E1809363
:1015A000BA0288E08093B70288E28093B602BDCF8A
:1015B000EF92FF920F931F93CF93DF93EB01E82FEE
:1015C000D11110C0442321F0F0E0E85CFB4FE4911E
:1015D0006E2F7E2F8E2FDF91CF911F910F91FF9055
:1015E000EF9008950D2F10E0282F30E0442329F0CC
:1015F000285C3B4FF901249130E0F6E0CF9FC00119
:101600001124EFEFF0E0BF010E94E23AAB018C2F12
:1016100090E0880F991FA5E5A49FB001A59F700DCC
:101620001124861B970B982F990F980FBF01601BF1
:10163000710B629FD001639FB00D729FB00D11249A
:101640008B2F9D9FB0011124672F7727EF01C61BB9
:10165000D70BBE01629FE001639FD00D729FD00D3A
:1016600011247F01E91AF108E09EB001E19E700D9E
:10167000F09E700D1124672F7727E61BF70BE29F72
:101680008001E39F100DF29F100D1124E12F722FA6
:101690004230510599F048F44115510569F0413047
:1016A000510581F0EB2F8D2F07C04430510569F0B3
:1016B00080F046305105B1F76E2F8DCFE22F7B2F92
:1016C000812FFACFE22F7D2FF7CFEB2F822F712FB3
:1016D000F3CF7B2F822FED2FEFCF41E00C94D80A70
:1016E00030E020E0869F212D969F200D311D112492
:1016F000C9010895AC018230910508F408959FEF67
:10170000413E8EE1580740F49A0195E036952795C1
:101710009A95E1F798E0920F61E0E62FE90FFF2735
:10172000FF1F9F0135952795822F229FF001239F50
:10173000F00DF00D11244E175F0738F49FEF920F54
:10174000961758F78FEF860F08952F3FE9F361E062
:10175000620FF6CFE82F86FDE0952E2F2F7086FDC5
:101760002F5FE695E695E695E670F0E0E35EFC4FC8
:101770009181929F902D212D112492959F702295F9
:10178000207F922B2081920F87FD919580E8890F11
:101790000895E42FF0E0EE0FFF1FEC59FE4F40815B
:1017A00034EE439F412D1124E72FF0E050E0445EDA
:1017B0005F4FDA01A21BB1099D01B7FF03C031954C
:1017C0002195310993E0220F331F9A95E1F7AF017C
:1017D000421B530B9A0157FD20E0279F212D112416
:1017E000722F0895E42FF0E0EE0FFF1FEC59FE4F2B
:1017F000408134EE439F412D1124E82FF0E050E06A
:10180000445E5F4FDA01A21BB1099D01B7FF03C01F
:1018100031952195310993E0220F331F9A95E1F715
:10182000AF01421B530B9A0157FD20E0582F259F13
:10183000212D1124822F0895622F0895E42FF0E0C6
:10184000EE0FFF1FEC59FE4F6081621B0895E42FDD
:10185000F0E0EE0FFF1FEB59FE4F6081621B089511
:10186000322F50E0FA01EE0FFF1FEB59FE4F90812F
:10187000905297FD9195440F551FFA01EC59FE4F78
:101880002081231B330B290F311D97FD3A95620FE1
:101890000895EF920F93972F23E0029FB001112438
:1018A000759567956E0D792F0F91EF9008950F93B1
:1018B000CF93DF93D72FC82F47FD419588E390E062
:1018C000841B910947FD9395889FB001899F700DF6
:1018D000700D1124229FC001239F900D900D1124A3
:1018E000860F971F0E947A0B982F990F890F682FE8
:1018F000600F7D2F8C2FDF91CF910F9108950F9363
:101900001F93522F10E0F801EE0FFF1FEB59FE4F0F
:10191000A081A052BB0B9D015203F001539FF00D1B
:101920001124000F111FD801AC59BE4F0C91005764
:10193000110B40039001419F300D11242E0F3F1FCA
:1019400037FF02C021583F4F220F232F221F330B96
:10195000620F1F910F9108950F931F93522F10E064
:10196000F801EE0FFF1FEB59FE4FA081A052BB0BF9
:101970009D015203F001539FF00D1124000F111F20
:10198000D801AC59BE4F0C910057110B4003900188
:10199000419F300D11242E0F3F1F37FF02C0215CE5
:1019A0003F4F96E0359527959A95E1F7620F1F9185
:1019B0000F9108950F931F9310E0F801EE0FFF1F92
:1019C000EC59FE4F9081905797FD9195000F111F94
:1019D000F801EB59FE4F00810052110B2003F0017A
:1019E000219FF00D112408E310E0091B110997FD58
:1019F000139540039001419F300D1124E20FF31F16
:101A00009F01220F331F2E0F3F1F37FF02C02158A7
:101A10003F4F220F232F221F330B620F1F910F9175
:101A200008954095282F429F412D1124842F089519
:101A300022E8241B08F420E0620F0895EF92FF9241
:101A40000F93970195E0099F200D311D11242F3F21
:101A5000310519F010F02FEF30E02095382F320FBC
:101A600008F43FEF832F0F91FF90EF900895EF92CE
:101A7000FF920F931F930E0D1F2D111DF90137FFBC
:101A800003C0F195E195F10924E0EE0FFF1F2A95BF
:101A9000E1F7EF3FF10519F014F0EFEFF0E09A01F4
:101AA00057FF03C031952195310994E0220F331F70
:101AB0009A95E1F72E173F070CF4F901E00FF11F9B
:101AC000EF3FF10519F010F0EFEFF0E0E095282F6F
:101AD0003E2F230F08F42FEF822F1F910F91FF90BD
:101AE000EF900895EF92FF920F93972F093438F4F7
:101AF000B701601B71096F3F710519F010F06FEFAE
:101B000070E0485F5F4F4131510540F0A901485FE7
:101B10005F4F4131510510F06FEF70E06095482F35
:101B2000460F08F44FEF842F37FF02C02D5F3F4F61
:101B3000359527953595279560910805620F792F82
:101B40000F91FF90EF900895EF92FF920F939701FE
:101B5000201B31092F3F310519F010F02FEF30E035
:101B6000322F3095482F430F08F44FEF842F620F28
:101B70000F91FF90EF900895EF92FF920F939701CE
:101B8000201B31092F3F310519F010F02FEF30E005
:101B90002095382F320F08F43FEF832F0F91FF90DD
:101BA000EF900895FC019B01009729F480E077FFF6
:101BB0002BC080E80895AC0197FF04C04427552747
:101BC000481B590BB901640F751F37FD10C0241B4A
:101BD000350BC901A5E0880F991FAA95E1F70E946E
:101BE000F63A80E2861BF7FF0FC081950895CB017E
:101BF00065E0880F991F6A95E1F7BA01621B730BC4
:101C00000E94F63A80E6EECF08950F931F93CF938C
:101C1000DF93D62F172FC82FC901272F201B022F84
:101C2000BA010E94D20D982F990F990F782F791B26
:101C3000700F719F712D11246D2F8C2FDF91CF911B
:101C40001F910F9108950F931F93CF93DF93D62F7A
:101C5000C72F182FC901212F201B022FBA010E9464
:101C6000D20D982F990F990F891B800F282F219F34
:101C7000212D1124822F6D2F7C2FDF91CF911F9169
:101C80000F910895EF920F931F93CF93DF93D62F69
:101C9000172FC82FC9010E19070FBA010E94D20DC4
:101CA000702F781B719F712D11246D2F8C2FDF9158
:101CB000CF911F910F91EF900895EF920F931F9383
:101CC000CF93DF93D62FC72F182FC9010E19010FFD
:101CD000BA010E94D20D081B202F219F212D112413
:101CE000822F6D2F7C2FDF91CF911F910F91EF905D
:101CF00008950F93CF93DF93D72FC82FC901BA014F
:101D00000E94D20D682F600F7D2F8C2FDF91CF9115
:101D10000F910895EF920F93CF93DF93D72FC82F92
:101D2000C9010E19BA010E94D20D602F681B7D2FC8
:101D30008C2FDF91CF910F91EF9008950C946D0B44
:101D40000F931F93CF93DF93FC01618140819FEF3D
:101D5000960FB1E0B60FAFEFA40F81E0840FF0E172
:101D60006F9FE0011124A41760F48E010F551C4FE2
:101D70000A0F111DF801208130E1230F08F42FEF25
:101D80002083242F30E0CF55DC4F8E01020F131F2C
:101D9000F801508170E2570F08F45FEF50838031F3
:101DA00040F4C80FD11D588170E1570F08F45FEF60
:101DB0005883B630F0F050E1959FF0011124A4173C
:101DC00008F445C0EF55FC4FDF01A20FB31F2C9163
:101DD00030E1230F08F42FEF2C93803108F032C04C
:101DE000E80FF11D20813DE0230F08F42FEF208341
:101DF00029C050E1B59FF0011124A41758F4EF0158
:101E0000CF55DC4FCA0FD11D58817DE0570F08F424
:101E10005FEF5883EF55FC4FEF01C20FD31F58817E
:101E200070E1570F08F45FEF5883803140F4E80FFA
:101E3000F11D50817DE0570F08F45FEF5083961736
:101E400008F4B9CFDF91CF911F910F910895AF01A1
:101E50004F555C4FA40FB52FB11D4C915DE0450F60
:101E600008F44FEF4C93AECF45E050E06CE170E0EA
:101E700087E095E00C94D93B45E050E06CE170E0E0
:101E800087E095E00C94F73BE7E0F5E085E380839D
:101E90008091C9029091CA02A091CB028183928362
:101EA000A3838FE784830C943C0F80E008950F9305
:101EB0001F93CF93DF93C82FD62F8A010E94550F0F
:101EC00090E1C99FB00111246C5F7E4F6D0F711DB1
:101ED000FB0190819F3F29F0F801E80FF11D9083ED
:101EE0008F5FDF91CF911F910F910895E0912B03A8
:101EF000F0912C030994EF92FF920F931F93CF93CD
:101F0000DF937C018B01EA010E94271C8823C1F02A
:101F10000E942F1C9AE0899F802D1124882381F034
:101F2000F701908191110CC0F8019081911108C0C6
:101F30009881911105C0F7018083F801808388831F
:101F4000DF91CF911F910F91FF90EF9008950F9324
:101F50001F93CF93DF9300D00F92CDB7DEB78C01E4
:101F600069834A832B83AE014E5F5F4FBE016D5F75
:101F70007F4FCE0101960E947B0FE0912703F091E5
:101F800028032B814A816981C80109950F900F9020
:101F90000F90DF91CF911F910F9108955F926F92F3
:101FA0007F928F929F92AF92BF92CF92DF92EF92E9
:101FB000FF920F931F93CF93DF935C014B01FC01C2
:101FC000C08186E1C89FC02D112416E11C0FF12E9F
:101FD0001F3610F03EE6F32E60910B05669580915A
:101FE0000C0590910D050E94700B582ED0E0CF1576
:101FF000A0F081E01E3608F080E0DF91CF911F91C4
:102000000F91FF90EF90DF90CF90BF90AF909F9097
:102010008F907F906F905F900895FE01E05CFD4F80
:102020008081F50191818923C9F1CE01880F991F23
:102030008C5F9E4FFC01E05AFF4F2081422F40579A
:10204000550B6A018F599F4FFC018081282F205228
:10205000330B3901449F9001459F300D300D112401
:10206000669CC001679C900D900D1124820F931FF8
:102070000E947A0B082F60910805709109058091E4
:102080000A05E52C9301A601F40109950E949E0E14
:10209000462F282F672FCE010E94A70F2196A7CF8A
:1020A00062E47EE00C94CE0F6DE57EE00C94CE0FE2
:1020B00069E47CE00C94CE0F6AE87EE00C94CE0FCD
:1020C000AF92BF92CF92DF92EF92FF920F931F9346
:1020D000CF93DF936C017B01FC01C08186E1C89F37
:1020E000C02D112416E11C0FB12E1F3610F03EE654
:1020F000B32E60910B05669580910C0590910D05AE
:102100000E94700BA82ED0E0CB1578F081E01E362F
:1021100008F080E0DF91CF911F910F91FF90EF9039
:10212000DF90CF90BF90AF900895FE01E05CFD4F2F
:102130008081F6019181892311F1CE01880F991FC9
:102140008C5F9E4FFC01EF59FF4F20812052330BD3
:10215000805A9F4FFC0140814057550B6091080504
:102160007091090580910A050A2DF70109950E94D1
:102170009E0E462F282F672FCE010E94A70F219673
:10218000C3CF65E07EE00C94601063E27EE00C94C7
:10219000601067E57CE00C94601069E77EE00C94C9
:1021A0006010BF92CF92DF92EF92FF920F931F9336
:1021B000CF93DF936C017B01FC01C08186E1C89F56
:1021C000C02D112416E11C0F012F1F3608F00EE65A
:1021D00060910B056695669580910C0590910D05B3
:1021E0000E94700BB82ED0E0C01770F081E01E3650
:1021F00008F080E0DF91CF911F910F91FF90EF9059
:10220000DF90CF90BF900895FE01E05CFD4F80818C
:10221000F6019181892391F060910805709109057B
:1022200080910A052B2D4C2FF70109950E949E0ED7
:10223000462F282F672FCE010E94A70F2196D4CFBB
:1022400069EC7BE00C94D11062EF7BE00C94D11030
:102250006CE17CE00C94D1106EE17CE00C94D11028
:1022600067E27CE00C94D11060E37CE00C94D11028
:102270007F928F929F92AF92BF92CF92DF92EF9216
:10228000FF920F931F93CF93DF935C016B01FC01CF
:10229000C08186E1C89FC02D112416E11C0F912E2C
:1022A0001F3610F03EE6932E60910B0566956695FD
:1022B00080910C0590910D050E94700BF82E80E422
:1022C0008F0D0E94AA0B90E8892E880E8F2D0E94F8
:1022D000AA0B20E8722E780ED0E0C91590F081E0AC
:1022E0001E3608F080E0DF91CF911F910F91FF9093
:1022F000EF90DF90CF90BF90AF909F908F907F90A6
:102300000895FE01E05CFD4F8081F50191818923F4
:10231000A1F0609108057091090580910A05EF2CE4
:102320000C2F272D482DF60109950E949E0E462F51
:10233000282F672FCE010E94A70F2196CECF6FE7DF
:102340007CE00C9438116CEA7CE00C9438116AED56
:102350007CE00C943811AF92BF92CF92DF92EF9253
:10236000FF920F931F93CF93DF937C016B01FC01CE
:10237000C08186E1C89FC02D112426E1B22EBC0E7B
:10238000AB2CFEE6FB1510F49EE6A92E20910B0562
:1023900030E050E040E06FEF7FEF80E090E00E949F
:1023A0000A3B8901D0E02C2FCA1580F081E0FDE6C0
:1023B000FB1508F480E0DF91CF911F910F91FF9002
:1023C000EF90DF90CF90BF90AF900895FE01E05C5A
:1023D000FD4F8081F70191818923F1F04091100533
:1023E0004150042E000C550B47FF18C0C8016091E6
:1023F0000B050E94700BAC016091080570910905F6
:1024000080910A05F60109950E949E0E462F282FFD
:10241000672FCE010E94A70F2196C5CFFA01E05F7A
:10242000FA4F818982130AC0FA01EE0FFF1FE05FA5
:10243000FA4F818D928D80179107C8F24150510952
:10244000D3CF61E17DE00C94AB1168E17DE00C94A9
:10245000AB112F923F924F925F926F927F928F9229
:102460009F92AF92BF92CF92DF92EF92FF920F9323
:102470001F93CF93DF93CDB7DEB72B970FB6F894AA
:10248000DEBF0FBECDBF8C832B015F834E83FB016C
:10249000F08186E1F89F802D112489838A5E8A83EA
:1024A0008B838F3610F02EE62B83309110053D8301
:1024B0009981892F90E09B878A87880F991FFC015B
:1024C000EC59FE4F6F01FC818F2F90E09C012F5F34
:1024D0003F4F39872887EB81FA85FE17F0F081E0BE
:1024E0002A812E3608F080E02B960FB6F894DEBFD6
:1024F0000FBECDBFDF91CF911F910F91FF90EF9055
:10250000DF90CF90BF90AF909F908F907F906F9013
:102510005F904F903F902F900895EA85FB85E05C97
:10252000FD4F8081F2019181892301F120900805FE
:102530003090090528853985205F3A4F39013C8163
:10254000398310E029813D812317C8F020910A05C5
:10255000129F112D1124B101812F0E949E0E462F32
:10256000282F672F8A859B850E94A70F8A859B85C8
:1025700001969B878A8792E0C90ED11CACCFF301EC
:1025800081913F01F601A080A81ABB088180F30168
:102590008781881A9908AA9C9001AB9C300D300D58
:1025A0001124889CC001899C900D900D1124820FEC
:1025B000931F0E947A0B082FF301EE0FFF1FE051CB
:1025C000F54060910B05858996890E94700B7C010E
:1025D0009401A501B101812FEE81FF8109951B01B5
:1025E000F981FF5FF983182FADCF2091100531E0FD
:1025F000231B08F420E04EE15DE0BC01822F0C9427
:1026000029124EE15DE0BC0180E00C94291220917A
:10261000100531E0231B08F420E047E35DE0BC0136
:10262000822F0C94291247E35DE0BC0180E00C94FA
:1026300029122091100531E0231B08F420E042E725
:102640005DE0BC01822F0C94291242E75DE0BC01E1
:1026500080E00C9429122091100531E0231B08F42E
:1026600020E044EA5DE0BC01822F0C94291244EA88
:102670005DE0BC0180E00C9429122091100531E04E
:10268000231B08F420E04CEB5DE0BC01822F0C948E
:1026900029124CEB5DE0BC0180E00C942912BF9242
:1026A000CF92DF92EF92FF920F931F93CF93DF931E
:1026B0007C01FC01C08186E1C89FC02D112416E178
:1026C0001C0F012F1F3608F00EE66091080570916F
:1026D000090580910A050E949E0ED62EC72EB82E9F
:1026E000D0E0C01770F081E01E3608F080E0DF9186
:1026F000CF911F910F91FF90EF90DF90CF90BF90FF
:102700000895FE01E05CFD4F8081F70191818923EE
:1027100031F02B2D4D2D6C2DCE010E94A70F21964F
:10272000E0CF8F929F92AF92BF92CF92DF92EF92C3
:10273000FF920F931F93CF93DF937C01FC01C08125
:1027400086E1C89FC02D112416E11C0F012F1F36F2
:1027500008F00EE6C0900905D0900A05D091080552
:102760006D2F7C2D8D2D0E949E0EB62EA72E982E9D
:1027700060910B056D0F7C2D8D2D0E949E0ED62E27
:10278000C72E882ED0E0C01788F081E01E3608F0F2
:1027900080E0DF91CF911F910F91FF90EF90DF903C
:1027A000CF90BF90AF909F908F900895FE01E05C16
:1027B000FD4F9081F7018181892359F0282D4D2DFE
:1027C0006C2D90FD03C0292D4B2D6A2DCE010E944A
:1027D000A70F2196D8CFBF92CF92DF92EF92FF92B0
:1027E0000F931F93CF93DF937C01FC01C08186E19F
:1027F000C89FC02D112416E11C0FD12E1F3610F0DA
:102800009EE6D92EC0900905B0900A0520910B05CF
:1028100000E4029F012D1124D0E0CD1570F081E07D
:102820001E3608F080E0DF91CF911F910F91FF904D
:10283000EF90DF90CF90BF900895FE01E05CFD4FD8
:102840008081F70191818923B9F0FE01EE0FFF1F0E
:10285000EB59FE4F808182958F7060910805809FB3
:10286000600D11247C2D8B2D0E949E0E462F282F4B
:10287000672FCE010E94A70F2196CFCFBF92CF9294
:10288000DF92EF92FF920F931F93CF93DF938C0110
:10289000FC01C08186E1C89FC02D112456E1F52EB0
:1028A000FC0EDF2CFEE6FF1510F44EE6D42EC09091
:1028B0000905B0900A0520910B0530E4E32E3E2D6A
:1028C000329F312D1124E32ED0E0CD1578F081E038
:1028D0003DE63F1508F480E0DF91CF911F910F9105
:1028E000FF90EF90DF90CF90BF900895FE01E05CE5
:1028F000FD4F8081F80191818923D9F0FE01EE0F0F
:10290000FF1FEC59FE4F6081E69EB001112495E057
:10291000759567959A95E1F780910805680F7C2D6C
:102920008B2D0E949E0E462F282F672FCE010E94CE
:10293000A70F2196CACFBF92CF92DF92EF92FF925C
:102940000F931F93CF93DF938C01FC01C08186E12D
:10295000C89FC02D112496E1F92EFC0EEF2CFEE647
:10296000FF1510F48EE6E82ED0900805D0910905E9
:10297000C0900A0560910B056695669566958091F5
:102980000C0590910D050E94700B0E94AA0B8058B7
:1029900087FD8195880F282F3C2D239F212D112401
:1029A000822F6D2D7D2F0E949E0ED62EC72EB82E03
:1029B000D0E0CE1578F081E02DE62F1508F480E008
:1029C000DF91CF911F910F91FF90EF90DF90CF900B
:1029D000BF900895FE01E05CFD4F8081F801918178
:1029E000892331F02B2D4D2D6C2DCE010E94A70F88
:1029F0002196DFCFDF92EF92FF920F931F93CF9339
:102A0000DF938C01FC01E05CFD4F8081682381F144
:102A1000D0900905D0910A05C0910805EC2EF12C43
:102A20000E94C03B282FC7018C549F4F68E671E07D
:102A30000E94F63A8E199F0997FD03969595879502
:102A40009595879523706C2F289F600D11247D2DFF
:102A50008D2F0E949E0E462F282F672FC801DF91D1
:102A6000CF911F910F91FF90EF90DF900C94A70FE3
:102A7000DF91CF911F910F91FF90EF90DF9008951C
:102A8000DF92EF92FF920F931F93CF93DF938C010E
:102A9000FC01C281C11125C060910B0520E1620FCC
:102AA00008F46FEF80910C0590910D050E94700B5A
:102AB0006AE070E00E94E23A892B51F40E94C03B28
:102AC0006EE670E00E94F63AF80161810E94FA1405
:102AD0008C2FDF91CF911F910F91FF90EF90DF909E
:102AE0000895C08186E1C89FC02D112486E1D82EAB
:102AF000DC0E8D2DFEE6FD1508F48EE6D0E0E82E06
:102B0000F12CCE15DF0534F0C1E0FDE6FD1500F730
:102B1000C0E0DECFF8016181CE010E94FA14219657
:102B2000F0CF1F93CF93DF93EC01FC01E05CFD4FEE
:102B300080816823A1F00E94C03B182F0E94C03BF7
:102B4000612F782F80910A050E949E0E462F282F14
:102B5000672FCE01DF91CF911F910C94A70FDF91CA
:102B6000CF911F910895DF92EF92FF920F931F93E1
:102B7000CF93DF938C01FC01C281C11125C060910C
:102B80000B0520E1620F08F46FEF80910C05909126
:102B90000D050E94700B65E070E00E94E23A892BFF
:102BA00051F40E94C03B6EE670E00E94F63AF801D4
:102BB00061810E9491158C2FDF91CF911F910F9110
:102BC000FF90EF90DF900895C08186E1C89FC02DEF
:102BD000112486E1D82EDC0E8D2DFEE6FD1508F4BD
:102BE0008EE6D0E0E82EF12CCE15DF0534F0C1E002
:102BF000FDE6FD1500F7C0E0DECFF8016181CE01F2
:102C00000E9491152196F0CFCF93DF9300D00F92C1
:102C1000CDB7DEB789836A834B838091010481112C
:102C20000AC0AE014E5F5F4FBE016D5F7F4FCE01A8
:102C300001960E947B0FE0912903F0912A034B81BA
:102C40006A81898109950F900F900F90DF91CF9144
:102C500008952F923F924F925F926F927F928F9240
:102C60009F92AF92BF92CF92DF92EF92FF920F931B
:102C70001F93CF93DF93CDB7DEB729970FB6F894A4
:102C8000DEBF0FBECDBF6C01DC010C9186E1089F59
:102C9000002D1124B6E1B00FB9874B2EB13610F0DC
:102CA00020E6422EF6018281882361F040E060E058
:102CB00080E00E940416E1EAF3E080E6DF011D9265
:102CC0008A95E9F7F6018081811115C0809103048E
:102CD000909104040E94293021E08931910508F483
:102CE00020E020930204499730F00E941130909325
:102CF00004048093030410E0512C9E012F5F3F4F8A
:102D0000590104151505F4F081E0B985B03608F0D5
:102D100080E029960FB6F894DEBF0FBECDBFDF91DD
:102D2000CF911F910F91FF90EF90DF90CF90BF90C8
:102D3000AF909F908F907F906F905F904F903F905B
:102D40002F900895C80166E070E00E94F63A4B01AA
:102D50003C0194E0660C771C9A95E1F7F301EF557E
:102D6000FC4FE60FF71F3080A5010E94570F282E59
:102D700075018E2D8A19821598F08091020488239E
:102D800061F0232D31E0231B08F420E0C3018F55AF
:102D90009C4F880E991ED4012C930F5F1F4FB1CF0B
:102DA000D701EC91F0E0E05CFD4F8081F60191816C
:102DB000892321F1232D35E5231B08F420E06AEA5D
:102DC000621B709109052AEA332D230F08F42FEFB7
:102DD00030910A05822F880F820F8E5F282F239F44
:102DE000212D1124822F0E949E0E462FD7019C91E7
:102DF000282F672F892F90E00E94A70FBFEFEB1AB3
:102E0000FB0AB7CF6F927F928F929F92AF92BF9241
:102E1000CF92DF92EF92FF920F931F93CF93DF93A6
:102E2000CDB7DEB728970FB6F894DEBF0FBECDBF83
:102E3000DC0112968C91882371F040E060E080E024
:102E40000E940416E1EAF3E080E6DF011D928A9514
:102E5000E9F71092730381EAC82E83E0D82E00E0D0
:102E600077247A9490EDA92EB12C20EC622E3FE2CB
:102E7000832E912C760110E080917303812B09F051
:102E800072C00E94C03B853595400CF06CC0F601C5
:102E90007082AE014F5F5F4F602F812F0E94570FEE
:102EA0008823B1F0F7012081E981F0E0213D08F4A9
:102EB00062C0205D330B629EC001639E900D1124A1
:102EC000B4010E94E23A262F4FEFCF010E94A70FD4
:102ED0001F5FF0E1EF0EF11C163071F60F5F2FEF60
:102EE000C21AD20A003131F6809173038F5F8D319F
:102EF00008F44BC01092730341EE53E025E001EB60
:102F000013E03EEFFA0181EA93E0253039F4DC0169
:102F1000A05BBF4F6C916F3F09F43C9360816F3FA2
:102F200011F43083608B019631960817190769F701
:102F30002150405151092111E5CF80E028960FB66C
:102F4000F894DEBF0FBECDBFDF91CF911F910F91DF
:102F5000FF90EF90DF90CF90BF90AF909F908F90B9
:102F60007F906F900895D7018C9181508E3F08F02B
:102F700090CF8C938ECF279DC0011124B5010E9464
:102F8000E23A462F20E060E0A0CF80937303D5CFD4
:102F9000AF92BF92CF92DF92EF92FF920F931F9367
:102FA000CF93DF93CDB7DEB728970FB6F894DEBF87
:102FB0000FBECDBF8B01FB018281D12C882341F054
:102FC000AE014F5F5F4F608181810E94570FD82E05
:102FD000C0907403ED2CF12CC7018C0D911D099745
:102FE00064F188E090E05C01AE18BF08B7016B584F
:102FF0007C4FA50185E793E00E94D03BB701635861
:103000007C4FA5018DE793E00E94D03BA501440FC2
:10301000551FB701660F771F63577C4F8DE893E00C
:103020000E94D03BB7016B577C4FA50185E893E028
:103030000E94D03BCA94C0927403F0907403DE01E6
:10304000119640E0842F8F0DD4121CC0809374031E
:10305000809107058C7F843619F4C8010E94A00E68
:1030600081E028960FB6F894DEBF0FBECDBFDF918A
:10307000CF911F910F91FF90EF90DF90CF90BF9075
:10308000AF9008955D91252F30E090E0BC016C5821
:103090007C4FF901EE0FFF1FEC59FE4FE080FB0162
:1030A000E182220F331FF901EB59FE4F2081FB0112
:1030B0002187518B880F991FFC01EC58FC4F128E11
:1030C000118E4F5FBFCF08950E9463180C94CA03FE
:1030D00008950895CF93DF93FC01C08186E1C89FD6
:1030E000C02D1124DAEEDC0FCF3608F0CEE66C2FBF
:1030F0008D2F0E9468186C2F8D2FDF91CF910C942B
:1031000069184F925F926F927F928F929F92AF92C7
:10311000BF92CF92DF92EF92FF92CF9360919D0387
:1031200070919E0380919F039091A0030E9438307C
:103130006B017C010E941D304B015C0180929D035C
:1031400090929E03A0929F03B092A003A09174035B
:10315000E4E7F3E08A2F90E04FEF5FEF60E070E08C
:103160004C195D096E097F09A9132AC08093740365
:1031700080910104C0E0811108C080910705C82F2B
:10318000C37019F0C82FC695C6958091AE028130E4
:1031900009F440C0882339F1823009F445C18330F5
:1031A00009F44DC1CF91FF90EF90DF90CF90BF9089
:1031B000AF909F908F907F906F905F904F90089509
:1031C000218D328D2901712C612C44155505660520
:1031D000770520F481509F5F3296C6CF2C0D3D1DA0
:1031E000328F218FF8CF1092AF0280920C0590920F
:1031F0000D05A0920E05B0920F0589E2E4E7F3E019
:10320000A0E1B5E001900D928A95E1F781E080930D
:10321000AE02C8CF8091B202C81316C090910705C4
:1032200093702091B30230E081E09217130609F405
:1032300080E081708093B102C73278F4EC2FF0E027
:10324000E257F34C0C94293B81E0F3CF882359F0EB
:1032500040E060E080E00E94041680E004C08FEA55
:1032600092E00E944F139091AF029F5F9093AF0244
:103270008111D6C082E08093AE028091B1028111AB
:10328000CFC0CC2309F4D9C00E9464188FEA92E021
:10329000CF91FF90EF90DF90CF90BF90AF909F9035
:1032A0008F907F906F905F904F900C946A188FEA88
:1032B00092E00E949113D7CF8FEA92E00E94EB1325
:1032C000D2CF8FEA92E00E943E14CDCF8FEA92E0F7
:1032D0000E949B14C8CF8FEA92E00E942011C3CFB6
:1032E0008FEA92E00E942411BECF8FEA92E00E9402
:1032F000C110B9CF8FEA92E00E94C510B4CF8FEA17
:1033000092E00E945010AFCF8FEA92E00E945410DA
:10331000AACF8FEA92E00E942811A5CF8FEA92E00F
:103320000E942C11A0CF8FEA92E00E9430119BCF17
:103330008FEA92E00E94341196CF8FEA92E00E94C9
:10334000581091CF8FEA92E00E94C9108CCF8FEA7B
:1033500092E00E94CD1087CF8FEA92E00E945C102D
:1033600082CF8FEA92E00E949F117DCF8FEA92E098
:103370000E94A31178CF8FEA92E00E94A71173CF29
:103380008FEA92E00E9440156ECF8FEA92E00E9491
:10339000B31569CF8FEA92E00E94291664CF8FEAB5
:1033A00092E00E9402175FCF8FEA92E00E94211202
:1033B0005ACF8FEA92E00E94251255CF8FEA92E011
:1033C0000E94F51250CF8FEA92E00E9401134BCF7A
:1033D0008FEA92E00E94071346CF8FEA92E00E94A4
:1033E000131341CF8FEA92E00E9419133CCF8FEA6A
:1033F00092E00E94251337CF8FEA92E00E942B13B0
:1034000032CF8FEA92E00E9437132DCF8FEA92E0FD
:103410000E943D1328CF8FEA92E00E94491323CFE8
:10342000CC2309F4BFCE30CFC093B2028091070500
:1034300083708093B3020E94760F83E0E8CE6091A0
:103440000C0570910D0580910E0590910F050E945D
:103450003830603171058105910508F4A3CE1092D2
:10346000AE02A0CEE0912503F091260309951092BB
:1034700010058FEF9FEF90932A0580932905909375
:103480002C0580932B0590932E0580932D0590930A
:10349000300580932F0590933205809331059093EA
:1034A00034058093330590933605809335059093CA
:1034B0003805809337051092740390938E038093A0
:1034C0008D039093900380938F0390939203809346
:1034D0009103909394038093930390939603809326
:1034E0009503909398038093970390939A03809306
:1034F000990390939C0380939B030E941B2E811140
:1035000004C00E94C82E0E94440F0E94340F809174
:1035100007058C7F11F40C94440F089580930104E7
:10352000882329F040E060E080E00C9404160895C0
:103530009091070521E09227909307051092AE0223
:1035400081110C943C0F089581E00C94981A80919D
:103550000705837011F41092AE02809107058C7FED
:10356000816080930705089580910705837011F0AD
:103570001092AE02809107058C7F80930705089515
:1035800090910705937099F0811109C09460909310
:1035900007051092AE02662351F00C943C0F87325F
:1035A00010F09869F4CF880F880F982BF0CF08950A
:1035B00060E00C94C01A61E00C94C01A8091070579
:1035C000869586950895682F90910705969596950E
:1035D00081E0890F873208F081E00C94C01A81E005
:1035E0000C94E31A682F90910705969596958FEFA6
:1035F000890F09F486E20C94C01A81E00C94F21A47
:1036000090910705937061F0809308056093090518
:10361000453608F044E640930A0521110C943C0F0E
:10362000089520E00C94001B809108050895809176
:103630000905089580910A050895A7E0B5E011965F
:10364000EC911197F0E0282F13964C911397129656
:103650006C91CF0108960C94001B81E00C941D1B0B
:10366000E7E0F5E09181282F43816281E92FE8505E
:10367000FF0BCF010C94001B81E00C94301BE7E0A2
:10368000F5E0628120E1620F08F46FEF9181282F4D
:103690004381892F90E00C94001B81E00C943F1B28
:1036A000E7E0F5E0628120E1621B08F460E09181CF
:1036B000282F4381892F90E00C94001B81E00C940B
:1036C000501BE7E0F5E0438120E1420F08F44FEFA3
:1036D0009181282F6281892F90E00C94001B81E05A
:1036E0000C94611BE7E0F5E0438120E1421B08F404
:1036F00040E09181282F6281892F90E00C94001B7B
:1037000081E00C94721B80930B05089580910B054A
:10371000089520910B0530E1230F08F42FEF20933B
:103720000B0581110C943C0F089581E00C94891BCA
:1037300020910B0530E1231B08F420E020930B05BA
:1037400081110C943C0F089581E00C94981B08950E
:10375000FC01EE0FFF1FE80FF91FE75CFA4F6183D2
:10376000408322830895E9E3F5E081836083428307
:10377000339696E0E338F907C1F708956EE670E0F6
:1037800089E395E00C94311DFA01811101C0FB0120
:1037900009940F931F93CF938C01FB01C281CC231B
:1037A00009F453C00E94662D8272F801E35CFC4567
:1037B000E431F10538F4EB54F34C0C94293B0E94AE
:1037C000A41AC0E08C2FCF911F910F9108954DEF57
:1037D0005AE16FEE7AE10E94C41BF3CF4FEE5AE13B
:1037E0006DEF7AE1F8CF4CE35BE16DE27BE1F3CF83
:1037F0004DE25BE16CE37BE1EECF4EE55BE16DE436
:103800007BE1E9CF4DE45BE16EE57BE1E4CF40E8AD
:103810005BE16FE67BE1DFCF4FE65BE160E87BE1F8
:10382000DACF44EA5BE165E97BE1D5CF45E95BE1CD
:1038300064EA7BE1D0CF81E00E94DB1AC2CF85E051
:10384000FBCF8DE0F9CF82E1F7CFC1E0BBCF809114
:10385000830681700895809183060C944D2E80918B
:10386000830686958695869508950E941B2E811164
:1038700002C00E94C82E0E94492E80938306803287
:1038800020F0877088618093830690918306892F4A
:10389000817090FF04C0892F8695869586950C943B
:1038A0002F1D80918306982F969596959695933027
:1038B00040F49F5F990F990F990F8770892B809320
:1038C0008306809183068160809383060E944D2E3B
:1038D000809183068695869586950C942F1D809100
:1038E0008306982F987F79F0885080938306887F8D
:1038F00091E009F490E08091830690FB80F9809339
:1039000083060E944D2E8091830686958695869526
:103910000C942F1D8091830680FD13C081608093DD
:103920008306813019F489E08093830680918306B1
:103930000E944D2E809183068695869586950C94DF
:103940002F1D08958091830680FF08C08E7F80938D
:1039500083060E944D2E80E00C942F1D08958091C7
:10396000830680FD0C94A21C0C948A1C9091830603
:10397000892F8695869586958F5F8F719770843095
:10398000D8F4880F880F880F892B80938306809145
:103990008306887F91E009F490E08091830690FB94
:1039A00080F9809383060E944D2E80918306869530
:1039B000869586950C942F1D90938306E8CF8430CE
:1039C00008F083E0909183069770282F220F220F32
:1039D000220F922B90938306987F21E009F420E038
:1039E0009091830620FB90F9909383060C942F1DF1
:1039F0000E94DF1C809183060C944D2E9C01FB01DC
:103A00008281882349F12E3BFCE53F07C9F040F451
:103A10002C3BECE53E0769F02D3B3C4579F00895E1
:103A2000203C9CE5390791F070F0213C3C4589F041
:103A3000089583E00E94F81C80E0089580E0FACFAA
:103A40000E946F1CF9CF0E94511CF6CF0E94AF1C40
:103A5000F3CF0E94B61CF0CF81E008950895089539
:103A60000895579A4BB14F775BB15068EFB7F89410
:103A70009B01220F331F260F371F280F391F2817CE
:103A8000390741F4EFBF8FE594E00197F1F700C0EB
:103A900000000895DC016D91CD0178E05BB9000074
:103AA00000C067FF4BB9660F000000C000C000C037
:103AB0004BB900C07A9591F7E2CF82E290E00E9484
:103AC000E93B813289F483E290E00E94E93B823055
:103AD00059F484E290E00E94E93B91E0873009F0DC
:103AE00090E0892F8170089580E0FCCFCF93C82F9C
:103AF0006FEF811161E282E290E00E94073C6FEF7C
:103B0000C11162E083E290E00E94073C6FEFC111B7
:103B100067E084E290E0CF910C94073C80E00E9443
:103B2000761D0C94152E089585E290E00E94E93BE5
:103B3000682F70E090E080E0089585E290E00C94BA
:103B4000073C0E94931D0E945D1D81110CC060E026
:103B500070E0CB010E949D1D0E948F1F0E947B2060
:103B600081E00C94761D0895CF93FB01C281CC2394
:103B700009F19C0122513F452031310520F5825148
:103B80000E948B20C0E08C2FCF91089581E00E948D
:103B9000E22B43E062E081E00E944505F3CF81E043
:103BA0000E94032C43E062E081E00E944505EBCFD8
:103BB00082E0F6CF8031FFE59F0789F381319F4591
:103BC000B9F3C1E0E0CF8031EFE59E07F9F2813132
:103BD0009F45C9F682E0DBCF2FEFFC0120830895DB
:103BE000CF93DF93EC018881893029F08A3079F016
:103BF000DF91CF9108950E942F1C2FEF829FC0016B
:103C0000112463E070E00E94E23A6983F1CF1982E7
:103C1000EFCFFC012081293061F48181F3E08F9F97
:103C2000C00111246FEF70E00E94E23A862F0C94DD
:103C3000DF1C0895CF93DF93EC0188818138A9F0D0
:103C400028F4803871F0DF91CF910895823881F0A7
:103C50008338C9F70E94141B89830E94171B8A832B
:103C6000F2CF0E941A1B8983EECF0E94DE1AFBCF8F
:103C70000E94861BF8CFCF93DF93EC0188818138B7
:103C8000F1F028F4803871F0DF91CF9108958238F7
:103C900021F18338C9F70E941A1B9981482F6A8144
:103CA000892F08C0D9810E94171BC82F0E94141B9E
:103CB0004D2F6C2F90E0DF91CF910C94111B8981D7
:103CC0000E94D81A8981811104C0DF91CF910C9490
:103CD000B41ADF91CF910C94A71A8981DF91CF910B
:103CE0000C94831BDF92EF92FF920F931F93CF935D
:103CF000DF93EC01D62EDC01ED918D01E150E33133
:103D000008F0C9C0F0E0E753F34C0C94293B19824A
:103D100089E08A836D2DCE01DF91CF911F910F91A4
:103D2000FF90EF90DF900C9415348981823069F018
:103D3000833071F08130D9F40E941D300E942F3BF6
:103D40006A837B838C839D83E5CF0E94941DF6CF8D
:103D50007E0110E0812F0E94DD07F70192838383AB
:103D60001F5FF2E0EF0EF11C1630A1F7D3CF6D2DDF
:103D7000CE010E94EC1DCECF89818230C1F76A81CD
:103D80007B818C819D810E942F3B0E949D1DC2CF13
:103D90004B816A8189810E94611F98278927982712
:103DA0009D838C83B7CF2C813D81322723273227F7
:103DB0004B816A8189810E947A1FACCF0E948F1F3C
:103DC000A9CFCD010E94091EC8010E943B1EA2CFAF
:103DD000CD010E94F01DC8010E941A1E9BCF0E94B7
:103DE0002B1C0E943C0F96CF0E942420898392CFE7
:103DF0000E9426209827892798279A8389838ACF2B
:103E00006B8170E089819A81AE014C5F5F4F98278A
:103E1000892798270E9429207DCF6B8170E08981B6
:103E20009A81AE014C5F5F4F9827892798270E949F
:103E3000502070CF0E947B206DCF0E944E1FD6CFA6
:103E40006B8170E089819A81AE014C5F5F4F98274A
:103E5000892798270E94C71F5DCF6B8170E08981F9
:103E60009A81AE014C5F5F4F9827892798270E945F
:103E7000ED1F50CF0E948E1D4DCF0E9415342FEFA5
:103E800081EE94E0215080409040E1F700C00000B6
:103E90000E9478303FCF8FEF88833CCF84E0089535
:103EA00090E2699FB001112450E0440F551F640F48
:103EB000751F90EC899F600D711D1124CB018696B2
:103EC00008950F931F93CF93DF930E94501F8C018F
:103ED0000E94E93BC82FD0E0DC2FCC27C801019617
:103EE0000E94E93B9E01282BC901DF91CF911F91D0
:103EF0000F9108950F931F93CF93DF93122F032FEA
:103F00000E94501FEC01602F0E94073C612FCE01E0
:103F10000196DF91CF911F910F910C94073CAF92C6
:103F2000BF92CF92DF92EF92FF921F93CF93DF93D6
:103F300088E9C82E80E0D82ED0E07601C0E014C019
:103F4000F50125913491412F6C2F8D2F0E947A1FFE
:103F500082E0A80EB11C1F5F103191F780E2E80EDD
:103F6000F11CCF5FC63019F0570110E0E9CFDF5FD9
:103F700080ECC80ED11CD43001F7DF91CF911F9196
:103F8000FF90EF90DF90CF90BF90AF900895EF92A9
:103F9000FF920F931F93CF93DF93EC018A017C0173
:103FA000E60EF71ECE018696CE15DF0539F4DF91B9
:103FB000CF911F910F91FF90EF900895C11523E0CD
:103FC000D20740F40E94E93BF80180830F5F1F4F46
:103FD0002196E8CFF8011082F9CFCF92DF92EF92CD
:103FE000FF920F931F93CF93DF937C016A018C01A3
:103FF000060F171FEC01CE018696C017D10749F4B2
:10400000DF91CF911F910F91FF90EF90DF90CF90B4
:104010000895C11523E0D20740F4FE01EE19FF090F
:10402000EC0DFD1D60810E94073C2196E4CF462FD8
:10403000843038F4763028F4603118F4672F0C940B
:10404000611F90E080E0089580E108958AED94E09A
:104050000895EF92FF920F931F93CF93DF93EC019C
:104060008A017C01E60EF71ECE018A5D9C4FCE15BB
:10407000DF0539F4DF91CF911F910F91FF90EF9001
:104080000895CA3D24E0D20740F40E94E93BF801BC
:1040900080830F5F1F4F2196E7CFF8011082F9CF81
:1040A000CF92DF92EF92FF920F931F93CF93DF9304
:1040B0007C016A018C01060F171FEC01CE018A5D9D
:1040C0009C4FC017D10749F4DF91CF911F910F91F9
:1040D000FF90EF90DF90CF900895CA3D24E0D20783
:1040E00040F4FE01EE19FF09EC0DFD1D60810E94F8
:1040F000073C2196E3CFCF93DF93C6E2D3E060E0A5
:10410000CE010E94073C2196C11588E0D807B9F777
:10411000DF91CF910895DF92EF92FF920F931F935B
:10412000CF93DF9300D000D0CDB7DEB7F82E8FE06D
:104130008F1540F08FEF97E00E94E93B06E213E015
:104140008823C1F00F900F900F900F90DF91CF91C7
:104150001F910F91FF90EF90DF900895011588E077
:10416000180781F3C8010E94E93B811101C0FA944C
:104170000F5F1F4FF110F2CF19821A821B821C822F
:10418000DD24D39478018FEFE81AF80AC8010E9461
:10419000E93B89831A828823A9F29FEF980F933015
:1041A00078F48A83D9820E5F1F4FC7010E94E93BD2
:1041B0008B83882339F2CE0101960E94EE04E2CF70
:1041C0008701F9CF0F931F93CF93DF93C42FD22F83
:1041D000FC0182818823C9F0409307040E941130BA
:1041E000909306048093050480E28C0F883008F0D9
:1041F00050C0C77081E001C0880FCA95EAF7DF910F
:10420000CF911F910F910C946C25109107041413FA
:1042100035C080910504909106040E942930883CA5
:10422000910560F5C0E2CD0F1D17B9F080E2810F56
:10423000883040F4177081E001C0880F1A95EAF7C2
:104240000E947325C83048F481E09D2F977001C00B
:10425000880F9A95EAF70E946C25802F0E945925B5
:10426000C830B8F4D77081E001C0880FDA95EAF75A
:10427000DF91CF911F910F910C94732580E28C0FE9
:10428000883038F4C77081E001C0880FCA95EAF71A
:10429000EFCFDF91CF911F910F9108950F939C0164
:1042A000CB01243F4CE5340759F1A8F4293DFCE546
:1042B0003F0701F12A3D4CE53407D1F1283D3C454B
:1042C00091F406E221EE41EE68ED7CE50E94E220E9
:1042D00080E00F910895263FFCE53F07E9F0B0F03C
:1042E000273F3C45F9F0FC018281882339F1109287
:1042F0000704EFCF07E225EE45EE69ED7CE5E6CF5A
:1043000006E221EE40EE64EF7CE5E0CF07E225EE29
:1043100044EE65EF7CE5DACF06E221EE42EE66EF91
:104320007CE5D4CF07E225EE46EE67EF7CE5CECF05
:1043300008E221E045EE6AED7CE5C8CF81E0C9CF17
:10434000CF93DF93EC01FB018281882309F419C12B
:10435000C230FCE5DF07C0F1C6319CE5D90730F07B
:104360009E012B5F3C452930310570F50E942E2EB1
:104370009093890680938806C031ECE5DE0709F446
:10438000CFC008F05BC0C8308CE5D80709F4B6C0D0
:1043900088F5C430ECE5DE0709F4A8C0C0F4C230EB
:1043A0008CE5D80709F49CC0809188068260C330F0
:1043B000DC4509F498C080918806909189060E9496
:1043C0003C2E0E94E82780E0DF91CF9108958091F4
:1043D00088068061C630ECE5DE0709F484C0809170
:1043E00088068860C730DC4508F47DC08091880667
:1043F000806279C0CC308CE5D80709F489C070F4AC
:10440000809188068C60CA30ECE5DE0709F46BC049
:1044100008F478C0809188068E7F65C0CE308CE528
:10442000D80709F479C0809188068B7FCF30DC45AE
:1044300008F459C0809188068F7E55C0CC3FECE5CA
:10444000DE0709F457C030F5C3318CE5D80709F40D
:104450006FC078F4C131ECE5DE0709F465C0C23104
:10446000DC4509F0A8CF0E94E827809188068F7765
:104470003AC0C5318CE5D80709F462C008F476C0AB
:10448000809189068160CB3FDC4509F094CF809311
:10449000890691CFC115FDE5DF0709F44DC088F409
:1044A000809189068D7FCE3F9CE5D90781F380916D
:1044B00089068E7FCF3FDC4550F38091890683606B
:1044C000E6CFC230FDE5DF0709F459C008F444C067
:1044D00080E0C330DD4509F06ECF0E94CA2E6BCF5D
:1044E0008091880681608093880665CF80918806D8
:1044F0008460F9CF809189068260C9CF8091880657
:104500008064F1CF0E94E827809188068068EBCF15
:10451000809188068D7FE7CF80918806877FE3CFE3
:10452000809188068F7DDFCF809188068F7BDBCFDF
:1045300080918806837FD7CF809189068C7FA7CF13
:104540008091880682FB992790F921E0922790FBC1
:1045500082F990FB83F9C7CF80918906982F9095B7
:1045600091708E7F892B90FB81F991CF0E94E82773
:1045700090918806892F97FB87F98058B4CF81E006
:10458000ACCF81E021CFCF93DF93EB0186319C4507
:1045900011F50E94662D9A81992399F08A7A91E00B
:1045A00009F490E090930804811109C089E20E9407
:1045B000412D0E94B22D80E0DF91CF91089585E3D7
:1045C000F6CF80910804811104C089E20E94482D31
:1045D000F0CF85E3FBCF81E0EFCF90930E04809383
:1045E0000D040895E0910D04F0910E04309721F030
:1045F0000190F081E02D099480E00895E0910D0490
:10460000F0910E04309711F480E008950190F0814C
:10461000E02D09950895E0910D04F0910E04309776
:1046200099F02091C802222359F02091880627FF93
:1046300007C0DC012C9111962C93119725E02C9347
:104640000280F381E02D09940895E0910D04F0912A
:104650000E04309739F022E0DC012C930480F581C0
:10466000E02D0994089520910B0430910C04281733
:10467000390771F090930C0480930B04E0910D04C2
:10468000F0910E04309721F00680F781E02D099417
:1046900008952091090430910A042817390771F010
:1046A00090930A0480930904E0910D04F0910E04A4
:1046B000309721F00084F185E02D0994089585B7A5
:1046C000806885BF85B7806885BF0895089508957F
:1046D0000C94662308950C946A230E945F230E9421
:1046E00067230C94682381E008950C947323089544
:1046F00008950E9408300E9402080E94A11D0E9495
:10470000B2300E94351C0C946B237F928F929F9243
:10471000AF92BF92CF92DF92EF92FF920F931F93CF
:10472000CF93DF93CDB7DEB72A970FB6F894DEBFED
:104730000FBECDBF0E9477230E9478230E943208CB
:104740000E947523882309F473C040E1A42E44E03D
:10475000B42E10E000E0702E802F0E94DD076C0167
:10476000F501819091905F018816990609F45AC06D
:104770008091BE0481FD0E94E60780E0EE24E39470
:10478000F12C8C249D2494012E213F21232B09F40C
:1047900043C08E837F82CE20DF2081E0CD2809F4C4
:1047A00080E088870E9411308160782F9A878987FE
:1047B0004E815F8168858A850E943D24000F111F0C
:1047C000F801E05FFB4F80819181E826F926F182B4
:1047D000E0820E94301D0E945D320E94F222909180
:1047E0000F048917B1F10E94F22280930F042A96D8
:1047F0000FB6F894DEBF0FBECDBFDF91CF911F91F2
:104800000F91FF90EF90DF90CF90BF90AF909F906F
:104810008F907F900C94D4058F5FEE0CFF1C80313D
:1048200009F0B1CF0F5F1F4F0630110509F093CF8C
:104830008FEF89838A831B820E9411308160782FD9
:104840009D838C8349815A816B818D810E943D2497
:10485000C0CF2A960FB6F894DEBF0FBECDBFDF9152
:10486000CF911F910F91FF90EF90DF90CF90BF906D
:10487000AF909F908F907F900895CF93DF93CDB7A7
:10488000DEB72B970FB6F894DEBF0FBECDBF4F83B8
:10489000588769877A878B871E821D8285E0FE0193
:1048A0003796DE01119601900D928A95E1F74981C4
:1048B0005A816B817C818D819E812B960FB6F894F5
:1048C000DEBF0FBECDBFDF91CF910C945E2AFC01FD
:1048D000808191810C94132DCF93C82F882309F4E4
:1048E00090C08238C1F40E94F22281FD8AC089E31F
:1048F0000E94412D0E94B22D2FEF81EE94E02150B5
:1049000080409040E1F700C0000089E30E94482DFC
:10491000CF910C94B22D8338A1F40E94F22280FD35
:1049200070C083E50E94412D0E94B22D2FEF81EED1
:1049300094E0215080409040E1F700C0000083E502
:10494000E5CF8438A1F40E94F22282FD5AC087E4A8
:104950000E94412D0E94B22D2FEF81EE94E0215054
:1049600080409040E1F700C0000087E4CFCF8CEF9B
:104970008C0F813AB8F48C2F0E944F0A811141C0EC
:104980006C2F8091B4029091B5020E94E32E88238F
:1049900029F08C2F0E94482D0E94B22D8C2F0E944E
:1049A000412DB6CF80E28C0F883048F4C77081E08B
:1049B00001C0880FCA95EAF70E94692DA9CFEBE5DF
:1049C000EC0FE33040F4F0E0E55AFC4F808190E0DA
:1049D000CF910C943323E8E5EC0FE73150F4F0E08D
:1049E000EE0FFF1FE35DFC4F80819181CF910C940E
:1049F0004923C03F30F08C2F0E945731CF910C9447
:104A00004232CF910895882309F452C0823871F45C
:104A10000E94F22281FF4CC089E30E94412D0E9436
:104A2000B22D89E30E94482D0C94B22D833859F49D
:104A30000E94F22280FF3CC083E50E94412D0E942B
:104A4000B22D83E5EFCF843859F40E94F22282FF21
:104A50002FC087E40E94412D0E94B22D87E4E2CF4F
:104A60009CEF980F913AF0F290E2980F983050F442
:104A7000877091E001C0990F8A95EAF7892F0E940B
:104A80006F2DD2CF9BE5980F933020F490E080E01B
:104A90000C94332398E5980F973120F490E080E050
:104AA0000C944923803F20F00E94BF310C94423285
:104AB0000895CF93C82F0E946C24C93349F42FEF77
:104AC00087EE93E0215080409040E1F700C0000065
:104AD0008C2FCF910C940325882321F00E94692DFF
:104AE0000C94B22D0895882321F00E946F2D0C9410
:104AF000B22D0895BF92CF92DF92EF92FF920F9363
:104B00001F93CF93DF936C01D62FC72FFC01058134
:104B100002950F70128111110E94862D0E945F2D47
:104B2000E82E882391F01123D1F08C2F807F8034E0
:104B300021F080E28D0F883090F082E00E94FD2D00
:104B40000E945F2D91E0E82EE926BC2EB2949FE0F2
:104B5000B922EB2DF0E0E452F34C0C94293BE12C0C
:104B6000F4CF0C2F0F70C07F11F00295007F11233E
:104B7000A9F0002359F080E28D0F883010F0D11198
:104B800009C0802F0E94692D0E94B22D8D2F0E9496
:104B90006C2414C0802F0E94792DF6CF8D2F0E9497
:104BA0000325002359F080E28D0F883010F0D111D9
:104BB0002CC0802F0E946F2D0E94B22D2B2D2850CB
:104BC000330B2430310520F40E94F2220E94D405D8
:104BD000EE2009F49EC10E945B2D80FD9AC1F60172
:104BE00012820E94552D0E94E22BC6010E94AA2724
:104BF0000E94552DDF91CF911F910F91FF90EF9063
:104C0000DF90CF90BF900C94032C802F0E947F2DBB
:104C1000D3CFFC2FFF70FF2EC07FC03219F0F2946B
:104C200080EFF822DD2369F0D13049F1112391F1B1
:104C3000002351F1F601858180FFA8CF8F70858315
:104C400023C0112381F0011106C00E94992D8F29E4
:104C50000E946C25B3CF0130C1F70E94992D8F2996
:104C60000E949F2DABCF011106C00E94A82D8F2D51
:104C70000E947325A3CF013009F4A0CFF6CF1123F2
:104C800029F0063008F09ACF8F2DE2CF053008F0DA
:104C900095CFEDCF002359F3D93349F4FFEF27EE39
:104CA00033E0F15020403040E1F700C000008D2F8C
:104CB0000E94032583CF8C2F86958695837069F09B
:104CC000813009F07BCF8D2F9C2F9370111102C082
:104CD00090E080E00E94492371CF8D2F9C2F93702C
:104CE000111102C090E080E00E94332367CF8D2F26
:104CF000112329F00E9457310E9442325FCF0E9457
:104D0000BF31FACF8C2F837009F041C0111156CFFB
:104D10004D2F429546954770440F440F0D2F0F704D
:104D200010E030E020E0042E04C0000F111F221F0D
:104D3000331F0A94D2F760E070E0CB01D4FF0FC0BC
:104D40006FE070E080E090E004C0660F771F881F7E
:104D5000991F4A95D2F76095709580959095C69564
:104D6000C695C370602B712B822B932BC23049F0F8
:104D700058F4C13019F00E94942B20CF0E94822B4E
:104D80001DCF0E94A62B1ACF0E94802B17CF86958D
:104D9000112311F08C2F8170882309F40FCF4D2F30
:104DA000429546954770440F440F0D2F0F7010E049
:104DB00030E020E0042E04C0000F111F221F331F1B
:104DC0000A94D2F760E070E0CB01D4FF0FC06FE02F
:104DD00070E080E090E004C0660F771F881F991F85
:104DE0004A95D2F76095709580959095C695C69531
:104DF000C370602B712B822B932BC23049F058F477
:104E0000C13019F00E94592CD9CE0E94472CD6CE21
:104E10000E946B2CD3CE0E94BC2BD0CECF7011231E
:104E200029F08C2F0E94E22B8D2F12CF8D2F0E9404
:104E300073258C2F0E94032CC1CED23F89F160F4E0
:104E4000D03FC9F0D13F29F1112309F442C001112B
:104E50009DCE8C2F8F7121C0D33F39F1D43FA1F764
:104E6000112369F1CF718C2F0E94E22B63E08C2F0C
:104E70000E94E82DA3CE112341F0053008F09ECE0C
:104E80008C2F8F710E94262C99CE063008F096CE7A
:104E9000F7CF8C2F8F71112369F20E94E22B8ECEF7
:104EA0008C2F8F711123C9F3C5CF112329F08C2FBB
:104EB0008F710E94CD2B82CE0E94C82B7FCE81E0C5
:104EC0000E94FD2D023008F479CE82E00E94FD2D73
:104ED00075CE002359F0D93309F0E9CE8FEF97EE64
:104EE000E3E081509040E040E1F7DFCE8C2F8F71FE
:104EF000A1CF4C2F4F706D2FC6010E94DC050E9480
:104F0000F82A5CCE4C2F4F706D2FC6010E94DF0532
:104F100055CEDF91CF911F910F91FF90EF90DF90D1
:104F2000CF90BF9008950F931F93CF93DF93EC0121
:104F3000688179818A810E941D2D8C010E947D2CBF
:104F40000E947F2BB801CE01DF91CF911F910F916D
:104F50000C947A25CF93DF93EC018B819C81892B74
:104F600029F08881998189238F3F59F4DF91CF916E
:104F70000895CE010E949327CE01DF91CF910C942A
:104F80002F04CE010E9479058111F3CF0E945F2D7D
:104F9000882361F38A81882349F382E0DF91CF91EE
:104FA0000C94FD2D0E94862D0E94962D0E94B22DFC
:104FB0000E9469330E94423290E080E00E943323D5
:104FC00090E080E00C9449230E944F2D0C94D2274E
:104FD0000E94762D0C94E427E92FE295EF70E250C1
:104FE000EE3070F4F0E0E451F34C0C94293B803F38
:104FF00019F020F4883E20F481E00895843FE1F325
:1050000080E00895883EC0F3813FD1F7F5CF93FB50
:10501000882780F908950E94132D0C94EC27CF93D4
:10502000DF9300D000D00F92CDB7DEB70F900F9076
:105030000F900F900F90DF91CF910895CF93DF9352
:1050400000D000D000D0CDB7DEB726960FB6F894CA
:10505000DEBF0FBECDBFDF91CF9108951F93CF93D9
:10506000DF93C0911D0416E080911E048C1304C0D0
:10507000DF91CF911F910895D0E01C9FF0011D9FFB
:10508000F00D1124E15EFB4F4081518162817381FB
:10509000848195810E941E282196C770E5CF40919A
:1050A0004F045091500460915104709152048091CA
:1050B0005304909154040C941E281F93CF93DF93B4
:1050C00080915404807FA9F480915104882389F051
:1050D00080911D04C0911E0460914F047091500492
:1050E000A0915204B0915304D62FD72316E0C813D1
:1050F00004C0DF91CF911F91089590E0109711F0B7
:10510000DF3F19F401968770F2CF189F9001199F25
:10511000300D1124F901E15EFB4F41814713F2CFBD
:1051200040814613EFCF42814111ECCF438154813E
:105130004A1B5B0B483C510528F7809154048F7043
:10514000806180935404F901EC5DFB4F80818F7086
:10515000806180838FE494E00E94AA27DF91CF9141
:105160001F910C942E28AF92BF92CF92DF92EF92B4
:10517000FF920F931F93CF93DF93CDB7DEB7619765
:105180000FB6F894DEBF0FBECDBF8C0185E0F801ED
:10519000DE011D9601900D928A95E1F7F80140819C
:1051A0005181E2808FE4C82E84E0D82E60915204B1
:1051B000709153046115710509F461C190914F0418
:1051C00020915004892F82238F3F09F458C1A38076
:1051D000B480F0905104F501E61BF70BFF2009F4B1
:1051E000FCC080915404382F307FE83CF10508F072
:1051F000B2C0311179C0FE2C251323C0941321C0F5
:10520000E1101FC08F708061809354040E944F286A
:10521000C6010E94AA2780915404F80185838F2D2E
:1052200061960FB6F894DEBF0FBECDBFDF91CF9170
:105230001F910F91FF90EF90DF90CF90BF90AF90B4
:105240000895AB2829F0842F85238F3F09F033C1BF
:1052500080E0F82FF170DF2E80FF3CC080911D04AC
:1052600020911E0436E0821315C04D875E878D8520
:105270009E850E94132D292F22952F702230F0F049
:10528000243018F59F70F1F0F8019581907FD1F4EA
:10529000D12C1EC090E0389FF001399FF00D1124F1
:1052A000E15EFB4F6181651306C06081641303C03A
:1052B00062816E110FC001968770D5CF9F7011F07B
:1052C000882331F3805E883018F3C8010E94AA2732
:1052D000FD2CA5CFEE2009F4A2CF8091540481606B
:1052E00080935404F12C9BCF251306C0941304C063
:1052F000F801EE2009F48DC04D875E878D859E856F
:105300000E940B28882319F1EE2009F180915404A2
:10531000803270F020914F043091500438872F83F1
:105320001986BB86AA868C87CE0107960E94AA277B
:1053300086E0F801AFE4B4E001900D928A95E1F7C0
:105340000E945D280E944F28FF24F39468CFC80173
:105350000E94AA27F9CF311113C07A2DB98AA88AE1
:105360006E2D89890E940F288FE494E00E94AA275D
:1053700086E0F60111928A95E9F70E944F28B2CF94
:1053800025130FC094130DC0E1100BC0F8018583E5
:10539000C8010E94AA2786E0F60111928A95E9F7D2
:1053A0003ECF4D875E878D859E850E940B28882382
:1053B00071F2EE2061F280915404803208F4B8CF8B
:1053C00020914F04309150043A8329831B82BD827F
:1053D000AC828E83CE010196A9CFE83CF10508F09E
:1053E00041C0FE2CEE2009F4B2CF25132AC094133D
:1053F00028C08091540480FD1BC0982F907FC1F07D
:10540000F8018583903F31F0982F907F905F8F70E7
:10541000892B8583C8010E94AA2786E0F801AFE4A2
:10542000B4E001900D928A95E1F70E944F28F7CEE3
:1054300086E0F801AFE4B4E001900D928A95E1F7BF
:10544000EECE4D875E878D859E850E940B2881114B
:105450006FCF80915404816080935404C8010E94EE
:10546000AA27DDCE7A2DB98AA88A6E2D89890E9455
:105470000F2886E0F60111928A95E9F7D6CFEE2043
:1054800009F465CF4D875E878D859E850E940B2828
:10549000F82E882309F45BCF86E0F801AFE4B4E08E
:1054A00001900D928A95E1F78FE494E00E946724C1
:1054B0000E945D28BACF81E08E25CBCE1F93CF937B
:1054C000DF93CDB7DEB72C970FB6F894DEBF0FBED3
:1054D000CDBF4F83588769877A878B879C87CE019A
:1054E00007960E94B328882369F08A859B85892BBB
:1054F00039F04F815885842F85238F3F09F071C083
:1055000016E05FC086E0FE013796DE01119601903D
:105510000D928A95E1F78A859B85892B89F3888589
:105520009F8189238F3F61F320911E0430E0C901E0
:1055300001968770992740911D044817190671F448
:105540000E94E82710921E0410921D0486E0EFE4EA
:10555000F4E0DF011D928A95E9F7D2CF96E0929FA1
:10556000D001939FB00D1124A15EBB4FFE01319677
:1055700001900D929A95E1F780931E040E942E28C7
:10558000BFCF819FC0011124815E9B4F0E94B32831
:105590008823E9F0E0911D041E9FF0011124E15ED3
:1055A000FB4F4081518162817381848195810E948A
:1055B0001E2880911D0490E00196877099278093A2
:1055C0001D0480911D0490911E048913DACF2C963E
:1055D0000FB6F894DEBF0FBECDBFDF91CF911F9104
:1055E000089569857A858B859C850E941E2888CFC1
:1055F000EF92FF920F931F93CF93DF938C01892B30
:1056000081F0F12CEE24E394E8012196F8018491D5
:10561000843770F4843008F05FC08130B1F082309C
:10562000A1F1DF91CF911F910F91FF90EF9008951D
:10563000853709F44CC008F43DC09CE7980F9037BB
:1056400080F78F770E94032549C00E5F1F4FFE0130
:10565000849190E2980F983060F48770FE2D01C01D
:10566000FF0F8A95EAF78F2F0E94892D0E94B22D95
:1056700002C00E946C248F2D815030F2EFE9FFE0D0
:105680003197F1F700C00000F7CF0E5F1F4FFE010A
:10569000849190E2980F983050F48770FE2D01C0ED
:1056A000FF0F8A95EAF78F2F0E948F2DDFCF0E9480
:1056B0000325E1CF0E5F1F4FFE01C491C150D8F208
:1056C0008FE99FE00197F1F700C00000F7CF0E5F70
:1056D0001F4FFE01F490CFCF0E946C248E01CBCFE0
:1056E00008950C94702B0E94712B60939504709315
:1056F000960480939704909398040C94D22708956D
:105700000C94732B0F931F930091950410919604A2
:105710002091970430919804602B712B822B932B4E
:105720001F910F910C94732B0F931F93009195046D
:10573000109196042091970430919804602371236E
:10574000822393231F910F910C94732B0F931F931C
:10575000009195041091960420919704309198043B
:1057600060277127822793271F910F910C94732B29
:105770000C94702B0C94B82B0E94BA2B609391045C
:105780007093920480939304909394040C94D22782
:1057900060E070E0CB010C94BC2B0F931F9341E0B1
:1057A00050E060E070E08A019B0104C0000F111F0F
:1057B000221F331F8A95D2F7C901B8011F910F919B
:1057C0000C94BC2B0F931F9341E050E060E070E01D
:1057D00004C0440F551F661F771F8A95D2F780912A
:1057E000910490919204A0919304B09194048A0141
:1057F0009B01082B192B2A2B3B2BC901B8011F91A8
:105800000F910C94BC2B0F931F9341E050E060E08C
:1058100070E004C0440F551F661F771F8A95D2F7AA
:10582000CB01BA0160957095809590950091910497
:105830001091920420919304309194046023712379
:10584000822393231F910F910C94BC2B0F931F93D2
:1058500041E050E060E070E004C0440F551F661F57
:10586000771F8A95D2F78091910490919204A0912C
:105870009304B09194048A019B01082719272A27D1
:105880003B27C901B8011F910F910C94BC2B0F93BA
:105890001F930091910410919204209193043091F0
:1058A0009404602B712B822B932B1F910F910C94DE
:1058B000BC2B0F931F93009191041091920420919F
:1058C00093043091940460237123822393231F91C6
:1058D0000F910C94BC2B0F931F9300919104109186
:1058E00092042091930430919404602771278227B9
:1058F00093271F910F910C94BC2B08959295907F44
:10590000890F982F977041E001C0440F9A95EAF7EC
:1059100086958695869595E0899FF0011124EB5A2E
:10592000FB4F30E020E070E05191DF011197CB0197
:10593000022E02C0969587950A94E2F781708195B0
:105940008527842385278C932F5F3F4F2530310592
:1059500059F708959295907F890F982F97708695A3
:105960008695869525E0829FF0011124EB5AFB4F26
:1059700050E040E080E0219130E0092E02C03695F1
:1059800027950A94E2F721703327042E01C0220FD5
:105990000A94EAF7822B4F5F5F4F4530510559F764
:1059A0000895BF92CF92DF92EF92FF920F931F93D1
:1059B000CF93DF938C01C0909104D0909204E0903B
:1059C0009304F09094048091950490919604A09192
:1059D0009704B0919804C82AD92AEA2AFB2ACFE171
:1059E000D0E0BC2ED701C6010C2E04C0B695A795F9
:1059F000979587950A94D2F780FD0EC0219788F776
:105A0000B12C8B2DDF91CF911F910F91FF90EF90D3
:105A1000DF90CF90BF900895B8018C2F0E94E805C9
:105A2000019761F3EECFCF93DF93EC010E94D12C6D
:105A3000BE01DF91CF910C94E8051F93CF93DF93C4
:105A4000EB0190911C04992331F0CB01DF91CF91B0
:105A50001F910C94132D882379F0CB010E94D12C37
:105A6000182F682FCE010E947E2CBE01812FDF915E
:105A7000CF911F910C94E805CB010E94AA2C182FFE
:105A8000F4CF682F8091B4029091B5020C94632FEB
:105A9000682F8091B4029091B5020C946E2F809182
:105AA000B4029091B5020C94792F80919904859558
:105AB00085958595089580919904877008959091B2
:105AC0009904977081E009F480E008958091BD0405
:105AD00008959091BD04892B8093BD04089580950D
