:100000000C940D040C9454040C9454040C94540457
:100010000C9454040C9454040C9454040C94540400
:100020000C9454040C9454040C948B2F0C945F3057
:100030000C9456250C9454040C9454040C945404BD
:100040000C9454040C9454040C9454040C945404D0
:100050000C9454040C94AD250C9454040C94540446
:100060000C9454040C9454040C9454040C945404B0
:100070000C9454040C9454040C9454040C945404A0
:100080000C9454040C9454040C9454040C94540490
:100090000C9454040C94540429003A003B003C0096
:1000A0003D003E003F00400041004200430044004C
:1000B000450046004700480035001E001F00200094
:1000C00021002200230024002500260027002D0007
:1000D0002E0049004A004B002B0014001A000800B3
:1000E000150017001C0018000C00120013002F0050
:1000F00030004C004D004E0039000400160007008F
:1001000009000A000B000D000E000F003300340040
:1001100028002A0000000000E10001001D001B0073
:1001200006001900050011001000360037003800E5
:10013000E50031005200E400E000E300E2000000CE
:10014000000001002C00000000000100E600E700B4
:100150000151500051004F00010001000100010059
:100160000100010001000100010001000100010087
:1001700001000100010001000100C35CC45CC65C19
:10018000C75CC85CC95CCA5CCB5C010001000100B3
:100190000100010001000100010001000100010057
:1001A0000100010001000100010001000100010047
:1001B0000100010001000100010001000100010037
:1001C0000100010001000100010001000100010027
:1001D0000100010000000000010001000100010019
:1001E0000100010001000100010001000100010007
:1001F00001000100BF5C01000100010001000000DE
:1002000000000100010000000000010001000100E9
:100210000100C05CBE5CC15C010001000100010086
:1002200001000100010001000100010001000100C6
:1002300001000100010001000100010001000100B6
:1002400001000100010001000100010001000100A6
:100250000100010001000100010001000100010096
:100260000100010001000100010001000100010086
:100270000100010001000100010001000100010076
:100280000100010001000100010001000100010066
:100290000100010000000000010001000100010058
:1002A0000100010001000100010001000100010046
:1002B0000100010001000100010001000100000037
:1002C0000000010001000000000001000100010029
:1002D0000100010001000100010001000100010016
:1002E0000100010001000100010001000100010006
:1002F00001000100010001000100010001000100F6
:1003000001000100010001000100010001000100E5
:1003100001000100010001000100010001000100D5
:1003200001000100010001000100010001000100C5
:1003300001000100010001000100010001000100B5
:1003400001000100010001000100010001000100A5
:100350000100010000000000010001000100010097
:100360000100010001000100010001000100010085
:100370000100010001000100010001000100000076
:100380000000010001000000000001000100010068
:100390000100010001000100000000000000000059
:1003A0002A2B2800000000000000000000000000D0
:1003B00000000029000000002C1E342021222434DB
:1003C0002627252E362D3738271E1F2021222324AD
:1003D00025263333362E37381F0405060708090A49
:1003E0000B0C0D0E0F101112131415161718191AE5
:1003F0001B1C1D2F3130232D350405060708090A63
:100400000B0C0D0E0F101112131415161718191AC4
:100410001B1C1D2F3130354C000000000000000077
:100420000000000000000000000000007E0F00D46B
:10043000FFFFFFC70000007832190A00047F3F1F4A
:10044000643214643214783C1E1E140A05222325DB
:100450002628292A2C2D2F3032333536383A3B3D89
:100460003E4042434547494A4C4E505153555759D7
:100470005A5C5E6062646668696B6D6F71737577F4
:10048000797B7D7F81838587898A8C8E90929496F3
:10049000989A9C9E9FA1A3A5A7A8AAACAEAFB1B302
:1004A000B4B6B8B9BBBCBEBFC1C2C3C5C6C7C9CA52
:1004B000CBCCCDCED0D1D2D2D3D4D5D6D7D7D8D914
:1004C000D9DADADBDBDBDCDCDCDCDCDDDDDDDDDC72
:1004D000DCDCDCDCDBDBDBDADAD9D9D8D7D7D6D584
:1004E000D4D3D2D2D1D0CECDCCCBCAC9C7C6C5C346
:1004F000C2C1BFBEBCBBB9B8B6B4B3B1AFAEACAA93
:10050000A8A7A5A3A19F9E9C9A98969492908E8C42
:100510008A89878583817F7D7B79777573716F6D1C
:100520006B6968666462605E5C5A595755535150F6
:100530004E4C4A4947454342403E3D3B3A383635AA
:100540003332302F2D2C2A292826252322FFAA7F5B
:1005500055400001010101010101010102020202F5
:10056000020202020203030303030303030404045D
:100570000404040405050505050606060606070726
:1005800007070708080808090909090A0A0A0B0BDE
:100590000B0C0C0C0D0D0D0E0E0E0F0F0F1010117D
:1005A0001111121213131414151516161717181803
:1005B00019191A1A1B1B1C1D1D1E1E1F202021226B
:1005C00022232424252626272829292A2B2C2D2DB1
:1005D0002E2F30313232333435363738393A3B3CCE
:1005E0003D3E3F404142434445464748494A4C4DC1
:1005F0004E4F50515354555658595A5B5D5E5F618A
:100600006264656668696B6C6D6F7072737577781C
:100610007A7B7D7E8082838587888A8C8E8F91937A
:100620009596989A9C9EA0A2A3A5A7A9ABADAFB1A1
:10063000B3B5B7BABCBEC0C2C4C6C9CBCDCFD1D486
:10064000D6D8DBDDDFE2E4E7E9EBEEF0F3F5F8FA2C
:10065000FDFF1C0358004F003800370020005300F6
:100660006F006C00640065007200650064000000AB
:1006700018034D006F006E0073007400610072007B
:1006800067006500610072000000040309040902AC
:100690005B00030100A0FA0904000001030101004E
:1006A0000921110100012240000705810308000A09
:1006B00009040100020300000009211101000122C8
:1006C0002200070582032000010705030320000123
:1006D00009040200010300000009211101000122A8
:1006E000BC000705840320000A120110010000006D
:1006F00008474D44530100010200010660FF0961F3
:10070000A1010962150026FF0095207508810209E4
:1007100063150026FF00952075089102C0050109A8
:1007200002A10185020901A1000509190129051588
:10073000002501950575018102950175038101056B
:1007400001093009311581257F9502750881060957
:10075000381581257F950175088106050C0A380238
:100760001581257F950175088106C0C005010980A6
:10077000A101850319012AB700150126B7009501CB
:1007800075108100C0050C0901A101850419012A19
:10079000A002150126A002950175108100C0050177
:1007A0000906A1018505050719E029E715002501BE
:1007B0009508750181020507190029EF150025012B
:1007C00095F0750181020508190129059505750146
:1007D0009102950175039101C005010906A101056A
:1007E0000719E029E7150025019508750181029593
:1007F00001750881010507190029FF150026FF0072
:1008000095067508810005081901290595057501EA
:100810009102950175039101C00011241FBECFEF15
:10082000D0E1DEBFCDBF04B603FE27C08091E70351
:100830009091E803A091E903B091EA038730904BCF
:10084000A740B04BD1F41092E7031092E803109246
:10085000E9031092EA0314BE84B7877F84BF0FB602
:10086000F894A89580916000886180936000109250
:1008700060000FBEE0E0F8E7099512E0A0E0B1E00B
:10088000EEE5F8E602C005900D92A031B107D9F768
:1008900023E0A0E1B2E001C01D92A73EB207E1F75C
:1008A0000E94502C0C949F330C940000089581E01A
:1008B000089581E008950C94590408950C945D0402
:1008C0001F93CF93DF9300D000D00F92CDB7DEB748
:1008D00049835A836B833091A20289819A813111B5
:1008E0001DC06623B9F02223A9F00E944222182FCE
:1008F000682F89819A810E94EF2169817A81812FF5
:100900000F900F900F900F900F90DF91CF911F914C
:100910000C9491150E941B22182FEFCF0E944222A7
:1009200069817A81EDCFFC01262F4081518162815E
:10093000738184810C946004CF93DF93EC0160E0B9
:100940000E949304BE01DF91CF910C945E04FF924C
:100950000F931F93CF93DF93E82FF0E0E856FC4FFF
:10096000F490C82FC695C695C695D0E0FE01E85D07
:10097000FB4F0491877010E0082E02C01595079573
:100980000A94E2F701701127C85EDB4FFE01C491A3
:10099000D0E002C0D595C7958A95E2F7C170DD27F2
:1009A0000115110519F081EE0E94DD19209719F04B
:1009B00086EE0E94DD198F2D0E94CA1ACD2B19F0E8
:1009C00086EE0E94741A012B41F081EEDF91CF91E7
:1009D0001F910F91FF900C94741ADF91CF911F918A
:1009E0000F91FF900895EF92FF920F931F93CF9373
:1009F000DF93EC01162F0AE08881882309F454C0A4
:100A0000813009F04EC08981813099F47E0122E065
:100A1000E20EF11C8A810E94CA1AE7012196812FF9
:100A2000815050F3EFE9FFE03197F1F700C000008B
:100A3000F7CF823041F47E0182E0E80EF11C8A811A
:100A40000E94DD19EACF833041F47E01E2E0EE0E30
:100A5000F11C8A810E94741AE0CF843011F0219633
:100A6000DDCF2A81229690E080E0AE014F5F5F4F9C
:100A70002053330B2A30310548F0019778F2EFE923
:100A8000FFE03197F1F700C00000F7CF089FB001F9
:100A9000099F700D1124C901860F971F2981EA0152
:100AA000E4CF0E94A704BACFDF91CF911F910F919D
:100AB000FF90EF90089560E00C94F3048F929F9262
:100AC000AF92BF92CF92DF92EF92FF920F931F935C
:100AD0006B017C0181E090E0A0E0B0E04C015D01A1
:100AE00004C0880C991CAA1CBB1C4A95D2F7B501FE
:100AF000A4014C015D0104C0880C991CAA1CBB1CFC
:100B00002A95D2F7482959296A297B2904C0880FD8
:100B1000991FAA1FBB1F0A95D2F78A019B010C21BE
:100B20001D212E213F21041715072607370789F4B9
:100B30008C299D29AE29BF29BC01CD011F910F91A0
:100B4000FF90EF90DF90CF90BF90AF909F908F90ED
:100B5000089580959095A095B0958C219D21AE210A
:100B6000BF21EACF0F93382F262F60911703709182
:100B700018038091190390911A03042F432F0E94A8
:100B80005E050F910C942D210E94F7250E948C2365
:100B9000811102C00E9439240E9477120C943A08F5
:100BA0000C943D0808950E94591D0E94D2052FEF14
:100BB00084E39CE0215080409040E1F700C00000B9
:100BC0000C94D1250F931F93CF93DF93EC0161E039
:100BD0000E9493048C01BE010E9430138823B9F156
:100BE000BE01C8010E945B04882389F1BE01C801CF
:100BF0000E94E611882359F1BE01C8010E94C8165F
:100C0000882329F1BE01C8010E941A178823F9F030
:100C1000BE01C8010E943D188823C9F0BE01C80169
:100C20000E94A310882399F08A81882339F0011546
:100C30008CE5180751F00F3D1C4579F0CE01DF918E
:100C4000CF911F910F910C9457040E94D30580E01F
:100C5000DF91CF911F910F9108950E943924F7CF12
:100C60000C94560481E008950C943206CF93C82F5B
:100C70000E9430068C2FCF910C94340690E080E0D7
:100C800008950895FC01EE0FFF1FE85CFB4F85916E
:100C900094910895CF93DF930E9491150E945F076E
:100CA000EC01811520E5920708F042C0811530E47F
:100CB000930708F0BDC0883E910528F5803E910558
:100CC00008F09DC0883A910588F4853A910508F0AE
:100CD0008FC08130910509F492C0009709F48FC04C
:100CE000049708F08CC0D0E0C0E089C08F3B91052C
:100CF00008F489C0805C9109C03CD105A0F30E9432
:100D00004206EC017CC08115904250F4C11581E08F
:100D1000D80708F074C0C03FD10528F3D0656FC074
:100D2000C11590E3D90708F079C0CE019F70E7CFD5
:100D3000811525E5920758F5811534E5930708F0EC
:100D4000A6C0811542E5940750F4C11581E5D80786
:100D500008F471C0DC2FCC27C16FD06A50C0982F27
:100D6000969596959E0123703327C115D34508F0BB
:100D70007FC0C1E0D0E002C0CC0FDD1F2A95E2F7B2
:100D800020E2929FC0011124C82BD92B6FC0C1153E
:100D900089E5D807A8F4C11598E5D90708F07CC003
:100DA000C11526E5D20708F09ECF8C2F0E94F607CA
:100DB000C82FD0E0DC2FCC27CC27DF71D0621FC03A
:100DC000C1153AE5D30708F46CC0CE0190568115E1
:100DD000904208F088CF8D2F8F710E94F60790E027
:100DE000982F882788279F719C012C2BE901E6CF3B
:100DF000C55AD0E0C65ADE4FC881D0E0D064CE01DB
:100E0000DF91CF910895C85AD0E0CC0FDD1FC45DAB
:100E1000DE4F0990D881C02DD464F1CFCE0199273F
:100E2000D3FF03C0EC01D86CEACFEC01D06CE7CF64
:100E3000DF70D06AE4CFCE01E4E096958795EA951D
:100E4000E1F783702C2F26952695237090E2299F39
:100E500090011124382B8C2F8370C1E0D0E002C0A8
:100E6000CC0FDD1F8A95E2F7C22BD32BDC68C7CFEE
:100E7000C1E0D0E002C0CC0FDD1F2A95E2F730E2DE
:100E8000939FC0011124C82BD92BDA68B8CFD82F73
:100E9000CC27C46FD06AB3CFDC2FCC27C06FD06A09
:100EA000AECF8C2F8F700E94F60734E0D695C79591
:100EB0003A95E1F7CF709C2FEC01D069A0CF823832
:100EC0009105B1F1B0F48133910509F475C048F48E
:100ED0008932910509F469C08A32910509F473C019
:100EE00008958533910509F459C08933910501F1BD
:100EF0000895833E9105A9F138F4803E9105F9F0FB
:100F0000823E910549F10895863E9105A9F1873EFB
:100F10009105C9F1843E910519F52091D90321FF6E
:100F20001FC08091D80384FD14C087EE90E008951F
:100F30002091D8032370A1F080EE90E008952091D5
:100F4000D80320FD47C03091D90330FF09C024FFEA
:100F500044C090E080E004C02091D80322FDF7CF88
:100F600008952091D80322FD3BC03091D90330FD74
:100F7000E3CF24FFF5CFEDCF2091D80323FFF0CFAF
:100F800024FDE7CFD2CF2091D80323FD2CC0309190
:100F9000D90331FFEECF84EE90E008952091D8037D
:100FA00025FFDECF89E290E008952091D80325FF48
:100FB000D7CF85E390E008952091D80326FFD0CFC6
:100FC0008AE290E008952091D80326FFC9CF81E3FB
:100FD00090E0089589E390E0089583EE90E008950D
:100FE00082EE90E0089586EE90E008959091D80307
:100FF00092FF06C0282F28712830F9F4877F84607B
:1010000093FF06C0282F28712831F1F4877E846170
:101010002091D90320FF06C0382F38713830D9F419
:10102000877F816021FF06C0282F28712831D1F4E5
:10103000877E816194FD877E0895282F2471243056
:10104000F9F68B7F8860DCCF282F2471243101F7DB
:101050008B7E8861DDCF382F3171313019F78E7F6B
:101060008860E0CF282F2171213121F78E7E8861A1
:10107000E1CF08950C94390808950C943C08E82FAA
:10108000F0E0EE0FFF1FED57FC4F80819181089536
:10109000089580EA8A95F1F70895F894E82FE2958B
:1010A000EF70F0E031A1282F2F7081E090E001C0B7
:1010B000880F2A95EAF7982F9095932391A392A1F0
:1010C000892B82A378940895CF93DF93CDE5D1E067
:1010D00089910E944D0881E0CD36D807C9F786EC8A
:1010E0000E944D0887EC0E944D0883EC0E944D0839
:1010F00080E30E944D0881E30E944D0882E00E9437
:101100004D08E7E7F3E0A3E8B3E0119211921D92D6
:101110001D9283E0E338F807C1F786E00E942A09B0
:10112000DF91CF910C94C4056F927F929F92AF9202
:10113000BF92CF92DF92EF92FF920F931F93CF93C4
:10114000DF939DE5E92E91E0F92E10E000E0C0E08C
:10115000CC24C394D12C33E8A32E33E0B32ED70193
:101160008D917D01F894E82FE295EF70F0E021A1D8
:101170008F70A60102C0440F551F8A95E2F7CA017D
:10118000922F982B91A392A18095892382A3789482
:101190000E944908A601002E02C0440F551F0A9460
:1011A000E2F7BA0160957095E7E7F3E08DE6682E07
:1011B00081E0782ED0E021913191D3019D903D01C5
:1011C000892D82958F7090E0DC0190968C9190E053
:1011D000B92DBF7002C095958795BA95E2F780FD4D
:1011E00035C0C901842B952B2817390739F09F0189
:1011F00022503109D9018D939C93D1E0AE16BF06E0
:10120000D1F6F701319780810E944D08CD2B0F5FF9
:101210001F4F0031110509F0A2CF2C2F46E063E8E3
:1012200073E087E793E00E942B090E94D0058C2F82
:10123000DF91CF911F910F91FF90EF90DF90CF90B2
:10124000BF90AF909F907F906F900895C9018623C3
:101250009723CACF0895FF920F931F93CF93DF93E5
:10126000F82E092F162FD72FC42F222349F081E003
:10127000809312020E94862590931102809310029F
:10128000809112028823A1F08091100290911102A6
:101290000E949E25069760F0EF2DF02FA12FBD2F05
:1012A00090E080E0D0E08C179D0744F0109212028D
:1012B000DF91CF911F910F91FF900895219131916E
:1012C0002D933D930196EFCFEF92FF920F931F93D3
:1012D000CF93DF93EB01E82FD11110C0442321F00D
:1012E000F0E0EE5AFA4FE4916E2F7E2F8E2FDF91B1
:1012F000CF911F910F91FF90EF9008950D2F10E067
:10130000282F30E0442329F02E5A3A4FF901249136
:1013100030E0F6E0CF9FC0011124EFEFF0E0BF0115
:101320000E942B32AB018C2F90E0880F991FA5E50E
:10133000A49FB001A59F700D1124861B970B982FB9
:10134000990F980FBF01601B710B629FD001639FC3
:10135000B00D729FB00D11248B2F9D9FB0011124F1
:10136000672F7727EF01C61BD70BBE01629FE001F5
:10137000639FD00D729FD00D11247F01E91AF108EF
:10138000E09EB001E19E700DF09E700D1124672F5C
:101390007727E61BF70BE29F8001E39F100DF29F7A
:1013A000100D1124E12F722F4230510599F048F4AD
:1013B0004115510569F04130510581F0EB2F8D2F1A
:1013C00007C04430510569F080F046305105B1F74F
:1013D0006E2F8DCFE22F7B2F812FFACFE22F7D2F23
:1013E000F7CFEB2F822F712FF3CF7B2F822FED2F93
:1013F000EFCF41E00C94640908950C94F909CF9360
:10140000DF93762FE901682F842F0E94FD097983ED
:1014100068838A83DF91CF91089580918F03982FFD
:101420009E7F29F48170826080938F0308958635B2
:10143000E8F381708465F8CF88E090E00C94403345
:10144000CF92DF92EF92FF926B017C010E940D0A16
:10145000B701A60188E090E0FF90EF90DF90CF9079
:101460000C945E3360918F0370919003809191038F
:10147000909192030C94200AEFE8F3E083E08083DC
:1014800011828FEF828383831482608171818281D4
:1014900093810C94200A80918F0380FF02C086956F
:1014A000089580E0089590919303933018F49F5F1E
:1014B00090939303882351F060918F037091900370
:1014C00080919103909192030C94200A089581E0F9
:1014D0000C94530A90919303992319F0915090938F
:1014E0009303882351F060918F0370919003809152
:1014F0009103909192030C94200A089581E00C943A
:101500006A0A80919303089580939303662351F0B0
:1015100060918F0370919003809191039091920359
:101520000C94200A089560E00C94840A8091900342
:10153000089580919103089580919203089570E039
:101540000C94AD126091080180918F0380FF0AC056
:101550008091070123E0829FC00111248C569C4F8B
:101560000C949F0A8091090190910A0123E0829FC7
:10157000F0011124EC56FC4F891750F711821082AC
:1015800012828F5F3396F8CF90918F0390FF14C033
:101590009091090120910A0133E0939FF0011124F9
:1015A000EC56FC4F921710F00C94A20A81836083D2
:1015B00042839F5F3396F6CF0895CF93DF9300D099
:1015C0000F92CDB7DEB790918F0390FF0AC09E01B6
:1015D0002F5F3F4F0E94FF094B8169818A810E94E2
:1015E000C40A0F900F900F90DF91CF910895CF9381
:1015F000DF93EC01EC81F0E0E35BFB4F4491EFE81B
:10160000F3E0628181810E94DD0A8C818F5F8C838F
:10161000DF91CF910895CF93DF93EC01EFE8F3E0F2
:10162000438162818C810E94DD0A8C818F5F8C8373
:10163000DF91CF9108950F931F93CF93DF9300D045
:101640000F92CDB7DEB78C018091130281110AC0D1
:101650009E012F5F3F4F4FEF6FEF0E94FF098A817E
:1016600080931302F8016481613069F08091130264
:1016700040E0662361F040E0623011F440911302D3
:1016800080E060E004C06091130240E080E00E94CE
:10169000C40AF801848190E0019663E070E00E9442
:1016A0003F3284830F900F900F90DF91CF911F9165
:1016B0000F910895AF92BF92CF92DF92EF92FF9277
:1016C0000F931F93CF93DF9300D00F92CDB7DEB768
:1016D000182FF62E042FE22E90918F0390FF29C031
:1016E000E92FE695AE2FB0E0AD58BE4F8C918093B8
:1016F00086029E7F923059F59E012F5F3F4F812FCA
:101700000E94FF094B8169818A810E94C40A10935B
:101710009003F092910300939203EE2051F06091B8
:101720008F037091900380919103909192030E9496
:10173000200A0F900F900F90DF91CF911F910F9182
:10174000FF90EF90DF90CF90BF90AF9008958230E0
:1017500019F400919203DBCF863019F410919003B5
:10176000D6CF8930D9F3893191F6E9518E2F817026
:10177000D82EE695F0E0E35BFA4FA590B490C12C2B
:10178000BB2460910B01C61618F00E94A20ABFCFBD
:101790002C2D30E0A29EC001A39E900DB29E900D14
:1017A000112470E00E942B32812FD11013C0860FBC
:1017B00040910901420F532F511D9A01220F331FEF
:1017C000240F351F2C563C4F402F6F2D0E94FF09D0
:1017D000C394D7CF861BECCFEFE8F3E09181282F9D
:1017E0004381628188E0890F0C945A0B81E00C944C
:1017F000EC0BEFE8F3E09181282F4381628188EFC1
:10180000890F0C945A0B81E00C94F90BEFE8F3E08C
:10181000628121E1620F08F46FEF282F43818181FB
:101820000C945A0B81E00C94060CEFE8F3E0628113
:1018300021E1621B08F460E0282F438181810C9430
:101840005A0B81E00C94150CEFE8F3E0438121E1A1
:10185000420F08F44FEF282F628181810C945A0BBC
:1018600081E00C94240CEFE8F3E0438121E1421B7A
:1018700008F440E0282F628181810C945A0B81E0AA
:101880000C94330C20E00C945A0BEF92FF921F93B0
:10189000CF93DF93EC0110E0EE24EA94F12C6091F9
:1018A0000B01161770F00E94A20A9A818C8190FF9A
:1018B00027C08F5F8C83DF91CF911F91FF90EF90B6
:1018C000089520910901422F410F5527551FCA0144
:1018D0009A01220F331F280F391F2C563C4F70E0FE
:1018E000C7010E943F32962F8C81409192036091F4
:1018F0009103199F800D11240E94FF091F5FCFCF14
:101900008150D8CFAF92BF92CF92DF92EF92FF92E9
:101910000F931F93CF93DF93FC0182810FEF80FF22
:1019200001E010E045E1A42E80910B011817C8F0EA
:101930000E94A20A80911502013009F055C0811160
:1019400002C080910B01815080931502DF91CF91ED
:101950001F910F91FF90EF90DF90CF90BF90AF90CD
:101960000895C0910901C12ED12CCC0DDD2DD11DC2
:10197000CE01880F991FC80FD91FCC56DC4F198292
:1019800018821A8234E0E32EF12CB12C80911502DA
:101990008B0D86311CF16A2D0E941D32892F082E75
:1019A000000C990BC816D90691F4809192038E9D74
:1019B000A0018F9D500D112455954795559547953C
:1019C0009E0160919103809190030E94FF09B00EE7
:1019D000F1E0EF1AF108D1F61F5FA6CF87FFDFCF46
:1019E00090910B01890FDBCF90E0019660910B0184
:1019F00070E00E943F32A8CF0F931F93CF93DF93E5
:101A00008091090190910A0123E0829FF001112445
:101A1000EC56FC4F891740F1C0E0D3E060910B0118
:101A2000C61740F10E94A20A20910501809114027C
:101A3000820F8093140290910601920F90930601F9
:101A4000191654F4082E000C990B40910B014150CB
:101A5000550B841795071CF0219520930501DF9104
:101A6000CF911F910F9108951182108212828F5F82
:101A70003396D0CF0C2F10E070E0C8010E943F32A7
:101A800020910901820F482F50E020911402022E6C
:101A9000000C330B02171307BCF020910601022E35
:101AA000000C330B201731077CF08D9F900111241F
:101AB0002C563C4F4091920360919103809190038A
:101AC0000E94FF09CF5FAACFFA01EE0FFF1FE40FBC
:101AD000F51FEC56FC4F118210821282F3CF8F92C9
:101AE0009F92AF92BF92CF92DF92EF92FF920F93AD
:101AF0001F93CF93DF93EC014C81042F10E09801EA
:101B0000D8010E948A329B01AC010E94A0324B0195
:101B10005C01E0E2F0E0E01BF10BA5E5B0E0AC0118
:101B20009B010E94A0326B017C019F01DF010E949A
:101B300082329B01AC010E94AB329B01AC01280DAB
:101B4000391D4A1D5B1DC701B6010E945332F22E9A
:101B5000822F90E039E23F1560F143E0249F90012D
:101B6000112435952795122F109500E085E5E82E74
:101B7000EF1880910B01081758F10E94A20A9C816E
:101B800081E0992319F0903219F48FEF80930401CA
:101B900080910401890F8C83DF91CF911F910F9168
:101BA000FF90EF90DF90CF90BF90AF909F908F907D
:101BB000089525E530E0B901681B790B9B01220FE0
:101BC000331F260F371F37FFCCCF2F5F3F4FC9CFB3
:101BD0008E2D01FD8F2D20910901622F600F772737
:101BE000771F9B01220F331F260F371F2C563C4FA8
:101BF000412F609191030E94FF090F5FBACF0F93AD
:101C00001F93CF93DF93EC0110E000E090910B0164
:101C10009017110609F06CF40E94A20A8C8190E0E2
:101C20000196817099278C83DF91CF911F910F913D
:101C3000089520910901A801420F511D9A01220F18
:101C4000331F240F351F2C563C4F4C81609191035C
:101C50008091900396959017110651F04CF0442313
:101C600049F0409192030E94FF090F5F1F4FCECFB2
:101C70004423B9F340E0F7CF8F929F92AF92BF9287
:101C8000CF92DF92EF92FF920F931F93CF93DF9348
:101C9000FC01B280948081E0848300E015E05BE485
:101CA000A52E88248394EE24EA94F12C7BE4C72E9D
:101CB000D12C80910B01081770F0DF91CF911F910B
:101CC0000F91FF90EF90DF90CF90BF90AF909F90DB
:101CD0008F900C94A20AC02FD0E01C9FF0011D9F92
:101CE000F00D1124EA5EFD4F91101CC01382128288
:101CF00020910901CE01820F911D9C01220F331FFB
:101D0000280F391F2C563C4F1C9FF0011D9FF00DD2
:101D10001124EA5EFD4F4281618180810E94FF09AA
:101D20000F5FC7CF2381222379F121502383348190
:101D30008A2D821B311101C0822F1C9FF0011D9F33
:101D4000F00D1124EA5EFD4F90919203899FC0012E
:101D50001124B6010E942B326283211104C0332367
:101D600011F01482A38222E02B1510F21C9FF001C7
:101D70001D9FF00D1124EA5EFD4F8091900380833A
:101D8000809191038183B4CF0E941B3382309140B4
:101D90000CF0AECF82E08B1530F50E941B33B701FB
:101DA0000E943F321C9FF0011D9FF00D1124EA5E3E
:101DB000FD4F808322E02B15C8F40E941B33209135
:101DC00091032695622F70E00E943F32280F1C9FDE
:101DD000F0011D9FF00D1124EA5EFD4F2183128258
:101DE000A382848285CF80919003DCCF20919103E0
:101DF000EECFEFE8F3E080818E7F80836081718198
:101E0000828193810E94200A109287022FEF80E73F
:101E100092E0215080409040E1F700C000000C9417
:101E2000A20AEFE8F3E080818E7F80831092870220
:101E30002FEF80E792E0215080409040E1F700C012
:101E400000000C94A20A60918F03669570E04BE04D
:101E500050E08CE091E00E942B33892B19F481E053
:101E6000809387020E9486259093800280937F0250
:101E7000089590918F0390FF35C09170811128C013
:101E8000926090938F03662351F060918F0370915D
:101E9000900380919103909192030E94200A609197
:101EA0008F03669570E04BE050E08CE091E00E947B
:101EB0002B33892BA1F01092870281E0809382025C
:101EC0004091920360919103809190030C94420C95
:101ED0008B3210F09465D5CF880F982BD2CF0E940B
:101EE000230FEBCF0895682F90918F03969581E093
:101EF000890F8B3208F081E00C94390F81E00C944B
:101F0000730F682F90918F0396958FEF890F09F4C7
:101F10008AE20C94390F81E00C94810F61E00C94FB
:101F2000390FEFE8F3E080818160808386950C941F
:101F30008E0F80918F0380FD0C94F90E0C94910FFD
:101F400060E00C94390F8091850281112EC00E94AF
:101F50008C23811104C00E9439240E943C0A0E94F3
:101F60001C0A60938F037093900380939103909366
:101F700092036E7F61F40E943C0A0E941C0A6093E7
:101F80008F037093900380939103909392030E9428
:101F90000D0A1092870280918F0380FF03C08695FF
:101FA0000E94A00F81E0809385020895EFE8F3E09E
:101FB00080818160808386950C94A00F0F931F937E
:101FC000CF93DF9380918702882309F49DC080918D
:101FD0008602E0918F03E695E81BE0938102823050
:101FE000C9F5F0E0E75BFB4FE491CE2FD0E007EFBF
:101FF0001AE080918202882389F0109282020E9466
:1020000086259E0120953095820F931F9093800224
:1020100080937F02109284021092830280917F024B
:10202000909180020E949E258C179D0708F46CC039
:10203000E0917F02F0918002CE0FDF1FD0938002EB
:10204000C0937F028FE792E0F801DF91CF911F915B
:102050000F910994863049F4F0E0EA5BFB4FE4917C
:10206000CE2FD0E00BE01BE0C4CF893051F4E695D1
:10207000F0E0ED5BFB4FE491CE2FD0E005E41CE0F7
:10208000B8CF8F3051F4E695F0E0E05CFB4FE4917F
:10209000CE2FD0E002E81CE0ACCF853149F4F0E06F
:1020A000E35CFB4FE491CE2FD0E00CEF1CE0A1CF1E
:1020B000C8E2D0E00FE61DE0883109F49ACF833200
:1020C00039F4EBE3F4E0C591D4910BE11BE091CF3F
:1020D000C4EFD1E00FEF1DE0843209F48ACFC0EDE8
:1020E000D7E00CEF19E0853209F083CF8E2F63E043
:1020F0000E941132E92FF0E0E85CFB4FE491CE2F13
:10210000D0E00CE31EE075CFDF91CF911F910F91CE
:102110000895FA01811101C0FB010994CF93DF9367
:10212000C82FD62F0E944B0A8C1740F00E944B0AF2
:102130008D1720F4DF91CF910C947E0F8C2FDF91BF
:10214000CF910C948E0F0F931F93CF938C01FB01B3
:10215000C281CC2309F465C00E94D7228272F801A3
:10216000E35CFC45E431F10538F4EF55FC4C0C948C
:1021700075320E94990FC0E08C2FCF911F910F9163
:1021800008954BE85FE06EE77FE00E948910F3CF8F
:102190004EE75FE06BE87FE0F8CF43E05CE066EF9E
:1021A0007BE0F3CF46EF5BE063E07CE0EECF41E223
:1021B0005CE062E17CE0E9CF42E15CE061E27CE08E
:1021C000E4CF4FE35CE060E37CE0DFCF40E35CE042
:1021D0006FE37CE0DACF4EE75AE067E67AE0D5CFEE
:1021E00047E65AE06EE77AE0D0CF81E00E948E0F9A
:1021F000C2CF65E082E00E948E10BDCF68E086E02D
:10220000FACF6EE089E0F7CF64E18FE0F4CF67E1C9
:1022100085E1F1CF88E1EACF62E289E1ECCF83E2A8
:10222000E5CFC1E0A9CF8091D3030C94BE23809168
:10223000D30386958695869508950E948C238111F7
:1022400002C00E9439240E94BA238093D3038032B3
:1022500020F0877088618093D3039091D303892FF6
:10226000817090FF04C0892F8695869586950C9481
:1022700079128091D303982F9695969596959330E1
:1022800040F49F5F990F990F990F8770892B809366
:10229000D3038091D30381608093D3030E94BE2334
:1022A0008091D3038695869586950C9479128091BA
:1022B000D303982F987F79F088508093D303887F39
:1022C00091E009F490E08091D30390FB80F9809332
:1022D000D3030E94BE238091D3038695869586956D
:1022E0000C9479128091D30380FD13C08160809398
:1022F000D303813019F489E08093D3038091D30311
:102300000E94BE238091D3038695869586950C9472
:10231000791208958091D30380FF08C08E7F809347
:10232000D3030E94BE2380E00C947912089580911B
:10233000D30380FD0C948A110C9472119091D303F5
:10234000892F8695869586958F5F8F7197708430DB
:10235000D8F4880F880F880F892B8093D30380913E
:10236000D303887F91E009F490E08091D30390FB40
:1023700080F98093D3030E94BE238091D303869576
:10238000869586950C9479129093D303E8CF843088
:1023900008F083E09091D3039770282F220F220F2B
:1023A000220F922B9093D303987F21E009F420E031
:1023B0009091D30320FB90F99093D3030C9479125E
:1023C0000E94C7118091D3030C94BE239C01FB0192
:1023D0008281882349F12E3BFCE53F07C9F040F498
:1023E0002C3BECE53E0769F02D3B3C4579F0089528
:1023F000203C9CE5390791F070F0213C3C4589F088
:10240000089583E00E94E01180E0089580E0FACF13
:102410000E945711F9CF0E943911F6CF0E949711EF
:10242000F3CF0E949E11F0CF81E00895E82FE2954E
:10243000EF70F0E032A1282F2F7081E090E001C012
:10244000880F2A95EAF78095832382A30895EF9257
:10245000FF920F931F93CF93DF93CEE9D1E004EB6C
:1024600011E0EE24E394F12C8991E82FE295EF70CE
:10247000F0E091A1282F2F70A70102C0440F551F33
:102480002A95E2F7942B91A30E9416120C171D07B0
:1024900059F7DF91CF911F910F91FF90EF90089521
:1024A000AEE9B1E024EB31E061E070E08D91E82F1E
:1024B000E295EF70F0E092A18F70AB0101C0440F84
:1024C0008A95EAF7892F842B82A32A173B0771F795
:1024D0000895CF93DF93CEE9D1E089910E9416123F
:1024E00081E0C43BD807C9F7DF91CF9108950C94E0
:1024F000271228E0829FC001112463E070E00E944F
:102500002B32FB01FF27EE0FFF1FEC54FE4F8081A3
:10251000918190938A028093890208952091880284
:1025200081E090E002C0880F991F2A95E2F7209180
:10253000890230918A0282239323892B59F00E94C9
:1025400050128091880290E001968F7099278093B5
:10255000880208950E946912F4CF579A4BB14F77C1
:102560005BB15068EFB7F8949B01220F331F260F21
:10257000371F280F391F2817390741F4EFBF8FE5A0
:1025800094E00197F1F700C000000895DC016D911F
:10259000CD0178E05BB9000000C067FF4BB9660F62
:1025A000000000C000C000C04BB900C07A9591F790
:1025B000E2CF82E290E00E943833813289F483E2F4
:1025C00090E00E943833823059F484E290E00E9417
:1025D000383391E0803109F090E0892F81700895BF
:1025E00080E0FCCFCF93C82F6FEF811161E282E2D0
:1025F00090E00E944C336FEFC11162E083E290E003
:102600000E944C336FEFC11160E184E290E0CF9102
:102610000C944C3380E00E94F2120C9486230895AF
:1026200085E290E00E943833682F70E090E080E00F
:10263000089585E290E00C944C330E940F130E94A1
:10264000D91281110CC060E070E0CB010E94191317
:102650000E9409150E94F51581E00C94F21208956C
:10266000CF93FB01C281CC2309F19C0122513F454C
:102670002031310520F582510E940516C0E08C2FD3
:10268000CF91089581E00E94532143E062E081E010
:102690000E94B205F3CF81E00E94742143E062E022
:1026A00081E00E94B205EBCF82E0F6CF8031FFE5FA
:1026B0009F0789F381319F45B9F3C1E0E0CF8031B5
:1026C000EFE59E07F9F281319F45C9F682E0DBCF45
:1026D0002FEFFC0120830895CF93DF93EC018881D5
:1026E000893029F08A3079F0DF91CF9108950E94E6
:1026F00017112FEF829FC001112463E070E00E9448
:102700002B326983F1CF1982EFCFFC012081293070
:1027100061F48181F3E08F9FC00111246FEF70E0BD
:102720000E942B32862F0C94C7110895CF93DF930C
:10273000EC0188818138A9F028F4803871F0DF91AC
:10274000CF910895823881F08338C9F70E94960AA4
:1027500089830E94990A8A83F2CF0E949C0A898306
:10276000EECF0E944B0AFBCF0E94810AF8CFCF9395
:10277000DF93EC0188818138E1F028F4803869F03A
:10278000DF91CF910895823811F18338C9F70E9403
:102790009C0A482F6A81898108C0D9810E94990AC0
:1027A000C82F0E94960A4D2F6C2FDF91CF910C9469
:1027B000420C89810E94A00F8981811104C0DF91A0
:1027C000CF910C94110FDF91CF910C94D60F89818A
:1027D000DF91CF910C94930ADF92EF92FF920F93C7
:1027E0001F93CF93DF93EC01D62EDC01ED918D0189
:1027F000E150E33108F0C9C0F0E0EB54FC4C0C941C
:102800007532198289E08A836D2DCE01DF91CF91D7
:102810001F910F91FF90EF90DF900C94442B8981D2
:10282000823069F0833071F08130D9F40E949225B2
:102830000E947B326A837B838C839D83E5CF0E94D9
:102840001013F6CF7E0110E0812F0E943F08F701A0
:10285000928383831F5FF2E0EF0EF11C1630A1F725
:10286000D3CF6D2DCE010E946813CECF89818230E7
:10287000C1F76A817B818C819D810E947B320E949D
:102880001913C2CF4B816A8189810E94DB1498277A
:10289000892798279D838C83B7CF2C813D81322750
:1028A000232732274B816A8189810E94F414ACCF9F
:1028B0000E940915A9CFCD010E948513C8010E946D
:1028C000B713A2CFCD010E946C13C8010E949613CA
:1028D0009BCF0E9413110E94320A96CF0E949E1530
:1028E000898392CF0E94A0159827892798279A83D9
:1028F00089838ACF6B8170E089819A81AE014C5FB8
:102900005F4F9827892798270E94A3157DCF6B8159
:1029100070E089819A81AE014C5F5F4F98278927CB
:1029200098270E94CA1570CF0E94F5156DCF0E949E
:10293000C814D6CF6B8170E089819A81AE014C5F5B
:102940005F4F9827892798270E9441155DCF6B819B
:1029500070E089819A81AE014C5F5F4F982789278B
:1029600098270E94671550CF0E940A134DCF0E94EE
:10297000442B2FEF81EE94E0215080409040E1F70E
:1029800000C000000E94D1253FCF8FEF88833CCF4D
:1029900084E0089590E2699FB001112450E0440F53
:1029A000551F640F751F90EC899F600D711D1124D8
:1029B000CB01869608950F931F93CF93DF930E94C8
:1029C000CA148C010E943833C82FD0E0DC2FCC27EA
:1029D000C80101960E9438339E01282BC901DF915E
:1029E000CF911F910F9108950F931F93CF93DF9372
:1029F000122F032F0E94CA14EC01602F0E944C3347
:102A0000612FCE010196DF91CF911F910F910C9410
:102A10004C33AF92BF92CF92DF92EF92FF921F930F
:102A2000CF93DF9388E9C82E80E0D82ED0E07601DE
:102A3000C0E014C0F50125913491412F6C2F8D2FEA
:102A40000E94F41482E0A80EB11C1F5F103191F7B0
:102A500080E2E80EF11CCF5FC63019F0570110E09C
:102A6000E9CFDF5F80ECC80ED11CD43001F7DF91D5
:102A7000CF911F91FF90EF90DF90CF90BF90AF90DC
:102A80000895EF92FF920F931F93CF93DF93EC0182
:102A90008A017C01E60EF71ECE018696CE15DF0573
:102AA00039F4DF91CF911F910F91FF90EF9008952E
:102AB000C11523E0D20740F40E943833F801808327
:102AC0000F5F1F4F2196E8CFF8011082F9CFCF9208
:102AD000DF92EF92FF920F931F93CF93DF937C01CE
:102AE0006A018C01060F171FEC01CE018696C017F4
:102AF000D10749F4DF91CF911F910F91FF90EF9093
:102B0000DF90CF900895C11523E0D20740F4FE0175
:102B1000EE19FF09EC0DFD1D60810E944C332196DA
:102B2000E4CF462F843038F4763028F4603118F43E
:102B3000672F0C94DB1490E080E0089580E1089505
:102B40008AED94E00895EF92FF920F931F93CF9335
:102B5000DF93EC018A017C01E60EF71ECE018A5D4F
:102B60009C4FCE15DF0539F4DF91CF911F910F9166
:102B7000FF90EF900895CA3D24E0D20740F40E94F0
:102B80003833F80180830F5F1F4F2196E7CFF8019C
:102B90001082F9CFCF92DF92EF92FF920F931F93A3
:102BA000CF93DF937C016A018C01060F171FEC01A4
:102BB000CE018A5D9C4FC017D10749F4DF91CF91B8
:102BC0001F910F91FF90EF90DF90CF900895CA3D35
:102BD00024E0D20740F4FE01EE19FF09EC0DFD1DC3
:102BE00060810E944C332196E3CFCF93DF93C6E2FE
:102BF000D3E060E0CE010E944C332196C11588E0FD
:102C0000D807B9F7DF91CF910895DF92EF92FF9245
:102C10000F931F93CF93DF9300D000D0CDB7DEB7D3
:102C2000F82E8FE08F1540F08FEF97E00E94383339
:102C300006E213E08823C1F00F900F900F900F90E1
:102C4000DF91CF911F910F91FF90EF90DF9008954A
:102C5000011588E0180781F3C8010E9438338111FB
:102C600001C0FA940F5F1F4FF110F2CF19821A8240
:102C70001B821C82DD24D39478018FEFE81AF80AB6
:102C8000C8010E94383389831A828823A9F29FEFF2
:102C9000980F933078F48A83D9820E5F1F4FC70153
:102CA0000E9438338B83882339F2CE0101960E942B
:102CB0005B05E2CF8701F9CF0F931F93CF93DF938B
:102CC000C42FD22FFC0182818823C9F040938D024A
:102CD0000E94862590938C0280938B0280E28C0F59
:102CE000883008F050C0C77081E001C0880FCA95D5
:102CF000EAF7DF91CF911F910F910C94DD1A10919B
:102D00008D02141335C080918B0290918C020E9429
:102D10009E25883C910560F5C0E2CD0F1D17B9F0E6
:102D200080E2810F883040F4177081E001C0880F85
:102D30001A95EAF70E94E41AC83048F481E09D2F02
:102D4000977001C0880F9A95EAF70E94DD1A802FCC
:102D50000E94CA1AC830B8F4D77081E001C0880F49
:102D6000DA95EAF7DF91CF911F910F910C94E41A55
:102D700080E28C0F883038F4C77081E001C0880F82
:102D8000CA95EAF7EFCFDF91CF911F910F91089588
:102D90000F939C01CB01243F4CE5340759F1A8F473
:102DA000293DFCE53F0701F12A3D4CE53407D1F10F
:102DB000283D3C4591F406E221EE41EE68ED7CE5CC
:102DC0000E945C1680E00F910895263FFCE53F07C6
:102DD000E9F0B0F0273F3C45F9F0FC0182818823FF
:102DE00039F110928D02EFCF07E225EE45EE69ED45
:102DF0007CE5E6CF06E221EE40EE64EF7CE5E0CF35
:102E000007E225EE44EE65EF7CE5DACF06E221EE3F
:102E100042EE66EF7CE5D4CF07E225EE46EE67EFA3
:102E20007CE5CECF08E221E045EE6AED7CE5C8CF37
:102E300081E0C9CFCF93DF93EC01FB01828188232E
:102E400009F419C1C230FCE5DF07C0F1C6319CE5C9
:102E5000D90730F09E012B5F3C452930310570F5D4
:102E60000E949F239093D9038093D803C031ECE54F
:102E7000DE0709F4CFC008F05BC0C8308CE5D80786
:102E800009F4B6C088F5C430ECE5DE0709F4A8C043
:102E9000C0F4C2308CE5D80709F49CC08091D803F7
:102EA0008260C330DC4509F498C08091D8039091CA
:102EB000D9030E94AD230E94591D80E0DF91CF917C
:102EC00008958091D8038061C630ECE5DE0709F4EF
:102ED00084C08091D8038860C730DC4508F47DC089
:102EE0008091D803806279C0CC308CE5D80709F492
:102EF00089C070F48091D8038C60CA30ECE5DE079D
:102F000009F46BC008F478C08091D8038E7F65C047
:102F1000CE308CE5D80709F479C08091D8038B7F37
:102F2000CF30DC4508F459C08091D8038F7E55C05E
:102F3000CC3FECE5DE0709F457C030F5C3318CE532
:102F4000D80709F46FC078F4C131ECE5DE0709F465
:102F500065C0C231DC4509F0A8CF0E94591D80919F
:102F6000D8038F773AC0C5318CE5D80709F462C021
:102F700008F476C08091D9038160CB3FDC4509F02D
:102F800094CF8093D90391CFC115FDE5DF0709F4F4
:102F90004DC088F48091D9038D7FCE3F9CE5D90741
:102FA00081F38091D9038E7FCF3FDC4550F3809130
:102FB000D9038360E6CFC230FDE5DF0709F459C0CD
:102FC00008F444C080E0C330DD4509F06ECF0E94B4
:102FD0003B246BCF8091D80381608093D80365CF69
:102FE0008091D8038460F9CF8091D9038260C9CFE2
:102FF0008091D8038064F1CF0E94591D8091D8033D
:103000008068EBCF8091D8038D7FE7CF8091D80384
:10301000877FE3CF8091D8038F7DDFCF8091D80366
:103020008F7BDBCF8091D803837FD7CF8091D9036B
:103030008C7FA7CF8091D80382FB992790F921E05C
:10304000922790FB82F990FB83F9C7CF8091D90337
:10305000982F909591708E7F892B90FB81F991CF5D
:103060000E94591D9091D803892F97FB87F98058AA
:10307000B4CF81E0ACCF81E021CFCF93DF93EB01E0
:1030800086319C4511F50E94D7229A81992399F0A7
:103090008A7A91E009F490E090938E02811109C040
:1030A00089E20E94B2220E94232380E0DF91CF9127
:1030B000089585E3F6CF80918E02811104C089E2E4
:1030C0000E94B922F0CF85E3FBCF81E0EFCF909350
:1030D0009402809393020895E0919302F0919402F8
:1030E000309721F00190F081E02D099480E008955F
:1030F000E0919302F0919402309799F020912B0186
:10310000222359F02091D80327FF07C0DC012C911E
:1031100011962C93119725E02C930280F381E02DDA
:1031200009940895E0919302F0919402309739F058
:1031300022E0DC012C930480F581E02D09940895B0
:1031400020919102309192022817390771F09093E3
:10315000920280939102E0919302F0919402309751
:1031600021F00680F781E02D0994089520918F02C7
:10317000309190022817390771F090939002809354
:103180008F02E0919302F0919402309721F0008435
:10319000F185E02D0994089585B7806885BF85B7CE
:1031A000806885BF0895089508950C94D3180895F4
:1031B0000C94D7180E94CC180E94D4180C94D518DF
:1031C00081E008950C94E018089508950E947D25EB
:1031D0000E9464080E941D130E940B260E941D116C
:1031E0000E94A30F0C94D8187F928F929F92AF9257
:1031F000BF92CF92DF92EF92FF920F931F93CF93E4
:10320000DF93CDB7DEB72A970FB6F894DEBF0FBEB7
:10321000CDBF0E94E4180E94E5180E9494080E9405
:10322000E218882309F475C046E9A42E42E0B42EC2
:1032300010E000E0702E802F0E943F086C01F50125
:10324000819091905F018816990609F45CC0809185
:10325000440381FD0E94480880E0EE24E394F12CB1
:103260008C249D2494012E213F21232B09F445C059
:103270008E837F82CE20DF2081E0CD2809F480E09C
:1032800088870E9486258160782F9A8789874E815A
:103290005F8168858A850E94AE19000F111FF801B1
:1032A000EA56FD4F80819181E826F926F182E0827D
:1032B0000E94DE0F0E948E120E94B6270E946C1898
:1032C000909195028917B1F10E946C188093950234
:1032D0002A960FB6F894DEBF0FBECDBFDF91CF9117
:1032E0001F910F91FF90EF90DF90CF90BF90AF9024
:1032F0009F908F907F900C9436068F5FEE0CFF1C92
:10330000803109F0AFCF0F5F1F4F0630110509F074
:1033100091CF8FEF89838A831B820E9486258160EB
:10332000782F9D838C8349815A816B818D810E9486
:10333000AE19BECF2A960FB6F894DEBF0FBECDBF32
:10334000DF91CF911F910F91FF90EF90DF90CF9081
:10335000BF90AF909F908F907F900895CF93DF9311
:10336000CDB7DEB72B970FB6F894DEBF0FBECDBF3B
:103370004F83588769877A878B871E821D8285E0F5
:10338000FE013796DE01119601900D928A95E1F7C4
:1033900049815A816B817C818D819E812B960FB6EC
:1033A000F894DEBF0FBECDBFDF91CF910C94CF1F3D
:1033B000FC01808191810C948422CF93C82F8823B3
:1033C00009F490C08238C1F40E946C1881FD8AC053
:1033D00089E30E94B2220E9423232FEF81EE94E022
:1033E000215080409040E1F700C0000089E30E9436
:1033F000B922CF910C9423238338A1F40E946C1836
:1034000080FD70C083E50E94B2220E9423232FEF2B
:1034100081EE94E0215080409040E1F700C0000030
:1034200083E5E5CF8438A1F40E946C1882FD5AC070
:1034300087E40E94B2220E9423232FEF81EE94E0C2
:10344000215080409040E1F700C0000087E4CFCFDA
:103450008CEF8C0F813AB8F48C2F0E941D2A8111B9
:1034600041C06C2F80911701909118010E94542443
:10347000882329F08C2F0E94B9220E9423238C2FAD
:103480000E94B222B6CF80E28C0F883048F4C77019
:1034900081E001C0880FCA95EAF70E94DA22A9CF1D
:1034A000EBE5EC0FE33040F4F0E0EC50FE4F8081B0
:1034B00090E0CF910C94A018E8E5EC0FE73150F4C0
:1034C000F0E0EE0FFF1FEA53FE4F80819181CF9114
:1034D0000C94B618C03F30F08C2F0E94B026CF91CC
:1034E0000C949B27CF910895882309F452C0823809
:1034F00071F40E946C1881FF4CC089E30E94B222D3
:103500000E94232389E30E94B9220C942323833849
:1035100059F40E946C1880FF3CC083E50E94B222DF
:103520000E94232383E5EFCF843859F40E946C185E
:1035300082FF2FC087E40E94B2220E94232387E4E7
:10354000E2CF9CEF980F913AF0F290E2980F98300A
:1035500050F4877091E001C0990F8A95EAF7892F9E
:103560000E94E022D2CF9BE5980F933020F490E0A8
:1035700080E00C94A01898E5980F973120F490E023
:1035800080E00C94B618803F20F00E9418270C941D
:103590009B270895CF93C82F0E94DD19C93349F4A2
:1035A0002FEF87EE93E0215080409040E1F700C07C
:1035B00000008C2FCF910C94741A882321F00E9464
:1035C000DA220C9423230895882321F00E94E0221C
:1035D0000C9423230895BF92CF92DF92EF92FF9233
:1035E0000F931F93CF93DF936C01D62FC72FFC014E
:1035F000058102950F70128111110E94F7220E941D
:10360000D022E82E882391F01123D1F08C2F807FD7
:10361000803421F080E28D0F883090F082E00E94AB
:103620006E230E94D02291E0E82EE926BC2EB294AF
:103630009FE0B922EB2DF0E0E853FC4C0C9475327E
:10364000E12CF4CF0C2F0F70C07F11F00295007F9A
:103650001123A9F0002359F080E28D0F883010F07B
:10366000D11109C0802F0E94DA220E9423238D2FBE
:103670000E94DD1914C0802F0E94EA22F6CF8D2F00
:103680000E94741A002359F080E28D0F883010F0E8
:10369000D1112CC0802F0E94E0220E9423232B2DC9
:1036A0002850330B2430310520F40E946C180E94FE
:1036B0003606EE2009F49EC10E94CC2280FD9AC1FC
:1036C000F60112820E94C6220E945321C6010E9466
:1036D0001B1D0E94C622DF91CF911F910F91FF9079
:1036E000EF90DF90CF90BF900C947421802F0E94B8
:1036F000F022D3CFFC2FFF70FF2EC07FC03219F015
:10370000F29480EFF822DD2369F0D13049F11123E2
:1037100091F1002351F1F601858180FFA8CF8F70D0
:10372000858323C0112381F0011106C00E940A2362
:103730008F290E94DD1AB3CF0130C1F70E940A23FE
:103740008F290E941023ABCF011106C00E941923BC
:103750008F2D0E94E41AA3CF013009F4A0CFF6CF39
:10376000112329F0063008F09ACF8F2DE2CF0530D3
:1037700008F095CFEDCF002359F3D93349F4FFEF8B
:1037800027EE33E0F15020403040E1F700C0000068
:103790008D2F0E94741A83CF8C2F86958695837007
:1037A00069F0813009F07BCF8D2F9C2F9370111120
:1037B00002C090E080E00E94B61871CF8D2F9C2F40
:1037C0009370111102C090E080E00E94A01867CFB2
:1037D0008D2F112329F00E94B0260E949B275FCFD6
:1037E0000E941827FACF8C2F837009F041C0111165
:1037F00056CF4D2F429546954770440F440F0D2FDD
:103800000F7010E030E020E0042E04C0000F111F04
:10381000221F331F0A94D2F760E070E0CB01D4FF7F
:103820000FC06FE070E080E090E004C0660F771F8B
:10383000881F991F4A95D2F760957095809590954D
:10384000C695C695C370602B712B822B932BC2300B
:1038500049F058F4C13019F00E94052120CF0E9490
:10386000F3201DCF0E9417211ACF0E94F12017CFFD
:103870008695112311F08C2F8170882309F40FCFC6
:103880004D2F429546954770440F440F0D2F0F70F2
:1038900010E030E020E0042E04C0000F111F221FB2
:1038A000331F0A94D2F760E070E0CB01D4FF0FC061
:1038B0006FE070E080E090E004C0660F771F881F23
:1038C000991F4A95D2F76095709580959095C69509
:1038D000C695C370602B712B822B932BC23049F09D
:1038E00058F4C13019F00E94CA21D9CE0E94B821E3
:1038F000D6CE0E94DC21D3CE0E942D21D0CECF7017
:10390000112329F08C2F0E9453218D2F12CF8D2F40
:103910000E94E41A8C2F0E947421C1CED23F89F1FB
:1039200060F4D03FC9F0D13F29F1112309F442C01E
:1039300001119DCE8C2F8F7121C0D33F39F1D43F1F
:10394000A1F7112369F1CF718C2F0E94532163E0FD
:103950008C2F0E945923A3CE112341F0053008F08B
:103960009ECE8C2F8F710E94972199CE063008F041
:1039700096CEF7CF8C2F8F71112369F20E945321BD
:103980008ECE8C2F8F711123C9F3C5CF112329F04F
:103990008C2F8F710E943E2182CE0E9439217FCED2
:1039A00081E00E946E23023008F479CE82E00E940A
:1039B0006E2375CE002359F0D93309F0E9CE8FEF8D
:1039C00097EEE3E081509040E040E1F7DFCE8C2FAE
:1039D0008F71A1CF4C2F4F706D2FC6010E943E06F4
:1039E0000E9469205CCE4C2F4F706D2FC6010E9443
:1039F000410655CEDF91CF911F910F91FF90EF902F
:103A0000DF90CF90BF9008950F931F93CF93DF93D4
:103A1000EC01688179818A810E948E228C010E944A
:103A2000EE210E94F020B801CE01DF91CF911F91CD
:103A30000F910C94EB1ACF93DF93EC018B819C8157
:103A4000892B29F08881998189238F3F59F4DF914F
:103A5000CF910895CE010E94041DCE01DF91CF9138
:103A60000C949C04CE010E94E2058111F3CF0E94C8
:103A7000D022882361F38A81882349F382E0DF9191
:103A8000CF910C946E230E94F7220E9407230E947C
:103A900023230E94C2280E949B2790E080E00E947E
:103AA000A01890E080E00C94B6180E94C0220C94FC
:103AB000431D0E94E7220C94551DE92FE295EF70FB
:103AC000E250EE3070F4F0E0E852FC4C0C947532A9
:103AD000803F19F020F4883E20F481E00895843F6F
:103AE000E1F380E00895883EC0F3813FD1F7F5CF40
:103AF00093FB882780F908950E9484220C945D1D11
:103B0000CF93DF9300D000D00F92CDB7DEB70F90E8
:103B10000F900F900F900F90DF91CF910895CF935A
:103B2000DF9300D000D000D0CDB7DEB726960FB619
:103B3000F894DEBF0FBECDBFDF91CF9108951F93E4
:103B4000CF93DF93C091A30216E08091A4028C135F
:103B500004C0DF91CF911F910895D0E01C9FF00128
:103B60001D9FF00D1124EB55FD4F40815181628165
:103B70007381848195810E948F1D2196C770E5CF46
:103B80004091D5025091D6026091D7027091D8022F
:103B90008091D9029091DA020C948F1D1F93CF93DC
:103BA000DF938091DA02807FA9F48091D702882385
:103BB00089F08091A302C091A4026091D502709116
:103BC000D602A091D802B091D902D62FD72316E001
:103BD000C81304C0DF91CF911F91089590E0109712
:103BE00011F0DF3F19F401968770F2CF189F900112
:103BF000199F300D1124F901EB55FD4F41814713F9
:103C0000F2CF40814613EFCF42814111ECCF438187
:103C100054814A1B5B0B483C510528F78091DA021E
:103C20008F7080618093DA02F901E655FD4F808143
:103C30008F708061808385ED92E00E941B1DDF9173
:103C4000CF911F910C949F1DAF92BF92CF92DF92A4
:103C5000EF92FF920F931F93CF93DF93CDB7DEB711
:103C600061970FB6F894DEBF0FBECDBF8C0185E023
:103C7000F801DE011D9601900D928A95E1F7F80199
:103C800040815181E28085EDC82E82E0D82E60917E
:103C9000D8027091D9026115710509F461C1909142
:103CA000D5022091D602892F82238F3F09F458C173
:103CB000A380B480F090D702F501E61BF70BFF203C
:103CC00009F4FCC08091DA02382F307FE83CF1051E
:103CD00008F0B2C0311179C0FE2C251323C0941313
:103CE00021C0E1101FC08F7080618093DA020E94B2
:103CF000C01DC6010E941B1D8091DA02F801858358
:103D00008F2D61960FB6F894DEBF0FBECDBFDF9149
:103D1000CF911F910F91FF90EF90DF90CF90BF90C8
:103D2000AF900895AB2829F0842F85238F3F09F0A9
:103D300033C180E0F82FF170DF2E80FF3CC080910E
:103D4000A3022091A40236E0821315C04D875E873E
:103D50008D859E850E948422292F22952F702230E6
:103D6000F0F0243018F59F70F1F0F8019581907F04
:103D7000D1F4D12C1EC090E0389FF001399FF00D96
:103D80001124EB55FD4F6181651306C060816413FA
:103D900003C062816E110FC001968770D5CF9F70EE
:103DA00011F0882331F3805E883018F3C8010E9437
:103DB0001B1DFD2CA5CFEE2009F4A2CF8091DA02C5
:103DC00081608093DA02F12C9BCF251306C09413F7
:103DD00004C0F801EE2009F48DC04D875E878D8503
:103DE0009E850E947C1D882319F1EE2009F18091A7
:103DF000DA02803270F02091D5023091D6023887F5
:103E00002F831986BB86AA868C87CE0107960E94CF
:103E10001B1D86E0F801A5EDB2E001900D928A9598
:103E2000E1F70E94CE1D0E94C01DFF24F39468CFCD
:103E3000C8010E941B1DF9CF311113C07A2DB98A18
:103E4000A88A6E2D89890E94801D85ED92E00E94CE
:103E50001B1D86E0F60111928A95E9F70E94C01DAC
:103E6000B2CF25130FC094130DC0E1100BC0F801A1
:103E70008583C8010E941B1D86E0F60111928A9578
:103E8000E9F73ECF4D875E878D859E850E947C1D1C
:103E9000882371F2EE2061F28091DA02803208F418
:103EA000B8CF2091D5023091D6023A8329831B8264
:103EB000BD82AC828E83CE010196A9CFE83CF1058C
:103EC00008F041C0FE2CEE2009F4B2CF25132AC021
:103ED000941328C08091DA0280FD1BC0982F907F38
:103EE000C1F0F8018583903F31F0982F907F905F6B
:103EF0008F70892B8583C8010E941B1D86E0F80105
:103F0000A5EDB2E001900D928A95E1F70E94C01DE7
:103F1000F7CE86E0F801A5EDB2E001900D928A950A
:103F2000E1F7EECE4D875E878D859E850E947C1DD4
:103F300081116FCF8091DA0281608093DA02C8012B
:103F40000E941B1DDDCE7A2DB98AA88A6E2D898923
:103F50000E94801D86E0F60111928A95E9F7D6CF7E
:103F6000EE2009F465CF4D875E878D859E850E9482
:103F70007C1DF82E882309F45BCF86E0F801A5EDBF
:103F8000B2E001900D928A95E1F785ED92E00E94F2
:103F9000D8190E94CE1DBACF81E08E25CBCE1F93BB
:103FA000CF93DF93CDB7DEB72C970FB6F894DEBF73
:103FB0000FBECDBF4F83588769877A878B879C87D1
:103FC000CE0107960E94241E882369F08A859B856E
:103FD000892B39F04F815885842F85238F3F09F035
:103FE00071C016E05FC086E0FE013796DE011196D3
:103FF00001900D928A95E1F78A859B85892B89F33B
:1040000088859F8189238F3F61F32091A40230E04E
:10401000C9010196877099274091A3024817190694
:1040200071F40E94591D1092A4021092A30286E01E
:10403000E5EDF2E0DF011D928A95E9F7D2CF96E037
:10404000929FD001939FB00D1124AB55BD4FFE013F
:10405000319601900D929A95E1F78093A4020E9407
:104060009F1DBFCF819FC00111248B559D4F0E9482
:10407000241E8823E9F0E091A3021E9FF001112481
:10408000EB55FD4F4081518162817381848195811F
:104090000E948F1D8091A30290E00196877099275E
:1040A0008093A3028091A3029091A4028913DACF96
:1040B0002C960FB6F894DEBF0FBECDBFDF91CF9127
:1040C0001F91089569857A858B859C850E948F1D37
:1040D00088CFEF92FF920F931F93CF93DF938C01C2
:1040E000892B81F0F12CEE24E394E8012196F8016C
:1040F0008491843770F4843008F05FC08130B1F06F
:104100008230A1F1DF91CF911F910F91FF90EF903D
:104110000895853709F44CC008F43DC09CE7980F1A
:10412000903780F78F770E94741A49C00E5F1F4F37
:10413000FE01849190E2980F983060F48770FE2D14
:1041400001C0FF0F8A95EAF78F2F0E94FA220E9482
:10415000232302C00E94DD198F2D815030F2EFE938
:10416000FFE03197F1F700C00000F7CF0E5F1F4F5F
:10417000FE01849190E2980F983050F48770FE2DE4
:1041800001C0FF0F8A95EAF78F2F0E940023DFCF2F
:104190000E94741AE1CF0E5F1F4FFE01C491C150FF
:1041A000D8F28FE99FE00197F1F700C00000F7CF48
:1041B0000E5F1F4FFE01F490CFCF0E94DD198E01DC
:1041C000CBCF08950C94E1200E94E22060931B0362
:1041D00070931C0380931D0390931E030C94431D46
:1041E00008950C94E4200F931F9300911B031091EA
:1041F0001C0320911D0330911E03602B712B822B19
:10420000932B1F910F910C94E4200F931F93009117
:104210001B0310911C0320911D0330911E0360238A
:104220007123822393231F910F910C94E4200F9309
:104230001F9300911B0310911C0320911D033091CB
:104240001E0360277127822793271F910F910C94DB
:10425000E4200C94E1200C9429210E942B216093EE
:104260001703709318038093190390931A030C9407
:10427000431D60E070E0CB010C942D210F931F9340
:1042800041E050E060E070E08A019B0104C0000F53
:10429000111F221F331F8A95D2F7C901B8011F9140
:1042A0000F910C942D210F931F9341E050E060E09B
:1042B00070E004C0440F551F661F771F8A95D2F720
:1042C0008091170390911803A0911903B0911A03DC
:1042D0008A019B01082B192B2A2B3B2BC901B80102
:1042E0001F910F910C942D210F931F9341E050E0EB
:1042F00060E070E004C0440F551F661F771F8A9569
:10430000D2F7CB01BA016095709580959095009198
:104310001703109118032091190330911A03602399
:104320007123822393231F910F910C942D210F93BE
:104330001F9341E050E060E070E004C0440F551F5F
:10434000661F771F8A95D2F7809117039091180303
:10435000A0911903B0911A038A019B01082719271C
:104360002A273B27C901B8011F910F910C942D21D9
:104370000F931F93009117031091180320911903B5
:1043800030911A03602B712B822B932B1F910F916D
:104390000C942D210F931F93009117031091180374
:1043A0002091190330911A036023712382239323F0
:1043B0001F910F910C942D210F931F9300911703C0
:1043C000109118032091190330911A036027712767
:1043D000822793271F910F910C942D210895929578
:1043E000907F890F982F977041E001C0440F9A95F4
:1043F000EAF786958695869595E0899FF0011124C8
:10440000E552FD4F30E020E070E05191DF0111975F
:10441000CB01022E02C0969587950A94E2F781702F
:1044200081958527842385278C932F5F3F4F2530E7
:10443000310559F708959295907F890F982F9770BD
:1044400086958695869525E0829FF0011124E55298
:10445000FD4F50E040E080E0219130E0092E02C0A5
:10446000369527950A94E2F721703327042E01C070
:10447000220F0A94EAF7822B4F5F5F4F45305105B8
:1044800059F70895BF92CF92DF92EF92FF920F9368
:104490001F93CF93DF938C01C0901703D090180324
:1044A000E0901903F0901A0380911B0390911C0374
:1044B000A0911D03B0911E03C82AD92AEA2AFB2A1B
:1044C000CFE1D0E0BC2ED701C6010C2E04C0B695BA
:1044D000A795979587950A94D2F780FD0EC02197EE
:1044E00088F7B12C8B2DDF91CF911F910F91FF9009
:1044F000EF90DF90CF90BF900895B8018C2F0E946D
:104500004A06019761F3EECFCF93DF93EC010E944F
:104510004222BE01DF91CF910C944A061F93CF93A4
:10452000DF93EB019091A202992331F0CB01DF914F
:10453000CF911F910C948422882379F0CB010E94A3
:104540004222182F682FCE010E94EF21BE01812F39
:10455000DF91CF911F910C944A06CB010E941B2240
:10456000182FF4CF682F80911701909118010C94A7
:10457000D424682F80911701909118010C94DF24A6
:1045800080911701909118010C94EA2480911F03E7
:10459000859585958595089580911F038770089569
:1045A00090911F03977081E009F480E00895809155
:1045B0004303089590914303892B80934303089507
:1045C000809590914303982390934303089510920C
:1045D0004303089590914203892B809342030895E9
:1045E00080959091420398239093420308951092EE
:1045F0004203089590914103892B809341030895CC
:1046000080959091410398239093410308951092CF
:104610004103089580912003089508950C940D237B
:1046200090912003981721F0809320030C940E237F
:10463000089580912003882329F01092200380E0C0
:104640000C940E230895E0911701F09118018091C8
:1046500043038083E0911701F091180180819091CC
:104660004203892B8083E0911701F091180180812A
:1046700090914103892B808390912003992381F0AD
:10468000E0911701F09118018081892B808380913E
:104690001701909118010E94402481110E94192352
:1046A00080911701909118010C94781808950C943A
:1046B000562398E0899F90011124622B60931F0379
:1046C0000E94532180911F038595859585950C94B3
:1046D000572310921F0380E00C94572390911F03DF
:1046E0008095892380931F03282F277071F4282F2A
:1046F000082E000C330B9217130639F0859585951B
:1047000085950E9474210C94692308956FEF7FEFC3
:1047100090E080E00C946A3390E080E00E944633A1
:1047200021E08C3E9E4F09F020E0822F089582E028
:1047300090E00C94383383E090E00C943833CF93BE
:1047400084E090E00E943833C82F81E290E00E941C
:104750003833982F8C2FCF910895CF93C92F682F7E
:1047600084E090E00E944C336C2F81E290E0CF9186
:104770000C944C3386E090E00C943833682F86E03C
:1047800090E00C944C33AB01BC018FE090E00C94B2
:104790005E33AB01BC0183E190E00C945E3360E0DA
:1047A00070E0CB010C94C92360E070E0CB010E9463
:1047B000C3230C94CF236CEE7EEF90E080E00E9448
:1047C0006A3360E082E090E00E944C3360E083E076
:1047D00090E00E944C3310921B0310921C03109225
:1047E0001D0310921E0360E084E090E00E944C33B1
:1047F00060E081E290E00E944C3360E085E090E070
:104800000E944C3360E086E090E00E944C336FEFF2
:1048100087E090E00E944C3340E050E0BA0188E02D
:1048200090E00E945E3360E08DE090E00E944C33A7
:1048300040E050E0BA0188E190E00E945E3360E021
:1048400087E190E00E944C3340E050E0BA018CE1F7
:1048500090E00E945E3360E080E290E00E944C3382
:1048600040E050E0BA0188E190E00E945E330C9491
:10487000D4230C94DB23682F8EE090E00C944C330F
:10488000FC01329680912B01882321F08091D8037E
:104890009EE187FF96E080E0915008F40895219111
:1048A0002223D1F38F5FF8CF662301F120912B01F2
:1048B0002223F1F02091D80327FF1AC0462F4695F6
:1048C000469546954E3190F4677021E030E002C085
:1048D000220F331F6A95E2F7840F911DFC0182813C
:1048E00090E02823392381E0232B69F480E00895A8
:1048F000FC01329608962191261721F0E817F90756
:10490000D1F7F4CF81E008959C01FC0132969FEF2E
:1049100080E04191461751F09F3F19F4411101C0C9
:10492000982F8F5F8630A9F79F3F09F40895290FCC
:10493000311D97FD3A95F90162830895FC01329685
:1049400008962191261303C0DF0111971C92E817E6
:10495000F907B9F70895E62FE695E695E695EE3165
:1049600068F4E80FF92FF11D677021E030E001C015
:10497000220F6A95EAF78281822B82830895E62FBF
:10498000E695E695E695EE3170F4E80FF92FF11D06
:10499000677021E030E001C0220F6A95EAF72095A8
:1049A000828128232283089520912B01222329F03C
:1049B0002091D80327FD0C94AB240C9484242091DF
:1049C0002B01222329F02091D80327FD0C94BF242A
:1049D0000C949E24FC01329680912B01882351F087
:1049E0008091D80387FF06C08EE1DF011D928A9572
:1049F000E9F7089586E0F9CF089508950C94FD2411
:104A00000E94FE248091DE03843061F11092450300
:104A100088E190E020E40FB6F894A89580936000B8
:104A20000FBE2093600080E00E94791280E00E9417
:104A300036060E94FE2483B7817F846083BF83B7DC
:104A4000816083BF7894889583B78E7F83BF0FB6CC
:104A5000F894A8958091600088618093600010921E
:104A600060000FBE08950895CF930E94FC240E9419
:104A700094080E943325C0E08C2F0E943F08892BA8
:104A800031F4CF5FC630C1F780E0CF91089581E067
:104A9000FCCF08950C9449250E94591D0E941D11B8
:104AA0000E946C180E9436060C944A251F921FB66D
:104AB0001F9211248F939F93AF93BF9380914503CF
:104AC000811113C08091D4039091D503A091D60396
:104AD000B091D7034196A11DB11D8093D40390934B
:104AE000D503A093D603B093D703BF91AF919F9105
:104AF0008F911F901FBE1F90189582E084BD93E098
:104B000095BD9AEF97BD80936E0008952FB7F894E6
:104B10008091D4039091D503A091D603B091D7038F
:104B20002FBF08952FB7F8946091D4037091D503E7
:104B30008091D6039091D7032FBF08959C014FB762
:104B4000F8948091D4039091D503A091D603B091AD
:104B5000D7034FBF821B930B089578941F921FB603
:104B60001F9211248F939F93AF93BF938091D4038F
:104B70009091D503A091D603B091D7030196A11DC2
:104B8000B11D8093D4039093D503A093D603B09323
:104B9000D703BF91AF919F918F911F901FBE1F9020
:104BA000189581E08093E00080E28093D800109215
:104BB000C9008FE19EE40197F1F700C0000087E093
:104BC00090EBDC018093E7039093E803A093E90363
:104BD000B093EA0388E19CE00FB6F894A89580931F
:104BE00060000FBE90936000FFCF0C940A130E94E8
:104BF00094088FE39CE90197F1F700C000000E9440
:104C0000940880E00E943F0880FF04C00E94F525C0
:104C10000C94D12508950E948C23811102C00E941A
:104C200039240E949723809344030E949F239093EA
:104C3000D9038093D8030E949B23682F70E090E0F3
:104C400080E00E94F1206091170370911803809119
:104C5000190390911A030C942B2180914C0380FF2F
:104C600012C060911E0185E0689FB0011124759506
:104C700067957595679560387105A8F5611571059B
:104C8000A1F1862F089581FF09C060911E0185E082
:104C9000689FB001112475956795EDCF60911E0155
:104CA00082FD0AC080914B038823D1F090911D01B1
:104CB00060911E01891728F085E0689FB0011124DA
:104CC000DACF869FB001112485E0869F9001879FEF
:104CD000300D1124692F70E0C9010E943F32CBCF03
:104CE00065E070E0CECF8FE7089581E00895809170
:104CF0004C0380FF0CC060911A0170E075956795B8
:104D0000759567956115710549F1862F089581FFA5
:104D100006C060911A0170E075956795F3CF6091B8
:104D20001A0182FD0BC090914A039923A1F0609172
:104D3000190180911A01961738F0682F70E06038D9
:104D4000710500F38FE70895899FC001112470E079
:104D50000E943F32F4CF61E070E0D7CF81E0089548
:104D6000803F31F40E942D26819580935003089551
:104D7000813F19F40E942D26F8CF823F31F40E9422
:104D80002D26819580934F030895833F19F40E9447
:104D90002D26F8CF893F29F40E947726809351036E
:104DA00008958A3F21F40E9477268195F7CF8B3FA3
:104DB00031F40E94772681958093520308958C3FA9
:104DC00019F40E947726F8CF843F31F480914E0386
:104DD000816080934E030895853F21F480914E03B6
:104DE0008260F7CF863F21F480914E038460F1CF3B
:104DF000873F21F480914E038860EBCF883F21F4F8
:104E000080914E038061E5CF8D3F31F480914C035A
:104E1000816080934C0308958E3F21F480914C0370
:104E20008260F7CF8F3FB9F780914C038460F1CF58
:104E300090914F03803F59F48091500387FF0DC03C
:104E40001092500391110BC010924B0308C0813F88
:104E500081F48091500318169CF3992381F080917E
:104E6000510390915203892B09F064C010924A03B8
:104E70000895823F49F497FFF0CF10924F0380913D
:104E800050038111ECCFE0CF833F19F41916ACF336
:104E9000E4CF20915103893F29F41216F4F61092C1
:104EA0005103DBCF8A3F19F427FFD7CFF8CF2091EA
:104EB00052038B3F29F427FFD0CF10925203CDCF5E
:104EC0008C3F19F41216CCF3C8CF843F31F4809193
:104ED0004E038E7F80934E03C0CF853F21F4809197
:104EE0004E038D7FF7CF863F21F480914E038B7F59
:104EF000F1CF873F21F480914E03877FEBCF883F2E
:104F000021F480914E038F7EE5CF8D3F31F4809167
:104F10004C038E7F80934C03A0CF8E3F21F4809171
:104F20004C038D7FF7CF8F3F09F097CF80914C03D3
:104F30008B7FF0CF08950E9486259C0190914F03AE
:104F400080915003982B21F030934903209348031C
:104F50009091510380915203982B21F03093470395
:104F6000209346038DE493E00C949218EF92FF9205
:104F70000F931F93CF93DF9300D000D000D0CDB715
:104F8000DEB786E0EDE4F3E0DE01119601900D92CC
:104F90008A95E1F7E0904F03F090500300915103A0
:104FA0001091520310924F0310925003109251032C
:104FB000109252038E2D8F2991F080914803909189
:104FC00049030E949E25AC0190914B03992309F45B
:104FD0003FC080911F018417150608F447C0802F39
:104FE000812B91F080914603909147030E949E256A
:104FF000AC0190914A03992309F477C080911B0179
:105000008417150608F47FC080914F0390915003D8
:10501000892B90915103892B90915203892B11F088
:105020000E949B2786E0FE013196ADE4B3E001903B
:105030000D928A95E1F726960FB6F894DEBF0FBE63
:10504000CDBFDF91CF911F910F91FF90EF90089509
:10505000209120018AE0289F900111242417350710
:1050600008F0BDCF9F5F90934B0302C09F3FD1F7E5
:10507000EE2059F00E942D269FEF1E140CF491E0B3
:10508000899F802D112480934F03FF2059F00E94A7
:105090002D269FEF1F140CF491E0899F802D112481
:1050A0008093500330914F03332309F498CF20911C
:1050B0005003222309F493CF45EB3403C00111249C
:1050C000992359F090934F0345EB24039001112449
:1050D000332339F03093500382CF81E080934F0324
:1050E000F3CF81E0809350037ACF20911C018AE0B6
:1050F000289F900111242417350708F085CF9F5F62
:1051000090934A0302C09F3FD1F7002359F00E94B9
:1051100077269FEF10160CF491E0899F802D1124C3
:1051200080935103112359F00E9477269FEF1116A7
:105130000CF491E0899F802D1124809352033091CB
:105140005103332309F460CF20915203222309F441
:105150005BCF45EB3403C0011124992359F09093A0
:10516000510345EB240390011124332339F030938C
:1051700052034ACF81E080935103F3CF81E08093C3
:10518000520342CF86E0EDE4F3E0DF011D928A9501
:10519000E9F710924B0310924A0310924C030895C2
:1051A000833081F128F4813059F08230D1F00895B4
:1051B000853009F449C0B8F1863009F456C0089525
:1051C00080912001482F460F5527551F4F3F51050D
:1051D00024F4680F6093200108958FEF80932001DD
:1051E000089580911F01482F460F5527551F4F3FA7
:1051F000510524F4680F60931F0108958FEF809389
:105200001F01089580911E01482F460F5527551FF5
:105210004F3F510524F4680F60931E0108958FEFEE
:1052200080931E01089580911D01482F460F552738
:10523000551F4F3F510524F4680F60931D010895D9
:105240008FEF80931D01089580911A01482F460F1A
:105250005527551F4F3F510524F4680F60931A01DD
:1052600008958FEF80931A01089580911901482FB6
:10527000460F5527551F4F3F510524F4680F609383
:10528000190108958FEF809319010895833011F16A
:1052900028F4813049F0823091F00895853081F111
:1052A00020F18630C1F1089580912001681720F423
:1052B000861B80932001089510922001089580910B
:1052C0001F01681720F4861B80931F010895109218
:1052D0001F01089580911E01681720F4861B80939A
:1052E0001E01089510921E01089580911D016817F6
:1052F00020F4861B80931D01089510921D010895CE
:1053000080911A01681720F4861B80931A01089572
:1053100010921A01089580911901681720F4861BD4
:105320008093190108951092190108950F931F9306
:1053300041E050E060E070E08A019B0104C0000F92
:10534000111F221F331F8A95D2F7C901B8010E948D
:10535000F1201F910F910C94591DEBEFE80FEF33E3
:1053600008F05AC0F0E0EA51FC4C0C9475320E94EF
:10537000392481E0089580914403807F8093440321
:1053800081E08093540308950E94D305F2CF909159
:105390004403892F8E7F90FF81608093440380FDBA
:1053A000E8CF817F80934403E4CF90914403892F19
:1053B0008D7F91FF82608093440381FFDACF8091DB
:1053C00044038160EFCF90914403892F8B7F92FF3C
:1053D00084608093440382FDF2CFCBCF909144034D
:1053E000892F877F93FF88608093440383FDE7CFF5
:1053F000C0CF0E94591D9091D803892F97FB87F940
:1054000080588093D803B5CF80E00E949629B1CF11
:105410008953FBCF8D51F9CF80E0089580E0089546
:105420000C940E2A8E518A3030F4E82FF0E0E950C7
:10543000FE4F8081089580E00895CF93C82F80911A
:1054400054038130B9F0882331F08230A1F11092F9
:10545000540380E00DC00E94D7228232D1F78C2FF6
:105460000E940E2A81111BC08C2F0E94AD298170D1
:10547000CF9108950E94D722823289F38C2F0E9407
:10548000102A81110AC0C43199F060F4CB3029F0A0
:10549000C03169F782E08093540381E0E8CF81E076
:1054A00090E0E5CFC93221F0C833B9F380E0DFCF17
:1054B00010925403FBCFC93219F188F4C43101F1C1
:1054C00020F4C73081F181E0D3CF82EE8C0F86309B
:1054D000D0F78C2F0E94122A80935303F4CFCE343E
:1054E00001F140F46AE0CB3471F7809153030E94DC
:1054F000D028E9CFC13579F061E0C235B1F3E3CF0F
:1055000080915303882319F010925303DCCF81E07C
:1055100080935403ADCF61E0809153030E944629EC
:10552000D2CF6AE0F9CF8EE18093200182E38093AD
:105530001F018AE080931E0184E180931D0188E0B1
:1055400080931A0188E280931901BDCF8091750381
:105550000895CF93DF9300D00F92CDB7DEB790912F
:10556000DE03943011F589837B836A839093E9008D
:105570008FEF9091E800815095FD06C095ED9A95CA
:10558000F1F700008111F5CF8091E80085FF0DC093
:1055900050E040E063E070E0CE0101960E94302DC3
:1055A0008091E8008E778093E8000F900F900F9025
:1055B000DF91CF910895BC0184E00C94A92ABC012D
:1055C00083E00C94A92A9C0184E08093E9009FEF7A
:1055D0008091E800915085FD06C085ED8A95F1F730
:1055E00000009111F5CF8091E80085FF0CC050E0DC
:1055F00040E066E070E0C9010E94302D8091E80033
:105600008E778093E8000895CF93DF93EC0180912B
:105610002B018823B1F18091D80387FF32C060E26B
:1056200084E08093E9008FEF9091E800815095FD30
:1056300006C095ED9A95F1F700008111F5CF8091A4
:10564000E80085FF1BC080912B0170E050E040E036
:10565000811104C050E040E068E070E0CE010E949B
:10566000302D8091E8008E778093E80080E2FE0183
:10567000A5E5B3E001900D928A95E1F7DF91CF9116
:10568000089568E081E0CDCFCF93FC01603221F531
:105690008091DE03843001F5C091E900CF70209144
:1056A000EC00922F917020FD90E8C92B82E080934E
:1056B000E9008091E80080FF0CC050E040E060E22B
:1056C00070E0CF010E94302D8091E8008E778093AA
:1056D000E800CF70C093E900CF9108958091DD0379
:1056E000811109C00E940D2F0E946F2F8091E2004E
:1056F00084608093E20008951092DD030895089578
:1057000008950C944C2542E061EC81E00E94892EC2
:1057100042E261EC84E00E94892E42E261EC82E088
:105720000E94892E42E260EC83E00C94892E8091E5
:10573000E003833009F461C030F48130D1F182306C
:1057400009F49DC008958A3009F489C08B3009F4AA
:105750006FC0893009F050C08091DF03813209F0B9
:105760004BC08091E3039091E403009719F00297F6
:1057700009F042C08091E800877F8093E800809123
:10578000E80082FF35C08091F2009091F30002970B
:1057900029F48091F1008B7F813021F48091F10018
:1057A000809375038091E8008B778093E8000C94D8
:1057B000BD2E8091DF03813AF9F48091E800877F64
:1057C0008093E8008091E3039091E403892B61F4D6
:1057D00060E285E593E070E00E94CE2D8091E800C4
:1057E0008B778093E800089560E090E080E0F3CF4D
:1057F0008091DE038111C3CF08958091DF03813A48
:10580000D9F78091E3039091E403892BA9F7809164
:10581000E800877F8093E8008091E80080FFFCCF5C
:1058200080912B018093F1008091E8008E77BDCFAD
:105830008091DF03813201F78091E3039091E403CB
:10584000892BD1F68091E800877F8093E8000E9441
:10585000BD2E8091E10380932B010C94591D809102
:10586000DF03813249F68091E800877F8093E8006A
:105870000E94BD2E8091E20380937603089580916B
:10588000DF03813A09F0B8CF8091E800877F8093E9
:10589000E8008091E80080FFFCCF80917603C2CFC2
:1058A000CDB7DEB7A0970FB6F894DEBF0FBECDBF61
:1058B00084B7877F84BF0FB6F894A8958091600065
:1058C000886180936000109260000FBE80E890E0D5
:1058D0000FB6F89480936100909361000FBE0E9410
:1058E000DA180E940D2F0E946F2F8091E2008460D1
:1058F0008093E20078940E94F6310E94E61881E2DB
:1059000091E00E94671813E08091DE03853059F022
:105910000E94F4188091DE03843091F00E94E41814
:105920000E94E518F1CF0E9400258091DC038823B6
:1059300059F30E943425882339F30E941A2DE4CFAD
:105940001093E9008091E80082FFE8CF8091E800A1
:1059500090E085FF09C050E040E060E270E0CE01D9
:1059600001960E947F2D91E08091E8008B778093D3
:10597000E800992399F260E2CE0101960E94EC13AF
:10598000CDCF0C94C32C292F33272330310521F19F
:1059900068F42130310509F443C02230310509F49F
:1059A00044C090E080E030E020E026C021323105A4
:1059B00051F122323105A9F76330710590F7FB01EF
:1059C000EE0FFF1FEC5FFD4F208131816F5F7D4F38
:1059D000FB01808190E010C099278130910581F012
:1059E000009729F00297E9F6E2E5F6E002C0EAE85E
:1059F000F6E0849190E09F01FA01318320830895BD
:105A0000E0E7F6E0F6CF6330710558F6660F771FD2
:105A1000FB01E65FFD4F2081318189E090E0ECCF12
:105A200082E190E029EE36E0E7CF8BE590E02EE8CA
:105A300036E0E2CF88E189BD8AE189BD09B400FE84
:105A4000FDCF8091D8008F7D8093D8008091E000B9
:105A500082608093E0008091E00081FDFCCF08959A
:105A6000AF92BF92CF92DF92FF920F931F93CF938B
:105A7000DF936C01EB018A010E94DC2EF82E81116C
:105A800023C00115110539F0F80180819181C81BEF
:105A9000D90BC80ED91EB12CA12C2097A9F080914A
:105AA000E80085FD22C08091E8008E778093E800B1
:105AB00001151105A1F0F80180819181A80EB91E90
:105AC000B182A08285E0F82E8F2DDF91CF911F91BA
:105AD0000F91FF90DF90CF90BF90AF9008950E94FC
