:100000000C9410040C9457040C9457040C9457044B
:100010000C9457040C9457040C9457040C945704F4
:100020000C9457040C9457040C9482310C9456325F
:100030000C9412270C9457040C9457040C945704F6
:100040000C9457040C9429130C9457040C945704E3
:100050000C944D130C9469270C9457040C9457047A
:100060000C9457040C9457040C9457040C945704A4
:100070000C9457040C9457040C9457040C94570494
:100080000C9457040C9457040C9457040C94570484
:100090000C9457040C94570429003A003B003C0090
:1000A0003D003E003F00400041004200430044004C
:1000B000450046004700480035001E001F00200094
:1000C00021002200230024002500260027002D0007
:1000D0002E0049004A004B002B0014001A000800B3
:1000E000150017001C0018000C00120013002F0050
:1000F00030004C004D004E0039000400160007008F
:1001000009000A000B000D000E000F003300340040
:1001100028002A0000000000E10001001D001B0073
:1001200006001900050011001000360037003800E5
:10013000E50031005200E400E000E300E2000000CE
:10014000000001002C00000000000100E600E700B4
:100150000151500051004F00010001000100010059
:100160000100010001000100010001000100010087
:1001700001000100010001000100C25CC35CC55C1C
:10018000C65CC75CC85CC95CCA5C010001000100B8
:100190000100010001000100010001000100010057
:1001A0000100010001000100010001000100010047
:1001B0000100010001000100010001000100010037
:1001C0000100010001000100010001000100010027
:1001D0000100010000000000010001000100010019
:1001E0000100010001000100010001000100010007
:1001F00001000100BE5C01000100010001000000DF
:1002000000000100010000000000010001000100E9
:100210000100BF5CBD5CC05C010001000100010089
:1002200001000100010001000100010001000100C6
:1002300001000100010001000100010001000100B6
:1002400001000100010001000100010001000100A6
:100250000100010001000100010001000100010096
:100260000100010001000100010001000100010086
:100270000100010001000100010001000100010076
:100280000100010001000100010001000100010066
:100290000100010000000000010001000100010058
:1002A0000100010001000100010001000100010046
:1002B0000100010001000100010001000100000037
:1002C0000000010001000000000001000100010029
:1002D0000100010001000100010001000100010016
:1002E0000100010001000100010001000100010006
:1002F00001000100010001000100010001000100F6
:1003000001000100010001000100010001000100E5
:1003100001000100010001000100010001000100D5
:1003200001000100010001000100010001000100C5
:1003300001000100010001000100010001000100B5
:1003400001000100010001000100010001000100A5
:100350000100010000000000010001000100010097
:100360000100010001000100010001000100010085
:100370000100010001000100010001000100000076
:100380000000010001000000000001000100010068
:100390000100010001000100000000000000000059
:1003A0002A2B2800000000000000000000000000D0
:1003B00000000029000000002C1E342021222434DB
:1003C0002627252E362D3738271E1F2021222324AD
:1003D00025263333362E37381F0405060708090A49
:1003E0000B0C0D0E0F101112131415161718191AE5
:1003F0001B1C1D2F3130232D350405060708090A63
:100400000B0C0D0E0F101112131415161718191AC4
:100410001B1C1D2F3130354C000000000000000077
:100420000000000000000000000000007E0F00D46B
:10043000FFFFFFC70000007832190A00047F3F1F4A
:10044000643214643214783C1E1E140A05222325DB
:100450002628292A2C2D2F3032333536383A3B3D89
:100460003E4042434547494A4C4E505153555759D7
:100470005A5C5E6062646668696B6D6F71737577F4
:10048000797B7D7F81838587898A8C8E90929496F3
:10049000989A9C9E9FA1A3A5A7A8AAACAEAFB1B302
:1004A000B4B6B8B9BBBCBEBFC1C2C3C5C6C7C9CA52
:1004B000CBCCCDCED0D1D2D2D3D4D5D6D7D7D8D914
:1004C000D9DADADBDBDBDCDCDCDCDCDDDDDDDDDC72
:1004D000DCDCDCDCDBDBDBDADAD9D9D8D7D7D6D584
:1004E000D4D3D2D2D1D0CECDCCCBCAC9C7C6C5C346
:1004F000C2C1BFBEBCBBB9B8B6B4B3B1AFAEACAA93
:10050000A8A7A5A3A19F9E9C9A98969492908E8C42
:100510008A89878583817F7D7B79777573716F6D1C
:100520006B6968666462605E5C5A595755535150F6
:100530004E4C4A4947454342403E3D3B3A383635AA
:100540003332302F2D2C2A292826252322FFAA7F5B
:1005500055400001010101010101010102020202F5
:10056000020202020203030303030303030404045D
:100570000404040405050505050606060606070726
:1005800007070708080808090909090A0A0A0B0BDE
:100590000B0C0C0C0D0D0D0E0E0E0F0F0F1010117D
:1005A0001111121213131414151516161717181803
:1005B00019191A1A1B1B1C1D1D1E1E1F202021226B
:1005C00022232424252626272829292A2B2C2D2DB1
:1005D0002E2F30313232333435363738393A3B3CCE
:1005E0003D3E3F404142434445464748494A4C4DC1
:1005F0004E4F50515354555658595A5B5D5E5F618A
:100600006264656668696B6C6D6F7072737577781C
:100610007A7B7D7E8082838587888A8C8E8F91937A
:100620009596989A9C9EA0A2A3A5A7A9ABADAFB1A1
:10063000B3B5B7BABCBEC0C2C4C6C9CBCDCFD1D486
:10064000D6D8DBDDDFE2E4E7E9EBEEF0F3F5F8FA2C
:10065000FDFF0403300000001C0358004F00380069
:100660003700200053006F006C00640065007200CA
:1006700065006400000018034D006F006E007300F9
:100680007400610072006700650061007200000084
:100690000403090409025B00030100A0FA09040035
:1006A000000103010100092111010001224000079E
:1006B00005810308000A0904010002030000000983
:1006C00021110100012222000705820340000107D9
:1006D00005030340000109040200010300000009B2
:1006E000211101000122BC000705840320000A1229
:1006F00001100100000008474D44530100010203AE
:10070000010660FF0961A1010962150026FF00953D
:1007100040750881020963150026FF0095407508A1
:100720009102C005010902A10185020901A100058C
:100730000919012905150025019505750181029505
:1007400001750381010501093009311581257F9566
:10075000027508810609381581257F950175088184
:1007600006050C0A38021581257F9501750881065A
:10077000C0C005010980A101850319012AB7001530
:100780000126B700950175108100C0050C0901A173
:1007900001850419012AA002150126A00295017500
:1007A000108100C005010906A1018505050719E0B2
:1007B00029E7150025019508750181020507190033
:1007C00029EF1500250195F0750181020508190131
:1007D0002905950575019102950175039101C005E3
:1007E000010906A101050719E029E7150025019572
:1007F0000875018102950175088101050719002915
:10080000FF150026FF0095067508810005081901EF
:100810002905950575019102950175039101C000A7
:1008200011241FBECFEFD0E1DEBFCDBF04B603FE63
:1008300027C08091D7049091D804A091D904B09199
:10084000DA048730904BA740B04BD1F41092D70414
:100850001092D8041092D9041092DA0414BE84B70E
:10086000877F84BF0FB6F894A89580916000886157
:1008700080936000109260000FBEE0E0F8E70995F9
:1008800011E0A0E0B1E0EEE4FCE602C005900D92BC
:10089000AE3FB107D9F724E0AEEFB1E001C01D9241
:1008A000A73DB207E1F70E94362E0C9497350C94C1
:1008B0000000882321F088E08093150408951092A9
:1008C00015040895882321F088E080931904089581
:1008D000109219040895882321F088E080931A0467
:1008E000089510921A040895809181048695869542
:1008F00086950895EF92FF920F931F93CF930E94D6
:10090000A20B813019F081E00E94981004E613E0F8
:100910007801C0E02C2FF7014281618180810E9423
:10092000900DCF5FF3E0EF0EF11CCA3099F72C2F3A
:10093000F80140A1678D868D0E94900D0D5F1F4FBD
:10094000CF5FC531A1F7CF911F910F91FF90EF902D
:100950000C94ED0BCF93DF9380912F0381608093F4
:100960002F031092BD03ABE3B1E041E050E08D9165
:10097000E82FE295EF70F0E021A18F70BA0102C07C
:10098000660F771F8A95E2F7CB01922F982B91A3E0
:1009900092A18095892382A371E0A134B70739F72A
:1009A000ABE2B1E04BE351E061E070E08D91E82F04
:1009B000E295EF70F0E021A18F70EB0102C0CC0F47
:1009C000DD1F8A95E2F7CE01922F982B91A392A179
:1009D0008095892382A34A175B0741F7E2ECF3E095
:1009E00082E294E021E021938E179F07E1F76E9851
:1009F0007698DF91CF910C9491098091A40386950C
:100A000081700E946B048091A40381700E94620433
:100A10008091A40382FB882780F90C945904CF931A
:100A200080918104C82FC695C695C6950E94FD0485
:100A3000C93008F0C8E09091BE039C1771F0EFEB4D
:100A4000F3E090E029EA290F223018F0933509F0FD
:100A5000C3839F5F31969036A9F7C093BE03CF91B1
:100A600008958093A40381E00895CF93DF93F894D1
:100A7000CBE2D1E020E041E050E08991A82FA2959F
:100A8000AF70B0E08F70BA0102C0660F771F8A9511
:100A9000E2F7CB01E091BF03E295E07FE20FF0E0E7
:100AA000E154FC4F63813091C00392969C919297E0
:100AB000361708F042C0892B92968C932F5F203115
:100AC000E1F62AE030E061E070E0E091BF03F0E0A1
:100AD000E55CFE4F8081E82FE295EF70F0E092A197
:100AE0008F70AB0101C0440F8A95EAF7892F842BE0
:100AF00082A32150310949F70E940F05E091BF03FD
:100B000081E08E0F8630E0F48093BF03F0E0E55C77
:100B1000FE4F2081E22FE295EF70F0E032A12F70BE
:100B200081E090E001C0880F2A95EAF78095832341
:100B300082A37894DF91CF91089580958923BCCFCB
:100B40001092BF038091C0038F5F883018F48093A8
:100B5000C003DCCF1092C003D9CF08950C94B30525
:100B6000089581E0089581E0089508950C94B505F5
:100B70001F93CF93DF9300D000D00F92CDB7DEB795
:100B800049835A836B8330918D0289819A81311117
:100B90001DC06623B9F02223A9F00E940524182F56
:100BA000682F89819A810E94B22369817A81812F7D
:100BB0000F900F900F900F900F90DF91CF911F919A
:100BC0000C9445170E94DE23182FEFCF0E940524B6
:100BD00069817A81EDCFFC01262F408151816281AC
:100BE000738184810C94B805CF93DF93EC0160E0AE
:100BF0000E94EB05BE01DF91CF910C94B605FF92E8
:100C00000F931F93CF93DF93E82FF0E0E856FC4F4C
:100C1000F490C82FC695C695C695D0E0FE01E85D54
:100C2000FB4F0491877010E0082E02C015950795C0
:100C30000A94E2F701701127C85EDB4FFE01C491F0
:100C4000D0E002C0D595C7958A95E2F7C170DD273F
:100C50000115110519F081EE0E94791B209719F0FA
:100C600086EE0E94791B8F2D0E94661CCD2B19F0F9
:100C700086EE0E94101C012B41F081EEDF91CF9196
:100C80001F910F91FF900C94101CDF91CF911F9139
:100C90000F91FF900895EF92FF920F931F93CF93C0
:100CA000DF93EC01162F0AE08881882309F456C0EF
:100CB000813009F050C08981813061F47E0122E0E9
:100CC000E20EF11CCA818C2F0E94791B8C2F0E948E
:100CD000101C09C0823099F47E0182E0E80EF11CFC
:100CE0008A810E94791BE7012196812F8150E0F2D1
:100CF000EFE9FFE03197F1F700C00000F7CF833054
:100D000031F47E01E2E0EE0EF11C8A81E0CF843006
:100D100011F02196E9CF2A81229690E080E0AE0181
:100D20004F5F5F4F2053330B2A30310548F0019756
:100D3000D8F2EFE9FFE03197F1F700C00000F7CFFC
:100D4000089FB001099F700D1124C901860F971FDC
:100D50002981EA01E4CF0E94FF05C6CFDF91CF9140
:100D60001F910F91FF90EF90089560E00C944B0657
:100D70008F929F92AF92BF92CF92DF92EF92FF92AB
:100D80000F931F936B017C0181E090E0A0E0B0E045
:100D90004C015D0104C0880C991CAA1CBB1C4A951F
:100DA000D2F7B501A4014C015D0104C0880C991C67
:100DB000AA1CBB1C2A95D2F7482959296A297B29E4
:100DC00004C0880F991FAA1FBB1F0A95D2F78A017A
:100DD0009B010C211D212E213F21041715072607F9
:100DE000370789F48C299D29AE29BF29BC01CD0183
:100DF0001F910F91FF90EF90DF90CF90BF90AF9039
:100E00009F908F90089580959095A095B0958C2196
:100E10009D21AE21BF21EACF0F93382F262F60915D
:100E20000203709103038091040390910503042F42
:100E3000432F0E94B8060F910C94F0220E94D127F4
:100E40000E944F25811102C00E94F5250E94EE13D9
:100E50000C94AA040C94AD050C94B0050C943105C7
:100E6000CF93C82F0E942C078C2FCF910C942E0764
:100E700008950E941C1F0E9438072FEF84E39CE016
:100E8000215080409040E1F700C000000C94AB2757
:100E90000F931F93CF93DF93EC0161E00E94EB056A
:100EA0008C01BE010E94E4148823B9F1BE01C8017F
:100EB0000E94AE05882389F1BE01C8010E94F2128A
:100EC000882359F1BE01C8010E947B18882329F1AB
:100ED000BE01C8010E94BC188823F9F0BE01C801F8
:100EE0000E94DF198823C9F0BE01C8010E94AB111E
:100EF000882399F08A81882339F001158CE5180739
:100F000051F00E3D1C4579F0CE01DF91CF911F913C
:100F10000F910C94B1050E94390780E0DF91CF91C9
:100F20001F910F9108950E94F525F7CF90E080E082
:100F300008950895FC01EE0FFF1FE85CFB4F8591BB
:100F400094910895CF93DF930E9445170E94B708AC
:100F5000EC01811520E5920708F042C0811530E4CC
:100F6000930708F0BDC0883E910528F5803E9105A5
:100F700008F09DC0883A910588F4853A910508F0FB
:100F80008FC08130910509F492C0009709F48FC099
:100F9000049708F08CC0D0E0C0E089C08F3B910579
:100FA00008F489C0805C9109C03CD105A0F30E947F
:100FB0009A07EC017CC08115904250F4C11581E084
:100FC000D80708F074C0C03FD10528F3D0656FC0C2
:100FD000C11590E3D90708F079C0CE019F70E7CF23
:100FE000811525E5920758F5811534E5930708F03A
:100FF000A6C0811542E5940750F4C11581E5D807D4
:1010000008F471C0DC2FCC27C16FD06A50C0982F74
:10101000969596959E0123703327C115D34508F008
:101020007FC0C1E0D0E002C0CC0FDD1F2A95E2F7FF
:1010300020E2929FC0011124C82BD92B6FC0C1158B
:1010400089E5D807A8F4C11598E5D90708F07CC050
:10105000C11526E5D20708F09ECF8C2F0E944E09BD
:10106000C82FD0E0DC2FCC27CC27DF71D0621FC087
:10107000C1153AE5D30708F46CC0CE01905681152E
:10108000904208F088CF8D2F8F710E944E0990E01A
:10109000982F882788279F719C012C2BE901E6CF88
:1010A000C55AD0E0C159DE4FC881D0E0D064CE012E
:1010B000DF91CF910895C85AD0E0CC0FDD1FCF5BF0
:1010C000DE4F0990D881C02DD464F1CFCE0199278D
:1010D000D3FF03C0EC01D86CEACFEC01D06CE7CFB2
:1010E000DF70D06AE4CFCE01E4E096958795EA956B
:1010F000E1F783702C2F26952695237090E2299F87
:1011000090011124382B8C2F8370C1E0D0E002C0F5
:10111000CC0FDD1F8A95E2F7C22BD32BDC68C7CF3B
:10112000C1E0D0E002C0CC0FDD1F2A95E2F730E22B
:10113000939FC0011124C82BD92BDA68B8CFD82FC0
:10114000CC27C46FD06AB3CFDC2FCC27C06FD06A56
:10115000AECF8C2F8F700E944E0934E0D695C79584
:101160003A95E1F7CF709C2FEC01D069A0CF82387F
:101170009105B1F1B0F48133910509F475C048F4DB
:101180008932910509F469C08A32910509F473C066
:1011900008958533910509F459C08933910501F10A
:1011A0000895833E9105A9F138F4803E9105F9F048
:1011B000823E910549F10895863E9105A9F1873E49
:1011C0009105C9F1843E910519F52091C90421FFCB
:1011D0001FC08091C80484FD14C087EE90E008957C
:1011E0002091C8042370A1F080EE90E00895209132
:1011F000C80420FD47C03091C90430FF09C024FF56
:1012000044C090E080E004C02091C80422FDF7CFE4
:1012100008952091C80422FD3BC03091C90430FDDF
:10122000E3CF24FFF5CFEDCF2091C80423FFF0CF0B
:1012300024FDE7CFD2CF2091C80423FD2CC03091EC
:10124000C90431FFEECF84EE90E008952091C804E8
:1012500025FFDECF89E290E008952091C80425FFA4
:10126000D7CF85E390E008952091C80426FFD0CF22
:101270008AE290E008952091C80426FFC9CF81E357
:1012800090E0089589E390E0089583EE90E008955A
:1012900082EE90E0089586EE90E008959091C80463
:1012A00092FF06C0282F28712830F9F4877F8460C8
:1012B00093FF06C0282F28712831F1F4877E8461BE
:1012C0002091C90420FF06C0382F38713830D9F476
:1012D000877F816021FF06C0282F28712831D1F433
:1012E000877E816194FD877E0895282F24712430A4
:1012F000F9F68B7F8860DCCF282F2471243101F729
:101300008B7E8861DDCF382F3171313019F78E7FB8
:101310008860E0CF282F2171213121F78E7E8861EE
:10132000E1CF0895E82FF0E0EE0FFF1FEF5CFB4FD9
:10133000808191810895089580EA8A95F1F7089552
:10134000A2E7B1E061E070E08D91E82FE295EF70E7
:10135000F0E041A18F709B0101C0220F8A95EAF74E
:10136000922F9095942391A382A1822B82A381E056
:10137000A238B80749F7A2E8B1E061E070E08D91CA
:10138000E82FE295EF70F0E041A18F709B0101C062
:10139000220F8A95EAF7922F9095942391A382A128
:1013A000822B82A381E0A838B80749F7E5E2F4E090
:1013B000A1E3B4E081E394E0119211921D921D9299
:1013C0008E179F07C9F786E00E94890A0C941E07B2
:1013D0002F923F924F925F926F927F928F929F9245
:1013E000AF92BF92CF92DF92EF92FF920F931F9333
:1013F000CF93DF9392E7C92E91E0D92EF12CE12C07
:1014000010E0AA24A394B12C31E3632E34E0732EB0
:10141000D6018D916D01C82FC295CF70D0E099A1F2
:101420008F70450101C0880C8A95EAF7892F8829B9
:1014300089A38AA1082D009580238AA30E949C0974
:10144000A5010E2C02C0440F551F0A94E2F7BA0101
:1014500060957095E5E2F4E082E8282E81E0382E70
:10146000512C21913191D1014D901D01842D8295F6
:101470008F7090E0DC0190968C9190E0B42DBF705D
:1014800002C095958795BA95E2F780FD3EC0C901E7
:10149000842B952B2817390741F09F0122503109E1
:1014A000D9018D939C93552453946E167F06C9F6EB
:1014B00089A1082309A38AA1882A8AA21529BFEF36
:1014C000EB1AFB0AE0E1EE16F10409F0A1CF212F9F
:1014D00046E061E374E085E294E00E948A0A0E949B
:1014E0002A07812FDF91CF911F910F91FF90EF90ED
:1014F000DF90CF90BF90AF909F908F907F906F9034
:101500005F904F903F902F900895C90186239723B5
:10151000C1CF0895FF920F931F93CF93DF93F82EBF
:10152000092F162FD72FC42F222349F081E0809353
:1015300000020E9442279093FF018093FE01809158
:1015400000028823A1F08091FE019091FF010E948A
:101550005A27069760F0EF2DF02FA12FBD2F90E0B6
:1015600080E0D0E08C179D0744F010920002DF91DC
:10157000CF911F910F91FF900895219131912D935B
:101580003D930196EFCFAF92BF92CF92DF92FF9241
:101590000F931F93CF93DF93362F472FE82FF0E061
:1015A000EE5AFA4F71110DC06491762F862FDF919C
:1015B000CF911F910F91FF90DF90CF90BF90AF9090
:1015C0000895C72FD0E02491F22E022F10E056E0AC
:1015D000659FC0011124EFEFF0E0BF010E9432349B
:1015E000832F90E0880F991F35E5369FD001379FF4
:1015F000B00D11248A1B9B0B982F990F980F6F0128
:10160000CC1ADD0AC09ED001C19EB00DD09EB00D97
:1016100011248B2F949FA0011124452F55276F0172
:10162000C41AD50AC09EA001C19E500DD09E500D77
:1016300011245F01A91AB108AC9E6001AD9ED00CC7
:10164000BC9ED00C1124CD2CDD24EC19FD09E09FAB
:10165000E001E19FD00DF09FD00D1124ED2F6230FD
:101660007105A1F048F46115710569F061307105EB
:1016700089F0EB2F852F07C06430710571F088F079
:1016800066307105B1F76E2F722F91CFE22F2B2F9D
:101690008D2FF9CFE22F252FF6CFEB2F822F2D2F75
:1016A000F2CF2B2F8F2DE52FEECF0895CF93DF9321
:1016B000762FE901682F842F0E94C30A79836883FB
:1016C0008A83DF91CF91089580913D04982F9E7F6A
:1016D00029F48170826080933D0408958635E8F393
:1016E00081708465F8CF88E090E00C943035CF921B
:1016F000DF92EF92FF926B017C010E94640BB701B5
:10170000A60188E090E0FF90EF90DF90CF900C94DE
:101710004E3560913D0470913E0480913F0490915C
:1017200040040C94770BEDE3F4E083E080831182B6
:101730008FEF8283838314826081718182819381A0
:101740000C94770B80913D0480FF02C0869508952C
:1017500080E0089580914104833018F48F5F809376
:10176000410460913D0470913E0480913F0490914A
:1017700040040C94770B80914104882319F0815028
:101780008093410460913D0470913E0480913F0438
:10179000909140040C94770B8091410408958093BC
:1017A0004104662351F060913D0470913E048091A4
:1017B0003F04909140040C94770B089560E00C94E2
:1017C000CF0B80913E04089580913F04089580914D
:1017D0004004089570E00C944814609107018091D2
:1017E0003D0480FF0AC08091060123E0829FC00172
:1017F00011248E5B9B4F0C94EA0B80910801909111
:10180000090123E0829FF0011124EE5BFB4F891751
:1018100050F71182108212828F5F3396F8CF909129
:101820003D0490FF14C0909108012091090133E01C
:10183000939FF0011124EE5BFB4F921710F00C9474
:10184000ED0B8183608342839F5F3396F6CF0895CB
:10185000CF93DF9300D00F92CDB7DEB790913D04C8
:1018600090FF0AC09E012F5F3F4F0E94560B4B8195
:1018700069818A810E940F0C0F900F900F90DF9169
:10188000CF910895CF93DF93EC01EC81F0E0E35B1F
:10189000FB4F4491EDE3F4E0628181810E94280CCA
:1018A0008C818F5F8C83DF91CF910895CF93DF93ED
:1018B000EC01EDE3F4E0438162818C810E94280C0D
:1018C0008C818F5F8C83DF91CF9108950F931F934D
:1018D000CF93DF9300D00F92CDB7DEB78C0180910C
:1018E000010281110AC09E012F5F3F4F4FEF6FEF42
:1018F0000E94560B8A8180930102F8016481613055
:1019000069F08091010240E0662361F040E06230BE
:1019100011F44091010280E060E004C06091010296
:1019200040E080E00E940F0CF801848190E0019675
:1019300063E070E00E94463484830F900F900F9014
:10194000DF91CF911F910F910895AF92BF92CF92E7
:10195000DF92EF92FF920F931F93CF93DF9300D00C
:101960000F92CDB7DEB7182FF62E042FE22E9091EE
:101970003D0490FF29C0E92FE695AE2FB0E0A857AF
:10198000BE4F8C91809374029E7F923059F59E01D8
:101990002F5F3F4F812F0E94560B4B8169818A81B7
:1019A0000E940F0C10933E04F0923F0400934004F9
:1019B000EE2051F060913D0470913E0480913F040F
:1019C000909140040E94770B0F900F900F90DF9141
:1019D000CF911F910F91FF90EF90DF90CF90BF902C
:1019E000AF900895823019F400914004DBCF863027
:1019F00019F410913E04D6CF8930D9F3893191F68C
:101A0000E9518E2F8170D82EE695F0E0E35BFA4F16
:101A1000A590B490C12CBB2460910A01C61618F0A1
:101A20000E94ED0BBFCF2C2D30E0A29EC001A39EE3
:101A3000900DB29E900D112470E00E943234812FDF
:101A4000D11013C0860F40910801420F532F511D32
:101A50009A01220F331F240F351F2E5B3B4F402F5F
:101A60006F2D0E94560BC394D7CF861BECCFEDE3AE
:101A7000F4E09181282F4381628188E0890F0C94E2
:101A8000A50C81E00C94370DEDE3F4E09181282F53
:101A90004381628188EF890F0C94A50C81E00C943E
:101AA000440DEDE3F4E0628121E1620F08F46FEF91
:101AB000282F438181810C94A50C81E00C94510D59
:101AC000EDE3F4E0628121E1621B08F460E0282F7D
:101AD000438181810C94A50C81E00C94600DEDE3B1
:101AE000F4E0438121E1420F08F44FEF282F628197
:101AF00081810C94A50C81E00C946F0DEDE3F4E072
:101B0000438121E1421B08F440E0282F628181815A
:101B10000C94A50C81E00C947E0D20E00C94A50C97
:101B200090913D0490FF0FC0253168F430E0F90139
:101B3000EE0FFF1FE20FF31FEE5BFB4F818360830D
:101B400042830C94ED0B0895EF92FF921F93CF9375
:101B5000DF93EC0110E0EE24EA94F12C60910A018D
:101B6000161770F00E94ED0B9A818C8190FF27C0B0
:101B70008F5F8C83DF91CF911F91FF90EF9008953D
:101B800020910801422F410F5527551FCA019A0184
:101B9000220F331F280F391F2E5B3B4F70E0C70108
:101BA0000E944634962F8C814091400460913F04FE
:101BB000199F800D11240E94560B1F5FCFCF8150BB
:101BC000D8CFAF92BF92CF92DF92EF92FF920F9356
:101BD0001F93CF93DF93FC0182810FEF80FF01E021
:101BE00010E045E1A42E80910A011817C8F00E9468
:101BF000ED0B80910302013009F055C0811102C044
:101C000080910A01815080930302DF91CF911F914F
:101C10000F91FF90EF90DF90CF90BF90AF9008951D
:101C2000C0910801C12ED12CCC0DDD2DD11DCE01CE
:101C3000880F991FC80FD91FCE5BDB4F19821882FE
:101C40001A8234E0E32EF12CB12C809103028B0D2B
:101C500086311CF16A2D0E942434892F082E000C35
:101C6000990BC816D90691F4809140048E9DA0016D
:101C70008F9D500D112455954795559547959E017B
:101C800060913F0480913E040E94560BB00EF1E03B
:101C9000EF1AF108D1F61F5FA6CF87FFDFCF909133
:101CA0000A01890FDBCF90E0019660910A0170E094
:101CB0000E944634A8CF0F931F93CF93DF93809158
:101CC00008019091090123E0829FF0011124EE5B4D
:101CD000FB4F891740F1C0E0D3E060910A01C617BD
:101CE00040F10E94ED0B2091040180910202820FCD
:101CF0008093020290910501920F909305011916AD
:101D000054F4082E000C990B40910A014150550BD8
:101D1000841795071CF0219520930401DF91CF9142
:101D20001F910F9108951182108212828F5F339656
:101D3000D0CF0C2F10E070E0C8010E9446342091F3
:101D40000801820F482F50E020910202022E000C61
:101D5000330B02171307BCF020910501022E000C73
:101D6000330B201731077CF08D9F900111242E5BDF
:101D70003B4F4091400460913F0480913E040E949B
:101D8000560BCF5FAACFFA01EE0FFF1FE40FF51F2E
:101D9000EE5BFB4F118210821282F3CF0F931F93E1
:101DA000CF93DF938C01FC01848195810196817032
:101DB000992795838483C0E0D5E580910A01C817EF
:101DC00030F0DF91CF911F910F910C94ED0B20918A
:101DD0000801422F4C0F5527551FCA019A01220FA7
:101DE000331F280F391F2E5B3B4F8C2F8695F80130
:101DF00044815581840F952F911D8170409140043D
:101E000060913F048D9F802D11240E94560BCF5F5F
:101E1000D4CF0F931F93CF93DF93EC0110E000E03A
:101E200090910A019017110609F06CF40E94ED0BD5
:101E30008C8190E00196817099278C83DF91CF91FE
:101E40001F910F91089520910801A801420F511D83
:101E50009A01220F331F240F351F2E5B3B4F4C81FD
:101E600060913F0480913E0496959017110651F0C1
:101E70004CF0442349F0409140040E94560B0F5F00
:101E80001F4FCECF4423B9F340E0F7CF8F929F92FC
:101E9000AF92BF92CF92DF92EF92FF920F931F9378
:101EA000CF93DF93FC01B280948081E0848300E0D3
:101EB00015E05BE4A52E88248394EE24EA94F12CAB
:101EC0007BE4C72ED12C80910A01081770F0DF91B6
:101ED000CF911F910F91FF90EF90DF90CF90BF9027
:101EE000AF909F908F900C94ED0BC02FD0E01C9F73
:101EF000F0011D9FF00D1124EC5FFD4F91101CC0EF
:101F00001382128220910801CE01820F911D9C0143
:101F1000220F331F280F391F2E5B3B4F1C9FF001F0
:101F20001D9FF00D1124EC5FFD4F42816181808186
:101F30000E94560B0F5FC7CF2381222379F12150D6
:101F4000238334818A2D821B311101C0822F1C9F73
:101F5000F0011D9FF00D1124EC5FFD4F90914004A6
:101F6000899FC0011124B6010E943234628321117D
:101F700004C0332311F01482A38222E02B1510F247
:101F80001C9FF0011D9FF00D1124EC5FFD4F80910F
:101F90003E04808380913F048183B4CF0E940B353F
:101FA000823091400CF0AECF82E08B1530F50E946C
:101FB0000B35B7010E9446341C9FF0011D9FF00DA8
:101FC0001124EC5FFD4F808322E02B15C8F40E94A2
:101FD0000B3520913F042695622F70E00E94463415
:101FE000280F1C9FF0011D9FF00D1124EC5FFD4F89
:101FF00021831282A382848285CF80913E04DCCF2C
:1020000020913F04EECFEDE3F4E080818E7F80836A
:1020100060817181828193810E94770B1092750299
:102020002FEF80E792E0215080409040E1F700C020
:1020300000000C94ED0BEDE3F4E080818E7F808353
:10204000109275022FEF80E792E02150804090407F
:10205000E1F700C000000C94ED0B60913D04669523
:1020600070E04BE050E08BE091E00E941B35892B43
:1020700019F481E0809375020E94422790936E02CA
:1020800080936D02089590913D0490FF35C091704A
:10209000811128C0926090933D04662351F06091B5
:1020A0003D0470913E0480913F04909140040E9451
:1020B000770B60913D04669570E04BE050E08BE05B
:1020C00091E00E941B35892BA1F01092750281E0EE
:1020D000809370024091400460913F0480913E04DF
:1020E0000C948D0D8B3210F09465D5CF880F982B02
:1020F000D2CF0E942D10EBCF0895682F90913D0410
:10210000969581E0890F8B3208F081E00C944310A2
:1021100081E00C947D10682F90913D0496958FEF8F
:10212000890F09F48AE20C94431081E00C948B101F
:1021300061E00C944310EDE3F4E0808181608083E2
:1021400086950C94981080913D0480FD0C940310AA
:102150000C949B1060E00C944310809173028111E9
:102160002EC00E944F25811104C00E94F5250E94B7
:10217000930B0E94730B60933D0470933E04809315
:102180003F04909340046E7F61F40E94930B0E9481
:10219000730B60933D0470933E0480933F049093CF
:1021A00040040E94640B1092750280913D0480FFF0
:1021B00003C086950E94AA1081E08093730208955F
:1021C000EDE3F4E080818160808386950C94AA1011
:1021D0000F931F93CF93DF9380917502882309F4A7
:1021E0009BC0E0914104E0936F02809174028230C1
:1021F000C9F5F0E0E75BFB4FE491CE2FD0E002E4BD
:102200001CE080917002882389F0109270020E9475
:1022100042279E0120953095820F931F90936E0266
:1022200080936D02109272021092710280916D0281
:1022300090916E020E945A278C179D0708F46CC07B
:10224000E0916D02F0916E02CE0FDF1FD0936E020F
:10225000C0936D028DE692E0F801DF91CF911F915E
:102260000F910994863049F4F0E0EA5BFB4FE4916A
:10227000CE2FD0E006E51CE0C4CF893051F4E695BE
:10228000F0E0ED5BFB4FE491CE2FD0E004EA1DE0DF
:10229000B8CF8F3051F4E695F0E0E05CFB4FE4916D
:1022A000CE2FD0E001EE1DE0ACCF853149F4F0E057
:1022B000E35CFB4FE491CE2FD0E00BE51EE0A1CF15
:1022C000C8EED3E00EEC1EE0883109F49ACF8332D9
:1022D00039F4EBE3F4E0C591D49106E61CE091CF2C
:1022E000C4EFD1E009E01FE0843209F48ACFC0EDE9
:1022F000D7E005E51BE0853209F083CF8E2F63E040
:102300000E941834E92FF0E0E85CFB4FE491CE2FF7
:10231000D0E006E41FE075CFDF91CF911F910F91C0
:102320000895FA01811101C0FB010994CF93DF9355
:10233000C82FD62F0E94A20B8C1740F00E94A20B30
:102340008D1720F4DF91CF910C9488108C2FDF91A2
:10235000CF910C9498100F931F93CF938C01FB0196
:10236000C281CC2309F469C00E949A248272F801C8
:10237000E25CFC45E431F10538F4E756FA4C0C9484
:102380007C340E94A310C0E08C2FCF911F910F913D
:10239000089545E950E168E870E10E949111F3CF9A
:1023A00048E850E165E970E1F8CF4EE45DE061E4B2
:1023B0007DE0F3CF41E45DE06EE47DE0EECF4CE6FE
:1023C0005DE06DE57DE0E9CF4DE55DE06CE67DE04B
:1023D000E4CF4AE85DE06BE77DE0DFCF4BE75DE00F
:1023E0006AE87DE0DACF4BEB5BE06AEA7BE0D5CFD1
:1023F0004AEA5BE06BEB7BE0D0CF81E00E94981073
:102400000E947A04C0CF65E082E00E949611BBCFA3
:1024100068E086E0FACF6EE089E0F7CF64E18FE014
:10242000F4CF67E185E1F1CF88E10E949810ABCF4E
:1024300062E289E1EACF83E2F8CFC1E0A5CF8091E3
:1024400081040C94812580918104869586958695DA
:1024500008950E944F25811102C00E94F5250E9417
:102460007D2580938104803220F08770886180937D
:10247000810490918104892F817090FF04C0892F7D
:102480008695869586950C94781380918104982F73
:10249000969596959695933040F49F5F990F990F76
:1024A000990F8770892B80938104809181048160CA
:1024B000809381040E948125809181048695869570
:1024C00086950C94781380918104982F987F79F0E9
:1024D000885080938104887F91E009F490E0809196
:1024E000810490FB80F9809381040E948125809172
:1024F00081048695869586950C9478138091810445
:1025000080FD13C0816080938104813019F489E0DB
:1025100080938104809181040E94812580918104AF
:102520008695869586950C947813089580918104FC
:1025300080FF08C08E7F809381040E94812580E007
:102540000C94781308958091810480FD0C94961268
:102550000C947E1290918104892F8695869586959C
:102560008F5F8F7197708430D8F4880F880F880F31
:10257000892B8093810480918104887F91E009F404
:1025800090E08091810490FB80F9809381040E9407
:102590008125809181048695869586950C94781383
:1025A00090938104E8CF843008F083E09091810417
:1025B0009770282F220F220F220F922B90938104C5
:1025C000987F21E009F420E09091810420FB90F9AC
:1025D000909381040C9478130E94D312809181040B
:1025E0000C9481259C01FB018281882349F12D3BBC
:1025F000FCE53F07C9F040F42B3BECE53E0769F0F2
:102600002C3B3C4579F008952F3B9CE5390791F030
:1026100070F0203C3C4589F0089583E00E94EC1264
:1026200080E0089580E0FACF0E946312F9CF0E9403
:102630004512F6CF0E94A312F3CF0E94AA12F0CF48
:1026400081E00895859A8D9808958D9A08958D98C2
:1026500008951F920F920FB60F9211242F933F935C
:102660004F935F936F937F938F939F93AF93BF939A
:10267000EF93FF930E942713FF91EF91BF91AF91CA
:102680009F918F917F916F915F914F913F912F918A
:102690000F900FBE0F901F9018951F920F920FB6BC
:1026A0000F9211242F933F934F935F936F937F93D8
:1026B0008F939F93AF93BF93EF93FF938091880085
:1026C000909189008130914010F00E942513FF9174
:1026D000EF91BF91AF919F918F917F916F915F919A
:1026E0004F913F912F910F900FBE0F901F90189513
:1026F000CF92DF92EF92FF92CF93C82F843098F55C
:10270000811132C08091880090918900892B51F00D
:1027100080916F008D7F80936F0080916F008E7F1E
:1027200080936F000E9427132C2F30E0AFEFBFEF94
:102730000E94893423E030E040E050E00E945A34A7
:10274000C9012C3764E1360700F569E070E00E94AA
:1027500032347093890060938800CF91FF90EF909E
:10276000DF90CF900895C3E0809188009091890018
:10277000892BD1F680916F00826080936F008091E9
:102780006F00816080936F00CFCF2A50374D4F4F3D
:102790005F4F942F832F722F662725EF38E241E099
:1027A00050E00E945A3469017A01CA01B9010E94BD
:1027B00008349B01AC01C701B6010E940834672FA1
:1027C000782F892F99276115710521E082079105DE
:1027D00009F0BFCF6FEF7FEFBCCF08950E942213A7
:1027E00082E08093800089E1809381008FEF9FEFEA
:1027F00090938700809386000C942912CF93C82F62
:102800000E947404C89FC001112424E09695879506
:102810002A95E1F7CF9108952AB1342F3F70A1E0B6
:10282000B0E001C0AA0F3A95EAF72A2B2AB94295DF
:102830004F70E42FF0E022A14A2F4095422332A1AD
:10284000A32B5FB7F8949B01220F331F260F371F6E
:10285000280F391F2817390741F45FBF87EC90E034
:102860000197F1F700C000000895FC016191CF01CC
:1028700078E0ABB9000000C067FF4BB9660F0000FD
:1028800000C000C000C04BB900C07A9591F7E2CFFC
:102890008F929F92AF92BF92CF92DF92EF92FF9270
:1028A0000F931F93CF93DF937C016B01B12C23E037
:1028B000A22E8B2C912C8C149D0490F047E9B6012C
:1028C00082E894E0DF91CF911F910F91FF90EF90FC
:1028D000DF90CF90BF90AF909F908F900C940C148E
:1028E0008701BA9C000D111D1124F80181810E94FD
:1028F000FE13E401CC0FDD1FC80DD91DCE57DB4FF1
:102900008983F80180810E94FE138883F801828107
:102910000E94FE138A83B394CCCF82E290E00E949F
:102920002835813289F483E290E00E942835813095
:1029300059F484E290E00E94283591E0833209F056
:1029400090E0892F8170089580E0FCCFCF93C82F4D
:102950006FEF811161E282E290E00E943C356FEFFF
:10296000C11161E083E290E00E943C356FEFC1113C
:1029700063E284E290E0CF910C943C3580E00E94C9
:10298000A6140C944925089585E290E00E9428350C
:10299000682F70E090E080E0089585E290E00C946C
:1029A0003C350E94C3140E948D1481110CC060E05C
:1029B00070E0CB010E94CD140E94BD160E94A717A3
:1029C00081E00C94A6140895CF93FB01C281CC231F
:1029D00009F19C0122513F452031310520F58251FA
:1029E0000E94B717C0E08C2FCF91089581E00E941C
:1029F000162343E062E081E00E940C07F3CF81E000
:102A00000E94372343E062E081E00E940C07EBCF95
:102A100082E0F6CF8031FFE59F0789F381319F4542
:102A2000B9F3C1E0E0CF8031EFE59E07F9F28131E3
:102A30009F45C9F682E0DBCF2FEFFC01208308958C
:102A4000CF93DF93EC018881893029F08A3079F0C7
:102A5000DF91CF9108950E9423122FEF829FC00132
:102A6000112463E070E00E9432346983F1CF19824F
:102A7000EFCFFC012081293061F48181F3E08F9F49
:102A8000C00111246FEF70E00E943234862F0C9445
:102A9000D3120895CF93DF93EC0188818138A9F098
:102AA00028F4803871F0DF91CF910895823881F059
:102AB0008338C9F70E94E10B89830E94E40B8A8363
:102AC000F2CF0E94E70B8983EECF0E94A20BFBCFCF
:102AD0000E94CC0BF8CFCF93DF93EC018881813833
:102AE000E1F028F4803869F0DF91CF9108958238C1
:102AF00011F18338C9F70E94E70B482F6A81898159
:102B000008C0D9810E94E40BC82F0E94E10B4D2F11
:102B10006C2FDF91CF910C948D0D89810E94AA10AA
:102B20008981811104C0DF91CF910C941B10DF913A
:102B3000CF910C94E0108981DF91CF910C94DE0B42
:102B4000DF92EF92FF920F931F93CF93DF93EC01ED
:102B5000D62EDC01ED918D01E150E33108F0C9C0C2
:102B6000F0E0E355FA4C0C947C34198289E08A83B6
:102B70006D2DCE01DF91CF911F910F91FF90EF90BE
:102B8000DF900C942A2D8981823069F0833071F0B6
:102B90008130D9F40E944E270E9482346A837B835D
:102BA0008C839D83E5CF0E94C414F6CF7E0110E094
:102BB000812F0E949209F701928383831F5FF2E0C5
:102BC000EF0EF11C1630A1F7D3CF6D2DCE010E9470
:102BD0001C15CECF89818230C1F76A817B818C81BF
:102BE0009D810E9482340E94CD14C2CF4B816A81A4
:102BF00089810E948F169827892798279D838C8327
:102C0000B7CF2C813D813227232732274B816A8120
:102C100089810E94A816ACCF0E94BD16A9CFCD0114
:102C20000E943915C8010E946B15A2CFCD010E94E8
:102C30002015C8010E944A159BCF0E941F120E94B6
:102C4000890B96CF0E945217898392CF0E94541706
:102C50009827892798279A8389838ACF6B8170E088
:102C600089819A81AE014C5F5F4F98278927982709
:102C70000E9457177DCF6B8170E089819A81AE01E8
:102C80004C5F5F4F9827892798270E947D1770CF48
:102C90000E94A7176DCF0E947C16D6CF6B8170E083
:102CA00089819A81AE014C5F5F4F982789279827C9
:102CB0000E94F5165DCF6B8170E089819A81AE012B
:102CC0004C5F5F4F9827892798270E941B1750CF8A
:102CD0000E94BE144DCF0E942A2D2FEF81EE94E06A
:102CE000215080409040E1F700C000000E94AB27D7
:102CF0003FCF8FEF88833CCF84E0089590E2699FB7
:102D0000B001112450E0440F551F640F751F90EC63
:102D1000899F600D711D1124CB01869608950F9334
:102D20001F93CF93DF930E947E168C010E9428355B
:102D3000C82FD0E0DC2FCC27C80101960E9428358F
:102D40009E01282BC901DF91CF911F910F9108950A
:102D50000F931F93CF93DF93122F032F0E947E16A2
:102D6000EC01602F0E943C35612FCE010196DF916E
:102D7000CF911F910F910C943C35AF92BF92CF929F
:102D8000DF92EF92FF921F93CF93DF9388E9C82ED3
:102D900080E0D82ED0E07601C0E014C0F501259186
:102DA0003491412F6C2F8D2F0E94A81682E0A80E1F
:102DB000B11C1F5F103191F780E2E80EF11CCF5F6C
:102DC000C63019F0570110E0E9CFDF5F80ECC80E84
:102DD000D11CD43001F7DF91CF911F91FF90EF907C
:102DE000DF90CF90BF90AF900895EF92FF920F9336
:102DF0001F93CF93DF93EC018A017C01E60EF71E4F
:102E0000CE018696CE15DF0539F4DF91CF911F9163
:102E10000F91FF90EF900895C11523E0D20740F481
:102E20000E942835F80180830F5F1F4F2196E8CF5D
:102E3000F8011082F9CFCF92DF92EF92FF920F93B9
:102E40001F93CF93DF937C016A018C01060F171F3C
:102E5000EC01CE018696C017D10749F4DF91CF91DE
:102E60001F910F91FF90EF90DF90CF900895C115C3
:102E700023E0D20740F4FE01EE19FF09EC0DFD1D21
:102E800060810E943C352196E4CF462F843038F48F
:102E9000763028F4603118F4672F0C948F1690E088
:102EA00080E0089580E108958AED90E00895EF9222
:102EB000FF920F931F93CF93DF93EC018A017C0164
:102EC000E60EF71ECE018A5D9C4FCE15DF0539F464
:102ED000DF91CF911F910F91FF90EF900895CA3D20
:102EE000D10540F40E942835F80180830F5F1F4F01
:102EF0002196E8CFF8011082F9CFCF92DF92EF92BE
:102F0000FF920F931F93CF93DF937C016A018C0193
:102F1000060F171FEC01CE018A5D9C4FC017D10729
:102F200049F4DF91CF911F910F91FF90EF90DF90C7
:102F3000CF900895CA3DD10540F4FE01EE19FF0976
:102F4000EC0DFD1D60810E943C352196E4CFCF93AE
:102F5000DF93C6E2D3E060E0CE010E943C352196CB
:102F6000C11584E0D807B9F7DF91CF910895DF92BA
:102F7000EF92FF920F931F93CF93DF9300D000D077
:102F8000CDB7DEB7F82E8FE08F1540F08FEF93E0CE
:102F90000E94283506E213E08823C1F00F900F90BD
:102FA0000F900F90DF91CF911F910F91FF90EF90B5
:102FB000DF900895011584E0180781F3C8010E948D
:102FC0002835811101C0FA940F5F1F4FF110F2CF25
:102FD00019821A821B821C82DD24D39478018FEF20
:102FE000E81AF80AC8010E94283589831A828823C2
:102FF000A9F29FEF980F933078F48A83D9820E5FFD
:103000001F4FC7010E9428358B83882339F2CE01D8
:1030100001960E94B506E2CF8701F9CF0F931F9367
:10302000CF93DF93C62FD42F022FFC0182818823F8
:10303000C9F0609378020E944227909377028093B0
:10304000760280E28C0F883008F050C0C77081E0B3
:1030500001C0880FCA95EAF7DF91CF911F910F91B8
:103060000C94791C10917802161335C08091760269
:10307000909177020E945A27883C910560F5C0E242
:10308000CD0F1D17B9F080E2810F883040F4177022
:1030900081E001C0880F1A95EAF70E94801CC830B1
:1030A00048F481E09D2F977001C0880F9A95EAF748
:1030B0000E94791C802F0E94661CC830B8F4D7701B
:1030C00081E001C0880FDA95EAF7DF91CF911F9177
:1030D0000F910C94801C80E28C0F883038F4C770FC
:1030E00081E001C0880FCA95EAF7EFCFDF91CF9159
:1030F0001F910F9108959C01CB01233F4CE53407AC
:1031000031F190F4283DFCE53F07E9F0293D4CE51D
:10311000340769F1273D3C4579F426E241EE61EE42
:103120000E940E1880E00895253FFCE53F07B9F0A6
:1031300090F0263F3C45B9F0FC0182818823D1F014
:1031400010927802089527E245EE65EEE9CF26E277
:1031500041EE60EEE5CF27E245EE64EEE1CF26E2F8
:1031600041EE62EEDDCF27E245EE66EED9CF28E2F2
:1031700041E0EBCF81E00895CF93DF93EC01FB01B9
:103180008281882309F419C1C230FCE5DF07C0F150
:10319000C6319CE5D90730F09E012A5F3C452930B5
:1031A000310570F50E9462259093C9048093C8048C
:1031B000C031ECE5DE0709F4CFC008F05BC0C830D1
:1031C0008CE5D80709F4B6C088F5C430ECE5DE0715
:1031D00009F4A8C0C0F4C2308CE5D80709F49CC03B
:1031E0008091C8048260C330DC4509F498C08091A6
:1031F000C8049091C9040E9470250E941C1F80E0A1
:10320000DF91CF9108958091C8048061C630ECE5CC
:10321000DE0709F484C08091C8048860C730DC45AB
:1032200008F47DC08091C804806279C0CC308CE500
:10323000D80709F489C070F48091C8048C60CA3042
:10324000ECE5DE0709F46BC008F478C08091C8048F
:103250008E7F65C0CE308CE5D80709F479C08091A7
:10326000C8048B7FCF30DC4508F459C08091C80476
:103270008F7E55C0CB3FECE5DE0709F457C030F533
:10328000C3318CE5D80709F46FC078F4C131ECE59F
:10329000DE0709F465C0C231DC4509F0A8CF0E9401
:1032A0001C1F8091C8048F773AC0C5318CE5D807C0
:1032B00009F462C008F476C08091C9048160CA3FF5
:1032C000DC4509F094CF8093C90491CFCF3FFCE552
:1032D000DF0709F44DC088F48091C9048D7FCD3F8C
:1032E0009CE5D90781F38091C9048E7FCE3FDC45F0
:1032F00050F38091C9048360E6CFC130FDE5DF075C
:1033000009F459C008F444C080E0C230DD4509F03A
:103310006ECF0E94F7256BCF8091C80481608093A7
:10332000C80465CF8091C8048460F9CF8091C90436
:103330008260C9CF8091C8048064F1CF0E941C1FB5
:103340008091C8048068EBCF8091C8048D7FE7CF5F
:103350008091C804877FE3CF8091C8048F7DDFCF41
:103360008091C8048F7BDBCF8091C804837FD7CF47
:103370008091C9048C7FA7CF8091C80482FB9927D4
:1033800090F921E0922790FB82F990FB83F9C7CF57
:103390008091C904982F909591708E7F892B90FB16
:1033A00081F991CF0E941C1F9091C804892F97FB2F
:1033B00087F98058B4CF81E0ACCF81E021CFCF93A3
:1033C000DF93EB0186319C4511F50E949A249A8186
:1033D000992399F08A7A91E009F490E09093790228
:1033E000811109C089E20E9475240E94E62480E0D0
:1033F000DF91CF91089585E3F6CF80917902811115
:1034000004C089E20E947C24F0CF85E3FBCF81E0F9
:10341000EFCF90937F0280937E020895E0917E0229
:10342000F0917F02309721F00190F081E02D099416
:1034300080E00895E0917E02F0917F02309799F04C
:1034400020912A01222359F02091C80427FF07C0A8
:10345000DC012C9111962C93119725E02C9302807E
:10346000F381E02D09940895E0917E02F0917F02AE
:10347000309739F022E0DC012C930480F581E02DB7
:103480000994089520917C0230917D022817390714
:1034900071F090937D0280937C02E0917E02F09126
:1034A0007F02309721F00680F781E02D099408957E
:1034B00020917A0230917B022817390771F090939E
:1034C0007B0280937A02E0917E02F0917F02309736
:1034D00021F00084F185E02D0994089585B7806876
:1034E00085BF85B7806885BF0895089508950C94B9
:1034F000751A08950C94791A0E946E1A0E94761A11
:103500000C94771A81E008950C94821A0E9439274E
:103510000E94A0090E94D1140E94E5270E9429124E
:103520000E94AD100C947A1A7F928F929F92AF9264
:10353000BF92CF92DF92EF92FF920F931F93CF93A0
:10354000DF93CDB7DEB72A970FB6F894DEBF0FBE74
:10355000CDBF0E94E8090E94841A882309F475C02F
:1035600041E8A42E42E0B42E10E000E0702E802F3F
:103570000E9492096C01F501819091905F0188167B
:10358000990609F45CC080912F0381FD0E949B097C
:1035900080E0EE24E394F12C8C249D2494012E21D0
:1035A0003F21232B09F445C08E837F82CE20DF206C
:1035B00081E0CD2809F480E088870E94422781605D
:1035C000782F9A8789874E815F8168858A850E94D6
:1035D0004A1B000F111FF801EF57FD4F80819181A9
:1035E000E826F926F182E0820E94E8100E94ED139D
:1035F0000E9472290E940E1A909180028917B1F1DF
:103600000E940E1A809380022A960FB6F894DEBFAD
:103610000FBECDBFDF91CF911F910F91FF90EF9023
:10362000DF90CF90BF90AF909F908F907F900C9441
:1036300030078F5FEE0CFF1C803109F0AFCF0F5FBA
:103640001F4F0630110509F091CF8FEF89838A83D0
:103650001B820E9442278160782F9D838C83498141
:103660005A816B818D810E944A1BBECF2A960FB66C
:10367000F894DEBF0FBECDBFDF91CF911F910F91A8
:10368000FF90EF90DF90CF90BF90AF909F908F9082
:103690007F900895CF93DF93CDB7DEB72B970FB60A
:1036A000F894DEBF0FBECDBF4F83588769877A87F6
:1036B0008B871E821D8285E0FE013796DE01119602
:1036C00001900D928A95E1F749815A816B817C8145
:1036D0008D819E812B960FB6F894DEBF0FBECDBFB5
:1036E000DF91CF910C949221FC01808191810C9407
:1036F0004724CF93C82F882309F490C08238C1F49F
:103700000E940E1A81FD8AC089E30E9475240E94DE
:10371000E6242FEF81EE94E0215080409040E1F7C5
:1037200000C0000089E30E947C24CF910C94E62421
:103730008338A1F40E940E1A80FD70C083E50E94B8
:1037400075240E94E6242FEF81EE94E02150804002
:103750009040E1F700C0000083E5E5CF8438A1F494
:103760000E940E1A82FD5AC087E40E9475240E94AE
:10377000E6242FEF81EE94E0215080409040E1F765
:1037800000C0000087E4CFCF8CEF8C0F813AB8F4F3
:103790008C2F0E94E52B811141C06C2F8091160166
:1037A000909117010E941026882329F08C2F0E94E7
:1037B0007C240E94E6248C2F0E947524B6CF80E2E0
:1037C0008C0F883048F4C77081E001C0880FCA951B
:1037D000EAF70E949D24A9CFEBE5EC0FE33040F41B
:1037E000F0E0EF51FE4F808190E0CF910C94421AAF
:1037F000E8E5EC0FE73150F4F0E0EE0FFF1FED5479
:10380000FE4F80819181CF910C94581AC03F30F0C7
:103810008C2F0E948028CF910C946729CF91089516
:10382000882309F452C0823871F40E940E1A81FF75
:103830004CC089E30E9475240E94E62489E30E941B
:103840007C240C94E624833859F40E940E1A80FFDD
:103850003CC083E50E9475240E94E62483E5EFCFF7
:10386000843859F40E940E1A82FF2FC087E40E9408
:1038700075240E94E62487E4E2CF9CEF980F913AEA
:10388000F0F290E2980F983050F4877091E001C008
:10389000990F8A95EAF7892F0E94A324D2CF9BE53E
:1038A000980F933020F490E080E00C94421A98E551
:1038B000980F973120F490E080E00C94581A803FE4
:1038C00020F00E94E8280C9467290895CF93C82F10
:1038D0000E94791BC93349F42FEF87EE93E0215002
:1038E00080409040E1F700C000008C2FCF910C94F5
:1038F000101C882321F00E949D240C94E624089536
:10390000882321F00E94A3240C94E6240895BF92FA
:10391000CF92DF92EF92FF920F931F93CF93DF939B
:103920006C01D62FC72FFC01058102950F70128103
:1039300011110E94BA240E949324E82E882371F06A
:103940001123B1F080E28D0F883090F082E00E9468
:1039500031250E94932491E0E82EE926BC2EB294F2
:103960009FE0B922EB2DF0E0E054FA4C0C947C344B
:10397000E12CF4CF0C2F0F70C07F11F00295007F67
:103980001123A9F0002359F080E28D0F883010F048
:10399000D11109C0802F0E949D240E94E6248D2F02
:1039A0000E94791B14C0802F0E94AD24F6CF8D2F6A
:1039B0000E94101C002359F080E28D0F883010F017
:1039C000D1112CC0802F0E94A3240E94E6242B2D0D
:1039D0002850330B2430310520F40E940E1A0E9427
:1039E0003007EE2009F4D5C10E948F2480FDD1C19B
:1039F000F60112820E9489240E941623C6010E94A9
:103A0000EA1E0E948924DF91CF911F910F91FF90B0
:103A1000EF90DF90CF90BF900C943723802F0E94BF
:103A2000B324D3CFFC2FFF70FF2EC07FC03219F01C
:103A3000F29480EFF822DD2369F0D13049F11123AF
:103A400091F1002351F1F601858180FFA8CF8F709D
:103A5000858323C0112381F0011106C00E94CD246B
:103A60008F290E94791CB3CF0130C1F70E94CD2469
:103A70008F290E94D324ABCF011106C00E94DC2401
:103A80008F2D0E94801CA3CF013009F4A0CFF6CF68
:103A9000112329F0063008F09ACF8F2DE2CF0530A0
:103AA00008F095CFEDCF002359F3D93349F4FFEF58
:103AB00027EE33E0F15020403040E1F700C0000035
:103AC0008D2F0E94101C83CF8C2F86958695837036
:103AD00069F0813009F07BCF8D2F9C2F93701111ED
:103AE00002C090E080E00E94581A71CF8D2F9C2F69
:103AF0009370111102C090E080E00E94421A67CFDB
:103B0000112309F1D53F99F0D63FB9F0D43F49F4DC
:103B10008091C1049091C20481609093C20480930B
:103B2000C1048D2F0E9480280E94672950CF809168
:103B3000C1049091C2048260F0CF8091C104909141
:103B4000C2048460EACFD53F89F0D63FA9F0D43FC4
:103B500049F48091C1049091C2048E7F9093C20475
:103B60008093C1048D2F0E94E828DECF8091C1048C
:103B70009091C2048D7FF2CF8091C1049091C204D4
:103B80008B7FECCF8C2F837009F041C011111FCFB8
:103B90004D2F429546954770440F440F0D2F0F70DF
:103BA00010E030E020E0042E04C0000F111F221F9F
:103BB000331F0A94D2F760E070E0CB01D4FF0FC04E
:103BC0006FE070E080E090E004C0660F771F881F10
:103BD000991F4A95D2F76095709580959095C695F6
:103BE000C695C370602B712B822B932BC23049F08A
:103BF00058F4C13019F00E94C822E9CE0E94B622C2
:103C0000E6CE0E94DA22E3CE0E94B422E0CE869570
:103C1000112311F08C2F8170882309F4D8CE4D2FF9
:103C2000429546954770440F440F0D2F0F7010E0DA
:103C300030E020E0042E04C0000F111F221F331FAC
:103C40000A94D2F760E070E0CB01D4FF0FC06FE0C0
:103C500070E080E090E004C0660F771F881F991F16
:103C60004A95D2F76095709580959095C695C695C2
:103C7000C370602B712B822B932BC23049F058F408
:103C8000C13019F00E948D23A2CE0E947B239FCECB
:103C90000E949F239CCE0E94F02299CECF701123C8
:103CA00029F08C2F0E9416238D2FDBCE8D2F0E94A2
:103CB000801C8C2F0E9437238ACED23F89F160F47A
:103CC000D03FC9F0D13F29F1112309F442C00111BD
:103CD00066CE8C2F8F7121C0D33F39F1D43FA1F72D
:103CE000112369F1CF718C2F0E94162363E08C2F72
:103CF0000E941C256CCE112341F0053008F067CEE0
:103D00008C2F8F710E945A2362CE063008F05FCE4E
:103D1000F7CF8C2F8F71112369F20E94162357CE93
:103D20008C2F8F711123C9F3C5CF112329F08C2F4C
:103D30008F710E9401234BCE0E94FC2248CE81E06D
:103D40000E943125023008F442CE82E00E943125E3
:103D50003ECE002359F0D93309F0B2CE8FEF97EE63
:103D6000E3E081509040E040E1F7A8CE8C2F8F71C6
:103D7000A1CF4C2F4F706D2FC6010E9496070E9455
:103D80002C2225CE4C2F4F706D2FC6010E94990713
:103D90001ECEDF91CF911F910F91FF90EF90DF909A
:103DA000CF90BF9008950F931F93CF93DF93EC01B3
:103DB000688179818A810E9451248C010E94B123FB
:103DC0000E94B322B801CE01DF91CF911F910F91D4
:103DD0000C94871CCF93DF93EC018B819C81892B02
:103DE00029F08881998189238F3F19F4DF91CF9140
:103DF0000895CE010E9448078823C1F3CE010E9496
:103E0000D31ECE01DF91CF910C94F4050E94BA2409
:103E10000E94CA240E94E6240E948C2A0E946729DC
:103E200090E080E00E94421A90E080E00C94581AE2
:103E30000E9483240C94061F0E94AA240C94181F2D
:103E4000E92FE295EF70E250EE3070F4F0E0E053CD
:103E5000FA4C0C947C34803F19F020F4883E20F416
:103E600081E00895843FE1F380E00895883EC0F347
:103E7000813FD1F7F5CF93FB882780F908950E9401
:103E800047240C94201FCF93DF9300D000D00F92D3
:103E9000CDB7DEB70F900F900F900F900F90DF917E
:103EA000CF910895CF93DF9300D000D000D0CDB74D
:103EB000DEB726960FB6F894DEBF0FBECDBFDF91FA
:103EC000CF9108951F93CF93DF93C0918E0216E098
:103ED00080918F028C1304C0DF91CF911F910895C0
:103EE000D0E01C9FF0011D9FF00D1124E057FD4F05
:103EF0004081518162817381848195810E94521F2A
:103F00002196C770E5CF4091C0025091C1026091E7
:103F1000C2027091C3028091C4029091C5020C94B8
:103F2000521F1F93CF93DF938091C502807FA9F426
:103F30008091C202882389F080918E02C0918F0205
:103F40006091C0027091C102A091C302B091C402FD
:103F5000D62FD72316E0C81304C0DF91CF911F914D
:103F6000089590E0109711F0DF3F19F401968770E3
:103F7000F2CF189F9001199F300D1124F901E057DD
:103F8000FD4F41814713F2CF40814613EFCF42816D
:103F90004111ECCF438154814A1B5B0B483C5105D6
:103FA00028F78091C5028F7080618093C502F90166
:103FB000EB56FD4F80818F708061808380EC92E0B2
:103FC0000E94EA1EDF91CF911F910C94621FAF9265
:103FD000BF92CF92DF92EF92FF920F931F93CF93F6
:103FE000DF93CDB7DEB761970FB6F894DEBF0FBE93
:103FF000CDBF8C0185E0F801DE011D9601900D9288
:104000008A95E1F7F80140815181E28080ECC82E69
:1040100082E0D82E6091C3027091C40261157105CF
:1040200009F461C19091C0022091C102892F8223BD
:104030008F3F09F458C1A380B480F090C202F5010B
:10404000E61BF70BFF2009F4FCC08091C502382F56
:10405000307FE83CF10508F0B2C0311179C0FE2C88
:10406000251323C0941321C0E1101FC08F708061FD
:104070008093C5020E94831FC6010E94EA1E8091A0
:10408000C502F80185838F2D61960FB6F894DEBFC7
:104090000FBECDBFDF91CF911F910F91FF90EF9099
:1040A000DF90CF90BF90AF900895AB2829F0842F78
:1040B00085238F3F09F033C180E0F82FF170DF2EA8
:1040C00080FF3CC080918E0220918F0236E08213E7
:1040D00015C04D875E878D859E850E944724292FB8
:1040E00022952F702230F0F0243018F59F70F1F0F7
:1040F000F8019581907FD1F4D12C1EC090E0389FBB
:10410000F001399FF00D1124E057FD4F61816513D7
:1041100006C06081641303C062816E110FC00196F6
:104120008770D5CF9F7011F0882331F3805E88307F
:1041300018F3C8010E94EA1EFD2CA5CFEE2009F459
:10414000A2CF8091C50281608093C502F12C9BCFE4
:10415000251306C0941304C0F801EE2009F48DC0A5
:104160004D875E878D859E850E943F1F882319F1AC
:10417000EE2009F18091C502803270F02091C002DA
:104180003091C10238872F831986BB86AA868C8717
:10419000CE0107960E94EA1E86E0F801A0ECB2E08C
:1041A00001900D928A95E1F70E94911F0E94831F52
:1041B000FF24F39468CFC8010E94EA1EF9CF3111A1
:1041C00013C07A2DB98AA88A6E2D89890E94431F4F
:1041D00080EC92E00E94EA1E86E0F60111928A9538
:1041E000E9F70E94831FB2CF25130FC094130DC0AF
:1041F000E1100BC0F8018583C8010E94EA1E86E029
:10420000F60111928A95E9F73ECF4D875E878D853D
:104210009E850E943F1F882371F2EE2061F28091FB
:10422000C502803208F4B8CF2091C0023091C1029B
:104230003A8329831B82BD82AC828E83CE01019694
:10424000A9CFE83CF10508F041C0FE2CEE2009F4AE
:10425000B2CF25132AC0941328C08091C50280FDD7
:104260001BC0982F907FC1F0F8018583903F31F0FB
:10427000982F907F905F8F70892B8583C8010E9453
:10428000EA1E86E0F801A0ECB2E001900D928A955A
:10429000E1F70E94831FF7CE86E0F801A0ECB2E0C0
:1042A00001900D928A95E1F7EECE4D875E878D8560
:1042B0009E850E943F1F81116FCF8091C502816052
:1042C0008093C502C8010E94EA1EDDCE7A2DB98A0C
:1042D000A88A6E2D89890E94431F86E0F6011192FB
:1042E0008A95E9F7D6CFEE2009F465CF4D875E8732
:1042F0008D859E850E943F1FF82E882309F45BCF91
:1043000086E0F801A0ECB2E001900D928A95E1F709
:1043100080EC92E00E94741B0E94911FBACF81E052
:104320008E25CBCE1F93CF93DF93CDB7DEB72C97DF
:104330000FB6F894DEBF0FBECDBF4F835887698795
:104340007A878B879C87CE0107960E94E71F882378
:1043500069F08A859B85892B39F04F815885842F98
:1043600085238F3F09F071C016E05FC086E0FE0133
:104370003796DE01119601900D928A95E1F78A85B4
:104380009B85892B89F388859F8189238F3F61F3E2
:1043900020918F0230E0C9010196877099274091E2
:1043A0008E024817190671F40E941C1F10928F028A
:1043B00010928E0286E0E0ECF2E0DF011D928A9519
:1043C000E9F7D2CF96E0929FD001939FB00D1124D0
:1043D000A057BD4FFE01319601900D929A95E1F7DD
:1043E00080938F020E94621FBFCF819FC001112462
:1043F00080579D4F0E94E71F8823E9F0E0918E02CD
:104400001E9FF0011124E057FD4F408151816281D0
:104410007381848195810E94521F80918E0290E069
:1044200001968770992780938E0280918E029091D9
:104430008F028913DACF2C960FB6F894DEBF0FBE29
:10444000CDBFDF91CF911F91089569857A858B85C6
:104450009C850E94521F88CFEF92FF920F931F936B
:10446000CF93DF938C01892B81F0F12CEE24E39420
:10447000E8012196F8018491843770F4843008F0C3
:104480005FC08130B1F08230A1F1DF91CF911F91F7
:104490000F91FF90EF900895853709F44CC008F410
:1044A0003DC09CE7980F903780F78F770E94101CD3
:1044B00049C00E5F1F4FFE01849190E2980F983023
:1044C00060F48770FE2D01C0FF0F8A95EAF78F2FE9
:1044D0000E94BD240E94E62402C00E94791B8F2DF9
:1044E000815030F2EFE9FFE03197F1F700C00000B2
:1044F000F7CF0E5F1F4FFE01849190E2980F983026
:1045000050F48770FE2D01C0FF0F8A95EAF78F2FB8
:104510000E94C324DFCF0E94101CE1CF0E5F1F4F0B
:10452000FE01C491C150D8F28FE99FE00197F1F7E5
:1045300000C00000F7CF0E5F1F4FFE01F490CFCFF9
:104540000E94791B8E01CBCF08950C94A4220E9467
:10455000A52260930603709307038093080390934A
:1045600009030C94061F08950C94A7220F931F9320
:10457000009106031091070320910803309109036D
:10458000602B712B822B932B1F910F910C94A722E0
:104590000F931F93009106031091070320910803C6
:1045A0003091090360237123822393231F910F917C
:1045B0000C94A7220F931F930091060310910703F9
:1045C00020910803309109036027712782279327E0
:1045D0001F910F910C94A7220C94A4220C94EC220E
:1045E0000E94EE22609302037093030380930403FE
:1045F000909305030C94061F60E070E0CB010C94CF
:10460000F0220F931F9341E050E060E070E08A01D8
:104610009B0104C0000F111F221F331F8A95D2F780
:10462000C901B8011F910F910C94F0220F931F93B1
:1046300041E050E060E070E004C0440F551F661F89
:10464000771F8A95D2F78091020390910303A0917E
:104650000403B09105038A019B01082B192B2A2B17
:104660003B2BC901B8011F910F910C94F0220F93BD
:104670001F9341E050E060E070E004C0440F551F1C
:10468000661F771F8A95D2F7CB01BA0160957095A6
:1046900080959095009102031091030320910403EB
:1046A0003091050360237123822393231F910F917F
:1046B0000C94F0220F931F9341E050E060E070E013
:1046C00004C0440F551F661F771F8A95D2F780914B
:1046D000020390910303A0910403B09105038A01A2
:1046E0009B01082719272A273B27C901B8011F91D9
:1046F0000F910C94F0220F931F93009102031091DD
:1047000003032091040330910503602B712B822B4E
:10471000932B1F910F910C94F0220F931F930091F4
:1047200002031091030320910403309105036023D9
:104730007123822393231F910F910C94F0220F93E6
:104740001F93009102031091030320910403309101
:10475000050360277127822793271F910F910C94DF
:10476000F02208959295907F890F982F977041E0DD
:1047700001C0440F9A95EAF786958695869595E04F
:10478000899FF0011124EA53FD4F30E020E070E0F2
:104790005191DF011197CB01022E02C096958795AA
:1047A0000A94E2F7817081958527842385278C936D
:1047B0002F5F3F4F2530310559F708959295907F2F
:1047C000890F982F977086958695869525E0829F0C
:1047D000F0011124EA53FD4F50E040E080E02191C8
:1047E00030E0092E02C0369527950A94E2F7217031
:1047F0003327042E01C0220F0A94EAF7822B4F5F61
:104800005F4F4530510559F70895BF92CF92DF921F
:10481000EF92FF920F931F93CF93DF938C01C09081
:104820000203D0900303E0900403F090050380910D
:10483000060390910703A0910803B0910903C82AC9
:10484000D92AEA2AFB2ACFE1D0E0BC2ED701C60143
:104850000C2E04C0B695A795979587950A94D2F724
:1048600080FD0EC0219788F7B12C8B2DDF91CF9161
:104870001F910F91FF90EF90DF90CF90BF90089520
:10488000B8018C2F0E94A207019761F3EECFCF935E
:10489000DF93EC010E940524BE01DF91CF910C94BF
:1048A000A2071F93CF93DF93EB0190918D02992381
:1048B00031F0CB01DF91CF911F910C9447248823D5
:1048C00079F0CB010E940524182F682FCE010E9499
:1048D000B223BE01812FDF91CF911F910C94A207CB
:1048E000CB010E94DE23182FF4CF682F8091160190
:1048F000909117010C949026682F80911601909149
:1049000017010C949B2680911601909117010C942D
:10491000A62680910A0385958595859508958091B1
:104920000A038770089590910A03977081E009F453
:1049300080E0089580912E03089590912E03892B95
:1049400080932E030895809590912E039823909341
:104950002E03089510922E03089590912D03892B14
:1049600080932D030895809590912D039823909323
:104970002D03089510922D03089590912C03892BF7
:1049800080932C030895809590912C039823909305
:104990002C03089510922C03089580910B03089521
:1049A00008950C94D02490910B03981721F08093D4
:1049B0000B030C94D124089580910B03882329F0D4
:1049C00010920B0380E00C94D1240895E09116011D
:1049D000F091170180912E038083E0911601F091F0
:1049E0001701808190912D03892B8083E09116011E
:1049F000F0911701808190912C03892B80839091F5
:104A00000B03992381F0E0911601F0911701808149
:104A1000892B808380911601909117010E94FC25BB
:104A200081110E94DC2480911601909117010C9451
:104A30001A1A08950C94192598E0899F9001112461
:104A4000622B60930A030E94162380910A038595C6
:104A5000859585950C941A2510920A0380E00C9494
:104A60001A2590910A038095892380930A03282FA1
:104A7000277071F4282F082E000C330B92171306A1
:104A800039F08595859585950E9437230C942C25C2
:104A900008956FEF7FEF90E080E00C945A3590E03E
:104AA00080E00E94363521E08C3E9E4F09F020E0E8
:104AB000822F089582E090E00C94283583E090E006
:104AC0000C942835CF9384E090E00E942835C82FBD
:104AD00081E290E00E942835982F8C2FCF91089585
:104AE000CF93C92F682F84E090E00E943C356C2F53
:104AF00081E290E0CF910C943C3586E090E00C94FC
:104B00002835682F86E090E00C943C35AB01BC0161
:104B10008FE090E00C944E35AB01BC0183E190E056
:104B20000C944E3560E070E0CB010C948C2560E075
:104B300070E0CB010E9486250C9492256CEE7EEFEE
:104B400090E080E00E945A3560E082E090E00E94B0
:104B50003C3560E083E090E00E943C351092060313
:104B600010920703109208031092090360E084E09A
:104B700090E00E943C3560E081E290E00E943C358C
:104B800060E085E090E00E943C3560E086E090E0E7
:104B90000E943C356FEF87E090E00E943C3540E09A
:104BA00050E0BA0188E090E00E944E3560E08DE070
:104BB00090E00E943C3540E050E0BA0188E190E08E
:104BC0000E944E3560E087E190E00E943C3540E075
:104BD00050E0BA018CE190E00E944E3560E080E246
:104BE00090E00E943C350C9497250C949E25682FEC
:104BF0008EE090E00C943C35FC01329680912A01C5
:104C0000882321F08091C8049EE187FF96E080E030
:104C1000915008F4089521912223D1F38F5FF8CFAA
:104C2000662301F120912A012223F1F02091C8048A
:104C300027FF1AC0462F4695469546954E3190F46B
:104C4000677021E030E002C0220F331F6A95E2F75F
:104C5000840F911DFC01828190E02823392381E09B
:104C6000232B69F480E00895FC0132960896219187
:104C7000261721F0E817F907D1F7F4CF81E008955E
:104C80009C01FC0132969FEF80E04191461751F064
:104C90009F3F19F4411101C0982F8F5F8630A9F70B
:104CA0009F3F09F40895290F311D97FD3A95F901A9
:104CB00062830895FC01329608962191261303C061
:104CC000DF0111971C92E817F907B9F70895E62F4D
:104CD000E695E695E695EE3168F4E80FF92FF11DBB
:104CE000677021E030E001C0220F6A95EAF7828107
:104CF000822B82830895E62FE695E695E695EE31C0
:104D000070F4E80FF92FF11D677021E030E001C069
:104D1000220F6A95EAF7209582812823228308953D
:104D200020912A01222329F02091C80427FD0C9408
:104D300067260C94402620912A01222329F02091F5
:104D4000C80427FD0C947B260C945A26FC0132964D
:104D500080912A01882351F08091C80487FF06C002
:104D60008EE1DF011D928A95E9F7089586E0F9CF7B
:104D7000089508950C94B9260E94BA268091CE0415
:104D8000843061F11092300388E190E020E40FB6A6
:104D9000F894A895809360000FBE2093600080E097
:104DA0000E94781380E00E9430070E94BA2683B7E1
:104DB000817F846083BF83B7816083BF7894889547
:104DC00083B78E7F83BF0FB6F894A895809160005B
:104DD000886180936000109260000FBE089508956E
:104DE000CF930E94B8260E94E8090E94EF26C0E0F7
:104DF0008C2F0E949209892B31F4CF5FC630C1F706
:104E000080E0CF91089581E0FCCF08950C940527B0
:104E10000E941C1F0E9429120E940E1A0E94300735
:104E20000C9406271F921FB61F9211248F939F93F5
:104E3000AF93BF9380913003811113C08091C4045C
:104E40009091C504A091C604B091C7044196A11DDC
:104E5000B11D8093C4049093C504A093C604B0937D
:104E6000C704BF91AF919F918F911F901FBE1F905C
:104E7000189582E084BD93E095BD93E597BD80933E
:104E80006E0008952FB7F8948091C4049091C504E2
:104E9000A091C604B091C7042FBF08952FB7F8940E
:104EA0006091C4047091C5048091C6049091C704B8
:104EB0002FBF08959C014FB7F8948091C40490913E
:104EC000C504A091C604B091C7044FBF821B930BC9
:104ED000089578941F920F920FB60F9211242F937A
:104EE0003F934F935F936F937F938F939F93AF9372
:104EF000BF93EF93FF938091C3048F5F8330A8F437
:104F00008093C3040E943505FF91EF91BF91AF914B
:104F10009F918F917F916F915F914F913F912F91D1
:104F20000F900FBE0F901F9018951092C3048091A0
:104F3000C4049091C504A091C604B091C704019621
:104F4000A11DB11D8093C4049093C504A093C60411
:104F5000B093C704D7CF81E08093E00080E28093D4
:104F6000D8001092C9008FE19EE40197F1F700C0CC
:104F7000000087E090EBDC018093D7049093D80485
:104F8000A093D904B093DA0488E19CE00FB6F894BA
:104F9000A895809360000FBE90936000FFCF0C94A3
:104FA000BE140E94E8098FE39CE90197F1F700C065
:104FB00000000E94E80980E00E94920980FF04C07E
:104FC0000E94CF270C94AB2708950E944F25811192
:104FD00002C00E94F5250E945A2580932F030E944B
:104FE00062259093C9048093C8040E945E25682FAF
:104FF00070E090E080E00C94B4228091380380FF50
:1050000012C060911D0185E0689FB0011124759563
:1050100067957595679560387105A8F561157105F7
:10502000A1F1862F089581FF09C060911D0185E0DF
:10503000689FB001112475956795EDCF60911D01B2
:1050400082FD0AC0809137038823D1F090911C0122
:1050500060911D01891728F085E0689FB001112437
:10506000DACF869FB001112485E0869F9001879F4B
:10507000300D1124692F70E0C9010E944634CBCF56
:1050800065E070E0CECF8FE7089581E008958091CC
:10509000380380FF0CC06091190170E07595679529
:1050A000759567956115710549F1862F089581FF02
:1050B00006C06091190170E075956795F3CF609116
:1050C000190182FD0BC0909137039923A1F06091E3
:1050D000180180911901961738F0682F70E0603838
:1050E000710500F38FE70895899FC001112470E0D6
:1050F0000E944634F4CF61E070E0D7CF81E008959C
:10510000803F31F40E94FD27819580933C030895F0
:10511000813F19F40E94FD27F8CF823F31F40E94AD
:10512000FD27819580933B030895833F19F40E94E6
:10513000FD27F8CF893F29F40E94472880933D033B
:1051400008958A3F21F40E9447288195F7CF8B3F2D
:1051500031F40E944728819580933E0308958C3F47
:1051600019F40E944728F8CF843F31F480913A0324
:10517000816080933A030895853F21F480913A033A
:105180008260F7CF863F21F480913A038460F1CFAB
:10519000873F21F480913A038860EBCF883F21F468
:1051A00080913A038061E5CF8D3F31F480913803DF
:1051B00081608093380308958E3F21F480913803F5
:1051C0008260F7CF8F3FB9F7809138038460F1CFC9
:1051D00090913B03803F41F480913C0387FD109206
:1051E0003C03992371F00895813F29F480913C0399
:1051F0001816ACF3F6CF823F81F497FFF2CF1092EE
:105200003B0380913C0390913D03892B90913E0399
:10521000892B49F7109237030895833F19F4191623
:1052200074F3DFCF893F39F480913D031816CCF633
:1052300010923D03D6CF8A3F29F480913D0387FF2A
:10524000D0CFF6CF8B3F39F480913E0387FFC9CF93
:1052500010923E03C6CF8C3F29F480913E0318166E
:10526000BCF3BFCF843F31F480913A038E7F8093AB
:105270003A03B7CF853F21F480913A038D7FF7CF72
:10528000863F21F480913A038B7FF1CF873F21F451
:1052900080913A03877FEBCF883F21F480913A03D6
:1052A0008F7EE5CF8D3F31F4809138038E7F8093E0
:1052B000380397CF8E3F21F4809138038D7FF7CF4D
:1052C0008F3F09F08ECF809138038B7FF0CF89E339
:1052D00093E00E94341A0E944227909336038093F1
:1052E00035030895CF93DF9300D000D000D0CDB721
:1052F000DEB786E0E9E3F3E0DE01119601900D925E
:105300008A95E1F780913B0390913C03892B81F0D2
:1053100080913303909134030E945A27AC019091FD
:105320003703992331F180911E018417150670F11E
:1053300080913D0390913E03892B91F08091310340
:10534000909132030E945A27AC0190913703992320
:1053500009F478C080911A018417150608F480C0FA
:1053600026960FB6F894DEBF0FBECDBFDF91CF916A
:10537000089520911F018AE0289F9001112424178D
:105380003507B0F69F5F9093370302C09F3FD1F778
:1053900010923D0310923E0380913B03181624F4B3
:1053A0000E94FD2780933B0380913B0387FF05C04C
:1053B0000E94FD27819580933B0380913C03181642
:1053C00024F40E94FD2780933C0380913C0387FFD7
:1053D00005C00E94FD27819580933C0330913B03DB
:1053E0003323A1F020913C03222381F045EB3403C9
:1053F000C00111249923F1F090933B0345EB240362
:10540000900111243323D1F030933C030E9467298B
:105410008091350390913603909334038093330346
:1054200086E0FE013196A9E3B3E001900D928A95E2
:10543000E1F77ECF81E080933B03E0CF81E0809372
:105440003C03E4CF20911B018AE0289F90011124A6
:105450002417350708F084CF9F5F9093370302C06D
:105460009F3FD1F710923B0310923C0380913D0384
:10547000181624F40E94472880933D0380913D0331
:1054800087FF05C00E944728819580933D03809146
:105490003E03181624F40E94472880933E0380910F
:1054A0003E0387FF05C00E944728819580933E03F5
:1054B00030913D033323A1F020913E03222381F05C
:1054C00045EB3403C00111249923F1F090933D037F
:1054D00045EB2403900111243323D1F030933E0394
:1054E0000E9467298091350390913603909332038F
:1054F0008093310386E0FE013196A9E3B3E0019089
:105500000D928A95E1F72CCF81E080933D03E0CFA7
:1055100081E080933E03E4CF86E0E9E3F3E0DF013E
:105520001D928A95E9F71092370310923803089577
:10553000833081F128F4813059F08230D1F0089520
:10554000853009F449C0B8F1863009F456C0089591
:1055500080911F01482F460F5527551F4F3F51057A
:1055600024F4680F60931F0108958FEF80931F014B
:10557000089580911E01482F460F5527551F4F3F14
:10558000510524F4680F60931E0108958FEF8093F6
:105590001E01089580911D01482F460F5527551F64
:1055A0004F3F510524F4680F60931D0108958FEF5C
:1055B00080931D01089580911C01482F460F5527A7
:1055C000551F4F3F510524F4680F60931C01089547
:1055D0008FEF80931C01089580911901482F460F89
:1055E0005527551F4F3F510524F4680F609319014B
:1055F00008958FEF80931901089580911801482F25
:10560000460F5527551F4F3F510524F4680F6093EF
:10561000180108958FEF809318010895833011F1D8
:1056200028F4813049F0823091F00895853081F17D
:1056300020F18630C1F1089580911F01681720F490
:10564000861B80931F01089510921F010895809179
:105650001E01681720F4861B80931E010895109286
:105660001E01089580911D01681720F4861B809308
:105670001D01089510921D01089580911C01681765
:1056800020F4861B80931C01089510921C0108953C
:1056900080911901681720F4861B809319010895E1
:1056A00010921901089580911801681720F4861B43
:1056B0008093180108951092180108950F931F9375
:1056C00041E050E060E070E08A019B0104C0000FFF
:1056D000111F221F331F8A95D2F7C901B8010E94FA
:1056E000B4221F910F910C941C1FEBEFE80FEF33C6
:1056F00008F05AC0F0E0E252FA4C0C947C340E945C
:10570000F52581E0089580912F03807F80932F03FA
:1057100081E08093400308950E943907F2CF909171
:105720002F03892F8E7F90FF816080932F0380FD50
:10573000E8CF817F80932F03E4CF90912F03892FAF
:105740008D7F91FF826080932F0381FFDACF80915C
:105750002F038160EFCF90912F03892F8B7F92FFD2
:10576000846080932F0382FDF2CFCBCF90912F03E3
:10577000892F877F93FF886080932F0383FDE7CF76
:10578000C0CF0E941C1F9091C804892F97FB87F9F6
:1057900080588093C804B5CF80E00E945E2BB1CFC3
:1057A0008953FBCF8D51F9CF80E0089580E00895B3
:1057B0000C94D62B8E518A3030F4E82FF0E0EC5167
:1057C000FE4F8081089580E00895CF93C82F809187
:1057D00040038130B9F0882331F08230A1F110927A
:1057E000400380E00DC00E949A248232D1F78C2FB2
:1057F0000E94D62B81111BC08C2F0E94752B8170AB
:10580000CF9108950E949A24823289F38C2F0E94AE
:10581000D82B81110AC0C43199F060F4CB3029F043
:10582000C03169F782E08093400381E0E8CF81E0F6
:1058300090E0E5CFC93221F0C833B9F380E0DFCF83
:1058400010924003FBCFC93219F188F4C43101F141
:1058500020F4C73081F181E0D3CF82EE8C0F863007
:10586000D0F78C2F0E94DA2B80933F03F4CFCE34F5
:1058700001F140F46AE0CB3471F780913F030E945C
:10588000982AE9CFC13579F061E0C235B1F3E3CFB1
:1058900080913F03882319F010923F03DCCF81E011
:1058A00080934003ADCF61E080913F030E940E2BB7
:1058B000D2CF6AE0F9CF8EE180931F0182E380931B
:1058C0001E018AE080931D0184E180931C0188E021
:1058D0008093190188E280931801BDCF8091610304
:1058E0000895CF93DF9300D00F92CDB7DEB790919C
:1058F000CE04943011F589837B836A839093E90009
:105900008FEF9091E800815095FD06C095ED9A9536
:10591000F1F700008111F5CF8091E80085FF0DC0FF
:1059200050E040E063E070E0CE0101960E94272F36
:105930008091E8008E778093E8000F900F900F9091
:10594000DF91CF910895CF93DF93EC010E940A2F4E
:10595000823011F0843031F4BE0184E0DF91CF91C8
:105960000C94712CDF91CF910895BC0183E00C94CD
:10597000712CCF93DF93EC010E940A2F823011F03B
:105980008430F9F484E08093E9008FEF9091E8008F
:10599000815095FD06C095ED9A95F1F700008111B3
:1059A000F5CF8091E80085FF0CC050E040E066E054
:1059B00070E0CE010E94272F8091E8008E778093BF
:1059C000E800DF91CF910895CF93DF93EC010E941F
:1059D0000A2F823011F08430B9F580912A01882392
:1059E000B1F18091C80487FF32C060E284E0809307
:1059F000E9008FEF9091E800815095FD06C095ED8C
:105A00009A95F1F700008111F5CF8091E80085FFAC
:105A10001BC080912A0170E050E040E0811104C079
:105A200050E040E068E070E0CE010E94272F8091B6
:105A3000E8008E778093E80080E2FE01A1E4B3E005
:105A400001900D928A95E1F7DF91CF91089568E07A
:105A500081E0CDCFCF93FC01603421F58091CE045D
:105A6000843001F5C091E900CF702091EC00922FB5
:105A7000917020FD90E8C92B82E08093E90080912D
:105A8000E80080FF0CC050E040E060E470E0CF012F
:105A90000E94272F8091E8008E778093E800CF70D6
:105AA000C093E900CF9108958091CD04811109C080
:105AB0000E9404310E9466318091E20084608093EC
:105AC000E20008951092CD040895089508950C946D
:105AD000082742E061EC81E00E94803042E261EC04
