:100000000C940D040C9454040C9454040C94540457
:100010000C9454040C9454040C9454040C94540400
:100020000C9454040C9454040C942E2F0C94023011
:100030000C94F9240C9454040C9454040C9454041B
:100040000C9454040C9454040C9454040C945404D0
:100050000C9454040C9450250C9454040C945404A3
:100060000C9454040C9454040C9454040C945404B0
:100070000C9454040C9454040C9454040C945404A0
:100080000C9454040C9454040C9454040C94540490
:100090000C9454040C94540429003A003B003C0096
:1000A0003D003E003F00400041004200430044004C
:1000B000450046004700480035001E001F00200094
:1000C00021002200230024002500260027002D0007
:1000D0002E0049004A004B002B0014001A000800B3
:1000E000150017001C0018000C00120013002F0050
:1000F00030004C004D004E0039000400160007008F
:1001000009000A000B000D000E000F003300340040
:1001100028002A0000000000E10001001D001B0073
:1001200006001900050011001000360037003800E5
:10013000E50031005200E400E000E300E2000000CE
:10014000000001002C00000000000100E600E700B4
:100150000151500051004F00010001000100010059
:100160000100010001000100010001000100010087
:1001700001000100010001000100C35CC45CC65C19
:10018000C75CC85CC95CCA5CCB5C010001000100B3
:100190000100010001000100010001000100010057
:1001A0000100010001000100010001000100010047
:1001B0000100010001000100010001000100010037
:1001C0000100010001000100010001000100010027
:1001D0000100010000000000010001000100010019
:1001E0000100010001000100010001000100010007
:1001F00001000100BF5C01000100010001000000DE
:1002000000000100010000000000010001000100E9
:100210000100C05CBE5CC15C010001000100010086
:1002200001000100010001000100010001000100C6
:1002300001000100010001000100010001000100B6
:1002400001000100010001000100010001000100A6
:100250000100010001000100010001000100010096
:100260000100010001000100010001000100010086
:100270000100010001000100010001000100010076
:100280000100010001000100010001000100010066
:100290000100010000000000010001000100010058
:1002A0000100010001000100010001000100010046
:1002B0000100010001000100010001000100000037
:1002C0000000010001000000000001000100010029
:1002D0000100010001000100010001000100010016
:1002E0000100010001000100010001000100010006
:1002F00001000100010001000100010001000100F6
:1003000001000100010001000100010001000100E5
:1003100001000100010001000100010001000100D5
:1003200001000100010001000100010001000100C5
:1003300001000100010001000100010001000100B5
:1003400001000100010001000100010001000100A5
:100350000100010000000000010001000100010097
:100360000100010001000100010001000100010085
:100370000100010001000100010001000100000076
:100380000000010001000000000001000100010068
:100390000100010001000100000000000000000059
:1003A0002A2B2800000000000000000000000000D0
:1003B00000000029000000002C1E342021222434DB
:1003C0002627252E362D3738271E1F2021222324AD
:1003D00025263333362E37381F0405060708090A49
:1003E0000B0C0D0E0F101112131415161718191AE5
:1003F0001B1C1D2F3130232D350405060708090A63
:100400000B0C0D0E0F101112131415161718191AC4
:100410001B1C1D2F3130354C000000000000000077
:100420000000000000000000000000007E0F00D46B
:10043000FFFFFFC70000007832190A00047F3F1F4A
:10044000643214643214783C1E1E140A05222325DB
:100450002628292A2C2D2F3032333536383A3B3D89
:100460003E4042434547494A4C4E505153555759D7
:100470005A5C5E6062646668696B6D6F71737577F4
:10048000797B7D7F81838587898A8C8E90929496F3
:10049000989A9C9E9FA1A3A5A7A8AAACAEAFB1B302
:1004A000B4B6B8B9BBBCBEBFC1C2C3C5C6C7C9CA52
:1004B000CBCCCDCED0D1D2D2D3D4D5D6D7D7D8D914
:1004C000D9DADADBDBDBDCDCDCDCDCDDDDDDDDDC72
:1004D000DCDCDCDCDBDBDBDADAD9D9D8D7D7D6D584
:1004E000D4D3D2D2D1D0CECDCCCBCAC9C7C6C5C346
:1004F000C2C1BFBEBCBBB9B8B6B4B3B1AFAEACAA93
:10050000A8A7A5A3A19F9E9C9A98969492908E8C42
:100510008A89878583817F7D7B79777573716F6D1C
:100520006B6968666462605E5C5A595755535150F6
:100530004E4C4A4947454342403E3D3B3A383635AA
:100540003332302F2D2C2A292826252322FFAA7F5B
:1005500055400001010101010101010102020202F5
:10056000020202020203030303030303030404045D
:100570000404040405050505050606060606070726
:1005800007070708080808090909090A0A0A0B0BDE
:100590000B0C0C0C0D0D0D0E0E0E0F0F0F1010117D
:1005A0001111121213131414151516161717181803
:1005B00019191A1A1B1B1C1D1D1E1E1F202021226B
:1005C00022232424252626272829292A2B2C2D2DB1
:1005D0002E2F30313232333435363738393A3B3CCE
:1005E0003D3E3F404142434445464748494A4C4DC1
:1005F0004E4F50515354555658595A5B5D5E5F618A
:100600006264656668696B6C6D6F7072737577781C
:100610007A7B7D7E8082838587888A8C8E8F91937A
:100620009596989A9C9EA0A2A3A5A7A9ABADAFB1A1
:10063000B3B5B7BABCBEC0C2C4C6C9CBCDCFD1D486
:10064000D6D8DBDDDFE2E4E7E9EBEEF0F3F5F8FA2C
:10065000FDFF1C0358004F003800370020005300F6
:100660006F006C00640065007200650064000000AB
:1006700018034D006F006E0073007400610072007B
:1006800067006500610072000000040309040902AC
:100690005B00030100A0FA0904000001030101004E
:1006A0000921110100012240000705810308000A09
:1006B00009040100020300000009211101000122C8
:1006C0002200070582032000010705030320000123
:1006D00009040200010300000009211101000122A8
:1006E000BC000705840320000A120110010000006D
:1006F00008474D44530100010200010660FF0961F3
:10070000A1010962150026FF0095207508810209E4
:1007100063150026FF00952075089102C0050109A8
:1007200002A10185020901A1000509190129051588
:10073000002501950575018102950175038101056B
:1007400001093009311581257F9502750881060957
:10075000381581257F950175088106050C0A380238
:100760001581257F950175088106C0C005010980A6
:10077000A101850319012AB700150126B7009501CB
:1007800075108100C0050C0901A101850419012A19
:10079000A002150126A002950175108100C0050177
:1007A0000906A1018505050719E029E715002501BE
:1007B0009508750181020507190029EF150025012B
:1007C00095F0750181020508190129059505750146
:1007D0009102950175039101C005010906A101056A
:1007E0000719E029E7150025019508750181029593
:1007F00001750881010507190029FF150026FF0072
:1008000095067508810005081901290595057501EA
:100810009102950175039101C00011241FBECFEF15
:10082000D0E1DEBFCDBF04B603FE27C08091BC037C
:100830009091BD03A091BE03B091BF038730904B50
:10084000A740B04BD1F41092BC031092BD0310929C
:10085000BE031092BF0314BE84B7877F84BF0FB658
:10086000F894A89580916000886180936000109250
:1008700060000FBEE0E0F8E7099511E0A0E0B1E00C
:10088000E4EAF7E602C005900D92A83EB107D9F759
:1008900023E0A8EEB1E001C01D92AC3BB207E1F746
:1008A0000E94F32B0C9442330C9400006D9A249A0E
:1008B000259A809A3E9A559A3C9A3A9A389A689A1A
:1008C000549A6C9A269A229A849A089A829A0C9A36
:1008D000819A0F9A539A0B9A08950E940E1882FFDC
:1008E0000BC0709A5D9A80FF09C02A9A5D9A81FFB9
:1008F00007C08C9A5D9A08957098F5CF2A98F7CF23
:100900008C980895089581E0089581E008950C94ED
:10091000850408950C9489041F93CF93DF9300D02E
:1009200000D00F92CDB7DEB749835A836B833091E5
:10093000770289819A8131111DC06623B9F0222383
:10094000A9F00E94E521182F682F89819A810E94C1
:10095000922169817A81812F0F900F900F900F90D3
:100960000F90DF91CF911F910C9427150E94BE210B
:10097000182FEFCF0E94E52169817A81EDCFFC012C
:10098000262F408151816281738184810C948C0473
:10099000CF93DF93EC0160E00E94BF04BE01DF91C2
:1009A000CF910C948A04FF920F931F93CF93DF9300
:1009B000E82FF0E0E856FC4FF490C82FC695C69596
:1009C000C695D0E0FE01E85DFB4F0491877010E012
:1009D000082E02C0159507950A94E2F701701127B9
:1009E000C85EDB4FFE01C491D0E002C0D595C7952B
:1009F0008A95E2F7C170DD270115110519F081EE26
:100A00000E948019209719F086EE0E9480198F2D80
:100A10000E946D1ACD2B19F086EE0E94171A012B39
:100A200041F081EEDF91CF911F910F91FF900C94D7
:100A3000171ADF91CF911F910F91FF900895EF92B8
:100A4000FF920F931F93CF93DF93EC01162F0AE0D1
:100A50008881882309F454C0813009F04EC089810F
:100A6000813099F47E0122E0E20EF11C8A810E941D
:100A70006D1AE7012196812F815050F3EFE9FFE0D5
:100A80003197F1F700C00000F7CF823041F47E01CA
:100A900082E0E80EF11C8A810E948019EACF83303F
:100AA00041F47E01E2E0EE0EF11C8A810E94171AE9
:100AB000E0CF843011F02196DDCF2A81229690E09C
:100AC00080E0AE014F5F5F4F2053330B2A3031057A
:100AD00048F0019778F2EFE9FFE03197F1F700C0B5
:100AE0000000F7CF089FB001099F700D1124C901C4
:100AF000860F971F2981EA01E4CF0E94D304BACF61
:100B0000DF91CF911F910F91FF90EF90089560E0DA
:100B10000C941F058F929F92AF92BF92CF92DF925B
:100B2000EF92FF920F931F936B017C0181E090E0A5
:100B3000A0E0B0E04C015D0104C0880C991CAA1C27
:100B4000BB1C4A95D2F7B501A4014C015D0104C05C
:100B5000880C991CAA1CBB1C2A95D2F74829592934
:100B60006A297B2904C0880F991FAA1FBB1F0A95F9
:100B7000D2F78A019B010C211D212E213F21041750
:100B800015072607370789F48C299D29AE29BF2927
:100B9000BC01CD011F910F91FF90EF90DF90CF909E
:100BA000BF90AF909F908F90089580959095A0955D
:100BB000B0958C219D21AE21BF21EACF0F93382F14
:100BC000262F6091EC027091ED028091EE029091DF
:100BD000EF02042F432F0E948A050F910C94D0201E
:100BE0000E949A250E942F23811102C00E94DC23BB
:100BF0000E9456040C9466080C94690808950E949B
:100C0000FC1C0E94FE052FEF84E39CE021508040F5
:100C10009040E1F700C000000C9474250F931F93DF
:100C2000CF93DF93EC0161E00E94BF048C01BE0111
:100C30000E94C6128823B9F1BE01C8010E94870430
:100C4000882389F1BE01C8010E941312882359F13B
:100C5000BE01C8010E945E16882329F1BE01C801A9
:100C60000E94B0168823F9F0BE01C8010E94D31774
:100C70008823C9F0BE01C8010E94CF10882399F0D3
:100C80008A81882339F001158CE5180751F00F3D52
:100C90001C4579F0CE01DF91CF911F910F910C94FB
:100CA00083040E94FF0580E0DF91CF911F910F9197
:100CB00008950E94DC23F7CF0C94820481E008950C
:100CC0000C945E06CF93C82F0E945C068C2FCF91A8
:100CD0000C94600690E080E008950895FC01EE0F0A
:100CE000FF1FE85CFB4F859194910895CF93DF93AC
:100CF0000E9427150E948B07EC01811520E59207C1
:100D000008F042C0811530E4930708F0BDC0883E6A
:100D1000910528F5803E910508F09DC0883A91051F
:100D200088F4853A910508F08FC08130910509F467
:100D300092C0009709F48FC0049708F08CC0D0E0EF
:100D4000C0E089C08F3B910508F489C0805C91099F
:100D5000C03CD105A0F30E946E06EC017CC0811559
:100D6000904250F4C11581E0D80708F074C0C03F2C
:100D7000D10528F3D0656FC0C11590E3D90708F0FD
:100D800079C0CE019F70E7CF811525E5920758F510
:100D9000811534E5930708F0A6C0811542E5940754
:100DA00050F4C11581E5D80708F471C0DC2FCC27B9
:100DB000C16FD06A50C0982F969596959E0123706A
:100DC0003327C115D34508F07FC0C1E0D0E002C091
:100DD000CC0FDD1F2A95E2F720E2929FC00111247B
:100DE000C82BD92B6FC0C11589E5D807A8F4C11548
:100DF00098E5D90708F07CC0C11526E5D20708F0B0
:100E00009ECF8C2F0E942208C82FD0E0DC2FCC2749
:100E1000CC27DF71D0621FC0C1153AE5D30708F4B3
:100E20006CC0CE0190568115904208F088CF8D2F6E
:100E30008F710E94220890E0982F882788279F7141
:100E40009C012C2BE901E6CFC55AD0E0C65ADE4FF3
:100E5000C881D0E0D064CE01DF91CF910895C85A07
:100E6000D0E0CC0FDD1FC45DDE4F0990D881C02DCE
:100E7000D464F1CFCE019927D3FF03C0EC01D86C25
:100E8000EACFEC01D06CE7CFDF70D06AE4CFCE01BF
:100E9000E4E096958795EA95E1F783702C2F2695E7
:100EA0002695237090E2299F90011124382B8C2FD6
:100EB0008370C1E0D0E002C0CC0FDD1F8A95E2F75D
:100EC000C22BD32BDC68C7CFC1E0D0E002C0CC0F6F
:100ED000DD1F2A95E2F730E2939FC0011124C82B51
:100EE000D92BDA68B8CFD82FCC27C46FD06AB3CF4C
:100EF000DC2FCC27C06FD06AAECF8C2F8F700E94B2
:100F0000220834E0D695C7953A95E1F7CF709C2F2B
:100F1000EC01D069A0CF82389105B1F1B0F48133F2
:100F2000910509F475C048F48932910509F469C046
:100F30008A32910509F473C008958533910509F447
:100F400059C08933910501F10895833E9105A9F1B6
:100F500038F4803E9105F9F0823E910549F10895FB
:100F6000863E9105A9F1873E9105C9F1843E910520
:100F700019F52091AE0321FF1FC08091AD0384FDC0
:100F800014C087EE90E008952091AD032370A1F086
:100F900080EE90E008952091AD0320FD47C0309190
:100FA000AE0330FF09C024FF44C090E080E004C0DD
:100FB0002091AD0322FDF7CF08952091AD0322FDCE
:100FC0003BC03091AE0330FDE3CF24FFF5CFEDCF32
:100FD0002091AD0323FFF0CF24FDE7CFD2CF2091A6
:100FE000AD0323FD2CC03091AE0331FFEECF84EE74
:100FF00090E008952091AD0325FFDECF89E290E0D7
:1010000008952091AD0325FFD7CF85E390E00895A3
:101010002091AD0326FFD0CF8AE290E00895209181
:10102000AD0326FFC9CF81E390E0089589E390E006
:10103000089583EE90E0089582EE90E0089586EEA4
:1010400090E008959091AD0392FF06C0282F28717B
:101050002830F9F4877F846093FF06C0282F287119
:101060002831F1F4877E84612091AE0320FF06C011
:10107000382F38713830D9F4877F816021FF06C05E
:10108000282F28712831D1F4877E816194FD877ED5
:101090000895282F24712430F9F68B7F8860DCCFE7
:1010A000282F2471243101F78B7E8861DDCF382F02
:1010B0003171313019F78E7F8860E0CF282F217190
:1010C000213121F78E7E8861E1CF08950C94650867
:1010D00008950C946808E82FF0E0EE0FFF1FE85A1F
:1010E000FC4F808191810895089580EA8A95F1F7F7
:1010F0000895F894E82FE295EF70F0E031A1282FE1
:101100002F7081E090E001C0880F2A95EAF7982FB0
:101110009095932391A392A1892B82A3789408950B
:10112000CF93DF93CDE5D1E089910E94790881E0EA
:10113000CD36D807C9F786EC0E94790887EC0E9463
:10114000790883EC0E94790880E30E94790881E3A2
:101150000E94790882E00E947908ECE4F3E0A8E5B7
:10116000B3E0119211921D921D9283E0E835F807C9
:10117000C1F786E00E945609DF91CF910C94F005EB
:101180006F927F929F92AF92BF92CF92DF92EF9237
:10119000FF920F931F93CF93DF939DE5E92E91E08C
:1011A000F92E10E000E0C0E0CC24C394D12C38E547
:1011B000A32E33E0B32ED7018D917D01F894E82F53
:1011C000E295EF70F0E021A18F70A60102C0440FFC
:1011D000551F8A95E2F7CA01922F982B91A392A1ED
:1011E0008095892382A378940E947508A601002E19
:1011F00002C0440F551F0A94E2F7BA01609570953A
:10120000ECE4F3E08DE6682E81E0782ED0E02191C9
:101210003191D3019D903D01892D82958F7090E091
:10122000DC0190968C9190E0B92DBF7002C095952D
:101230008795BA95E2F780FD35C0C901842B952BBF
:101240002817390739F09F0122503109D9018D93B0
:101250009C93D1E0AE16BF06D1F6F701319780819D
:101260000E947908CD2B0F5F1F4F0031110509F047
:10127000A2CF2C2F46E068E573E08CE493E00E9457
:1012800057090E94FC058C2FDF91CF911F910F9180
:10129000FF90EF90DF90CF90BF90AF909F907F90A6
:1012A0006F900895C90186239723CACF0895FF92AE
:1012B0000F931F93CF93DF93F82E092F162FD72F5D
:1012C000C42F222349F081E08093EA010E9429255E
:1012D0009093E9018093E8018091EA018823A1F0CD
:1012E0008091E8019091E9010E944125069760F004
:1012F000EF2DF02FA12FBD2F90E080E0D0E08C17D4
:101300009D0744F01092EA01DF91CF911F910F9158
:10131000FF900895219131912D933D930196EFCF48
:10132000EF92FF920F931F93CF93DF93EB01E82F80
:10133000D11110C0442321F0F0E0EE5AFA4FE491AD
:101340006E2F7E2F8E2FDF91CF911F910F91FF90E7
:10135000EF9008950D2F10E0282F30E0442329F05E
:101360002E5A3A4FF901249130E0F6E0CF9FC001A8
:101370001124EFEFF0E0BF010E94CE31AB018C2FC2
:1013800090E0880F991FA5E5A49FB001A59F700D5F
:101390001124861B970B982F990F980FBF01601B84
:1013A000710B629FD001639FB00D729FB00D11242D
:1013B0008B2F9D9FB0011124672F7727EF01C61B4C
:1013C000D70BBE01629FE001639FD00D729FD00DCD
:1013D00011247F01E91AF108E09EB001E19E700D31
:1013E000F09E700D1124672F7727E61BF70BE29F05
:1013F0008001E39F100DF29F100D1124E12F722F39
:101400004230510599F048F44115510569F04130D9
:10141000510581F0EB2F8D2F07C04430510569F045
:1014200080F046305105B1F76E2F8DCFE22F7B2F24
:10143000812FFACFE22F7D2FF7CFEB2F822F712F45
:10144000F3CF7B2F822FED2FEFCF41E00C9490094B
:1014500008950C94250ACF93DF93762FE901682F26
:10146000842F0E94290A798368838A83DF91CF9130
:10147000089580916403982F9E7F29F48170826083
:101480008093640308958635E8F381708465F8CF0E
:1014900088E090E00C94E332CF92DF92EF92FF92DB
:1014A0006B017C010E94390AB701A60188E090E037
:1014B000FF90EF90DF90CF900C9401336091640324
:1014C0007091650380916603909167030C944C0AB8
:1014D000E4E6F3E083E0808311828FEF82838383ED
:1014E000148260817181828193810C944C0A809175
:1014F000640380FF02C08695089580E0089590916E
:101500006803933018F49F5F90936803882351F029
:101510006091640370916503809166039091670305
:101520000C944C0A089581E00C947F0A9091680312
:10153000992319F0915090936803882351F060919A
:1015400064037091650380916603909167030C9426
:101550004C0A089581E00C94960A809168030895DE
:1015600080936803662351F0609164037091650372
:1015700080916603909167030C944C0A089560E093
:101580000C94B00A809165030895809166030895D4
:1015900080916703089570E00C94431260910801F4
:1015A0008091640380FF0AC08091070123E0829F3D
:1015B000C001112487599C4F0C94CB0A80910901DA
:1015C00090910A0123E0829FF0011124E759FC4F1A
:1015D000891750F71182108212828F5F3396F8CFED
:1015E0009091640390FF14C09091090120910A0129
:1015F00033E0939FF0011124E759FC4F921710F04C
:101600000C94CE0A8183608342839F5F3396F6CF2A
:101610000895CF93DF9300D00F92CDB7DEB79091AE
:10162000640390FF0AC09E012F5F3F4F0E942B0A68
:101630004B8169818A810E94F00A0F900F900F9070
:10164000DF91CF910895CF93DF93EC01EC81F0E02F
:10165000E35BFB4F4491E4E6F3E0628181810E9409
:10166000090B8C818F5F8C83DF91CF910895CF938D
:10167000DF93EC01E4E6F3E0438162818C810E9418
:10168000090B8C818F5F8C83DF91CF9108950F932D
:101690001F93CF93DF9300D00F92CDB7DEB78C01AD
:1016A0008091EB0181110AC09E012F5F3F4F4FEFE8
:1016B0006FEF0E942B0A8A818093EB01F80164810D
:1016C000613069F08091EB0140E0662361F040E019
:1016D000623011F44091EB0180E060E004C0609161
:1016E000EB0140E080E00E94F00AF801848190E084
:1016F000019663E070E00E94E23184830F900F90C6
:101700000F90DF91CF911F910F910895AF92BF92EB
:10171000CF92DF92EF92FF920F931F93CF93DF93BD
:1017200000D00F92CDB7DEB7182FF62E042FE22E81
:101730009091640390FF29C0E92FE695AE2FB0E0A9
:10174000AD58BE4F8C9180935E029E7F923059F5CA
:101750009E012F5F3F4F812F0E942B0A4B81698191
:101760008A810E94F00A10936503F0926603009349
:101770006703EE2051F060916403709165038091DE
:101780006603909167030E944C0A0F900F900F9090
:10179000DF91CF911F910F91FF90EF90DF90CF904D
:1017A000BF90AF900895823019F400916703DBCFAA
:1017B000863019F410916503D6CF8930D9F3893179
:1017C00091F6E9518E2F8170D82EE695F0E0E35B1B
:1017D000FA4FA590B490C12CBB2460910B01C616A2
:1017E00018F00E94CE0ABFCF2C2D30E0A29EC0017F
:1017F000A39E900DB29E900D112470E00E94CE31F8
:10180000812FD11013C0860F40910901420F532F31
:10181000511D9A01220F331F240F351F27593C4FAA
:10182000402F6F2D0E942B0AC394D7CF861BECCF7D
:10183000E4E6F3E09181282F4381628188E0890FFB
:101840000C94860B81E00C94180CE4E6F3E0918193
:10185000282F4381628188EF890F0C94860B81E0E9
:101860000C94250CE4E6F3E0628121E1620F08F4B8
:101870006FEF282F438181810C94860B81E00C94BB
:10188000320CE4E6F3E0628121E1621B08F460E0DF
:10189000282F438181810C94860B81E00C94410CAC
:1018A000E4E6F3E0438121E1420F08F44FEF282FF3
:1018B000628181810C94860B81E00C94500CE4E6EB
:1018C000F3E0438121E1421B08F440E0282F6281CC
:1018D00081810C94860B81E00C945F0C20E00C94C9
:1018E000860BEF92FF921F93CF93DF93EC0110E0F2
:1018F000EE24EA94F12C60910B01161770F00E940F
:10190000CE0A9A818C8190FF27C08F5F8C83DF91F4
:10191000CF911F91FF90EF90089520910901422FE0
:10192000410F5527551FCA019A01220F331F280F57
:10193000391F27593C4F70E0C7010E94E231962FB2
:101940008C814091670360916603199F800D11247B
:101950000E942B0A1F5FCFCF8150D8CFAF92BF928A
:10196000CF92DF92EF92FF920F931F93CF93DF936B
:10197000FC0182810FEF80FF01E010E045E1A42E21
:1019800080910B011817C8F00E94CE0A8091ED01DA
:10199000013009F055C0811102C080910B018150C6
:1019A0008093ED01DF91CF911F910F91FF90EF9008
:1019B000DF90CF90BF90AF900895C0910901C12EE4
:1019C000D12CCC0DDD2DD11DCE01880F991FC80F54
:1019D000D91FC759DC4F198218821A8234E0E32ECE
:1019E000F12CB12C8091ED018B0D86311CF16A2D0B
:1019F0000E94C031892F082E000C990BC816D906F9
:101A000091F4809167038E9DA0018F9D500D11244C
:101A100055954795559547959E0160916603809130
:101A200065030E942B0AB00EF1E0EF1AF108D1F61F
:101A30001F5FA6CF87FFDFCF90910B01890FDBCF10
:101A400090E0019660910B0170E00E94E231A8CF16
:101A50000F931F93CF93DF938091090190910A0117
:101A600023E0829FF0011124E759FC4F891740F1D0
:101A7000C0E0D3E060910B01C61740F10E94CE0A8E
:101A8000209105018091EC01820F8093EC019091EF
:101A90000601920F90930601191654F4082E000CBB
:101AA000990B40910B014150550B841795071CF081
:101AB000219520930501DF91CF911F910F910895FA
:101AC0001182108212828F5F3396D0CF0C2F10E0DC
:101AD00070E0C8010E94E23120910901820F482F75
:101AE00050E02091EC01022E000C330B021713077B
:101AF000BCF020910601022E000C330B2017310799
:101B00007CF08D9F9001112427593C4F4091670331
:101B100060916603809165030E942B0ACF5FAACF74
:101B2000FA01EE0FFF1FE40FF51FE759FC4F11827A
:101B300010821282F3CF8F929F92AF92BF92CF9278
:101B4000DF92EF92FF920F931F93CF93DF93EC01FD
:101B50004C81042F10E09801D8010E942D329B0186
:101B6000AC010E9443324B015C01E0E2F0E0E01B7B
:101B7000F10BA5E5B0E0AC019B010E9443326B0183
:101B80007C019F01DF010E9425329B01AC010E9474
:101B90004E329B01AC01280D391D4A1D5B1DC7014A
:101BA000B6010E94F631F22E822F90E039E23F1505
:101BB00060F143E0249F9001112435952795122F61
:101BC000109500E085E5E82EEF1880910B010817CD
:101BD00058F10E94CE0A9C8181E0992319F090323D
:101BE00019F48FEF8093040180910401890F8C8395
:101BF000DF91CF911F910F91FF90EF90DF90CF90E9
:101C0000BF90AF909F908F90089525E530E0B90187
:101C1000681B790B9B01220F331F260F371F37FFDD
:101C2000CCCF2F5F3F4FC9CF8E2D01FD8F2D20913F
:101C30000901622F600F7727771F9B01220F331F47
:101C4000260F371F27593C4F412F609166030E9492
:101C50002B0A0F5FBACF0F931F93CF93DF93EC0143
:101C600010E000E090910B019017110609F06CF460
:101C70000E94CE0A8C8190E00196817099278C8316
:101C8000DF91CF911F910F91089520910901A80133
:101C9000420F511D9A01220F331F240F351F275960
:101CA0003C4F4C8160916603809165039695901737
:101CB000110651F04CF0442349F0409167030E9413
:101CC0002B0A0F5F1F4FCECF4423B9F340E0F7CF6D
:101CD0008F929F92AF92BF92CF92DF92EF92FF923C
:101CE0000F931F93CF93DF93FC01B280948081E028
:101CF000848300E015E05BE4A52E88248394EE2421
:101D0000EA94F12C7BE4C72ED12C80910B010817AB
:101D100070F0DF91CF911F910F91FF90EF90DF90C6
:101D2000CF90BF90AF909F908F900C94CE0AC02F11
:101D3000D0E01C9FF0011D9FF00D1124E251FE4FD9
:101D400091101CC01382128220910901CE01820FD2
:101D5000911D9C01220F331F280F391F27593C4F1B
:101D60001C9FF0011D9FF00D1124E251FE4F428196
:101D7000618180810E942B0A0F5FC7CF23812223BC
:101D800079F12150238334818A2D821B311101C0C6
:101D9000822F1C9FF0011D9FF00D1124E251FE4F78
:101DA00090916703899FC0011124B6010E94CE3132
:101DB0006283211104C0332311F01482A38222E034
:101DC0002B1510F21C9FF0011D9FF00D1124E25104
:101DD000FE4F809165038083809166038183B4CF39
:101DE0000E94BE32823091400CF0AECF82E08B1563
:101DF00030F50E94BE32B7010E94E2311C9FF00113
:101E00001D9FF00D1124E251FE4F808322E02B151F
:101E1000C8F40E94BE32209166032695622F70E0BE
:101E20000E94E231280F1C9FF0011D9FF00D11242C
:101E3000E251FE4F21831282A382848285CF80915A
:101E40006503DCCF20916603EECFE4E6F3E080810A
:101E50008E7F808360817181828193810E944C0A90
:101E600010925F022FEF80E792E021508040904077
:101E7000E1F700C000000C94CE0AE4E6F3E08081B4
:101E80008E7F808310925F022FEF80E792E02150D7
:101E900080409040E1F700C000000C94CE0A6091B1
:101EA0006403669570E04BE050E08CE091E00E94A6
:101EB000CE32892B19F481E080935F020E9429259C
:101EC000909358028093570208959091640390FF75
:101ED00035C09170811128C092609093640366238D
:101EE00051F0609164037091650380916603909155
:101EF00067030E944C0A60916403669570E04BE0B2
:101F000050E08CE091E00E94CE32892BA1F010923B
:101F10005F0281E080935A024091670360916603FB
:101F2000809165030C946E0C8B3210F09465D5CFC4
:101F3000880F982BD2CF0E944F0FEBCF0895682FB8
:101F400090916403969581E0890F8B3208F081E0CF
:101F50000C94650F81E00C949F0F682F909164039F
:101F600096958FEF890F09F48AE20C94650F81E052
:101F70000C94AD0F61E00C94650FE4E6F3E0808112
:101F80008160808386950C94BA0F8091640380FDF4
:101F90000C94250F0C94BD0F60E00C94650F80919C
:101FA0005D0281112EC00E942F23811104C00E9466
:101FB000DC230E94680A0E94480A609364037093BD
:101FC000650380936603909367036E7F61F40E94BC
:101FD000680A0E94480A60936403709365038093C3
:101FE0006603909367030E94390A10925F02809102
:101FF000640380FF03C086950E94CC0F81E080932C
:102000005D020895E4E6F3E0808181608083869537
:102010000C94CC0F0F931F93CF93DF9380915F02AB
:10202000882309F49DC080915E02E0916403E695E7
:10203000E81BE09359028230C9F5F0E0E75BFB4F03
:10204000E491CE2FD0E003E21BE080915A02882376
:1020500089F010925A020E9429259E012095309500
:10206000820F931F909358028093570210925C0244
:1020700010925B0280915702909158020E94412574
:102080008C179D0708F46CC0E0915702F09158023C
:10209000CE0FDF1FD0935802C093570287E592E01E
:1020A000F801DF91CF911F910F910994863049F487
:1020B000F0E0EA5BFB4FE491CE2FD0E007E31BE0BA
:1020C000C4CF893051F4E695F0E0ED5BFB4FE4912D
:1020D000CE2FD0E001E71CE0B8CF8F3051F4E69569
:1020E000F0E0E05CFB4FE491CE2FD0E00EEA1CE084
:1020F000ACCF853149F4F0E0E35CFB4FE491CE2FA7
:10210000D0E008E21DE0A1CFC8E2D0E00BE91DE07D
:10211000883109F49ACF833239F4EBE3F4E0C591C6
:10212000D49107E41BE091CFC4EFD1E00BE21EE0B5
:10213000843209F48ACFC0EDD7E008E21AE0853294
:1021400009F083CF8E2F63E00E94B431E92FF0E0D5
:10215000E85CFB4FE491CE2FD0E008E61EE075CF9F
:10216000DF91CF911F910F910895FA01811101C064
:10217000FB010994CF93DF93C82FD62F0E94770AD3
:102180008C1740F00E94770A8D1720F4DF91CF91D1
:102190000C94AA0F8C2FDF91CF910C94BA0F0F9350
:1021A0001F93CF938C01FB01C281CC2309F465C03E
:1021B0000E947A228272F801E35CFC45E431F10569
:1021C00038F4EC5BFC4C0C9418320E94C50FC0E054
:1021D0008C2FCF911F910F91089547EB5FE06AEA32
:1021E0007FE00E94B510F3CF4AEA5FE067EB7FE043
:1021F000F8CF4FE25CE062E27CE0F3CF42E25CE0E9
:102200006FE27CE0EECF4DE45CE06EE37CE0E9CF92
:102210004EE35CE06DE47CE0E4CF4BE65CE06CE533
:102220007CE0DFCF4CE55CE06BE67CE0DACF4AEAAD
:102230005AE063E97AE0D5CF43E95AE06AEA7AE006
:10224000D0CF81E00E94BA0FC2CF65E082E00E9449
:10225000BA10BDCF68E086E0FACF6EE089E0F7CF34
:1022600064E18FE0F4CF67E185E1F1CF88E1EACF67
:1022700062E289E1ECCF83E2E5CFC1E0A9CF8091B2
:10228000A8030C9461238091A80386958695869572
:10229000089508950E942F23811102C00E94DC231B
:1022A0000E945D238093A803803220F087708861AC
:1022B0008093A8039091A803892F817090FF04C098
:1022C000892F8695869586950C9449118091A8034F
:1022D000982F969596959695933040F49F5F990F19
:1022E000990F990F8770892B8093A8038091A80379
:1022F00081608093A8030E9461238091A803869542
:10230000869586950C9449118091A803982F987F03
:1023100079F088508093A803887F91E009F490E0D9
:102320008091A80390FB80F98093A8030E94612309
:102330008091A8038695869586950C944911809185
:10234000A80380FD13C081608093A803813019F435
:1023500089E08093A8038091A8030E946123809163
:10236000A8038695869586950C94491108958091C9
:10237000A80380FF08C08E7F8093A8030E9461237A
:1023800080E00C94491108958091A80380FD0C947D
:10239000B7110C949F119091A803892F869586956B
:1023A00086958F5F8F7197708430D8F4880F880F6F
:1023B000880F892B8093A8038091A803887F91E0E0
:1023C00009F490E08091A80390FB80F98093A80322
:1023D0000E9461238091A8038695869586950C942A
:1023E00049119093A803E8CF843008F083E09091DE
:1023F000A8039770282F220F220F220F922B909361
:10240000A803987F21E009F420E09091A80320FB25
:1024100090F99093A8030C9449110E94F4118091B3
:10242000A8030C9461239C01FB018281882349F15C
:102430002E3BFCE53F07C9F040F42C3BECE53E07A2
:1024400069F02D3B3C4579F00895203C9CE5390727
:1024500091F070F0213C3C4589F0089583E00E94A2
:102460000D1280E0089580E0FACF0E948411F9CF28
:102470000E946611F6CF0E94C411F3CF0E94CB11C7
:10248000F0CF81E00895579A4BB14F775BB1506818
:10249000EFB7F8949B01220F331F260F371F280F29
:1024A000391F2817390741F4EFBF8FE594E00197F2
:1024B000F1F700C000000895DC016D91CD0178E0D6
:1024C0005BB9000000C067FF4BB9660F000000C099
:1024D00000C000C04BB900C07A9591F7E2CF82E20C
:1024E00090E00E94DB32813289F483E290E00E9426
:1024F000DB32813059F484E290E00E94DB3291E0DB
:10250000863209F090E0892F8170089580E0FCCF39
:10251000CF93C82F6FEF811161E282E290E00E94B9
:10252000EF326FEFC11161E083E290E00E94EF3281
:102530006FEFC11166E284E290E0CF910C94EF322C
:1025400080E00E9488120C942923089585E290E08F
:102550000E94DB32682F70E090E080E0089585E211
:1025600090E00C94EF320E94A5120E946F1281112C
:102570000CC060E070E0CB010E94AF120E949F147B
:102580000E948B1581E00C9488120895CF93FB0173
:10259000C281CC2309F19C0122513F4520313105F4
:1025A00020F582510E949B15C0E08C2FCF91089599
:1025B00081E00E94F62043E062E081E00E94DE05B7
:1025C000F3CF81E00E94172143E062E081E00E94A6
:1025D000DE05EBCF82E0F6CF8031FFE59F0789F380
:1025E00081319F45B9F3C1E0E0CF8031EFE59E072F
:1025F000F9F281319F45C9F682E0DBCF2FEFFC0174
:1026000020830895CF93DF93EC018881893029F0EE
:102610008A3079F0DF91CF9108950E9443112FEF16
:10262000829FC001112463E070E00E94CE31698373
:10263000F1CF1982EFCFFC012081293061F4818133
:10264000F3E08F9FC00111246FEF70E00E94CE3144
:10265000862F0C94F4110895CF93DF93EC018881B9
:102660008138A9F028F4803871F0DF91CF91089576
:10267000823881F08338C9F70E94C20A89830E9498
:10268000C50A8A83F2CF0E94C80A8983EECF0E94CE
:10269000770AFBCF0E94AD0AF8CFCF93DF93EC010E
:1026A00088818138E1F028F4803869F0DF91CF919A
:1026B0000895823811F18338C9F70E94C80A482F5B
:1026C0006A81898108C0D9810E94C50AC82F0E94E9
:1026D000C20A4D2F6C2FDF91CF910C946E0C898123
:1026E0000E94CC0F8981811104C0DF91CF910C949D
:1026F0003D0FDF91CF910C9402108981DF91CF9132
:102700000C94BF0ADF92EF92FF920F931F93CF9327
:10271000DF93EC01D62EDC01ED918D01E150E33128
:1027200008F0C9C0F0E0E85AFC4C0C941832198249
:1027300089E08A836D2DCE01DF91CF911F910F919A
:10274000FF90EF90DF900C94E72A8981823069F046
:10275000833071F08130D9F40E9435250E941E32F9
:102760006A837B838C839D83E5CF0E94A612F6CF7C
:102770007E0110E0812F0E946B08F7019283838312
:102780001F5FF2E0EF0EF11C1630A1F7D3CF6D2DD5
:10279000CE010E94FE12CECF89818230C1F76A81BC
:1027A0007B818C819D810E941E320E94AF12C2CF1C
:1027B0004B816A8189810E94711498278927982703
:1027C0009D838C83B7CF2C813D81322723273227ED
:1027D0004B816A8189810E948A14ACCF0E949F1428
:1027E000A9CFCD010E941B13C8010E944D13A2CF97
:1027F000CD010E940213C8010E942C139BCF0E949E
:102800003F110E945E0A96CF0E943415898392CFB1
:102810000E9436159827892798279A8389838ACF1B
:102820006B8170E089819A81AE014C5F5F4F982780
:10283000892798270E9439157DCF6B8170E08981A7
:102840009A81AE014C5F5F4F9827892798270E9495
:10285000601570CF0E948B156DCF0E945E14D6CF8D
:102860006B8170E089819A81AE014C5F5F4F982740
:10287000892798270E94D7145DCF6B8170E08981EA
:102880009A81AE014C5F5F4F9827892798270E9455
:10289000FD1450CF0E94A0124DCF0E94E72A2FEFC7
:1028A00081EE94E0215080409040E1F700C00000AC
:1028B0000E9474253FCF8FEF88833CCF84E008953A
:1028C00090E2699FB001112450E0440F551F640F3E
:1028D000751F90EC899F600D711D1124CB018696A8
:1028E00008950F931F93CF93DF930E9460148C0180
:1028F0000E94DB32C82FD0E0DC2FCC27C801019624
:102900000E94DB329E01282BC901DF91CF911F91DC
:102910000F9108950F931F93CF93DF93122F032FDF
:102920000E946014EC01602F0E94EF32612FCE01F3
:102930000196DF91CF911F910F910C94EF32AF92DE
:10294000BF92CF92DF92EF92FF921F93CF93DF93CC
:1029500088E9C82E80E0D82ED0E07601C0E014C00F
:10296000F50125913491412F6C2F8D2F0E948A14EF
:1029700082E0A80EB11C1F5F103191F780E2E80ED3
:10298000F11CCF5FC63019F0570110E0E9CFDF5FCF
:1029900080ECC80ED11CD43001F7DF91CF911F918C
:1029A000FF90EF90DF90CF90BF90AF900895EF929F
:1029B000FF920F931F93CF93DF93EC018A017C0169
:1029C000E60EF71ECE018696CE15DF0539F4DF91AF
:1029D000CF911F910F91FF90EF900895C11523E0C3
:1029E000D20740F40E94DB32F80180830F5F1F4F53
:1029F0002196E8CFF8011082F9CFCF92DF92EF92C3
:102A0000FF920F931F93CF93DF937C016A018C0198
:102A1000060F171FEC01CE018696C017D10749F4A7
:102A2000DF91CF911F910F91FF90EF90DF90CF90AA
:102A30000895C11523E0D20740F4FE01EE19FF0905
:102A4000EC0DFD1D60810E94EF322196E4CF462FF0
:102A5000843038F4763028F4603118F4672F0C9401
:102A6000711490E080E0089580E108958AED94E08B
:102A70000895EF92FF920F931F93CF93DF93EC0192
:102A80008A017C01E60EF71ECE018A5D9C4FCE15B1
:102A9000DF0539F4DF91CF911F910F91FF90EF90F7
:102AA0000895CA3D24E0D20740F40E94DB32F801C9
:102AB00080830F5F1F4F2196E7CFF8011082F9CF77
:102AC000CF92DF92EF92FF920F931F93CF93DF93FA
:102AD0007C016A018C01060F171FEC01CE018A5D93
:102AE0009C4FC017D10749F4DF91CF911F910F91EF
:102AF000FF90EF90DF90CF900895CA3D24E0D20779
:102B000040F4FE01EE19FF09EC0DFD1D60810E94ED
:102B1000EF322196E3CFCF93DF93C6E2D3E060E0BC
:102B2000CE010E94EF322196C11588E0D807B9F78F
:102B3000DF91CF910895DF92EF92FF920F931F9351
:102B4000CF93DF9300D000D0CDB7DEB7F82E8FE063
:102B50008F1540F08FEF97E00E94DB3206E213E022
:102B60008823C1F00F900F900F900F90DF91CF91BD
:102B70001F910F91FF90EF90DF900895011588E06D
:102B8000180781F3C8010E94DB32811101C0FA9459
:102B90000F5F1F4FF110F2CF19821A821B821C8225
:102BA000DD24D39478018FEFE81AF80AC8010E9457
:102BB000DB3289831A828823A9F29FEF980F933022
:102BC00078F48A83D9820E5F1F4FC7010E94DB32DF
:102BD0008B83882339F2CE0101960E948705E2CFCC
:102BE0008701F9CF0F931F93CF93DF93C42FD22F79
:102BF000FC0182818823C9F0409362020E9429254A
:102C0000909361028093600280E28C0F883008F01C
:102C100050C0C77081E001C0880FCA95EAF7DF9104
:102C2000CF911F910F910C94801A1091620214138E
:102C300035C080916002909161020E944125883CDC
:102C4000910560F5C0E2CD0F1D17B9F080E2810F4C
:102C5000883040F4177081E001C0880F1A95EAF7B8
:102C60000E94871AC83048F481E09D2F977001C0F8
:102C7000880F9A95EAF70E94801A802F0E946D1A99
:102C8000C830B8F4D77081E001C0880FDA95EAF750
:102C9000DF91CF911F910F910C94871A80E28C0FD6
:102CA000883038F4C77081E001C0880FCA95EAF710
:102CB000EFCFDF91CF911F910F9108950F939C015A
:102CC000CB01243F4CE5340759F1A8F4293DFCE53C
:102CD0003F0701F12A3D4CE53407D1F1283D3C4541
:102CE00091F406E221EE41EE68ED7CE50E94F215DA
:102CF00080E00F910895263FFCE53F07E9F0B0F032
:102D0000273F3C45F9F0FC018281882339F110927C
:102D10006202EFCF07E225EE45EE69ED7CE5E6CFF6
:102D200006E221EE40EE64EF7CE5E0CF07E225EE1F
:102D300044EE65EF7CE5DACF06E221EE42EE66EF87
:102D40007CE5D4CF07E225EE46EE67EF7CE5CECFFB
:102D500008E221E045EE6AED7CE5C8CF81E0C9CF0D
:102D6000CF93DF93EC01FB018281882309F419C121
:102D7000C230FCE5DF07C0F1C6319CE5D90730F071
:102D80009E012B5F3C452930310570F50E9442239E
:102D90009093AE038093AD03C031ECE5DE0709F4F8
:102DA000CFC008F05BC0C8308CE5D80709F4B6C0C6
:102DB00088F5C430ECE5DE0709F4A8C0C0F4C230E1
:102DC0008CE5D80709F49CC08091AD038260C330C4
:102DD000DC4509F498C08091AD039091AE030E9448
:102DE00050230E94FC1C80E0DF91CF9108958091D8
:102DF000AD038061C630ECE5DE0709F484C0809144
:102E0000AD038860C730DC4508F47DC08091AD0318
:102E1000806279C0CC308CE5D80709F489C070F4A1
:102E20008091AD038C60CA30ECE5DE0709F46BC01D
:102E300008F478C08091AD038E7F65C0CE308CE5FC
:102E4000D80709F479C08091AD038B7FCF30DC4582
:102E500008F459C08091AD038F7E55C0CC3FECE59E
:102E6000DE0709F457C030F5C3318CE5D80709F403
:102E70006FC078F4C131ECE5DE0709F465C0C231FA
:102E8000DC4509F0A8CF0E94FC1C8091AD038F7730
:102E90003AC0C5318CE5D80709F462C008F476C0A1
:102EA0008091AE038160CB3FDC4509F094CF8093E5
:102EB000AE0391CFC115FDE5DF0709F44DC088F4DD
:102EC0008091AE038D7FCE3F9CE5D90781F3809141
:102ED000AE038E7FCF3FDC4550F38091AE0383601D
:102EE000E6CFC230FDE5DF0709F459C008F444C05D
:102EF00080E0C330DD4509F06ECF0E94DE236BCF4A
:102F00008091AD0381608093AD0365CF8091AD0367
:102F10008460F9CF8091AE038260C9CF8091AD0308
:102F20008064F1CF0E94FC1C8091AD038068EBCFE0
:102F30008091AD038D7FE7CF8091AD03877FE3CF95
:102F40008091AD038F7DDFCF8091AD038F7BDBCF91
:102F50008091AD03837FD7CF8091AE038C7FA7CFC5
:102F60008091AD0382FB992790F921E0922790FB95
:102F700082F990FB83F9C7CF8091AE03982F90958B
:102F800091708E7F892B90FB81F991CF0E94FC1C60
:102F90009091AD03892F97FB87F98058B4CF81E0DA
:102FA000ACCF81E021CFCF93DF93EB0186319C45FD
:102FB00011F50E947A229A81992399F08A7A91E0F8
:102FC00009F490E090936302811109C089E20E94A4
:102FD00055220E94C62280E0DF91CF91089585E3BB
:102FE000F6CF80916302811104C089E20E945C22C5
:102FF000F0CF85E3FBCF81E0EFCF90936902809320
:1030000068020895E0916802F0916902309721F01A
:103010000190F081E02D099480E00895E09168022C
:10302000F0916902309711F480E008950190F081E9
:10303000E02D09950895E0916802F09169023097BA
:1030400099F020912B01222359F02091AD0327FF05
:1030500007C0DC012C9111962C93119725E02C933D
:103060000280F381E02D09940895E0916802F091C7
:103070006902309739F022E0DC012C930480F5815D
:10308000E02D099408952091660230916702281777
:10309000390771F09093670280936602E0916802AD
:1030A000F0916902309721F00680F781E02D0994B4
:1030B000089520916402309165022817390771F054
:1030C0009093650280936402E0916802F091690236
:1030D000309721F00084F185E02D0994089585B79B
:1030E000806885BF85B7806885BF08950895089575
:1030F0000C94761808950C947A180E946F180E9408
:1031000077180C94781881E008950C94831808952A
:1031100008950E9420250E9490080E94B3120E94E8
:10312000AE250E944A110E94CF0F0C947B187F920B
:103130008F929F92AF92BF92CF92DF92EF92FF92C7
:103140000F931F93CF93DF93CDB7DEB72A970FB6B8
:10315000F894DEBF0FBECDBF0E9487180E9488186A
:103160000E94C0080E948518882309F475C04BE6A8
:10317000A42E42E0B42E10E000E0702E802F0E94BA
:103180006B086C01F501819091905F01881699069A
:1031900009F45CC08091190381FD0E94740880E0ED
:1031A000EE24E394F12C8C249D2494012E213F21C4
:1031B000232B09F445C08E837F82CE20DF2081E05F
:1031C000CD2809F480E088870E9429258160782F26
:1031D0009A8789874E815F8168858A850E94511907
:1031E000000F111FF801E559FD4F80819181E826FC
:1031F000F926F182E0820E940A100E946D040E946A
:1032000059270E94021890916A028917B1F10E9411
:10321000021880936A022A960FB6F894DEBF0FBE9A
:10322000CDBFDF91CF911F910F91FF90EF90DF9075
:10323000CF90BF90AF909F908F907F900C9462063C
:103240008F5FEE0CFF1C803109F0AFCF0F5F1F4F77
:103250000630110509F091CF8FEF89838A831B8295
:103260000E9429258160782F9D838C8349815A8112
:103270006B818D810E945119BECF2A960FB6F894AA
:10328000DEBF0FBECDBFDF91CF911F910F91FF9099
:10329000EF90DF90CF90BF90AF909F908F907F90F6
:1032A0000895CF93DF93CDB7DEB72B970FB6F89481
:1032B000DEBF0FBECDBF4F83588769877A878B8764
:1032C0001E821D8285E0FE013796DE011196019077
:1032D0000D928A95E1F749815A816B817C818D81BC
:1032E0009E812B960FB6F894DEBF0FBECDBFDF9147
:1032F000CF910C94721FFC01808191810C94272244
:10330000CF93C82F882309F490C08238C1F40E945B
:10331000021881FD8AC089E30E9455220E94C622BC
:103320002FEF81EE94E0215080409040E1F700C003
:10333000000089E30E945C22CF910C94C62283385E
:10334000A1F40E94021880FD70C083E50E945522FE
:103350000E94C6222FEF81EE94E0215080409040E1
:10336000E1F700C0000083E5E5CF8438A1F40E94B6
:10337000021882FD5AC087E40E9455220E94C6228C
:103380002FEF81EE94E0215080409040E1F700C0A3
:10339000000087E4CFCF8CEF8C0F813AB8F48C2FEC
:1033A0000E94C029811141C06C2F8091170190911A
:1033B00018010E94F723882329F08C2F0E945C2299
:1033C0000E94C6228C2F0E945522B6CF80E28C0F1D
:1033D000883048F4C77081E001C0880FCA95EAF7C9
:1033E0000E947D22A9CFEBE5EC0FE33040F4F0E042
:1033F000E453FE4F808190E0CF910C944318E8E5B0
:10340000EC0FE73150F4F0E0EE0FFF1FE256FE4FF5
:1034100080819181CF910C945918C03F30F08C2F4E
:103420000E945326CF910C943E27CF910895882374
:1034300009F452C0823871F40E94021881FF4CC016
:1034400089E30E9455220E94C62289E30E945C22E1
:103450000C94C622833859F40E94021880FF3CC0A5
:1034600083E50E9455220E94C62283E5EFCF84386F
:1034700059F40E94021882FF2FC087E40E9455224F
:103480000E94C62287E4E2CF9CEF980F913AF0F2B7
:1034900090E2980F983050F4877091E001C0990F36
:1034A0008A95EAF7892F0E948322D2CF9BE5980F55
:1034B000933020F490E080E00C94431898E5980F46
:1034C000973120F490E080E00C945918803F20F070
:1034D0000E94BB260C943E270895CF93C82F0E94CC
:1034E0008019C93349F42FEF87EE93E021508040D3
:1034F0009040E1F700C000008C2FCF910C94171A78
:10350000882321F00E947D220C94C62208958823EE
:1035100021F00E9483220C94C6220895BF92CF927C
:10352000DF92EF92FF920F931F93CF93DF936C0183
:10353000D62FC72FFC01058102950F701281111142
:103540000E949A220E947322E82E882391F0112370
:10355000D1F08C2F807F803421F080E28D0F883075
:1035600090F082E00E9411230E94732291E0E82EE5
:10357000E926BC2EB2949FE0B922EB2DF0E0E5598C
:10358000FC4C0C941832E12CF4CF0C2F0F70C07F40
:1035900011F00295007F1123A9F0002359F080E279
:1035A0008D0F883010F0D11109C0802F0E947D222C
:1035B0000E94C6228D2F0E94801914C0802F0E9465
:1035C0008D22F6CF8D2F0E94171A002359F080E22A
:1035D0008D0F883010F0D1112CC0802F0E948322D3
:1035E0000E94C6222B2D2850330B2430310520F4A5
:1035F0000E9402180E946206EE2009F49EC10E94F9
:103600006F2280FD9AC1F60112820E9469220E94F7
:10361000F620C6010E94BE1C0E946922DF91CF9154
:103620001F910F91FF90EF90DF90CF90BF900C947F
:103630001721802F0E949322D3CFFC2FFF70FF2EE3
:10364000C07FC03219F0F29480EFF822DD2369F0D8
:10365000D13049F1112391F1002351F1F601858117
:1036600080FFA8CF8F70858323C0112381F00111C3
:1036700006C00E94AD228F290E94801AB3CF01306C
:10368000C1F70E94AD228F290E94B322ABCF011156
:1036900006C00E94BC228F2D0E94871AA3CF013042
:1036A00009F4A0CFF6CF112329F0063008F09ACF05
:1036B0008F2DE2CF053008F095CFEDCF002359F3E1
:1036C000D93349F4FFEF27EE33E0F150204030408A
:1036D000E1F700C000008D2F0E94171A83CF8C2FB6
:1036E00086958695837069F0813009F07BCF8D2FA8
:1036F0009C2F9370111102C090E080E00E94591835
:1037000071CF8D2F9C2F9370111102C090E080E03B
:103710000E94431867CF8D2F112329F00E94532652
:103720000E943E275FCF0E94BB26FACF8C2F83706A
:1037300009F041C0111156CF4D2F42954695477063
:10374000440F440F0D2F0F7010E030E020E0042EE6
:1037500004C0000F111F221F331F0A94D2F760E02C
:1037600070E0CB01D4FF0FC06FE070E080E090E02C
:1037700004C0660F771F881F991F4A95D2F760957E
:10378000709580959095C695C695C370602B712BEA
:10379000822B932BC23049F058F4C13019F00E94AB
:1037A000A82020CF0E9496201DCF0E94BA201ACFB9
:1037B0000E94942017CF8695112311F08C2F8170D1
:1037C000882309F40FCF4D2F429546954770440F3B
:1037D000440F0D2F0F7010E030E020E0042E04C0E5
:1037E000000F111F221F331F0A94D2F760E070E010
:1037F000CB01D4FF0FC06FE070E080E090E004C028
:10380000660F771F881F991F4A95D2F760957095AC
:1038100080959095C695C695C370602B712B822BB1
:10382000932BC23049F058F4C13019F00E946D2139
:10383000D9CE0E945B21D6CE0E947F21D3CE0E949A
:10384000D020D0CECF70112329F08C2F0E94F620EB
:103850008D2F12CF8D2F0E94871A8C2F0E94172137
:10386000C1CED23F89F160F4D03FC9F0D13F29F1F8
:10387000112309F442C001119DCE8C2F8F7121C0FC
:10388000D33F39F1D43FA1F7112369F1CF718C2FC8
:103890000E94F62063E08C2F0E94FC22A3CE11230D
:1038A00041F0053008F09ECE8C2F8F710E943A2196
:1038B00099CE063008F096CEF7CF8C2F8F7111235A
:1038C00069F20E94F6208ECE8C2F8F711123C9F3DE
:1038D000C5CF112329F08C2F8F710E94E12082CE59
:1038E0000E94DC207FCE81E00E941123023008F488
:1038F00079CE82E00E94112375CE002359F0D9338E
:1039000009F0E9CE8FEF97EEE3E081509040E04080
:10391000E1F7DFCE8C2F8F71A1CF4C2F4F706D2F21
:10392000C6010E946A060E940C205CCE4C2F4F708C
:103930006D2FC6010E946D0655CEDF91CF911F916C
:103940000F91FF90EF90DF90CF90BF9008950F936D
:103950001F93CF93DF93EC01688179818A810E9464
:1039600031228C010E9491210E949320B801CE0146
:10397000DF91CF911F910F910C948E1ACF93DF930B
:10398000EC018B819C81892B29F088819981892385
:103990008F3F59F4DF91CF910895CE010E94A71C6B
:1039A000CE01DF91CF910C94C804CE010E940E0687
:1039B0008111F3CF0E947322882361F38A818823C7
:1039C00049F382E0DF91CF910C9411230E949A2257
:1039D0000E94AA220E94C6220E9465280E943E27B9
:1039E00090E080E00E94431890E080E00C94591829
:1039F0000E9463220C94E61C0E948A220C94F81CFC
:103A0000E92FE295EF70E250EE3070F4F0E0E55807
:103A1000FC4C0C941832803F19F020F4883E20F4BE
:103A200081E00895843FE1F380E00895883EC0F38B
:103A3000813FD1F7F5CF93FB882780F908950E9445
:103A400027220C94001DCF93DF9300D000D00F925B
:103A5000CDB7DEB70F900F900F900F900F90DF91C2
:103A6000CF910895CF93DF9300D000D000D0CDB791
:103A7000DEB726960FB6F894DEBF0FBECDBFDF913E
:103A8000CF9108951F93CF93DF93C091780216E0F2
:103A9000809179028C1304C0DF91CF911F9108951A
:103AA000D0E01C9FF0011D9FF00D1124E658FD4F42
:103AB0004081518162817381848195810E94321D90
:103AC0002196C770E5CF4091AA025091AB02609158
:103AD000AC027091AD028091AE029091AF020C9455
:103AE000321D1F93CF93DF938091AF02807FA9F4A3
:103AF0008091AC02882389F080917802C09179028C
:103B00006091AA027091AB02A091AD02B091AE0299
:103B1000D62FD72316E0C81304C0DF91CF911F9191
:103B2000089590E0109711F0DF3F19F40196877027
:103B3000F2CF189F9001199F300D1124F901E6581A
:103B4000FD4F41814713F2CF40814613EFCF4281B1
:103B50004111ECCF438154814A1B5B0B483C51051A
:103B600028F78091AF028F7080618093AF02F901D6
:103B7000E158FD4F80818F70806180838AEA92E0F6
:103B80000E94BE1CDF91CF911F910C94421DAF92F9
:103B9000BF92CF92DF92EF92FF920F931F93CF933A
:103BA000DF93CDB7DEB761970FB6F894DEBF0FBED7
:103BB000CDBF8C0185E0F801DE011D9601900D92CC
:103BC0008A95E1F7F80140815181E2808AEAC82EA6
:103BD00082E0D82E6091AD027091AE026115710540
:103BE00009F461C19091AA022091AB02892F82232E
:103BF0008F3F09F458C1A380B480F090AC02F50166
:103C0000E61BF70BFF2009F4FCC08091AF02382FB0
:103C1000307FE83CF10508F0B2C0311179C0FE2CCC
:103C2000251323C0941321C0E1101FC08F70806141
:103C30008093AF020E94631DC6010E94BE1C80914A
:103C4000AF02F80185838F2D61960FB6F894DEBF21
:103C50000FBECDBFDF91CF911F910F91FF90EF90DD
:103C6000DF90CF90BF90AF900895AB2829F0842FBC
:103C700085238F3F09F033C180E0F82FF170DF2EEC
:103C800080FF3CC0809178022091790236E0821357
:103C900015C04D875E878D859E850E942722292F1E
:103CA00022952F702230F0F0243018F59F70F1F03B
:103CB000F8019581907FD1F4D12C1EC090E0389FFF
:103CC000F001399FF00D1124E658FD4F6181651315
:103CD00006C06081641303C062816E110FC001963B
:103CE0008770D5CF9F7011F0882331F3805E8830C4
:103CF00018F3C8010E94BE1CFD2CA5CFEE2009F4CC
:103D0000A2CF8091AF0281608093AF02F12C9BCF54
:103D1000251306C0941304C0F801EE2009F48DC0E9
:103D20004D875E878D859E850E941F1D882319F112
:103D3000EE2009F18091AF02803270F02091AA024A
:103D40003091AB0238872F831986BB86AA868C8771
:103D5000CE0107960E94BE1C86E0F801AAEAB2E0F6
:103D600001900D928A95E1F70E94711D0E94631DDA
:103D7000FF24F39468CFC8010E94BE1CF9CF311113
:103D800013C07A2DB98AA88A6E2D89890E94231DB5
:103D90008AEA92E00E94BE1C86E0F60111928A95A2
:103DA000E9F70E94631DB2CF25130FC094130DC015
:103DB000E1100BC0F8018583C8010E94BE1C86E09B
:103DC000F60111928A95E9F73ECF4D875E878D8582
:103DD0009E850E941F1D882371F2EE2061F2809162
:103DE000AF02803208F4B8CF2091AA023091AB0222
:103DF0003A8329831B82BD82AC828E83CE010196D9
:103E0000A9CFE83CF10508F041C0FE2CEE2009F4F2
:103E1000B2CF25132AC0941328C08091AF0280FD31
:103E20001BC0982F907FC1F0F8018583903F31F03F
:103E3000982F907F905F8F70892B8583C8010E9497
:103E4000BE1C86E0F801AAEAB2E001900D928A95C4
:103E5000E1F70E94631DF7CE86E0F801AAEAB2E01E
:103E600001900D928A95E1F7EECE4D875E878D85A4
:103E70009E850E941F1D81116FCF8091AF028160CE
:103E80008093AF02C8010E94BE1CDDCE7A2DB98A94
:103E9000A88A6E2D89890E94231D86E0F601119261
:103EA0008A95E9F7D6CFEE2009F465CF4D875E8776
:103EB0008D859E850E941F1DF82E882309F45BCFF7
:103EC00086E0F801AAEAB2E001900D928A95E1F746
:103ED0008AEA92E00E947B190E94711DBACF81E0AC
:103EE0008E25CBCE1F93CF93DF93CDB7DEB72C9724
:103EF0000FB6F894DEBF0FBECDBF4F8358876987DA
:103F00007A878B879C87CE0107960E94C71D8823DE
:103F100069F08A859B85892B39F04F815885842FDC
:103F200085238F3F09F071C016E05FC086E0FE0177
:103F30003796DE01119601900D928A95E1F78A85F8
:103F40009B85892B89F388859F8189238F3F61F326
:103F50002091790230E0C90101968770992740913C
:103F600078024817190671F40E94FC1C109279021D
:103F70001092780286E0EAEAF2E0DF011D928A956B
:103F8000E9F7D2CF96E0929FD001939FB00D112414
:103F9000A658BD4FFE01319601900D929A95E1F71A
:103FA000809379020E94421DBFCF819FC0011124DE
:103FB00086589D4F0E94C71D8823E9F0E091780242
:103FC0001E9FF0011124E658FD4F4081518162810E
:103FD0007381848195810E94321D8091780290E0E6
:103FE000019687709927809378028091780290914A
:103FF00079028913DACF2C960FB6F894DEBF0FBE84
:10400000CDBFDF91CF911F91089569857A858B850A
:104010009C850E94321D88CFEF92FF920F931F93D1
:10402000CF93DF938C01892B81F0F12CEE24E39464
:10403000E8012196F8018491843770F4843008F007
:104040005FC08130B1F08230A1F1DF91CF911F913B
:104050000F91FF90EF900895853709F44CC008F454
:104060003DC09CE7980F903780F78F770E94171A12
:1040700049C00E5F1F4FFE01849190E2980F983067
:1040800060F48770FE2D01C0FF0F8A95EAF78F2F2D
:104090000E949D220E94C62202C00E9480198F2D7C
:1040A000815030F2EFE9FFE03197F1F700C00000F6
:1040B000F7CF0E5F1F4FFE01849190E2980F98306A
:1040C00050F48770FE2D01C0FF0F8A95EAF78F2FFD
:1040D0000E94A322DFCF0E94171AE1CF0E5F1F4F6D
:1040E000FE01C491C150D8F28FE99FE00197F1F72A
:1040F00000C00000F7CF0E5F1F4FFE01F490CFCF3E
:104100000E9480198E01CBCF08950C9484200E94C8
:1041100085206093F0027093F1028093F2029093F5
:10412000F3020C94E61C08950C9487200F931F93C0
:104130000091F0021091F1022091F2023091F3020D
:10414000602B712B822B932B1F910F910C94872046
:104150000F931F930091F0021091F1022091F2024F
:104160003091F30260237123822393231F910F91D7
:104170000C9487200F931F930091F0021091F1028D
:104180002091F2023091F302602771278227932752
:104190001F910F910C9487200C9484200C94CC20B8
:1041A0000E94CE206093EC027093ED028093EE02A9
:1041B0009093EF020C94E61C60E070E0CB010C944D
:1041C000D0200F931F9341E050E060E070E08A013F
:1041D0009B0104C0000F111F221F331F8A95D2F7C5
:1041E000C901B8011F910F910C94D0200F931F9318
:1041F00041E050E060E070E004C0440F551F661FCE
:10420000771F8A95D2F78091EC029091ED02A091F0
:10421000EE02B091EF028A019B01082B192B2A2B89
:104220003B2BC901B8011F910F910C94D0200F9323
:104230001F9341E050E060E070E004C0440F551F60
:10424000661F771F8A95D2F7CB01BA0160957095EA
:10425000809590950091EC021091ED022091EE0274
:104260003091EF0260237123822393231F910F91DA
:104270000C94D0200F931F9341E050E060E070E079
:1042800004C0440F551F661F771F8A95D2F780918F
:10429000EC029091ED02A091EE02B091EF028A0142
:1042A0009B01082719272A273B27C901B8011F911D
:1042B0000F910C94D0200F931F930091EC0210915A
:1042C000ED022091EE023091EF02602B712B822BD8
:1042D000932B1F910F910C94D0200F931F9300915B
:1042E000EC021091ED022091EE023091EF0260237A
:1042F0007123822393231F910F910C94D0200F934D
:104300001F930091EC021091ED022091EE0230918A
:10431000EF0260277127822793271F910F910C943A
:10432000D02008959295907F890F982F977041E043
:1043300001C0440F9A95EAF786958695869595E093
:10434000899FF0011124E055FD4F30E020E070E03E
:104350005191DF011197CB01022E02C096958795EE
:104360000A94E2F7817081958527842385278C93B1
:104370002F5F3F4F2530310559F708959295907F73
:10438000890F982F977086958695869525E0829F50
:10439000F0011124E055FD4F50E040E080E0219114
:1043A00030E0092E02C0369527950A94E2F7217075
:1043B0003327042E01C0220F0A94EAF7822B4F5FA5
:1043C0005F4F4530510559F70895BF92CF92DF9264
:1043D000EF92FF920F931F93CF93DF938C01C090C6
:1043E000EC02D090ED02E090EE02F090EF028091AE
:1043F000F0029091F102A091F202B091F302C82A6A
:10440000D92AEA2AFB2ACFE1D0E0BC2ED701C60187
:104410000C2E04C0B695A795979587950A94D2F768
:1044200080FD0EC0219788F7B12C8B2DDF91CF91A5
:104430001F910F91FF90EF90DF90CF90BF90089564
:10444000B8018C2F0E947606019761F3EECFCF93CF
:10445000DF93EC010E94E521BE01DF91CF910C9426
:1044600076061F93CF93DF93EB0190917702992308
:1044700031F0CB01DF91CF911F910C94272288233B
:1044800079F0CB010E94E521182F682FCE010E9400
:104490009221BE01812FDF91CF911F910C9476065E
:1044A000CB010E94BE21182FF4CF682F80911701F5
:1044B000909118010C947724682F809117019091A6
:1044C00018010C94822480911701909118010C948A
:1044D0008D248091F4028595859585950895809128
:1044E000F402877008959091F402977081E009F4C6
:1044F00080E0089580911803089590911803892B06
:1045000080931803089580959091180398239093B1
:104510001803089510921803089590911703892B9A
:104520008093170308958095909117039823909393
:104530001703089510921703089590911603892B7D
:104540008093160308958095909116039823909375
:10455000160308951092160308958091F5020895A8
:1045600008950C94B0229091F502981721F0809351
:10457000F5020C94B12208958091F502882329F068
:104580001092F50280E00C94B1220895E091170199
:10459000F0911801809118038083E0911701F09148
:1045A0001801808190911703892B8083E091170176
:1045B000F0911801808190911603892B808390914E
:1045C000F502992381F0E0911701F09118018081A3
:1045D000892B808380911701909118010E94E32319
:1045E00081110E94BC2280911701909118010C94B6
:1045F0001B1808950C94F92298E0899F90011124CA
:10460000622B6093F4020E94F6208091F40285955B
:10461000859585950C94FA221092F40280E00C9412
:10462000FA229091F402809589238093F402282F36
:10463000277071F4282F082E000C330B92171306E5
:1046400039F08595859585950E9417210C940C234A
:1046500008956FEF7FEF90E080E00C940D3390E0D1
:1046600080E00E94E93221E08C3E9E4F09F020E07C
:10467000822F089582E090E00C94DB3283E090E09A
:104680000C94DB32CF9384E090E00E94DB32C82FA1
:1046900081E290E00E94DB32982F8C2FCF91089519
:1046A000CF93C92F682F84E090E00E94EF326C2FE7
:1046B00081E290E0CF910C94EF3286E090E00C9490
:1046C000DB32682F86E090E00C94EF32AB01BC0146
:1046D0008FE090E00C940133AB01BC0183E190E0EA
:1046E0000C94013360E070E0CB010C946C2360E02B
:1046F00070E0CB010E9466230C9472236CEE7EEF77
:1047000090E080E00E940D3360E082E090E00E9443
:10471000EF3260E083E090E00E94EF321092F0020E
:104720001092F1021092F2021092F30260E084E023
:1047300090E00E94EF3260E081E290E00E94EF3270
:1047400060E085E090E00E94EF3260E086E090E07B
:104750000E94EF326FEF87E090E00E94EF3240E07E
:1047600050E0BA0188E090E00E94013360E08DE003
:1047700090E00E94EF3240E050E0BA0188E190E022
:104780000E94013360E087E190E00E94EF3240E058
:1047900050E0BA018CE190E00E94013360E080E2D9
:1047A00090E00E94EF3240E050E0BA0188E190E0F2
:1047B0000E9401330C9477230C947E23682F8EE0A3
:1047C00090E00C94EF32FC01329680912B0188230B
:1047D00021F08091AD039EE187FF96E080E091504B
:1047E00008F4089521912223D1F38F5FF8CF662337
:1047F00001F120912B012223F1F02091AD0327FF3D
:104800001AC0462F4695469546954E3190F46770EE
:1048100021E030E002C0220F331F6A95E2F7840FD7
:10482000911DFC01828190E02823392381E0232B14
:1048300069F480E00895FC013296089621912617CC
:1048400021F0E817F907D1F7F4CF81E008959C0132
:10485000FC0132969FEF80E04191461751F09F3F57
:1048600019F4411101C0982F8F5F8630A9F79F3F3F
:1048700009F40895290F311D97FD3A95F9016283D6
:104880000895FC01329608962191261303C0DF019A
:1048900011971C92E817F907B9F70895E62FE695E6
:1048A000E695E695EE3168F4E80FF92FF11D677093
:1048B00021E030E001C0220F6A95EAF78281822B65
:1048C00082830895E62FE695E695E695EE3170F43D
:1048D000E80FF92FF11D677021E030E001C0220FD1
:1048E0006A95EAF7209582812823228308952091F2
:1048F0002B01222329F02091AD0327FD0C944E2497
:104900000C94272420912B01222329F02091AD0320
:1049100027FD0C9462240C944124FC013296809172
:104920002B01882351F08091AD0387FF06C08EE1F3
:10493000DF011D928A95E9F7089586E0F9CF089581
:1049400008950C94A0240E94A1248091B303843084
:1049500061F110921A0388E190E020E40FB6F89418
:10496000A895809360000FBE2093600080E00E94B5
:10497000491180E00E9462060E94A12483B7817FD2
:10498000846083BF83B7816083BF7894889583B741
:104990008E7F83BF0FB6F894A895809160008861E0
:1049A00080936000109260000FBE08950895CF9329
:1049B0000E949F240E94C0080E94D624C0E08C2F31
:1049C0000E946B08892B31F4CF5FC630C1F780E0BD
:1049D000CF91089581E0FCCF08950C94EC240E94BF
:1049E000FC1C0E944A110E9402180E9462060C944C
:1049F000ED241F921FB61F9211248F939F93AF93A4
:104A0000BF9380911A03811113C08091A9039091E3
:104A1000AA03A091AB03B091AC034196A11DB11DB7
:104A20008093A9039093AA03A093AB03B093AC0324
:104A3000BF91AF919F918F911F901FBE1F901895AE
:104A400082E084BD93E095BD9AEF97BD80936E00A0
:104A500008952FB7F8948091A9039091AA03A0918B
:104A6000AB03B091AC032FBF08952FB7F8946091BA
:104A7000A9037091AA038091AB039091AC032FBF5F
:104A800008959C014FB7F8948091A9039091AA03CF
:104A9000A091AB03B091AC034FBF821B930B089561
:104AA00078941F921FB61F9211248F939F93AF93F8
:104AB000BF938091A9039091AA03A091AB03B091F9
:104AC000AC030196A11DB11D8093A9039093AA0385
:104AD000A093AB03B093AC03BF91AF919F918F9123
:104AE0001F901FBE1F90189581E08093E00080E228
:104AF0008093D8001092C9008FE19EE40197F1F7EE
:104B000000C0000087E090EBDC018093BC03909331
:104B1000BD03A093BE03B093BF0388E19CE00FB632
:104B2000F894A895809360000FBE90936000FFCF2B
:104B30000C94A0120E94C0088FE39CE90197F1F742
:104B400000C000000E94C00880E00E946B0880FF47
:104B500004C00E9498250C94742508950E942F2368
:104B6000811102C00E94DC230E943A238093190322
:104B70000E9442239093AE038093AD030E943E2394
:104B8000682F70E090E080E00E9494206091EC0239
:104B90007091ED028091EE029091EF020C94CE2084
:104BA0008091210380FF12C060911E0185E0689F03
:104BB000B0011124759567957595679560387105F5
:104BC000A8F561157105A1F1862F089581FF09C02F
:104BD00060911E0185E0689FB0011124759567956D
:104BE000EDCF60911E0182FD0AC0809120038823D1
:104BF000D1F090911D0160911E01891728F085E088
:104C0000689FB0011124DACF869FB001112485E09E
:104C1000869F9001879F300D1124692F70E0C90194
:104C20000E94E231CBCF65E070E0CECF8FE70895F0
:104C300081E008958091210380FF0CC060911A01EA
:104C400070E075956795759567956115710549F1E2
:104C5000862F089581FF06C060911A0170E0759556
:104C60006795F3CF60911A0182FD0BC090911F03ED
:104C70009923A1F06091190180911A01961738F0DB
:104C8000682F70E06038710500F38FE70895899F01
:104C9000C001112470E00E94E231F4CF61E070E0C5
:104CA000D7CF81E00895803F31F40E94D0258195CF
:104CB000809325030895813F19F40E94D025F8CFF1
:104CC000823F31F40E94D02581958093240308957A
:104CD000833F19F40E94D025F8CF893F29F40E9420
:104CE0001A268093260308958A3F21F40E941A26EB
:104CF0008195F7CF8B3F31F40E941A2681958093DE
:104D0000270308958C3F19F40E941A26F8CF843F98
:104D100031F4809123038160809323030895853FBC
:104D200021F4809123038260F7CF863F21F48091A4
:104D300023038460F1CF873F21F4809123038860AF
:104D4000EBCF883F21F4809123038061E5CF8D3F35
:104D500031F48091210381608093210308958E3F77
:104D600021F4809121038260F7CF8F3FB9F78091C2
:104D700021038460F1CF90912403803F59F4809106
:104D8000250387FF0DC01092250391110BC01092CF
:104D9000200308C0813F81F48091250318169CF3FD
:104DA000992381F08091260390912703892B09F0A4
:104DB00064C010921F030895823F49F497FFF0CF1B
:104DC00010922403809125038111ECCFE0CF833F23
:104DD00019F41916ACF3E4CF20912603893F29F486
:104DE0001216F4F610922603DBCF8A3F19F427FF40
:104DF000D7CFF8CF209127038B3F29F427FFD0CFBF
:104E000010922703CDCF8C3F19F41216CCF3C8CFE4
:104E1000843F31F4809123038E7F80932303C0CF9E
:104E2000853F21F4809123038D7FF7CF863F21F4C6
:104E3000809123038B7FF1CF873F21F4809123035F
:104E4000877FEBCF883F21F4809123038F7EE5CFCE
:104E50008D3F31F4809121038E7F80932103A0CF79
:104E60008E3F21F4809121038D7FF7CF8F3F09F092
:104E700097CF809121038B7FF0CF08950E94292541
:104E80009C019091240380912503982B21F030936D
:104E90001E0320931D039091260380912703982BD6
:104EA00021F030931C0320931B0382E293E00C94C7
:104EB0003518EF92FF920F931F93CF93DF9300D09B
:104EC00000D000D0CDB7DEB786E0E2E2F3E0DE014D
:104ED000119601900D928A95E1F7E0902403F090ED
:104EE00025030091260310912703109224031092AA
:104EF000250310922603109227038E2D8F2991F0FF
:104F000080911D0390911E030E944125AC01909158
:104F10002003992309F43FC080911F0184171506CF
:104F200008F447C0802F812B91F080911B03909152
:104F30001C030E944125AC0190911F03992309F4A1
:104F400077C080911B018417150608F47FC08091FB
:104F5000240390912503892B90912603892B90910E
:104F60002703892B11F00E943E2786E0FE0131962F
:104F7000A2E2B3E001900D928A95E1F726960FB672
:104F8000F894DEBF0FBECDBFDF91CF911F910F917F
:104F9000FF90EF900895209120018AE0289F9001D2
:104FA00011242417350708F0BDCF9F5F909320038D
:104FB00002C09F3FD1F7EE2059F00E94D0259FEF0D
:104FC0001E140CF491E0899F802D112480932403FA
:104FD000FF2059F00E94D0259FEF1F140CF491E0A0
:104FE000899F802D1124809325033091240333233E
:104FF00009F498CF20912503222309F493CF45EBA0
:105000003403C0011124992359F09093240345EBF4
:10501000240390011124332339F03093250382CFE8
:1050200081E080932403F3CF81E0809325037ACF3E
:1050300020911C018AE0289F900111242417350734
:1050400008F085CF9F5F90931F0302C09F3FD1F769
:10505000002359F00E941A269FEF10160CF491E0DD
:10506000899F802D112480932603112359F00E94DB
:105070001A269FEF11160CF491E0899F802D1124C0
:105080008093270330912603332309F460CF2091C6
:105090002703222309F45BCF45EB3403C00111241D
:1050A000992359F09093260345EB24039001112492
:1050B000332339F0309327034ACF81E080932603CE
:1050C000F3CF81E08093270342CF86E0E2E2F3E072
:1050D000DF011D928A95E9F71092200310921F03B9
:1050E000109221030895833081F128F4813059F022
:1050F0008230D1F00895853009F449C0B8F1863086
:1051000009F456C0089580912001482F460F552775
:10511000551F4F3F510524F4680F609320010895F7
:105120008FEF80932001089580911F01482F460F33
:105130005527551F4F3F510524F4680F60931F01F9
:1051400008958FEF80931F01089580911E01482FCD
:10515000460F5527551F4F3F510524F4680F6093A4
:105160001E0108958FEF80931E01089580911D0107
:10517000482F460F5527551F4F3F510524F4680F00
:1051800060931D0108958FEF80931D010895809114
:105190001A01482F460F5527551F4F3F510524F43C
:1051A000680F60931A0108958FEF80931A01089594
:1051B00080911901482F460F5527551F4F3F510524
:1051C00024F4680F6093190108958FEF80931901FB
:1051D0000895833011F128F4813049F0823091F044
:1051E0000895853081F120F18630C1F108958091D4
:1051F0002001681720F4861B8093200108951092E7
:105200002001089580911F01681720F4861B809368
:105210001F01089510921F01089580911E016817C3
:1052200020F4861B80931E01089510921E0108959C
:1052300080911D01681720F4861B80931D0108953D
:1052400010921D01089580911A01681720F4861BA1
:1052500080931A01089510921A01089580911901FE
:10526000681720F4861B8093190108951092190184
:1052700008950F931F9341E050E060E070E08A01D1
:105280009B0104C0000F111F221F331F8A95D2F704
:10529000C901B8010E9494201F910F910C94FC1C2D
:1052A000EBEFE80FEF3308F05AC0F0E0E757FC4CA3
:1052B0000C9418320E94DC2381E008958091190338
:1052C000807F8093190381E08093290308950E94D1
:1052D000FF05F2CF90911903892F8E7F90FF816097
:1052E0008093190380FDE8CF817F80931903E4CF79
:1052F00090911903892F8D7F91FF8260809319030C
:1053000081FFDACF809119038160EFCF909119036B
:10531000892F8B7F92FF84608093190382FDF2CFE7
:10532000CBCF90911903892F877F93FF886080935B
:10533000190383FDE7CFC0CF0E94FC1C9091AD0301
:10534000892F97FB87F980588093AD03B5CF80E014
:105350000E943929B1CF8953FBCF8D51F9CF80E01D
:10536000089580E008950C94B1298E518A3030F46C
:10537000E82FF0E0E153FE4F8081089580E008952A
:10538000CF93C82F809129038130B9F0882331F061
:105390008230A1F11092290380E00DC00E947A2290
:1053A0008232D1F78C2F0E94B12981111BC08C2F22
:1053B0000E9450298170CF9108950E947A228232F2
:1053C00089F38C2F0E94B32981110AC0C43199F04E
:1053D00060F4CB3029F0C03169F782E08093290373
:1053E00081E0E8CF81E090E0E5CFC93221F0C83319
:1053F000B9F380E0DFCF10922903FBCFC93219F156
:1054000088F4C43101F120F4C73081F181E0D3CFB9
:1054100082EE8C0F8630D0F78C2F0E94B5298093B6
:105420002803F4CFCE3401F140F46AE0CB3471F7B5
:10543000809128030E947328E9CFC13579F061E09B
:10544000C235B1F3E3CF80912803882319F010927D
:105450002803DCCF81E080932903ADCF61E0809108
:1054600028030E94E928D2CF6AE0F9CF8EE1809329
:10547000200182E380931F018AE080931E0184E172
:1054800080931D0188E080931A0188E280931901BE
:10549000BDCF80914A030895CF93DF9300D00F9240
:1054A000CDB7DEB79091B303943011F589837B8338
:1054B0006A839093E9008FEF9091E800815095FD09
:1054C00006C095ED9A95F1F700008111F5CF809116
:1054D000E80085FF0DC050E040E063E070E0CE01E1
:1054E00001960E94D32C8091E8008E778093E8008B
:1054F0000F900F900F90DF91CF910895BC0184E041
:105500000C944C2ABC0183E00C944C2A9C0184E04E
:105510008093E9009FEF8091E800915085FD06C0DF
:1055200085ED8A95F1F700009111F5CF8091E800A3
:1055300085FF0CC050E040E066E070E0C9010E94C9
:10554000D32C8091E8008E778093E8000895CF9364
:10555000DF93EC0180912B018823B1F18091AD03A1
:1055600087FF32C060E284E08093E9008FEF909182
:10557000E800815095FD06C095ED9A95F1F7000081
:105580008111F5CF8091E80085FF1BC080912B0130
:1055900070E050E040E0811104C050E040E068E07D
:1055A00070E0CE010E94D32C8091E8008E7780932A
:1055B000E80080E2FE01AAE2B3E001900D928A9534
:1055C000E1F7DF91CF91089568E081E0CDCFCF93EF
:1055D000FC01603221F58091B303843001F5C09164
:1055E000E900CF702091EC00922F917020FD90E89F
:1055F000C92B82E08093E9008091E80080FF0CC015
:1056000050E040E060E270E0CF010E94D32C809136
:10561000E8008E778093E800CF70C093E900CF91C7
:1056200008958091B203811109C00E94B02E0E949A
:10563000122F8091E20084608093E200089510921E
:10564000B2030895089508950C94EF2442E061ECAC
:1056500081E00E942C2E42E261EC84E00E942C2E1C
:1056600042E261EC82E00E942C2E42E260EC83E098
:105670000C942C2E8091B503833009F461C030F472
:105680008130D1F1823009F49DC008958A3009F447
:1056900089C08B3009F46FC0893009F050C0809107
:1056A000B403813209F04BC08091B8039091B903E3
:1056B000009719F0029709F042C08091E800877FB7
:1056C0008093E8008091E80082FF35C08091F2006D
:1056D0009091F300029729F48091F1008B7F813043
:1056E00021F48091F10080934A038091E8008B7748
:1056F0008093E8000C94602E8091B403813AF9F411
:105700008091E800877F8093E8008091B8039091B2
:10571000B903892B61F460E28AE293E070E00E94B1
:10572000712D8091E8008B778093E800089560E008
:1057300090E080E0F3CF8091B3038111C3CF08954F
:105740008091B403813AD9F78091B8039091B9035D
:10575000892BA9F78091E800877F8093E8008091EA
:10576000E80080FFFCCF80912B018093F1008091B5
:10577000E8008E77BDCF8091B403813201F780912C
:10578000B8039091B903892BD1F68091E800877F07
:105790008093E8000E94602E8091B60380932B01D5
:1057A0000C94FC1C8091B403813249F68091E8008E
:1057B000877F8093E8000E94602E8091B7038093DA
:1057C0004B0308958091B403813A09F0B8CF8091DA
:1057D000E800877F8093E8008091E80080FFFCCF9D
:1057E00080914B03C2CFCDB7DEB7A0970FB6F89428
:1057F000DEBF0FBECDBF84B7877F84BF0FB6F894DE
:10580000A89580916000886180936000109260008C
:105810000FBE80E890E00FB6F894809361009093FB
:1058200061000FBE0E947D180E94B02E0E94122FB0
:105830008091E20084608093E20078940E94993124
:105840000E94891881E291E00E94FD1713E0809187
:10585000B303853059F00E9497188091B3038430C8
:1058600091F00E9487180E948818F1CF0E94A3240B
:105870008091B103882359F30E94D724882339F3F8
:105880000E94BD2CE4CF1093E9008091E80082FFD4
:10589000E8CF8091E80090E085FF09C050E040E04B
:1058A00060E270E0CE0101960E94222D91E080918D
:1058B000E8008B778093E800992399F260E2CE01AB
:1058C00001960E948213CDCF0C94662C292F33278A
:1058D0002330310521F168F42130310509F443C04A
:1058E0002230310509F444C090E080E030E020E04F
:1058F00026C02132310551F122323105A9F763303A
:10590000710590F7FB01EE0FFF1FE452FE4F20815F
:10591000318167527E4FFB01808190E010C0992752
:105920008130910581F0009729F00297E9F6E2E5D0
:10593000F6E002C0EAE8F6E0849190E09F01FA0107
:10594000318320830895E0E7F6E0F6CF63307105F8
:1059500058F6660F771FFB01EE51FE4F2081318113
:1059600089E090E0ECCF82E190E029EE36E0E7CFED
:105970008BE590E02EE836E0E2CF88E189BD8AE150
:1059800089BD09B400FEFDCF8091D8008F7D809342
:10599000D8008091E00082608093E0008091E00078
:1059A00081FDFCCF0895AF92BF92CF92DF92FF921C
:1059B0000F931F93CF93DF936C01EB018A010E9439
:1059C0007F2EF82E811123C00115110539F0F80141
:1059D00080819181C81BD90BC80ED91EB12CA12C76
:1059E0002097A9F08091E80085FD22C08091E80011
:1059F0008E778093E80001151105A1F0F8018081F0
:105A00009181A80EB91EB182A08285E0F82E8F2D5B
:105A1000DF91CF911F910F91FF90DF90CF90BF90BA
:105A2000AF9008950E947F2E8823D1F2F82EEFCFF9
:105A3000F60181916F018093F1002197FFEFAF1A7A
:105A4000BF0ACECFAF92BF92CF92DF92FF920F9359
:105A50001F93CF93DF936C01EB018A010E947F2E8D
:105A6000F82E811123C00115110539F0F80180814C
:105A70009181C81BD90BC80ED91EB12CA12C20971F
:105A8000A9F08091E80085FD22C08091E8008B7725
:105A90008093E80001151105A1F0F8018081918142
:105AA000A80EB91EB182A08285E0F82E8F2DDF915D
:105AB000CF911F910F91FF90DF90CF90BF90AF904B
:105AC00008950E947F2E8823D1F2F82EEFCF809187
:105AD000F100F60181936F012197FFEFAF1ABF0A22
