:10F000004BC0000074C0000072C0000070C000005F
:10F010006EC000006CC000006AC0000068C0000044
:10F0200066C0000064C000009AC5000060C0000017
:10F030005EC000005CC000005AC0000058C0000064
:10F0400056C0000054C0000052C0000050C0000074
:10F05000E5C100004CC000004AC0000048C00000EC
:10F0600046C0000044C0000042C0000040C0000094
:10F070003EC000003CC000003AC0000038C00000A4
:10F0800036C0000034C0000032C0000030C00000B4
:10F090002EC000002CC0000011241FBECFEFD0E115
:10F0A000DEBFCDBF83E090E040D480FD04C084B7D4
:10F0B0008D7F84BF03C084B7877F84BFF0E0E0E02A
:10F0C0008591949111E0A0E0B1E0E4E8FEEF02C088
:10F0D00005900D92A438B107D9F721E0A4E8B1E07A
:10F0E00001C01D92A13AB207E1F737D1C9C688CF56
:10F0F000815090F02091F2003091F300232B69F4BD
:10F100009091E8009B7F9093E8009091E80092FD39
:10F11000EFCF9EB39111F9CF08959091F100E8CF10
:10F12000ECE8F1E082819381582F492F8481958109
:10F1300098278927982750938701409386019093B9
:10F140008501809384010895CF92DF92EF92FF9220
:10F150001F93CF93DF9300D00F92CDB7DEB780918E
:10F160008C0190919601992309F442C0843039F5BD
:10F1700080918D01811126C080918E018F3F11F504
:10F1800080918D01833009F09EC081E080939501CC
:10F1900080918E01E0919201F0919301309709F4F2
:10F1A00077C08130D1F4809190019091910198279E
:10F1B0008927982790938A01809389010EC0853012
:10F1C00009F49BC08AE08093000183E0809394015E
:10F1D0008091EB0080628093EB000F900F900F9076
:10F1E000DF91CF911F91FF90EF90DF90CF90089526
:10F1F000843031F260F48130E1F0833071F7809136
:10F200008D01982F9D7F49F58BDF89E023C08530E4
:10F2100009F473C0863009F780918D018330E9F6D7
:10F2200080918E018111D9CF80918F0180938801C7
:10F23000D4CF10918D01123080F672DF111109C008
:10F24000609186017091870120918801822F90E062
:10F250001DD385E080930001C0CF813009F0BDCF80
:10F26000F0E0E0E084918F3F69F010928801F09324
:10F270008701E09386018AE08093000185E0809316
:10F280009401ABCF3196E11520EFF20759F7A5CFE6
:10F29000811111C082E49CED9093A2018093A101A1
:10F2A00088E19CE00FB6F894A895809360000FBEAB
:10F2B0009093600092CF85919491019609F08DCF43
:10F2C000109201018ACF811188CF80918E018F3FEA
:10F2D00009F083CFC12CD12C7601C701B601D6D25B
:10F2E0008FEFD81AE80AF80AC11420EFD206E10419
:10F2F000F10499F71092960170CF809102019091DC
:10F300000301A091040189839A83AB83E0918E016C
:10F3100080918D01811109C0E33080F4EC0FFD2F45
:10F32000F11D818180938B0158CF813009F055CF39
:10F33000E13379F040F488E5E033A1F38AE080938B
:10F34000000188E09CCFE03631F082E8E13651F3ED
:10F35000F5CF8EE1E7CF86E9E5CF84B7877F84BF1D
:10F360000FB6F894A8958091600088618093600042
:10F37000109260000FBE80E890E00FB6F894809382
:10F380006100909361000FBEC1E0C5BF82E085BF00
:10F39000559A5D9A819AC8D36E9A769A3E9A469A01
:10F3A000C0936F0083E080938100769846987894AC
:10F3B000D0E0C0E003C08823D9F3219680910101F9
:10F3C000811104C080919501882369F037D58FB1F0
:10F3D000827090910001923071F7C93893E1D9079A
:10F3E00050F3882329F38FE99FE00197F1F700C0DC
:10F3F000000042D36E9876983E98469810926F001F
:10F400001092810081E085BF15BE11BA10BA1BB8F9
:10F410001AB8E0918901F0918A0109958F9380E4EF
:10F420008CB986B98F9118955F926F927F928F9267
:10F430009F92AF92BF92CF92DF92EF92FF920F9383
:10F440001F93CF93DF93809199018F778132B1F42D
:10F4500080E48CB986B980919F019091A00190932E
:10F4600093018093920180919A01833009F4A6C19F
:10F47000A8F4813019F1823009F40EC1DF91CF91E7
:10F480001F910F91FF90EF90DF90CF90BF90AF90C2
:10F490009F908F907F906F905F900895853009F4D2
:10F4A000B3C108F4A9C1863049F78091E800877F8D
:10F4B0008093E80082E08093000125C08091E800FD
:10F4C000877F8093E80080919501882319F03CDEC6
:10F4D000109295018091920190919301009739F5D6
:10F4E00080910001853051F48091920190919301B7
:10F4F000892B09F043C082E0809300018091E800ED
:10F500008B7F8093E800DF91CF911F910F91FF9047
:10F51000EF90DF90CF90BF90AF909F908F907F90B3
:10F520006F905F908CC22EB3222309F4A7CF209155
:10F53000E80022FFF8CF2091F10020938C01019781
:10F540009093930180939201EDE8F1E08091F200B5
:10F550009091F300892B81F08091F100819380914B
:10F56000920190919301019790939301809392015E
:10F5700021E0E239F20751F7E7DDB2CF8AE1B8DDE9
:10F580000091860110918701802F8F71B1DDC091AC
:10F590008401D09185012196C01BD10B80918D01F2
:10F5A00081116AC0D695C795680180918801E82EBF
:10F5B000F12C7D2C682E5F2C10E0209759F480915F
:10F5C000840190918501909387018093860180E169
:10F5D0008FDD94CF8091F2009091F300892B21F17F
:10F5E00021974091F1005091F100C701B6018AD1F5
:10F5F0001F5F4601570182E0880E911CA11CB11CBF
:10F60000750164011038E9F4602F772D862D952D52
:10F610005BD1209791F2C501B40138D110E0082DDB
:10F62000792C6A2C5B2CC9CF8091E8008B7F80936A
:10F63000E8008091E80082FDD3CF8EB38111F9CF2D
:10F640001DCF209709F0B9CFDFCF8091F2009091C4
:10F65000F300892BA1F021976091F1008091860140
:10F6600090918701FBD3809186019091870101964B
:10F670009093870180938601209739F7A8CF8091D6
:10F68000E8008B7F8093E8008091E80082FDE3CF63
:10F690008EB38111F9CFF2CE8091E800877F8093FD
:10F6A000E8008091E80080FF16C080910001893059
:10F6B000C9F08A30A1F480918D01813081F490915C
:10F6C0008601809187019093F1008093F1008091F1
:10F6D000E8008E7F16CF8EB38111E3CFCFCE80911D
:10F6E0008B01F3CF2091860130918701C091840175
:10F6F000D09185012196C21BD30B80918D01811180
:10F7000034C0D695C795C90120918801A22FB0E0D9
:10F71000219760F4809184019091850190938701F5
:10F720008093860182E080930001D1CF2091F20086
:10F730003091F3002032310559F0FC0125913491CC
:10F740002093F1003093F1000296A11DB11DE0CF8E
:10F750002091E8002E7F2093E8002091E80020FD12
:10F76000ECCF2EB32111F9CF89CE8230D9F6209774
:10F77000C9F28091F2009091F300809791F080910E
:10F7800086019091870162D38093F1008091860178
:10F79000909187010196909387018093860121972C
:10F7A000E6CF8091E8008E7F8093E8008091E800AA
:10F7B00080FDE5CF8EB38111F9CF60CE8091E80056
:10F7C000877F8093E8008091E80080FF11C08091DE
:10F7D00094018093F1001092F1001092F1001092C8
:10F7E000F100809100018093F1001092F1006FCF41
:10F7F0008EB38111E8CF42CE8091E800877F80935D
:10F80000E800109294017FCE8091E800877F80937A
:10F81000E8008091E80080FF03C08091000155CF8F
:10F820008EB38111F6CF2ACE292F30E02230310558
:10F83000C9F02330310541F021303105C1F090E0AD
:10F8400080E030E020E00AC08823B1F08130C9F0C8
:10F850008230A9F782E390E025E031E0FA013183BC
:10F86000208308958BE190E027E531E0F7CF82E136
:10F8700090E022E731E0F2CF84E090E023E531E050
:10F88000EDCF88E190E029E331E0E8CF611520EF8A
:10F89000720781059105B8F4611108952FB7F894A6
:10F8A00007B600FCFDCFF999FECF33E0FB013093A2
:10F8B0005700E89507B600FCFDCF81E18093570023
:10F8C000E8952FBF08950895611520EF720781050F
:10F8D0009105B8F4611108952FB7F89407B600FCAC
:10F8E000FDCFF999FECF35E0FB0130935700E89545
:10F8F00007B600FCFDCF81E180935700E8952FBF4C
:10F900000895089507B600FCFDCFF999FECF21E0D8
:10F91000FB010A0120935700E8951124089521E284
:10F92000FC01209357008491089529E0FC01209365
:10F9300057008491089589E0E1E0F0E0809357005A
:10F94000849108959FB7F89407B600FCFDCFF9990C
:10F95000FECF809529E0E1E0F0E0082E20935700EB
:10F96000E8959FBF0895FC0180919F019091A001AF
:10F9700086179707A0F06115710529F49091E800AA
:10F980009E7F9093E80090E06115710551F491110C
:10F9900008C08091E80082FF32C080E00895BC0179
:10F9A000F2CF8EB38823B1F18530B1F18091E800B8
:10F9B00083FD2EC08091E80082FDEBCF8091E800AE
:10F9C00080FFE2CF2091F2003091F30061157105C4
:10F9D00019F02032310558F091E02032310509F05C
:10F9E00090E02091E8002E7F2093E800CDCF819118
:10F9F0008093F100615071092F5F3F4FE7CF8EB3C5
:10FA0000882341F0853041F08091E80083FFC1CF29
:10FA100081E0089582E0089583E00895EBEEF0E040
:10FA2000808181608083EDEEF0E010826093EC00D5
:10FA300040838091EE00881F8827881F0895809159
:10FA4000990187FF11C08091E80082FF06C0809174
:10FA5000E8008B7F8093E80003C08EB38111F3CF61
:10FA600008958EB38823E1F38091E80080FFF9CFF9
:10FA70008091E8008E7FEECF65D06CD0E0EEF0E0B4
:10FA8000808181608083E8EDF0E080818F778083E2
:10FA900019BCA7EDB0E08C918E7F8C9380818F7E16
:10FAA00080831092980108950F931F93CF93DF9353
:10FAB00049D050D0C8EDD0E088818F778883888185
:10FAC0008068888388818F7D8883E7EDF0E080817E
:10FAD0008068808319BC1EBA1092970100EE10E076
:10FAE000F80180818B7F808388818160888342E2F6
:10FAF00060E080E093DFE1EEF0E080818E7F808344
:10FB0000E2EEF0E080818160808380818860808384
:10FB1000F80180818E7F8083888180618883DF9176
:10FB2000CF911F910F910895E8EDF0E080818F7ED5
:10FB30008083E7EDF0E080818160808381E08093C5
:10FB40009801B2CFE8EDF0E080818C7F8083109245
:10FB5000E20008951092DA001092E10008951F92D9
:10FB60000F920FB60F9211242F933F934F935F93F1
:10FB70006F937F938F939F93AF93BF93EF93FF9375
:10FB80008091DA0080FF17C08091D80080FF13C0F9
:10FB90008091DA008E7F8093DA008091D90080FF17
:10FBA00088C088E189BD8AE189BD09B400FEFDCF26
:10FBB00081E08EBB42D18091E10080FF17C080912F
:10FBC000E20080FF13C08091E2008E7F8093E2000C
:10FBD0008091E20080618093E2008091D800806291
:10FBE0008093D80019BC85E08EBB27D18091E100BD
:10FBF00084FF29C08091E20084FF25C088E189BD8F
:10FC00008AE189BD89B5982F917080FFFBCF8091E3
:10FC1000D8008F7D8093D8008091E1008F7E809303
:10FC2000E1008091E2008F7E8093E2008091E2000B
:10FC300081608093E20080919701882309F43DC0A0
:10FC400084E08EBBFAD08091E10083FF21C08091D7
:10FC5000E20083FF1DC08091E100877F8093E10077
:10FC600082E08EBB109297018091E1008E7F80939D
:10FC7000E1008091E2008E7F8093E2008091E200BB
:10FC800080618093E20042E260E080E0C7DED5D090
:10FC9000FF91EF91BF91AF919F918F917F916F9164
:10FCA0005F914F913F912F910F900FBE0F901F903A
:10FCB000189519BC1EBAC1D07ECF8091E30087FD94
:10FCC00093E09EBBBFCF1F93CF93DF9300D0CDB700
:10FCD000DEB789E991E02091F100FC012193CF0189
:10FCE000F1E0813A9F07B9F79FDB8091E80083FF3D
:10FCF0000DC08091990190919A01963009F466C0E7
:10FD0000C8F4992389F1953009F441C08091E80045
:10FD100083FF0AC08091E800877F8093E80080918C
:10FD2000EB0080628093EB000F900F90DF91CF91FA
:10FD30001F910895983009F46BC0993039F78111FB
:10FD4000E5CF90919B01923008F78091E800877F82
:10FD50008093E8009093970172DE80919701882349
:10FD600009F463C084E066C08D7F803879F68091A5
:10FD7000E800877F8093E8001092F1001092F10074
:10FD80008091E8008E7F8093E80059DEBFCF81111B
:10FD9000BDCF10919B011F778091E3008078812B6C
:10FDA0008093E3008091E800877F8093E80047DE3E
:10FDB0008091E80080FFFCCF8091E3008068809311
:10FDC000E30082E0111183E08EBBA0CF8058823027
:10FDD00008F09CCF60919D0170919E01AE014F5F34
:10FDE0005F4F80919B0190919C011EDDBC01892B8E
:10FDF00009F48CCF9091E800977F9093E800898177
:10FE00009A81B1DD8091E8008B7F8093E8007ECFFE
:10FE1000803809F07BCF8091E800877F8093E800ED
:10FE2000809197018093F100ABCF8091E30087FD33
:10FE300099CF81E08EBB01D069CF08958EB388231E
:10FE400021F08091E80083FD3ECF0895F999FECF1F
:10FE500092BD81BDF89A992780B50895262FF9990A
:10FE6000FECF92BD81BDF89A019700B4021639F019
:10FE70001FBA20BD0FB6F894FA9AF99A0FBE0895EA
:04FE8000F894FFCF24
:10FE8400020120DCFB320358004F00380037002009
:10FE94000053006F006C006400650072006500642C
:10FEA40000200042006F006F0074006C006F00615E
:10FEB40000640065007200000018034D006F006EBE
:10FEC40000730074006100720067006500610072D5
:10FED4000000000403090409021B00010100803230
:10FEE4000904000000FE0102000921030000000CC7
:10FEF40010011201100100000020EB03F92F000093
:04FF040001020001F5
:10FFA00075CC92CCAFCCBBCCC0CCC5CCCBCC08955F
:08FFB0000895089508950895D5
:10FFE000DFCFDFCFDFCFDFCFDFCFDFCFDFCFDFCFA1
:08FFF000DFCFDFCFDFCFDFCF51
:08FFF80000F0000010DFFBDC4B
:040000030000F00009
:00000001FF
